:03000000020A0BE6
:100A0B0078FFE4F6D8FD9000007F807E01E4F0A330
:0A0A1B00DFFCDEFA758161020A605B
:10100500040800000000011B00011C00011800017C
:0A1015001900011A00011700C104C0
:10106500538EFE5389F0858989758CE0758A18C27F
:081075008DC28CD2A9D28C229D
:03000B000210D50B
:0910D500758CE0758A18D2043212
:100C4F00AC08AD09AE0AAF0B1208FE0C880000000D
:100C5F00010C8F000000020C96000000100C9D008C
:100C6F000000200CA4000000400CAB000000800C22
:100C7F00B20000010000000CB9E4F518751901224B
:100C8F00E4F51875190222E4F51875190322E4F535
:100C9F001875190422E4F51875190522E4F518756D
:100CAF00190622E4F51875190722E4F518F519222B
:100E8E00E4FB850B0FAF0BAE0AAD09AC0878081268
:100E9E0008DF8F10E4F511F512F513F514F515FFB3
:100EAE00740F2FF8E62BFB0FBF07F56303FF8B16AE
:010EBE002211
:100FC00075CF10759AFF759BFF7591FF7592FF7530
:100FD000A1FF75A2FF7580FF7590FF75A0FFD2AFCE
:030FE00002106597
:10104700900038E0FF30E715547FF0120938E48F3D
:0E1057000B8E0AF509F508120E8E12110822F2
:100FE300120FC01210A4120AA575CF103004FAC252
:100FF300040517E517D3940A40EFE4F517121047D9
:0210030080E784
:100D29000000000100000005000A0BB800C80064BB
:100D3900000200000001000400000001FFFFFFFFA6
:100D49000014021904080A07018C021904080D0786
:100D59000178021904081407014D02190408120741
:100D690001B402190408100701CF021904080D077C
:0D0D7900013F021904080A0701680A0A2058
:03101F00015D0070
:0B10BF00900D33E493FE740193FF22B8
:0B10CA00900D37E493FE740193FF22A9
:0810E700900D31740193FF220A
:031105007F012245
:100EEC00AD07ED75F008A42451F582E4340DF583BB
:100EFC00E493FEED75F008A42452F582E4340DF56C
:0C0F0C0083E4937C002400FFEC3EFE22F6
:10109200EF75F008A4244EF582E4340DF583E49351
:0210A200FF222B
:0810EF00900D2B740193FF2208
:0710F700744B2FF8E6FF2205
:0710FE007835E6C313FF2261
:0910DE007835E675F00384FF2269
:10107D00120EECEF7803C333CE33CED8F9FF7C00DC
:05108D007D0A02087459
:100F1800E4FD7FF37E01FCEEC313FEEF13FF30D731
:100F28001374152DF582E43400F583ECF00DEDC350
:0A0F3800940750040CBC10DF8D3448
:010F4200228C
:100EBF00EF14601214601414601114601524047080
:100ECF0019900D4B8008900D4C8003900D4DE493BD
:0D0EDF00FF22900D3D740193FF227F002241
:100E1400900D2F7401937835F6900D4974019390D9
:100E24000039F0120F18E4FFEFC39534501AEF7530
:100E3400F008A4244FF582E4340DF583E493FE74A2
:0E0E44004B2FF8A6060F80E0E47854F608F66F
:010E5200227D
:10093800E4F521F522F52312110B50030209FB12ED
:100948001027AD07AC06E4FBEBC395345030ECC37D
:1009580013FCED13FD30D72374152BF582E4340016
:10096800F583E0FF7E007401A807088005C333CE35
:1009780033CED8F94223EE422205210B80CAE52165
:10098800C394024015D200E5219403400512110ECC
:1009980080081210EFEF6002C200200018E523451E
:1009A80022600A785506E6187001068015E4785426
:1009B800F608F6800D785306E618700106E4F5226D
:1009C800F5231210BFD37855E69F18E69E4009120A
:1009D800110EE47854F608F6D37853E6942C18E60A
:1009E8009401401A12110E785D7601E47852F608E7
:1009F800F6800B900D39E4740193FF1205A3AE2223
:020A0800AF231A
:010A0A0022C9
:03005B00020E533F
:100E5300C0E0C0F0C083C082C0D075D000C000C065
:100E630001C002C003C004C005C006C007120BC8FE
:100E7300D007D006D005D004D003D002D001D000D3
:0B0E8300D0D0D082D083D0F0D0E0327D
:0410220041004C003D
:0C10B300EF4E6007EF1F70F81E80F52262
:020B38008F2EFE
:100B3A001210F78F2FAF2E121092EFFB90004BE09E
:100B4A0025E0FF90004AE033FE7C007D0A1208741B
:100B5A00AD037C0012086275F002E52E90000012C7
:100B6A0008F2E0FCA3E0C39FEC9E5007E52F604D1E
:100B7A00148040AF2E121092EFFB90004AE0FEA3C1
:100B8A00E0FF7C007D071208627D0A120874AD033B
:100B9A007C0012086275F002E52E9000001208F23D
:100BAA00E0FCA3E0D39FEC9E4013E52F647E600D2A
:0D0BBA00E52F04FF744B252EF8A607D2018D
:010BC700220B
:100BC800C2057860E675F00290001C1208F2E5E5AF
:100BD800F0A3E5E4F006E6C39534400BE4F6900094
:100BE80038E04480F08002D2057F02120EBFEFC4C5
:100BF80054F0F5E17860E6FF1210927E0090004A0A
:100C0800E0FCA3E0FD1208628EE78FE67F02120E79
:100C1800BFEFC454F0FEC006E4FF120EBFD0E02FB1
:100C2800F5E17860E6FF1210F7E5E254804FF5E24F
:100C38007860E62415F582E43400F583E04480F515
:060C4800E8300502D2EEC7
:010C4E002283
:100AA50075FE8543FF20D2AFC201E47860F6900061
:100AB50038F0120E14E4FF120EBFEF2401FDE433EB
:100AC500FC7E0B7FB812087490004AEEF0A3EFF09D
:100AD500E4FF1210927E0090004AE0FCA3E0FD12B4
:100AE50008628EE78FE67F02120EBFEFC454F0FE58
:100AF500C006E4FF120EBFD0E02FF5E17F04120E11
:100B0500BFEF6008E5E254804480F5E27F03120EF2
:100B1500BFE5E254804FF5E27F01120EBF8FE3126D
:100B25000DCF43A910900015E04480F5E8120CBFE5
:030B3500020F4369
:03110800D2EE2202
:100F9700E4FD900038E0547FF0D2EE900038E05442
:100FA7008070157FE87E031210B343CF100DEDC399
:080FB70094327480948040E341
:010FBF00220F
:100CBF00900D85E493F521120F97E4F522E522C3F9
:100CCF009534502975F002E52290001C1208F2E0CD
:100CDF00FEA3E0FF75F002E5229000001208F2EE8D
:100CEF00F0A3EFF0AF22120B38052280D0AF211501
:100CFF0021EF70C3120F6D1210E78F21120F97E4BF
:100D0F00F522E522C395345009AF2212072405229C
:090D1F0080F0AF211521EF70E313
:010D280022A8
:100F4300E4FFEFC39534502175F002EF90001C12BB
:100F530008F2E0FCA3E0FD75F002EF900000120838
:090F6300F2ECF0A3EDF00F80D9CF
:010F6C002262
:10102700E47861F6F524E524C39534500EAF241215
:0F1037000724AF24120100052480EBAE30AF3147
:011046002287
:020100008F2549
:10010200E4F52D75F002EF9000001208F2E0FEA374
:10011200E0FF75F002E52590001C1208F2E0FCA356
:10012200E0C39FF527EC9EF5267E007401A8250802
:100132008005C333CE33CED8F9F5338E32AF2512D4
:100142000EEC8E2B8F2CC3E527952CE52B6480F8C3
:10015200E52664809840057528018003E4F528E5CA
:1001620028640160030202AA74362525F8E6C394C6
:10017200FA74809480500674362525F806E53055C9
:1001820032FEE53155334E600302027F7835E6F5E3
:100192002A121105EF6032E4F528F529E529C39505
:1001A20034501574362529F8E6C39401748094807E
:1001B20040020528052980E4C3E52894037480944D
:1001C200804006740F252AF52A74362525F8E6C3E1
:1001D200952A500302027FE4F5281210EFEF7055C2
:1001E200F529E529C39534501CE5256529601212CD
:1001F20010DE74362529F8E6C39F40057528018074
:1002020004052980DD121105EF3395E04F705EE59C
:1002120028705AF529E529C395345051E5256529F9
:10022200600F1210DE743D2529F8E6C39F4002805C
:1002320039052980E0121105EF3395E04F702EF554
:100242002AF529E529C39534501574362529F8E68F
:10025200C39402748094804002052A052980E4C375
:10026200E52A9403748094804003752801E528648C
:10027200017002D200E5334231E532423074442546
:1002820025F8E4F674562525F8E4F675F002E5251E
:1002920090002A1208F2E4F0A3F0740E2525F582EC
:1002A200E43400F583E4F022AF2512107DD3E52774
:1002B2009FEE6480F8E5266480984008743D252509
:1002C200F806800A786106743D2525F8E4F6900068
:1002D20039E0FF3395E0FEC3E49FFDE49EFCC3E5F5
:1002E200279DEC6480F8E52664809850030203AFF2
:1002F200D3E5279FEE6480F8E526648098400302E8
:1003020003AF74442525F8E4F6740E2525F582E43E
:100312003400F583E4F0E531453060030204C8752A
:10032200F002E52590002A1208F2E5268527F01250
:1003320008C91210CA75F002E52590002A1208F2C7
:10034200E0FCA3E0C39FEE6480F8EC648098401167
:1003520075F002E5259000001208F2E475F00180C4
:10036200371210CAC3E49FFFE49EFE75F002E52532
:1003720090002A1208F2E0FCA3E0C39FEE6480F82A
:10038200EC64809840030204C875F002E5259000F1
:10039200001208F274FFF5F01208C975F002E525A3
:1003A20090002A1208F2E4F0A3F00204C890003987
:1003B200E0FF3395E0FEC3E49FFFE49EFEC3E52722
:1003C2009FEE6480F8E526648098400302045A7424
:1003D200442525F806740E2525F582E43400F583BC
:1003E200E4F074442525F8E6FD900D83E493FFEDD7
:1003F2008FF084E5F07054900D8493FEEF8EF0A49C
:10040200FFC3ED9FE5F06480F8748098400F744458
:100412002525F8E4F6D201785D7601802E75F0028A
:10042200E5259000001208F2C083C082E0FEA3E03E
:10043200FF900039E0A2E713FD3395E0FCC3EF9D86
:10044200FFEE9CD082D083F0A3EFF0900049E065EC
:1004520025707374FFF0806E900039E0FFFD3395D4
:10046200E0FCD3E5279DEC6480F8E52664809840A3
:100472005574442525F8E4F6E53145307048740E8C
:100482002525F582E43400F583E004F0740E252579
:10049200F582E43400F583E06420702A740E252589
:1004A200F582E43400F583E4F0EFA2E713A2E71348
:1004B200FF3395E0FE75F002E5259000001208F288
:1004C200EE8FF01208C9E5305532FEE53155334E54
:1004D2007003020562AE2BE52C7802CEA2E713CEA2
:1004E20013D8F8FFC3E52C9FFFE52B9EFEC3E5273B
:1004F2009FEE6480F8E526648098505D7456252549
:10050200F8061210FE8F2AE4F529E529C395345026
:100512001574362529F8E6C394017480948040024C
:100522000528052980E4C3E528940374809480405B
:10053200057835E6F52A74562525F8E6C3952A404E
:100542005FE4F6E533F4FFE532F4FEEF5231EE52AA
:100552003074362525F8E4F62274562525F816223D
:1005620074362525F8E4F6E53145307005AF2512DD
:100572000B38E53414652570277861E6C39534405D
:100582001FE4F529E529C39534500F74362529F85F
:10059200E66003752801052980EAE5287002C20099
:0105A2002236
:100F6D00E4FFEFC39534502175F002EF90001C1291
:100F7D0008F2E0FCA3E0FD75F002EF90003A1208D4
:090F8D00F2ECF0A3EDF00F80D9A5
:010F96002238
:020724008F261E
:1007260075F002EF90003A1208F2E0FEA3E0FF75C2
:10073600F002E52690001C1208F2E0FCA3E0C39F3D
:10074600F528EC9EF527AF26120EECAD07AC06D3C6
:10075600E5289DEC6480F8E5276480985016C3E48C
:100766009DFFE49CFEC3E5289FEE6480F8E52764C0
:100776008098501375F002E52690001C1208F2E0EE
:10078600FEA3E0FF020831ECA2E713FEED13FFD350
:10079600E5289FEE6480F8E5276480985016C3E448
:1007A6009FFFE49EFEC3E5289FEE6480F8E527647C
:1007B6008098503775F002E52690003A1208F2E06C
:1007C600FCA3E0FDECC313FEED13FFC3ED9FFDECB0
:1007D6009EFC75F002E52690001C1208F2E0C31399
:1007E600FEA3E0132DFFEC3EFE804075F002E526E9
:1007F60090003A1208F2E0FCA3E0FDAE047803CEC6
:10080600C313CE13D8F9FFC3ED9FFDEC9EFC75F024
:1008160002E52690001C1208F2E0FEA3E07803CE63
:10082600C313CE13D8F92DFFEC3EFE75F002E52674
:1008360090003A1208F2EEF0A3EFF075F002E5260A
:1008460090003A1208F2E0FEA3E0FF75F002E526FA
:0B08560090001C1208F2EEF0A3EFF07F
:010861002274
:03110B00A201221C
:03110E00D20122E9
:100DCF00E4FFEFC39534502974362FF8E4F67444DA
:100DDF002FF8E4F674562FF8E4F675F002EF900052
:100DEF002A1208F2E4F0A3F0743D2FF8E4F60F8016
:100DFF00D1E4F530F53190004974FFF0E4785EF6F8
:040E0F0008F6C2011E
:010E130022BC
:0205A3008F24A3
:1005A50090004CE0C3940374809480403EE4F0785E
:1005B5005DE6702DF525E525C39534502475F002CB
:1005C500E52590003A1208F2E0FEA3E0FF75F0027F
:1005D500E5259000001208F2EEF0A3EFF005258066
:1005E500D5120DCFC201E4785DF622900048E004F3
:1005F500F0E0B52408120F6DE4900049F090004832
:10060500E0D395245003020723E4F525E525C3959A
:100615003440030206D375F002E52590003A12082E
:10062500F2E0FEA3E0FF75F002E52590001C12083C
:10063500F2E0FCA3E0C39FFFEC9EAD07FC785DE60E
:100645007042900039E0FB3395E0FAFEEB7802C387
:1006550033CE33CED8F9FFD3ED9FEE6480F8EC644A
:1006650080984060E49BFFE49AFEEF7802C333CEA6
:1006750033CED8F9FFC3ED9FEE6480F8EC64809823
:100685005042804A900039E0FB3395E0FAFEEB7862
:1006950003C333CE33CED8F9FFD3ED9FEE6480F894
:1006A500EC648098401EE49BFFE49AFEEF7803C358
:1006B50033CE33CED8F9FFC3ED9FEE6480F8EC64FA
:1006C5008098400AAF251207240525020611E52565
:1006D500B53406900049E004F0E52475F008A4FF60
:1006E500900048E0C39FE5F06480F8748098402E40
:1006F500E4F0C20090004CE004F0E52475F004A499
:10070500FF900049E0C39FE5F06480F8748098404D
:0E0715000DE490004CF0120F43120DCFC20104
:0107230022B3
:0F10A400438F80759D88759EB043A901D2AF22FE
:03003B00020D862D
:0B0D8600C0E0C0D075D000C000C00766
:100D9100539DBFE59D540724FD600F146024240476
:100DA1007023751E00751D00801B740F251EF8E64B
:100DB100F59F051EE51EC39408400A751E00C20278
:050DC1008003751E0017
:090DC600D007D000D0D0D0E032FB
:100A2500020FE3E493A3F8E493A34003F68001F2F5
:100A350008DFF48029E493A3F85407240CC8C333D2
:100A4500C4540F4420C8834004F456800146F6DFA1
:100A5500E4800B0102040810204080901005E47E1C
:100A6500019360BCA3FF543F30E509541FFEE49396
:100A7500A360010ECF54C025E060A840B8E493A35D
:100A8500FAE493A3F8E493A3C8C582C8CAC583CA88
:100A9500F0A3C8C582C8CAC583CADFE9DEE780BE40
:0110260000C9
:10086200EF8DF0A4A8F0CF8CF0A428CE8DF0A42EAA
:02087200FE2264
:10087400BC000BBE0029EF8DF084FFADF022E4CC68
:10088400F875F008EF2FFFEE33FEEC33FCEE9DEC31
:10089400984005FCEE9DFE0FD5F0E9E4CEFD22ED77
:1008A400F8F5F0EE8420D21CFEADF075F008EF2FC1
:1008B400FFED33FD4007985006D5F0F222C398FDB2
:0508C4000FD5F0EA224F
:1008C900C5F0F8A3E028F0C5F0F8E58215827002BA
:0608D9001583E038F02257
:1008DF00E8600FECC313FCED13FDEE13FEEF13FFF7
:0308EF00D8F1221B
:0C08F200A42582F582E5F03583F5832211
:1008FE00D083D082E4937012740193700DA3A393EE
:10090E00F8740193F5828883E4737402936C701209
:10091E007403936D700C7404936E70067405936F6C
:0A092E0060DDA3A3A3A3A3A380CA66
:00000001FF
