:10138B0012145B1214B5121515120D3C1215BC007C
:10139B000000000000000012140912107C80F822DB
:0614DE00041A00000000EA
:0A15BC0012148A12160012160422FF
:10147400121559EF60031212C212156412156F127D
:06148400157A1215852205
:041600001215C622D7
:1012C200121620EF120A5312E50012EC0112E90283
:1012D20012EC0312EC0412EC0512EC0612EC0700FD
:0B12E2000012EC1213AB2212142722A2
:01163800228F
:01163900228E
:01163A00228D
:01163B00228C
:01163C00228B
:1014F100054BE54BC394964008754B967F02121538
:021501000322C3
:04160400754B002200
:1013AB00121626EF600312160C121629EF600712A5
:1013BB00161412160822121620EF70031214F122C3
:01163D00228A
:01163E002289
:01163F002288
:011640002287
:011641002286
:10142700121626EF600312160C121629EF60071228
:0A14370016141216082212162022C5
:0314E400012D00D7
:1013EB0043CF10052DAC2DE41209887B007A0079D0
:0D13FB0080783F1209057005F52D120FBF17
:0114080022C1
:100FBF00052FE52F7002052EAE2EAF2F7C007D0A78
:100FCF001209CEED4C70480530AE2EAF2FFC7D329E
:100FDF001209CEED4C70380531AE2EAF2FFC7D646B
:100FEF001209CEED4C70280532AE2EAF2F7C017D4D
:100FFF00F41209CEED4C70170533AE2EAF2F7C03D4
:10100F007DE81209CEED4C70060534F52EF52F2232
:10148A00752E00752F00753400753300753200759E
:06149A0031007530002254
:0515FB00AE2EAF2F220F
:0B155900E5307002FF22AF3015302299
:0B156400E5317002FF22AF311531228B
:0B156F00E5327002FF22AF321532227D
:0B157A00E5337002FF22AF331533226F
:0B158500E5347002FF22AF3415342261
:101503008F4CE540654C6009854041854C407543EF
:021513000122B3
:03162000AF4022B6
:03162300AF4122B2
:0715F4007B007A0079402220
:03162600AF4222AE
:041608007542012204
:04160C007542002201
:03162900AF4322AA
:0416100075430122FB
:0416140075430022F8
:0A15C60075400075410075420122D6
:10140900900038E0FF30E715547FFFF0120BB7E486
:0E141900FCFD8F1D8E1CF51BF51A12162F22DE
:0915DA00AF1DAE1CAD1BAC1A22C2
:1005A3000000000000000000000000000000000048
:1005B3000000000000000000000000000000000038
:1005C3000000000000000000000000000000000028
:1005D3000000000000000000000000000000000018
:1005E3000000000000000000000000000000000008
:1005F30000000000000000000000000000000000F8
:1006030000000000000000000000000000000000E7
:1006130000000000000000000000000000000000D7
:1006230000000000000000000000000000000000C7
:1006330000000000000000000000000000000000B7
:1006430000000000000000000000000000000000A7
:100653000000000000000000000000000000000097
:100663000000000000000000000000000000000087
:100673000000000000000000000000000000000077
:100683000000000000000000000000000000000067
:100693000000000000000000000000000000000057
:1006A3000000000000000000000000000000000047
:1006B3000000000000000000000000000000000037
:1006C3000000000000000000000000000000000027
:1006D3000000000000000000000000000000000017
:1006E3000000000000000000000000000000000007
:1006F30000000000000000000000000000000000F7
:1007030000000000000000000000000000000000E6
:1007130000000000000000000000000000000000D6
:1007230000000000000000000000000000000000C6
:1007330000000000000000000000000000000000B6
:1007430000000000000000000000000000000000A6
:100753000000000000000000000000000000000096
:100763000000000000000000000000000000000086
:100773000000000000000000000000000000000076
:010783002253
:0D154000751600751500750D007508002268
:0E1524008F4DE54D6004439D8022539D7F2234
:10129600AF1574082FF8A69F0515E515D3940540DC
:1012A6001A751500E5082509FF250AFF250BF5180F
:0C12B6006318FFE518B50C031216422265
:041618007515002222
:10107C00E517120A53108B0010C701000010CA7537
:10108C000D01750E02750F0375100475110575129F
:10109C0006751307754E00E54EC394075010AF4EFE
:1010AC00740D2FF8E6FF2519F519054E80E9631923
:0E10BC00FF751408751900751701221205A39F
:0110CA002203
:10144100AF16740D2FF8E6FFF59F0516E516D39438
:0A145100074006751600751700220B
:04161C00751600221D
:1014A000E517B4030F7F001215241205A37517006A
:0514B0000F12152422BB
:011642002285
:011643002284
:10145B00759AFF759B007591FF75920075A1FF75CD
:09146B00A20075A14075A2002247
:0214E700C10240
:0F151500438F80759D88759EB043A901D2AF2288
:0E1532008F4FE54F6004439D0822539DF72222
:03003B00020EE6CC
:100EE600C0E0C0F0C083C082C0D075D000C000C0D2
:0D0EF60001C002C003C004C005C006C00753
:100F0300539DBFE59D5407F550120A530F22000F5E
:100F13003A010F2A020F2F030F370400000F3A1272
:100F2300161C1216188010121296800B1205A312AB
:070F33001441800312161C9B
:100F3A00D007D006D005D004D003D002D001D0000B
:0B0F4A00D0D0D082D083D0F0D0E032B5
:1014B500758E01438901758A20758CD1C28CD2A99C
:0514C500D28CD2AF2221
:03000B000211A33C
:1011A300C0E0C0F0C083C082C0D075D000C000C012
:1011B30001C002C003C004C005C006C007758A2071
:1011C300758CD1B2821213EBD007D006D005D004B0
:1011D300D003D002D001D000D0D0D082D083D0F0C1
:0311E300D0E03227
:10101F000000000000000005000A0BB800C80064C3
:10102F00000200000000000400000001FFFFFFFFAE
:10103F000071022E0408150505A4022E04081A05D6
:10104F000818022E0408280507F0022E04082405AC
:10105F0007D3022E040820050854022E04081A058F
:0D106F0007DD022E0408150508570A0A20A7
:0314E900017E0081
:0B159000901029E493FE740193FF22E9
:0B159B0090102DE493FE740193FF22DA
:0B15A600901027E493FE740193FF22D5
:03162C007F012219
:101262008F51EF75F008A42447F582E43410F5831A
:10127200E493FF7E007F00FEAD51ED75F008A424DB
:1012820048F582E43410F583E493FD7C00EF2DFFF2
:04129200EE3CFE220E
:1014CA008F52EF75F008A42444F582E43410F583B2
:0414DA00E493FF2276
:0B15B100901021E493FE740193FF22D0
:0915E3008F53746C2FF8E6FF220F
:0815EC007856E6FFC313FF224D
:0A15D0007856E6FF75F00384FF2251
:02136A008F48AA
:10136C001212628E498F4AE54A7803C333CE33CECC
:0E137C00D8F9FF7C007D0A1209CE8E498F4AF7
:01138A002240
:1011E6007545007546017547F3754400E544C3949B
:1011F60010502AE546C313F546E54713F54730D7A1
:1012060018AF4574152FF582E43400F583E544F0F4
:101216000545E545C394075004054480CF85453F01
:0112260022A5
:10115F008F54E554120A531179001180011187023F
:10116F00118E03119504000011A0901041E493FF1C
:10117F0022901042E493FF22901043E493FF2290B9
:10118F001043E493FF22901033E493FE740193FF16
:04119F00227F002289
:1010CB00901025E493FE740193FF7856F690103F31
:1010DB00E493FE740193FF900039F01211E67555FD
:1010EB0000E555C3953F501FAF55EF75F008A4248D
:1010FB0045F582E43410F583E493FFAE55746C2E02
:0E110B00F8A607055580DA787576000876009C
:0111190022B3
:100BB700753600753900753A001216325003020C6B
:100BC700901213CB8E378F38753500E535C3953FB7
:100BD7005038E537C313F537E53813F53830D726DE
:100BE700AF3574152FF582E43400F583E0FF7E00FE
:100BF7007401A807088005C333CE33CED8F9FF4266
:100C07003AEE42390536053580C1E536C3940240D0
:100C170015D200E5369403400512163580081215E3
:100C2700B1EF6002C200200019E53A4539600A7841
:100C37007606E61870010680177875760008760044
:100C4700800E787406E618700106753900753A004B
:100C57001215907875E6FC08E6FDD39FEC9E400AD6
:100C6700121635787576000876007873E6FE08E682
:100C7700FFD3942CEE9401401D121635787E760131
:100C870078737600087600800D90102FE493FE7439
:0A0C97000193FF120784AE39AF3A53
:010CA1002230
:03005B0002122767
:10122700C0E0C0F0C083C082C0D075D000C000C08D
:1012370001C002C003C004C005C006C007120E5F8C
:10124700D007D006D005D004D003D002D001D000FB
:0B125700D0D0D082D083D0F0D0E032A5
:0414EC0041004C006F
:0C154D00EF4E6007EF1F70F81E80F522C3
:020DCF008F2B68
:100DD1001215E38F2CAF2B1214CAEFFB90004BE0DE
:100DE10025E0FF90004AE033FE7C007D0A1209CE27
:100DF100AD037C001209BC75F002E52B90000012D6
:100E01000A47E0FCA3E0C39FEC9E5007E52C604D30
:100E1100148040AF2B1214CAEFFB90004AE0FEA3EE
:100E2100E0FF7C007D071209BC7D0A1209CEAD03EB
:100E31007C001209BC75F002E52B900000120A47F4
:100E4100E0FCA3E0D39FEC9E4013E52C647E600D93
:0D0E5100E52C04FF746C252BF8A607D201D8
:010E5E002271
:100E5F00C2037881E675F00290001C120A47E5E59F
:100E6F00F0A3E5E4F006E6C3953F400BE4F69000EF
:100E7F0038E04480F08002D2037F0212115FEFC48A
:100E8F0054F0F5E17881E6FF1214CA7E0090004A13
:100E9F00E0FCA3E0FD1209BC8EE78FE67F02121182
:100EAF005FEFC454F0FEC006E4FF12115FD0E02FD5
:100EBF00F5E17881E6FF1215E3E5E254804FF5E2A4
:100ECF007881E62415F582E43400F583E04480F55B
:060EDF00E8300302D2EE30
:010EE50022EA
:100D3C0075FE8543FF20D2AFC201E47881F69000A6
:100D4C0038F01210CBE4FF12115FEF2401FDE433F5
:100D5C00FC7E0B7FB81209CE90004AEEF0A3EFF0A8
:100D6C00E4FF1214CA7E0090004AE0FCA3E0FD12DE
:100D7C0009BC8EE78FE67F0212115FEFC454F0FEC0
:100D8C00C006E4FF12115FD0E02FF5E17F041211D1
:100D9C005FEF6008E5E254804480F5E27F031211B6
:100DAC005FE5E254804FF5E27F0112115F8FE31291
:100DBC00111A43A910900015E04480F5E8120F5564
:030DCC000212ED23
:03162F00D2EE22D6
:10134100E4FD900038E0547FF0D2EE900038E05494
:101351008070157FE87E0312154D43CF100DEDC34C
:0813610094327480948040E393
:011369002261
:100F550090107BE493F521121341E4F522E522C3B9
:100F6500953F502975F002E52290001C120A47E0D2
:100F7500FEA3E0FF75F002E522900000120A47EE9D
:100F8500F0A3EFF0AF22120DCF052280D0AF2115CF
:100F950021EF70C31213171215A68F21121341E406
:100FA500F522E522C3953F5009AF22120A790522A1
:090FB50080F0AF211521EF70E37B
:010FBE002210
:1012ED00E4FFEFC3953F502175F002EF90001C1203
:1012FD000A47E0FCA3E0FD75F002EF900000120A32
:09130D0047ECF0A3EDF00F80D9CC
:0113160022B4
:1013CB00E47882F6F521E521C3953F500EAF21124B
:0F13DB000A79AF21120100052180EBAE3BAF3C38
:0113EA0022E0
:020100008F224C
:10010200E4F52A75F002EF900000120A47E0FEA320
:10011200E0FF75F002E52290001C120A47E0FCA302
:10012200E0C39FF524EC9EF5237E007401A822080B
:100132008005C333CE33CED8F9F53E8E3DAF2212C1
:1001420012628E288F29C3E5249529E5286480F858
:10015200E52364809840057525018003E4F525E5D3
:1001620025640160030202AA74572522F8E6C394AB
:10017200FA74809480500674572522F806E53B55A0
:100182003DFEE53C553E4E600302027F7856E6F5A1
:100192002712162CEF6032E4F525F526E526C395E5
:1001A2003F501574572526F8E6C394017480948055
:1001B20040020525052680E4C3E525940374809456
:1001C200804006740F2527F52774572522F8E6C3C9
:1001D2009527500302027FE4F5251215B1EF705501
:1001E200F526E526C3953F501CE5226526601212CE
:1001F20015D074572526F8E6C39F40057525018062
:1002020004052680DD12162CEF3395E04F705EE573
:1002120025705AF526E526C3953F5051E5226526FD
:10022200600F1215D0745E2526F8E6C39F40028047
:1002320039052680E012162CEF3395E04F702EF52B
:1002420027F526E526C3953F501574572526F8E66F
:10025200C394027480948040020527052680E4C37B
:10026200E5279403748094804003752501E5256495
:10027200017002D200E53E423CE53D423B746525F9
:1002820022F8E4F674772522F8E4F675F002E52206
:1002920090002A120A47E4F0A3F0740E2522F58298
:1002A200E43400F583E4F022AF2212136AD3E5248A
:1002B2009FEE6480F8E5236480984008745E2522EE
:1002C200F806800A788206745E2522F8E4F6900029
:1002D20039E0FF3395E0FEC3E49FFDE49EFCC3E5F5
:1002E200249DEC6480F8E52364809850030203AFF8
:1002F200D3E5249FEE6480F8E523648098400302EE
:1003020003AF74652522F8E4F6740E2522F582E423
:100312003400F583E4F0E53C453B60030204C87514
:10032200F002E52290002A120A47E5238524F01202
:100332000A2312159B75F002E52290002A120A4741
:10034200E0FCA3E0C39FEE6480F8EC648098401167
:1003520075F002E522900000120A47E475F0018070
:100362003712159BC3E49FFFE49EFE75F002E5225F
:1003720090002A120A47E0FCA3E0C39FEE6480F8D3
:10038200EC64809840030204C875F002E5229000F4
:1003920000120A4774FFF5F0120A2375F002E522F3
:1003A20090002A120A47E4F0A3F00204C890003930
:1003B200E0FF3395E0FEC3E49FFFE49EFEC3E52425
:1003C2009FEE6480F8E523648098400302045A7427
:1003D200652522F806740E2522F582E43400F583A1
:1003E200E4F074652522F8E6FD901079E493FFEDC0
:1003F2008FF084E5F0705490107A93FEEF8EF0A4A3
:10040200FFC3ED9FE5F06480F8748098400F746537
:100412002522F8E4F6D201787E7601802E75F0026C
:10042200E522900000120A47C083C082E0FEA3E0EA
:10043200FF900039E0A2E713FD3395E0FCC3EF9D86
:10044200FFEE9CD082D083F0A3EFF0900049E065EC
:1004520022707374FFF0806E900039E0FFFD3395D7
:10046200E0FCD3E5249DEC6480F8E52364809840A9
:100472005574652522F8E4F6E53C453B7048740E58
:100482002522F582E43400F583E004F0740E25227F
:10049200F582E43400F583E06420702A740E25228C
:1004A200F582E43400F583E4F0EFA2E713A2E71348
:1004B200FF3395E0FE75F002E522900000120A4734
:1004C200EE8FF0120A23E53B553DFEE53C553E4ECC
:1004D2007003020562AE28E5297802CEA2E713CEA8
:1004E20013D8F8FFC3E5299FFFE5289EFEC3E52444
:1004F2009FEE6480F8E523648098505D747725222E
:10050200F8061215EC8F27E4F526E526C3953F5031
:100512001574572526F8E6C394017480948040022E
:100522000525052680E4C3E5259403748094804064
:10053200057856E6F52774772522F8E6C395274015
:100542005FE4F6E53EF4FFE53DF4FEEF523CEE5289
:100552003B74572522F8E4F62274772522F81622F6
:1005620074572522F8E4F6E53C453B7005AF2212AC
:100572000DCFE53F14652270277882E6C3953F4090
:100582001FE4F526E526C3953F500F74572526F83C
:10059200E66003752501052680EAE5257002C200A2
:0105A2002236
:10131700E4FFEFC3953F502175F002EF90001C12D8
:101327000A47E0FCA3E0FD75F002EF90003A120ACD
:0913370047ECF0A3EDF00F80D9A2
:01134000228A
:020A79008F23C9
:100A7B0075F002EF90003A120A47E0FEA3E0FF7513
:100A8B00F002E52390001C120A47E0FCA3E0C39F91
:100A9B00F525EC9EF524AF23121262AD07AC06D3FD
:100AAB00E5259DEC6480F8E5246480985016C3E43A
:100ABB009DFFE49CFEC3E5259FEE6480F8E524646E
:100ACB008098501375F002E52390001C120A47E042
:100ADB00FEA3E0FF020B86ECA2E713FEED13FFD3A0
:100AEB00E5259FEE6480F8E5246480985016C3E4F6
:100AFB009FFFE49EFEC3E5259FEE6480F8E524642A
:100B0B008098503775F002E52390003A120A47E0BF
:100B1B00FCA3E0FDECC313FEED13FFC3ED9FFDEC57
:100B2B009EFC75F002E52390001C120A47E0C313EC
:100B3B00FEA3E0132DFFEC3EFE804075F002E52393
:100B4B0090003A120A47E0FCA3E0FDAE047803CE16
:100B5B00C313CE13D8F9FFC3ED9FFDEC9EFC75F0CC
:100B6B0002E52390001C120A47E0FEA3E07803CEB7
:100B7B00C313CE13D8F92DFFEC3EFE75F002E5231F
:100B8B0090003A120A47EEF0A3EFF075F002E5235E
:100B9B0090003A120A47E0FEA3E0FF75F002E5234E
:0B0BAB0090001C120A47EEF0A3EFF0D0
:010BB600221C
:03163200A20122F0
:03163500D20122BD
:10111A00E4FFEFC3953F502974572FF8E4F674653E
:10112A002FF8E4F674772FF8E4F675F002EF9000E2
:10113A002A120A47E4F0A3F0745E2FF8E4F60F804F
:10114A00D1E4F53BF53C90004974FFF0E4787FF672
:04115A0008F6C201D0
:01115E00226E
:020784008F21C3
:1007860090004CE0C3940374809480403EE4F0787B
:100796007EE6702DF522E522C3953F502475F002C2
:1007A600E52290003A120A47E0FEA3E0FF75F00248
:1007B600E522900000120A47EEF0A3EFF005228032
:1007C600D512111AC201E4787EF622900048E004A0
:1007D600F0E0B52108121317E4900049F0900048A4
:1007E600E0D395215003020904E4F522E522C395DE
:1007F6003F40030208B475F002E52290003A120A5F
:1008060047E0FEA3E0FF75F002E52290001C120A05
:1008160047E0FCA3E0C39FFFEC9EAD07FC787EE6B5
:100826007042900039E0FB3395E0FAFEEB7802C3A4
:1008360033CE33CED8F9FFD3ED9FEE6480F8EC6467
:1008460080984060E49BFFE49AFEEF7802C333CEC3
:1008560033CED8F9FFC3ED9FEE6480F8EC64809840
:100866005042804A900039E0FB3395E0FAFEEB787F
:1008760003C333CE33CED8F9FFD3ED9FEE6480F8B1
:10088600EC648098401EE49BFFE49AFEEF7803C375
:1008960033CE33CED8F9FFC3ED9FEE6480F8EC6417
:1008A6008098400AAF22120A7905220207F2E52251
:1008B600B53F06900049E004F0E52175F008A4FF75
:1008C600900048E0C39FE5F06480F8748098402E5D
:1008D600E4F0C20090004CE004F0E52175F004A4B9
:1008E600FF900049E0C39FE5F06480F8748098406B
:0E08F6000DE490004CF01212ED12111AC20126
:0109040022D0
:03000000020CA24D
:100CA20078FFE4F6D8FD9000007F007E03E4F0A315
:0A0CB200DFFCDEFA758182020CF708
:1009050074F8CC6480CCC86480C8F58204604FC399
:10091500EB9FF5F0EA9E42F0E99D42F0E89C45F038
:10092500603C501DE5825FFFE582D313CB5BCBF4C2
:100935002B5582FB50280ABA002409B900200880EB
:100945001DE5825BFBE582D313CF5FCFF4C3132F85
:100955005582FF50090EBE00050DBD00010CC3EB0D
:100965009FF5F0EA9E42F0E99D42F0E89C45F06073
:0909750007CC4820E701B3EC2295
:10097E0075F020800E75F010800575F0087D007EF4
:10098E00007F003392D530D503120A39EC33401074
:10099E00EF33FFEE33FEED33FDEC33FCD5F0ED22FD
:0E09AE00E5F0247EA2D513CC92E7CDCEFF2239
:100CBC0002138BE493A3F8E493A34003F68001F2B0
:100CCC0008DFF48029E493A3F85407240CC8C33339
:100CDC00C4540F4420C8834004F456800146F6DF08
:100CEC00E4800B01020408102040809014DEE47EA6
:100CFC00019360BCA3FF543F30E509541FFEE493FD
:100D0C00A360010ECF54C025E060A840B8E493A3C3
:100D1C00FAE493A3F8E493A3C8C582C8CAC583CAEE
:100D2C00F0A3C8C582C8CAC583CADFE9DEE780BEA6
:0114F00000FB
:1009BC00EF8DF0A4A8F0CF8CF0A428CE8DF0A42E4F
:0209CC00FE2209
:1009CE00BC000BBE0029EF8DF084FFADF022E4CC0D
:1009DE00F875F008EF2FFFEE33FEEC33FCEE9DECD6
:1009EE00984005FCEE9DFE0FD5F0E9E4CEFD22ED1C
:1009FE00F8F5F0EE8420D21CFEADF075F008EF2F66
:100A0E00FFED33FD4007985006D5F0F222C398FD56
:050A1E000FD5F0EA22F3
:100A2300C5F0F8A3E028F0C5F0F8E582158270025E
:060A33001583E038F022FB
:0E0A3900C3E49FFFE49EFEE49DFDE49CFC22CE
:0C0A4700A42582F582E5F03583F58322BA
:100A5300D083D082F8E4937012740193700DA3A332
:100A630093F8740193F5828883E473740293686046
:060A7300EFA3A3A380DF46
:00000001FF
