:1013A9001214791214D3121533120D4F1215DA00D3
:1013B9000000000000000012142712108F80F8228C
:0614FC00041A00000000CC
:0A15DA001214A812161E1216222287
:10149200121577EF60031212E012158212158D12E7
:0614A20015981215A322AB
:04161E001215E4229B
:1012E00012163EEF1208E5130300130A011307025A
:1012F000130A03130A04130A05130A06130A070044
:0B13000000130A1213C9221214452228
:011656002271
:011657002270
:01165800226F
:01165900226E
:01165A00226D
:10150F00054BE54BC394964008754B967F02121519
:02151F00212287
:04162200754B0022E2
:1013C900121644EF600312162A121647EF6007122D
:1013D90016321216262212163EEF700312150F222C
:01165B00226C
:01165C00226B
:01165D00226A
:01165E002269
:01165F002268
:10144500121644EF600312162A121647EF600712B0
:0A14550016321216262212163E224D
:03150200012D00B8
:1014090043CF10052DAC2DE41208077B007A007933
:0D14190080783F1207847005F52D120FD268
:0114260022A3
:100FD200052FE52F7002052EAE2EAF2F7C007D0A65
:100FE20012084DED4C70480530AE2EAF2FFC7D320D
:100FF20012084DED4C70380531AE2EAF2FFC7D64DA
:1010020012084DED4C70280532AE2EAF2F7C017DBB
:10101200F412084DED4C70170533AE2EAF2F7C0342
:101022007DE812084DED4C70060534F52EF52F22A1
:1014A800752E00752F007534007533007532007580
:0614B80031007530002236
:05161900AE2EAF2F22F0
:0B157700E5307002FF22AF301530227B
:0B158200E5317002FF22AF311531226D
:0B158D00E5327002FF22AF321532225F
:0B159800E5337002FF22AF3315332251
:0B15A300E5347002FF22AF3415342243
:101521008F4CE540654C6009854041854C407543D1
:02153100012295
:03163E00AF402298
:03164100AF412294
:071612007B007A0079402201
:03164400AF422290
:0416260075420122E6
:04162A0075420022E3
:03164700AF43228C
:04162E0075430122DD
:0416320075430022DA
:0A15E40075400075410075420122B8
:10142700900038E0FF30E715547FFFF0120BCAE455
:0E143700FCFD8F1D8E1CF51BF51A12164D22A2
:0915F800AF1DAE1CAD1BAC1A22A4
:1005A3000000000000000000000000000000000048
:1005B3000000000000000000000000000000000038
:1005C3000000000000000000000000000000000028
:1005D3000000000000000000000000000000000018
:1005E3000000000000000000000000000000000008
:1005F30000000000000000000000000000000000F8
:1006030000000000000000000000000000000000E7
:1006130000000000000000000000000000000000D7
:1006230000000000000000000000000000000000C7
:1006330000000000000000000000000000000000B7
:1006430000000000000000000000000000000000A7
:100653000000000000000000000000000000000097
:100663000000000000000000000000000000000087
:100673000000000000000000000000000000000077
:100683000000000000000000000000000000000067
:100693000000000000000000000000000000000057
:1006A3000000000000000000000000000000000047
:1006B3000000000000000000000000000000000037
:1006C3000000000000000000000000000000000027
:1006D3000000000000000000000000000000000017
:1006E3000000000000000000000000000000000007
:1006F30000000000000000000000000000000000F7
:1007030000000000000000000000000000000000E6
:1007130000000000000000000000000000000000D6
:1007230000000000000000000000000000000000C6
:1007330000000000000000000000000000000000B6
:1007430000000000000000000000000000000000A6
:100753000000000000000000000000000000000096
:100763000000000000000000000000000000000086
:100773000000000000000000000000000000000076
:010783002253
:0D155E00751600751500750D00750800224A
:0E1542008F4DE54D6004439D8022539D7F2216
:1012B400AF1574082FF8A69F0515E515D3940540BE
:1012C4001A751500E5082509FF250AFF250BF518F1
:0C12D4006318FFE518B50C031216602229
:041636007515002204
:10108F00E5171208E5109E0010E501000010E8AF0B
:10109F001D8F0DAE1CAD1BAC1A78081208C68F0E33
:1010AF00750F00751000751100751200751300751E
:1010BF004E00E54EC394075010AF4E740D2FF8E657
:1010CF00FF2519F519054E80E96319FF8519147568
:0910DF001900751701221205A386
:0110E80022E5
:10145F00AF16740D2FF8E6FFF59F0516E516D3941A
:0A146F0007400675160075170022ED
:04163A0075160022FF
:1014BE00E517B4030F7F001215421205A37517002E
:0514CE000F121542227F
:011660002267
:011661002266
:10147900759AFF759B007591FF75920075A1FF75AF
:09148900A20075A14075A2002229
:02150500C10221
:0F153300438F80759D88759EB043A901D2AF226A
:0E1550008F4FE54F6004439D0822539DF72204
:03003B00020EF9B9
:100EF900C0E0C0F0C083C082C0D075D000C000C0BF
:0D0F090001C002C003C004C005C006C0073F
:100F1600539DBFE59D5407F5501208E50F35000FA8
:100F26004D010F3D020F42030F4A0400000F4D1200
:100F3600163A12163680101212B4800B1205A3123E
:070F4600145F800312163A4C
:100F4D00D007D006D005D004D003D002D001D000F8
:0B0F5D00D0D0D082D083D0F0D0E032A2
:1014D300758E01438901758A20758CD1C28CD2A97E
:0514E300D28CD2AF2203
:03000B000211C11E
:1011C100C0E0C0F0C083C082C0D075D000C000C0F4
:1011D10001C002C003C004C005C006C007758A2053
:1011E100758CD1B282121409D007D006D005D00473
:1011F100D003D002D001D000D0D0D082D083D0F0A3
:03120100D0E03208
:101032000000000000000005000A0BB800C80064B0
:10104200000200000000000400000001FFFFFFFF9B
:101052000071022E0408150505A4022E04081A05C3
:101062000818022E0408280507F0022E0408240599
:1010720007D3022E040820050854022E04081A057C
:0D10820007DD022E0408150508570A0A2094
:03150700017E0062
:0B15AE0090103CE493FE740193FF22B8
:0B15B900901040E493FE740193FF22A9
:0B15C40090103AE493FE740193FF22A4
:03164A007F0122FB
:101280008F51EF75F008A4245AF582E43410F583E9
:10129000E493FF7E007F00FEAD51ED75F008A424BD
:1012A0005BF582E43410F583E493FD7C00EF2DFFC1
:0412B000EE3CFE22F0
:1014E8008F52EF75F008A42457F582E43410F58381
:0414F800E493FF2258
:0B15CF00901034E493FE740193FF229F
:091601008F53746C2FF8E6FF22F0
:08160A007856E6FFC313FF222E
:0A15EE007856E6FF75F00384FF2233
:021388008F488C
:10138A001212808E498F4AE54A7803C333CE33CE90
:0E139A00D8F9FF7C007D0A12084D8E498F4A5B
:0113A8002222
:101204007545007546017547F3754400E544C3947C
:1012140010502AE546C313F546E54713F54730D782
:1012240018AF4574152FF582E43400F583E544F0D6
:101234000545E545C394075004054480CF85453FE3
:011244002287
:10117D008F54E5541208E5119700119E0111A50237
:10118D0011AC0311B304000011BE901054E493FF91
:10119D0022901055E493FF22901056E493FF229075
:1011AD001056E493FF22901046E493FE740193FFD2
:0411BD00227F00226B
:1010E900901038E493FE740193FF7856F6901052ED
:1010F900E493FE740193FF900039F01212047555C0
:1011090000E555C3953F501FAF55EF75F008A4246E
:1011190058F582E43410F583E493FFAE55746C2ED0
:0E112900F8A607055580DA787576000876007E
:011137002295
:100BCA00753600753900753A001216505003020C3A
:100BDA00A31213E98E378F38753500E535C3953F73
:100BEA005038E537C313F537E53813F53830D726CB
:100BFA00AF3574152FF582E43400F583E0FF7E00EB
:100C0A007401A807088005C333CE33CED8F9FF4252
:100C1A003AEE42390536053580C1E536C3940240BD
:100C2A0015D200E5369403400512165380081215B2
:100C3A00CFEF6002C200200019E53A4539600A7810
:100C4A007606E61870010680177875760008760031
:100C5A00800E787406E618700106753900753A0038
:100C6A001215AE7875E6FC08E6FDD39FEC9E400AA5
:100C7A00121653787576000876007873E6FE08E651
:100C8A00FFD3942CEE9401401D121653787E760100
:100C9A0078737600087600800D901042E493FE7413
:0A0CAA000193FF12090BAE39AF3AB7
:010CB400221D
:03005B0002124549
:10124500C0E0C0F0C083C082C0D075D000C000C06F
:1012550001C002C003C004C005C006C007120E725B
:10126500D007D006D005D004D003D002D001D000DD
:0B127500D0D0D082D083D0F0D0E03287
:04150A0041004C0050
:0C156B00EF4E6007EF1F70F81E80F522A5
:020DE2008F2B55
:100DE4001216018F2CAF2B1214E8EFFB90004BE08E
:100DF40025E0FF90004AE033FE7C007D0A12084D96
:100E0400AD037C0012083B75F002E52B9000001244
:100E140008D9E0FCA3E0C39FEC9E5007E52C604D8D
:100E2400148040AF2B1214E8EFFB90004AE0FEA3BD
:100E3400E0FF7C007D0712083B7D0A12084DAD03DC
:100E44007C0012083B75F002E52B9000001208D9D3
:100E5400E0FCA3E0D39FEC9E4013E52C647E600D80
:0D0E6400E52C04FF746C252BF8A607D201C5
:010E7100225E
:100E7200C2037881E675F00290001C1208D9E5E5FC
:100E8200F0A3E5E4F006E6C3953F400BE4F69000DC
:100E920038E04480F08002D2037F0212117DEFC459
:100EA20054F0F5E17881E6FF1214E87E0090004AE2
:100EB200E0FCA3E0FD12083B8EE78FE67F021211F1
:100EC2007DEFC454F0FEC006E4FF12117DD0E02F86
:100ED200F5E17881E6FF121601E5E254804FF5E272
:100EE2007881E62415F582E43400F583E04480F548
:060EF200E8300302D2EE1D
:010EF80022D7
:100D4F0075FE8543FF20D2AFC201E47881F6900093
:100D5F0038F01210E9E4FF12117DEF2401FDE433A6
:100D6F00FC7E0B7FB812084D90004AEEF0A3EFF017
:100D7F00E4FF1214E87E0090004AE0FCA3E0FD12AD
:100D8F00083B8EE78FE67F0212117DEFC454F0FE11
:100D9F00C006E4FF12117DD0E02FF5E17F041211A0
:100DAF007DEF6008E5E254804480F5E27F03121185
:100DBF007DE5E254804FF5E27F0112117D8FE31242
:100DCF00113843A910900015E04480F5E8120F6820
:030DDF0002130BF1
:03164D00D2EE22B8
:10135F00E4FD900038E0547FF0D2EE900038E05476
:10136F008070157FE87E0312156B43CF100DEDC310
:08137F0094327480948040E375
:011387002243
:100F680090108EE493F52112135FE4F522E522C375
:100F7800953F502975F002E52290001C1208D9E02F
:100F8800FEA3E0FF75F002E5229000001208D9EEFA
:100F9800F0A3EFF0AF22120DE2052280D0AF2115A9
:100FA80021EF70C31213351215C48F2112135FE499
:100FB800F522E522C3953F5009AF22120A8C05227B
:090FC80080F0AF211521EF70E368
:010FD10022FD
:10130B00E4FFEFC3953F502175F002EF90001C12E4
:10131B0008D9E0FCA3E0FD75F002EF900000120885
:09132B00D9ECF0A3EDF00F80D91C
:011334002296
:1013E900E47882F6F521E521C3953F500EAF21122D
:0F13F9000A8CAF21120100052180EBAE3BAF3C07
:0114080022C1
:020100008F224C
:10010200E4F52A75F002EF9000001208D9E0FEA390
:10011200E0FF75F002E52290001C1208D9E0FCA372
:10012200E0C39FF524EC9EF5237E007401A822080B
:100132008005C333CE33CED8F9F53E8E3DAF2212C1
:1001420012808E288F29C3E5249529E5286480F83A
:10015200E52364809840057525018003E4F525E5D3
:1001620025640160030202AA74572522F8E6C394AB
:10017200FA74809480500674572522F806E53B55A0
:100182003DFEE53C553E4E600302027F7856E6F5A1
:100192002712164AEF6032E4F525F526E526C395C7
:1001A2003F501574572526F8E6C394017480948055
:1001B20040020525052680E4C3E525940374809456
:1001C200804006740F2527F52774572522F8E6C3C9
:1001D2009527500302027FE4F5251215CFEF7055E3
:1001E200F526E526C3953F501CE5226526601212CE
:1001F20015EE74572526F8E6C39F40057525018044
:1002020004052680DD12164AEF3395E04F705EE555
:1002120025705AF526E526C3953F5051E5226526FD
:10022200600F1215EE745E2526F8E6C39F40028029
:1002320039052680E012164AEF3395E04F702EF50D
:1002420027F526E526C3953F501574572526F8E66F
:10025200C394027480948040020527052680E4C37B
:10026200E5279403748094804003752501E5256495
:10027200017002D200E53E423CE53D423B746525F9
:1002820022F8E4F674772522F8E4F675F002E52206
:1002920090002A1208D9E4F0A3F0740E2522F58208
:1002A200E43400F583E4F022AF22121388D3E5246C
:1002B2009FEE6480F8E5236480984008745E2522EE
:1002C200F806800A788206745E2522F8E4F6900029
:1002D20039E0FF3395E0FEC3E49FFDE49EFCC3E5F5
:1002E200249DEC6480F8E52364809850030203AFF8
:1002F200D3E5249FEE6480F8E523648098400302EE
:1003020003AF74652522F8E4F6740E2522F582E423
:100312003400F583E4F0E53C453B60030204C87514
:10032200F002E52290002A1208D9E5238524F01272
:1003320008A21215B975F002E52290002A1208D916
:10034200E0FCA3E0C39FEE6480F8EC648098401167
:1003520075F002E5229000001208D9E475F00180E0
:10036200371215B9C3E49FFFE49EFE75F002E52241
:1003720090002A1208D9E0FCA3E0C39FEE6480F843
:10038200EC64809840030204C875F002E5229000F4
:10039200001208D974FFF5F01208A275F002E522E6
:1003A20090002A1208D9E4F0A3F00204C8900039A0
:1003B200E0FF3395E0FEC3E49FFFE49EFEC3E52425
:1003C2009FEE6480F8E523648098400302045A7427
:1003D200652522F806740E2522F582E43400F583A1
:1003E200E4F074652522F8E6FD90108CE493FFEDAD
:1003F2008FF084E5F0705490108D93FEEF8EF0A490
:10040200FFC3ED9FE5F06480F8748098400F746537
:100412002522F8E4F6D201787E7601802E75F0026C
:10042200E5229000001208D9C083C082E0FEA3E05A
:10043200FF900039E0A2E713FD3395E0FCC3EF9D86
:10044200FFEE9CD082D083F0A3EFF0900049E065EC
:1004520022707374FFF0806E900039E0FFFD3395D7
:10046200E0FCD3E5249DEC6480F8E52364809840A9
:100472005574652522F8E4F6E53C453B7048740E58
:100482002522F582E43400F583E004F0740E25227F
:10049200F582E43400F583E06420702A740E25228C
:1004A200F582E43400F583E4F0EFA2E713A2E71348
:1004B200FF3395E0FE75F002E5229000001208D9A4
:1004C200EE8FF01208A2E53B553DFEE53C553E4E4F
:1004D2007003020562AE28E5297802CEA2E713CEA8
:1004E20013D8F8FFC3E5299FFFE5289EFEC3E52444
:1004F2009FEE6480F8E523648098505D747725222E
:10050200F80612160A8F27E4F526E526C3953F5012
:100512001574572526F8E6C394017480948040022E
:100522000525052680E4C3E5259403748094804064
:10053200057856E6F52774772522F8E6C395274015
:100542005FE4F6E53EF4FFE53DF4FEEF523CEE5289
:100552003B74572522F8E4F62274772522F81622F6
:1005620074572522F8E4F6E53C453B7005AF2212AC
:100572000DE2E53F14652270277882E6C3953F407D
:100582001FE4F526E526C3953F500F74572526F83C
:10059200E66003752501052680EAE5257002C200A2
:0105A2002236
:10133500E4FFEFC3953F502175F002EF90001C12BA
:1013450008D9E0FCA3E0FD75F002EF90003A120821
:09135500D9ECF0A3EDF00F80D9F2
:01135E00226C
:020A8C008F23B6
:100A8E0075F002EF90003A1208D9E0FEA3E0FF7570
:100A9E00F002E52390001C1208D9E0FCA3E0C39FEE
:100AAE00F525EC9EF524AF23121280AD07AC06D3CC
:100ABE00E5259DEC6480F8E5246480985016C3E427
:100ACE009DFFE49CFEC3E5259FEE6480F8E524645B
:100ADE008098501375F002E52390001C1208D9E09F
:100AEE00FEA3E0FF020B99ECA2E713FEED13FFD37A
:100AFE00E5259FEE6480F8E5246480985016C3E4E3
:100B0E009FFFE49EFEC3E5259FEE6480F8E5246416
:100B1E008098503775F002E52390003A1208D9E01C
:100B2E00FCA3E0FDECC313FEED13FFC3ED9FFDEC44
:100B3E009EFC75F002E52390001C1208D9E0C31349
:100B4E00FEA3E0132DFFEC3EFE804075F002E52380
:100B5E0090003A1208D9E0FCA3E0FDAE047803CE73
:100B6E00C313CE13D8F9FFC3ED9FFDEC9EFC75F0B9
:100B7E0002E52390001C1208D9E0FEA3E07803CE14
:100B8E00C313CE13D8F92DFFEC3EFE75F002E5230C
:100B9E0090003A1208D9EEF0A3EFF075F002E523BB
:100BAE0090003A1208D9E0FEA3E0FF75F002E523AB
:0B0BBE0090001C1208D9EEF0A3EFF02D
:010BC9002209
:03165000A20122D2
:03165300D201229F
:10113800E4FFEFC3953F502974572FF8E4F6746520
:101148002FF8E4F674772FF8E4F675F002EF9000C4
:101158002A1208D9E4F0A3F0745E2FF8E4F60F80A1
:10116800D1E4F53BF53C90004974FFF0E4787FF654
:0411780008F6C201B2
:01117C002250
:02090B008F213A
:10090D0090004CE0C3940374809480403EE4F078F2
:10091D007EE6702DF522E522C3953F502475F00239
:10092D00E52290003A1208D9E0FEA3E0FF75F0022F
:10093D00E5229000001208D9EEF0A3EFF005228019
:10094D00D5121138C201E4787EF622900048E004F9
:10095D00F0E0B52108121335E4900049F0900048FD
:10096D00E0D395215003020A8BE4F522E522C395CD
:10097D003F4003020A3B75F002E52290003A12084F
:10098D00D9E0FEA3E0FF75F002E52290001C1208ED
:10099D00D9E0FCA3E0C39FFFEC9EAD07FC787EE69B
:1009AD007042900039E0FB3395E0FAFEEB7802C31C
:1009BD0033CE33CED8F9FFD3ED9FEE6480F8EC64DF
:1009CD0080984060E49BFFE49AFEEF7802C333CE3B
:1009DD0033CED8F9FFC3ED9FEE6480F8EC648098B8
:1009ED005042804A900039E0FB3395E0FAFEEB78F7
:1009FD0003C333CE33CED8F9FFD3ED9FEE6480F829
:100A0D00EC648098401EE49BFFE49AFEEF7803C3EC
:100A1D0033CE33CED8F9FFC3ED9FEE6480F8EC648E
:100A2D008098400AAF22120A8C0522020979E5222C
:100A3D00B53F06900049E004F0E52175F008A4FFEC
:100A4D00900048E0C39FE5F06480F8748098402ED4
:100A5D00E4F0C20090004CE004F0E52175F004A430
:100A6D00FF900049E0C39FE5F06480F874809840E2
:0E0A7D000DE490004CF012130B121138C20160
:010A8B002248
:03000000020CB53A
:100CB50078FFE4F6D8FD9000007F007E03E4F0A302
:0A0CC500DFFCDEFA758182020D0AE1
:1007840074F8CC6480CCC86480C8F58204604FC31C
:10079400EB9FF5F0EA9E42F0E99D42F0E89C45F0BB
:1007A400603C501DE5825FFFE582D313CB5BCBF445
:1007B4002B5582FB50280ABA002409B9002008806E
:1007C4001DE5825BFBE582D313CF5FCFF4C3132F08
:1007D4005582FF50090EBE00050DBD00010CC3EB90
:1007E4009FF5F0EA9E42F0E99D42F0E89C45F060F6
:0907F40007CC4820E701B3EC2218
:1007FD0075F020800E75F010800575F0087D007E77
:10080D00007F003392D530D5031208B8EC33401079
:10081D00EF33FFEE33FEED33FDEC33FCD5F0ED227F
:0E082D00E5F0247EA2D513CC92E7CDCEFF22BB
:100CCF000213A9E493A3F8E493A34003F68001F27F
:100CDF0008DFF48029E493A3F85407240CC8C33326
:100CEF00C4540F4420C8834004F456800146F6DFF5
:100CFF00E4800B01020408102040809014FCE47E75
:100D0F00019360BCA3FF543F30E509541FFEE493E9
:100D1F00A360010ECF54C025E060A840B8E493A3B0
:100D2F00FAE493A3F8E493A3C8C582C8CAC583CADB
:100D3F00F0A3C8C582C8CAC583CADFE9DEE780BE93
:01150E0000DC
:10083B00EF8DF0A4A8F0CF8CF0A428CE8DF0A42ED1
:02084B00FE228B
:10084D00BC000BBE0029EF8DF084FFADF022E4CC8F
:10085D00F875F008EF2FFFEE33FEEC33FCEE9DEC58
:10086D00984005FCEE9DFE0FD5F0E9E4CEFD22ED9E
:10087D00F8F5F0EE8420D21CFEADF075F008EF2FE8
:10088D00FFED33FD4007985006D5F0F222C398FDD9
:05089D000FD5F0EA2276
:1008A200C5F0F8A3E028F0C5F0F8E58215827002E1
:0608B2001583E038F0227E
:0E08B800C3E49FFFE49EFEE49DFDE49CFC2251
:1008C600E8600FECC313FCED13FDEE13FEEF13FF10
:0308D600D8F12234
:0C08D900A42582F582E5F03583F583222A
:1008E500D083D082F8E4937012740193700DA3A3A2
:1008F50093F8740193F5828883E4737402936860B6
:06090500EFA3A3A380DFB5
:00000001FF
