BL51 BANKED LINKER/LOCATER V6.22.4.0                                                    04/03/2024  13:42:15  PAGE 1


BL51 BANKED LINKER/LOCATER V6.22.4.0, INVOKED BY:
D:\PROGRAM FILES\KEIL_V5\C51\BIN\BL51.EXE .\Objects\main.obj, .\Objects\Global.obj, .\Objects\App.obj, .\Objects\App_Sys
>> .obj, .\Objects\App_Sys_PowerOn.obj, .\Objects\App_Sys_TurnOn.obj, .\Objects\Api_Tick.obj, .\Objects\Api_SysBase.obj,
>>  .\Objects\Api_TK.obj, .\Objects\Api_Twi.obj, .\Objects\Api_Led.obj, .\Objects\IO_Init.obj, .\Objects\SSI_Init.obj, .
>> \Objects\Timer_Init.obj, .\Objects\S_TouchKeyCFG.obj, .\lib\SC92F8X7X_HighSensitive_Lib_T1_S_V1.3.0.LIB, .\Objects\ST
>> ARTUP.obj TO .\Objects\X5BC05-TK20240103 PRINT (.\Listings\X5BC05-TK20240103.m51) RAMSIZE (256) DISABLEWARNING (16) C
>> ODE (0X100)


MEMORY MODEL: SMALL WITH FLOATING POINT ARITHMETIC


INPUT MODULES INCLUDED:
  .\Objects\main.obj (MAIN)
  .\Objects\Global.obj (GLOBAL)
  .\Objects\App.obj (APP)
  .\Objects\App_Sys.obj (APP_SYS)
  .\Objects\App_Sys_PowerOn.obj (APP_SYS_POWERON)
  .\Objects\App_Sys_TurnOn.obj (APP_SYS_TURNON)
  .\Objects\Api_Tick.obj (API_TICK)
  .\Objects\Api_SysBase.obj (API_SYSBASE)
  .\Objects\Api_TK.obj (API_TK)
  .\Objects\Api_Twi.obj (API_TWI)
  .\Objects\Api_Led.obj (API_LED)
  .\Objects\IO_Init.obj (IO_INIT)
  .\Objects\SSI_Init.obj (SSI_INIT)
  .\Objects\Timer_Init.obj (TIMER_INIT)
  .\Objects\S_TouchKeyCFG.obj (S_TOUCHKEYCFG)
  .\lib\SC92F8X7X_HighSensitive_Lib_T1_S_V1.3.0.LIB (SENSORMETHOD)
  .\Objects\STARTUP.obj (?C_STARTUP)
  D:\PROGRAM FILES\KEIL_V5\C51\LIB\C51FPS.LIB (?C?FPCMP)
  D:\PROGRAM FILES\KEIL_V5\C51\LIB\C51FPS.LIB (?C?FCAST)
  D:\PROGRAM FILES\KEIL_V5\C51\LIB\C51S.LIB (?C_INIT)
  D:\PROGRAM FILES\KEIL_V5\C51\LIB\C51S.LIB (?C?IMUL)
  D:\PROGRAM FILES\KEIL_V5\C51\LIB\C51S.LIB (?C?UIDIV)
  D:\PROGRAM FILES\KEIL_V5\C51\LIB\C51S.LIB (?C?IILDX)
  D:\PROGRAM FILES\KEIL_V5\C51\LIB\C51S.LIB (?C?LNEG)
  D:\PROGRAM FILES\KEIL_V5\C51\LIB\C51S.LIB (?C?ULSHR)
  D:\PROGRAM FILES\KEIL_V5\C51\LIB\C51S.LIB (?C?OFFXADD)
  D:\PROGRAM FILES\KEIL_V5\C51\LIB\C51S.LIB (?C?CCASE)


LINK MAP OF MODULE:  .\Objects\X5BC05-TK20240103 (MAIN)


            TYPE    BASE      LENGTH    RELOCATION   SEGMENT NAME
            -----------------------------------------------------

            * * * * * * *   D A T A   M E M O R Y   * * * * * * *
            REG     0000H     0008H     ABSOLUTE     "REG BANK 0"
            DATA    0008H     0012H     UNIT         ?DT?API_TWI
            DATA    001AH     0006H     UNIT         ?DT?GLOBAL
            BIT     0020H.0   0000H.2   UNIT         ?BI?SENSORMETHOD
            BIT     0020H.2   0000H.1   UNIT         ?BI?SSI_INIT
            BIT     0020H.3   0000H.1   UNIT         _BIT_GROUP_
                    0020H.4   0000H.4                *** GAP ***
            DATA    0021H     000CH     UNIT         _DATA_GROUP_
            DATA    002DH     0008H     UNIT         ?DT?API_TICK
BL51 BANKED LINKER/LOCATER V6.22.4.0                                                  04/03/2024  13:42:15  PAGE 2


            DATA    0035H     0006H     UNIT         ?DT?TOUCHKEYSCAN?S_TOUCHKEYCFG
            DATA    003BH     0005H     UNIT         ?DT?SENSORMETHOD
            DATA    0040H     0004H     UNIT         ?DT?API_SYSBASE
            DATA    0044H     0004H     UNIT         ?DT?CURRENTSENSORCHOOSE?S_TOUCHKEYCFG
            DATA    0048H     0003H     UNIT         ?DT?_GETTKYZTHRESHOLD?S_TOUCHKEYCFG
            DATA    004BH     0001H     UNIT         ?DT?APP_SYS_POWERON
            DATA    004CH     0001H     UNIT         ?DT?_API_SYSBASE_SETSTATE?API_SYSBASE
            DATA    004DH     0001H     UNIT         ?DT?_SSI_TWI_CMD?API_TWI
            DATA    004EH     0001H     UNIT         ?DT?API_TWI_TXDATALOAD?API_TWI
            DATA    004FH     0001H     UNIT         ?DT?_SSI_TWI_ACKNOWLEDGECONFIG?SSI_INIT
            DATA    0050H     0001H     UNIT         ?DT?TWI_INT?SSI_INIT
            DATA    0051H     0001H     UNIT         ?DT?_GETCURRFINGERVALUE?S_TOUCHKEYCFG
            DATA    0052H     0001H     UNIT         ?DT?_GETSCANTIMEVALUE?S_TOUCHKEYCFG
            DATA    0053H     0001H     UNIT         ?DT?_GETBASELINEADJUSTVALUE?S_TOUCHKEYCFG
            DATA    0054H     0001H     UNIT         ?DT?_GETCFGMSG?S_TOUCHKEYCFG
            DATA    0055H     0001H     UNIT         ?DT?TOUCHKEYCFGINIT?S_TOUCHKEYCFG
            IDATA   0056H     0029H     UNIT         ?ID?S_TOUCHKEYCFG
            IDATA   007FH     0004H     UNIT         ?ID?SENSORMETHOD
            IDATA   0083H     0001H     UNIT         ?STACK

            * * * * * * *  X D A T A   M E M O R Y  * * * * * * *
            XDATA   0000H     0048H     UNIT         ?XD?S_TOUCHKEYCFG
            XDATA   0048H     0005H     UNIT         ?XD?SENSORMETHOD

            * * * * * * *   C O D E   M E M O R Y   * * * * * * *
            CODE    0000H     0003H     ABSOLUTE     
                    0003H     0008H                  *** GAP ***
            CODE    000BH     0003H     ABSOLUTE     
                    000EH     002DH                  *** GAP ***
            CODE    003BH     0003H     ABSOLUTE     
                    003EH     001DH                  *** GAP ***
            CODE    005BH     0003H     ABSOLUTE     
                    005EH     00A2H                  *** GAP ***
            CODE    0100H     04A3H     UNIT         ?PR?_SENSORRENOVATE?SENSORMETHOD
            CODE    05A3H     01E1H     UNIT         ?PR?DELAY_US?API_TWI
            CODE    0784H     0187H     UNIT         ?C?LIB_CODE
            CODE    090BH     0181H     UNIT         ?PR?_MULTIPLEDEAL?SENSORMETHOD
            CODE    0A8CH     013EH     UNIT         ?PR?_FILTERDATADEAL?SENSORMETHOD
            CODE    0BCAH     00EBH     UNIT         ?PR?TOUCHKEYSCAN?S_TOUCHKEYCFG
            CODE    0CB5H     009AH     UNIT         ?C_C51STARTUP
            CODE    0D4FH     0093H     UNIT         ?PR?TOUCHKEYINIT?SENSORMETHOD
            CODE    0DE2H     0090H     UNIT         ?PR?_ICHAADJUST?SENSORMETHOD
            CODE    0E72H     0087H     UNIT         ?PR?TOUCHKEY_SERVICE?SENSORMETHOD
            CODE    0EF9H     006FH     UNIT         ?PR?TWI_INT?SSI_INIT
            CODE    0F68H     006AH     UNIT         ?PR?FILTERAVERGEDEAL?SENSORMETHOD
            CODE    0FD2H     0060H     UNIT         ?PR?API_TICK_MS?API_TICK
            CODE    1032H     005DH     UNIT         ?CO?S_TOUCHKEYCFG
            CODE    108FH     005AH     UNIT         ?PR?API_TWI_TXDATALOAD?API_TWI
            CODE    10E9H     004FH     UNIT         ?PR?TOUCHKEYCFGINIT?S_TOUCHKEYCFG
            CODE    1138H     0045H     UNIT         ?PR?INITIALIZESENSORFLAG?SENSORMETHOD
            CODE    117DH     0044H     UNIT         ?PR?_GETCFGMSG?S_TOUCHKEYCFG
            CODE    11C1H     0043H     UNIT         ?PR?TIMER0?TIMER_INIT
            CODE    1204H     0041H     UNIT         ?PR?CURRENTSENSORCHOOSE?S_TOUCHKEYCFG
            CODE    1245H     003BH     UNIT         ?PR?CTK_ISR?S_TOUCHKEYCFG
            CODE    1280H     0034H     UNIT         ?PR?_GETCURRFINGERVALUE?S_TOUCHKEYCFG
            CODE    12B4H     002CH     UNIT         ?PR?API_TWI_RX?API_TWI
            CODE    12E0H     002BH     UNIT         ?PR?APP_SYS_CYCLE?APP_SYS
BL51 BANKED LINKER/LOCATER V6.22.4.0                                                  04/03/2024  13:42:15  PAGE 3


            CODE    130BH     002AH     UNIT         ?PR?INITIALIZEBASELINES?SENSORMETHOD
            CODE    1335H     002AH     UNIT         ?PR?FILTERIIRINIT?SENSORMETHOD
            CODE    135FH     0029H     UNIT         ?PR?FILTERCOMMCODE?SENSORMETHOD
            CODE    1388H     0021H     UNIT         ?PR?_GETTKYZTHRESHOLD?S_TOUCHKEYCFG
            CODE    13A9H     0020H     UNIT         ?PR?MAIN?MAIN
            CODE    13C9H     0020H     UNIT         ?PR?APP_SYS_POWERON_CYCLE?APP_SYS_POWERON
            CODE    13E9H     0020H     UNIT         ?PR?SENSORKEYFLAG?SENSORMETHOD
            CODE    1409H     001EH     UNIT         ?PR?SYSTICK_HANDLER?API_TICK
            CODE    1427H     001EH     UNIT         ?PR?SYS_SCAN?API_TK
            CODE    1445H     001AH     UNIT         ?PR?APP_SYS_TURNON_CYCLE?APP_SYS_TURNON
            CODE    145FH     001AH     UNIT         ?PR?API_TWI_TX?API_TWI
            CODE    1479H     0019H     UNIT         ?PR?IO_INIT?IO_INIT
            CODE    1492H     0016H     UNIT         ?PR?APP_CYCLE?APP
            CODE    14A8H     0016H     UNIT         ?PR?API_TICK_INIT?API_TICK
            CODE    14BEH     0015H     UNIT         ?PR?API_TWI_STATE?API_TWI
            CODE    14D3H     0015H     UNIT         ?PR?TIMER_INIT?TIMER_INIT
            CODE    14E8H     0014H     UNIT         ?PR?_GETSCANTIMEVALUE?S_TOUCHKEYCFG
            CODE    14FCH     0013H     UNIT         ?C_INITSEG
            CODE    150FH     0012H     UNIT         ?PR?APP_SYS_POWERONQUITE?APP_SYS_POWERON
            CODE    1521H     0012H     UNIT         ?PR?_API_SYSBASE_SETSTATE?API_SYSBASE
            CODE    1533H     000FH     UNIT         ?PR?TWI_INIT?SSI_INIT
            CODE    1542H     000EH     UNIT         ?PR?_SSI_TWI_CMD?API_TWI
            CODE    1550H     000EH     UNIT         ?PR?_SSI_TWI_ACKNOWLEDGECONFIG?SSI_INIT
            CODE    155EH     000DH     UNIT         ?PR?API_TWI_INIT?API_TWI
            CODE    156BH     000CH     UNIT         ?PR?_USDELAY?SENSORMETHOD
            CODE    1577H     000BH     UNIT         ?PR?API_TICK_POPFLAG_10MS?API_TICK
            CODE    1582H     000BH     UNIT         ?PR?API_TICK_POPFLAG_50MS?API_TICK
            CODE    158DH     000BH     UNIT         ?PR?API_TICK_POPFLAG_100MS?API_TICK
            CODE    1598H     000BH     UNIT         ?PR?API_TICK_POPFLAG_500MS?API_TICK
            CODE    15A3H     000BH     UNIT         ?PR?API_TICK_POPFLAG_1000MS?API_TICK
            CODE    15AEH     000BH     UNIT         ?PR?SETONEKEYPUSHRESETTIME?S_TOUCHKEYCFG
            CODE    15B9H     000BH     UNIT         ?PR?GETBASELINEUPDATETHRESHOLD?S_TOUCHKEYCFG
            CODE    15C4H     000BH     UNIT         ?PR?GETINITAUTOUPDATETIME?S_TOUCHKEYCFG
            CODE    15CFH     000BH     UNIT         ?PR?ISDOUBLEKEYORSLIDEKEY?S_TOUCHKEYCFG
            CODE    15DAH     000AH     UNIT         ?PR?APP_INIT?APP
            CODE    15E4H     000AH     UNIT         ?PR?API_SYSBASE_INIT?API_SYSBASE
            CODE    15EEH     000AH     UNIT         ?PR?GETTKYZCNT?S_TOUCHKEYCFG
            CODE    15F8H     0009H     UNIT         ?PR?API_TK_GETTKVALUE?API_TK
            CODE    1601H     0009H     UNIT         ?PR?_GETBASELINEADJUSTVALUE?S_TOUCHKEYCFG
            CODE    160AH     0008H     UNIT         ?PR?GETUPCONFIRMCNT?S_TOUCHKEYCFG
            CODE    1612H     0007H     UNIT         ?PR?API_SYSBASE_GETSYSCB?API_SYSBASE
            CODE    1619H     0005H     UNIT         ?PR?API_TICK_GETMSTICK?API_TICK
            CODE    161EH     0004H     UNIT         ?PR?APP_SYS_INIT?APP_SYS
            CODE    1622H     0004H     UNIT         ?PR?APP_SYS_CLEARPOWERONCOUNT?APP_SYS_POWERON
            CODE    1626H     0004H     UNIT         ?PR?API_SYSBASE_SETENTERFLAG?API_SYSBASE
            CODE    162AH     0004H     UNIT         ?PR?API_SYSBASE_CLEARENTERFLAG?API_SYSBASE
            CODE    162EH     0004H     UNIT         ?PR?API_SYSBASE_SETQUITEFLAG?API_SYSBASE
            CODE    1632H     0004H     UNIT         ?PR?API_SYSBASE_CLEARQUITEFLAG?API_SYSBASE
            CODE    1636H     0004H     UNIT         ?PR?API_TWI_CLEARRXCOUNT?API_TWI
            CODE    163AH     0004H     UNIT         ?PR?API_TWI_CLEARTXCOUNT?API_TWI
            CODE    163EH     0003H     UNIT         ?PR?API_SYSBASE_GETSTATE?API_SYSBASE
            CODE    1641H     0003H     UNIT         ?PR?API_SYSBASE_GETLASTSTATE?API_SYSBASE
            CODE    1644H     0003H     UNIT         ?PR?API_SYSBASE_ISENTER?API_SYSBASE
            CODE    1647H     0003H     UNIT         ?PR?API_SYSBASE_ISQUITE?API_SYSBASE
            CODE    164AH     0003H     UNIT         ?PR?GETCSFUNCTION?S_TOUCHKEYCFG
            CODE    164DH     0003H     UNIT         ?PR?TOUCHKEYRESTART?SENSORMETHOD
            CODE    1650H     0003H     UNIT         ?PR?GETISNEEDUPDATEBASELINE?SENSORMETHOD
BL51 BANKED LINKER/LOCATER V6.22.4.0                                                  04/03/2024  13:42:15  PAGE 4


            CODE    1653H     0003H     UNIT         ?PR?SETNEEDUPDATEBASELINE?SENSORMETHOD
            CODE    1656H     0001H     UNIT         ?PR?APP_SYS_POWERON_KEY_PROC?APP_SYS_POWERON
            CODE    1657H     0001H     UNIT         ?PR?APP_SYS_POWERON_COM_PROC?APP_SYS_POWERON
            CODE    1658H     0001H     UNIT         ?PR?APP_SYS_POWERON_DIAGNOSE_PROC?APP_SYS_POWERON
            CODE    1659H     0001H     UNIT         ?PR?APP_SYS_POWERON_LCD_PROC?APP_SYS_POWERON
            CODE    165AH     0001H     UNIT         ?PR?APP_SYS_POWERON_LED_PROC?APP_SYS_POWERON
            CODE    165BH     0001H     UNIT         ?PR?APP_SYS_TURNON_KEY_PROC?APP_SYS_TURNON
            CODE    165CH     0001H     UNIT         ?PR?APP_SYS_TURNON_COM_PROC?APP_SYS_TURNON
            CODE    165DH     0001H     UNIT         ?PR?APP_SYS_TURNON_DIAGNOSE_PROC?APP_SYS_TURNON
            CODE    165EH     0001H     UNIT         ?PR?APP_SYS_TURNON_LCD_PROC?APP_SYS_TURNON
            CODE    165FH     0001H     UNIT         ?PR?APP_SYS_TURNON_LED_PROC?APP_SYS_TURNON
            CODE    1660H     0001H     UNIT         ?PR?API_LED_GETLEDDATA?API_LED
            CODE    1661H     0001H     UNIT         ?PR?API_LED_CONTRIL?API_LED



OVERLAY MAP OF MODULE:   .\Objects\X5BC05-TK20240103 (MAIN)


SEGMENT                                             BIT_GROUP          DATA_GROUP 
  +--> CALLED SEGMENT                            START    LENGTH     START    LENGTH
------------------------------------------------------------------------------------
?PR?TWI_INT?SSI_INIT                             -----    -----      -----    -----
  +--> ?PR?API_TWI_CLEARTXCOUNT?API_TWI
  +--> ?PR?API_TWI_CLEARRXCOUNT?API_TWI
  +--> ?PR?API_TWI_RX?API_TWI
  +--> ?PR?DELAY_US?API_TWI
  +--> ?PR?API_TWI_TX?API_TWI

?PR?API_TWI_RX?API_TWI                           -----    -----      -----    -----
  +--> ?PR?API_LED_GETLEDDATA?API_LED

*** NEW ROOT ***************************************************

?PR?TIMER0?TIMER_INIT                            -----    -----      -----    -----
  +--> ?PR?SYSTICK_HANDLER?API_TICK

?PR?SYSTICK_HANDLER?API_TICK                     -----    -----      -----    -----
  +--> ?PR?API_TICK_MS?API_TICK

*** NEW ROOT ***************************************************

?PR?CTK_ISR?S_TOUCHKEYCFG                        -----    -----      -----    -----
  +--> ?PR?TOUCHKEY_SERVICE?SENSORMETHOD

?PR?TOUCHKEY_SERVICE?SENSORMETHOD                0020H.3  0000H.1    -----    -----
  +--> ?PR?_GETCFGMSG?S_TOUCHKEYCFG
  +--> ?PR?_GETSCANTIMEVALUE?S_TOUCHKEYCFG
  +--> ?PR?_GETBASELINEADJUSTVALUE?S_TOUCHKE...

?PR?_GETCFGMSG?S_TOUCHKEYCFG                     -----    -----      -----    -----
  +--> ?CO?S_TOUCHKEYCFG

?PR?_GETSCANTIMEVALUE?S_TOUCHKEYCFG              -----    -----      -----    -----
  +--> ?CO?S_TOUCHKEYCFG

*** NEW ROOT ***************************************************
BL51 BANKED LINKER/LOCATER V6.22.4.0                                                  04/03/2024  13:42:15  PAGE 5



?C_C51STARTUP                                    -----    -----      -----    -----
  +--> ?PR?MAIN?MAIN
  +--> ?C_INITSEG

?PR?MAIN?MAIN                                    -----    -----      -----    -----
  +--> ?PR?IO_INIT?IO_INIT
  +--> ?PR?TIMER_INIT?TIMER_INIT
  +--> ?PR?TWI_INIT?SSI_INIT
  +--> ?PR?TOUCHKEYINIT?SENSORMETHOD
  +--> ?PR?APP_INIT?APP
  +--> ?PR?SYS_SCAN?API_TK
  +--> ?PR?API_TWI_TXDATALOAD?API_TWI

?PR?TOUCHKEYINIT?SENSORMETHOD                    -----    -----      -----    -----
  +--> ?PR?TOUCHKEYCFGINIT?S_TOUCHKEYCFG
  +--> ?PR?_GETCFGMSG?S_TOUCHKEYCFG
  +--> ?PR?_GETSCANTIMEVALUE?S_TOUCHKEYCFG
  +--> ?PR?INITIALIZESENSORFLAG?SENSORMETHOD
  +--> ?PR?FILTERAVERGEDEAL?SENSORMETHOD
  +--> ?PR?INITIALIZEBASELINES?SENSORMETHOD

?PR?TOUCHKEYCFGINIT?S_TOUCHKEYCFG                -----    -----      -----    -----
  +--> ?CO?S_TOUCHKEYCFG
  +--> ?PR?CURRENTSENSORCHOOSE?S_TOUCHKEYCFG

?PR?FILTERAVERGEDEAL?SENSORMETHOD                -----    -----      0021H    0002H
  +--> ?CO?S_TOUCHKEYCFG
  +--> ?PR?FILTERCOMMCODE?SENSORMETHOD
  +--> ?PR?_ICHAADJUST?SENSORMETHOD
  +--> ?PR?FILTERIIRINIT?SENSORMETHOD
  +--> ?PR?GETINITAUTOUPDATETIME?S_TOUCHKEYCFG
  +--> ?PR?_FILTERDATADEAL?SENSORMETHOD

?PR?FILTERCOMMCODE?SENSORMETHOD                  -----    -----      -----    -----
  +--> ?PR?_USDELAY?SENSORMETHOD

?PR?_ICHAADJUST?SENSORMETHOD                     -----    -----      002BH    0002H
  +--> ?PR?_GETBASELINEADJUSTVALUE?S_TOUCHKE...
  +--> ?PR?_GETSCANTIMEVALUE?S_TOUCHKEYCFG

?PR?GETINITAUTOUPDATETIME?S_TOUCHKEYCFG          -----    -----      -----    -----
  +--> ?CO?S_TOUCHKEYCFG

?PR?_FILTERDATADEAL?SENSORMETHOD                 -----    -----      0023H    0003H
  +--> ?PR?_GETCURRFINGERVALUE?S_TOUCHKEYCFG

?PR?_GETCURRFINGERVALUE?S_TOUCHKEYCFG            -----    -----      -----    -----
  +--> ?CO?S_TOUCHKEYCFG

?PR?APP_INIT?APP                                 -----    -----      -----    -----
  +--> ?PR?API_TICK_INIT?API_TICK
  +--> ?PR?APP_SYS_INIT?APP_SYS
  +--> ?PR?APP_SYS_CLEARPOWERONCOUNT?APP_SYS...

?PR?APP_SYS_INIT?APP_SYS                         -----    -----      -----    -----
  +--> ?PR?API_SYSBASE_INIT?API_SYSBASE
BL51 BANKED LINKER/LOCATER V6.22.4.0                                                  04/03/2024  13:42:15  PAGE 6



?PR?SYS_SCAN?API_TK                              -----    -----      -----    -----
  +--> ?PR?TOUCHKEYSCAN?S_TOUCHKEYCFG
  +--> ?PR?TOUCHKEYRESTART?SENSORMETHOD

?PR?TOUCHKEYSCAN?S_TOUCHKEYCFG                   -----    -----      -----    -----
  +--> ?PR?GETISNEEDUPDATEBASELINE?SENSORMETHOD
  +--> ?PR?SENSORKEYFLAG?SENSORMETHOD
  +--> ?PR?SETNEEDUPDATEBASELINE?SENSORMETHOD
  +--> ?PR?ISDOUBLEKEYORSLIDEKEY?S_TOUCHKEYCFG
  +--> ?PR?SETONEKEYPUSHRESETTIME?S_TOUCHKEYCFG
  +--> ?CO?S_TOUCHKEYCFG
  +--> ?PR?_MULTIPLEDEAL?SENSORMETHOD

?PR?SENSORKEYFLAG?SENSORMETHOD                   -----    -----      0021H    0001H
  +--> ?PR?_FILTERDATADEAL?SENSORMETHOD
  +--> ?PR?_SENSORRENOVATE?SENSORMETHOD

?PR?_SENSORRENOVATE?SENSORMETHOD                 -----    -----      0022H    0009H
  +--> ?PR?_GETCURRFINGERVALUE?S_TOUCHKEYCFG
  +--> ?PR?GETCSFUNCTION?S_TOUCHKEYCFG
  +--> ?PR?ISDOUBLEKEYORSLIDEKEY?S_TOUCHKEYCFG
  +--> ?PR?GETTKYZCNT?S_TOUCHKEYCFG
  +--> ?PR?_GETTKYZTHRESHOLD?S_TOUCHKEYCFG
  +--> ?PR?GETBASELINEUPDATETHRESHOLD?S_TOUC...
  +--> ?CO?S_TOUCHKEYCFG
  +--> ?PR?GETUPCONFIRMCNT?S_TOUCHKEYCFG
  +--> ?PR?_ICHAADJUST?SENSORMETHOD

?PR?ISDOUBLEKEYORSLIDEKEY?S_TOUCHKEYCFG          -----    -----      -----    -----
  +--> ?CO?S_TOUCHKEYCFG

?PR?_GETTKYZTHRESHOLD?S_TOUCHKEYCFG              -----    -----      -----    -----
  +--> ?PR?_GETCURRFINGERVALUE?S_TOUCHKEYCFG

?PR?GETBASELINEUPDATETHRESHOLD?S_TOUC...         -----    -----      -----    -----
  +--> ?CO?S_TOUCHKEYCFG

?PR?SETONEKEYPUSHRESETTIME?S_TOUCHKEYCFG         -----    -----      -----    -----
  +--> ?CO?S_TOUCHKEYCFG

?PR?_MULTIPLEDEAL?SENSORMETHOD                   -----    -----      0021H    0002H
  +--> ?PR?INITIALIZESENSORFLAG?SENSORMETHOD
  +--> ?PR?FILTERIIRINIT?SENSORMETHOD
  +--> ?PR?_FILTERDATADEAL?SENSORMETHOD
  +--> ?PR?INITIALIZEBASELINES?SENSORMETHOD

?PR?API_TWI_TXDATALOAD?API_TWI                   -----    -----      -----    -----
  +--> ?PR?DELAY_US?API_TWI



SYMBOL TABLE OF MODULE:  .\Objects\X5BC05-TK20240103 (MAIN)

  VALUE           TYPE          NAME
  ----------------------------------

BL51 BANKED LINKER/LOCATER V6.22.4.0                                                  04/03/2024  13:42:15  PAGE 7


  -------         MODULE        MAIN
  C:0000H         SYMBOL        _ICE_DUMMY_
  D:0080H         PUBLIC        P0
  D:0090H         PUBLIC        P1
  D:00A0H         PUBLIC        P2
  D:00A8H         PUBLIC        IE
  D:00B8H         PUBLIC        IP
  C:13A9H         PUBLIC        main
  D:0088H         PUBLIC        TCON
  D:00C8H         PUBLIC        T2CON
  D:00D0H         PUBLIC        PSW
  -------         PROC          MAIN
  C:13A9H         LINE#         6
  C:13A9H         LINE#         7
  C:13A9H         LINE#         8
  C:13ACH         LINE#         9
  C:13AFH         LINE#         10
  C:13B2H         LINE#         12
  C:13B5H         LINE#         14
  C:13B8H         LINE#         16
  C:13B9H         LINE#         17
  C:13BAH         LINE#         18
  C:13BBH         LINE#         19
  C:13BCH         LINE#         20
  C:13BDH         LINE#         21
  C:13BEH         LINE#         22
  C:13BFH         LINE#         23
  C:13C0H         LINE#         24
  C:13C0H         LINE#         25
  C:13C0H         LINE#         26
  C:13C3H         LINE#         27
  C:13C6H         LINE#         29
  -------         ENDPROC       MAIN
  -------         ENDMOD        MAIN

  -------         MODULE        GLOBAL
  C:0000H         SYMBOL        _ICE_DUMMY_
  D:0080H         PUBLIC        P0
  D:0090H         PUBLIC        P1
  D:00A0H         PUBLIC        P2
  D:001AH         PUBLIC        exKeyValueFlag
  D:00A8H         PUBLIC        IE
  D:00B8H         PUBLIC        IP
  D:0088H         PUBLIC        TCON
  D:001EH         PUBLIC        u8KeyBuff
  D:00C8H         PUBLIC        T2CON
  D:00D0H         PUBLIC        PSW
  -------         ENDMOD        GLOBAL

  -------         MODULE        APP
  C:0000H         SYMBOL        _ICE_DUMMY_
  C:15DAH         PUBLIC        App_Init
  C:1492H         PUBLIC        App_Cycle
  -------         PROC          APP_INIT
  C:15DAH         LINE#         4
  C:15DAH         LINE#         5
  C:15DAH         LINE#         6
BL51 BANKED LINKER/LOCATER V6.22.4.0                                                  04/03/2024  13:42:15  PAGE 8


  C:15DDH         LINE#         8
  C:15E0H         LINE#         10
  C:15E3H         LINE#         11
  -------         ENDPROC       APP_INIT
  -------         PROC          APP_CYCLE
  C:1492H         LINE#         17
  C:1492H         LINE#         18
  C:1492H         LINE#         19
  C:1498H         LINE#         20
  C:1498H         LINE#         21
  C:149BH         LINE#         22
  C:149BH         LINE#         24
  C:149EH         LINE#         25
  C:149EH         LINE#         27
  C:149EH         LINE#         29
  C:14A1H         LINE#         30
  C:14A1H         LINE#         32
  C:14A1H         LINE#         34
  C:14A4H         LINE#         35
  C:14A4H         LINE#         37
  C:14A4H         LINE#         39
  C:14A7H         LINE#         40
  C:14A7H         LINE#         42
  C:14A7H         LINE#         43
  -------         ENDPROC       APP_CYCLE
  -------         ENDMOD        APP

  -------         MODULE        APP_SYS
  C:0000H         SYMBOL        _ICE_DUMMY_
  C:12E0H         PUBLIC        App_Sys_Cycle
  C:161EH         PUBLIC        App_Sys_Init
  -------         PROC          APP_SYS_INIT
  C:161EH         LINE#         3
  C:161EH         LINE#         4
  C:161EH         LINE#         5
  C:1621H         LINE#         6
  -------         ENDPROC       APP_SYS_INIT
  -------         PROC          APP_SYS_CYCLE
  C:12E0H         LINE#         15
  C:12E0H         LINE#         16
  C:12E0H         LINE#         17
  C:1303H         LINE#         18
  C:1303H         LINE#         19
  C:1303H         LINE#         20
  C:1306H         LINE#         21
  C:1307H         LINE#         23
  C:1307H         LINE#         25
  C:1307H         LINE#         27
  C:1307H         LINE#         28
  C:130AH         LINE#         29
  C:130AH         LINE#         31
  C:130AH         LINE#         33
  C:130AH         LINE#         35
  C:130AH         LINE#         37
  C:130AH         LINE#         39
  C:130AH         LINE#         41
  C:130AH         LINE#         43
BL51 BANKED LINKER/LOCATER V6.22.4.0                                                  04/03/2024  13:42:15  PAGE 9


  C:130AH         LINE#         45
  C:130AH         LINE#         47
  C:130AH         LINE#         49
  C:130AH         LINE#         51
  C:130AH         LINE#         52
  C:130AH         LINE#         53
  C:130AH         LINE#         54
  -------         ENDPROC       APP_SYS_CYCLE
  -------         ENDMOD        APP_SYS

  -------         MODULE        APP_SYS_POWERON
  C:0000H         SYMBOL        _ICE_DUMMY_
  C:150FH         PUBLIC        App_Sys_PowerOnQuite
  D:004BH         PUBLIC        u8PowerOn_count
  C:13C9H         PUBLIC        App_Sys_PowerOn_Cycle
  C:1659H         SYMBOL        App_Sys_PowerOn_Lcd_Proc
  C:165AH         PUBLIC        App_Sys_PowerOn_Led_Proc
  C:1657H         SYMBOL        App_Sys_PowerOn_Com_Proc
  C:1622H         PUBLIC        App_Sys_ClearPowerOnCount
  C:1656H         SYMBOL        App_Sys_PowerOn_Key_Proc
  C:1658H         SYMBOL        App_Sys_PowerOn_Diagnose_Proc
  -------         PROC          APP_SYS_POWERON_KEY_PROC
  C:1656H         LINE#         7
  C:1656H         LINE#         8
  C:1656H         LINE#         10
  -------         ENDPROC       APP_SYS_POWERON_KEY_PROC
  -------         PROC          APP_SYS_POWERON_COM_PROC
  C:1657H         LINE#         11
  C:1657H         LINE#         12
  C:1657H         LINE#         14
  -------         ENDPROC       APP_SYS_POWERON_COM_PROC
  -------         PROC          APP_SYS_POWERON_DIAGNOSE_PROC
  C:1658H         LINE#         15
  C:1658H         LINE#         16
  C:1658H         LINE#         18
  -------         ENDPROC       APP_SYS_POWERON_DIAGNOSE_PROC
  -------         PROC          APP_SYS_POWERON_LCD_PROC
  C:1659H         LINE#         20
  C:1659H         LINE#         21
  C:1659H         LINE#         23
  -------         ENDPROC       APP_SYS_POWERON_LCD_PROC
  -------         PROC          APP_SYS_POWERON_LED_PROC
  C:165AH         LINE#         25
  C:165AH         LINE#         26
  C:165AH         LINE#         28
  -------         ENDPROC       APP_SYS_POWERON_LED_PROC
  -------         PROC          APP_SYS_POWERONQUITE
  C:150FH         LINE#         37
  C:150FH         LINE#         38
  C:150FH         LINE#         39
  C:1511H         LINE#         40
  C:1518H         LINE#         41
  C:1518H         LINE#         42
  C:151BH         LINE#         43
  C:1520H         LINE#         44
  C:1520H         LINE#         45
  -------         ENDPROC       APP_SYS_POWERONQUITE
BL51 BANKED LINKER/LOCATER V6.22.4.0                                                  04/03/2024  13:42:15  PAGE 10


  -------         PROC          APP_SYS_CLEARPOWERONCOUNT
  C:1622H         LINE#         54
  C:1622H         LINE#         55
  C:1622H         LINE#         56
  C:1625H         LINE#         57
  -------         ENDPROC       APP_SYS_CLEARPOWERONCOUNT
  -------         PROC          APP_SYS_POWERON_CYCLE
  C:13C9H         LINE#         66
  C:13C9H         LINE#         67
  C:13C9H         LINE#         68
  C:13CFH         LINE#         69
  C:13CFH         LINE#         70
  C:13D2H         LINE#         71
  C:13D2H         LINE#         73
  C:13D8H         LINE#         74
  C:13D8H         LINE#         75
  C:13DBH         LINE#         76
  C:13DEH         LINE#         77
  C:13DFH         LINE#         78
  C:13E5H         LINE#         79
  C:13E5H         LINE#         80
  C:13E8H         LINE#         81
  C:13E8H         LINE#         82
  -------         ENDPROC       APP_SYS_POWERON_CYCLE
  -------         ENDMOD        APP_SYS_POWERON

  -------         MODULE        APP_SYS_TURNON
  C:0000H         SYMBOL        _ICE_DUMMY_
  C:165CH         SYMBOL        App_Sys_TurnOn_Com_Proc
  C:165BH         SYMBOL        App_Sys_TurnOn_Key_Proc
  C:165DH         SYMBOL        App_Sys_TurnOn_Diagnose_Proc
  C:1445H         PUBLIC        App_Sys_TurnOn_Cycle
  C:165EH         SYMBOL        App_Sys_TurnOn_Lcd_Proc
  C:165FH         PUBLIC        App_Sys_TurnOn_Led_Proc
  -------         PROC          APP_SYS_TURNON_KEY_PROC
  C:165BH         LINE#         3
  C:165BH         LINE#         4
  C:165BH         LINE#         6
  -------         ENDPROC       APP_SYS_TURNON_KEY_PROC
  -------         PROC          APP_SYS_TURNON_COM_PROC
  C:165CH         LINE#         7
  C:165CH         LINE#         8
  C:165CH         LINE#         10
  -------         ENDPROC       APP_SYS_TURNON_COM_PROC
  -------         PROC          APP_SYS_TURNON_DIAGNOSE_PROC
  C:165DH         LINE#         11
  C:165DH         LINE#         12
  C:165DH         LINE#         14
  -------         ENDPROC       APP_SYS_TURNON_DIAGNOSE_PROC
  -------         PROC          APP_SYS_TURNON_LCD_PROC
  C:165EH         LINE#         16
  C:165EH         LINE#         17
  C:165EH         LINE#         19
  -------         ENDPROC       APP_SYS_TURNON_LCD_PROC
  -------         PROC          APP_SYS_TURNON_LED_PROC
  C:165FH         LINE#         21
  C:165FH         LINE#         22
BL51 BANKED LINKER/LOCATER V6.22.4.0                                                  04/03/2024  13:42:15  PAGE 11


  C:165FH         LINE#         24
  -------         ENDPROC       APP_SYS_TURNON_LED_PROC
  -------         PROC          APP_SYS_TURNON_CYCLE
  C:1445H         LINE#         26
  C:1445H         LINE#         27
  C:1445H         LINE#         28
  C:144BH         LINE#         29
  C:144BH         LINE#         30
  C:144EH         LINE#         31
  C:144EH         LINE#         33
  C:1454H         LINE#         34
  C:1454H         LINE#         35
  C:1457H         LINE#         36
  C:145AH         LINE#         37
  C:145BH         LINE#         38
  C:145EH         LINE#         39
  C:145EH         LINE#         41
  C:145EH         LINE#         42
  -------         ENDPROC       APP_SYS_TURNON_CYCLE
  -------         ENDMOD        APP_SYS_TURNON

  -------         MODULE        API_TICK
  C:0000H         SYMBOL        _ICE_DUMMY_
  C:14A8H         PUBLIC        Api_Tick_Init
  D:0080H         PUBLIC        P0
  D:0090H         PUBLIC        P1
  D:00A0H         PUBLIC        P2
  D:00A8H         PUBLIC        IE
  D:00B8H         PUBLIC        IP
  C:15A3H         PUBLIC        Api_Tick_PopFlag_1000ms
  D:002EH         SYMBOL        timerCB
  C:0FD2H         PUBLIC        Api_Tick_Ms
  D:0088H         PUBLIC        TCON
  C:1577H         PUBLIC        Api_Tick_PopFlag_10ms
  C:1582H         PUBLIC        Api_Tick_PopFlag_50ms
  D:00CFH         PUBLIC        WDTCON
  D:00C8H         PUBLIC        T2CON
  C:158DH         PUBLIC        Api_Tick_PopFlag_100ms
  C:1598H         PUBLIC        Api_Tick_PopFlag_500ms
  C:1409H         PUBLIC        SysTick_Handler
  C:1619H         PUBLIC        Api_Tick_GetmsTick
  D:00D0H         PUBLIC        PSW
  -------         PROC          SYSTICK_HANDLER
  -------         DO            
  D:002DH         SYMBOL        tick
  -------         ENDDO         
  C:1409H         LINE#         28
  C:1409H         LINE#         29
  C:1409H         LINE#         31
  C:140CH         LINE#         33
  C:1421H         LINE#         34
  C:1421H         LINE#         35
  C:1423H         LINE#         36
  C:1426H         LINE#         37
  C:1426H         LINE#         38
  -------         ENDPROC       SYSTICK_HANDLER
  -------         PROC          API_TICK_MS
BL51 BANKED LINKER/LOCATER V6.22.4.0                                                  04/03/2024  13:42:15  PAGE 12


  C:0FD2H         LINE#         41
  C:0FD2H         LINE#         42
  C:0FD2H         LINE#         43
  C:0FDAH         LINE#         45
  C:0FE9H         LINE#         46
  C:0FE9H         LINE#         47
  C:0FEBH         LINE#         48
  C:0FF9H         LINE#         49
  C:0FF9H         LINE#         50
  C:0FFBH         LINE#         51
  C:1009H         LINE#         52
  C:1009H         LINE#         53
  C:100BH         LINE#         54
  C:101AH         LINE#         55
  C:101AH         LINE#         56
  C:101CH         LINE#         57
  C:102BH         LINE#         58
  C:102BH         LINE#         59
  C:102DH         LINE#         60
  C:1031H         LINE#         61
  C:1031H         LINE#         62
  C:1031H         LINE#         63
  C:1031H         LINE#         64
  C:1031H         LINE#         65
  C:1031H         LINE#         66
  -------         ENDPROC       API_TICK_MS
  -------         PROC          API_TICK_INIT
  C:14A8H         LINE#         67
  C:14A8H         LINE#         68
  C:14A8H         LINE#         70
  C:14AEH         LINE#         71
  C:14B1H         LINE#         72
  C:14B4H         LINE#         73
  C:14B7H         LINE#         74
  C:14BAH         LINE#         75
  C:14BDH         LINE#         76
  -------         ENDPROC       API_TICK_INIT
  -------         PROC          API_TICK_GETMSTICK
  C:1619H         LINE#         78
  C:1619H         LINE#         79
  C:1619H         LINE#         80
  C:161DH         LINE#         81
  -------         ENDPROC       API_TICK_GETMSTICK
  -------         PROC          API_TICK_POPFLAG_10MS
  C:1577H         LINE#         83
  C:1577H         LINE#         84
  C:1577H         LINE#         85
  C:157BH         LINE#         86
  C:157DH         LINE#         87
  C:1581H         LINE#         88
  -------         ENDPROC       API_TICK_POPFLAG_10MS
  -------         PROC          API_TICK_POPFLAG_50MS
  C:1582H         LINE#         89
  C:1582H         LINE#         90
  C:1582H         LINE#         91
  C:1586H         LINE#         92
  C:1588H         LINE#         93
BL51 BANKED LINKER/LOCATER V6.22.4.0                                                  04/03/2024  13:42:15  PAGE 13


  C:158CH         LINE#         94
  -------         ENDPROC       API_TICK_POPFLAG_50MS
  -------         PROC          API_TICK_POPFLAG_100MS
  C:158DH         LINE#         95
  C:158DH         LINE#         96
  C:1591H         LINE#         97
  C:1593H         LINE#         98
  C:1597H         LINE#         99
  -------         ENDPROC       API_TICK_POPFLAG_100MS
  -------         PROC          API_TICK_POPFLAG_500MS
  C:1598H         LINE#         101
  C:1598H         LINE#         102
  C:159CH         LINE#         103
  C:159EH         LINE#         104
  C:15A2H         LINE#         105
  -------         ENDPROC       API_TICK_POPFLAG_500MS
  -------         PROC          API_TICK_POPFLAG_1000MS
  C:15A3H         LINE#         106
  C:15A3H         LINE#         107
  C:15A7H         LINE#         108
  C:15A9H         LINE#         109
  C:15ADH         LINE#         110
  -------         ENDPROC       API_TICK_POPFLAG_1000MS
  -------         ENDMOD        API_TICK

  -------         MODULE        API_SYSBASE
  C:0000H         SYMBOL        _ICE_DUMMY_
  C:1612H         PUBLIC        Api_SysBase_GetSysCB
  C:162AH         PUBLIC        Api_SysBase_ClearEnterFlag
  C:1632H         PUBLIC        Api_SysBase_ClearQuiteFlag
  C:15E4H         PUBLIC        Api_SysBase_Init
  C:163EH         PUBLIC        Api_SysBase_GetState
  C:1626H         PUBLIC        Api_SysBase_SetEnterFlag
  C:1521H         PUBLIC        _Api_SysBase_SetState
  C:162EH         PUBLIC        Api_SysBase_SetQuiteFlag
  C:1641H         PUBLIC        Api_SysBase_GetLastState
  C:1644H         PUBLIC        Api_SysBase_IsEnter
  C:1647H         PUBLIC        Api_SysBase_IsQuite
  D:0040H         SYMBOL        sysCB
  -------         PROC          _API_SYSBASE_SETSTATE
  D:004CH         SYMBOL        state
  C:1521H         LINE#         6
  C:1523H         LINE#         7
  C:1523H         LINE#         8
  C:1529H         LINE#         9
  C:1529H         LINE#         10
  C:152CH         LINE#         11
  C:152FH         LINE#         12
  C:1532H         LINE#         13
  C:1532H         LINE#         14
  -------         ENDPROC       _API_SYSBASE_SETSTATE
  -------         PROC          API_SYSBASE_GETSTATE
  C:163EH         LINE#         16
  C:163EH         LINE#         17
  C:163EH         LINE#         18
  C:1640H         LINE#         19
  -------         ENDPROC       API_SYSBASE_GETSTATE
BL51 BANKED LINKER/LOCATER V6.22.4.0                                                  04/03/2024  13:42:15  PAGE 14


  -------         PROC          API_SYSBASE_GETLASTSTATE
  C:1641H         LINE#         21
  C:1641H         LINE#         22
  C:1641H         LINE#         23
  C:1643H         LINE#         24
  -------         ENDPROC       API_SYSBASE_GETLASTSTATE
  -------         PROC          API_SYSBASE_GETSYSCB
  C:1612H         LINE#         26
  C:1612H         LINE#         27
  C:1612H         LINE#         28
  C:1618H         LINE#         29
  -------         ENDPROC       API_SYSBASE_GETSYSCB
  -------         PROC          API_SYSBASE_ISENTER
  C:1644H         LINE#         31
  C:1644H         LINE#         32
  C:1644H         LINE#         33
  C:1646H         LINE#         34
  -------         ENDPROC       API_SYSBASE_ISENTER
  -------         PROC          API_SYSBASE_SETENTERFLAG
  C:1626H         LINE#         36
  C:1626H         LINE#         37
  C:1626H         LINE#         38
  C:1629H         LINE#         39
  -------         ENDPROC       API_SYSBASE_SETENTERFLAG
  -------         PROC          API_SYSBASE_CLEARENTERFLAG
  C:162AH         LINE#         41
  C:162AH         LINE#         42
  C:162AH         LINE#         43
  C:162DH         LINE#         44
  -------         ENDPROC       API_SYSBASE_CLEARENTERFLAG
  -------         PROC          API_SYSBASE_ISQUITE
  C:1647H         LINE#         46
  C:1647H         LINE#         47
  C:1647H         LINE#         48
  C:1649H         LINE#         49
  -------         ENDPROC       API_SYSBASE_ISQUITE
  -------         PROC          API_SYSBASE_SETQUITEFLAG
  C:162EH         LINE#         51
  C:162EH         LINE#         52
  C:162EH         LINE#         53
  C:1631H         LINE#         54
  -------         ENDPROC       API_SYSBASE_SETQUITEFLAG
  -------         PROC          API_SYSBASE_CLEARQUITEFLAG
  C:1632H         LINE#         56
  C:1632H         LINE#         57
  C:1632H         LINE#         58
  C:1635H         LINE#         59
  -------         ENDPROC       API_SYSBASE_CLEARQUITEFLAG
  -------         PROC          API_SYSBASE_INIT
  C:15E4H         LINE#         61
  C:15E4H         LINE#         62
  C:15E7H         LINE#         63
  C:15EAH         LINE#         64
  C:15EDH         LINE#         65
  -------         ENDPROC       API_SYSBASE_INIT
  -------         ENDMOD        API_SYSBASE

BL51 BANKED LINKER/LOCATER V6.22.4.0                                                  04/03/2024  13:42:15  PAGE 15


  -------         MODULE        API_TK
  C:0000H         SYMBOL        _ICE_DUMMY_
  C:1427H         PUBLIC        Sys_Scan
  C:15F8H         PUBLIC        Api_TK_GetTKValue
  -------         PROC          SYS_SCAN
  C:1427H         LINE#         10
  C:1427H         LINE#         11
  C:1427H         LINE#         12
  C:142FH         LINE#         13
  C:142FH         LINE#         14
  C:1433H         LINE#         15
  C:1441H         LINE#         17
  C:1444H         LINE#         18
  C:1444H         LINE#         19
  -------         ENDPROC       SYS_SCAN
  -------         PROC          API_TK_GETTKVALUE
  C:15F8H         LINE#         27
  C:15F8H         LINE#         28
  C:15F8H         LINE#         29
  C:1600H         LINE#         30
  -------         ENDPROC       API_TK_GETTKVALUE
  -------         ENDMOD        API_TK

  -------         MODULE        API_TWI
  C:0000H         SYMBOL        _ICE_DUMMY_
  D:0080H         PUBLIC        P0
  D:009FH         PUBLIC        SSDAT
  D:0090H         PUBLIC        P1
  D:00A0H         PUBLIC        P2
  D:00A8H         PUBLIC        IE
  C:14BEH         PUBLIC        Api_Twi_State
  D:00B8H         PUBLIC        IP
  C:155EH         PUBLIC        Api_Twi_Init
  D:0008H         PUBLIC        u8TwiRxBuff
  D:0088H         PUBLIC        TCON
  D:000DH         PUBLIC        u8TwiTxBuff
  D:009DH         PUBLIC        SSCON0
  C:1542H         PUBLIC        _SSI_TWI_Cmd
  D:0015H         PUBLIC        u8TwiRx_count
  D:0016H         PUBLIC        u8TwiTx_count
  C:1636H         PUBLIC        Api_Twi_ClearRxCount
  C:163AH         PUBLIC        Api_Twi_ClearTxCount
  C:05A3H         PUBLIC        delay_us
  C:12B4H         PUBLIC        Api_Twi_Rx
  C:145FH         PUBLIC        Api_Twi_Tx
  C:108FH         PUBLIC        Api_Twi_TxDataLoad
  D:00C8H         PUBLIC        T2CON
  D:0017H         PUBLIC        Twi_TxState
  D:0018H         PUBLIC        u8TwiRxCheSum
  D:0019H         PUBLIC        u8TwiTxCheSum
  D:00D0H         PUBLIC        PSW
  -------         PROC          DELAY_US
  C:05A3H         LINE#         20
  C:05A3H         LINE#         21
  C:05A3H         LINE#         23
  C:05A8H         LINE#         24
  C:05ADH         LINE#         25
BL51 BANKED LINKER/LOCATER V6.22.4.0                                                  04/03/2024  13:42:15  PAGE 16


  C:05B2H         LINE#         26
  C:05B7H         LINE#         27
  C:05BCH         LINE#         28
  C:05C1H         LINE#         29
  C:05C6H         LINE#         30
  C:05CBH         LINE#         31
  C:05D0H         LINE#         32
  C:05D5H         LINE#         33
  C:05DAH         LINE#         34
  C:05DFH         LINE#         35
  C:05E4H         LINE#         36
  C:05E9H         LINE#         37
  C:05EEH         LINE#         38
  C:05F3H         LINE#         39
  C:05F8H         LINE#         40
  C:05FDH         LINE#         41
  C:0602H         LINE#         42
  C:0607H         LINE#         43
  C:060CH         LINE#         44
  C:0611H         LINE#         45
  C:0616H         LINE#         46
  C:061BH         LINE#         48
  C:0620H         LINE#         49
  C:0625H         LINE#         50
  C:062AH         LINE#         51
  C:062FH         LINE#         52
  C:0634H         LINE#         53
  C:0639H         LINE#         54
  C:063EH         LINE#         55
  C:0643H         LINE#         56
  C:0648H         LINE#         57
  C:064DH         LINE#         58
  C:0652H         LINE#         59
  C:0657H         LINE#         60
  C:065CH         LINE#         61
  C:0661H         LINE#         62
  C:0666H         LINE#         63
  C:066BH         LINE#         64
  C:0670H         LINE#         65
  C:0675H         LINE#         66
  C:067AH         LINE#         67
  C:067FH         LINE#         68
  C:0684H         LINE#         69
  C:0689H         LINE#         70
  C:068EH         LINE#         71
  C:0693H         LINE#         73
  C:0698H         LINE#         74
  C:069DH         LINE#         75
  C:06A2H         LINE#         76
  C:06A7H         LINE#         77
  C:06ACH         LINE#         78
  C:06B1H         LINE#         79
  C:06B6H         LINE#         80
  C:06BBH         LINE#         81
  C:06C0H         LINE#         82
  C:06C5H         LINE#         83
  C:06CAH         LINE#         84
BL51 BANKED LINKER/LOCATER V6.22.4.0                                                  04/03/2024  13:42:15  PAGE 17


  C:06CFH         LINE#         85
  C:06D4H         LINE#         86
  C:06D9H         LINE#         87
  C:06DEH         LINE#         88
  C:06E3H         LINE#         89
  C:06E8H         LINE#         90
  C:06EDH         LINE#         91
  C:06F2H         LINE#         92
  C:06F7H         LINE#         93
  C:06FCH         LINE#         94
  C:0701H         LINE#         95
  C:0706H         LINE#         96
  C:070BH         LINE#         98
  C:0710H         LINE#         99
  C:0715H         LINE#         100
  C:071AH         LINE#         101
  C:071FH         LINE#         102
  C:0724H         LINE#         103
  C:0729H         LINE#         104
  C:072EH         LINE#         105
  C:0733H         LINE#         106
  C:0738H         LINE#         107
  C:073DH         LINE#         108
  C:0742H         LINE#         109
  C:0747H         LINE#         110
  C:074CH         LINE#         111
  C:0751H         LINE#         112
  C:0756H         LINE#         113
  C:075BH         LINE#         114
  C:0760H         LINE#         115
  C:0765H         LINE#         116
  C:076AH         LINE#         117
  C:076FH         LINE#         118
  C:0774H         LINE#         119
  C:0779H         LINE#         120
  C:077EH         LINE#         121
  C:0783H         LINE#         122
  -------         ENDPROC       DELAY_US
  -------         PROC          API_TWI_INIT
  C:155EH         LINE#         132
  C:155EH         LINE#         133
  C:155EH         LINE#         134
  C:1561H         LINE#         135
  C:1564H         LINE#         136
  C:1567H         LINE#         137
  C:156AH         LINE#         138
  -------         ENDPROC       API_TWI_INIT
  -------         PROC          _SSI_TWI_CMD
  D:004DH         SYMBOL        NewState
  C:1542H         LINE#         166
  C:1544H         LINE#         167
  C:1544H         LINE#         168
  C:1548H         LINE#         169
  C:1548H         LINE#         170
  C:154BH         LINE#         171
  C:154CH         LINE#         173
  C:154CH         LINE#         174
BL51 BANKED LINKER/LOCATER V6.22.4.0                                                  04/03/2024  13:42:15  PAGE 18


  C:154FH         LINE#         175
  C:154FH         LINE#         176
  -------         ENDPROC       _SSI_TWI_CMD
  -------         PROC          API_TWI_RX
  C:12B4H         LINE#         185
  C:12B4H         LINE#         186
  C:12B4H         LINE#         187
  C:12BCH         LINE#         188
  C:12BEH         LINE#         189
  C:12C5H         LINE#         190
  C:12C5H         LINE#         191
  C:12C8H         LINE#         192
  C:12D4H         LINE#         193
  C:12D7H         LINE#         194
  C:12DCH         LINE#         195
  C:12DCH         LINE#         196
  C:12DFH         LINE#         197
  C:12DFH         LINE#         198
  C:12DFH         LINE#         199
  -------         ENDPROC       API_TWI_RX
  -------         PROC          API_TWI_CLEARRXCOUNT
  C:1636H         LINE#         201
  C:1636H         LINE#         202
  C:1636H         LINE#         203
  C:1639H         LINE#         204
  -------         ENDPROC       API_TWI_CLEARRXCOUNT
  -------         PROC          API_TWI_TXDATALOAD
  -------         DO            
  D:004EH         SYMBOL        i
  -------         ENDDO         
  C:108FH         LINE#         213
  C:108FH         LINE#         214
  C:108FH         LINE#         216
  C:109EH         LINE#         217
  C:109EH         LINE#         218
  C:109EH         LINE#         219
  C:10A2H         LINE#         220
  C:10AFH         LINE#         221
  C:10B2H         LINE#         222
  C:10B5H         LINE#         223
  C:10B8H         LINE#         224
  C:10BBH         LINE#         225
  C:10BEH         LINE#         226
  C:10C8H         LINE#         227
  C:10C8H         LINE#         228
  C:10D4H         LINE#         229
  C:10D8H         LINE#         230
  C:10DBH         LINE#         231
  C:10DEH         LINE#         232
  C:10E1H         LINE#         234
  C:10E4H         LINE#         235
  C:10E5H         LINE#         237
  C:10E5H         LINE#         238
  C:10E8H         LINE#         239
  C:10E8H         LINE#         241
  C:10E8H         LINE#         242
  C:10E8H         LINE#         243
BL51 BANKED LINKER/LOCATER V6.22.4.0                                                  04/03/2024  13:42:15  PAGE 19


  C:10E8H         LINE#         244
  -------         ENDPROC       API_TWI_TXDATALOAD
  -------         PROC          API_TWI_TX
  C:145FH         LINE#         253
  C:145FH         LINE#         254
  C:145FH         LINE#         255
  C:1469H         LINE#         256
  C:146BH         LINE#         257
  C:1472H         LINE#         258
  C:1472H         LINE#         259
  C:1475H         LINE#         260
  C:1478H         LINE#         261
  C:1478H         LINE#         263
  -------         ENDPROC       API_TWI_TX
  -------         PROC          API_TWI_CLEARTXCOUNT
  C:163AH         LINE#         265
  C:163AH         LINE#         266
  C:163AH         LINE#         267
  C:163DH         LINE#         268
  -------         ENDPROC       API_TWI_CLEARTXCOUNT
  -------         PROC          API_TWI_STATE
  C:14BEH         LINE#         270
  C:14BEH         LINE#         271
  C:14BEH         LINE#         272
  C:14C3H         LINE#         273
  C:14C3H         LINE#         274
  C:14C8H         LINE#         275
  C:14CBH         LINE#         276
  C:14CEH         LINE#         277
  C:14D2H         LINE#         278
  C:14D2H         LINE#         279
  -------         ENDPROC       API_TWI_STATE
  -------         ENDMOD        API_TWI

  -------         MODULE        API_LED
  C:0000H         SYMBOL        _ICE_DUMMY_
  C:1660H         PUBLIC        Api_Led_GetLedData
  C:1661H         PUBLIC        Api_Led_Contril
  -------         PROC          API_LED_GETLEDDATA
  C:1660H         LINE#         3
  C:1660H         LINE#         4
  C:1660H         LINE#         6
  -------         ENDPROC       API_LED_GETLEDDATA
  -------         PROC          API_LED_CONTRIL
  C:1661H         LINE#         8
  C:1661H         LINE#         9
  C:1661H         LINE#         11
  -------         ENDPROC       API_LED_CONTRIL
  -------         ENDMOD        API_LED

  -------         MODULE        IO_INIT
  C:0000H         SYMBOL        _ICE_DUMMY_
  D:0080H         PUBLIC        P0
  D:0090H         PUBLIC        P1
  D:00A0H         PUBLIC        P2
  D:00A8H         PUBLIC        IE
  C:1479H         PUBLIC        IO_Init
BL51 BANKED LINKER/LOCATER V6.22.4.0                                                  04/03/2024  13:42:15  PAGE 20


  D:009BH         PUBLIC        P0PH
  D:00B8H         PUBLIC        IP
  D:0092H         PUBLIC        P1PH
  D:00A2H         PUBLIC        P2PH
  D:0088H         PUBLIC        TCON
  D:009AH         PUBLIC        P0CON
  D:0091H         PUBLIC        P1CON
  D:00A1H         PUBLIC        P2CON
  D:00C8H         PUBLIC        T2CON
  D:00D0H         PUBLIC        PSW
  -------         PROC          IO_INIT
  C:1479H         LINE#         9
  C:1479H         LINE#         10
  C:1479H         LINE#         12
  C:147CH         LINE#         13
  C:147FH         LINE#         14
  C:1482H         LINE#         15
  C:1485H         LINE#         16
  C:1488H         LINE#         17
  C:148BH         LINE#         50
  C:148EH         LINE#         51
  C:1491H         LINE#         53
  -------         ENDPROC       IO_INIT
  -------         ENDMOD        IO_INIT

  -------         MODULE        SSI_INIT
  C:0000H         SYMBOL        _ICE_DUMMY_
  D:0080H         PUBLIC        P0
  D:0090H         PUBLIC        P1
  C:0EF9H         PUBLIC        TWI_Int
  D:00A0H         PUBLIC        P2
  D:008FH         PUBLIC        OTCON
  B:00A8H.7       PUBLIC        EA
  D:00A8H         PUBLIC        IE
  D:00B8H         PUBLIC        IP
  D:0088H         PUBLIC        TCON
  D:009DH         PUBLIC        SSCON0
  D:009EH         PUBLIC        SSCON1
  D:00A9H         PUBLIC        IE1
  D:00C8H         PUBLIC        T2CON
  C:1533H         PUBLIC        TWI_Init
  C:1550H         PUBLIC        _SSI_TWI_AcknowledgeConfig
  B:0020H.2       PUBLIC        TWIFlag
  D:00D0H         PUBLIC        PSW
  -------         PROC          TWI_INIT
  C:1533H         LINE#         22
  C:1533H         LINE#         23
  C:1533H         LINE#         24
  C:1536H         LINE#         25
  C:1539H         LINE#         26
  C:153CH         LINE#         27
  C:153FH         LINE#         28
  C:1541H         LINE#         36
  -------         ENDPROC       TWI_INIT
  -------         PROC          _SSI_TWI_ACKNOWLEDGECONFIG
  D:004FH         SYMBOL        NewState
  C:1550H         LINE#         45
BL51 BANKED LINKER/LOCATER V6.22.4.0                                                  04/03/2024  13:42:15  PAGE 21


  C:1552H         LINE#         46
  C:1552H         LINE#         47
  C:1556H         LINE#         48
  C:1556H         LINE#         49
  C:1559H         LINE#         50
  C:155AH         LINE#         52
  C:155AH         LINE#         53
  C:155DH         LINE#         54
  C:155DH         LINE#         55
  -------         ENDPROC       _SSI_TWI_ACKNOWLEDGECONFIG
  -------         PROC          TWI_INT
  -------         DO            
  D:0050H         SYMBOL        state
  -------         ENDDO         
  C:0EF9H         LINE#         58
  C:0F16H         LINE#         62
  C:0F19H         LINE#         63
  C:0F1FH         LINE#         67
  C:0F35H         LINE#         68
  C:0F35H         LINE#         69
  C:0F35H         LINE#         72
  C:0F38H         LINE#         73
  C:0F3BH         LINE#         74
  C:0F3DH         LINE#         76
  C:0F3DH         LINE#         78
  C:0F3DH         LINE#         80
  C:0F3DH         LINE#         81
  C:0F40H         LINE#         82
  C:0F42H         LINE#         84
  C:0F42H         LINE#         87
  C:0F45H         LINE#         89
  C:0F48H         LINE#         90
  C:0F4AH         LINE#         92
  C:0F4AH         LINE#         93
  C:0F4DH         LINE#         94
  C:0F4DH         LINE#         96
  C:0F4DH         LINE#         97
  C:0F4DH         LINE#         99
  C:0F4DH         LINE#         107
  -------         ENDPROC       TWI_INT
  -------         ENDMOD        SSI_INIT

  -------         MODULE        TIMER_INIT
  C:0000H         SYMBOL        _ICE_DUMMY_
  D:0080H         PUBLIC        P0
  D:0090H         PUBLIC        P1
  D:00A0H         PUBLIC        P2
  D:008EH         PUBLIC        TMCON
  B:00A8H.7       PUBLIC        EA
  D:00A8H         PUBLIC        IE
  D:00B8H         PUBLIC        IP
  B:0080H.2       PUBLIC        P02
  D:0088H         PUBLIC        TCON
  D:0089H         PUBLIC        TMOD
  B:00A8H.1       PUBLIC        ET0
  D:008CH         PUBLIC        TH0
  D:008AH         PUBLIC        TL0
BL51 BANKED LINKER/LOCATER V6.22.4.0                                                  04/03/2024  13:42:15  PAGE 22


  C:11C1H         PUBLIC        timer0
  B:0088H.4       PUBLIC        TR0
  D:00C8H         PUBLIC        T2CON
  C:14D3H         PUBLIC        Timer_Init
  D:00D0H         PUBLIC        PSW
  -------         PROC          TIMER_INIT
  C:14D3H         LINE#         10
  C:14D3H         LINE#         11
  C:14D3H         LINE#         12
  C:14D6H         LINE#         15
  C:14D9H         LINE#         16
  C:14DCH         LINE#         17
  C:14DFH         LINE#         18
  C:14E1H         LINE#         19
  C:14E3H         LINE#         20
  C:14E5H         LINE#         22
  C:14E7H         LINE#         23
  -------         ENDPROC       TIMER_INIT
  -------         PROC          TIMER0
  C:11C1H         LINE#         31
  C:11DEH         LINE#         33
  C:11E1H         LINE#         34
  C:11E4H         LINE#         35
  C:11E6H         LINE#         37
  C:11E9H         LINE#         38
  -------         ENDPROC       TIMER0
  -------         ENDMOD        TIMER_INIT

  -------         MODULE        S_TOUCHKEYCFG
  C:0000H         SYMBOL        _ICE_DUMMY_
  I:0056H         PUBLIC        ConfirmTouchCnt
  X:0000H         PUBLIC        BaseLine
  C:108CH         PUBLIC        CFG_OVERLOW_MAX_COUNT
  C:10E9H         PUBLIC        TouchKeyCFGInit
  C:1601H         PUBLIC        _GetBaseLineAdjustValue
  X:000EH         PUBLIC        FloatAreaCnt
  B:00D0H.7       PUBLIC        TK_CY
  C:1280H         PUBLIC        _GetCurrFingerValue
  C:108DH         PUBLIC        CFG_RESET_BASELINE_CNT
  C:164AH         PUBLIC        GetCsFunction
  X:0015H         PUBLIC        CurrentChannel
  X:001CH         PUBLIC        RawData
  C:15CFH         PUBLIC        IsDoubleKeyOrSlideKey
  I:0057H         PUBLIC        TouchCnt
  C:1245H         PUBLIC        CTK_ISR
  I:005EH         PUBLIC        LowFingerDataCnt
  C:0BCAH         PUBLIC        TouchKeyScan
  C:15AEH         PUBLIC        SetOneKeyPushResetTime
  C:14E8H         PUBLIC        _GetScanTimeValue
  C:15EEH         PUBLIC        GetTKYzCnt
  X:002AH         PUBLIC        DifferAccum
  I:0065H         PUBLIC        RestAreaCnt
  C:1388H         PUBLIC        _GetTKYzThreshold
  I:006CH         PUBLIC        BaseLineAdjusttmp
  C:1204H         PUBLIC        CurrentSensorChoose
  C:15C4H         PUBLIC        GetInitAutoUpdateTime
  I:0073H         PUBLIC        MultipleLNum
BL51 BANKED LINKER/LOCATER V6.22.4.0                                                  04/03/2024  13:42:15  PAGE 23


  C:117DH         PUBLIC        _GetCfgMsg
  X:0038H         PUBLIC        SOCAPI_TouchKeyStatus
  C:160AH         PUBLIC        GetUpConfirmCnt
  I:0075H         PUBLIC        UpdateBaseLNum
  X:0039H         PUBLIC        SetNoiseThreshold
  C:15B9H         PUBLIC        GetBaselineUpdateThreshold
  X:003AH         PUBLIC        FilterData
  C:108EH         PUBLIC        CFG_CYCLE_CNT
  I:0077H         PUBLIC        NoTouchCnt
  I:007EH         PUBLIC        MultipleDealTpye
  C:1054H         PUBLIC        TKChannelCfg
  C:1032H         PUBLIC        TKCFG
  D:00D0H         PUBLIC        TK_PSW
  -------         PROC          SETONEKEYPUSHRESETTIME
  C:15AEH         LINE#         110
  C:15AEH         LINE#         111
  C:15AEH         LINE#         112
  C:15B8H         LINE#         113
  -------         ENDPROC       SETONEKEYPUSHRESETTIME
  -------         PROC          GETBASELINEUPDATETHRESHOLD
  C:15B9H         LINE#         121
  C:15B9H         LINE#         122
  C:15B9H         LINE#         123
  C:15C3H         LINE#         124
  -------         ENDPROC       GETBASELINEUPDATETHRESHOLD
  -------         PROC          GETINITAUTOUPDATETIME
  C:15C4H         LINE#         133
  C:15C4H         LINE#         134
  C:15C4H         LINE#         135
  C:15CEH         LINE#         136
  -------         ENDPROC       GETINITAUTOUPDATETIME
  -------         PROC          GETCSFUNCTION
  C:164AH         LINE#         144
  C:164AH         LINE#         145
  C:164AH         LINE#         146
  C:164CH         LINE#         147
  -------         ENDPROC       GETCSFUNCTION
  -------         PROC          _GETCURRFINGERVALUE
  D:0051H         SYMBOL        i
  C:1280H         LINE#         155
  C:1282H         LINE#         156
  C:1282H         LINE#         157
  C:12B3H         LINE#         158
  -------         ENDPROC       _GETCURRFINGERVALUE
  -------         PROC          _GETSCANTIMEVALUE
  D:0052H         SYMBOL        i
  C:14E8H         LINE#         167
  C:14EAH         LINE#         168
  C:14EAH         LINE#         169
  C:14FBH         LINE#         170
  -------         ENDPROC       _GETSCANTIMEVALUE
  -------         PROC          ISDOUBLEKEYORSLIDEKEY
  C:15CFH         LINE#         178
  C:15CFH         LINE#         179
  C:15CFH         LINE#         180
  C:15D9H         LINE#         181
  -------         ENDPROC       ISDOUBLEKEYORSLIDEKEY
BL51 BANKED LINKER/LOCATER V6.22.4.0                                                  04/03/2024  13:42:15  PAGE 24


  -------         PROC          _GETBASELINEADJUSTVALUE
  D:0053H         SYMBOL        i
  C:1601H         LINE#         190
  C:1603H         LINE#         191
  C:1603H         LINE#         192
  C:1609H         LINE#         193
  -------         ENDPROC       _GETBASELINEADJUSTVALUE
  -------         PROC          GETUPCONFIRMCNT
  C:160AH         LINE#         201
  C:160AH         LINE#         202
  C:160AH         LINE#         203
  C:1611H         LINE#         204
  -------         ENDPROC       GETUPCONFIRMCNT
  -------         PROC          GETTKYZCNT
  C:15EEH         LINE#         213
  C:15EEH         LINE#         214
  C:15EEH         LINE#         215
  C:15F7H         LINE#         216
  -------         ENDPROC       GETTKYZCNT
  -------         PROC          _GETTKYZTHRESHOLD
  D:0048H         SYMBOL        i
  -------         DO            
  D:0049H         SYMBOL        SetFingerThresholdtmp
  -------         ENDDO         
  C:1388H         LINE#         225
  C:138AH         LINE#         226
  C:138AH         LINE#         229
  C:1391H         LINE#         230
  C:13A8H         LINE#         232
  C:13A8H         LINE#         233
  -------         ENDPROC       _GETTKYZTHRESHOLD
  -------         PROC          CURRENTSENSORCHOOSE
  -------         DO            
  D:0044H         SYMBOL        i
  D:0045H         SYMBOL        Ctk_Channel_mark
  D:0046H         SYMBOL        CurrentSensorKey
  -------         ENDDO         
  C:1204H         LINE#         241
  C:1204H         LINE#         242
  C:1204H         LINE#         244
  C:1207H         LINE#         247
  C:120DH         LINE#         249
  C:1217H         LINE#         250
  C:1217H         LINE#         251
  C:1222H         LINE#         252
  C:1225H         LINE#         253
  C:1225H         LINE#         254
  C:1234H         LINE#         255
  C:1236H         LINE#         256
  C:123DH         LINE#         257
  C:123DH         LINE#         258
  C:123DH         LINE#         259
  C:1241H         LINE#         260
  C:1244H         LINE#         261
  -------         ENDPROC       CURRENTSENSORCHOOSE
  -------         PROC          _GETCFGMSG
  D:0054H         SYMBOL        i
BL51 BANKED LINKER/LOCATER V6.22.4.0                                                  04/03/2024  13:42:15  PAGE 25


  C:117DH         LINE#         270
  C:117FH         LINE#         271
  C:117FH         LINE#         272
  C:1197H         LINE#         273
  C:1197H         LINE#         274
  C:119EH         LINE#         275
  C:11A5H         LINE#         276
  C:11ACH         LINE#         277
  C:11B3H         LINE#         278
  C:11BEH         LINE#         279
  C:11C0H         LINE#         280
  C:11C0H         LINE#         281
  -------         ENDPROC       _GETCFGMSG
  -------         PROC          TOUCHKEYCFGINIT
  -------         DO            
  D:0055H         SYMBOL        i
  -------         ENDDO         
  C:10E9H         LINE#         290
  C:10E9H         LINE#         291
  C:10E9H         LINE#         293
  C:10F6H         LINE#         294
  C:1104H         LINE#         295
  C:1107H         LINE#         296
  C:1111H         LINE#         297
  C:1111H         LINE#         298
  C:112CH         LINE#         299
  C:1130H         LINE#         300
  C:1137H         LINE#         301
  -------         ENDPROC       TOUCHKEYCFGINIT
  -------         PROC          TOUCHKEYSCAN
  -------         DO            
  D:0035H         SYMBOL        t
  D:0036H         SYMBOL        MultipleCnt
  D:0037H         SYMBOL        Keyvalue
  D:0039H         SYMBOL        KeyData
  -------         ENDDO         
  C:0BCAH         LINE#         313
  C:0BCAH         LINE#         314
  C:0BCAH         LINE#         316
  C:0BCDH         LINE#         318
  C:0BD3H         LINE#         320
  C:0BDBH         LINE#         321
  C:0BDBH         LINE#         322
  C:0BE2H         LINE#         323
  C:0BECH         LINE#         324
  C:0BECH         LINE#         325
  C:0BF7H         LINE#         326
  C:0BFAH         LINE#         327
  C:0BFAH         LINE#         328
  C:0C1EH         LINE#         329
  C:0C20H         LINE#         330
  C:0C20H         LINE#         331
  C:0C24H         LINE#         332
  C:0C2BH         LINE#         333
  C:0C2BH         LINE#         334
  C:0C2DH         LINE#         335
  C:0C33H         LINE#         336
BL51 BANKED LINKER/LOCATER V6.22.4.0                                                  04/03/2024  13:42:15  PAGE 26


  C:0C33H         LINE#         337
  C:0C36H         LINE#         338
  C:0C38H         LINE#         340
  C:0C38H         LINE#         341
  C:0C3EH         LINE#         342
  C:0C3EH         LINE#         343
  C:0C40H         LINE#         344
  C:0C40H         LINE#         345
  C:0C40H         LINE#         346
  C:0C40H         LINE#         348
  C:0C43H         LINE#         349
  C:0C43H         LINE#         350
  C:0C49H         LINE#         351
  C:0C49H         LINE#         352
  C:0C51H         LINE#         353
  C:0C53H         LINE#         355
  C:0C53H         LINE#         356
  C:0C5AH         LINE#         357
  C:0C5AH         LINE#         358
  C:0C5CH         LINE#         360
  C:0C5CH         LINE#         362
  C:0C64H         LINE#         363
  C:0C6AH         LINE#         364
  C:0C6AH         LINE#         366
  C:0C7AH         LINE#         367
  C:0C7AH         LINE#         368
  C:0C7DH         LINE#         369
  C:0C84H         LINE#         370
  C:0C84H         LINE#         372
  C:0C93H         LINE#         373
  C:0C93H         LINE#         374
  C:0C96H         LINE#         375
  C:0C9AH         LINE#         376
  C:0CA1H         LINE#         377
  C:0CA1H         LINE#         378
  C:0CA3H         LINE#         380
  C:0CA3H         LINE#         381
  C:0CB0H         LINE#         382
  C:0CB0H         LINE#         384
  C:0CB4H         LINE#         385
  -------         ENDPROC       TOUCHKEYSCAN
  -------         PROC          CTK_ISR
  C:1245H         LINE#         394
  C:1262H         LINE#         396
  C:1265H         LINE#         397
  -------         ENDPROC       CTK_ISR
  -------         ENDMOD        S_TOUCHKEYCFG

  -------         MODULE        SENSORMETHOD
  C:0000H         SYMBOL        _ICE_DUMMY_
  D:00FFH         PUBLIC        OPREG
  X:0049H         PUBLIC        FlowFingerRoundIndex
  C:0DE2H         PUBLIC        _ICHAAdjust
  D:00CFH         PUBLIC        TK_WDTCR
  B:00A8H.7       PUBLIC        TK_EA
  D:00E4H         PUBLIC        TKCNT
  D:00A8H         PUBLIC        TK_IE
BL51 BANKED LINKER/LOCATER V6.22.4.0                                                  04/03/2024  13:42:15  PAGE 27


  D:00FEH         PUBLIC        OPINX
  C:1138H         PUBLIC        InitializeSensorFlag
  X:004AH         PUBLIC        ScanTime
  C:164DH         PUBLIC        TouchKeyRestart
  D:00E1H         PUBLIC        TKCFG0
  D:00E2H         PUBLIC        TKCFG1
  D:00E3H         PUBLIC        TKCFG2
  C:13E9H         PUBLIC        SensorKeyFlag
  D:003BH         PUBLIC        KeyFlag
  I:007FH         PUBLIC        FlowFingerRoundCnt
  B:0020H.0       PUBLIC        bMultiple
  D:00E8H         PUBLIC        TKCR
  C:130BH         PUBLIC        InitializeBaselines
  B:00E8H.6       PUBLIC        TRIG
  D:003DH         PUBLIC        KeyMark
  C:1653H         PUBLIC        SetNeedUpdateBaseline
  D:00A9H         PUBLIC        TK_IE1
  C:0F68H         PUBLIC        FilterAvergeDeal
  D:00E6H         PUBLIC        TKTM
  X:004CH         PUBLIC        MultipleDealIndex
  C:0100H         PUBLIC        _SensorRenovate
  B:0020H.1       PUBLIC        bNeedUpdate
  C:0D4FH         PUBLIC        TouchKeyInit
  C:090BH         PUBLIC        _MultipleDeal
  D:003FH         PUBLIC        CurrentChannelMax
  C:156BH         PUBLIC        _Usdelay
  C:0A8CH         PUBLIC        _FilterDataDeal
  I:0081H         PUBLIC        CurrentIndex
  C:1335H         PUBLIC        FilterIIRInit
  C:0E72H         PUBLIC        TouchKey_Service
  C:1650H         PUBLIC        GetIsNeedUpdateBaseline
  I:0082H         PUBLIC        IsInNosicValue
  C:135FH         PUBLIC        FilterCommCode
  -------         PROC          _USDELAY
  D:0006H         SYMBOL        delay
  C:156BH         LINE#         125
  C:156BH         LINE#         126
  C:156BH         LINE#         127
  C:156FH         LINE#         128
  C:156FH         LINE#         129
  C:1574H         LINE#         130
  C:1576H         LINE#         131
  -------         ENDPROC       _USDELAY
  -------         PROC          _ICHAADJUST
  D:002BH         SYMBOL        Channel
  -------         DO            
  D:002CH         SYMBOL        icha_set
  -------         ENDDO         
  C:0DE2H         LINE#         139
  C:0DE4H         LINE#         140
  C:0DE4H         LINE#         142
  C:0DE9H         LINE#         143
  C:0E20H         LINE#         144
  C:0E20H         LINE#         145
  C:0E24H         LINE#         146
  C:0E24H         LINE#         147
  C:0E25H         LINE#         148
BL51 BANKED LINKER/LOCATER V6.22.4.0                                                  04/03/2024  13:42:15  PAGE 28


  C:0E25H         LINE#         149
  C:0E25H         LINE#         150
  C:0E27H         LINE#         151
  C:0E5EH         LINE#         152
  C:0E5EH         LINE#         153
  C:0E64H         LINE#         154
  C:0E64H         LINE#         155
  C:0E6FH         LINE#         156
  C:0E71H         LINE#         157
  C:0E71H         LINE#         158
  C:0E71H         LINE#         159
  -------         ENDPROC       _ICHAADJUST
  -------         PROC          TOUCHKEY_SERVICE
  -------         DO            
  B:0020H.3       SYMBOL        Scanflag
  -------         ENDDO         
  C:0E72H         LINE#         167
  C:0E72H         LINE#         168
  C:0E72H         LINE#         169
  C:0E74H         LINE#         171
  C:0E87H         LINE#         172
  C:0E88H         LINE#         174
  C:0E8EH         LINE#         175
  C:0E8EH         LINE#         176
  C:0E90H         LINE#         177
  C:0E97H         LINE#         178
  C:0E99H         LINE#         180
  C:0E99H         LINE#         181
  C:0E9BH         LINE#         182
  C:0E9BH         LINE#         183
  C:0EA6H         LINE#         184
  C:0EBEH         LINE#         185
  C:0ED4H         LINE#         186
  C:0EE2H         LINE#         187
  C:0EF3H         LINE#         189
  C:0EF8H         LINE#         191
  -------         ENDPROC       TOUCHKEY_SERVICE
  -------         PROC          TOUCHKEYINIT
  C:0D4FH         LINE#         200
  C:0D4FH         LINE#         201
  C:0D4FH         LINE#         202
  C:0D52H         LINE#         203
  C:0D55H         LINE#         206
  C:0D57H         LINE#         208
  C:0D59H         LINE#         209
  C:0D5DH         LINE#         210
  C:0D61H         LINE#         212
  C:0D64H         LINE#         213
  C:0D7FH         LINE#         214
  C:0D95H         LINE#         216
  C:0DABH         LINE#         217
  C:0DB3H         LINE#         218
  C:0DB3H         LINE#         219
  C:0DBBH         LINE#         221
  C:0DBBH         LINE#         222
  C:0DC7H         LINE#         223
  C:0DCEH         LINE#         225
BL51 BANKED LINKER/LOCATER V6.22.4.0                                                  04/03/2024  13:42:15  PAGE 29


  C:0DD1H         LINE#         226
  C:0DD4H         LINE#         228
  C:0DDCH         LINE#         229
  C:0DDFH         LINE#         230
  -------         ENDPROC       TOUCHKEYINIT
  -------         PROC          TOUCHKEYRESTART
  C:164DH         LINE#         240
  C:164DH         LINE#         241
  C:164DH         LINE#         242
  C:164FH         LINE#         243
  -------         ENDPROC       TOUCHKEYRESTART
  -------         PROC          FILTERCOMMCODE
  -------         DO            
  D:0005H         SYMBOL        times
  -------         ENDDO         
  C:135FH         LINE#         252
  C:135FH         LINE#         253
  C:135FH         LINE#         254
  C:1361H         LINE#         256
  C:1368H         LINE#         257
  C:136AH         LINE#         259
  C:1372H         LINE#         260
  C:1372H         LINE#         261
  C:1379H         LINE#         262
  C:137CH         LINE#         263
  C:137DH         LINE#         264
  C:1387H         LINE#         265
  C:1387H         LINE#         266
  C:1387H         LINE#         267
  -------         ENDPROC       FILTERCOMMCODE
  -------         PROC          FILTERAVERGEDEAL
  -------         DO            
  D:0021H         SYMBOL        t
  D:0022H         SYMBOL        i
  -------         ENDDO         
  C:0F68H         LINE#         276
  C:0F68H         LINE#         277
  C:0F68H         LINE#         280
  C:0F6FH         LINE#         282
  C:0F6FH         LINE#         283
  C:0F72H         LINE#         284
  C:0F7CH         LINE#         285
  C:0F7CH         LINE#         286
  C:0F9CH         LINE#         287
  C:0FA1H         LINE#         288
  C:0FA5H         LINE#         289
  C:0FACH         LINE#         290
  C:0FAFH         LINE#         292
  C:0FB4H         LINE#         294
  C:0FB4H         LINE#         295
  C:0FB7H         LINE#         296
  C:0FC1H         LINE#         297
  C:0FC1H         LINE#         298
  C:0FC6H         LINE#         299
  C:0FCAH         LINE#         300
  C:0FD1H         LINE#         301
  -------         ENDPROC       FILTERAVERGEDEAL
BL51 BANKED LINKER/LOCATER V6.22.4.0                                                  04/03/2024  13:42:15  PAGE 30


  -------         PROC          INITIALIZEBASELINES
  -------         DO            
  D:0007H         SYMBOL        i
  -------         ENDDO         
  C:130BH         LINE#         310
  C:130BH         LINE#         311
  C:130BH         LINE#         313
  C:1313H         LINE#         314
  C:1313H         LINE#         315
  C:1331H         LINE#         316
  C:1334H         LINE#         317
  -------         ENDPROC       INITIALIZEBASELINES
  -------         PROC          SENSORKEYFLAG
  -------         DO            
  D:0021H         SYMBOL        i
  -------         ENDDO         
  C:13E9H         LINE#         326
  C:13E9H         LINE#         327
  C:13E9H         LINE#         330
  C:13EDH         LINE#         331
  C:13F6H         LINE#         332
  C:13F6H         LINE#         333
  C:13FBH         LINE#         334
  C:1400H         LINE#         335
  C:1404H         LINE#         336
  C:1408H         LINE#         337
  -------         ENDPROC       SENSORKEYFLAG
  -------         PROC          _SENSORRENOVATE
  D:0022H         SYMBOL        i
  -------         DO            
  D:0023H         SYMBOL        differData
  D:0025H         SYMBOL        result
  D:0026H         SYMBOL        j
  D:0027H         SYMBOL        RealConfirmTouchCnt
  D:0028H         SYMBOL        SetFingerThresholdtmp
  D:002AH         SYMBOL        testcount
  -------         ENDDO         
  C:0100H         LINE#         346
  C:0102H         LINE#         347
  C:0102H         LINE#         353
  C:0105H         LINE#         355
  C:012BH         LINE#         358
  C:013FH         LINE#         360
  C:0148H         LINE#         362
  C:0159H         LINE#         363
  C:0159H         LINE#         364
  C:015CH         LINE#         365
  C:015EH         LINE#         367
  C:015EH         LINE#         368
  C:0161H         LINE#         369
  C:0161H         LINE#         372
  C:016AH         LINE#         373
  C:016AH         LINE#         374
  C:0179H         LINE#         375
  C:0179H         LINE#         376
  C:017FH         LINE#         377
  C:017FH         LINE#         379
BL51 BANKED LINKER/LOCATER V6.22.4.0                                                  04/03/2024  13:42:15  PAGE 31


  C:018EH         LINE#         380
  C:018EH         LINE#         381
  C:0193H         LINE#         382
  C:0199H         LINE#         383
  C:0199H         LINE#         384
  C:019CH         LINE#         385
  C:01A5H         LINE#         386
  C:01A5H         LINE#         387
  C:01B4H         LINE#         388
  C:01B6H         LINE#         389
  C:01BAH         LINE#         390
  C:01C5H         LINE#         391
  C:01C5H         LINE#         392
  C:01CBH         LINE#         393
  C:01CBH         LINE#         394
  C:01CBH         LINE#         395
  C:01D9H         LINE#         396
  C:01D9H         LINE#         397
  C:01DCH         LINE#         399
  C:01E2H         LINE#         400
  C:01E2H         LINE#         401
  C:01EBH         LINE#         402
  C:01EBH         LINE#         403
  C:01F1H         LINE#         404
  C:01F1H         LINE#         405
  C:01FEH         LINE#         406
  C:01FEH         LINE#         407
  C:0201H         LINE#         408
  C:0203H         LINE#         409
  C:0203H         LINE#         410
  C:0203H         LINE#         411
  C:0207H         LINE#         412
  C:0211H         LINE#         413
  C:0211H         LINE#         414
  C:0215H         LINE#         415
  C:0215H         LINE#         416
  C:021EH         LINE#         417
  C:021EH         LINE#         418
  C:0224H         LINE#         419
  C:0224H         LINE#         420
  C:0231H         LINE#         421
  C:0231H         LINE#         422
  C:0231H         LINE#         423
  C:0233H         LINE#         424
  C:0233H         LINE#         425
  C:0233H         LINE#         426
  C:0237H         LINE#         427
  C:0237H         LINE#         428
  C:0237H         LINE#         429
  C:0237H         LINE#         431
  C:0237H         LINE#         432
  C:0241H         LINE#         433
  C:0241H         LINE#         434
  C:0243H         LINE#         435
  C:024CH         LINE#         436
  C:024CH         LINE#         437
  C:025BH         LINE#         438
BL51 BANKED LINKER/LOCATER V6.22.4.0                                                  04/03/2024  13:42:15  PAGE 32


  C:025BH         LINE#         439
  C:025DH         LINE#         440
  C:025DH         LINE#         441
  C:0261H         LINE#         442
  C:026CH         LINE#         443
  C:026CH         LINE#         444
  C:026FH         LINE#         445
  C:026FH         LINE#         446
  C:026FH         LINE#         447
  C:026FH         LINE#         449
  C:0275H         LINE#         450
  C:0275H         LINE#         451
  C:0277H         LINE#         452
  C:0277H         LINE#         453
  C:027FH         LINE#         454
  C:027FH         LINE#         455
  C:027FH         LINE#         458
  C:0286H         LINE#         459
  C:028DH         LINE#         460
  C:029CH         LINE#         461
  C:02A9H         LINE#         462
  C:02AAH         LINE#         465
  C:02AAH         LINE#         466
  C:02BEH         LINE#         467
  C:02BEH         LINE#         468
  C:02BEH         LINE#         469
  C:02BEH         LINE#         470
  C:02C4H         LINE#         471
  C:02C4H         LINE#         472
  C:02C6H         LINE#         474
  C:02C6H         LINE#         475
  C:02C9H         LINE#         476
  C:02D0H         LINE#         477
  C:02D0H         LINE#         479
  C:0304H         LINE#         480
  C:0304H         LINE#         481
  C:030BH         LINE#         482
  C:0318H         LINE#         483
  C:0321H         LINE#         484
  C:0321H         LINE#         485
  C:0334H         LINE#         486
  C:0352H         LINE#         487
  C:0352H         LINE#         488
  C:0361H         LINE#         489
  C:0361H         LINE#         490
  C:0363H         LINE#         491
  C:038BH         LINE#         492
  C:038BH         LINE#         493
  C:039DH         LINE#         494
  C:03ACH         LINE#         495
  C:03ACH         LINE#         496
  C:03ACH         LINE#         497
  C:03AFH         LINE#         498
  C:03D1H         LINE#         499
  C:03D1H         LINE#         500
  C:03D7H         LINE#         501
  C:03E4H         LINE#         502
BL51 BANKED LINKER/LOCATER V6.22.4.0                                                  04/03/2024  13:42:15  PAGE 33


  C:03F9H         LINE#         503
  C:03F9H         LINE#         505
  C:0410H         LINE#         506
  C:0410H         LINE#         507
  C:0417H         LINE#         508
  C:0419H         LINE#         509
  C:041DH         LINE#         510
  C:041FH         LINE#         512
  C:041FH         LINE#         513
  C:044DH         LINE#         514
  C:044DH         LINE#         515
  C:044DH         LINE#         516
  C:0455H         LINE#         517
  C:0455H         LINE#         518
  C:0458H         LINE#         519
  C:0458H         LINE#         520
  C:045AH         LINE#         521
  C:0473H         LINE#         522
  C:0473H         LINE#         523
  C:047AH         LINE#         524
  C:0480H         LINE#         525
  C:0480H         LINE#         526
  C:048EH         LINE#         527
  C:049EH         LINE#         528
  C:049EH         LINE#         529
  C:04ABH         LINE#         530
  C:04C8H         LINE#         531
  C:04C8H         LINE#         532
  C:04C8H         LINE#         533
  C:04C8H         LINE#         536
  C:04D7H         LINE#         537
  C:04D7H         LINE#         538
  C:04FEH         LINE#         539
  C:04FEH         LINE#         540
  C:0504H         LINE#         541
  C:0509H         LINE#         542
  C:0513H         LINE#         543
  C:0513H         LINE#         544
  C:0522H         LINE#         545
  C:0524H         LINE#         546
  C:0528H         LINE#         547
  C:0533H         LINE#         548
  C:0533H         LINE#         549
  C:0538H         LINE#         550
  C:0538H         LINE#         551
  C:0543H         LINE#         552
  C:0543H         LINE#         553
  C:0545H         LINE#         554
  C:0553H         LINE#         555
  C:055AH         LINE#         556
  C:055AH         LINE#         557
  C:055BH         LINE#         559
  C:055BH         LINE#         560
  C:0561H         LINE#         561
  C:0561H         LINE#         562
  C:0562H         LINE#         564
  C:0562H         LINE#         565
BL51 BANKED LINKER/LOCATER V6.22.4.0                                                  04/03/2024  13:42:15  PAGE 34


  C:0569H         LINE#         567
  C:056FH         LINE#         568
  C:056FH         LINE#         569
  C:0574H         LINE#         570
  C:0574H         LINE#         572
  C:057BH         LINE#         573
  C:057BH         LINE#         575
  C:057BH         LINE#         577
  C:0583H         LINE#         578
  C:0583H         LINE#         580
  C:0583H         LINE#         582
  C:058DH         LINE#         583
  C:058DH         LINE#         584
  C:0595H         LINE#         585
  C:0595H         LINE#         586
  C:0598H         LINE#         587
  C:0598H         LINE#         588
  C:059CH         LINE#         589
  C:05A0H         LINE#         590
  C:05A0H         LINE#         591
  C:05A2H         LINE#         592
  C:05A2H         LINE#         593
  C:05A2H         LINE#         595
  C:05A2H         LINE#         596
  -------         ENDPROC       _SENSORRENOVATE
  -------         PROC          FILTERIIRINIT
  -------         DO            
  D:0007H         SYMBOL        i
  -------         ENDDO         
  C:1335H         LINE#         604
  C:1335H         LINE#         605
  C:1335H         LINE#         607
  C:133DH         LINE#         608
  C:133DH         LINE#         609
  C:135BH         LINE#         610
  C:135EH         LINE#         611
  -------         ENDPROC       FILTERIIRINIT
  -------         PROC          _FILTERDATADEAL
  D:0023H         SYMBOL        i
  -------         DO            
  D:0024H         SYMBOL        FilterTemp
  D:0004H         SYMBOL        SetFingerThresholdtmp
  -------         ENDDO         
  C:0A8CH         LINE#         620
  C:0A8EH         LINE#         621
  C:0A8EH         LINE#         625
  C:0AB4H         LINE#         627
  C:0ABDH         LINE#         629
  C:0AE2H         LINE#         630
  C:0AE2H         LINE#         631
  C:0AF2H         LINE#         632
  C:0AF5H         LINE#         633
  C:0B22H         LINE#         634
  C:0B22H         LINE#         635
  C:0B57H         LINE#         636
  C:0B59H         LINE#         638
  C:0B59H         LINE#         639
BL51 BANKED LINKER/LOCATER V6.22.4.0                                                  04/03/2024  13:42:15  PAGE 35


  C:0BA9H         LINE#         640
  C:0BA9H         LINE#         642
  C:0BC9H         LINE#         643
  -------         ENDPROC       _FILTERDATADEAL
  -------         PROC          GETISNEEDUPDATEBASELINE
  C:1650H         LINE#         652
  C:1650H         LINE#         653
  C:1650H         LINE#         654
  C:1652H         LINE#         655
  -------         ENDPROC       GETISNEEDUPDATEBASELINE
  -------         PROC          SETNEEDUPDATEBASELINE
  C:1653H         LINE#         664
  C:1653H         LINE#         665
  C:1653H         LINE#         666
  C:1655H         LINE#         667
  -------         ENDPROC       SETNEEDUPDATEBASELINE
  -------         PROC          INITIALIZESENSORFLAG
  -------         DO            
  D:0007H         SYMBOL        i
  -------         ENDDO         
  C:1138H         LINE#         676
  C:1138H         LINE#         677
  C:1138H         LINE#         679
  C:1140H         LINE#         680
  C:1140H         LINE#         681
  C:1146H         LINE#         682
  C:114CH         LINE#         683
  C:1152H         LINE#         684
  C:1160H         LINE#         685
  C:1166H         LINE#         686
  C:1169H         LINE#         688
  C:116EH         LINE#         689
  C:1174H         LINE#         690
  C:117AH         LINE#         691
  C:117CH         LINE#         692
  -------         ENDPROC       INITIALIZESENSORFLAG
  -------         PROC          _MULTIPLEDEAL
  D:0021H         SYMBOL        CycleCnt
  -------         DO            
  X:0048H         SYMBOL        InitSensorCnt
  D:0004H         SYMBOL        FilterTemp
  D:0022H         SYMBOL        t
  -------         ENDDO         
  C:090BH         LINE#         701
  C:090DH         LINE#         702
  C:090DH         LINE#         708
  C:091AH         LINE#         709
  C:091AH         LINE#         710
  C:091CH         LINE#         711
  C:0921H         LINE#         712
  C:0921H         LINE#         713
  C:092AH         LINE#         714
  C:092AH         LINE#         715
  C:094AH         LINE#         716
  C:094EH         LINE#         717
  C:094EH         LINE#         718
  C:0951H         LINE#         719
BL51 BANKED LINKER/LOCATER V6.22.4.0                                                  04/03/2024  13:42:15  PAGE 36


  C:0953H         LINE#         720
  C:0958H         LINE#         722
  C:0958H         LINE#         724
  C:095EH         LINE#         725
  C:0962H         LINE#         726
  C:0962H         LINE#         727
  C:0965H         LINE#         728
  C:096AH         LINE#         729
  C:096AH         LINE#         731
  C:0976H         LINE#         732
  C:0976H         LINE#         733
  C:0983H         LINE#         734
  C:0983H         LINE#         735
  C:09AAH         LINE#         736
  C:09AFH         LINE#         737
  C:09AFH         LINE#         738
  C:09EFH         LINE#         739
  C:09F1H         LINE#         740
  C:09F1H         LINE#         742
  C:09F1H         LINE#         743
  C:0A31H         LINE#         744
  C:0A31H         LINE#         745
  C:0A31H         LINE#         746
  C:0A36H         LINE#         747
  C:0A3BH         LINE#         749
  C:0A40H         LINE#         750
  C:0A40H         LINE#         751
  C:0A46H         LINE#         752
  C:0A46H         LINE#         754
  C:0A5DH         LINE#         755
  C:0A5DH         LINE#         756
  C:0A5FH         LINE#         757
  C:0A61H         LINE#         758
  C:0A67H         LINE#         759
  C:0A7EH         LINE#         760
  C:0A7EH         LINE#         761
  C:0A83H         LINE#         762
  C:0A86H         LINE#         763
  C:0A89H         LINE#         764
  C:0A8BH         LINE#         765
  C:0A8BH         LINE#         766
  C:0A8BH         LINE#         767
  C:0A8BH         LINE#         768
  -------         ENDPROC       _MULTIPLEDEAL
  -------         ENDMOD        SENSORMETHOD

  -------         MODULE        ?C_STARTUP
  C:0CB5H         SEGMENT       ?C_C51STARTUP
  I:0083H         SEGMENT       ?STACK
  C:0000H         PUBLIC        ?C_STARTUP
  D:00E0H         SYMBOL        ACC
  D:00F0H         SYMBOL        B
  D:0083H         SYMBOL        DPH
  D:0082H         SYMBOL        DPL
  N:0000H         SYMBOL        IBPSTACK
  N:0100H         SYMBOL        IBPSTACKTOP
  N:0100H         SYMBOL        IDATALEN
BL51 BANKED LINKER/LOCATER V6.22.4.0                                                  04/03/2024  13:42:15  PAGE 37


  C:0CB8H         SYMBOL        IDATALOOP
  N:0000H         SYMBOL        PBPSTACK
  N:0100H         SYMBOL        PBPSTACKTOP
  N:0000H         SYMBOL        PDATALEN
  N:0000H         SYMBOL        PDATASTART
  N:0000H         SYMBOL        PPAGE
  N:0000H         SYMBOL        PPAGEENABLE
  D:00A0H         SYMBOL        PPAGE_SFR
  D:0081H         SYMBOL        SP
  C:0CB5H         SYMBOL        STARTUP1
  N:0000H         SYMBOL        XBPSTACK
  N:0000H         SYMBOL        XBPSTACKTOP
  N:0300H         SYMBOL        XDATALEN
  C:0CC3H         SYMBOL        XDATALOOP
  N:0000H         SYMBOL        XDATASTART
  C:0000H         LINE#         126
  C:0CB5H         LINE#         133
  C:0CB7H         LINE#         134
  C:0CB8H         LINE#         135
  C:0CB9H         LINE#         136
  C:0CBBH         LINE#         140
  C:0CBEH         LINE#         141
  C:0CC0H         LINE#         145
  C:0CC2H         LINE#         147
  C:0CC3H         LINE#         148
  C:0CC4H         LINE#         149
  C:0CC5H         LINE#         150
  C:0CC7H         LINE#         151
  C:0CC9H         LINE#         185
  C:0CCCH         LINE#         196
  -------         ENDMOD        ?C_STARTUP

  -------         MODULE        ?C?FPCMP
  C:0786H         PUBLIC        ?C?FPCMP
  C:0784H         PUBLIC        ?C?FPCMP3
  -------         ENDMOD        ?C?FPCMP

  -------         MODULE        ?C?FCAST
  C:0807H         PUBLIC        ?C?FCASTC
  C:0802H         PUBLIC        ?C?FCASTI
  C:07FDH         PUBLIC        ?C?FCASTL
  -------         ENDMOD        ?C?FCAST

  -------         MODULE        ?C?IMUL
  C:083BH         PUBLIC        ?C?IMUL
  -------         ENDMOD        ?C?IMUL

  -------         MODULE        ?C?UIDIV
  C:084DH         PUBLIC        ?C?UIDIV
  -------         ENDMOD        ?C?UIDIV

  -------         MODULE        ?C?IILDX
  C:08A2H         PUBLIC        ?C?IILDX
  -------         ENDMOD        ?C?IILDX

  -------         MODULE        ?C?LNEG
  C:08B8H         PUBLIC        ?C?LNEG
BL51 BANKED LINKER/LOCATER V6.22.4.0                                                  04/03/2024  13:42:15  PAGE 38


  -------         ENDMOD        ?C?LNEG

  -------         MODULE        ?C?ULSHR
  C:08C6H         PUBLIC        ?C?ULSHR
  -------         ENDMOD        ?C?ULSHR

  -------         MODULE        ?C?OFFXADD
  C:08D9H         PUBLIC        ?C?OFFXADD
  -------         ENDMOD        ?C?OFFXADD

  -------         MODULE        ?C?CCASE
  C:08E5H         PUBLIC        ?C?CCASE
  -------         ENDMOD        ?C?CCASE

Program Size: data=131.4 xdata=77 code=5486
LINK/LOCATE RUN COMPLETE.  0 WARNING(S),  0 ERROR(S)
