C51 COMPILER V9.55   APP                                                                   01/12/2024 15:58:36 PAGE 1   


C51 COMPILER V9.55, COMPILATION OF MODULE APP
OBJECT MODULE PLACED IN .\Objects\App.obj
COMPILER INVOKED BY: D:\Keil_v5\C51\BIN\C51.EXE user\APP\c\App.c OPTIMIZE(8,SPEED) BROWSE INCDIR(.\user\API\h;.\user\APP
                    -\h;.\user) DEBUG OBJECTEXTEND PRINT(.\Listings\App.lst) OBJECT(.\Objects\App.obj)

line level    source

   1          #include "App.h"
   2          #include "Global.h"
   3          
   4          void App_Init()
   5          {
   6   1          Api_Tick_Init();
   7   1          
   8   1          App_Sys_Init();
   9   1              
  10   1              App_Sys_ClearPowerOnCount();
  11   1      }
  12          
  13          //注意，这种调用方式，最大可能产生一个cycle的时间偏差：
  14          //例如，假设一个App_Test，其cycle是按1s调用的
  15          //若刚调用完App_Test，其他app就产生了一个需要由App_Test处理的event
  16          //则该event会保持1s，待下次调用App_Test时才被处理
  17          void App_Cycle()
  18          {
  19   1          if(Api_Tick_PopFlag_10ms())
  20   1          {
  21   2              App_Sys_Cycle();        //系统状态机逻辑处理
  22   2          }
  23   1          
  24   1          if(Api_Tick_PopFlag_50ms())
  25   1          {
  26   2      
  27   2          }
  28   1      
  29   1          if(Api_Tick_PopFlag_100ms())
  30   1          {
  31   2      
  32   2          }
  33   1          
  34   1          if(Api_Tick_PopFlag_500ms())
  35   1          {
  36   2              
  37   2          }
  38   1          
  39   1          if(Api_Tick_PopFlag_1000ms())
  40   1          {
  41   2                      
  42   2          }
  43   1      }


MODULE INFORMATION:   STATIC OVERLAYABLE
   CODE SIZE        =     31    ----
   CONSTANT SIZE    =   ----    ----
   XDATA SIZE       =   ----    ----
   PDATA SIZE       =   ----    ----
   DATA SIZE        =   ----    ----
   IDATA SIZE       =   ----    ----
   BIT SIZE         =   ----    ----
END OF MODULE INFORMATION.

C51 COMPILER V9.55   APP                                                                   01/12/2024 15:58:36 PAGE 2   


C51 COMPILATION COMPLETE.  0 WARNING(S),  0 ERROR(S)
