C51 COMPILER V9.55   APP_SYS                                                               01/12/2024 15:58:36 PAGE 1   


C51 COMPILER V9.55, COMPILATION OF MODULE APP_SYS
OBJECT MODULE PLACED IN .\Objects\App_Sys.obj
COMPILER INVOKED BY: D:\Keil_v5\C51\BIN\C51.EXE user\APP\c\App_Sys.c OPTIMIZE(8,SPEED) BROWSE INCDIR(.\user\API\h;.\user
                    -\APP\h;.\user) DEBUG OBJECTEXTEND PRINT(.\Listings\App_Sys.lst) OBJECT(.\Objects\App_Sys.obj)

line level    source

   1          #include "App.h"
   2          
   3          void App_Sys_Init()
   4          {
   5   1              Api_SysBase_Init();
   6   1      }
   7          
   8          /**************************************************
   9          *函数名称：void App_Sys_Cycle(void) 
  10          *函数功能：系统状态机
  11          *入口参数：sysCB.state
  12          *出口参数：
  13          *运行时基：10ms
  14          **************************************************/
  15          void App_Sys_Cycle(void)
  16          {
  17   1              switch(Api_SysBase_GetState())
  18   1              {       
  19   2                      case SYS_STATE_POWERON:
  20   2                              App_Sys_PowerOn_Cycle();
  21   2                      break;
  22   2                      
  23   2                      case SYS_STATE_TURNOFF:
  24   2                  
  25   2                      break;
  26   2                      
  27   2                      case SYS_STATE_TURNON:
  28   2                              App_Sys_TurnOn_Cycle();
  29   2                      break;
  30   2                      
  31   2                      case SYS_STATE_ERR:
  32   2                              
  33   2                      break;
  34   2                      
  35   2                      case SYS_STATE_DISPCHECK:
  36   2                              
  37   2                      break;
  38   2                      
  39   2                      case SYS_STATE_PWRCHECK:
  40   2                              
  41   2                      break;
  42   2                      
  43   2                      case SYS_STATE_SHOW:
  44   2                              
  45   2                      break;
  46   2                      
  47   2                      case SYS_STATE_FCT:
  48   2                              
  49   2                      break;
  50   2                      
  51   2                      default:
  52   2                              break;
  53   2              }
  54   1      }
C51 COMPILER V9.55   APP_SYS                                                               01/12/2024 15:58:36 PAGE 2   



MODULE INFORMATION:   STATIC OVERLAYABLE
   CODE SIZE        =     22    ----
   CONSTANT SIZE    =   ----    ----
   XDATA SIZE       =   ----    ----
   PDATA SIZE       =   ----    ----
   DATA SIZE        =   ----    ----
   IDATA SIZE       =   ----    ----
   BIT SIZE         =   ----    ----
END OF MODULE INFORMATION.


C51 COMPILATION COMPLETE.  0 WARNING(S),  0 ERROR(S)
