BL51 BANKED LINKER/LOCATER V6.22                                                        01/03/2024  12:43:23  PAGE 1


BL51 BANKED LINKER/LOCATER V6.22, INVOKED BY:
D:\KEIL_V5\C51\BIN\BL51.EXE .\Objects\main.obj, .\Objects\STARTUP.obj, .\Objects\S_TouchKeyCFG.obj, .\lib\SC92F8X7X_High
>> Sensitive_Lib_T1_S_V1.3.0.LIB, .\Objects\IO_Init.obj, .\Objects\SSI_Init.obj, .\Objects\Timer_Init.obj TO .\Objects\F
>> ullResources PRINT (.\Listings\FullResources.m51) RAMSIZE (256) DISABLEWARNING (16) CODE (0X100)


MEMORY MODEL: SMALL


INPUT MODULES INCLUDED:
  .\Objects\main.obj (MAIN)
  .\Objects\STARTUP.obj (?C_STARTUP)
  .\Objects\S_TouchKeyCFG.obj (S_TOUCHKEYCFG)
  .\lib\SC92F8X7X_HighSensitive_Lib_T1_S_V1.3.0.LIB (SENSORMETHOD)
  .\Objects\IO_Init.obj (IO_INIT)
  .\Objects\SSI_Init.obj (SSI_INIT)
  .\Objects\Timer_Init.obj (TIMER_INIT)
  D:\KEIL_V5\C51\LIB\C51S.LIB (?C_INIT)
  D:\KEIL_V5\C51\LIB\C51S.LIB (?C?IMUL)
  D:\KEIL_V5\C51\LIB\C51S.LIB (?C?UIDIV)
  D:\KEIL_V5\C51\LIB\C51S.LIB (?C?IILDX)
  D:\KEIL_V5\C51\LIB\C51S.LIB (?C?OFFXADD)


LINK MAP OF MODULE:  .\Objects\FullResources (MAIN)


            TYPE    BASE      LENGTH    RELOCATION   SEGMENT NAME
            -----------------------------------------------------

            * * * * * * *   D A T A   M E M O R Y   * * * * * * *
            REG     0000H     0008H     ABSOLUTE     "REG BANK 0"
            DATA    0008H     0009H     UNIT         ?DT?_SENSORRENOVATE?SENSORMETHOD
            DATA    0011H     0005H     UNIT         ?DT?SENSORMETHOD
            DATA    0016H     0005H     UNIT         _DATA_GROUP_
            DATA    001BH     0004H     UNIT         ?DT?MAIN
            DATA    001FH     0001H     UNIT         ?DT?SENSORKEYFLAG?SENSORMETHOD
            BIT     0020H.0   0000H.2   UNIT         ?BI?SENSORMETHOD
            BIT     0020H.2   0000H.1   UNIT         ?BI?SSI_INIT
            BIT     0020H.3   0000H.1   UNIT         _BIT_GROUP_
                    0020H.4   0000H.4                *** GAP ***
            DATA    0021H     0003H     UNIT         ?DT?TOUCHKEYSCAN?S_TOUCHKEYCFG
            DATA    0024H     0002H     UNIT         ?DT?_MULTIPLEDEAL?SENSORMETHOD
            IDATA   0026H     001AH     UNIT         ?ID?S_TOUCHKEYCFG
            IDATA   0040H     0004H     UNIT         ?ID?SENSORMETHOD
            IDATA   0044H     0001H     UNIT         ?STACK

            * * * * * * *  X D A T A   M E M O R Y  * * * * * * *
            XDATA   0000H     002AH     UNIT         ?XD?S_TOUCHKEYCFG
            XDATA   002AH     0005H     UNIT         ?XD?SENSORMETHOD

            * * * * * * *   C O D E   M E M O R Y   * * * * * * *
            CODE    0000H     0003H     ABSOLUTE     
                    0003H     0008H                  *** GAP ***
            CODE    000BH     0003H     ABSOLUTE     
                    000EH     002DH                  *** GAP ***
            CODE    003BH     0003H     ABSOLUTE     
                    003EH     001DH                  *** GAP ***
BL51 BANKED LINKER/LOCATER V6.22                                                      01/03/2024  12:43:23  PAGE 2


            CODE    005BH     0003H     ABSOLUTE     
                    005EH     00A2H                  *** GAP ***
            CODE    0100H     04A3H     UNIT         ?PR?_SENSORRENOVATE?SENSORMETHOD
            CODE    05A3H     0181H     UNIT         ?PR?_MULTIPLEDEAL?SENSORMETHOD
            CODE    0724H     013EH     UNIT         ?PR?_FILTERDATADEAL?SENSORMETHOD
            CODE    0862H     00D3H     UNIT         ?PR?TOUCHKEYSCAN?S_TOUCHKEYCFG
            CODE    0935H     009AH     UNIT         ?C_C51STARTUP
            CODE    09CFH     0093H     UNIT         ?PR?TOUCHKEYINIT?SENSORMETHOD
            CODE    0A62H     0090H     UNIT         ?PR?_ICHAADJUST?SENSORMETHOD
            CODE    0AF2H     0089H     UNIT         ?C?LIB_CODE
            CODE    0B7BH     0087H     UNIT         ?PR?TOUCHKEY_SERVICE?SENSORMETHOD
            CODE    0C02H     006AH     UNIT         ?PR?FILTERAVERGEDEAL?SENSORMETHOD
            CODE    0C6CH     0045H     UNIT         ?CO?S_TOUCHKEYCFG
            CODE    0CB1H     0045H     UNIT         ?PR?INITIALIZESENSORFLAG?SENSORMETHOD
            CODE    0CF6H     003FH     UNIT         ?PR?TOUCHKEYCFGINIT?S_TOUCHKEYCFG
            CODE    0D35H     003BH     UNIT         ?PR?CTK_ISR?S_TOUCHKEYCFG
            CODE    0D70H     002DH     UNIT         ?PR?_GETCFGMSG?S_TOUCHKEYCFG
            CODE    0D9DH     002CH     UNIT         ?PR?_GETCURRFINGERVALUE?S_TOUCHKEYCFG
            CODE    0DC9H     002AH     UNIT         ?PR?CURRENTSENSORCHOOSE?S_TOUCHKEYCFG
            CODE    0DF3H     002AH     UNIT         ?PR?INITIALIZEBASELINES?SENSORMETHOD
            CODE    0E1DH     002AH     UNIT         ?PR?FILTERIIRINIT?SENSORMETHOD
            CODE    0E47H     0029H     UNIT         ?PR?FILTERCOMMCODE?SENSORMETHOD
            CODE    0E70H     0020H     UNIT         ?PR?SENSORKEYFLAG?SENSORMETHOD
            CODE    0E90H     001BH     UNIT         ?PR?SYS_SCAN?MAIN
            CODE    0EABH     0019H     UNIT         ?PR?MAIN?MAIN
            CODE    0EC4H     0016H     UNIT         ?PR?_GETTKYZTHRESHOLD?S_TOUCHKEYCFG
            CODE    0EDAH     0015H     UNIT         ?PR?TIMER_INIT?TIMER_INIT
            CODE    0EEFH     0012H     UNIT         ?PR?_GETSCANTIMEVALUE?S_TOUCHKEYCFG
            CODE    0F01H     0011H     UNIT         ?PR?IO_INIT?IO_INIT
            CODE    0F12H     0010H     UNIT         ?C_INITSEG
            CODE    0F22H     000FH     UNIT         ?PR?TWI_INIT?SSI_INIT
            CODE    0F31H     000FH     UNIT         ?PR?TWI_INT?SSI_INIT
            CODE    0F40H     000CH     UNIT         ?PR?_USDELAY?SENSORMETHOD
            CODE    0F4CH     000BH     UNIT         ?PR?SETONEKEYPUSHRESETTIME?S_TOUCHKEYCFG
            CODE    0F57H     000BH     UNIT         ?PR?GETBASELINEUPDATETHRESHOLD?S_TOUCHKEYCFG
            CODE    0F62H     0009H     UNIT         ?PR?GETTKYZCNT?S_TOUCHKEYCFG
            CODE    0F6BH     0009H     UNIT         ?PR?TIMER0?TIMER_INIT
            CODE    0F74H     0008H     UNIT         ?PR?GETINITAUTOUPDATETIME?S_TOUCHKEYCFG
            CODE    0F7CH     0008H     UNIT         ?PR?ISDOUBLEKEYORSLIDEKEY?S_TOUCHKEYCFG
            CODE    0F84H     0007H     UNIT         ?PR?_GETBASELINEADJUSTVALUE?S_TOUCHKEYCFG
            CODE    0F8BH     0007H     UNIT         ?PR?GETUPCONFIRMCNT?S_TOUCHKEYCFG
            CODE    0F92H     0003H     UNIT         ?PR?GETCSFUNCTION?S_TOUCHKEYCFG
            CODE    0F95H     0003H     UNIT         ?PR?TOUCHKEYRESTART?SENSORMETHOD
            CODE    0F98H     0003H     UNIT         ?PR?GETISNEEDUPDATEBASELINE?SENSORMETHOD
            CODE    0F9BH     0003H     UNIT         ?PR?SETNEEDUPDATEBASELINE?SENSORMETHOD



OVERLAY MAP OF MODULE:   .\Objects\FullResources (MAIN)


SEGMENT                                             BIT_GROUP          DATA_GROUP 
  +--> CALLED SEGMENT                            START    LENGTH     START    LENGTH
------------------------------------------------------------------------------------
?C_C51STARTUP                                    -----    -----      -----    -----
  +--> ?PR?MAIN?MAIN

BL51 BANKED LINKER/LOCATER V6.22                                                      01/03/2024  12:43:23  PAGE 3


?PR?MAIN?MAIN                                    -----    -----      -----    -----
  +--> ?PR?IO_INIT?IO_INIT
  +--> ?PR?TIMER_INIT?TIMER_INIT
  +--> ?PR?TWI_INIT?SSI_INIT
  +--> ?PR?TOUCHKEYINIT?SENSORMETHOD

?PR?TOUCHKEYINIT?SENSORMETHOD                    -----    -----      -----    -----
  +--> ?PR?TOUCHKEYCFGINIT?S_TOUCHKEYCFG
  +--> ?PR?_GETCFGMSG?S_TOUCHKEYCFG
  +--> ?PR?_GETSCANTIMEVALUE?S_TOUCHKEYCFG
  +--> ?PR?INITIALIZESENSORFLAG?SENSORMETHOD
  +--> ?PR?FILTERAVERGEDEAL?SENSORMETHOD
  +--> ?PR?INITIALIZEBASELINES?SENSORMETHOD

?PR?TOUCHKEYCFGINIT?S_TOUCHKEYCFG                -----    -----      -----    -----
  +--> ?CO?S_TOUCHKEYCFG
  +--> ?PR?CURRENTSENSORCHOOSE?S_TOUCHKEYCFG

?PR?_GETCFGMSG?S_TOUCHKEYCFG                     -----    -----      -----    -----
  +--> ?CO?S_TOUCHKEYCFG

?PR?_GETSCANTIMEVALUE?S_TOUCHKEYCFG              -----    -----      -----    -----
  +--> ?CO?S_TOUCHKEYCFG

?PR?FILTERAVERGEDEAL?SENSORMETHOD                -----    -----      0016H    0002H
  +--> ?CO?S_TOUCHKEYCFG
  +--> ?PR?FILTERCOMMCODE?SENSORMETHOD
  +--> ?PR?_ICHAADJUST?SENSORMETHOD
  +--> ?PR?FILTERIIRINIT?SENSORMETHOD
  +--> ?PR?GETINITAUTOUPDATETIME?S_TOUCHKEYCFG
  +--> ?PR?_FILTERDATADEAL?SENSORMETHOD

?PR?FILTERCOMMCODE?SENSORMETHOD                  -----    -----      -----    -----
  +--> ?PR?_USDELAY?SENSORMETHOD

?PR?_ICHAADJUST?SENSORMETHOD                     -----    -----      0018H    0002H
  +--> ?PR?_GETBASELINEADJUSTVALUE?S_TOUCHKE...
  +--> ?PR?_GETSCANTIMEVALUE?S_TOUCHKEYCFG

?PR?GETINITAUTOUPDATETIME?S_TOUCHKEYCFG          -----    -----      -----    -----
  +--> ?CO?S_TOUCHKEYCFG

?PR?_FILTERDATADEAL?SENSORMETHOD                 -----    -----      0018H    0003H
  +--> ?PR?_GETCURRFINGERVALUE?S_TOUCHKEYCFG

?PR?_GETCURRFINGERVALUE?S_TOUCHKEYCFG            -----    -----      -----    -----
  +--> ?CO?S_TOUCHKEYCFG

*** NEW ROOT ***************************************************

?PR?CTK_ISR?S_TOUCHKEYCFG                        -----    -----      -----    -----
  +--> ?PR?TOUCHKEY_SERVICE?SENSORMETHOD

?PR?TOUCHKEY_SERVICE?SENSORMETHOD                0020H.3  0000H.1    -----    -----
  +--> ?PR?_GETCFGMSG?S_TOUCHKEYCFG
  +--> ?PR?_GETSCANTIMEVALUE?S_TOUCHKEYCFG
  +--> ?PR?_GETBASELINEADJUSTVALUE?S_TOUCHKE...
BL51 BANKED LINKER/LOCATER V6.22                                                      01/03/2024  12:43:23  PAGE 4





SYMBOL TABLE OF MODULE:  .\Objects\FullResources (MAIN)

  VALUE           TYPE          NAME
  ----------------------------------

  -------         MODULE        MAIN
  C:0000H         SYMBOL        _ICE_DUMMY_
  D:0080H         PUBLIC        P0
  D:0090H         PUBLIC        P1
  D:00A0H         PUBLIC        P2
  D:001BH         PUBLIC        exKeyValueFlag
  D:00A8H         PUBLIC        IE
  D:00B8H         PUBLIC        IP
  C:0EABH         PUBLIC        main
  C:0E90H         PUBLIC        Sys_Scan
  D:0088H         PUBLIC        TCON
  D:00CFH         PUBLIC        WDTCON
  D:00C8H         PUBLIC        T2CON
  D:00D0H         PUBLIC        PSW
  -------         PROC          SYS_SCAN
  C:0E90H         LINE#         13
  C:0E90H         LINE#         14
  C:0E90H         LINE#         15
  C:0E98H         LINE#         16
  C:0E98H         LINE#         17
  C:0E9BH         LINE#         18
  C:0EA7H         LINE#         20
  C:0EAAH         LINE#         21
  C:0EAAH         LINE#         22
  -------         ENDPROC       SYS_SCAN
  -------         PROC          MAIN
  C:0EABH         LINE#         24
  C:0EABH         LINE#         25
  C:0EABH         LINE#         26
  C:0EAEH         LINE#         27
  C:0EB1H         LINE#         28
  C:0EB4H         LINE#         30
  C:0EB7H         LINE#         31
  C:0EBAH         LINE#         32
  C:0EBBH         LINE#         33
  C:0EBCH         LINE#         34
  C:0EBDH         LINE#         35
  C:0EBEH         LINE#         36
  C:0EBFH         LINE#         37
  C:0EC0H         LINE#         38
  C:0EC1H         LINE#         39
  C:0EC2H         LINE#         40
  C:0EC2H         LINE#         41
  C:0EC2H         LINE#         43
  -------         ENDPROC       MAIN
  -------         ENDMOD        MAIN

  -------         MODULE        ?C_STARTUP
  C:0935H         SEGMENT       ?C_C51STARTUP
BL51 BANKED LINKER/LOCATER V6.22                                                      01/03/2024  12:43:23  PAGE 5


  I:0044H         SEGMENT       ?STACK
  C:0000H         PUBLIC        ?C_STARTUP
  D:00E0H         SYMBOL        ACC
  D:00F0H         SYMBOL        B
  D:0083H         SYMBOL        DPH
  D:0082H         SYMBOL        DPL
  N:0000H         SYMBOL        IBPSTACK
  N:0100H         SYMBOL        IBPSTACKTOP
  N:0100H         SYMBOL        IDATALEN
  C:0938H         SYMBOL        IDATALOOP
  N:0000H         SYMBOL        PBPSTACK
  N:0100H         SYMBOL        PBPSTACKTOP
  N:0000H         SYMBOL        PDATALEN
  N:0000H         SYMBOL        PDATASTART
  N:0000H         SYMBOL        PPAGE
  N:0000H         SYMBOL        PPAGEENABLE
  D:00A0H         SYMBOL        PPAGE_SFR
  D:0081H         SYMBOL        SP
  C:0935H         SYMBOL        STARTUP1
  N:0000H         SYMBOL        XBPSTACK
  N:0000H         SYMBOL        XBPSTACKTOP
  N:0300H         SYMBOL        XDATALEN
  C:0943H         SYMBOL        XDATALOOP
  N:0000H         SYMBOL        XDATASTART
  C:0000H         LINE#         126
  C:0935H         LINE#         133
  C:0937H         LINE#         134
  C:0938H         LINE#         135
  C:0939H         LINE#         136
  C:093BH         LINE#         140
  C:093EH         LINE#         141
  C:0940H         LINE#         145
  C:0942H         LINE#         147
  C:0943H         LINE#         148
  C:0944H         LINE#         149
  C:0945H         LINE#         150
  C:0947H         LINE#         151
  C:0949H         LINE#         185
  C:094CH         LINE#         196
  -------         ENDMOD        ?C_STARTUP

  -------         MODULE        S_TOUCHKEYCFG
  C:0000H         SYMBOL        _ICE_DUMMY_
  I:0026H         PUBLIC        ConfirmTouchCnt
  X:0000H         PUBLIC        BaseLine
  C:0CAEH         PUBLIC        CFG_OVERLOW_MAX_COUNT
  C:0CF6H         PUBLIC        TouchKeyCFGInit
  C:0F84H         PUBLIC        _GetBaseLineAdjustValue
  X:0008H         PUBLIC        FloatAreaCnt
  B:00D0H.7       PUBLIC        TK_CY
  C:0D9DH         PUBLIC        _GetCurrFingerValue
  C:0CAFH         PUBLIC        CFG_RESET_BASELINE_CNT
  C:0F92H         PUBLIC        GetCsFunction
  X:000CH         PUBLIC        CurrentChannel
  X:0010H         PUBLIC        RawData
  C:0F7CH         PUBLIC        IsDoubleKeyOrSlideKey
  I:0027H         PUBLIC        TouchCnt
BL51 BANKED LINKER/LOCATER V6.22                                                      01/03/2024  12:43:23  PAGE 6


  C:0D35H         PUBLIC        CTK_ISR
  I:002BH         PUBLIC        LowFingerDataCnt
  C:0862H         PUBLIC        TouchKeyScan
  C:0F4CH         PUBLIC        SetOneKeyPushResetTime
  C:0EEFH         PUBLIC        _GetScanTimeValue
  C:0F62H         PUBLIC        GetTKYzCnt
  X:0018H         PUBLIC        DifferAccum
  I:002FH         PUBLIC        RestAreaCnt
  C:0EC4H         PUBLIC        _GetTKYzThreshold
  I:0033H         PUBLIC        BaseLineAdjusttmp
  C:0DC9H         PUBLIC        CurrentSensorChoose
  C:0F74H         PUBLIC        GetInitAutoUpdateTime
  I:0037H         PUBLIC        MultipleLNum
  C:0D70H         PUBLIC        _GetCfgMsg
  X:0020H         PUBLIC        SOCAPI_TouchKeyStatus
  C:0F8BH         PUBLIC        GetUpConfirmCnt
  I:0039H         PUBLIC        UpdateBaseLNum
  X:0021H         PUBLIC        SetNoiseThreshold
  C:0F57H         PUBLIC        GetBaselineUpdateThreshold
  X:0022H         PUBLIC        FilterData
  C:0CB0H         PUBLIC        CFG_CYCLE_CNT
  I:003BH         PUBLIC        NoTouchCnt
  I:003FH         PUBLIC        MultipleDealTpye
  C:0C8EH         PUBLIC        TKChannelCfg
  C:0C6CH         PUBLIC        TKCFG
  D:00D0H         PUBLIC        TK_PSW
  -------         PROC          SETONEKEYPUSHRESETTIME
  C:0F4CH         LINE#         110
  C:0F4CH         LINE#         111
  C:0F4CH         LINE#         112
  C:0F56H         LINE#         113
  -------         ENDPROC       SETONEKEYPUSHRESETTIME
  -------         PROC          GETBASELINEUPDATETHRESHOLD
  C:0F57H         LINE#         121
  C:0F57H         LINE#         122
  C:0F57H         LINE#         123
  C:0F61H         LINE#         124
  -------         ENDPROC       GETBASELINEUPDATETHRESHOLD
  -------         PROC          GETINITAUTOUPDATETIME
  C:0F74H         LINE#         133
  C:0F74H         LINE#         134
  C:0F74H         LINE#         135
  C:0F7BH         LINE#         136
  -------         ENDPROC       GETINITAUTOUPDATETIME
  -------         PROC          GETCSFUNCTION
  C:0F92H         LINE#         144
  C:0F92H         LINE#         145
  C:0F92H         LINE#         146
  C:0F94H         LINE#         147
  -------         ENDPROC       GETCSFUNCTION
  -------         PROC          _GETCURRFINGERVALUE
  D:0005H         SYMBOL        i
  C:0D9DH         LINE#         155
  C:0D9FH         LINE#         156
  C:0D9FH         LINE#         157
  C:0DC8H         LINE#         158
  -------         ENDPROC       _GETCURRFINGERVALUE
BL51 BANKED LINKER/LOCATER V6.22                                                      01/03/2024  12:43:23  PAGE 7


  -------         PROC          _GETSCANTIMEVALUE
  D:0007H         SYMBOL        i
  C:0EEFH         LINE#         167
  C:0EEFH         LINE#         168
  C:0EEFH         LINE#         169
  C:0F00H         LINE#         170
  -------         ENDPROC       _GETSCANTIMEVALUE
  -------         PROC          ISDOUBLEKEYORSLIDEKEY
  C:0F7CH         LINE#         178
  C:0F7CH         LINE#         179
  C:0F7CH         LINE#         180
  C:0F83H         LINE#         181
  -------         ENDPROC       ISDOUBLEKEYORSLIDEKEY
  -------         PROC          _GETBASELINEADJUSTVALUE
  D:0007H         SYMBOL        i
  C:0F84H         LINE#         190
  C:0F84H         LINE#         191
  C:0F84H         LINE#         192
  C:0F8AH         LINE#         193
  -------         ENDPROC       _GETBASELINEADJUSTVALUE
  -------         PROC          GETUPCONFIRMCNT
  C:0F8BH         LINE#         201
  C:0F8BH         LINE#         202
  C:0F8BH         LINE#         203
  C:0F91H         LINE#         204
  -------         ENDPROC       GETUPCONFIRMCNT
  -------         PROC          GETTKYZCNT
  C:0F62H         LINE#         213
  C:0F62H         LINE#         214
  C:0F62H         LINE#         215
  C:0F6AH         LINE#         216
  -------         ENDPROC       GETTKYZCNT
  -------         PROC          _GETTKYZTHRESHOLD
  D:0007H         SYMBOL        i
  -------         DO            
  D:0006H         SYMBOL        SetFingerThresholdtmp
  -------         ENDDO         
  C:0EC4H         LINE#         225
  C:0EC4H         LINE#         226
  C:0EC4H         LINE#         229
  C:0EC7H         LINE#         230
  C:0ED9H         LINE#         232
  C:0ED9H         LINE#         233
  -------         ENDPROC       _GETTKYZTHRESHOLD
  -------         PROC          CURRENTSENSORCHOOSE
  -------         DO            
  D:0004H         SYMBOL        i
  D:0005H         SYMBOL        Ctk_Channel_mark
  D:0006H         SYMBOL        CurrentSensorKey
  -------         ENDDO         
  C:0DC9H         LINE#         241
  C:0DC9H         LINE#         242
  C:0DC9H         LINE#         244
  C:0DCBH         LINE#         247
  C:0DCEH         LINE#         249
  C:0DCFH         LINE#         250
  C:0DCFH         LINE#         251
BL51 BANKED LINKER/LOCATER V6.22                                                      01/03/2024  12:43:23  PAGE 8


  C:0DD6H         LINE#         252
  C:0DD9H         LINE#         253
  C:0DD9H         LINE#         254
  C:0DE5H         LINE#         255
  C:0DE6H         LINE#         256
  C:0DECH         LINE#         257
  C:0DECH         LINE#         258
  C:0DECH         LINE#         259
  C:0DF0H         LINE#         260
  C:0DF2H         LINE#         261
  -------         ENDPROC       CURRENTSENSORCHOOSE
  -------         PROC          _GETCFGMSG
  D:0007H         SYMBOL        i
  C:0D70H         LINE#         270
  C:0D70H         LINE#         271
  C:0D70H         LINE#         272
  C:0D81H         LINE#         273
  C:0D81H         LINE#         274
  C:0D86H         LINE#         275
  C:0D8BH         LINE#         276
  C:0D8EH         LINE#         277
  C:0D92H         LINE#         278
  C:0D9AH         LINE#         279
  C:0D9CH         LINE#         280
  C:0D9CH         LINE#         281
  -------         ENDPROC       _GETCFGMSG
  -------         PROC          TOUCHKEYCFGINIT
  -------         DO            
  D:0007H         SYMBOL        i
  -------         ENDDO         
  C:0CF6H         LINE#         290
  C:0CF6H         LINE#         291
  C:0CF6H         LINE#         293
  C:0CFFH         LINE#         294
  C:0D09H         LINE#         295
  C:0D0CH         LINE#         296
  C:0D14H         LINE#         297
  C:0D14H         LINE#         298
  C:0D2BH         LINE#         299
  C:0D2EH         LINE#         300
  C:0D34H         LINE#         301
  -------         ENDPROC       TOUCHKEYCFGINIT
  -------         PROC          TOUCHKEYSCAN
  -------         DO            
  D:0003H         SYMBOL        t
  D:0021H         SYMBOL        MultipleCnt
  D:0004H         SYMBOL        Keyvalue
  D:0022H         SYMBOL        KeyData
  -------         ENDDO         
  C:0862H         LINE#         313
  C:0862H         LINE#         314
  C:0862H         LINE#         316
  C:0865H         LINE#         318
  C:0869H         LINE#         320
  C:0871H         LINE#         321
  C:0871H         LINE#         322
  C:0878H         LINE#         323
BL51 BANKED LINKER/LOCATER V6.22                                                      01/03/2024  12:43:23  PAGE 9


  C:0880H         LINE#         324
  C:0880H         LINE#         325
  C:0887H         LINE#         326
  C:088AH         LINE#         327
  C:088AH         LINE#         328
  C:08ABH         LINE#         329
  C:08ADH         LINE#         330
  C:08ADH         LINE#         331
  C:08B0H         LINE#         332
  C:08B7H         LINE#         333
  C:08B7H         LINE#         334
  C:08B9H         LINE#         335
  C:08BFH         LINE#         336
  C:08BFH         LINE#         337
  C:08C2H         LINE#         338
  C:08C4H         LINE#         340
  C:08C4H         LINE#         341
  C:08CAH         LINE#         342
  C:08CAH         LINE#         343
  C:08CCH         LINE#         344
  C:08CCH         LINE#         345
  C:08CCH         LINE#         346
  C:08CCH         LINE#         348
  C:08CFH         LINE#         349
  C:08CFH         LINE#         350
  C:08D5H         LINE#         351
  C:08D5H         LINE#         352
  C:08DDH         LINE#         353
  C:08DFH         LINE#         355
  C:08DFH         LINE#         356
  C:08E5H         LINE#         357
  C:08E5H         LINE#         358
  C:08E7H         LINE#         360
  C:08E7H         LINE#         362
  C:08EFH         LINE#         363
  C:08F4H         LINE#         364
  C:08F4H         LINE#         366
  C:0901H         LINE#         367
  C:0901H         LINE#         368
  C:0904H         LINE#         369
  C:090AH         LINE#         370
  C:090AH         LINE#         372
  C:0916H         LINE#         373
  C:0916H         LINE#         374
  C:0919H         LINE#         375
  C:091DH         LINE#         376
  C:0923H         LINE#         377
  C:0923H         LINE#         378
  C:0925H         LINE#         380
  C:0925H         LINE#         381
  C:0930H         LINE#         382
  C:0930H         LINE#         384
  C:0934H         LINE#         385
  -------         ENDPROC       TOUCHKEYSCAN
  -------         PROC          CTK_ISR
  C:0D35H         LINE#         394
  C:0D52H         LINE#         396
BL51 BANKED LINKER/LOCATER V6.22                                                      01/03/2024  12:43:23  PAGE 10


  C:0D55H         LINE#         397
  -------         ENDPROC       CTK_ISR
  -------         ENDMOD        S_TOUCHKEYCFG

  -------         MODULE        SENSORMETHOD
  C:0000H         SYMBOL        _ICE_DUMMY_
  D:00FFH         PUBLIC        OPREG
  X:002BH         PUBLIC        FlowFingerRoundIndex
  C:0A62H         PUBLIC        _ICHAAdjust
  D:00CFH         PUBLIC        TK_WDTCR
  B:00A8H.7       PUBLIC        TK_EA
  D:00E4H         PUBLIC        TKCNT
  D:00A8H         PUBLIC        TK_IE
  D:00FEH         PUBLIC        OPINX
  C:0CB1H         PUBLIC        InitializeSensorFlag
  X:002CH         PUBLIC        ScanTime
  C:0F95H         PUBLIC        TouchKeyRestart
  D:00E1H         PUBLIC        TKCFG0
  D:00E2H         PUBLIC        TKCFG1
  D:00E3H         PUBLIC        TKCFG2
  C:0E70H         PUBLIC        SensorKeyFlag
  D:0011H         PUBLIC        KeyFlag
  I:0040H         PUBLIC        FlowFingerRoundCnt
  B:0020H.0       PUBLIC        bMultiple
  D:00E8H         PUBLIC        TKCR
  C:0DF3H         PUBLIC        InitializeBaselines
  B:00E8H.6       PUBLIC        TRIG
  D:0013H         PUBLIC        KeyMark
  C:0F9BH         PUBLIC        SetNeedUpdateBaseline
  D:00A9H         PUBLIC        TK_IE1
  C:0C02H         PUBLIC        FilterAvergeDeal
  D:00E6H         PUBLIC        TKTM
  X:002EH         PUBLIC        MultipleDealIndex
  C:0100H         PUBLIC        _SensorRenovate
  B:0020H.1       PUBLIC        bNeedUpdate
  C:09CFH         PUBLIC        TouchKeyInit
  C:05A3H         PUBLIC        _MultipleDeal
  D:0015H         PUBLIC        CurrentChannelMax
  C:0F40H         PUBLIC        _Usdelay
  C:0724H         PUBLIC        _FilterDataDeal
  I:0042H         PUBLIC        CurrentIndex
  C:0E1DH         PUBLIC        FilterIIRInit
  C:0B7BH         PUBLIC        TouchKey_Service
  C:0F98H         PUBLIC        GetIsNeedUpdateBaseline
  I:0043H         PUBLIC        IsInNosicValue
  C:0E47H         PUBLIC        FilterCommCode
  -------         PROC          _USDELAY
  D:0006H         SYMBOL        delay
  C:0F40H         LINE#         125
  C:0F40H         LINE#         126
  C:0F40H         LINE#         127
  C:0F44H         LINE#         128
  C:0F44H         LINE#         129
  C:0F49H         LINE#         130
  C:0F4BH         LINE#         131
  -------         ENDPROC       _USDELAY
  -------         PROC          _ICHAADJUST
BL51 BANKED LINKER/LOCATER V6.22                                                      01/03/2024  12:43:23  PAGE 11


  D:0018H         SYMBOL        Channel
  -------         DO            
  D:0019H         SYMBOL        icha_set
  -------         ENDDO         
  C:0A62H         LINE#         139
  C:0A64H         LINE#         140
  C:0A64H         LINE#         142
  C:0A69H         LINE#         143
  C:0AA0H         LINE#         144
  C:0AA0H         LINE#         145
  C:0AA4H         LINE#         146
  C:0AA4H         LINE#         147
  C:0AA5H         LINE#         148
  C:0AA5H         LINE#         149
  C:0AA5H         LINE#         150
  C:0AA7H         LINE#         151
  C:0ADEH         LINE#         152
  C:0ADEH         LINE#         153
  C:0AE4H         LINE#         154
  C:0AE4H         LINE#         155
  C:0AEFH         LINE#         156
  C:0AF1H         LINE#         157
  C:0AF1H         LINE#         158
  C:0AF1H         LINE#         159
  -------         ENDPROC       _ICHAADJUST
  -------         PROC          TOUCHKEY_SERVICE
  -------         DO            
  B:0020H.3       SYMBOL        Scanflag
  -------         ENDDO         
  C:0B7BH         LINE#         167
  C:0B7BH         LINE#         168
  C:0B7BH         LINE#         169
  C:0B7DH         LINE#         171
  C:0B90H         LINE#         172
  C:0B91H         LINE#         174
  C:0B97H         LINE#         175
  C:0B97H         LINE#         176
  C:0B99H         LINE#         177
  C:0BA0H         LINE#         178
  C:0BA2H         LINE#         180
  C:0BA2H         LINE#         181
  C:0BA4H         LINE#         182
  C:0BA4H         LINE#         183
  C:0BAFH         LINE#         184
  C:0BC7H         LINE#         185
  C:0BDDH         LINE#         186
  C:0BEBH         LINE#         187
  C:0BFCH         LINE#         189
  C:0C01H         LINE#         191
  -------         ENDPROC       TOUCHKEY_SERVICE
  -------         PROC          TOUCHKEYINIT
  C:09CFH         LINE#         200
  C:09CFH         LINE#         201
  C:09CFH         LINE#         202
  C:09D2H         LINE#         203
  C:09D5H         LINE#         206
  C:09D7H         LINE#         208
BL51 BANKED LINKER/LOCATER V6.22                                                      01/03/2024  12:43:23  PAGE 12


  C:09D9H         LINE#         209
  C:09DDH         LINE#         210
  C:09E1H         LINE#         212
  C:09E4H         LINE#         213
  C:09FFH         LINE#         214
  C:0A15H         LINE#         216
  C:0A2BH         LINE#         217
  C:0A33H         LINE#         218
  C:0A33H         LINE#         219
  C:0A3BH         LINE#         221
  C:0A3BH         LINE#         222
  C:0A47H         LINE#         223
  C:0A4EH         LINE#         225
  C:0A51H         LINE#         226
  C:0A54H         LINE#         228
  C:0A5CH         LINE#         229
  C:0A5FH         LINE#         230
  -------         ENDPROC       TOUCHKEYINIT
  -------         PROC          TOUCHKEYRESTART
  C:0F95H         LINE#         240
  C:0F95H         LINE#         241
  C:0F95H         LINE#         242
  C:0F97H         LINE#         243
  -------         ENDPROC       TOUCHKEYRESTART
  -------         PROC          FILTERCOMMCODE
  -------         DO            
  D:0005H         SYMBOL        times
  -------         ENDDO         
  C:0E47H         LINE#         252
  C:0E47H         LINE#         253
  C:0E47H         LINE#         254
  C:0E49H         LINE#         256
  C:0E50H         LINE#         257
  C:0E52H         LINE#         259
  C:0E5AH         LINE#         260
  C:0E5AH         LINE#         261
  C:0E61H         LINE#         262
  C:0E64H         LINE#         263
  C:0E65H         LINE#         264
  C:0E6FH         LINE#         265
  C:0E6FH         LINE#         266
  C:0E6FH         LINE#         267
  -------         ENDPROC       FILTERCOMMCODE
  -------         PROC          FILTERAVERGEDEAL
  -------         DO            
  D:0016H         SYMBOL        t
  D:0017H         SYMBOL        i
  -------         ENDDO         
  C:0C02H         LINE#         276
  C:0C02H         LINE#         277
  C:0C02H         LINE#         280
  C:0C09H         LINE#         282
  C:0C09H         LINE#         283
  C:0C0CH         LINE#         284
  C:0C16H         LINE#         285
  C:0C16H         LINE#         286
  C:0C36H         LINE#         287
BL51 BANKED LINKER/LOCATER V6.22                                                      01/03/2024  12:43:23  PAGE 13


  C:0C3BH         LINE#         288
  C:0C3FH         LINE#         289
  C:0C46H         LINE#         290
  C:0C49H         LINE#         292
  C:0C4EH         LINE#         294
  C:0C4EH         LINE#         295
  C:0C51H         LINE#         296
  C:0C5BH         LINE#         297
  C:0C5BH         LINE#         298
  C:0C60H         LINE#         299
  C:0C64H         LINE#         300
  C:0C6BH         LINE#         301
  -------         ENDPROC       FILTERAVERGEDEAL
  -------         PROC          INITIALIZEBASELINES
  -------         DO            
  D:0007H         SYMBOL        i
  -------         ENDDO         
  C:0DF3H         LINE#         310
  C:0DF3H         LINE#         311
  C:0DF3H         LINE#         313
  C:0DFBH         LINE#         314
  C:0DFBH         LINE#         315
  C:0E19H         LINE#         316
  C:0E1CH         LINE#         317
  -------         ENDPROC       INITIALIZEBASELINES
  -------         PROC          SENSORKEYFLAG
  -------         DO            
  D:001FH         SYMBOL        i
  -------         ENDDO         
  C:0E70H         LINE#         326
  C:0E70H         LINE#         327
  C:0E70H         LINE#         330
  C:0E74H         LINE#         331
  C:0E7DH         LINE#         332
  C:0E7DH         LINE#         333
  C:0E82H         LINE#         334
  C:0E87H         LINE#         335
  C:0E8BH         LINE#         336
  C:0E8FH         LINE#         337
  -------         ENDPROC       SENSORKEYFLAG
  -------         PROC          _SENSORRENOVATE
  D:0008H         SYMBOL        i
  -------         DO            
  D:0009H         SYMBOL        differData
  D:000BH         SYMBOL        result
  D:000CH         SYMBOL        j
  D:000DH         SYMBOL        RealConfirmTouchCnt
  D:000EH         SYMBOL        SetFingerThresholdtmp
  D:0010H         SYMBOL        testcount
  -------         ENDDO         
  C:0100H         LINE#         346
  C:0102H         LINE#         347
  C:0102H         LINE#         353
  C:0105H         LINE#         355
  C:012BH         LINE#         358
  C:013FH         LINE#         360
  C:0148H         LINE#         362
BL51 BANKED LINKER/LOCATER V6.22                                                      01/03/2024  12:43:23  PAGE 14


  C:0159H         LINE#         363
  C:0159H         LINE#         364
  C:015CH         LINE#         365
  C:015EH         LINE#         367
  C:015EH         LINE#         368
  C:0161H         LINE#         369
  C:0161H         LINE#         372
  C:016AH         LINE#         373
  C:016AH         LINE#         374
  C:0179H         LINE#         375
  C:0179H         LINE#         376
  C:017FH         LINE#         377
  C:017FH         LINE#         379
  C:018EH         LINE#         380
  C:018EH         LINE#         381
  C:0193H         LINE#         382
  C:0199H         LINE#         383
  C:0199H         LINE#         384
  C:019CH         LINE#         385
  C:01A5H         LINE#         386
  C:01A5H         LINE#         387
  C:01B4H         LINE#         388
  C:01B6H         LINE#         389
  C:01BAH         LINE#         390
  C:01C5H         LINE#         391
  C:01C5H         LINE#         392
  C:01CBH         LINE#         393
  C:01CBH         LINE#         394
  C:01CBH         LINE#         395
  C:01D9H         LINE#         396
  C:01D9H         LINE#         397
  C:01DCH         LINE#         399
  C:01E2H         LINE#         400
  C:01E2H         LINE#         401
  C:01EBH         LINE#         402
  C:01EBH         LINE#         403
  C:01F1H         LINE#         404
  C:01F1H         LINE#         405
  C:01FEH         LINE#         406
  C:01FEH         LINE#         407
  C:0201H         LINE#         408
  C:0203H         LINE#         409
  C:0203H         LINE#         410
  C:0203H         LINE#         411
  C:0207H         LINE#         412
  C:0211H         LINE#         413
  C:0211H         LINE#         414
  C:0215H         LINE#         415
  C:0215H         LINE#         416
  C:021EH         LINE#         417
  C:021EH         LINE#         418
  C:0224H         LINE#         419
  C:0224H         LINE#         420
  C:0231H         LINE#         421
  C:0231H         LINE#         422
  C:0231H         LINE#         423
  C:0233H         LINE#         424
BL51 BANKED LINKER/LOCATER V6.22                                                      01/03/2024  12:43:23  PAGE 15


  C:0233H         LINE#         425
  C:0233H         LINE#         426
  C:0237H         LINE#         427
  C:0237H         LINE#         428
  C:0237H         LINE#         429
  C:0237H         LINE#         431
  C:0237H         LINE#         432
  C:0241H         LINE#         433
  C:0241H         LINE#         434
  C:0243H         LINE#         435
  C:024CH         LINE#         436
  C:024CH         LINE#         437
  C:025BH         LINE#         438
  C:025BH         LINE#         439
  C:025DH         LINE#         440
  C:025DH         LINE#         441
  C:0261H         LINE#         442
  C:026CH         LINE#         443
  C:026CH         LINE#         444
  C:026FH         LINE#         445
  C:026FH         LINE#         446
  C:026FH         LINE#         447
  C:026FH         LINE#         449
  C:0275H         LINE#         450
  C:0275H         LINE#         451
  C:0277H         LINE#         452
  C:0277H         LINE#         453
  C:027FH         LINE#         454
  C:027FH         LINE#         455
  C:027FH         LINE#         458
  C:0286H         LINE#         459
  C:028DH         LINE#         460
  C:029CH         LINE#         461
  C:02A9H         LINE#         462
  C:02AAH         LINE#         465
  C:02AAH         LINE#         466
  C:02BEH         LINE#         467
  C:02BEH         LINE#         468
  C:02BEH         LINE#         469
  C:02BEH         LINE#         470
  C:02C4H         LINE#         471
  C:02C4H         LINE#         472
  C:02C6H         LINE#         474
  C:02C6H         LINE#         475
  C:02C9H         LINE#         476
  C:02D0H         LINE#         477
  C:02D0H         LINE#         479
  C:0304H         LINE#         480
  C:0304H         LINE#         481
  C:030BH         LINE#         482
  C:0318H         LINE#         483
  C:0321H         LINE#         484
  C:0321H         LINE#         485
  C:0334H         LINE#         486
  C:0352H         LINE#         487
  C:0352H         LINE#         488
  C:0361H         LINE#         489
BL51 BANKED LINKER/LOCATER V6.22                                                      01/03/2024  12:43:23  PAGE 16


  C:0361H         LINE#         490
  C:0363H         LINE#         491
  C:038BH         LINE#         492
  C:038BH         LINE#         493
  C:039DH         LINE#         494
  C:03ACH         LINE#         495
  C:03ACH         LINE#         496
  C:03ACH         LINE#         497
  C:03AFH         LINE#         498
  C:03D1H         LINE#         499
  C:03D1H         LINE#         500
  C:03D7H         LINE#         501
  C:03E4H         LINE#         502
  C:03F9H         LINE#         503
  C:03F9H         LINE#         505
  C:0410H         LINE#         506
  C:0410H         LINE#         507
  C:0417H         LINE#         508
  C:0419H         LINE#         509
  C:041DH         LINE#         510
  C:041FH         LINE#         512
  C:041FH         LINE#         513
  C:044DH         LINE#         514
  C:044DH         LINE#         515
  C:044DH         LINE#         516
  C:0455H         LINE#         517
  C:0455H         LINE#         518
  C:0458H         LINE#         519
  C:0458H         LINE#         520
  C:045AH         LINE#         521
  C:0473H         LINE#         522
  C:0473H         LINE#         523
  C:047AH         LINE#         524
  C:0480H         LINE#         525
  C:0480H         LINE#         526
  C:048EH         LINE#         527
  C:049EH         LINE#         528
  C:049EH         LINE#         529
  C:04ABH         LINE#         530
  C:04C8H         LINE#         531
  C:04C8H         LINE#         532
  C:04C8H         LINE#         533
  C:04C8H         LINE#         536
  C:04D7H         LINE#         537
  C:04D7H         LINE#         538
  C:04FEH         LINE#         539
  C:04FEH         LINE#         540
  C:0504H         LINE#         541
  C:0509H         LINE#         542
  C:0513H         LINE#         543
  C:0513H         LINE#         544
  C:0522H         LINE#         545
  C:0524H         LINE#         546
  C:0528H         LINE#         547
  C:0533H         LINE#         548
  C:0533H         LINE#         549
  C:0538H         LINE#         550
BL51 BANKED LINKER/LOCATER V6.22                                                      01/03/2024  12:43:23  PAGE 17


  C:0538H         LINE#         551
  C:0543H         LINE#         552
  C:0543H         LINE#         553
  C:0545H         LINE#         554
  C:0553H         LINE#         555
  C:055AH         LINE#         556
  C:055AH         LINE#         557
  C:055BH         LINE#         559
  C:055BH         LINE#         560
  C:0561H         LINE#         561
  C:0561H         LINE#         562
  C:0562H         LINE#         564
  C:0562H         LINE#         565
  C:0569H         LINE#         567
  C:056FH         LINE#         568
  C:056FH         LINE#         569
  C:0574H         LINE#         570
  C:0574H         LINE#         572
  C:057BH         LINE#         573
  C:057BH         LINE#         575
  C:057BH         LINE#         577
  C:0583H         LINE#         578
  C:0583H         LINE#         580
  C:0583H         LINE#         582
  C:058DH         LINE#         583
  C:058DH         LINE#         584
  C:0595H         LINE#         585
  C:0595H         LINE#         586
  C:0598H         LINE#         587
  C:0598H         LINE#         588
  C:059CH         LINE#         589
  C:05A0H         LINE#         590
  C:05A0H         LINE#         591
  C:05A2H         LINE#         592
  C:05A2H         LINE#         593
  C:05A2H         LINE#         595
  C:05A2H         LINE#         596
  -------         ENDPROC       _SENSORRENOVATE
  -------         PROC          FILTERIIRINIT
  -------         DO            
  D:0007H         SYMBOL        i
  -------         ENDDO         
  C:0E1DH         LINE#         604
  C:0E1DH         LINE#         605
  C:0E1DH         LINE#         607
  C:0E25H         LINE#         608
  C:0E25H         LINE#         609
  C:0E43H         LINE#         610
  C:0E46H         LINE#         611
  -------         ENDPROC       FILTERIIRINIT
  -------         PROC          _FILTERDATADEAL
  D:0018H         SYMBOL        i
  -------         DO            
  D:0019H         SYMBOL        FilterTemp
  D:0004H         SYMBOL        SetFingerThresholdtmp
  -------         ENDDO         
  C:0724H         LINE#         620
BL51 BANKED LINKER/LOCATER V6.22                                                      01/03/2024  12:43:23  PAGE 18


  C:0726H         LINE#         621
  C:0726H         LINE#         625
  C:074CH         LINE#         627
  C:0755H         LINE#         629
  C:077AH         LINE#         630
  C:077AH         LINE#         631
  C:078AH         LINE#         632
  C:078DH         LINE#         633
  C:07BAH         LINE#         634
  C:07BAH         LINE#         635
  C:07EFH         LINE#         636
  C:07F1H         LINE#         638
  C:07F1H         LINE#         639
  C:0841H         LINE#         640
  C:0841H         LINE#         642
  C:0861H         LINE#         643
  -------         ENDPROC       _FILTERDATADEAL
  -------         PROC          GETISNEEDUPDATEBASELINE
  C:0F98H         LINE#         652
  C:0F98H         LINE#         653
  C:0F98H         LINE#         654
  C:0F9AH         LINE#         655
  -------         ENDPROC       GETISNEEDUPDATEBASELINE
  -------         PROC          SETNEEDUPDATEBASELINE
  C:0F9BH         LINE#         664
  C:0F9BH         LINE#         665
  C:0F9BH         LINE#         666
  C:0F9DH         LINE#         667
  -------         ENDPROC       SETNEEDUPDATEBASELINE
  -------         PROC          INITIALIZESENSORFLAG
  -------         DO            
  D:0007H         SYMBOL        i
  -------         ENDDO         
  C:0CB1H         LINE#         676
  C:0CB1H         LINE#         677
  C:0CB1H         LINE#         679
  C:0CB9H         LINE#         680
  C:0CB9H         LINE#         681
  C:0CBFH         LINE#         682
  C:0CC5H         LINE#         683
  C:0CCBH         LINE#         684
  C:0CD9H         LINE#         685
  C:0CDFH         LINE#         686
  C:0CE2H         LINE#         688
  C:0CE7H         LINE#         689
  C:0CEDH         LINE#         690
  C:0CF3H         LINE#         691
  C:0CF5H         LINE#         692
  -------         ENDPROC       INITIALIZESENSORFLAG
  -------         PROC          _MULTIPLEDEAL
  D:0024H         SYMBOL        CycleCnt
  -------         DO            
  X:002AH         SYMBOL        InitSensorCnt
  D:0004H         SYMBOL        FilterTemp
  D:0025H         SYMBOL        t
  -------         ENDDO         
  C:05A3H         LINE#         701
BL51 BANKED LINKER/LOCATER V6.22                                                      01/03/2024  12:43:23  PAGE 19


  C:05A5H         LINE#         702
  C:05A5H         LINE#         708
  C:05B2H         LINE#         709
  C:05B2H         LINE#         710
  C:05B4H         LINE#         711
  C:05B9H         LINE#         712
  C:05B9H         LINE#         713
  C:05C2H         LINE#         714
  C:05C2H         LINE#         715
  C:05E2H         LINE#         716
  C:05E6H         LINE#         717
  C:05E6H         LINE#         718
  C:05E9H         LINE#         719
  C:05EBH         LINE#         720
  C:05F0H         LINE#         722
  C:05F0H         LINE#         724
  C:05F6H         LINE#         725
  C:05FAH         LINE#         726
  C:05FAH         LINE#         727
  C:05FDH         LINE#         728
  C:0602H         LINE#         729
  C:0602H         LINE#         731
  C:060EH         LINE#         732
  C:060EH         LINE#         733
  C:061BH         LINE#         734
  C:061BH         LINE#         735
  C:0642H         LINE#         736
  C:0647H         LINE#         737
  C:0647H         LINE#         738
  C:0687H         LINE#         739
  C:0689H         LINE#         740
  C:0689H         LINE#         742
  C:0689H         LINE#         743
  C:06C9H         LINE#         744
  C:06C9H         LINE#         745
  C:06C9H         LINE#         746
  C:06CEH         LINE#         747
  C:06D3H         LINE#         749
  C:06D8H         LINE#         750
  C:06D8H         LINE#         751
  C:06DEH         LINE#         752
  C:06DEH         LINE#         754
  C:06F5H         LINE#         755
  C:06F5H         LINE#         756
  C:06F7H         LINE#         757
  C:06F9H         LINE#         758
  C:06FFH         LINE#         759
  C:0716H         LINE#         760
  C:0716H         LINE#         761
  C:071BH         LINE#         762
  C:071EH         LINE#         763
  C:0721H         LINE#         764
  C:0723H         LINE#         765
  C:0723H         LINE#         766
  C:0723H         LINE#         767
  C:0723H         LINE#         768
  -------         ENDPROC       _MULTIPLEDEAL
BL51 BANKED LINKER/LOCATER V6.22                                                      01/03/2024  12:43:23  PAGE 20


  -------         ENDMOD        SENSORMETHOD

  -------         MODULE        IO_INIT
  C:0000H         SYMBOL        _ICE_DUMMY_
  D:0080H         PUBLIC        P0
  D:0090H         PUBLIC        P1
  D:00A0H         PUBLIC        P2
  D:00A8H         PUBLIC        IE
  C:0F01H         PUBLIC        IO_Init
  D:009BH         PUBLIC        P0PH
  D:00B8H         PUBLIC        IP
  D:0092H         PUBLIC        P1PH
  D:00A2H         PUBLIC        P2PH
  D:0088H         PUBLIC        TCON
  D:009AH         PUBLIC        P0CON
  D:0091H         PUBLIC        P1CON
  D:00A1H         PUBLIC        P2CON
  D:00C8H         PUBLIC        T2CON
  D:00D0H         PUBLIC        PSW
  -------         PROC          IO_INIT
  C:0F01H         LINE#         9
  C:0F01H         LINE#         10
  C:0F01H         LINE#         12
  C:0F04H         LINE#         13
  C:0F07H         LINE#         14
  C:0F0AH         LINE#         15
  C:0F0CH         LINE#         16
  C:0F0FH         LINE#         17
  C:0F11H         LINE#         50
  -------         ENDPROC       IO_INIT
  -------         ENDMOD        IO_INIT

  -------         MODULE        SSI_INIT
  C:0000H         SYMBOL        _ICE_DUMMY_
  D:0080H         PUBLIC        P0
  D:0090H         PUBLIC        P1
  C:0F31H         PUBLIC        TWI_Int
  D:00A0H         PUBLIC        P2
  D:008FH         PUBLIC        OTCON
  B:00A8H.7       PUBLIC        EA
  D:00A8H         PUBLIC        IE
  D:00B8H         PUBLIC        IP
  D:0088H         PUBLIC        TCON
  D:009DH         PUBLIC        SSCON0
  D:009EH         PUBLIC        SSCON1
  D:00A9H         PUBLIC        IE1
  D:00C8H         PUBLIC        T2CON
  C:0F22H         PUBLIC        TWI_Init
  B:0020H.2       PUBLIC        TWIFlag
  D:00D0H         PUBLIC        PSW
  -------         PROC          TWI_INIT
  C:0F22H         LINE#         19
  C:0F22H         LINE#         20
  C:0F22H         LINE#         21
  C:0F25H         LINE#         22
  C:0F28H         LINE#         23
  C:0F2BH         LINE#         24
BL51 BANKED LINKER/LOCATER V6.22                                                      01/03/2024  12:43:23  PAGE 21


  C:0F2EH         LINE#         25
  C:0F30H         LINE#         26
  -------         ENDPROC       TWI_INIT
  -------         PROC          TWI_INT
  C:0F31H         LINE#         28
  C:0F33H         LINE#         30
  C:0F38H         LINE#         31
  C:0F38H         LINE#         32
  C:0F3BH         LINE#         33
  C:0F3DH         LINE#         34
  C:0F3DH         LINE#         35
  -------         ENDPROC       TWI_INT
  -------         ENDMOD        SSI_INIT

  -------         MODULE        TIMER_INIT
  C:0000H         SYMBOL        _ICE_DUMMY_
  D:0080H         PUBLIC        P0
  D:0090H         PUBLIC        P1
  D:00A0H         PUBLIC        P2
  D:008EH         PUBLIC        TMCON
  B:00A8H.7       PUBLIC        EA
  D:00A8H         PUBLIC        IE
  D:00B8H         PUBLIC        IP
  B:0080H.2       PUBLIC        P02
  D:0088H         PUBLIC        TCON
  D:0089H         PUBLIC        TMOD
  B:00A8H.1       PUBLIC        ET0
  D:008CH         PUBLIC        TH0
  D:008AH         PUBLIC        TL0
  C:0F6BH         PUBLIC        timer0
  B:0088H.4       PUBLIC        TR0
  D:00C8H         PUBLIC        T2CON
  C:0EDAH         PUBLIC        Timer_Init
  D:00D0H         PUBLIC        PSW
  -------         PROC          TIMER_INIT
  C:0EDAH         LINE#         9
  C:0EDAH         LINE#         10
  C:0EDAH         LINE#         11
  C:0EDDH         LINE#         14
  C:0EE0H         LINE#         15
  C:0EE3H         LINE#         16
  C:0EE6H         LINE#         17
  C:0EE8H         LINE#         18
  C:0EEAH         LINE#         19
  C:0EECH         LINE#         21
  C:0EEEH         LINE#         22
  -------         ENDPROC       TIMER_INIT
  -------         PROC          TIMER0
  C:0F6BH         LINE#         30
  C:0F6BH         LINE#         32
  C:0F6EH         LINE#         33
  C:0F71H         LINE#         34
  C:0F73H         LINE#         35
  -------         ENDPROC       TIMER0
  -------         ENDMOD        TIMER_INIT

  -------         MODULE        ?C?IMUL
BL51 BANKED LINKER/LOCATER V6.22                                                      01/03/2024  12:43:23  PAGE 22


  C:0AF2H         PUBLIC        ?C?IMUL
  -------         ENDMOD        ?C?IMUL

  -------         MODULE        ?C?UIDIV
  C:0B04H         PUBLIC        ?C?UIDIV
  -------         ENDMOD        ?C?UIDIV

  -------         MODULE        ?C?IILDX
  C:0B59H         PUBLIC        ?C?IILDX
  -------         ENDMOD        ?C?IILDX

  -------         MODULE        ?C?OFFXADD
  C:0B6FH         PUBLIC        ?C?OFFXADD
  -------         ENDMOD        ?C?OFFXADD

Program Size: data=68.4 xdata=47 code=3754
LINK/LOCATE RUN COMPLETE.  0 WARNING(S),  0 ERROR(S)
