C51 COMPILER V9.55   SSI_INIT                                                              01/12/2024 15:58:37 PAGE 1   


C51 COMPILER V9.55, COMPILATION OF MODULE SSI_INIT
OBJECT MODULE PLACED IN .\Objects\SSI_Init.obj
COMPILER INVOKED BY: D:\Keil_v5\C51\BIN\C51.EXE Drv\c\SSI_Init.c OPTIMIZE(8,SPEED) BROWSE INCDIR(.\user\API\h;.\user\APP
                    -\h;.\user) DEBUG OBJECTEXTEND PRINT(.\Listings\SSI_Init.lst) OBJECT(.\Objects\SSI_Init.obj)

line level    source

   1          #include "Drv\H\Function_Init.H"
   2          #include "Global.h"
   3          #include "App.h"
   4          
   5          //选择三合一模式：
   6          #define  Uart1  0
   7          #define  TWI    1
   8          #define  SPI    2
   9          
  10          #define  SSI_Mode  TWI
  11          
  12          void TWI_Init(void);
  13          
  14          bit TWIFlag = 0;          //中断标志位
  15          
  16          /*****************************************************
  17          *函数名称：void TWI_Init(void)
  18          *函数功能：TWI初始化
  19          *入口参数：void
  20          *出口参数：void
  21          *****************************************************/
  22          void TWI_Init(void)
  23          {
  24   1              OTCON |= 0x80;  //选择TWI模式
  25   1              SSCON0 = 0x88;  // ---- x---  0为不允许接收，1为允许接收
  26   1              SSCON1 = 0xB0;  //xxxx xxxy  x为地址寄存器，y为0禁止/1允许通用地址响应
  27   1              IE1 |= 0x01;
  28   1              EA = 1;
  29   1      }
  30          
  31          void TWI_Int() interrupt 7     //TWI中断函数
  32          {
  33   1              u8 state;
  34   1              
  35   1              SSCON0 &= ~(1<<6);  //清中断标志
  36   1              state = SSCON0 & 0x07;//读取TWI状态
  37   1              switch(state)
  38   1              {
  39   2                      case 0:         //空闲
  40   2                              Api_Twi_ClearTxCount();
  41   2                              Api_Twi_ClearRxCount();
  42   2                      break;
  43   2                      
  44   2                      case 2:         //接收中断
  45   2                              Api_Twi_Rx();
  46   2                      break;
  47   2                      
  48   2                      case 3:         //发送中断
  49   2                              Api_Twi_Tx();
  50   2                      break;
  51   2                      
  52   2                      case 4:         //主机回uack
  53   2                              Api_Twi_ClearTxCount();
  54   2                      break;
C51 COMPILER V9.55   SSI_INIT                                                              01/12/2024 15:58:37 PAGE 2   

  55   2                      
  56   2                      default:
  57   2                              break;
  58   2                      
  59   2              }
  60   1              
  61   1              
  62   1      //      if(SSCON0&0x40)
  63   1      //      {
  64   1      //              SSCON0 &= 0xbf;  //中断清零
  65   1      //              TWIFlag = 1;
  66   1      //      }       
  67   1      }


MODULE INFORMATION:   STATIC OVERLAYABLE
   CODE SIZE        =    114    ----
   CONSTANT SIZE    =   ----    ----
   XDATA SIZE       =   ----    ----
   PDATA SIZE       =   ----    ----
   DATA SIZE        =   ----    ----
   IDATA SIZE       =   ----    ----
   BIT SIZE         =      1    ----
END OF MODULE INFORMATION.


C51 COMPILATION COMPLETE.  0 WARNING(S),  0 ERROR(S)
