BL51 BANKED LINKER/LOCATER V6.22                                                        01/12/2024  15:58:37  PAGE 1


BL51 BANKED LINKER/LOCATER V6.22, INVOKED BY:
D:\KEIL_V5\C51\BIN\BL51.EXE .\Objects\main.obj, .\Objects\Global.obj, .\Objects\App.obj, .\Objects\App_Sys.obj, .\Object
>> s\App_Sys_PowerOn.obj, .\Objects\App_Sys_TurnOn.obj, .\Objects\Api_Tick.obj, .\Objects\Api_SysBase.obj, .\Objects\Api
>> _TK.obj, .\Objects\Api_Twi.obj, .\Objects\Api_Led.obj, .\Objects\IO_Init.obj, .\Objects\SSI_Init.obj, .\Objects\Timer
>> _Init.obj, .\Objects\S_TouchKeyCFG.obj, .\lib\SC92F8X7X_HighSensitive_Lib_T1_S_V1.3.0.LIB, .\Objects\STARTUP.obj TO .
>> \Objects\X5BC05-TK20240103 PRINT (.\Listings\X5BC05-TK20240103.m51) RAMSIZE (256) DISABLEWARNING (16) CODE (0X100)


MEMORY MODEL: SMALL WITH FLOATING POINT ARITHMETIC


INPUT MODULES INCLUDED:
  .\Objects\main.obj (MAIN)
  .\Objects\Global.obj (GLOBAL)
  .\Objects\App.obj (APP)
  .\Objects\App_Sys.obj (APP_SYS)
  .\Objects\App_Sys_PowerOn.obj (APP_SYS_POWERON)
  .\Objects\App_Sys_TurnOn.obj (APP_SYS_TURNON)
  .\Objects\Api_Tick.obj (API_TICK)
  .\Objects\Api_SysBase.obj (API_SYSBASE)
  .\Objects\Api_TK.obj (API_TK)
  .\Objects\Api_Twi.obj (API_TWI)
  .\Objects\Api_Led.obj (API_LED)
  .\Objects\IO_Init.obj (IO_INIT)
  .\Objects\SSI_Init.obj (SSI_INIT)
  .\Objects\Timer_Init.obj (TIMER_INIT)
  .\Objects\S_TouchKeyCFG.obj (S_TOUCHKEYCFG)
  .\lib\SC92F8X7X_HighSensitive_Lib_T1_S_V1.3.0.LIB (SENSORMETHOD)
  .\Objects\STARTUP.obj (?C_STARTUP)
  D:\KEIL_V5\C51\LIB\C51FPS.LIB (?C?FPCMP)
  D:\KEIL_V5\C51\LIB\C51FPS.LIB (?C?FCAST)
  D:\KEIL_V5\C51\LIB\C51S.LIB (?C_INIT)
  D:\KEIL_V5\C51\LIB\C51S.LIB (?C?IMUL)
  D:\KEIL_V5\C51\LIB\C51S.LIB (?C?UIDIV)
  D:\KEIL_V5\C51\LIB\C51S.LIB (?C?IILDX)
  D:\KEIL_V5\C51\LIB\C51S.LIB (?C?LNEG)
  D:\KEIL_V5\C51\LIB\C51S.LIB (?C?ULSHR)
  D:\KEIL_V5\C51\LIB\C51S.LIB (?C?OFFXADD)


LINK MAP OF MODULE:  .\Objects\X5BC05-TK20240103 (MAIN)


            TYPE    BASE      LENGTH    RELOCATION   SEGMENT NAME
            -----------------------------------------------------

            * * * * * * *   D A T A   M E M O R Y   * * * * * * *
            REG     0000H     0008H     ABSOLUTE     "REG BANK 0"
            DATA    0008H     0012H     UNIT         ?DT?API_TWI
            DATA    001AH     0006H     UNIT         ?DT?GLOBAL
            BIT     0020H.0   0000H.2   UNIT         ?BI?SENSORMETHOD
            BIT     0020H.2   0000H.1   UNIT         ?BI?SSI_INIT
            BIT     0020H.3   0000H.1   UNIT         _BIT_GROUP_
                    0020H.4   0000H.4                *** GAP ***
            DATA    0021H     000FH     UNIT         _DATA_GROUP_
            DATA    0030H     0008H     UNIT         ?DT?API_TICK
            DATA    0038H     0005H     UNIT         ?DT?SENSORMETHOD
            DATA    003DH     0004H     UNIT         ?DT?API_SYSBASE
BL51 BANKED LINKER/LOCATER V6.22                                                      01/12/2024  15:58:37  PAGE 2


            DATA    0041H     0001H     UNIT         ?DT?APP_SYS_POWERON
            IDATA   0042H     002EH     UNIT         ?ID?S_TOUCHKEYCFG
            IDATA   0070H     0004H     UNIT         ?ID?SENSORMETHOD
            IDATA   0074H     0001H     UNIT         ?STACK

            * * * * * * *  X D A T A   M E M O R Y  * * * * * * *
            XDATA   0000H     0052H     UNIT         ?XD?S_TOUCHKEYCFG
            XDATA   0052H     0005H     UNIT         ?XD?SENSORMETHOD

            * * * * * * *   C O D E   M E M O R Y   * * * * * * *
            CODE    0000H     0003H     ABSOLUTE     
                    0003H     0008H                  *** GAP ***
            CODE    000BH     0003H     ABSOLUTE     
                    000EH     002DH                  *** GAP ***
            CODE    003BH     0003H     ABSOLUTE     
                    003EH     001DH                  *** GAP ***
            CODE    005BH     0003H     ABSOLUTE     
                    005EH     00A2H                  *** GAP ***
            CODE    0100H     04A3H     UNIT         ?PR?_SENSORRENOVATE?SENSORMETHOD
            CODE    05A3H     0181H     UNIT         ?PR?_MULTIPLEDEAL?SENSORMETHOD
            CODE    0724H     0161H     UNIT         ?C?LIB_CODE
            CODE    0885H     013EH     UNIT         ?PR?_FILTERDATADEAL?SENSORMETHOD
            CODE    09C3H     00D3H     UNIT         ?PR?TOUCHKEYSCAN?S_TOUCHKEYCFG
            CODE    0A96H     009AH     UNIT         ?C_C51STARTUP
            CODE    0B30H     0093H     UNIT         ?PR?TOUCHKEYINIT?SENSORMETHOD
            CODE    0BC3H     0090H     UNIT         ?PR?_ICHAADJUST?SENSORMETHOD
            CODE    0C53H     0087H     UNIT         ?PR?TOUCHKEY_SERVICE?SENSORMETHOD
            CODE    0CDAH     006AH     UNIT         ?PR?FILTERAVERGEDEAL?SENSORMETHOD
            CODE    0D44H     0065H     UNIT         ?CO?S_TOUCHKEYCFG
            CODE    0DA9H     0063H     UNIT         ?PR?TWI_INT?SSI_INIT
            CODE    0E0CH     005FH     UNIT         ?PR?API_TICK_MS?API_TICK
            CODE    0E6BH     0045H     UNIT         ?PR?INITIALIZESENSORFLAG?SENSORMETHOD
            CODE    0EB0H     0043H     UNIT         ?PR?TIMER0?TIMER_INIT
            CODE    0EF3H     003FH     UNIT         ?PR?TOUCHKEYCFGINIT?S_TOUCHKEYCFG
            CODE    0F32H     003BH     UNIT         ?PR?CTK_ISR?S_TOUCHKEYCFG
            CODE    0F6DH     0034H     UNIT         ?PR?API_TWI_TXDATALOAD?API_TWI
            CODE    0FA1H     002DH     UNIT         ?PR?_GETCFGMSG?S_TOUCHKEYCFG
            CODE    0FCEH     002CH     UNIT         ?PR?_GETCURRFINGERVALUE?S_TOUCHKEYCFG
            CODE    0FFAH     002BH     UNIT         ?PR?CURRENTSENSORCHOOSE?S_TOUCHKEYCFG
            CODE    1025H     002AH     UNIT         ?PR?INITIALIZEBASELINES?SENSORMETHOD
            CODE    104FH     002AH     UNIT         ?PR?FILTERIIRINIT?SENSORMETHOD
            CODE    1079H     0029H     UNIT         ?PR?API_TWI_RX?API_TWI
            CODE    10A2H     0029H     UNIT         ?PR?FILTERCOMMCODE?SENSORMETHOD
            CODE    10CBH     0020H     UNIT         ?PR?SENSORKEYFLAG?SENSORMETHOD
            CODE    10EBH     001FH     UNIT         ?PR?MAIN?MAIN
            CODE    110AH     001FH     UNIT         ?PR?APP_SYS_POWERON_CYCLE?APP_SYS_POWERON
            CODE    1129H     001DH     UNIT         ?PR?SYSTICK_HANDLER?API_TICK
            CODE    1146H     001BH     UNIT         ?PR?SYS_SCAN?API_TK
            CODE    1161H     001AH     UNIT         ?PR?API_TWI_TX?API_TWI
            CODE    117BH     0019H     UNIT         ?PR?APP_SYS_TURNON_CYCLE?APP_SYS_TURNON
            CODE    1194H     0016H     UNIT         ?PR?APP_CYCLE?APP
            CODE    11AAH     0016H     UNIT         ?PR?_GETTKYZTHRESHOLD?S_TOUCHKEYCFG
            CODE    11C0H     0015H     UNIT         ?PR?TIMER_INIT?TIMER_INIT
            CODE    11D5H     0013H     UNIT         ?C_INITSEG
            CODE    11E8H     0013H     UNIT         ?PR?APP_SYS_CYCLE?APP_SYS
            CODE    11FBH     0012H     UNIT         ?PR?APP_SYS_POWERONQUITE?APP_SYS_POWERON
            CODE    120DH     0012H     UNIT         ?PR?_GETSCANTIMEVALUE?S_TOUCHKEYCFG
BL51 BANKED LINKER/LOCATER V6.22                                                      01/12/2024  15:58:37  PAGE 3


            CODE    121FH     0011H     UNIT         ?PR?IO_INIT?IO_INIT
            CODE    1230H     0010H     UNIT         ?PR?API_TICK_INIT?API_TICK
            CODE    1240H     000FH     UNIT         ?PR?TWI_INIT?SSI_INIT
            CODE    124FH     000EH     UNIT         ?PR?_API_SYSBASE_SETSTATE?API_SYSBASE
            CODE    125DH     000CH     UNIT         ?PR?_USDELAY?SENSORMETHOD
            CODE    1269H     000BH     UNIT         ?PR?API_TICK_POPFLAG_10MS?API_TICK
            CODE    1274H     000BH     UNIT         ?PR?API_TICK_POPFLAG_50MS?API_TICK
            CODE    127FH     000BH     UNIT         ?PR?API_TICK_POPFLAG_100MS?API_TICK
            CODE    128AH     000BH     UNIT         ?PR?API_TICK_POPFLAG_500MS?API_TICK
            CODE    1295H     000BH     UNIT         ?PR?API_TICK_POPFLAG_1000MS?API_TICK
            CODE    12A0H     000BH     UNIT         ?PR?SETONEKEYPUSHRESETTIME?S_TOUCHKEYCFG
            CODE    12ABH     000BH     UNIT         ?PR?GETBASELINEUPDATETHRESHOLD?S_TOUCHKEYCFG
            CODE    12B6H     000AH     UNIT         ?PR?API_TWI_INIT?API_TWI
            CODE    12C0H     0009H     UNIT         ?PR?APP_INIT?APP
            CODE    12C9H     0009H     UNIT         ?PR?API_SYSBASE_INIT?API_SYSBASE
            CODE    12D2H     0009H     UNIT         ?PR?API_TK_GETTKVALUE?API_TK
            CODE    12DBH     0009H     UNIT         ?PR?GETTKYZCNT?S_TOUCHKEYCFG
            CODE    12E4H     0008H     UNIT         ?PR?GETINITAUTOUPDATETIME?S_TOUCHKEYCFG
            CODE    12ECH     0008H     UNIT         ?PR?ISDOUBLEKEYORSLIDEKEY?S_TOUCHKEYCFG
            CODE    12F4H     0007H     UNIT         ?PR?API_SYSBASE_GETSYSCB?API_SYSBASE
            CODE    12FBH     0007H     UNIT         ?PR?_GETBASELINEADJUSTVALUE?S_TOUCHKEYCFG
            CODE    1302H     0007H     UNIT         ?PR?GETUPCONFIRMCNT?S_TOUCHKEYCFG
            CODE    1309H     0005H     UNIT         ?PR?API_TICK_GETMSTICK?API_TICK
            CODE    130EH     0004H     UNIT         ?PR?APP_SYS_CLEARPOWERONCOUNT?APP_SYS_POWERON
            CODE    1312H     0004H     UNIT         ?PR?API_SYSBASE_SETENTERFLAG?API_SYSBASE
            CODE    1316H     0004H     UNIT         ?PR?API_SYSBASE_CLEARENTERFLAG?API_SYSBASE
            CODE    131AH     0004H     UNIT         ?PR?API_SYSBASE_SETQUITEFLAG?API_SYSBASE
            CODE    131EH     0004H     UNIT         ?PR?API_SYSBASE_CLEARQUITEFLAG?API_SYSBASE
            CODE    1322H     0004H     UNIT         ?PR?API_TWI_CLEARRXCOUNT?API_TWI
            CODE    1326H     0004H     UNIT         ?PR?API_TWI_CLEARTXCOUNT?API_TWI
            CODE    132AH     0003H     UNIT         ?PR?APP_SYS_INIT?APP_SYS
            CODE    132DH     0003H     UNIT         ?PR?API_SYSBASE_GETSTATE?API_SYSBASE
            CODE    1330H     0003H     UNIT         ?PR?API_SYSBASE_GETLASTSTATE?API_SYSBASE
            CODE    1333H     0003H     UNIT         ?PR?API_SYSBASE_ISENTER?API_SYSBASE
            CODE    1336H     0003H     UNIT         ?PR?API_SYSBASE_ISQUITE?API_SYSBASE
            CODE    1339H     0003H     UNIT         ?PR?GETCSFUNCTION?S_TOUCHKEYCFG
            CODE    133CH     0003H     UNIT         ?PR?TOUCHKEYRESTART?SENSORMETHOD
            CODE    133FH     0003H     UNIT         ?PR?GETISNEEDUPDATEBASELINE?SENSORMETHOD
            CODE    1342H     0003H     UNIT         ?PR?SETNEEDUPDATEBASELINE?SENSORMETHOD
            CODE    1345H     0001H     UNIT         ?PR?APP_SYS_POWERON_KEY_PROC?APP_SYS_POWERON
            CODE    1346H     0001H     UNIT         ?PR?APP_SYS_POWERON_COM_PROC?APP_SYS_POWERON
            CODE    1347H     0001H     UNIT         ?PR?APP_SYS_POWERON_DIAGNOSE_PROC?APP_SYS_POWERON
            CODE    1348H     0001H     UNIT         ?PR?APP_SYS_POWERON_LCD_PROC?APP_SYS_POWERON
            CODE    1349H     0001H     UNIT         ?PR?APP_SYS_POWERON_LED_PROC?APP_SYS_POWERON
            CODE    134AH     0001H     UNIT         ?PR?APP_SYS_TURNON_KEY_PROC?APP_SYS_TURNON
            CODE    134BH     0001H     UNIT         ?PR?APP_SYS_TURNON_COM_PROC?APP_SYS_TURNON
            CODE    134CH     0001H     UNIT         ?PR?APP_SYS_TURNON_DIAGNOSE_PROC?APP_SYS_TURNON
            CODE    134DH     0001H     UNIT         ?PR?APP_SYS_TURNON_LCD_PROC?APP_SYS_TURNON
            CODE    134EH     0001H     UNIT         ?PR?APP_SYS_TURNON_LED_PROC?APP_SYS_TURNON
            CODE    134FH     0001H     UNIT         ?PR?API_LED_GETLEDDATA?API_LED
            CODE    1350H     0001H     UNIT         ?PR?API_LED_CONTRIL?API_LED



OVERLAY MAP OF MODULE:   .\Objects\X5BC05-TK20240103 (MAIN)


BL51 BANKED LINKER/LOCATER V6.22                                                      01/12/2024  15:58:37  PAGE 4


SEGMENT                                             BIT_GROUP          DATA_GROUP 
  +--> CALLED SEGMENT                            START    LENGTH     START    LENGTH
------------------------------------------------------------------------------------
?PR?TWI_INT?SSI_INIT                             -----    -----      -----    -----
  +--> ?PR?API_TWI_CLEARTXCOUNT?API_TWI
  +--> ?PR?API_TWI_CLEARRXCOUNT?API_TWI
  +--> ?PR?API_TWI_RX?API_TWI
  +--> ?PR?API_TWI_TX?API_TWI

?PR?API_TWI_RX?API_TWI                           -----    -----      -----    -----
  +--> ?PR?API_LED_GETLEDDATA?API_LED

?PR?API_TWI_TX?API_TWI                           -----    -----      -----    -----
  +--> ?PR?API_TWI_TXDATALOAD?API_TWI

*** NEW ROOT ***************************************************

?PR?TIMER0?TIMER_INIT                            -----    -----      -----    -----
  +--> ?PR?SYSTICK_HANDLER?API_TICK

?PR?SYSTICK_HANDLER?API_TICK                     -----    -----      -----    -----
  +--> ?PR?API_TICK_MS?API_TICK

*** NEW ROOT ***************************************************

?PR?CTK_ISR?S_TOUCHKEYCFG                        -----    -----      -----    -----
  +--> ?PR?TOUCHKEY_SERVICE?SENSORMETHOD

?PR?TOUCHKEY_SERVICE?SENSORMETHOD                0020H.3  0000H.1    -----    -----
  +--> ?PR?_GETCFGMSG?S_TOUCHKEYCFG
  +--> ?PR?_GETSCANTIMEVALUE?S_TOUCHKEYCFG
  +--> ?PR?_GETBASELINEADJUSTVALUE?S_TOUCHKE...

?PR?_GETCFGMSG?S_TOUCHKEYCFG                     -----    -----      -----    -----
  +--> ?CO?S_TOUCHKEYCFG

?PR?_GETSCANTIMEVALUE?S_TOUCHKEYCFG              -----    -----      -----    -----
  +--> ?CO?S_TOUCHKEYCFG

*** NEW ROOT ***************************************************

?C_C51STARTUP                                    -----    -----      -----    -----
  +--> ?PR?MAIN?MAIN
  +--> ?C_INITSEG

?PR?MAIN?MAIN                                    -----    -----      -----    -----
  +--> ?PR?IO_INIT?IO_INIT
  +--> ?PR?TIMER_INIT?TIMER_INIT
  +--> ?PR?TWI_INIT?SSI_INIT
  +--> ?PR?TOUCHKEYINIT?SENSORMETHOD
  +--> ?PR?APP_INIT?APP
  +--> ?PR?SYS_SCAN?API_TK
  +--> ?PR?APP_CYCLE?APP

?PR?TOUCHKEYINIT?SENSORMETHOD                    -----    -----      -----    -----
  +--> ?PR?TOUCHKEYCFGINIT?S_TOUCHKEYCFG
  +--> ?PR?_GETCFGMSG?S_TOUCHKEYCFG
BL51 BANKED LINKER/LOCATER V6.22                                                      01/12/2024  15:58:37  PAGE 5


  +--> ?PR?_GETSCANTIMEVALUE?S_TOUCHKEYCFG
  +--> ?PR?INITIALIZESENSORFLAG?SENSORMETHOD
  +--> ?PR?FILTERAVERGEDEAL?SENSORMETHOD
  +--> ?PR?INITIALIZEBASELINES?SENSORMETHOD

?PR?TOUCHKEYCFGINIT?S_TOUCHKEYCFG                -----    -----      -----    -----
  +--> ?CO?S_TOUCHKEYCFG
  +--> ?PR?CURRENTSENSORCHOOSE?S_TOUCHKEYCFG

?PR?FILTERAVERGEDEAL?SENSORMETHOD                -----    -----      0021H    0002H
  +--> ?CO?S_TOUCHKEYCFG
  +--> ?PR?FILTERCOMMCODE?SENSORMETHOD
  +--> ?PR?_ICHAADJUST?SENSORMETHOD
  +--> ?PR?FILTERIIRINIT?SENSORMETHOD
  +--> ?PR?GETINITAUTOUPDATETIME?S_TOUCHKEYCFG
  +--> ?PR?_FILTERDATADEAL?SENSORMETHOD

?PR?FILTERCOMMCODE?SENSORMETHOD                  -----    -----      -----    -----
  +--> ?PR?_USDELAY?SENSORMETHOD

?PR?_ICHAADJUST?SENSORMETHOD                     -----    -----      002EH    0002H
  +--> ?PR?_GETBASELINEADJUSTVALUE?S_TOUCHKE...
  +--> ?PR?_GETSCANTIMEVALUE?S_TOUCHKEYCFG

?PR?GETINITAUTOUPDATETIME?S_TOUCHKEYCFG          -----    -----      -----    -----
  +--> ?CO?S_TOUCHKEYCFG

?PR?_FILTERDATADEAL?SENSORMETHOD                 -----    -----      0026H    0003H
  +--> ?PR?_GETCURRFINGERVALUE?S_TOUCHKEYCFG

?PR?_GETCURRFINGERVALUE?S_TOUCHKEYCFG            -----    -----      -----    -----
  +--> ?CO?S_TOUCHKEYCFG

?PR?APP_INIT?APP                                 -----    -----      -----    -----
  +--> ?PR?API_TICK_INIT?API_TICK
  +--> ?PR?APP_SYS_INIT?APP_SYS
  +--> ?PR?APP_SYS_CLEARPOWERONCOUNT?APP_SYS...

?PR?APP_SYS_INIT?APP_SYS                         -----    -----      -----    -----
  +--> ?PR?API_SYSBASE_INIT?API_SYSBASE

?PR?SYS_SCAN?API_TK                              -----    -----      -----    -----
  +--> ?PR?TOUCHKEYSCAN?S_TOUCHKEYCFG
  +--> ?PR?TOUCHKEYRESTART?SENSORMETHOD

?PR?TOUCHKEYSCAN?S_TOUCHKEYCFG                   -----    -----      0021H    0003H
  +--> ?PR?GETISNEEDUPDATEBASELINE?SENSORMETHOD
  +--> ?PR?SENSORKEYFLAG?SENSORMETHOD
  +--> ?PR?SETNEEDUPDATEBASELINE?SENSORMETHOD
  +--> ?PR?ISDOUBLEKEYORSLIDEKEY?S_TOUCHKEYCFG
  +--> ?PR?SETONEKEYPUSHRESETTIME?S_TOUCHKEYCFG
  +--> ?CO?S_TOUCHKEYCFG
  +--> ?PR?_MULTIPLEDEAL?SENSORMETHOD

?PR?SENSORKEYFLAG?SENSORMETHOD                   -----    -----      0024H    0001H
  +--> ?PR?_FILTERDATADEAL?SENSORMETHOD
  +--> ?PR?_SENSORRENOVATE?SENSORMETHOD
BL51 BANKED LINKER/LOCATER V6.22                                                      01/12/2024  15:58:37  PAGE 6



?PR?_SENSORRENOVATE?SENSORMETHOD                 -----    -----      0025H    0009H
  +--> ?PR?_GETCURRFINGERVALUE?S_TOUCHKEYCFG
  +--> ?PR?GETCSFUNCTION?S_TOUCHKEYCFG
  +--> ?PR?ISDOUBLEKEYORSLIDEKEY?S_TOUCHKEYCFG
  +--> ?PR?GETTKYZCNT?S_TOUCHKEYCFG
  +--> ?PR?_GETTKYZTHRESHOLD?S_TOUCHKEYCFG
  +--> ?PR?GETBASELINEUPDATETHRESHOLD?S_TOUC...
  +--> ?CO?S_TOUCHKEYCFG
  +--> ?PR?GETUPCONFIRMCNT?S_TOUCHKEYCFG
  +--> ?PR?_ICHAADJUST?SENSORMETHOD

?PR?ISDOUBLEKEYORSLIDEKEY?S_TOUCHKEYCFG          -----    -----      -----    -----
  +--> ?CO?S_TOUCHKEYCFG

?PR?_GETTKYZTHRESHOLD?S_TOUCHKEYCFG              -----    -----      -----    -----
  +--> ?PR?_GETCURRFINGERVALUE?S_TOUCHKEYCFG

?PR?GETBASELINEUPDATETHRESHOLD?S_TOUC...         -----    -----      -----    -----
  +--> ?CO?S_TOUCHKEYCFG

?PR?SETONEKEYPUSHRESETTIME?S_TOUCHKEYCFG         -----    -----      -----    -----
  +--> ?CO?S_TOUCHKEYCFG

?PR?_MULTIPLEDEAL?SENSORMETHOD                   -----    -----      0024H    0002H
  +--> ?PR?INITIALIZESENSORFLAG?SENSORMETHOD
  +--> ?PR?FILTERIIRINIT?SENSORMETHOD
  +--> ?PR?_FILTERDATADEAL?SENSORMETHOD
  +--> ?PR?INITIALIZEBASELINES?SENSORMETHOD

?PR?APP_CYCLE?APP                                -----    -----      -----    -----
  +--> ?PR?API_TICK_POPFLAG_10MS?API_TICK
  +--> ?PR?APP_SYS_CYCLE?APP_SYS
  +--> ?PR?API_TICK_POPFLAG_50MS?API_TICK
  +--> ?PR?API_TICK_POPFLAG_100MS?API_TICK
  +--> ?PR?API_TICK_POPFLAG_500MS?API_TICK
  +--> ?PR?API_TICK_POPFLAG_1000MS?API_TICK

?PR?APP_SYS_CYCLE?APP_SYS                        -----    -----      -----    -----
  +--> ?PR?API_SYSBASE_GETSTATE?API_SYSBASE
  +--> ?PR?APP_SYS_POWERON_CYCLE?APP_SYS_POW...
  +--> ?PR?APP_SYS_TURNON_CYCLE?APP_SYS_TURNON

?PR?APP_SYS_POWERON_CYCLE?APP_SYS_POW...         -----    -----      -----    -----
  +--> ?PR?API_SYSBASE_ISENTER?API_SYSBASE
  +--> ?PR?API_SYSBASE_CLEARENTERFLAG?API_SY...
  +--> ?PR?API_SYSBASE_ISQUITE?API_SYSBASE
  +--> ?PR?API_SYSBASE_CLEARQUITEFLAG?API_SY...
  +--> ?PR?API_SYSBASE_SETENTERFLAG?API_SYSBASE
  +--> ?PR?API_SYSBASE_GETSTATE?API_SYSBASE
  +--> ?PR?APP_SYS_POWERONQUITE?APP_SYS_POWERON

?PR?APP_SYS_POWERONQUITE?APP_SYS_POWERON         -----    -----      -----    -----
  +--> ?PR?_API_SYSBASE_SETSTATE?API_SYSBASE

?PR?APP_SYS_TURNON_CYCLE?APP_SYS_TURNON          -----    -----      -----    -----
  +--> ?PR?API_SYSBASE_ISENTER?API_SYSBASE
BL51 BANKED LINKER/LOCATER V6.22                                                      01/12/2024  15:58:37  PAGE 7


  +--> ?PR?API_SYSBASE_CLEARENTERFLAG?API_SY...
  +--> ?PR?API_SYSBASE_ISQUITE?API_SYSBASE
  +--> ?PR?API_SYSBASE_CLEARQUITEFLAG?API_SY...
  +--> ?PR?API_SYSBASE_SETENTERFLAG?API_SYSBASE
  +--> ?PR?API_SYSBASE_GETSTATE?API_SYSBASE



SYMBOL TABLE OF MODULE:  .\Objects\X5BC05-TK20240103 (MAIN)

  VALUE           TYPE          NAME
  ----------------------------------

  -------         MODULE        MAIN
  C:0000H         SYMBOL        _ICE_DUMMY_
  D:0080H         PUBLIC        P0
  D:0090H         PUBLIC        P1
  D:00A0H         PUBLIC        P2
  D:00A8H         PUBLIC        IE
  D:00B8H         PUBLIC        IP
  C:10EBH         PUBLIC        main
  D:0088H         PUBLIC        TCON
  D:00C8H         PUBLIC        T2CON
  D:00D0H         PUBLIC        PSW
  -------         PROC          MAIN
  C:10EBH         LINE#         6
  C:10EBH         LINE#         7
  C:10EBH         LINE#         8
  C:10EEH         LINE#         9
  C:10F1H         LINE#         10
  C:10F4H         LINE#         12
  C:10F7H         LINE#         14
  C:10FAH         LINE#         16
  C:10FBH         LINE#         17
  C:10FCH         LINE#         18
  C:10FDH         LINE#         19
  C:10FEH         LINE#         20
  C:10FFH         LINE#         21
  C:1100H         LINE#         22
  C:1101H         LINE#         23
  C:1102H         LINE#         24
  C:1102H         LINE#         25
  C:1102H         LINE#         26
  C:1105H         LINE#         27
  C:1108H         LINE#         28
  -------         ENDPROC       MAIN
  -------         ENDMOD        MAIN

  -------         MODULE        GLOBAL
  C:0000H         SYMBOL        _ICE_DUMMY_
  D:0080H         PUBLIC        P0
  D:0090H         PUBLIC        P1
  D:00A0H         PUBLIC        P2
  D:001AH         PUBLIC        exKeyValueFlag
  D:00A8H         PUBLIC        IE
  D:00B8H         PUBLIC        IP
  D:0088H         PUBLIC        TCON
BL51 BANKED LINKER/LOCATER V6.22                                                      01/12/2024  15:58:37  PAGE 8


  D:001EH         PUBLIC        u8KeyBuff
  D:00C8H         PUBLIC        T2CON
  D:00D0H         PUBLIC        PSW
  -------         ENDMOD        GLOBAL

  -------         MODULE        APP
  C:0000H         SYMBOL        _ICE_DUMMY_
  C:12C0H         PUBLIC        App_Init
  C:1194H         PUBLIC        App_Cycle
  -------         PROC          APP_INIT
  C:12C0H         LINE#         4
  C:12C0H         LINE#         5
  C:12C0H         LINE#         6
  C:12C3H         LINE#         8
  C:12C6H         LINE#         10
  -------         ENDPROC       APP_INIT
  -------         PROC          APP_CYCLE
  C:1194H         LINE#         17
  C:1194H         LINE#         18
  C:1194H         LINE#         19
  C:119AH         LINE#         20
  C:119AH         LINE#         21
  C:119DH         LINE#         22
  C:119DH         LINE#         24
  C:11A0H         LINE#         25
  C:11A0H         LINE#         27
  C:11A0H         LINE#         29
  C:11A3H         LINE#         30
  C:11A3H         LINE#         32
  C:11A3H         LINE#         34
  C:11A6H         LINE#         35
  C:11A6H         LINE#         37
  C:11A6H         LINE#         39
  C:11A9H         LINE#         40
  C:11A9H         LINE#         42
  C:11A9H         LINE#         43
  -------         ENDPROC       APP_CYCLE
  -------         ENDMOD        APP

  -------         MODULE        APP_SYS
  C:0000H         SYMBOL        _ICE_DUMMY_
  C:11E8H         PUBLIC        App_Sys_Cycle
  C:132AH         PUBLIC        App_Sys_Init
  -------         PROC          APP_SYS_INIT
  C:132AH         LINE#         3
  C:132AH         LINE#         4
  C:132AH         LINE#         5
  -------         ENDPROC       APP_SYS_INIT
  -------         PROC          APP_SYS_CYCLE
  C:11E8H         LINE#         15
  C:11E8H         LINE#         16
  C:11E8H         LINE#         17
  C:11F4H         LINE#         18
  C:11F4H         LINE#         19
  C:11F4H         LINE#         20
  C:11F7H         LINE#         21
  C:11F7H         LINE#         23
BL51 BANKED LINKER/LOCATER V6.22                                                      01/12/2024  15:58:37  PAGE 9


  C:11F7H         LINE#         25
  C:11F7H         LINE#         27
  C:11F7H         LINE#         28
  C:11FAH         LINE#         29
  C:11FAH         LINE#         31
  C:11FAH         LINE#         33
  C:11FAH         LINE#         35
  C:11FAH         LINE#         37
  C:11FAH         LINE#         39
  C:11FAH         LINE#         41
  C:11FAH         LINE#         43
  C:11FAH         LINE#         45
  C:11FAH         LINE#         47
  C:11FAH         LINE#         49
  C:11FAH         LINE#         51
  C:11FAH         LINE#         52
  C:11FAH         LINE#         53
  C:11FAH         LINE#         54
  -------         ENDPROC       APP_SYS_CYCLE
  -------         ENDMOD        APP_SYS

  -------         MODULE        APP_SYS_POWERON
  C:0000H         SYMBOL        _ICE_DUMMY_
  C:11FBH         PUBLIC        App_Sys_PowerOnQuite
  D:0041H         PUBLIC        u8PowerOn_count
  C:110AH         PUBLIC        App_Sys_PowerOn_Cycle
  C:1348H         SYMBOL        App_Sys_PowerOn_Lcd_Proc
  C:1349H         PUBLIC        App_Sys_PowerOn_Led_Proc
  C:1346H         SYMBOL        App_Sys_PowerOn_Com_Proc
  C:130EH         PUBLIC        App_Sys_ClearPowerOnCount
  C:1345H         SYMBOL        App_Sys_PowerOn_Key_Proc
  C:1347H         SYMBOL        App_Sys_PowerOn_Diagnose_Proc
  -------         PROC          APP_SYS_POWERON_KEY_PROC
  C:1345H         LINE#         7
  C:1345H         LINE#         8
  C:1345H         LINE#         10
  -------         ENDPROC       APP_SYS_POWERON_KEY_PROC
  -------         PROC          APP_SYS_POWERON_COM_PROC
  C:1346H         LINE#         11
  C:1346H         LINE#         12
  C:1346H         LINE#         14
  -------         ENDPROC       APP_SYS_POWERON_COM_PROC
  -------         PROC          APP_SYS_POWERON_DIAGNOSE_PROC
  C:1347H         LINE#         15
  C:1347H         LINE#         16
  C:1347H         LINE#         18
  -------         ENDPROC       APP_SYS_POWERON_DIAGNOSE_PROC
  -------         PROC          APP_SYS_POWERON_LCD_PROC
  C:1348H         LINE#         20
  C:1348H         LINE#         21
  C:1348H         LINE#         23
  -------         ENDPROC       APP_SYS_POWERON_LCD_PROC
  -------         PROC          APP_SYS_POWERON_LED_PROC
  C:1349H         LINE#         25
  C:1349H         LINE#         26
  C:1349H         LINE#         28
  -------         ENDPROC       APP_SYS_POWERON_LED_PROC
BL51 BANKED LINKER/LOCATER V6.22                                                      01/12/2024  15:58:37  PAGE 10


  -------         PROC          APP_SYS_POWERONQUITE
  C:11FBH         LINE#         37
  C:11FBH         LINE#         38
  C:11FBH         LINE#         39
  C:11FDH         LINE#         40
  C:1204H         LINE#         41
  C:1204H         LINE#         42
  C:1207H         LINE#         43
  C:120CH         LINE#         44
  C:120CH         LINE#         45
  -------         ENDPROC       APP_SYS_POWERONQUITE
  -------         PROC          APP_SYS_CLEARPOWERONCOUNT
  C:130EH         LINE#         54
  C:130EH         LINE#         55
  C:130EH         LINE#         56
  C:1311H         LINE#         57
  -------         ENDPROC       APP_SYS_CLEARPOWERONCOUNT
  -------         PROC          APP_SYS_POWERON_CYCLE
  C:110AH         LINE#         66
  C:110AH         LINE#         67
  C:110AH         LINE#         68
  C:1110H         LINE#         69
  C:1110H         LINE#         70
  C:1113H         LINE#         71
  C:1113H         LINE#         73
  C:1119H         LINE#         74
  C:1119H         LINE#         75
  C:111CH         LINE#         76
  C:111FH         LINE#         77
  C:111FH         LINE#         78
  C:1125H         LINE#         79
  C:1125H         LINE#         80
  C:1128H         LINE#         81
  C:1128H         LINE#         82
  -------         ENDPROC       APP_SYS_POWERON_CYCLE
  -------         ENDMOD        APP_SYS_POWERON

  -------         MODULE        APP_SYS_TURNON
  C:0000H         SYMBOL        _ICE_DUMMY_
  C:134BH         SYMBOL        App_Sys_TurnOn_Com_Proc
  C:134AH         SYMBOL        App_Sys_TurnOn_Key_Proc
  C:134CH         SYMBOL        App_Sys_TurnOn_Diagnose_Proc
  C:117BH         PUBLIC        App_Sys_TurnOn_Cycle
  C:134DH         SYMBOL        App_Sys_TurnOn_Lcd_Proc
  C:134EH         PUBLIC        App_Sys_TurnOn_Led_Proc
  -------         PROC          APP_SYS_TURNON_KEY_PROC
  C:134AH         LINE#         3
  C:134AH         LINE#         4
  C:134AH         LINE#         6
  -------         ENDPROC       APP_SYS_TURNON_KEY_PROC
  -------         PROC          APP_SYS_TURNON_COM_PROC
  C:134BH         LINE#         7
  C:134BH         LINE#         8
  C:134BH         LINE#         10
  -------         ENDPROC       APP_SYS_TURNON_COM_PROC
  -------         PROC          APP_SYS_TURNON_DIAGNOSE_PROC
  C:134CH         LINE#         11
BL51 BANKED LINKER/LOCATER V6.22                                                      01/12/2024  15:58:37  PAGE 11


  C:134CH         LINE#         12
  C:134CH         LINE#         14
  -------         ENDPROC       APP_SYS_TURNON_DIAGNOSE_PROC
  -------         PROC          APP_SYS_TURNON_LCD_PROC
  C:134DH         LINE#         16
  C:134DH         LINE#         17
  C:134DH         LINE#         19
  -------         ENDPROC       APP_SYS_TURNON_LCD_PROC
  -------         PROC          APP_SYS_TURNON_LED_PROC
  C:134EH         LINE#         21
  C:134EH         LINE#         22
  C:134EH         LINE#         24
  -------         ENDPROC       APP_SYS_TURNON_LED_PROC
  -------         PROC          APP_SYS_TURNON_CYCLE
  C:117BH         LINE#         26
  C:117BH         LINE#         27
  C:117BH         LINE#         28
  C:1181H         LINE#         29
  C:1181H         LINE#         30
  C:1184H         LINE#         31
  C:1184H         LINE#         33
  C:118AH         LINE#         34
  C:118AH         LINE#         35
  C:118DH         LINE#         36
  C:1190H         LINE#         37
  C:1190H         LINE#         38
  C:1193H         LINE#         39
  C:1193H         LINE#         41
  C:1193H         LINE#         42
  -------         ENDPROC       APP_SYS_TURNON_CYCLE
  -------         ENDMOD        APP_SYS_TURNON

  -------         MODULE        API_TICK
  C:0000H         SYMBOL        _ICE_DUMMY_
  C:1230H         PUBLIC        Api_Tick_Init
  D:0080H         PUBLIC        P0
  D:0090H         PUBLIC        P1
  D:00A0H         PUBLIC        P2
  D:00A8H         PUBLIC        IE
  D:00B8H         PUBLIC        IP
  C:1295H         PUBLIC        Api_Tick_PopFlag_1000ms
  D:0031H         SYMBOL        timerCB
  C:0E0CH         PUBLIC        Api_Tick_Ms
  D:0088H         PUBLIC        TCON
  C:1269H         PUBLIC        Api_Tick_PopFlag_10ms
  C:1274H         PUBLIC        Api_Tick_PopFlag_50ms
  D:00CFH         PUBLIC        WDTCON
  D:00C8H         PUBLIC        T2CON
  C:127FH         PUBLIC        Api_Tick_PopFlag_100ms
  C:128AH         PUBLIC        Api_Tick_PopFlag_500ms
  C:1129H         PUBLIC        SysTick_Handler
  C:1309H         PUBLIC        Api_Tick_GetmsTick
  D:00D0H         PUBLIC        PSW
  -------         PROC          SYSTICK_HANDLER
  -------         DO            
  D:0030H         SYMBOL        tick
  -------         ENDDO         
BL51 BANKED LINKER/LOCATER V6.22                                                      01/12/2024  15:58:37  PAGE 12


  C:1129H         LINE#         28
  C:1129H         LINE#         29
  C:1129H         LINE#         31
  C:112CH         LINE#         33
  C:1140H         LINE#         34
  C:1140H         LINE#         35
  C:1142H         LINE#         36
  C:1145H         LINE#         37
  C:1145H         LINE#         38
  -------         ENDPROC       SYSTICK_HANDLER
  -------         PROC          API_TICK_MS
  C:0E0CH         LINE#         41
  C:0E0CH         LINE#         42
  C:0E0CH         LINE#         43
  C:0E14H         LINE#         45
  C:0E22H         LINE#         46
  C:0E22H         LINE#         47
  C:0E24H         LINE#         48
  C:0E32H         LINE#         49
  C:0E32H         LINE#         50
  C:0E34H         LINE#         51
  C:0E42H         LINE#         52
  C:0E42H         LINE#         53
  C:0E44H         LINE#         54
  C:0E53H         LINE#         55
  C:0E53H         LINE#         56
  C:0E55H         LINE#         57
  C:0E64H         LINE#         58
  C:0E64H         LINE#         59
  C:0E66H         LINE#         60
  C:0E6AH         LINE#         61
  C:0E6AH         LINE#         62
  C:0E6AH         LINE#         63
  C:0E6AH         LINE#         64
  C:0E6AH         LINE#         65
  C:0E6AH         LINE#         66
  -------         ENDPROC       API_TICK_MS
  -------         PROC          API_TICK_INIT
  C:1230H         LINE#         67
  C:1230H         LINE#         68
  C:1230H         LINE#         70
  C:1235H         LINE#         71
  C:1237H         LINE#         72
  C:1239H         LINE#         73
  C:123BH         LINE#         74
  C:123DH         LINE#         75
  C:123FH         LINE#         76
  -------         ENDPROC       API_TICK_INIT
  -------         PROC          API_TICK_GETMSTICK
  C:1309H         LINE#         78
  C:1309H         LINE#         79
  C:1309H         LINE#         80
  C:130DH         LINE#         81
  -------         ENDPROC       API_TICK_GETMSTICK
  -------         PROC          API_TICK_POPFLAG_10MS
  C:1269H         LINE#         83
  C:1269H         LINE#         84
BL51 BANKED LINKER/LOCATER V6.22                                                      01/12/2024  15:58:37  PAGE 13


  C:1269H         LINE#         85
  C:126DH         LINE#         86
  C:126FH         LINE#         87
  C:1273H         LINE#         88
  -------         ENDPROC       API_TICK_POPFLAG_10MS
  -------         PROC          API_TICK_POPFLAG_50MS
  C:1274H         LINE#         89
  C:1274H         LINE#         90
  C:1274H         LINE#         91
  C:1278H         LINE#         92
  C:127AH         LINE#         93
  C:127EH         LINE#         94
  -------         ENDPROC       API_TICK_POPFLAG_50MS
  -------         PROC          API_TICK_POPFLAG_100MS
  C:127FH         LINE#         95
  C:127FH         LINE#         96
  C:1283H         LINE#         97
  C:1285H         LINE#         98
  C:1289H         LINE#         99
  -------         ENDPROC       API_TICK_POPFLAG_100MS
  -------         PROC          API_TICK_POPFLAG_500MS
  C:128AH         LINE#         101
  C:128AH         LINE#         102
  C:128EH         LINE#         103
  C:1290H         LINE#         104
  C:1294H         LINE#         105
  -------         ENDPROC       API_TICK_POPFLAG_500MS
  -------         PROC          API_TICK_POPFLAG_1000MS
  C:1295H         LINE#         106
  C:1295H         LINE#         107
  C:1299H         LINE#         108
  C:129BH         LINE#         109
  C:129FH         LINE#         110
  -------         ENDPROC       API_TICK_POPFLAG_1000MS
  -------         ENDMOD        API_TICK

  -------         MODULE        API_SYSBASE
  C:0000H         SYMBOL        _ICE_DUMMY_
  C:12F4H         PUBLIC        Api_SysBase_GetSysCB
  C:1316H         PUBLIC        Api_SysBase_ClearEnterFlag
  C:131EH         PUBLIC        Api_SysBase_ClearQuiteFlag
  C:12C9H         PUBLIC        Api_SysBase_Init
  C:132DH         PUBLIC        Api_SysBase_GetState
  C:1312H         PUBLIC        Api_SysBase_SetEnterFlag
  C:124FH         PUBLIC        _Api_SysBase_SetState
  C:131AH         PUBLIC        Api_SysBase_SetQuiteFlag
  C:1330H         PUBLIC        Api_SysBase_GetLastState
  C:1333H         PUBLIC        Api_SysBase_IsEnter
  C:1336H         PUBLIC        Api_SysBase_IsQuite
  D:003DH         SYMBOL        sysCB
  -------         PROC          _API_SYSBASE_SETSTATE
  D:0007H         SYMBOL        state
  C:124FH         LINE#         6
  C:124FH         LINE#         7
  C:124FH         LINE#         8
  C:1254H         LINE#         9
  C:1254H         LINE#         10
BL51 BANKED LINKER/LOCATER V6.22                                                      01/12/2024  15:58:37  PAGE 14


  C:1257H         LINE#         11
  C:1259H         LINE#         12
  C:125CH         LINE#         13
  C:125CH         LINE#         14
  -------         ENDPROC       _API_SYSBASE_SETSTATE
  -------         PROC          API_SYSBASE_GETSTATE
  C:132DH         LINE#         16
  C:132DH         LINE#         17
  C:132DH         LINE#         18
  C:132FH         LINE#         19
  -------         ENDPROC       API_SYSBASE_GETSTATE
  -------         PROC          API_SYSBASE_GETLASTSTATE
  C:1330H         LINE#         21
  C:1330H         LINE#         22
  C:1330H         LINE#         23
  C:1332H         LINE#         24
  -------         ENDPROC       API_SYSBASE_GETLASTSTATE
  -------         PROC          API_SYSBASE_GETSYSCB
  C:12F4H         LINE#         26
  C:12F4H         LINE#         27
  C:12F4H         LINE#         28
  C:12FAH         LINE#         29
  -------         ENDPROC       API_SYSBASE_GETSYSCB
  -------         PROC          API_SYSBASE_ISENTER
  C:1333H         LINE#         31
  C:1333H         LINE#         32
  C:1333H         LINE#         33
  C:1335H         LINE#         34
  -------         ENDPROC       API_SYSBASE_ISENTER
  -------         PROC          API_SYSBASE_SETENTERFLAG
  C:1312H         LINE#         36
  C:1312H         LINE#         37
  C:1312H         LINE#         38
  C:1315H         LINE#         39
  -------         ENDPROC       API_SYSBASE_SETENTERFLAG
  -------         PROC          API_SYSBASE_CLEARENTERFLAG
  C:1316H         LINE#         41
  C:1316H         LINE#         42
  C:1316H         LINE#         43
  C:1319H         LINE#         44
  -------         ENDPROC       API_SYSBASE_CLEARENTERFLAG
  -------         PROC          API_SYSBASE_ISQUITE
  C:1336H         LINE#         46
  C:1336H         LINE#         47
  C:1336H         LINE#         48
  C:1338H         LINE#         49
  -------         ENDPROC       API_SYSBASE_ISQUITE
  -------         PROC          API_SYSBASE_SETQUITEFLAG
  C:131AH         LINE#         51
  C:131AH         LINE#         52
  C:131AH         LINE#         53
  C:131DH         LINE#         54
  -------         ENDPROC       API_SYSBASE_SETQUITEFLAG
  -------         PROC          API_SYSBASE_CLEARQUITEFLAG
  C:131EH         LINE#         56
  C:131EH         LINE#         57
  C:131EH         LINE#         58
BL51 BANKED LINKER/LOCATER V6.22                                                      01/12/2024  15:58:37  PAGE 15


  C:1321H         LINE#         59
  -------         ENDPROC       API_SYSBASE_CLEARQUITEFLAG
  -------         PROC          API_SYSBASE_INIT
  C:12C9H         LINE#         61
  C:12C9H         LINE#         62
  C:12CCH         LINE#         63
  C:12CEH         LINE#         64
  C:12D1H         LINE#         65
  -------         ENDPROC       API_SYSBASE_INIT
  -------         ENDMOD        API_SYSBASE

  -------         MODULE        API_TK
  C:0000H         SYMBOL        _ICE_DUMMY_
  C:1146H         PUBLIC        Sys_Scan
  C:12D2H         PUBLIC        Api_TK_GetTKValue
  -------         PROC          SYS_SCAN
  C:1146H         LINE#         11
  C:1146H         LINE#         12
  C:1146H         LINE#         13
  C:114EH         LINE#         14
  C:114EH         LINE#         15
  C:1151H         LINE#         16
  C:115DH         LINE#         18
  C:1160H         LINE#         19
  C:1160H         LINE#         20
  -------         ENDPROC       SYS_SCAN
  -------         PROC          API_TK_GETTKVALUE
  C:12D2H         LINE#         28
  C:12D2H         LINE#         29
  C:12D2H         LINE#         30
  C:12DAH         LINE#         31
  -------         ENDPROC       API_TK_GETTKVALUE
  -------         ENDMOD        API_TK

  -------         MODULE        API_TWI
  C:0000H         SYMBOL        _ICE_DUMMY_
  D:0080H         PUBLIC        P0
  D:009FH         PUBLIC        SSDAT
  D:0090H         PUBLIC        P1
  D:00A0H         PUBLIC        P2
  D:00A8H         PUBLIC        IE
  D:00B8H         PUBLIC        IP
  C:12B6H         PUBLIC        Api_Twi_Init
  D:0008H         PUBLIC        u8TwiRxBuff
  D:0088H         PUBLIC        TCON
  D:000DH         PUBLIC        u8TwiTxBuff
  D:0015H         PUBLIC        u8TwiRx_count
  D:0016H         PUBLIC        u8TwiTx_count
  C:1322H         PUBLIC        Api_Twi_ClearRxCount
  C:1326H         PUBLIC        Api_Twi_ClearTxCount
  C:1079H         PUBLIC        Api_Twi_Rx
  C:1161H         PUBLIC        Api_Twi_Tx
  C:0F6DH         PUBLIC        Api_Twi_TxDataLoad
  D:00C8H         PUBLIC        T2CON
  D:0017H         PUBLIC        Twi_TxState
  D:0018H         PUBLIC        u8TwiRxCheSum
  D:0019H         PUBLIC        u8TwiTxCheSum
BL51 BANKED LINKER/LOCATER V6.22                                                      01/12/2024  15:58:37  PAGE 16


  D:00D0H         PUBLIC        PSW
  -------         PROC          API_TWI_INIT
  C:12B6H         LINE#         21
  C:12B6H         LINE#         22
  C:12B6H         LINE#         23
  C:12B9H         LINE#         24
  C:12BBH         LINE#         25
  C:12BDH         LINE#         26
  C:12BFH         LINE#         27
  -------         ENDPROC       API_TWI_INIT
  -------         PROC          API_TWI_RX
  C:1079H         LINE#         36
  C:1079H         LINE#         37
  C:1079H         LINE#         38
  C:1080H         LINE#         39
  C:1082H         LINE#         40
  C:1089H         LINE#         41
  C:1089H         LINE#         42
  C:108CH         LINE#         43
  C:1096H         LINE#         44
  C:1099H         LINE#         45
  C:109EH         LINE#         46
  C:109EH         LINE#         47
  C:10A1H         LINE#         48
  C:10A1H         LINE#         49
  C:10A1H         LINE#         50
  -------         ENDPROC       API_TWI_RX
  -------         PROC          API_TWI_CLEARRXCOUNT
  C:1322H         LINE#         52
  C:1322H         LINE#         53
  C:1322H         LINE#         54
  C:1325H         LINE#         55
  -------         ENDPROC       API_TWI_CLEARRXCOUNT
  -------         PROC          API_TWI_TXDATALOAD
  -------         DO            
  D:0007H         SYMBOL        i
  -------         ENDDO         
  C:0F6DH         LINE#         64
  C:0F6DH         LINE#         65
  C:0F6DH         LINE#         67
  C:0F71H         LINE#         68
  C:0F71H         LINE#         69
  C:0F71H         LINE#         70
  C:0F74H         LINE#         71
  C:0F83H         LINE#         72
  C:0F86H         LINE#         73
  C:0F88H         LINE#         74
  C:0F8AH         LINE#         75
  C:0F8CH         LINE#         76
  C:0F8EH         LINE#         77
  C:0F8FH         LINE#         78
  C:0F8FH         LINE#         79
  C:0F96H         LINE#         80
  C:0F9AH         LINE#         81
  C:0F9DH         LINE#         82
  C:0FA0H         LINE#         84
  C:0FA0H         LINE#         86
BL51 BANKED LINKER/LOCATER V6.22                                                      01/12/2024  15:58:37  PAGE 17


  C:0FA0H         LINE#         88
  C:0FA0H         LINE#         90
  C:0FA0H         LINE#         91
  C:0FA0H         LINE#         92
  C:0FA0H         LINE#         93
  -------         ENDPROC       API_TWI_TXDATALOAD
  -------         PROC          API_TWI_TX
  C:1161H         LINE#         102
  C:1161H         LINE#         103
  C:1161H         LINE#         104
  C:1164H         LINE#         105
  C:116CH         LINE#         106
  C:116EH         LINE#         107
  C:1175H         LINE#         108
  C:1175H         LINE#         109
  C:1178H         LINE#         110
  C:117AH         LINE#         111
  C:117AH         LINE#         112
  -------         ENDPROC       API_TWI_TX
  -------         PROC          API_TWI_CLEARTXCOUNT
  C:1326H         LINE#         114
  C:1326H         LINE#         115
  C:1326H         LINE#         116
  C:1329H         LINE#         117
  -------         ENDPROC       API_TWI_CLEARTXCOUNT
  -------         ENDMOD        API_TWI

  -------         MODULE        API_LED
  C:0000H         SYMBOL        _ICE_DUMMY_
  C:134FH         PUBLIC        Api_Led_GetLedData
  C:1350H         PUBLIC        Api_Led_Contril
  -------         PROC          API_LED_GETLEDDATA
  C:134FH         LINE#         3
  C:134FH         LINE#         4
  C:134FH         LINE#         6
  -------         ENDPROC       API_LED_GETLEDDATA
  -------         PROC          API_LED_CONTRIL
  C:1350H         LINE#         8
  C:1350H         LINE#         9
  C:1350H         LINE#         11
  -------         ENDPROC       API_LED_CONTRIL
  -------         ENDMOD        API_LED

  -------         MODULE        IO_INIT
  C:0000H         SYMBOL        _ICE_DUMMY_
  D:0080H         PUBLIC        P0
  D:0090H         PUBLIC        P1
  D:00A0H         PUBLIC        P2
  D:00A8H         PUBLIC        IE
  C:121FH         PUBLIC        IO_Init
  D:009BH         PUBLIC        P0PH
  D:00B8H         PUBLIC        IP
  D:0092H         PUBLIC        P1PH
  D:00A2H         PUBLIC        P2PH
  D:0088H         PUBLIC        TCON
  D:009AH         PUBLIC        P0CON
  D:0091H         PUBLIC        P1CON
BL51 BANKED LINKER/LOCATER V6.22                                                      01/12/2024  15:58:37  PAGE 18


  D:00A1H         PUBLIC        P2CON
  D:00C8H         PUBLIC        T2CON
  D:00D0H         PUBLIC        PSW
  -------         PROC          IO_INIT
  C:121FH         LINE#         9
  C:121FH         LINE#         10
  C:121FH         LINE#         12
  C:1222H         LINE#         13
  C:1225H         LINE#         14
  C:1228H         LINE#         15
  C:122AH         LINE#         16
  C:122DH         LINE#         17
  C:122FH         LINE#         50
  -------         ENDPROC       IO_INIT
  -------         ENDMOD        IO_INIT

  -------         MODULE        SSI_INIT
  C:0000H         SYMBOL        _ICE_DUMMY_
  D:0080H         PUBLIC        P0
  D:0090H         PUBLIC        P1
  C:0DA9H         PUBLIC        TWI_Int
  D:00A0H         PUBLIC        P2
  D:008FH         PUBLIC        OTCON
  B:00A8H.7       PUBLIC        EA
  D:00A8H         PUBLIC        IE
  D:00B8H         PUBLIC        IP
  D:0088H         PUBLIC        TCON
  D:009DH         PUBLIC        SSCON0
  D:009EH         PUBLIC        SSCON1
  D:00A9H         PUBLIC        IE1
  D:00C8H         PUBLIC        T2CON
  C:1240H         PUBLIC        TWI_Init
  B:0020H.2       PUBLIC        TWIFlag
  D:00D0H         PUBLIC        PSW
  -------         PROC          TWI_INIT
  C:1240H         LINE#         22
  C:1240H         LINE#         23
  C:1240H         LINE#         24
  C:1243H         LINE#         25
  C:1246H         LINE#         26
  C:1249H         LINE#         27
  C:124CH         LINE#         28
  C:124EH         LINE#         29
  -------         ENDPROC       TWI_INIT
  -------         PROC          TWI_INT
  -------         DO            
  D:0007H         SYMBOL        state
  -------         ENDDO         
  C:0DA9H         LINE#         31
  C:0DC6H         LINE#         35
  C:0DC9H         LINE#         36
  C:0DCEH         LINE#         37
  C:0DDCH         LINE#         38
  C:0DDCH         LINE#         39
  C:0DDCH         LINE#         40
  C:0DDFH         LINE#         41
  C:0DE2H         LINE#         42
BL51 BANKED LINKER/LOCATER V6.22                                                      01/12/2024  15:58:37  PAGE 19


  C:0DE4H         LINE#         44
  C:0DE4H         LINE#         45
  C:0DE7H         LINE#         46
  C:0DE9H         LINE#         48
  C:0DE9H         LINE#         49
  C:0DECH         LINE#         50
  C:0DEEH         LINE#         52
  C:0DEEH         LINE#         53
  C:0DF1H         LINE#         54
  C:0DF1H         LINE#         56
  C:0DF1H         LINE#         57
  C:0DF1H         LINE#         59
  C:0DF1H         LINE#         67
  -------         ENDPROC       TWI_INT
  -------         ENDMOD        SSI_INIT

  -------         MODULE        TIMER_INIT
  C:0000H         SYMBOL        _ICE_DUMMY_
  D:0080H         PUBLIC        P0
  D:0090H         PUBLIC        P1
  D:00A0H         PUBLIC        P2
  D:008EH         PUBLIC        TMCON
  B:00A8H.7       PUBLIC        EA
  D:00A8H         PUBLIC        IE
  D:00B8H         PUBLIC        IP
  B:0080H.2       PUBLIC        P02
  D:0088H         PUBLIC        TCON
  D:0089H         PUBLIC        TMOD
  B:00A8H.1       PUBLIC        ET0
  D:008CH         PUBLIC        TH0
  D:008AH         PUBLIC        TL0
  C:0EB0H         PUBLIC        timer0
  B:0088H.4       PUBLIC        TR0
  D:00C8H         PUBLIC        T2CON
  C:11C0H         PUBLIC        Timer_Init
  D:00D0H         PUBLIC        PSW
  -------         PROC          TIMER_INIT
  C:11C0H         LINE#         10
  C:11C0H         LINE#         11
  C:11C0H         LINE#         12
  C:11C3H         LINE#         15
  C:11C6H         LINE#         16
  C:11C9H         LINE#         17
  C:11CCH         LINE#         18
  C:11CEH         LINE#         19
  C:11D0H         LINE#         20
  C:11D2H         LINE#         22
  C:11D4H         LINE#         23
  -------         ENDPROC       TIMER_INIT
  -------         PROC          TIMER0
  C:0EB0H         LINE#         31
  C:0ECDH         LINE#         33
  C:0ED0H         LINE#         34
  C:0ED3H         LINE#         35
  C:0ED5H         LINE#         37
  C:0ED8H         LINE#         38
  -------         ENDPROC       TIMER0
BL51 BANKED LINKER/LOCATER V6.22                                                      01/12/2024  15:58:37  PAGE 20


  -------         ENDMOD        TIMER_INIT

  -------         MODULE        S_TOUCHKEYCFG
  C:0000H         SYMBOL        _ICE_DUMMY_
  I:0042H         PUBLIC        ConfirmTouchCnt
  X:0000H         PUBLIC        BaseLine
  C:0DA6H         PUBLIC        CFG_OVERLOW_MAX_COUNT
  C:0EF3H         PUBLIC        TouchKeyCFGInit
  C:12FBH         PUBLIC        _GetBaseLineAdjustValue
  X:0010H         PUBLIC        FloatAreaCnt
  B:00D0H.7       PUBLIC        TK_CY
  C:0FCEH         PUBLIC        _GetCurrFingerValue
  C:0DA7H         PUBLIC        CFG_RESET_BASELINE_CNT
  C:1339H         PUBLIC        GetCsFunction
  X:0018H         PUBLIC        CurrentChannel
  X:0020H         PUBLIC        RawData
  C:12ECH         PUBLIC        IsDoubleKeyOrSlideKey
  I:0043H         PUBLIC        TouchCnt
  C:0F32H         PUBLIC        CTK_ISR
  I:004BH         PUBLIC        LowFingerDataCnt
  C:09C3H         PUBLIC        TouchKeyScan
  C:12A0H         PUBLIC        SetOneKeyPushResetTime
  C:120DH         PUBLIC        _GetScanTimeValue
  C:12DBH         PUBLIC        GetTKYzCnt
  X:0030H         PUBLIC        DifferAccum
  I:0053H         PUBLIC        RestAreaCnt
  C:11AAH         PUBLIC        _GetTKYzThreshold
  I:005BH         PUBLIC        BaseLineAdjusttmp
  C:0FFAH         PUBLIC        CurrentSensorChoose
  C:12E4H         PUBLIC        GetInitAutoUpdateTime
  I:0063H         PUBLIC        MultipleLNum
  C:0FA1H         PUBLIC        _GetCfgMsg
  X:0040H         PUBLIC        SOCAPI_TouchKeyStatus
  C:1302H         PUBLIC        GetUpConfirmCnt
  I:0065H         PUBLIC        UpdateBaseLNum
  X:0041H         PUBLIC        SetNoiseThreshold
  C:12ABH         PUBLIC        GetBaselineUpdateThreshold
  X:0042H         PUBLIC        FilterData
  C:0DA8H         PUBLIC        CFG_CYCLE_CNT
  I:0067H         PUBLIC        NoTouchCnt
  I:006FH         PUBLIC        MultipleDealTpye
  C:0D66H         PUBLIC        TKChannelCfg
  C:0D44H         PUBLIC        TKCFG
  D:00D0H         PUBLIC        TK_PSW
  -------         PROC          SETONEKEYPUSHRESETTIME
  C:12A0H         LINE#         110
  C:12A0H         LINE#         111
  C:12A0H         LINE#         112
  C:12AAH         LINE#         113
  -------         ENDPROC       SETONEKEYPUSHRESETTIME
  -------         PROC          GETBASELINEUPDATETHRESHOLD
  C:12ABH         LINE#         121
  C:12ABH         LINE#         122
  C:12ABH         LINE#         123
  C:12B5H         LINE#         124
  -------         ENDPROC       GETBASELINEUPDATETHRESHOLD
  -------         PROC          GETINITAUTOUPDATETIME
BL51 BANKED LINKER/LOCATER V6.22                                                      01/12/2024  15:58:37  PAGE 21


  C:12E4H         LINE#         133
  C:12E4H         LINE#         134
  C:12E4H         LINE#         135
  C:12EBH         LINE#         136
  -------         ENDPROC       GETINITAUTOUPDATETIME
  -------         PROC          GETCSFUNCTION
  C:1339H         LINE#         144
  C:1339H         LINE#         145
  C:1339H         LINE#         146
  C:133BH         LINE#         147
  -------         ENDPROC       GETCSFUNCTION
  -------         PROC          _GETCURRFINGERVALUE
  D:0005H         SYMBOL        i
  C:0FCEH         LINE#         155
  C:0FD0H         LINE#         156
  C:0FD0H         LINE#         157
  C:0FF9H         LINE#         158
  -------         ENDPROC       _GETCURRFINGERVALUE
  -------         PROC          _GETSCANTIMEVALUE
  D:0007H         SYMBOL        i
  C:120DH         LINE#         167
  C:120DH         LINE#         168
  C:120DH         LINE#         169
  C:121EH         LINE#         170
  -------         ENDPROC       _GETSCANTIMEVALUE
  -------         PROC          ISDOUBLEKEYORSLIDEKEY
  C:12ECH         LINE#         178
  C:12ECH         LINE#         179
  C:12ECH         LINE#         180
  C:12F3H         LINE#         181
  -------         ENDPROC       ISDOUBLEKEYORSLIDEKEY
  -------         PROC          _GETBASELINEADJUSTVALUE
  D:0007H         SYMBOL        i
  C:12FBH         LINE#         190
  C:12FBH         LINE#         191
  C:12FBH         LINE#         192
  C:1301H         LINE#         193
  -------         ENDPROC       _GETBASELINEADJUSTVALUE
  -------         PROC          GETUPCONFIRMCNT
  C:1302H         LINE#         201
  C:1302H         LINE#         202
  C:1302H         LINE#         203
  C:1308H         LINE#         204
  -------         ENDPROC       GETUPCONFIRMCNT
  -------         PROC          GETTKYZCNT
  C:12DBH         LINE#         213
  C:12DBH         LINE#         214
  C:12DBH         LINE#         215
  C:12E3H         LINE#         216
  -------         ENDPROC       GETTKYZCNT
  -------         PROC          _GETTKYZTHRESHOLD
  D:0007H         SYMBOL        i
  -------         DO            
  D:0006H         SYMBOL        SetFingerThresholdtmp
  -------         ENDDO         
  C:11AAH         LINE#         225
  C:11AAH         LINE#         226
BL51 BANKED LINKER/LOCATER V6.22                                                      01/12/2024  15:58:37  PAGE 22


  C:11AAH         LINE#         229
  C:11ADH         LINE#         230
  C:11BFH         LINE#         232
  C:11BFH         LINE#         233
  -------         ENDPROC       _GETTKYZTHRESHOLD
  -------         PROC          CURRENTSENSORCHOOSE
  -------         DO            
  D:0004H         SYMBOL        i
  D:0005H         SYMBOL        Ctk_Channel_mark
  D:0006H         SYMBOL        CurrentSensorKey
  -------         ENDDO         
  C:0FFAH         LINE#         241
  C:0FFAH         LINE#         242
  C:0FFAH         LINE#         244
  C:0FFCH         LINE#         247
  C:1000H         LINE#         249
  C:1001H         LINE#         250
  C:1001H         LINE#         251
  C:1008H         LINE#         252
  C:100BH         LINE#         253
  C:100BH         LINE#         254
  C:1017H         LINE#         255
  C:1018H         LINE#         256
  C:101EH         LINE#         257
  C:101EH         LINE#         258
  C:101EH         LINE#         259
  C:1022H         LINE#         260
  C:1024H         LINE#         261
  -------         ENDPROC       CURRENTSENSORCHOOSE
  -------         PROC          _GETCFGMSG
  D:0007H         SYMBOL        i
  C:0FA1H         LINE#         270
  C:0FA1H         LINE#         271
  C:0FA1H         LINE#         272
  C:0FB2H         LINE#         273
  C:0FB2H         LINE#         274
  C:0FB7H         LINE#         275
  C:0FBCH         LINE#         276
  C:0FBFH         LINE#         277
  C:0FC3H         LINE#         278
  C:0FCBH         LINE#         279
  C:0FCDH         LINE#         280
  C:0FCDH         LINE#         281
  -------         ENDPROC       _GETCFGMSG
  -------         PROC          TOUCHKEYCFGINIT
  -------         DO            
  D:0007H         SYMBOL        i
  -------         ENDDO         
  C:0EF3H         LINE#         290
  C:0EF3H         LINE#         291
  C:0EF3H         LINE#         293
  C:0EFCH         LINE#         294
  C:0F06H         LINE#         295
  C:0F09H         LINE#         296
  C:0F11H         LINE#         297
  C:0F11H         LINE#         298
  C:0F28H         LINE#         299
BL51 BANKED LINKER/LOCATER V6.22                                                      01/12/2024  15:58:37  PAGE 23


  C:0F2BH         LINE#         300
  C:0F31H         LINE#         301
  -------         ENDPROC       TOUCHKEYCFGINIT
  -------         PROC          TOUCHKEYSCAN
  -------         DO            
  D:0003H         SYMBOL        t
  D:0021H         SYMBOL        MultipleCnt
  D:0004H         SYMBOL        Keyvalue
  D:0022H         SYMBOL        KeyData
  -------         ENDDO         
  C:09C3H         LINE#         313
  C:09C3H         LINE#         314
  C:09C3H         LINE#         316
  C:09C6H         LINE#         318
  C:09CAH         LINE#         320
  C:09D2H         LINE#         321
  C:09D2H         LINE#         322
  C:09D9H         LINE#         323
  C:09E1H         LINE#         324
  C:09E1H         LINE#         325
  C:09E8H         LINE#         326
  C:09EBH         LINE#         327
  C:09EBH         LINE#         328
  C:0A0CH         LINE#         329
  C:0A0EH         LINE#         330
  C:0A0EH         LINE#         331
  C:0A11H         LINE#         332
  C:0A18H         LINE#         333
  C:0A18H         LINE#         334
  C:0A1AH         LINE#         335
  C:0A20H         LINE#         336
  C:0A20H         LINE#         337
  C:0A23H         LINE#         338
  C:0A25H         LINE#         340
  C:0A25H         LINE#         341
  C:0A2BH         LINE#         342
  C:0A2BH         LINE#         343
  C:0A2DH         LINE#         344
  C:0A2DH         LINE#         345
  C:0A2DH         LINE#         346
  C:0A2DH         LINE#         348
  C:0A30H         LINE#         349
  C:0A30H         LINE#         350
  C:0A36H         LINE#         351
  C:0A36H         LINE#         352
  C:0A3EH         LINE#         353
  C:0A40H         LINE#         355
  C:0A40H         LINE#         356
  C:0A46H         LINE#         357
  C:0A46H         LINE#         358
  C:0A48H         LINE#         360
  C:0A48H         LINE#         362
  C:0A50H         LINE#         363
  C:0A55H         LINE#         364
  C:0A55H         LINE#         366
  C:0A62H         LINE#         367
  C:0A62H         LINE#         368
BL51 BANKED LINKER/LOCATER V6.22                                                      01/12/2024  15:58:37  PAGE 24


  C:0A65H         LINE#         369
  C:0A6BH         LINE#         370
  C:0A6BH         LINE#         372
  C:0A77H         LINE#         373
  C:0A77H         LINE#         374
  C:0A7AH         LINE#         375
  C:0A7EH         LINE#         376
  C:0A84H         LINE#         377
  C:0A84H         LINE#         378
  C:0A86H         LINE#         380
  C:0A86H         LINE#         381
  C:0A91H         LINE#         382
  C:0A91H         LINE#         384
  C:0A95H         LINE#         385
  -------         ENDPROC       TOUCHKEYSCAN
  -------         PROC          CTK_ISR
  C:0F32H         LINE#         394
  C:0F4FH         LINE#         396
  C:0F52H         LINE#         397
  -------         ENDPROC       CTK_ISR
  -------         ENDMOD        S_TOUCHKEYCFG

  -------         MODULE        SENSORMETHOD
  C:0000H         SYMBOL        _ICE_DUMMY_
  D:00FFH         PUBLIC        OPREG
  X:0053H         PUBLIC        FlowFingerRoundIndex
  C:0BC3H         PUBLIC        _ICHAAdjust
  D:00CFH         PUBLIC        TK_WDTCR
  B:00A8H.7       PUBLIC        TK_EA
  D:00E4H         PUBLIC        TKCNT
  D:00A8H         PUBLIC        TK_IE
  D:00FEH         PUBLIC        OPINX
  C:0E6BH         PUBLIC        InitializeSensorFlag
  X:0054H         PUBLIC        ScanTime
  C:133CH         PUBLIC        TouchKeyRestart
  D:00E1H         PUBLIC        TKCFG0
  D:00E2H         PUBLIC        TKCFG1
  D:00E3H         PUBLIC        TKCFG2
  C:10CBH         PUBLIC        SensorKeyFlag
  D:0038H         PUBLIC        KeyFlag
  I:0070H         PUBLIC        FlowFingerRoundCnt
  B:0020H.0       PUBLIC        bMultiple
  D:00E8H         PUBLIC        TKCR
  C:1025H         PUBLIC        InitializeBaselines
  B:00E8H.6       PUBLIC        TRIG
  D:003AH         PUBLIC        KeyMark
  C:1342H         PUBLIC        SetNeedUpdateBaseline
  D:00A9H         PUBLIC        TK_IE1
  C:0CDAH         PUBLIC        FilterAvergeDeal
  D:00E6H         PUBLIC        TKTM
  X:0056H         PUBLIC        MultipleDealIndex
  C:0100H         PUBLIC        _SensorRenovate
  B:0020H.1       PUBLIC        bNeedUpdate
  C:0B30H         PUBLIC        TouchKeyInit
  C:05A3H         PUBLIC        _MultipleDeal
  D:003CH         PUBLIC        CurrentChannelMax
  C:125DH         PUBLIC        _Usdelay
BL51 BANKED LINKER/LOCATER V6.22                                                      01/12/2024  15:58:37  PAGE 25


  C:0885H         PUBLIC        _FilterDataDeal
  I:0072H         PUBLIC        CurrentIndex
  C:104FH         PUBLIC        FilterIIRInit
  C:0C53H         PUBLIC        TouchKey_Service
  C:133FH         PUBLIC        GetIsNeedUpdateBaseline
  I:0073H         PUBLIC        IsInNosicValue
  C:10A2H         PUBLIC        FilterCommCode
  -------         PROC          _USDELAY
  D:0006H         SYMBOL        delay
  C:125DH         LINE#         125
  C:125DH         LINE#         126
  C:125DH         LINE#         127
  C:1261H         LINE#         128
  C:1261H         LINE#         129
  C:1266H         LINE#         130
  C:1268H         LINE#         131
  -------         ENDPROC       _USDELAY
  -------         PROC          _ICHAADJUST
  D:002EH         SYMBOL        Channel
  -------         DO            
  D:002FH         SYMBOL        icha_set
  -------         ENDDO         
  C:0BC3H         LINE#         139
  C:0BC5H         LINE#         140
  C:0BC5H         LINE#         142
  C:0BCAH         LINE#         143
  C:0C01H         LINE#         144
  C:0C01H         LINE#         145
  C:0C05H         LINE#         146
  C:0C05H         LINE#         147
  C:0C06H         LINE#         148
  C:0C06H         LINE#         149
  C:0C06H         LINE#         150
  C:0C08H         LINE#         151
  C:0C3FH         LINE#         152
  C:0C3FH         LINE#         153
  C:0C45H         LINE#         154
  C:0C45H         LINE#         155
  C:0C50H         LINE#         156
  C:0C52H         LINE#         157
  C:0C52H         LINE#         158
  C:0C52H         LINE#         159
  -------         ENDPROC       _ICHAADJUST
  -------         PROC          TOUCHKEY_SERVICE
  -------         DO            
  B:0020H.3       SYMBOL        Scanflag
  -------         ENDDO         
  C:0C53H         LINE#         167
  C:0C53H         LINE#         168
  C:0C53H         LINE#         169
  C:0C55H         LINE#         171
  C:0C68H         LINE#         172
  C:0C69H         LINE#         174
  C:0C6FH         LINE#         175
  C:0C6FH         LINE#         176
  C:0C71H         LINE#         177
  C:0C78H         LINE#         178
BL51 BANKED LINKER/LOCATER V6.22                                                      01/12/2024  15:58:37  PAGE 26


  C:0C7AH         LINE#         180
  C:0C7AH         LINE#         181
  C:0C7CH         LINE#         182
  C:0C7CH         LINE#         183
  C:0C87H         LINE#         184
  C:0C9FH         LINE#         185
  C:0CB5H         LINE#         186
  C:0CC3H         LINE#         187
  C:0CD4H         LINE#         189
  C:0CD9H         LINE#         191
  -------         ENDPROC       TOUCHKEY_SERVICE
  -------         PROC          TOUCHKEYINIT
  C:0B30H         LINE#         200
  C:0B30H         LINE#         201
  C:0B30H         LINE#         202
  C:0B33H         LINE#         203
  C:0B36H         LINE#         206
  C:0B38H         LINE#         208
  C:0B3AH         LINE#         209
  C:0B3EH         LINE#         210
  C:0B42H         LINE#         212
  C:0B45H         LINE#         213
  C:0B60H         LINE#         214
  C:0B76H         LINE#         216
  C:0B8CH         LINE#         217
  C:0B94H         LINE#         218
  C:0B94H         LINE#         219
  C:0B9CH         LINE#         221
  C:0B9CH         LINE#         222
  C:0BA8H         LINE#         223
  C:0BAFH         LINE#         225
  C:0BB2H         LINE#         226
  C:0BB5H         LINE#         228
  C:0BBDH         LINE#         229
  C:0BC0H         LINE#         230
  -------         ENDPROC       TOUCHKEYINIT
  -------         PROC          TOUCHKEYRESTART
  C:133CH         LINE#         240
  C:133CH         LINE#         241
  C:133CH         LINE#         242
  C:133EH         LINE#         243
  -------         ENDPROC       TOUCHKEYRESTART
  -------         PROC          FILTERCOMMCODE
  -------         DO            
  D:0005H         SYMBOL        times
  -------         ENDDO         
  C:10A2H         LINE#         252
  C:10A2H         LINE#         253
  C:10A2H         LINE#         254
  C:10A4H         LINE#         256
  C:10ABH         LINE#         257
  C:10ADH         LINE#         259
  C:10B5H         LINE#         260
  C:10B5H         LINE#         261
  C:10BCH         LINE#         262
  C:10BFH         LINE#         263
  C:10C0H         LINE#         264
BL51 BANKED LINKER/LOCATER V6.22                                                      01/12/2024  15:58:37  PAGE 27


  C:10CAH         LINE#         265
  C:10CAH         LINE#         266
  C:10CAH         LINE#         267
  -------         ENDPROC       FILTERCOMMCODE
  -------         PROC          FILTERAVERGEDEAL
  -------         DO            
  D:0021H         SYMBOL        t
  D:0022H         SYMBOL        i
  -------         ENDDO         
  C:0CDAH         LINE#         276
  C:0CDAH         LINE#         277
  C:0CDAH         LINE#         280
  C:0CE1H         LINE#         282
  C:0CE1H         LINE#         283
  C:0CE4H         LINE#         284
  C:0CEEH         LINE#         285
  C:0CEEH         LINE#         286
  C:0D0EH         LINE#         287
  C:0D13H         LINE#         288
  C:0D17H         LINE#         289
  C:0D1EH         LINE#         290
  C:0D21H         LINE#         292
  C:0D26H         LINE#         294
  C:0D26H         LINE#         295
  C:0D29H         LINE#         296
  C:0D33H         LINE#         297
  C:0D33H         LINE#         298
  C:0D38H         LINE#         299
  C:0D3CH         LINE#         300
  C:0D43H         LINE#         301
  -------         ENDPROC       FILTERAVERGEDEAL
  -------         PROC          INITIALIZEBASELINES
  -------         DO            
  D:0007H         SYMBOL        i
  -------         ENDDO         
  C:1025H         LINE#         310
  C:1025H         LINE#         311
  C:1025H         LINE#         313
  C:102DH         LINE#         314
  C:102DH         LINE#         315
  C:104BH         LINE#         316
  C:104EH         LINE#         317
  -------         ENDPROC       INITIALIZEBASELINES
  -------         PROC          SENSORKEYFLAG
  -------         DO            
  D:0024H         SYMBOL        i
  -------         ENDDO         
  C:10CBH         LINE#         326
  C:10CBH         LINE#         327
  C:10CBH         LINE#         330
  C:10CFH         LINE#         331
  C:10D8H         LINE#         332
  C:10D8H         LINE#         333
  C:10DDH         LINE#         334
  C:10E2H         LINE#         335
  C:10E6H         LINE#         336
  C:10EAH         LINE#         337
BL51 BANKED LINKER/LOCATER V6.22                                                      01/12/2024  15:58:37  PAGE 28


  -------         ENDPROC       SENSORKEYFLAG
  -------         PROC          _SENSORRENOVATE
  D:0025H         SYMBOL        i
  -------         DO            
  D:0026H         SYMBOL        differData
  D:0028H         SYMBOL        result
  D:0029H         SYMBOL        j
  D:002AH         SYMBOL        RealConfirmTouchCnt
  D:002BH         SYMBOL        SetFingerThresholdtmp
  D:002DH         SYMBOL        testcount
  -------         ENDDO         
  C:0100H         LINE#         346
  C:0102H         LINE#         347
  C:0102H         LINE#         353
  C:0105H         LINE#         355
  C:012BH         LINE#         358
  C:013FH         LINE#         360
  C:0148H         LINE#         362
  C:0159H         LINE#         363
  C:0159H         LINE#         364
  C:015CH         LINE#         365
  C:015EH         LINE#         367
  C:015EH         LINE#         368
  C:0161H         LINE#         369
  C:0161H         LINE#         372
  C:016AH         LINE#         373
  C:016AH         LINE#         374
  C:0179H         LINE#         375
  C:0179H         LINE#         376
  C:017FH         LINE#         377
  C:017FH         LINE#         379
  C:018EH         LINE#         380
  C:018EH         LINE#         381
  C:0193H         LINE#         382
  C:0199H         LINE#         383
  C:0199H         LINE#         384
  C:019CH         LINE#         385
  C:01A5H         LINE#         386
  C:01A5H         LINE#         387
  C:01B4H         LINE#         388
  C:01B6H         LINE#         389
  C:01BAH         LINE#         390
  C:01C5H         LINE#         391
  C:01C5H         LINE#         392
  C:01CBH         LINE#         393
  C:01CBH         LINE#         394
  C:01CBH         LINE#         395
  C:01D9H         LINE#         396
  C:01D9H         LINE#         397
  C:01DCH         LINE#         399
  C:01E2H         LINE#         400
  C:01E2H         LINE#         401
  C:01EBH         LINE#         402
  C:01EBH         LINE#         403
  C:01F1H         LINE#         404
  C:01F1H         LINE#         405
  C:01FEH         LINE#         406
BL51 BANKED LINKER/LOCATER V6.22                                                      01/12/2024  15:58:37  PAGE 29


  C:01FEH         LINE#         407
  C:0201H         LINE#         408
  C:0203H         LINE#         409
  C:0203H         LINE#         410
  C:0203H         LINE#         411
  C:0207H         LINE#         412
  C:0211H         LINE#         413
  C:0211H         LINE#         414
  C:0215H         LINE#         415
  C:0215H         LINE#         416
  C:021EH         LINE#         417
  C:021EH         LINE#         418
  C:0224H         LINE#         419
  C:0224H         LINE#         420
  C:0231H         LINE#         421
  C:0231H         LINE#         422
  C:0231H         LINE#         423
  C:0233H         LINE#         424
  C:0233H         LINE#         425
  C:0233H         LINE#         426
  C:0237H         LINE#         427
  C:0237H         LINE#         428
  C:0237H         LINE#         429
  C:0237H         LINE#         431
  C:0237H         LINE#         432
  C:0241H         LINE#         433
  C:0241H         LINE#         434
  C:0243H         LINE#         435
  C:024CH         LINE#         436
  C:024CH         LINE#         437
  C:025BH         LINE#         438
  C:025BH         LINE#         439
  C:025DH         LINE#         440
  C:025DH         LINE#         441
  C:0261H         LINE#         442
  C:026CH         LINE#         443
  C:026CH         LINE#         444
  C:026FH         LINE#         445
  C:026FH         LINE#         446
  C:026FH         LINE#         447
  C:026FH         LINE#         449
  C:0275H         LINE#         450
  C:0275H         LINE#         451
  C:0277H         LINE#         452
  C:0277H         LINE#         453
  C:027FH         LINE#         454
  C:027FH         LINE#         455
  C:027FH         LINE#         458
  C:0286H         LINE#         459
  C:028DH         LINE#         460
  C:029CH         LINE#         461
  C:02A9H         LINE#         462
  C:02AAH         LINE#         465
  C:02AAH         LINE#         466
  C:02BEH         LINE#         467
  C:02BEH         LINE#         468
  C:02BEH         LINE#         469
BL51 BANKED LINKER/LOCATER V6.22                                                      01/12/2024  15:58:37  PAGE 30


  C:02BEH         LINE#         470
  C:02C4H         LINE#         471
  C:02C4H         LINE#         472
  C:02C6H         LINE#         474
  C:02C6H         LINE#         475
  C:02C9H         LINE#         476
  C:02D0H         LINE#         477
  C:02D0H         LINE#         479
  C:0304H         LINE#         480
  C:0304H         LINE#         481
  C:030BH         LINE#         482
  C:0318H         LINE#         483
  C:0321H         LINE#         484
  C:0321H         LINE#         485
  C:0334H         LINE#         486
  C:0352H         LINE#         487
  C:0352H         LINE#         488
  C:0361H         LINE#         489
  C:0361H         LINE#         490
  C:0363H         LINE#         491
  C:038BH         LINE#         492
  C:038BH         LINE#         493
  C:039DH         LINE#         494
  C:03ACH         LINE#         495
  C:03ACH         LINE#         496
  C:03ACH         LINE#         497
  C:03AFH         LINE#         498
  C:03D1H         LINE#         499
  C:03D1H         LINE#         500
  C:03D7H         LINE#         501
  C:03E4H         LINE#         502
  C:03F9H         LINE#         503
  C:03F9H         LINE#         505
  C:0410H         LINE#         506
  C:0410H         LINE#         507
  C:0417H         LINE#         508
  C:0419H         LINE#         509
  C:041DH         LINE#         510
  C:041FH         LINE#         512
  C:041FH         LINE#         513
  C:044DH         LINE#         514
  C:044DH         LINE#         515
  C:044DH         LINE#         516
  C:0455H         LINE#         517
  C:0455H         LINE#         518
  C:0458H         LINE#         519
  C:0458H         LINE#         520
  C:045AH         LINE#         521
  C:0473H         LINE#         522
  C:0473H         LINE#         523
  C:047AH         LINE#         524
  C:0480H         LINE#         525
  C:0480H         LINE#         526
  C:048EH         LINE#         527
  C:049EH         LINE#         528
  C:049EH         LINE#         529
  C:04ABH         LINE#         530
BL51 BANKED LINKER/LOCATER V6.22                                                      01/12/2024  15:58:37  PAGE 31


  C:04C8H         LINE#         531
  C:04C8H         LINE#         532
  C:04C8H         LINE#         533
  C:04C8H         LINE#         536
  C:04D7H         LINE#         537
  C:04D7H         LINE#         538
  C:04FEH         LINE#         539
  C:04FEH         LINE#         540
  C:0504H         LINE#         541
  C:0509H         LINE#         542
  C:0513H         LINE#         543
  C:0513H         LINE#         544
  C:0522H         LINE#         545
  C:0524H         LINE#         546
  C:0528H         LINE#         547
  C:0533H         LINE#         548
  C:0533H         LINE#         549
  C:0538H         LINE#         550
  C:0538H         LINE#         551
  C:0543H         LINE#         552
  C:0543H         LINE#         553
  C:0545H         LINE#         554
  C:0553H         LINE#         555
  C:055AH         LINE#         556
  C:055AH         LINE#         557
  C:055BH         LINE#         559
  C:055BH         LINE#         560
  C:0561H         LINE#         561
  C:0561H         LINE#         562
  C:0562H         LINE#         564
  C:0562H         LINE#         565
  C:0569H         LINE#         567
  C:056FH         LINE#         568
  C:056FH         LINE#         569
  C:0574H         LINE#         570
  C:0574H         LINE#         572
  C:057BH         LINE#         573
  C:057BH         LINE#         575
  C:057BH         LINE#         577
  C:0583H         LINE#         578
  C:0583H         LINE#         580
  C:0583H         LINE#         582
  C:058DH         LINE#         583
  C:058DH         LINE#         584
  C:0595H         LINE#         585
  C:0595H         LINE#         586
  C:0598H         LINE#         587
  C:0598H         LINE#         588
  C:059CH         LINE#         589
  C:05A0H         LINE#         590
  C:05A0H         LINE#         591
  C:05A2H         LINE#         592
  C:05A2H         LINE#         593
  C:05A2H         LINE#         595
  C:05A2H         LINE#         596
  -------         ENDPROC       _SENSORRENOVATE
  -------         PROC          FILTERIIRINIT
BL51 BANKED LINKER/LOCATER V6.22                                                      01/12/2024  15:58:37  PAGE 32


  -------         DO            
  D:0007H         SYMBOL        i
  -------         ENDDO         
  C:104FH         LINE#         604
  C:104FH         LINE#         605
  C:104FH         LINE#         607
  C:1057H         LINE#         608
  C:1057H         LINE#         609
  C:1075H         LINE#         610
  C:1078H         LINE#         611
  -------         ENDPROC       FILTERIIRINIT
  -------         PROC          _FILTERDATADEAL
  D:0026H         SYMBOL        i
  -------         DO            
  D:0027H         SYMBOL        FilterTemp
  D:0004H         SYMBOL        SetFingerThresholdtmp
  -------         ENDDO         
  C:0885H         LINE#         620
  C:0887H         LINE#         621
  C:0887H         LINE#         625
  C:08ADH         LINE#         627
  C:08B6H         LINE#         629
  C:08DBH         LINE#         630
  C:08DBH         LINE#         631
  C:08EBH         LINE#         632
  C:08EEH         LINE#         633
  C:091BH         LINE#         634
  C:091BH         LINE#         635
  C:0950H         LINE#         636
  C:0952H         LINE#         638
  C:0952H         LINE#         639
  C:09A2H         LINE#         640
  C:09A2H         LINE#         642
  C:09C2H         LINE#         643
  -------         ENDPROC       _FILTERDATADEAL
  -------         PROC          GETISNEEDUPDATEBASELINE
  C:133FH         LINE#         652
  C:133FH         LINE#         653
  C:133FH         LINE#         654
  C:1341H         LINE#         655
  -------         ENDPROC       GETISNEEDUPDATEBASELINE
  -------         PROC          SETNEEDUPDATEBASELINE
  C:1342H         LINE#         664
  C:1342H         LINE#         665
  C:1342H         LINE#         666
  C:1344H         LINE#         667
  -------         ENDPROC       SETNEEDUPDATEBASELINE
  -------         PROC          INITIALIZESENSORFLAG
  -------         DO            
  D:0007H         SYMBOL        i
  -------         ENDDO         
  C:0E6BH         LINE#         676
  C:0E6BH         LINE#         677
  C:0E6BH         LINE#         679
  C:0E73H         LINE#         680
  C:0E73H         LINE#         681
  C:0E79H         LINE#         682
BL51 BANKED LINKER/LOCATER V6.22                                                      01/12/2024  15:58:37  PAGE 33


  C:0E7FH         LINE#         683
  C:0E85H         LINE#         684
  C:0E93H         LINE#         685
  C:0E99H         LINE#         686
  C:0E9CH         LINE#         688
  C:0EA1H         LINE#         689
  C:0EA7H         LINE#         690
  C:0EADH         LINE#         691
  C:0EAFH         LINE#         692
  -------         ENDPROC       INITIALIZESENSORFLAG
  -------         PROC          _MULTIPLEDEAL
  D:0024H         SYMBOL        CycleCnt
  -------         DO            
  X:0052H         SYMBOL        InitSensorCnt
  D:0004H         SYMBOL        FilterTemp
  D:0025H         SYMBOL        t
  -------         ENDDO         
  C:05A3H         LINE#         701
  C:05A5H         LINE#         702
  C:05A5H         LINE#         708
  C:05B2H         LINE#         709
  C:05B2H         LINE#         710
  C:05B4H         LINE#         711
  C:05B9H         LINE#         712
  C:05B9H         LINE#         713
  C:05C2H         LINE#         714
  C:05C2H         LINE#         715
  C:05E2H         LINE#         716
  C:05E6H         LINE#         717
  C:05E6H         LINE#         718
  C:05E9H         LINE#         719
  C:05EBH         LINE#         720
  C:05F0H         LINE#         722
  C:05F0H         LINE#         724
  C:05F6H         LINE#         725
  C:05FAH         LINE#         726
  C:05FAH         LINE#         727
  C:05FDH         LINE#         728
  C:0602H         LINE#         729
  C:0602H         LINE#         731
  C:060EH         LINE#         732
  C:060EH         LINE#         733
  C:061BH         LINE#         734
  C:061BH         LINE#         735
  C:0642H         LINE#         736
  C:0647H         LINE#         737
  C:0647H         LINE#         738
  C:0687H         LINE#         739
  C:0689H         LINE#         740
  C:0689H         LINE#         742
  C:0689H         LINE#         743
  C:06C9H         LINE#         744
  C:06C9H         LINE#         745
  C:06C9H         LINE#         746
  C:06CEH         LINE#         747
  C:06D3H         LINE#         749
  C:06D8H         LINE#         750
BL51 BANKED LINKER/LOCATER V6.22                                                      01/12/2024  15:58:37  PAGE 34


  C:06D8H         LINE#         751
  C:06DEH         LINE#         752
  C:06DEH         LINE#         754
  C:06F5H         LINE#         755
  C:06F5H         LINE#         756
  C:06F7H         LINE#         757
  C:06F9H         LINE#         758
  C:06FFH         LINE#         759
  C:0716H         LINE#         760
  C:0716H         LINE#         761
  C:071BH         LINE#         762
  C:071EH         LINE#         763
  C:0721H         LINE#         764
  C:0723H         LINE#         765
  C:0723H         LINE#         766
  C:0723H         LINE#         767
  C:0723H         LINE#         768
  -------         ENDPROC       _MULTIPLEDEAL
  -------         ENDMOD        SENSORMETHOD

  -------         MODULE        ?C_STARTUP
  C:0A96H         SEGMENT       ?C_C51STARTUP
  I:0074H         SEGMENT       ?STACK
  C:0000H         PUBLIC        ?C_STARTUP
  D:00E0H         SYMBOL        ACC
  D:00F0H         SYMBOL        B
  D:0083H         SYMBOL        DPH
  D:0082H         SYMBOL        DPL
  N:0000H         SYMBOL        IBPSTACK
  N:0100H         SYMBOL        IBPSTACKTOP
  N:0100H         SYMBOL        IDATALEN
  C:0A99H         SYMBOL        IDATALOOP
  N:0000H         SYMBOL        PBPSTACK
  N:0100H         SYMBOL        PBPSTACKTOP
  N:0000H         SYMBOL        PDATALEN
  N:0000H         SYMBOL        PDATASTART
  N:0000H         SYMBOL        PPAGE
  N:0000H         SYMBOL        PPAGEENABLE
  D:00A0H         SYMBOL        PPAGE_SFR
  D:0081H         SYMBOL        SP
  C:0A96H         SYMBOL        STARTUP1
  N:0000H         SYMBOL        XBPSTACK
  N:0000H         SYMBOL        XBPSTACKTOP
  N:0300H         SYMBOL        XDATALEN
  C:0AA4H         SYMBOL        XDATALOOP
  N:0000H         SYMBOL        XDATASTART
  C:0000H         LINE#         126
  C:0A96H         LINE#         133
  C:0A98H         LINE#         134
  C:0A99H         LINE#         135
  C:0A9AH         LINE#         136
  C:0A9CH         LINE#         140
  C:0A9FH         LINE#         141
  C:0AA1H         LINE#         145
  C:0AA3H         LINE#         147
  C:0AA4H         LINE#         148
  C:0AA5H         LINE#         149
BL51 BANKED LINKER/LOCATER V6.22                                                      01/12/2024  15:58:37  PAGE 35


  C:0AA6H         LINE#         150
  C:0AA8H         LINE#         151
  C:0AAAH         LINE#         185
  C:0AADH         LINE#         196
  -------         ENDMOD        ?C_STARTUP

  -------         MODULE        ?C?FPCMP
  C:0726H         PUBLIC        ?C?FPCMP
  C:0724H         PUBLIC        ?C?FPCMP3
  -------         ENDMOD        ?C?FPCMP

  -------         MODULE        ?C?FCAST
  C:07A7H         PUBLIC        ?C?FCASTC
  C:07A2H         PUBLIC        ?C?FCASTI
  C:079DH         PUBLIC        ?C?FCASTL
  -------         ENDMOD        ?C?FCAST

  -------         MODULE        ?C?IMUL
  C:07DBH         PUBLIC        ?C?IMUL
  -------         ENDMOD        ?C?IMUL

  -------         MODULE        ?C?UIDIV
  C:07EDH         PUBLIC        ?C?UIDIV
  -------         ENDMOD        ?C?UIDIV

  -------         MODULE        ?C?IILDX
  C:0842H         PUBLIC        ?C?IILDX
  -------         ENDMOD        ?C?IILDX

  -------         MODULE        ?C?LNEG
  C:0858H         PUBLIC        ?C?LNEG
  -------         ENDMOD        ?C?LNEG

  -------         MODULE        ?C?ULSHR
  C:0866H         PUBLIC        ?C?ULSHR
  -------         ENDMOD        ?C?ULSHR

  -------         MODULE        ?C?OFFXADD
  C:0879H         PUBLIC        ?C?OFFXADD
  -------         ENDMOD        ?C?OFFXADD

Program Size: data=116.4 xdata=87 code=4701
LINK/LOCATE RUN COMPLETE.  0 WARNING(S),  0 ERROR(S)
