C51 COMPILER V9.60.7.0   APP_SYS_POWERON                                                   03/27/2024 13:15:00 PAGE 1   


C51 COMPILER V9.60.7.0, COMPILATION OF MODULE APP_SYS_POWERON
OBJECT MODULE PLACED IN .\Objects\App_Sys_PowerOn.obj
COMPILER INVOKED BY: D:\Program Files\Keil_v5\C51\BIN\C51.EXE user\APP\c\App_Sys_PowerOn.c OPTIMIZE(1,SPEED) BROWSE INCD
                    -IR(.\user\API\h;.\user\APP\h;.\user) DEBUG OBJECTEXTEND PRINT(.\Listings\App_Sys_PowerOn.lst) TABS(2) OBJECT(.\Objects\A
                    -pp_Sys_PowerOn.obj)

line level    source

   1          #include "Api_SysBase.h"
   2          #include "App_Sys_PowerOn.h"
   3          #include "Global.h"
   4          
   5          u8 u8PowerOn_count;
   6          
   7          static void App_Sys_PowerOn_Key_Proc(void)
   8          {
   9   1      
  10   1      }
  11          static void App_Sys_PowerOn_Com_Proc(void)
  12          {
  13   1      
  14   1      }
  15          static void App_Sys_PowerOn_Diagnose_Proc(void)
  16          {
  17   1      
  18   1      }
  19          
  20          static void App_Sys_PowerOn_Lcd_Proc(void)
  21          {
  22   1        
  23   1      }
  24                  
  25          void App_Sys_PowerOn_Led_Proc(void)
  26          {
  27   1        
  28   1      }
  29          
  30          /**************************************************
  31          *函数名称：void App_Sys_PowerOnQuite(void)
  32          *函数功能：状态机切换，1.5s后从上电状态切换到开机状态
  33          *入口参数：u8PowerOn_count
  34          *出口参数：
  35          *运行时基：10ms
  36          **************************************************/
  37          void App_Sys_PowerOnQuite(void)
  38          {
  39   1        u8PowerOn_count++;
  40   1        if(u8PowerOn_count >= 150)
  41   1        {
  42   2          u8PowerOn_count = 150;
  43   2          Api_SysBase_SetState(SYS_STATE_TURNON);
  44   2        }
  45   1      }
  46          
  47          /**************************************************
  48          *函数名称：void App_Sys_ClearPowerOnCount(void)
  49          *函数功能：清上电计时器
  50          *入口参数：u8PowerOn_count
  51          *出口参数：u8PowerOn_count
  52          *运行时基：初始化时调用
  53          **************************************************/
C51 COMPILER V9.60.7.0   APP_SYS_POWERON                                                   03/27/2024 13:15:00 PAGE 2   

  54          void App_Sys_ClearPowerOnCount(void)
  55          {
  56   1        u8PowerOn_count = 0;
  57   1      }
  58          
  59          /**************************************************
  60          *函数名称：void App_Sys_PowerOn_Cycle(void)
  61          *函数功能：状态机-上电状态，运行上电状态的功能函数
  62          *入口参数：sysCB.state
  63          *出口参数：
  64          *运行时基：10ms
  65          **************************************************/
  66          void App_Sys_PowerOn_Cycle(void)
  67          {
  68   1          if(Api_SysBase_IsEnter())
  69   1          {
  70   2              Api_SysBase_ClearEnterFlag();
  71   2          }
  72   1          
  73   1          if(Api_SysBase_IsQuite())
  74   1          {
  75   2              Api_SysBase_ClearQuiteFlag();
  76   2              Api_SysBase_SetEnterFlag();
  77   2          }
  78   1          else if(Api_SysBase_GetState()==SYS_STATE_POWERON)
  79   1          {
  80   2          App_Sys_PowerOnQuite();
  81   2          }
  82   1      }


MODULE INFORMATION:   STATIC OVERLAYABLE
   CODE SIZE        =     59    ----
   CONSTANT SIZE    =   ----    ----
   XDATA SIZE       =   ----    ----
   PDATA SIZE       =   ----    ----
   DATA SIZE        =      1    ----
   IDATA SIZE       =   ----    ----
   BIT SIZE         =   ----    ----
END OF MODULE INFORMATION.


C51 COMPILATION COMPLETE.  0 WARNING(S),  0 ERROR(S)
