C51 COMPILER V9.60.7.0   SSI_INIT                                                          03/27/2024 13:15:02 PAGE 1   


C51 COMPILER V9.60.7.0, COMPILATION OF MODULE SSI_INIT
OBJECT MODULE PLACED IN .\Objects\SSI_Init.obj
COMPILER INVOKED BY: D:\Program Files\Keil_v5\C51\BIN\C51.EXE Drv\c\SSI_Init.c OPTIMIZE(1,SPEED) BROWSE INCDIR(.\user\AP
                    -I\h;.\user\APP\h;.\user) DEBUG OBJECTEXTEND PRINT(.\Listings\SSI_Init.lst) TABS(2) OBJECT(.\Objects\SSI_Init.obj)

line level    source

   1          #include "Drv\H\Function_Init.H"
   2          #include "Global.h"
   3          #include "App.h"
   4          
   5          //选择三合一模式：
   6          #define  Uart1  0
   7          #define  TWI    1
   8          #define  SPI    2
   9          
  10          #define  SSI_Mode  TWI
  11          
  12          void TWI_Init(void);
  13          
  14          bit TWIFlag = 0;          //中断标志位
  15          
  16          /*****************************************************
  17          *函数名称：void TWI_Init(void)
  18          *函数功能：TWI初始化
  19          *入口参数：void
  20          *出口参数：void
  21          *****************************************************/
  22          void TWI_Init(void)
  23          {
  24   1        OTCON |= 0x80;  //选择TWI模式
  25   1        SSCON0 = 0x88;  // ---- x---  0为不允许接收，1为允许接收
  26   1        SSCON1 = 0xB0;  //xxxx xxxy  x为地址寄存器，y为0禁止/1允许通用地址响应
  27   1        IE1 |= 0x01;
  28   1        EA = 1;
  29   1        
  30   1      //   OTCON |= 0x80; //选择TWI模式
  31   1      // SSCON0 = 0x88; // ---- x--- ?0为不允许接收，1为允许接收
  32   1      // SSCON1 = 0xB0; //xxxx xxxy ?x为地址寄存器，y为0禁止/1允许通用地址响应
  33   1      // IE1 |= 0x01;
  34   1      // IP1 |= 0x01; 
  35   1      // EA = 1;
  36   1      }
  37          
  38          /**************************************************
  39          *函数名称:void SSI_TWI_AcknowledgeConfig(FunctionalState NewState)
  40          *函数功能:TWI接收应答使能函数
  41          *入口参数:
  42          FunctionalState:NewState:接收应答使能/失能选择
  43          *出口参数:void
  44          **************************************************/
  45          void SSI_TWI_AcknowledgeConfig(u8 NewState)
  46          {
  47   1        if(NewState != 0)
  48   1        {
  49   2          SSCON0 |= 0X08;
  50   2        }
  51   1        else
  52   1        {
  53   2          SSCON0 &= 0XF7;
  54   2        }
C51 COMPILER V9.60.7.0   SSI_INIT                                                          03/27/2024 13:15:02 PAGE 2   

  55   1      }
  56          
  57          
  58          void TWI_Int() interrupt 7     //TWI中断函数
  59          {
  60   1        u8 state;
  61   1        
  62   1        SSCON0 &= ~(1<<6);  //清中断标志
  63   1        state = SSCON0 & 0x07;//读取TWI状态
  64   1        
  65   1      
  66   1        
  67   1        switch(state)
  68   1        {
  69   2          case 0:   //空闲
  70   2          //  SSI_TWI_AcknowledgeConfig(1);
  71   2        
  72   2            Api_Twi_ClearTxCount();
  73   2            Api_Twi_ClearRxCount();
  74   2          break;
  75   2          
  76   2          case 1:   
  77   2            
  78   2          break;
  79   2          
  80   2          case 2:   //接收中断
  81   2            Api_Twi_Rx();
  82   2          break;
  83   2          
  84   2          case 3:   //发送中断
  85   2          //  Api_Twi_TxDataLoad();
  86   2      
  87   2            delay_us();
  88   2        
  89   2            Api_Twi_Tx();
  90   2          break;
  91   2          
  92   2          case 4:   //主机回uack
  93   2            Api_Twi_ClearTxCount();
  94   2          break;
  95   2          
  96   2          default:
  97   2            break;
  98   2          
  99   2        }
 100   1        
 101   1        
 102   1      //  if(SSCON0&0x40)
 103   1      //  {
 104   1      //    SSCON0 &= 0xbf;  //中断清零
 105   1      //    TWIFlag = 1;
 106   1      //  } 
 107   1      }


MODULE INFORMATION:   STATIC OVERLAYABLE
   CODE SIZE        =    140    ----
   CONSTANT SIZE    =   ----    ----
   XDATA SIZE       =   ----    ----
   PDATA SIZE       =   ----    ----
   DATA SIZE        =      2    ----
   IDATA SIZE       =   ----    ----
C51 COMPILER V9.60.7.0   SSI_INIT                                                          03/27/2024 13:15:02 PAGE 3   

   BIT SIZE         =      1    ----
END OF MODULE INFORMATION.


C51 COMPILATION COMPLETE.  0 WARNING(S),  0 ERROR(S)
