BL51 BANKED LINKER/LOCATER V6.22.4.0                                                    03/27/2024  13:15:03  PAGE 1


BL51 BANKED LINKER/LOCATER V6.22.4.0, INVOKED BY:
D:\PROGRAM FILES\KEIL_V5\C51\BIN\BL51.EXE .\Objects\main.obj, .\Objects\Global.obj, .\Objects\App.obj, .\Objects\App_Sys
>> .obj, .\Objects\App_Sys_PowerOn.obj, .\Objects\App_Sys_TurnOn.obj, .\Objects\Api_Tick.obj, .\Objects\Api_SysBase.obj,
>>  .\Objects\Api_TK.obj, .\Objects\Api_Twi.obj, .\Objects\Api_Led.obj, .\Objects\IO_Init.obj, .\Objects\SSI_Init.obj, .
>> \Objects\Timer_Init.obj, .\Objects\S_TouchKeyCFG.obj, .\lib\SC92F8X7X_HighSensitive_Lib_T1_S_V1.3.0.LIB, .\Objects\ST
>> ARTUP.obj TO .\Objects\X5BC05-TK20240103 PRINT (.\Listings\X5BC05-TK20240103.m51) RAMSIZE (256) DISABLEWARNING (16) C
>> ODE (0X100)


MEMORY MODEL: SMALL WITH FLOATING POINT ARITHMETIC


INPUT MODULES INCLUDED:
  .\Objects\main.obj (MAIN)
  .\Objects\Global.obj (GLOBAL)
  .\Objects\App.obj (APP)
  .\Objects\App_Sys.obj (APP_SYS)
  .\Objects\App_Sys_PowerOn.obj (APP_SYS_POWERON)
  .\Objects\App_Sys_TurnOn.obj (APP_SYS_TURNON)
  .\Objects\Api_Tick.obj (API_TICK)
  .\Objects\Api_SysBase.obj (API_SYSBASE)
  .\Objects\Api_TK.obj (API_TK)
  .\Objects\Api_Twi.obj (API_TWI)
  .\Objects\Api_Led.obj (API_LED)
  .\Objects\IO_Init.obj (IO_INIT)
  .\Objects\SSI_Init.obj (SSI_INIT)
  .\Objects\Timer_Init.obj (TIMER_INIT)
  .\Objects\S_TouchKeyCFG.obj (S_TOUCHKEYCFG)
  .\lib\SC92F8X7X_HighSensitive_Lib_T1_S_V1.3.0.LIB (SENSORMETHOD)
  .\Objects\STARTUP.obj (?C_STARTUP)
  D:\PROGRAM FILES\KEIL_V5\C51\LIB\C51FPS.LIB (?C?FPCMP)
  D:\PROGRAM FILES\KEIL_V5\C51\LIB\C51FPS.LIB (?C?FCAST)
  D:\PROGRAM FILES\KEIL_V5\C51\LIB\C51S.LIB (?C_INIT)
  D:\PROGRAM FILES\KEIL_V5\C51\LIB\C51S.LIB (?C?IMUL)
  D:\PROGRAM FILES\KEIL_V5\C51\LIB\C51S.LIB (?C?UIDIV)
  D:\PROGRAM FILES\KEIL_V5\C51\LIB\C51S.LIB (?C?IILDX)
  D:\PROGRAM FILES\KEIL_V5\C51\LIB\C51S.LIB (?C?LNEG)
  D:\PROGRAM FILES\KEIL_V5\C51\LIB\C51S.LIB (?C?OFFXADD)
  D:\PROGRAM FILES\KEIL_V5\C51\LIB\C51S.LIB (?C?CCASE)


LINK MAP OF MODULE:  .\Objects\X5BC05-TK20240103 (MAIN)


            TYPE    BASE      LENGTH    RELOCATION   SEGMENT NAME
            -----------------------------------------------------

            * * * * * * *   D A T A   M E M O R Y   * * * * * * *
            REG     0000H     0008H     ABSOLUTE     "REG BANK 0"
            DATA    0008H     0012H     UNIT         ?DT?API_TWI
            DATA    001AH     0006H     UNIT         ?DT?GLOBAL
            BIT     0020H.0   0000H.2   UNIT         ?BI?SENSORMETHOD
            BIT     0020H.2   0000H.1   UNIT         ?BI?SSI_INIT
            BIT     0020H.3   0000H.1   UNIT         _BIT_GROUP_
                    0020H.4   0000H.4                *** GAP ***
            DATA    0021H     000CH     UNIT         _DATA_GROUP_
            DATA    002DH     0008H     UNIT         ?DT?API_TICK
            DATA    0035H     0006H     UNIT         ?DT?TOUCHKEYSCAN?S_TOUCHKEYCFG
BL51 BANKED LINKER/LOCATER V6.22.4.0                                                  03/27/2024  13:15:03  PAGE 2


            DATA    003BH     0005H     UNIT         ?DT?SENSORMETHOD
            DATA    0040H     0004H     UNIT         ?DT?API_SYSBASE
            DATA    0044H     0004H     UNIT         ?DT?CURRENTSENSORCHOOSE?S_TOUCHKEYCFG
            DATA    0048H     0003H     UNIT         ?DT?_GETTKYZTHRESHOLD?S_TOUCHKEYCFG
            DATA    004BH     0001H     UNIT         ?DT?APP_SYS_POWERON
            DATA    004CH     0001H     UNIT         ?DT?_API_SYSBASE_SETSTATE?API_SYSBASE
            DATA    004DH     0001H     UNIT         ?DT?_SSI_TWI_CMD?API_TWI
            DATA    004EH     0001H     UNIT         ?DT?API_TWI_TXDATALOAD?API_TWI
            DATA    004FH     0001H     UNIT         ?DT?_SSI_TWI_ACKNOWLEDGECONFIG?SSI_INIT
            DATA    0050H     0001H     UNIT         ?DT?TWI_INT?SSI_INIT
            DATA    0051H     0001H     UNIT         ?DT?_GETCURRFINGERVALUE?S_TOUCHKEYCFG
            DATA    0052H     0001H     UNIT         ?DT?_GETSCANTIMEVALUE?S_TOUCHKEYCFG
            DATA    0053H     0001H     UNIT         ?DT?_GETBASELINEADJUSTVALUE?S_TOUCHKEYCFG
            DATA    0054H     0001H     UNIT         ?DT?_GETCFGMSG?S_TOUCHKEYCFG
            DATA    0055H     0001H     UNIT         ?DT?TOUCHKEYCFGINIT?S_TOUCHKEYCFG
            IDATA   0056H     0029H     UNIT         ?ID?S_TOUCHKEYCFG
            IDATA   007FH     0004H     UNIT         ?ID?SENSORMETHOD
            IDATA   0083H     0001H     UNIT         ?STACK

            * * * * * * *  X D A T A   M E M O R Y  * * * * * * *
            XDATA   0000H     0048H     UNIT         ?XD?S_TOUCHKEYCFG
            XDATA   0048H     0005H     UNIT         ?XD?SENSORMETHOD

            * * * * * * *   C O D E   M E M O R Y   * * * * * * *
            CODE    0000H     0003H     ABSOLUTE     
                    0003H     0008H                  *** GAP ***
            CODE    000BH     0003H     ABSOLUTE     
                    000EH     002DH                  *** GAP ***
            CODE    003BH     0003H     ABSOLUTE     
                    003EH     001DH                  *** GAP ***
            CODE    005BH     0003H     ABSOLUTE     
                    005EH     00A2H                  *** GAP ***
            CODE    0100H     04A3H     UNIT         ?PR?_SENSORRENOVATE?SENSORMETHOD
            CODE    05A3H     01E1H     UNIT         ?PR?DELAY_US?API_TWI
            CODE    0784H     0181H     UNIT         ?PR?_MULTIPLEDEAL?SENSORMETHOD
            CODE    0905H     0174H     UNIT         ?C?LIB_CODE
            CODE    0A79H     013EH     UNIT         ?PR?_FILTERDATADEAL?SENSORMETHOD
            CODE    0BB7H     00EBH     UNIT         ?PR?TOUCHKEYSCAN?S_TOUCHKEYCFG
            CODE    0CA2H     009AH     UNIT         ?C_C51STARTUP
            CODE    0D3CH     0093H     UNIT         ?PR?TOUCHKEYINIT?SENSORMETHOD
            CODE    0DCFH     0090H     UNIT         ?PR?_ICHAADJUST?SENSORMETHOD
            CODE    0E5FH     0087H     UNIT         ?PR?TOUCHKEY_SERVICE?SENSORMETHOD
            CODE    0EE6H     006FH     UNIT         ?PR?TWI_INT?SSI_INIT
            CODE    0F55H     006AH     UNIT         ?PR?FILTERAVERGEDEAL?SENSORMETHOD
            CODE    0FBFH     0060H     UNIT         ?PR?API_TICK_MS?API_TICK
            CODE    101FH     005DH     UNIT         ?CO?S_TOUCHKEYCFG
            CODE    107CH     004FH     UNIT         ?PR?API_TWI_TXDATALOAD?API_TWI
            CODE    10CBH     004FH     UNIT         ?PR?TOUCHKEYCFGINIT?S_TOUCHKEYCFG
            CODE    111AH     0045H     UNIT         ?PR?INITIALIZESENSORFLAG?SENSORMETHOD
            CODE    115FH     0044H     UNIT         ?PR?_GETCFGMSG?S_TOUCHKEYCFG
            CODE    11A3H     0043H     UNIT         ?PR?TIMER0?TIMER_INIT
            CODE    11E6H     0041H     UNIT         ?PR?CURRENTSENSORCHOOSE?S_TOUCHKEYCFG
            CODE    1227H     003BH     UNIT         ?PR?CTK_ISR?S_TOUCHKEYCFG
            CODE    1262H     0034H     UNIT         ?PR?_GETCURRFINGERVALUE?S_TOUCHKEYCFG
            CODE    1296H     002CH     UNIT         ?PR?API_TWI_RX?API_TWI
            CODE    12C2H     002BH     UNIT         ?PR?APP_SYS_CYCLE?APP_SYS
            CODE    12EDH     002AH     UNIT         ?PR?INITIALIZEBASELINES?SENSORMETHOD
BL51 BANKED LINKER/LOCATER V6.22.4.0                                                  03/27/2024  13:15:03  PAGE 3


            CODE    1317H     002AH     UNIT         ?PR?FILTERIIRINIT?SENSORMETHOD
            CODE    1341H     0029H     UNIT         ?PR?FILTERCOMMCODE?SENSORMETHOD
            CODE    136AH     0021H     UNIT         ?PR?_GETTKYZTHRESHOLD?S_TOUCHKEYCFG
            CODE    138BH     0020H     UNIT         ?PR?MAIN?MAIN
            CODE    13ABH     0020H     UNIT         ?PR?APP_SYS_POWERON_CYCLE?APP_SYS_POWERON
            CODE    13CBH     0020H     UNIT         ?PR?SENSORKEYFLAG?SENSORMETHOD
            CODE    13EBH     001EH     UNIT         ?PR?SYSTICK_HANDLER?API_TICK
            CODE    1409H     001EH     UNIT         ?PR?SYS_SCAN?API_TK
            CODE    1427H     001AH     UNIT         ?PR?APP_SYS_TURNON_CYCLE?APP_SYS_TURNON
            CODE    1441H     001AH     UNIT         ?PR?API_TWI_TX?API_TWI
            CODE    145BH     0019H     UNIT         ?PR?IO_INIT?IO_INIT
            CODE    1474H     0016H     UNIT         ?PR?APP_CYCLE?APP
            CODE    148AH     0016H     UNIT         ?PR?API_TICK_INIT?API_TICK
            CODE    14A0H     0015H     UNIT         ?PR?API_TWI_STATE?API_TWI
            CODE    14B5H     0015H     UNIT         ?PR?TIMER_INIT?TIMER_INIT
            CODE    14CAH     0014H     UNIT         ?PR?_GETSCANTIMEVALUE?S_TOUCHKEYCFG
            CODE    14DEH     0013H     UNIT         ?C_INITSEG
            CODE    14F1H     0012H     UNIT         ?PR?APP_SYS_POWERONQUITE?APP_SYS_POWERON
            CODE    1503H     0012H     UNIT         ?PR?_API_SYSBASE_SETSTATE?API_SYSBASE
            CODE    1515H     000FH     UNIT         ?PR?TWI_INIT?SSI_INIT
            CODE    1524H     000EH     UNIT         ?PR?_SSI_TWI_CMD?API_TWI
            CODE    1532H     000EH     UNIT         ?PR?_SSI_TWI_ACKNOWLEDGECONFIG?SSI_INIT
            CODE    1540H     000DH     UNIT         ?PR?API_TWI_INIT?API_TWI
            CODE    154DH     000CH     UNIT         ?PR?_USDELAY?SENSORMETHOD
            CODE    1559H     000BH     UNIT         ?PR?API_TICK_POPFLAG_10MS?API_TICK
            CODE    1564H     000BH     UNIT         ?PR?API_TICK_POPFLAG_50MS?API_TICK
            CODE    156FH     000BH     UNIT         ?PR?API_TICK_POPFLAG_100MS?API_TICK
            CODE    157AH     000BH     UNIT         ?PR?API_TICK_POPFLAG_500MS?API_TICK
            CODE    1585H     000BH     UNIT         ?PR?API_TICK_POPFLAG_1000MS?API_TICK
            CODE    1590H     000BH     UNIT         ?PR?SETONEKEYPUSHRESETTIME?S_TOUCHKEYCFG
            CODE    159BH     000BH     UNIT         ?PR?GETBASELINEUPDATETHRESHOLD?S_TOUCHKEYCFG
            CODE    15A6H     000BH     UNIT         ?PR?GETINITAUTOUPDATETIME?S_TOUCHKEYCFG
            CODE    15B1H     000BH     UNIT         ?PR?ISDOUBLEKEYORSLIDEKEY?S_TOUCHKEYCFG
            CODE    15BCH     000AH     UNIT         ?PR?APP_INIT?APP
            CODE    15C6H     000AH     UNIT         ?PR?API_SYSBASE_INIT?API_SYSBASE
            CODE    15D0H     000AH     UNIT         ?PR?GETTKYZCNT?S_TOUCHKEYCFG
            CODE    15DAH     0009H     UNIT         ?PR?API_TK_GETTKVALUE?API_TK
            CODE    15E3H     0009H     UNIT         ?PR?_GETBASELINEADJUSTVALUE?S_TOUCHKEYCFG
            CODE    15ECH     0008H     UNIT         ?PR?GETUPCONFIRMCNT?S_TOUCHKEYCFG
            CODE    15F4H     0007H     UNIT         ?PR?API_SYSBASE_GETSYSCB?API_SYSBASE
            CODE    15FBH     0005H     UNIT         ?PR?API_TICK_GETMSTICK?API_TICK
            CODE    1600H     0004H     UNIT         ?PR?APP_SYS_INIT?APP_SYS
            CODE    1604H     0004H     UNIT         ?PR?APP_SYS_CLEARPOWERONCOUNT?APP_SYS_POWERON
            CODE    1608H     0004H     UNIT         ?PR?API_SYSBASE_SETENTERFLAG?API_SYSBASE
            CODE    160CH     0004H     UNIT         ?PR?API_SYSBASE_CLEARENTERFLAG?API_SYSBASE
            CODE    1610H     0004H     UNIT         ?PR?API_SYSBASE_SETQUITEFLAG?API_SYSBASE
            CODE    1614H     0004H     UNIT         ?PR?API_SYSBASE_CLEARQUITEFLAG?API_SYSBASE
            CODE    1618H     0004H     UNIT         ?PR?API_TWI_CLEARRXCOUNT?API_TWI
            CODE    161CH     0004H     UNIT         ?PR?API_TWI_CLEARTXCOUNT?API_TWI
            CODE    1620H     0003H     UNIT         ?PR?API_SYSBASE_GETSTATE?API_SYSBASE
            CODE    1623H     0003H     UNIT         ?PR?API_SYSBASE_GETLASTSTATE?API_SYSBASE
            CODE    1626H     0003H     UNIT         ?PR?API_SYSBASE_ISENTER?API_SYSBASE
            CODE    1629H     0003H     UNIT         ?PR?API_SYSBASE_ISQUITE?API_SYSBASE
            CODE    162CH     0003H     UNIT         ?PR?GETCSFUNCTION?S_TOUCHKEYCFG
            CODE    162FH     0003H     UNIT         ?PR?TOUCHKEYRESTART?SENSORMETHOD
            CODE    1632H     0003H     UNIT         ?PR?GETISNEEDUPDATEBASELINE?SENSORMETHOD
            CODE    1635H     0003H     UNIT         ?PR?SETNEEDUPDATEBASELINE?SENSORMETHOD
BL51 BANKED LINKER/LOCATER V6.22.4.0                                                  03/27/2024  13:15:03  PAGE 4


            CODE    1638H     0001H     UNIT         ?PR?APP_SYS_POWERON_KEY_PROC?APP_SYS_POWERON
            CODE    1639H     0001H     UNIT         ?PR?APP_SYS_POWERON_COM_PROC?APP_SYS_POWERON
            CODE    163AH     0001H     UNIT         ?PR?APP_SYS_POWERON_DIAGNOSE_PROC?APP_SYS_POWERON
            CODE    163BH     0001H     UNIT         ?PR?APP_SYS_POWERON_LCD_PROC?APP_SYS_POWERON
            CODE    163CH     0001H     UNIT         ?PR?APP_SYS_POWERON_LED_PROC?APP_SYS_POWERON
            CODE    163DH     0001H     UNIT         ?PR?APP_SYS_TURNON_KEY_PROC?APP_SYS_TURNON
            CODE    163EH     0001H     UNIT         ?PR?APP_SYS_TURNON_COM_PROC?APP_SYS_TURNON
            CODE    163FH     0001H     UNIT         ?PR?APP_SYS_TURNON_DIAGNOSE_PROC?APP_SYS_TURNON
            CODE    1640H     0001H     UNIT         ?PR?APP_SYS_TURNON_LCD_PROC?APP_SYS_TURNON
            CODE    1641H     0001H     UNIT         ?PR?APP_SYS_TURNON_LED_PROC?APP_SYS_TURNON
            CODE    1642H     0001H     UNIT         ?PR?API_LED_GETLEDDATA?API_LED
            CODE    1643H     0001H     UNIT         ?PR?API_LED_CONTRIL?API_LED



OVERLAY MAP OF MODULE:   .\Objects\X5BC05-TK20240103 (MAIN)


SEGMENT                                             BIT_GROUP          DATA_GROUP 
  +--> CALLED SEGMENT                            START    LENGTH     START    LENGTH
------------------------------------------------------------------------------------
?PR?TWI_INT?SSI_INIT                             -----    -----      -----    -----
  +--> ?PR?API_TWI_CLEARTXCOUNT?API_TWI
  +--> ?PR?API_TWI_CLEARRXCOUNT?API_TWI
  +--> ?PR?API_TWI_RX?API_TWI
  +--> ?PR?DELAY_US?API_TWI
  +--> ?PR?API_TWI_TX?API_TWI

?PR?API_TWI_RX?API_TWI                           -----    -----      -----    -----
  +--> ?PR?API_LED_GETLEDDATA?API_LED

*** NEW ROOT ***************************************************

?PR?TIMER0?TIMER_INIT                            -----    -----      -----    -----
  +--> ?PR?SYSTICK_HANDLER?API_TICK

?PR?SYSTICK_HANDLER?API_TICK                     -----    -----      -----    -----
  +--> ?PR?API_TICK_MS?API_TICK

*** NEW ROOT ***************************************************

?PR?CTK_ISR?S_TOUCHKEYCFG                        -----    -----      -----    -----
  +--> ?PR?TOUCHKEY_SERVICE?SENSORMETHOD

?PR?TOUCHKEY_SERVICE?SENSORMETHOD                0020H.3  0000H.1    -----    -----
  +--> ?PR?_GETCFGMSG?S_TOUCHKEYCFG
  +--> ?PR?_GETSCANTIMEVALUE?S_TOUCHKEYCFG
  +--> ?PR?_GETBASELINEADJUSTVALUE?S_TOUCHKE...

?PR?_GETCFGMSG?S_TOUCHKEYCFG                     -----    -----      -----    -----
  +--> ?CO?S_TOUCHKEYCFG

?PR?_GETSCANTIMEVALUE?S_TOUCHKEYCFG              -----    -----      -----    -----
  +--> ?CO?S_TOUCHKEYCFG

*** NEW ROOT ***************************************************

BL51 BANKED LINKER/LOCATER V6.22.4.0                                                  03/27/2024  13:15:03  PAGE 5


?C_C51STARTUP                                    -----    -----      -----    -----
  +--> ?PR?MAIN?MAIN
  +--> ?C_INITSEG

?PR?MAIN?MAIN                                    -----    -----      -----    -----
  +--> ?PR?IO_INIT?IO_INIT
  +--> ?PR?TIMER_INIT?TIMER_INIT
  +--> ?PR?TWI_INIT?SSI_INIT
  +--> ?PR?TOUCHKEYINIT?SENSORMETHOD
  +--> ?PR?APP_INIT?APP
  +--> ?PR?SYS_SCAN?API_TK
  +--> ?PR?API_TWI_TXDATALOAD?API_TWI

?PR?TOUCHKEYINIT?SENSORMETHOD                    -----    -----      -----    -----
  +--> ?PR?TOUCHKEYCFGINIT?S_TOUCHKEYCFG
  +--> ?PR?_GETCFGMSG?S_TOUCHKEYCFG
  +--> ?PR?_GETSCANTIMEVALUE?S_TOUCHKEYCFG
  +--> ?PR?INITIALIZESENSORFLAG?SENSORMETHOD
  +--> ?PR?FILTERAVERGEDEAL?SENSORMETHOD
  +--> ?PR?INITIALIZEBASELINES?SENSORMETHOD

?PR?TOUCHKEYCFGINIT?S_TOUCHKEYCFG                -----    -----      -----    -----
  +--> ?CO?S_TOUCHKEYCFG
  +--> ?PR?CURRENTSENSORCHOOSE?S_TOUCHKEYCFG

?PR?FILTERAVERGEDEAL?SENSORMETHOD                -----    -----      0021H    0002H
  +--> ?CO?S_TOUCHKEYCFG
  +--> ?PR?FILTERCOMMCODE?SENSORMETHOD
  +--> ?PR?_ICHAADJUST?SENSORMETHOD
  +--> ?PR?FILTERIIRINIT?SENSORMETHOD
  +--> ?PR?GETINITAUTOUPDATETIME?S_TOUCHKEYCFG
  +--> ?PR?_FILTERDATADEAL?SENSORMETHOD

?PR?FILTERCOMMCODE?SENSORMETHOD                  -----    -----      -----    -----
  +--> ?PR?_USDELAY?SENSORMETHOD

?PR?_ICHAADJUST?SENSORMETHOD                     -----    -----      002BH    0002H
  +--> ?PR?_GETBASELINEADJUSTVALUE?S_TOUCHKE...
  +--> ?PR?_GETSCANTIMEVALUE?S_TOUCHKEYCFG

?PR?GETINITAUTOUPDATETIME?S_TOUCHKEYCFG          -----    -----      -----    -----
  +--> ?CO?S_TOUCHKEYCFG

?PR?_FILTERDATADEAL?SENSORMETHOD                 -----    -----      0023H    0003H
  +--> ?PR?_GETCURRFINGERVALUE?S_TOUCHKEYCFG

?PR?_GETCURRFINGERVALUE?S_TOUCHKEYCFG            -----    -----      -----    -----
  +--> ?CO?S_TOUCHKEYCFG

?PR?APP_INIT?APP                                 -----    -----      -----    -----
  +--> ?PR?API_TICK_INIT?API_TICK
  +--> ?PR?APP_SYS_INIT?APP_SYS
  +--> ?PR?APP_SYS_CLEARPOWERONCOUNT?APP_SYS...

?PR?APP_SYS_INIT?APP_SYS                         -----    -----      -----    -----
  +--> ?PR?API_SYSBASE_INIT?API_SYSBASE

BL51 BANKED LINKER/LOCATER V6.22.4.0                                                  03/27/2024  13:15:03  PAGE 6


?PR?SYS_SCAN?API_TK                              -----    -----      -----    -----
  +--> ?PR?TOUCHKEYSCAN?S_TOUCHKEYCFG
  +--> ?PR?TOUCHKEYRESTART?SENSORMETHOD

?PR?TOUCHKEYSCAN?S_TOUCHKEYCFG                   -----    -----      -----    -----
  +--> ?PR?GETISNEEDUPDATEBASELINE?SENSORMETHOD
  +--> ?PR?SENSORKEYFLAG?SENSORMETHOD
  +--> ?PR?SETNEEDUPDATEBASELINE?SENSORMETHOD
  +--> ?PR?ISDOUBLEKEYORSLIDEKEY?S_TOUCHKEYCFG
  +--> ?PR?SETONEKEYPUSHRESETTIME?S_TOUCHKEYCFG
  +--> ?CO?S_TOUCHKEYCFG
  +--> ?PR?_MULTIPLEDEAL?SENSORMETHOD

?PR?SENSORKEYFLAG?SENSORMETHOD                   -----    -----      0021H    0001H
  +--> ?PR?_FILTERDATADEAL?SENSORMETHOD
  +--> ?PR?_SENSORRENOVATE?SENSORMETHOD

?PR?_SENSORRENOVATE?SENSORMETHOD                 -----    -----      0022H    0009H
  +--> ?PR?_GETCURRFINGERVALUE?S_TOUCHKEYCFG
  +--> ?PR?GETCSFUNCTION?S_TOUCHKEYCFG
  +--> ?PR?ISDOUBLEKEYORSLIDEKEY?S_TOUCHKEYCFG
  +--> ?PR?GETTKYZCNT?S_TOUCHKEYCFG
  +--> ?PR?_GETTKYZTHRESHOLD?S_TOUCHKEYCFG
  +--> ?PR?GETBASELINEUPDATETHRESHOLD?S_TOUC...
  +--> ?CO?S_TOUCHKEYCFG
  +--> ?PR?GETUPCONFIRMCNT?S_TOUCHKEYCFG
  +--> ?PR?_ICHAADJUST?SENSORMETHOD

?PR?ISDOUBLEKEYORSLIDEKEY?S_TOUCHKEYCFG          -----    -----      -----    -----
  +--> ?CO?S_TOUCHKEYCFG

?PR?_GETTKYZTHRESHOLD?S_TOUCHKEYCFG              -----    -----      -----    -----
  +--> ?PR?_GETCURRFINGERVALUE?S_TOUCHKEYCFG

?PR?GETBASELINEUPDATETHRESHOLD?S_TOUC...         -----    -----      -----    -----
  +--> ?CO?S_TOUCHKEYCFG

?PR?SETONEKEYPUSHRESETTIME?S_TOUCHKEYCFG         -----    -----      -----    -----
  +--> ?CO?S_TOUCHKEYCFG

?PR?_MULTIPLEDEAL?SENSORMETHOD                   -----    -----      0021H    0002H
  +--> ?PR?INITIALIZESENSORFLAG?SENSORMETHOD
  +--> ?PR?FILTERIIRINIT?SENSORMETHOD
  +--> ?PR?_FILTERDATADEAL?SENSORMETHOD
  +--> ?PR?INITIALIZEBASELINES?SENSORMETHOD

?PR?API_TWI_TXDATALOAD?API_TWI                   -----    -----      -----    -----
  +--> ?PR?DELAY_US?API_TWI



SYMBOL TABLE OF MODULE:  .\Objects\X5BC05-TK20240103 (MAIN)

  VALUE           TYPE          NAME
  ----------------------------------

  -------         MODULE        MAIN
BL51 BANKED LINKER/LOCATER V6.22.4.0                                                  03/27/2024  13:15:03  PAGE 7


  C:0000H         SYMBOL        _ICE_DUMMY_
  D:0080H         PUBLIC        P0
  D:0090H         PUBLIC        P1
  D:00A0H         PUBLIC        P2
  D:00A8H         PUBLIC        IE
  D:00B8H         PUBLIC        IP
  C:138BH         PUBLIC        main
  D:0088H         PUBLIC        TCON
  D:00C8H         PUBLIC        T2CON
  D:00D0H         PUBLIC        PSW
  -------         PROC          MAIN
  C:138BH         LINE#         6
  C:138BH         LINE#         7
  C:138BH         LINE#         8
  C:138EH         LINE#         9
  C:1391H         LINE#         10
  C:1394H         LINE#         12
  C:1397H         LINE#         14
  C:139AH         LINE#         16
  C:139BH         LINE#         17
  C:139CH         LINE#         18
  C:139DH         LINE#         19
  C:139EH         LINE#         20
  C:139FH         LINE#         21
  C:13A0H         LINE#         22
  C:13A1H         LINE#         23
  C:13A2H         LINE#         24
  C:13A2H         LINE#         25
  C:13A2H         LINE#         26
  C:13A5H         LINE#         27
  C:13A8H         LINE#         29
  -------         ENDPROC       MAIN
  -------         ENDMOD        MAIN

  -------         MODULE        GLOBAL
  C:0000H         SYMBOL        _ICE_DUMMY_
  D:0080H         PUBLIC        P0
  D:0090H         PUBLIC        P1
  D:00A0H         PUBLIC        P2
  D:001AH         PUBLIC        exKeyValueFlag
  D:00A8H         PUBLIC        IE
  D:00B8H         PUBLIC        IP
  D:0088H         PUBLIC        TCON
  D:001EH         PUBLIC        u8KeyBuff
  D:00C8H         PUBLIC        T2CON
  D:00D0H         PUBLIC        PSW
  -------         ENDMOD        GLOBAL

  -------         MODULE        APP
  C:0000H         SYMBOL        _ICE_DUMMY_
  C:15BCH         PUBLIC        App_Init
  C:1474H         PUBLIC        App_Cycle
  -------         PROC          APP_INIT
  C:15BCH         LINE#         4
  C:15BCH         LINE#         5
  C:15BCH         LINE#         6
  C:15BFH         LINE#         8
BL51 BANKED LINKER/LOCATER V6.22.4.0                                                  03/27/2024  13:15:03  PAGE 8


  C:15C2H         LINE#         10
  C:15C5H         LINE#         11
  -------         ENDPROC       APP_INIT
  -------         PROC          APP_CYCLE
  C:1474H         LINE#         17
  C:1474H         LINE#         18
  C:1474H         LINE#         19
  C:147AH         LINE#         20
  C:147AH         LINE#         21
  C:147DH         LINE#         22
  C:147DH         LINE#         24
  C:1480H         LINE#         25
  C:1480H         LINE#         27
  C:1480H         LINE#         29
  C:1483H         LINE#         30
  C:1483H         LINE#         32
  C:1483H         LINE#         34
  C:1486H         LINE#         35
  C:1486H         LINE#         37
  C:1486H         LINE#         39
  C:1489H         LINE#         40
  C:1489H         LINE#         42
  C:1489H         LINE#         43
  -------         ENDPROC       APP_CYCLE
  -------         ENDMOD        APP

  -------         MODULE        APP_SYS
  C:0000H         SYMBOL        _ICE_DUMMY_
  C:12C2H         PUBLIC        App_Sys_Cycle
  C:1600H         PUBLIC        App_Sys_Init
  -------         PROC          APP_SYS_INIT
  C:1600H         LINE#         3
  C:1600H         LINE#         4
  C:1600H         LINE#         5
  C:1603H         LINE#         6
  -------         ENDPROC       APP_SYS_INIT
  -------         PROC          APP_SYS_CYCLE
  C:12C2H         LINE#         15
  C:12C2H         LINE#         16
  C:12C2H         LINE#         17
  C:12E5H         LINE#         18
  C:12E5H         LINE#         19
  C:12E5H         LINE#         20
  C:12E8H         LINE#         21
  C:12E9H         LINE#         23
  C:12E9H         LINE#         25
  C:12E9H         LINE#         27
  C:12E9H         LINE#         28
  C:12ECH         LINE#         29
  C:12ECH         LINE#         31
  C:12ECH         LINE#         33
  C:12ECH         LINE#         35
  C:12ECH         LINE#         37
  C:12ECH         LINE#         39
  C:12ECH         LINE#         41
  C:12ECH         LINE#         43
  C:12ECH         LINE#         45
BL51 BANKED LINKER/LOCATER V6.22.4.0                                                  03/27/2024  13:15:03  PAGE 9


  C:12ECH         LINE#         47
  C:12ECH         LINE#         49
  C:12ECH         LINE#         51
  C:12ECH         LINE#         52
  C:12ECH         LINE#         53
  C:12ECH         LINE#         54
  -------         ENDPROC       APP_SYS_CYCLE
  -------         ENDMOD        APP_SYS

  -------         MODULE        APP_SYS_POWERON
  C:0000H         SYMBOL        _ICE_DUMMY_
  C:14F1H         PUBLIC        App_Sys_PowerOnQuite
  D:004BH         PUBLIC        u8PowerOn_count
  C:13ABH         PUBLIC        App_Sys_PowerOn_Cycle
  C:163BH         SYMBOL        App_Sys_PowerOn_Lcd_Proc
  C:163CH         PUBLIC        App_Sys_PowerOn_Led_Proc
  C:1639H         SYMBOL        App_Sys_PowerOn_Com_Proc
  C:1604H         PUBLIC        App_Sys_ClearPowerOnCount
  C:1638H         SYMBOL        App_Sys_PowerOn_Key_Proc
  C:163AH         SYMBOL        App_Sys_PowerOn_Diagnose_Proc
  -------         PROC          APP_SYS_POWERON_KEY_PROC
  C:1638H         LINE#         7
  C:1638H         LINE#         8
  C:1638H         LINE#         10
  -------         ENDPROC       APP_SYS_POWERON_KEY_PROC
  -------         PROC          APP_SYS_POWERON_COM_PROC
  C:1639H         LINE#         11
  C:1639H         LINE#         12
  C:1639H         LINE#         14
  -------         ENDPROC       APP_SYS_POWERON_COM_PROC
  -------         PROC          APP_SYS_POWERON_DIAGNOSE_PROC
  C:163AH         LINE#         15
  C:163AH         LINE#         16
  C:163AH         LINE#         18
  -------         ENDPROC       APP_SYS_POWERON_DIAGNOSE_PROC
  -------         PROC          APP_SYS_POWERON_LCD_PROC
  C:163BH         LINE#         20
  C:163BH         LINE#         21
  C:163BH         LINE#         23
  -------         ENDPROC       APP_SYS_POWERON_LCD_PROC
  -------         PROC          APP_SYS_POWERON_LED_PROC
  C:163CH         LINE#         25
  C:163CH         LINE#         26
  C:163CH         LINE#         28
  -------         ENDPROC       APP_SYS_POWERON_LED_PROC
  -------         PROC          APP_SYS_POWERONQUITE
  C:14F1H         LINE#         37
  C:14F1H         LINE#         38
  C:14F1H         LINE#         39
  C:14F3H         LINE#         40
  C:14FAH         LINE#         41
  C:14FAH         LINE#         42
  C:14FDH         LINE#         43
  C:1502H         LINE#         44
  C:1502H         LINE#         45
  -------         ENDPROC       APP_SYS_POWERONQUITE
  -------         PROC          APP_SYS_CLEARPOWERONCOUNT
BL51 BANKED LINKER/LOCATER V6.22.4.0                                                  03/27/2024  13:15:03  PAGE 10


  C:1604H         LINE#         54
  C:1604H         LINE#         55
  C:1604H         LINE#         56
  C:1607H         LINE#         57
  -------         ENDPROC       APP_SYS_CLEARPOWERONCOUNT
  -------         PROC          APP_SYS_POWERON_CYCLE
  C:13ABH         LINE#         66
  C:13ABH         LINE#         67
  C:13ABH         LINE#         68
  C:13B1H         LINE#         69
  C:13B1H         LINE#         70
  C:13B4H         LINE#         71
  C:13B4H         LINE#         73
  C:13BAH         LINE#         74
  C:13BAH         LINE#         75
  C:13BDH         LINE#         76
  C:13C0H         LINE#         77
  C:13C1H         LINE#         78
  C:13C7H         LINE#         79
  C:13C7H         LINE#         80
  C:13CAH         LINE#         81
  C:13CAH         LINE#         82
  -------         ENDPROC       APP_SYS_POWERON_CYCLE
  -------         ENDMOD        APP_SYS_POWERON

  -------         MODULE        APP_SYS_TURNON
  C:0000H         SYMBOL        _ICE_DUMMY_
  C:163EH         SYMBOL        App_Sys_TurnOn_Com_Proc
  C:163DH         SYMBOL        App_Sys_TurnOn_Key_Proc
  C:163FH         SYMBOL        App_Sys_TurnOn_Diagnose_Proc
  C:1427H         PUBLIC        App_Sys_TurnOn_Cycle
  C:1640H         SYMBOL        App_Sys_TurnOn_Lcd_Proc
  C:1641H         PUBLIC        App_Sys_TurnOn_Led_Proc
  -------         PROC          APP_SYS_TURNON_KEY_PROC
  C:163DH         LINE#         3
  C:163DH         LINE#         4
  C:163DH         LINE#         6
  -------         ENDPROC       APP_SYS_TURNON_KEY_PROC
  -------         PROC          APP_SYS_TURNON_COM_PROC
  C:163EH         LINE#         7
  C:163EH         LINE#         8
  C:163EH         LINE#         10
  -------         ENDPROC       APP_SYS_TURNON_COM_PROC
  -------         PROC          APP_SYS_TURNON_DIAGNOSE_PROC
  C:163FH         LINE#         11
  C:163FH         LINE#         12
  C:163FH         LINE#         14
  -------         ENDPROC       APP_SYS_TURNON_DIAGNOSE_PROC
  -------         PROC          APP_SYS_TURNON_LCD_PROC
  C:1640H         LINE#         16
  C:1640H         LINE#         17
  C:1640H         LINE#         19
  -------         ENDPROC       APP_SYS_TURNON_LCD_PROC
  -------         PROC          APP_SYS_TURNON_LED_PROC
  C:1641H         LINE#         21
  C:1641H         LINE#         22
  C:1641H         LINE#         24
BL51 BANKED LINKER/LOCATER V6.22.4.0                                                  03/27/2024  13:15:03  PAGE 11


  -------         ENDPROC       APP_SYS_TURNON_LED_PROC
  -------         PROC          APP_SYS_TURNON_CYCLE
  C:1427H         LINE#         26
  C:1427H         LINE#         27
  C:1427H         LINE#         28
  C:142DH         LINE#         29
  C:142DH         LINE#         30
  C:1430H         LINE#         31
  C:1430H         LINE#         33
  C:1436H         LINE#         34
  C:1436H         LINE#         35
  C:1439H         LINE#         36
  C:143CH         LINE#         37
  C:143DH         LINE#         38
  C:1440H         LINE#         39
  C:1440H         LINE#         41
  C:1440H         LINE#         42
  -------         ENDPROC       APP_SYS_TURNON_CYCLE
  -------         ENDMOD        APP_SYS_TURNON

  -------         MODULE        API_TICK
  C:0000H         SYMBOL        _ICE_DUMMY_
  C:148AH         PUBLIC        Api_Tick_Init
  D:0080H         PUBLIC        P0
  D:0090H         PUBLIC        P1
  D:00A0H         PUBLIC        P2
  D:00A8H         PUBLIC        IE
  D:00B8H         PUBLIC        IP
  C:1585H         PUBLIC        Api_Tick_PopFlag_1000ms
  D:002EH         SYMBOL        timerCB
  C:0FBFH         PUBLIC        Api_Tick_Ms
  D:0088H         PUBLIC        TCON
  C:1559H         PUBLIC        Api_Tick_PopFlag_10ms
  C:1564H         PUBLIC        Api_Tick_PopFlag_50ms
  D:00CFH         PUBLIC        WDTCON
  D:00C8H         PUBLIC        T2CON
  C:156FH         PUBLIC        Api_Tick_PopFlag_100ms
  C:157AH         PUBLIC        Api_Tick_PopFlag_500ms
  C:13EBH         PUBLIC        SysTick_Handler
  C:15FBH         PUBLIC        Api_Tick_GetmsTick
  D:00D0H         PUBLIC        PSW
  -------         PROC          SYSTICK_HANDLER
  -------         DO            
  D:002DH         SYMBOL        tick
  -------         ENDDO         
  C:13EBH         LINE#         28
  C:13EBH         LINE#         29
  C:13EBH         LINE#         31
  C:13EEH         LINE#         33
  C:1403H         LINE#         34
  C:1403H         LINE#         35
  C:1405H         LINE#         36
  C:1408H         LINE#         37
  C:1408H         LINE#         38
  -------         ENDPROC       SYSTICK_HANDLER
  -------         PROC          API_TICK_MS
  C:0FBFH         LINE#         41
BL51 BANKED LINKER/LOCATER V6.22.4.0                                                  03/27/2024  13:15:03  PAGE 12


  C:0FBFH         LINE#         42
  C:0FBFH         LINE#         43
  C:0FC7H         LINE#         45
  C:0FD6H         LINE#         46
  C:0FD6H         LINE#         47
  C:0FD8H         LINE#         48
  C:0FE6H         LINE#         49
  C:0FE6H         LINE#         50
  C:0FE8H         LINE#         51
  C:0FF6H         LINE#         52
  C:0FF6H         LINE#         53
  C:0FF8H         LINE#         54
  C:1007H         LINE#         55
  C:1007H         LINE#         56
  C:1009H         LINE#         57
  C:1018H         LINE#         58
  C:1018H         LINE#         59
  C:101AH         LINE#         60
  C:101EH         LINE#         61
  C:101EH         LINE#         62
  C:101EH         LINE#         63
  C:101EH         LINE#         64
  C:101EH         LINE#         65
  C:101EH         LINE#         66
  -------         ENDPROC       API_TICK_MS
  -------         PROC          API_TICK_INIT
  C:148AH         LINE#         67
  C:148AH         LINE#         68
  C:148AH         LINE#         70
  C:1490H         LINE#         71
  C:1493H         LINE#         72
  C:1496H         LINE#         73
  C:1499H         LINE#         74
  C:149CH         LINE#         75
  C:149FH         LINE#         76
  -------         ENDPROC       API_TICK_INIT
  -------         PROC          API_TICK_GETMSTICK
  C:15FBH         LINE#         78
  C:15FBH         LINE#         79
  C:15FBH         LINE#         80
  C:15FFH         LINE#         81
  -------         ENDPROC       API_TICK_GETMSTICK
  -------         PROC          API_TICK_POPFLAG_10MS
  C:1559H         LINE#         83
  C:1559H         LINE#         84
  C:1559H         LINE#         85
  C:155DH         LINE#         86
  C:155FH         LINE#         87
  C:1563H         LINE#         88
  -------         ENDPROC       API_TICK_POPFLAG_10MS
  -------         PROC          API_TICK_POPFLAG_50MS
  C:1564H         LINE#         89
  C:1564H         LINE#         90
  C:1564H         LINE#         91
  C:1568H         LINE#         92
  C:156AH         LINE#         93
  C:156EH         LINE#         94
BL51 BANKED LINKER/LOCATER V6.22.4.0                                                  03/27/2024  13:15:03  PAGE 13


  -------         ENDPROC       API_TICK_POPFLAG_50MS
  -------         PROC          API_TICK_POPFLAG_100MS
  C:156FH         LINE#         95
  C:156FH         LINE#         96
  C:1573H         LINE#         97
  C:1575H         LINE#         98
  C:1579H         LINE#         99
  -------         ENDPROC       API_TICK_POPFLAG_100MS
  -------         PROC          API_TICK_POPFLAG_500MS
  C:157AH         LINE#         101
  C:157AH         LINE#         102
  C:157EH         LINE#         103
  C:1580H         LINE#         104
  C:1584H         LINE#         105
  -------         ENDPROC       API_TICK_POPFLAG_500MS
  -------         PROC          API_TICK_POPFLAG_1000MS
  C:1585H         LINE#         106
  C:1585H         LINE#         107
  C:1589H         LINE#         108
  C:158BH         LINE#         109
  C:158FH         LINE#         110
  -------         ENDPROC       API_TICK_POPFLAG_1000MS
  -------         ENDMOD        API_TICK

  -------         MODULE        API_SYSBASE
  C:0000H         SYMBOL        _ICE_DUMMY_
  C:15F4H         PUBLIC        Api_SysBase_GetSysCB
  C:160CH         PUBLIC        Api_SysBase_ClearEnterFlag
  C:1614H         PUBLIC        Api_SysBase_ClearQuiteFlag
  C:15C6H         PUBLIC        Api_SysBase_Init
  C:1620H         PUBLIC        Api_SysBase_GetState
  C:1608H         PUBLIC        Api_SysBase_SetEnterFlag
  C:1503H         PUBLIC        _Api_SysBase_SetState
  C:1610H         PUBLIC        Api_SysBase_SetQuiteFlag
  C:1623H         PUBLIC        Api_SysBase_GetLastState
  C:1626H         PUBLIC        Api_SysBase_IsEnter
  C:1629H         PUBLIC        Api_SysBase_IsQuite
  D:0040H         SYMBOL        sysCB
  -------         PROC          _API_SYSBASE_SETSTATE
  D:004CH         SYMBOL        state
  C:1503H         LINE#         6
  C:1505H         LINE#         7
  C:1505H         LINE#         8
  C:150BH         LINE#         9
  C:150BH         LINE#         10
  C:150EH         LINE#         11
  C:1511H         LINE#         12
  C:1514H         LINE#         13
  C:1514H         LINE#         14
  -------         ENDPROC       _API_SYSBASE_SETSTATE
  -------         PROC          API_SYSBASE_GETSTATE
  C:1620H         LINE#         16
  C:1620H         LINE#         17
  C:1620H         LINE#         18
  C:1622H         LINE#         19
  -------         ENDPROC       API_SYSBASE_GETSTATE
  -------         PROC          API_SYSBASE_GETLASTSTATE
BL51 BANKED LINKER/LOCATER V6.22.4.0                                                  03/27/2024  13:15:03  PAGE 14


  C:1623H         LINE#         21
  C:1623H         LINE#         22
  C:1623H         LINE#         23
  C:1625H         LINE#         24
  -------         ENDPROC       API_SYSBASE_GETLASTSTATE
  -------         PROC          API_SYSBASE_GETSYSCB
  C:15F4H         LINE#         26
  C:15F4H         LINE#         27
  C:15F4H         LINE#         28
  C:15FAH         LINE#         29
  -------         ENDPROC       API_SYSBASE_GETSYSCB
  -------         PROC          API_SYSBASE_ISENTER
  C:1626H         LINE#         31
  C:1626H         LINE#         32
  C:1626H         LINE#         33
  C:1628H         LINE#         34
  -------         ENDPROC       API_SYSBASE_ISENTER
  -------         PROC          API_SYSBASE_SETENTERFLAG
  C:1608H         LINE#         36
  C:1608H         LINE#         37
  C:1608H         LINE#         38
  C:160BH         LINE#         39
  -------         ENDPROC       API_SYSBASE_SETENTERFLAG
  -------         PROC          API_SYSBASE_CLEARENTERFLAG
  C:160CH         LINE#         41
  C:160CH         LINE#         42
  C:160CH         LINE#         43
  C:160FH         LINE#         44
  -------         ENDPROC       API_SYSBASE_CLEARENTERFLAG
  -------         PROC          API_SYSBASE_ISQUITE
  C:1629H         LINE#         46
  C:1629H         LINE#         47
  C:1629H         LINE#         48
  C:162BH         LINE#         49
  -------         ENDPROC       API_SYSBASE_ISQUITE
  -------         PROC          API_SYSBASE_SETQUITEFLAG
  C:1610H         LINE#         51
  C:1610H         LINE#         52
  C:1610H         LINE#         53
  C:1613H         LINE#         54
  -------         ENDPROC       API_SYSBASE_SETQUITEFLAG
  -------         PROC          API_SYSBASE_CLEARQUITEFLAG
  C:1614H         LINE#         56
  C:1614H         LINE#         57
  C:1614H         LINE#         58
  C:1617H         LINE#         59
  -------         ENDPROC       API_SYSBASE_CLEARQUITEFLAG
  -------         PROC          API_SYSBASE_INIT
  C:15C6H         LINE#         61
  C:15C6H         LINE#         62
  C:15C9H         LINE#         63
  C:15CCH         LINE#         64
  C:15CFH         LINE#         65
  -------         ENDPROC       API_SYSBASE_INIT
  -------         ENDMOD        API_SYSBASE

  -------         MODULE        API_TK
BL51 BANKED LINKER/LOCATER V6.22.4.0                                                  03/27/2024  13:15:03  PAGE 15


  C:0000H         SYMBOL        _ICE_DUMMY_
  C:1409H         PUBLIC        Sys_Scan
  C:15DAH         PUBLIC        Api_TK_GetTKValue
  -------         PROC          SYS_SCAN
  C:1409H         LINE#         10
  C:1409H         LINE#         11
  C:1409H         LINE#         12
  C:1411H         LINE#         13
  C:1411H         LINE#         14
  C:1415H         LINE#         15
  C:1423H         LINE#         17
  C:1426H         LINE#         18
  C:1426H         LINE#         19
  -------         ENDPROC       SYS_SCAN
  -------         PROC          API_TK_GETTKVALUE
  C:15DAH         LINE#         27
  C:15DAH         LINE#         28
  C:15DAH         LINE#         29
  C:15E2H         LINE#         30
  -------         ENDPROC       API_TK_GETTKVALUE
  -------         ENDMOD        API_TK

  -------         MODULE        API_TWI
  C:0000H         SYMBOL        _ICE_DUMMY_
  D:0080H         PUBLIC        P0
  D:009FH         PUBLIC        SSDAT
  D:0090H         PUBLIC        P1
  D:00A0H         PUBLIC        P2
  D:00A8H         PUBLIC        IE
  C:14A0H         PUBLIC        Api_Twi_State
  D:00B8H         PUBLIC        IP
  C:1540H         PUBLIC        Api_Twi_Init
  D:0008H         PUBLIC        u8TwiRxBuff
  D:0088H         PUBLIC        TCON
  D:000DH         PUBLIC        u8TwiTxBuff
  D:009DH         PUBLIC        SSCON0
  C:1524H         PUBLIC        _SSI_TWI_Cmd
  D:0015H         PUBLIC        u8TwiRx_count
  D:0016H         PUBLIC        u8TwiTx_count
  C:1618H         PUBLIC        Api_Twi_ClearRxCount
  C:161CH         PUBLIC        Api_Twi_ClearTxCount
  C:05A3H         PUBLIC        delay_us
  C:1296H         PUBLIC        Api_Twi_Rx
  C:1441H         PUBLIC        Api_Twi_Tx
  C:107CH         PUBLIC        Api_Twi_TxDataLoad
  D:00C8H         PUBLIC        T2CON
  D:0017H         PUBLIC        Twi_TxState
  D:0018H         PUBLIC        u8TwiRxCheSum
  D:0019H         PUBLIC        u8TwiTxCheSum
  D:00D0H         PUBLIC        PSW
  -------         PROC          DELAY_US
  C:05A3H         LINE#         20
  C:05A3H         LINE#         21
  C:05A3H         LINE#         23
  C:05A8H         LINE#         24
  C:05ADH         LINE#         25
  C:05B2H         LINE#         26
BL51 BANKED LINKER/LOCATER V6.22.4.0                                                  03/27/2024  13:15:03  PAGE 16


  C:05B7H         LINE#         27
  C:05BCH         LINE#         28
  C:05C1H         LINE#         29
  C:05C6H         LINE#         30
  C:05CBH         LINE#         31
  C:05D0H         LINE#         32
  C:05D5H         LINE#         33
  C:05DAH         LINE#         34
  C:05DFH         LINE#         35
  C:05E4H         LINE#         36
  C:05E9H         LINE#         37
  C:05EEH         LINE#         38
  C:05F3H         LINE#         39
  C:05F8H         LINE#         40
  C:05FDH         LINE#         41
  C:0602H         LINE#         42
  C:0607H         LINE#         43
  C:060CH         LINE#         44
  C:0611H         LINE#         45
  C:0616H         LINE#         46
  C:061BH         LINE#         48
  C:0620H         LINE#         49
  C:0625H         LINE#         50
  C:062AH         LINE#         51
  C:062FH         LINE#         52
  C:0634H         LINE#         53
  C:0639H         LINE#         54
  C:063EH         LINE#         55
  C:0643H         LINE#         56
  C:0648H         LINE#         57
  C:064DH         LINE#         58
  C:0652H         LINE#         59
  C:0657H         LINE#         60
  C:065CH         LINE#         61
  C:0661H         LINE#         62
  C:0666H         LINE#         63
  C:066BH         LINE#         64
  C:0670H         LINE#         65
  C:0675H         LINE#         66
  C:067AH         LINE#         67
  C:067FH         LINE#         68
  C:0684H         LINE#         69
  C:0689H         LINE#         70
  C:068EH         LINE#         71
  C:0693H         LINE#         73
  C:0698H         LINE#         74
  C:069DH         LINE#         75
  C:06A2H         LINE#         76
  C:06A7H         LINE#         77
  C:06ACH         LINE#         78
  C:06B1H         LINE#         79
  C:06B6H         LINE#         80
  C:06BBH         LINE#         81
  C:06C0H         LINE#         82
  C:06C5H         LINE#         83
  C:06CAH         LINE#         84
  C:06CFH         LINE#         85
BL51 BANKED LINKER/LOCATER V6.22.4.0                                                  03/27/2024  13:15:03  PAGE 17


  C:06D4H         LINE#         86
  C:06D9H         LINE#         87
  C:06DEH         LINE#         88
  C:06E3H         LINE#         89
  C:06E8H         LINE#         90
  C:06EDH         LINE#         91
  C:06F2H         LINE#         92
  C:06F7H         LINE#         93
  C:06FCH         LINE#         94
  C:0701H         LINE#         95
  C:0706H         LINE#         96
  C:070BH         LINE#         98
  C:0710H         LINE#         99
  C:0715H         LINE#         100
  C:071AH         LINE#         101
  C:071FH         LINE#         102
  C:0724H         LINE#         103
  C:0729H         LINE#         104
  C:072EH         LINE#         105
  C:0733H         LINE#         106
  C:0738H         LINE#         107
  C:073DH         LINE#         108
  C:0742H         LINE#         109
  C:0747H         LINE#         110
  C:074CH         LINE#         111
  C:0751H         LINE#         112
  C:0756H         LINE#         113
  C:075BH         LINE#         114
  C:0760H         LINE#         115
  C:0765H         LINE#         116
  C:076AH         LINE#         117
  C:076FH         LINE#         118
  C:0774H         LINE#         119
  C:0779H         LINE#         120
  C:077EH         LINE#         121
  C:0783H         LINE#         122
  -------         ENDPROC       DELAY_US
  -------         PROC          API_TWI_INIT
  C:1540H         LINE#         132
  C:1540H         LINE#         133
  C:1540H         LINE#         134
  C:1543H         LINE#         135
  C:1546H         LINE#         136
  C:1549H         LINE#         137
  C:154CH         LINE#         138
  -------         ENDPROC       API_TWI_INIT
  -------         PROC          _SSI_TWI_CMD
  D:004DH         SYMBOL        NewState
  C:1524H         LINE#         166
  C:1526H         LINE#         167
  C:1526H         LINE#         168
  C:152AH         LINE#         169
  C:152AH         LINE#         170
  C:152DH         LINE#         171
  C:152EH         LINE#         173
  C:152EH         LINE#         174
  C:1531H         LINE#         175
BL51 BANKED LINKER/LOCATER V6.22.4.0                                                  03/27/2024  13:15:03  PAGE 18


  C:1531H         LINE#         176
  -------         ENDPROC       _SSI_TWI_CMD
  -------         PROC          API_TWI_RX
  C:1296H         LINE#         185
  C:1296H         LINE#         186
  C:1296H         LINE#         187
  C:129EH         LINE#         188
  C:12A0H         LINE#         189
  C:12A7H         LINE#         190
  C:12A7H         LINE#         191
  C:12AAH         LINE#         192
  C:12B6H         LINE#         193
  C:12B9H         LINE#         194
  C:12BEH         LINE#         195
  C:12BEH         LINE#         196
  C:12C1H         LINE#         197
  C:12C1H         LINE#         198
  C:12C1H         LINE#         199
  -------         ENDPROC       API_TWI_RX
  -------         PROC          API_TWI_CLEARRXCOUNT
  C:1618H         LINE#         201
  C:1618H         LINE#         202
  C:1618H         LINE#         203
  C:161BH         LINE#         204
  -------         ENDPROC       API_TWI_CLEARRXCOUNT
  -------         PROC          API_TWI_TXDATALOAD
  -------         DO            
  D:004EH         SYMBOL        i
  -------         ENDDO         
  C:107CH         LINE#         213
  C:107CH         LINE#         214
  C:107CH         LINE#         216
  C:108BH         LINE#         217
  C:108BH         LINE#         218
  C:108BH         LINE#         219
  C:108EH         LINE#         220
  C:1091H         LINE#         221
  C:1094H         LINE#         222
  C:1097H         LINE#         223
  C:109AH         LINE#         224
  C:109DH         LINE#         225
  C:10A0H         LINE#         226
  C:10AAH         LINE#         227
  C:10AAH         LINE#         228
  C:10B6H         LINE#         229
  C:10BAH         LINE#         230
  C:10BDH         LINE#         231
  C:10C0H         LINE#         232
  C:10C3H         LINE#         234
  C:10C6H         LINE#         235
  C:10C7H         LINE#         237
  C:10C7H         LINE#         238
  C:10CAH         LINE#         239
  C:10CAH         LINE#         241
  C:10CAH         LINE#         242
  C:10CAH         LINE#         243
  C:10CAH         LINE#         244
BL51 BANKED LINKER/LOCATER V6.22.4.0                                                  03/27/2024  13:15:03  PAGE 19


  -------         ENDPROC       API_TWI_TXDATALOAD
  -------         PROC          API_TWI_TX
  C:1441H         LINE#         253
  C:1441H         LINE#         254
  C:1441H         LINE#         255
  C:144BH         LINE#         256
  C:144DH         LINE#         257
  C:1454H         LINE#         258
  C:1454H         LINE#         259
  C:1457H         LINE#         260
  C:145AH         LINE#         261
  C:145AH         LINE#         263
  -------         ENDPROC       API_TWI_TX
  -------         PROC          API_TWI_CLEARTXCOUNT
  C:161CH         LINE#         265
  C:161CH         LINE#         266
  C:161CH         LINE#         267
  C:161FH         LINE#         268
  -------         ENDPROC       API_TWI_CLEARTXCOUNT
  -------         PROC          API_TWI_STATE
  C:14A0H         LINE#         270
  C:14A0H         LINE#         271
  C:14A0H         LINE#         272
  C:14A5H         LINE#         273
  C:14A5H         LINE#         274
  C:14AAH         LINE#         275
  C:14ADH         LINE#         276
  C:14B0H         LINE#         277
  C:14B4H         LINE#         278
  C:14B4H         LINE#         279
  -------         ENDPROC       API_TWI_STATE
  -------         ENDMOD        API_TWI

  -------         MODULE        API_LED
  C:0000H         SYMBOL        _ICE_DUMMY_
  C:1642H         PUBLIC        Api_Led_GetLedData
  C:1643H         PUBLIC        Api_Led_Contril
  -------         PROC          API_LED_GETLEDDATA
  C:1642H         LINE#         3
  C:1642H         LINE#         4
  C:1642H         LINE#         6
  -------         ENDPROC       API_LED_GETLEDDATA
  -------         PROC          API_LED_CONTRIL
  C:1643H         LINE#         8
  C:1643H         LINE#         9
  C:1643H         LINE#         11
  -------         ENDPROC       API_LED_CONTRIL
  -------         ENDMOD        API_LED

  -------         MODULE        IO_INIT
  C:0000H         SYMBOL        _ICE_DUMMY_
  D:0080H         PUBLIC        P0
  D:0090H         PUBLIC        P1
  D:00A0H         PUBLIC        P2
  D:00A8H         PUBLIC        IE
  C:145BH         PUBLIC        IO_Init
  D:009BH         PUBLIC        P0PH
BL51 BANKED LINKER/LOCATER V6.22.4.0                                                  03/27/2024  13:15:03  PAGE 20


  D:00B8H         PUBLIC        IP
  D:0092H         PUBLIC        P1PH
  D:00A2H         PUBLIC        P2PH
  D:0088H         PUBLIC        TCON
  D:009AH         PUBLIC        P0CON
  D:0091H         PUBLIC        P1CON
  D:00A1H         PUBLIC        P2CON
  D:00C8H         PUBLIC        T2CON
  D:00D0H         PUBLIC        PSW
  -------         PROC          IO_INIT
  C:145BH         LINE#         9
  C:145BH         LINE#         10
  C:145BH         LINE#         12
  C:145EH         LINE#         13
  C:1461H         LINE#         14
  C:1464H         LINE#         15
  C:1467H         LINE#         16
  C:146AH         LINE#         17
  C:146DH         LINE#         50
  C:1470H         LINE#         51
  C:1473H         LINE#         53
  -------         ENDPROC       IO_INIT
  -------         ENDMOD        IO_INIT

  -------         MODULE        SSI_INIT
  C:0000H         SYMBOL        _ICE_DUMMY_
  D:0080H         PUBLIC        P0
  D:0090H         PUBLIC        P1
  C:0EE6H         PUBLIC        TWI_Int
  D:00A0H         PUBLIC        P2
  D:008FH         PUBLIC        OTCON
  B:00A8H.7       PUBLIC        EA
  D:00A8H         PUBLIC        IE
  D:00B8H         PUBLIC        IP
  D:0088H         PUBLIC        TCON
  D:009DH         PUBLIC        SSCON0
  D:009EH         PUBLIC        SSCON1
  D:00A9H         PUBLIC        IE1
  D:00C8H         PUBLIC        T2CON
  C:1515H         PUBLIC        TWI_Init
  C:1532H         PUBLIC        _SSI_TWI_AcknowledgeConfig
  B:0020H.2       PUBLIC        TWIFlag
  D:00D0H         PUBLIC        PSW
  -------         PROC          TWI_INIT
  C:1515H         LINE#         22
  C:1515H         LINE#         23
  C:1515H         LINE#         24
  C:1518H         LINE#         25
  C:151BH         LINE#         26
  C:151EH         LINE#         27
  C:1521H         LINE#         28
  C:1523H         LINE#         36
  -------         ENDPROC       TWI_INIT
  -------         PROC          _SSI_TWI_ACKNOWLEDGECONFIG
  D:004FH         SYMBOL        NewState
  C:1532H         LINE#         45
  C:1534H         LINE#         46
BL51 BANKED LINKER/LOCATER V6.22.4.0                                                  03/27/2024  13:15:03  PAGE 21


  C:1534H         LINE#         47
  C:1538H         LINE#         48
  C:1538H         LINE#         49
  C:153BH         LINE#         50
  C:153CH         LINE#         52
  C:153CH         LINE#         53
  C:153FH         LINE#         54
  C:153FH         LINE#         55
  -------         ENDPROC       _SSI_TWI_ACKNOWLEDGECONFIG
  -------         PROC          TWI_INT
  -------         DO            
  D:0050H         SYMBOL        state
  -------         ENDDO         
  C:0EE6H         LINE#         58
  C:0F03H         LINE#         62
  C:0F06H         LINE#         63
  C:0F0CH         LINE#         67
  C:0F22H         LINE#         68
  C:0F22H         LINE#         69
  C:0F22H         LINE#         72
  C:0F25H         LINE#         73
  C:0F28H         LINE#         74
  C:0F2AH         LINE#         76
  C:0F2AH         LINE#         78
  C:0F2AH         LINE#         80
  C:0F2AH         LINE#         81
  C:0F2DH         LINE#         82
  C:0F2FH         LINE#         84
  C:0F2FH         LINE#         87
  C:0F32H         LINE#         89
  C:0F35H         LINE#         90
  C:0F37H         LINE#         92
  C:0F37H         LINE#         93
  C:0F3AH         LINE#         94
  C:0F3AH         LINE#         96
  C:0F3AH         LINE#         97
  C:0F3AH         LINE#         99
  C:0F3AH         LINE#         107
  -------         ENDPROC       TWI_INT
  -------         ENDMOD        SSI_INIT

  -------         MODULE        TIMER_INIT
  C:0000H         SYMBOL        _ICE_DUMMY_
  D:0080H         PUBLIC        P0
  D:0090H         PUBLIC        P1
  D:00A0H         PUBLIC        P2
  D:008EH         PUBLIC        TMCON
  B:00A8H.7       PUBLIC        EA
  D:00A8H         PUBLIC        IE
  D:00B8H         PUBLIC        IP
  B:0080H.2       PUBLIC        P02
  D:0088H         PUBLIC        TCON
  D:0089H         PUBLIC        TMOD
  B:00A8H.1       PUBLIC        ET0
  D:008CH         PUBLIC        TH0
  D:008AH         PUBLIC        TL0
  C:11A3H         PUBLIC        timer0
BL51 BANKED LINKER/LOCATER V6.22.4.0                                                  03/27/2024  13:15:03  PAGE 22


  B:0088H.4       PUBLIC        TR0
  D:00C8H         PUBLIC        T2CON
  C:14B5H         PUBLIC        Timer_Init
  D:00D0H         PUBLIC        PSW
  -------         PROC          TIMER_INIT
  C:14B5H         LINE#         10
  C:14B5H         LINE#         11
  C:14B5H         LINE#         12
  C:14B8H         LINE#         15
  C:14BBH         LINE#         16
  C:14BEH         LINE#         17
  C:14C1H         LINE#         18
  C:14C3H         LINE#         19
  C:14C5H         LINE#         20
  C:14C7H         LINE#         22
  C:14C9H         LINE#         23
  -------         ENDPROC       TIMER_INIT
  -------         PROC          TIMER0
  C:11A3H         LINE#         31
  C:11C0H         LINE#         33
  C:11C3H         LINE#         34
  C:11C6H         LINE#         35
  C:11C8H         LINE#         37
  C:11CBH         LINE#         38
  -------         ENDPROC       TIMER0
  -------         ENDMOD        TIMER_INIT

  -------         MODULE        S_TOUCHKEYCFG
  C:0000H         SYMBOL        _ICE_DUMMY_
  I:0056H         PUBLIC        ConfirmTouchCnt
  X:0000H         PUBLIC        BaseLine
  C:1079H         PUBLIC        CFG_OVERLOW_MAX_COUNT
  C:10CBH         PUBLIC        TouchKeyCFGInit
  C:15E3H         PUBLIC        _GetBaseLineAdjustValue
  X:000EH         PUBLIC        FloatAreaCnt
  B:00D0H.7       PUBLIC        TK_CY
  C:1262H         PUBLIC        _GetCurrFingerValue
  C:107AH         PUBLIC        CFG_RESET_BASELINE_CNT
  C:162CH         PUBLIC        GetCsFunction
  X:0015H         PUBLIC        CurrentChannel
  X:001CH         PUBLIC        RawData
  C:15B1H         PUBLIC        IsDoubleKeyOrSlideKey
  I:0057H         PUBLIC        TouchCnt
  C:1227H         PUBLIC        CTK_ISR
  I:005EH         PUBLIC        LowFingerDataCnt
  C:0BB7H         PUBLIC        TouchKeyScan
  C:1590H         PUBLIC        SetOneKeyPushResetTime
  C:14CAH         PUBLIC        _GetScanTimeValue
  C:15D0H         PUBLIC        GetTKYzCnt
  X:002AH         PUBLIC        DifferAccum
  I:0065H         PUBLIC        RestAreaCnt
  C:136AH         PUBLIC        _GetTKYzThreshold
  I:006CH         PUBLIC        BaseLineAdjusttmp
  C:11E6H         PUBLIC        CurrentSensorChoose
  C:15A6H         PUBLIC        GetInitAutoUpdateTime
  I:0073H         PUBLIC        MultipleLNum
  C:115FH         PUBLIC        _GetCfgMsg
BL51 BANKED LINKER/LOCATER V6.22.4.0                                                  03/27/2024  13:15:03  PAGE 23


  X:0038H         PUBLIC        SOCAPI_TouchKeyStatus
  C:15ECH         PUBLIC        GetUpConfirmCnt
  I:0075H         PUBLIC        UpdateBaseLNum
  X:0039H         PUBLIC        SetNoiseThreshold
  C:159BH         PUBLIC        GetBaselineUpdateThreshold
  X:003AH         PUBLIC        FilterData
  C:107BH         PUBLIC        CFG_CYCLE_CNT
  I:0077H         PUBLIC        NoTouchCnt
  I:007EH         PUBLIC        MultipleDealTpye
  C:1041H         PUBLIC        TKChannelCfg
  C:101FH         PUBLIC        TKCFG
  D:00D0H         PUBLIC        TK_PSW
  -------         PROC          SETONEKEYPUSHRESETTIME
  C:1590H         LINE#         110
  C:1590H         LINE#         111
  C:1590H         LINE#         112
  C:159AH         LINE#         113
  -------         ENDPROC       SETONEKEYPUSHRESETTIME
  -------         PROC          GETBASELINEUPDATETHRESHOLD
  C:159BH         LINE#         121
  C:159BH         LINE#         122
  C:159BH         LINE#         123
  C:15A5H         LINE#         124
  -------         ENDPROC       GETBASELINEUPDATETHRESHOLD
  -------         PROC          GETINITAUTOUPDATETIME
  C:15A6H         LINE#         133
  C:15A6H         LINE#         134
  C:15A6H         LINE#         135
  C:15B0H         LINE#         136
  -------         ENDPROC       GETINITAUTOUPDATETIME
  -------         PROC          GETCSFUNCTION
  C:162CH         LINE#         144
  C:162CH         LINE#         145
  C:162CH         LINE#         146
  C:162EH         LINE#         147
  -------         ENDPROC       GETCSFUNCTION
  -------         PROC          _GETCURRFINGERVALUE
  D:0051H         SYMBOL        i
  C:1262H         LINE#         155
  C:1264H         LINE#         156
  C:1264H         LINE#         157
  C:1295H         LINE#         158
  -------         ENDPROC       _GETCURRFINGERVALUE
  -------         PROC          _GETSCANTIMEVALUE
  D:0052H         SYMBOL        i
  C:14CAH         LINE#         167
  C:14CCH         LINE#         168
  C:14CCH         LINE#         169
  C:14DDH         LINE#         170
  -------         ENDPROC       _GETSCANTIMEVALUE
  -------         PROC          ISDOUBLEKEYORSLIDEKEY
  C:15B1H         LINE#         178
  C:15B1H         LINE#         179
  C:15B1H         LINE#         180
  C:15BBH         LINE#         181
  -------         ENDPROC       ISDOUBLEKEYORSLIDEKEY
  -------         PROC          _GETBASELINEADJUSTVALUE
BL51 BANKED LINKER/LOCATER V6.22.4.0                                                  03/27/2024  13:15:03  PAGE 24


  D:0053H         SYMBOL        i
  C:15E3H         LINE#         190
  C:15E5H         LINE#         191
  C:15E5H         LINE#         192
  C:15EBH         LINE#         193
  -------         ENDPROC       _GETBASELINEADJUSTVALUE
  -------         PROC          GETUPCONFIRMCNT
  C:15ECH         LINE#         201
  C:15ECH         LINE#         202
  C:15ECH         LINE#         203
  C:15F3H         LINE#         204
  -------         ENDPROC       GETUPCONFIRMCNT
  -------         PROC          GETTKYZCNT
  C:15D0H         LINE#         213
  C:15D0H         LINE#         214
  C:15D0H         LINE#         215
  C:15D9H         LINE#         216
  -------         ENDPROC       GETTKYZCNT
  -------         PROC          _GETTKYZTHRESHOLD
  D:0048H         SYMBOL        i
  -------         DO            
  D:0049H         SYMBOL        SetFingerThresholdtmp
  -------         ENDDO         
  C:136AH         LINE#         225
  C:136CH         LINE#         226
  C:136CH         LINE#         229
  C:1373H         LINE#         230
  C:138AH         LINE#         232
  C:138AH         LINE#         233
  -------         ENDPROC       _GETTKYZTHRESHOLD
  -------         PROC          CURRENTSENSORCHOOSE
  -------         DO            
  D:0044H         SYMBOL        i
  D:0045H         SYMBOL        Ctk_Channel_mark
  D:0046H         SYMBOL        CurrentSensorKey
  -------         ENDDO         
  C:11E6H         LINE#         241
  C:11E6H         LINE#         242
  C:11E6H         LINE#         244
  C:11E9H         LINE#         247
  C:11EFH         LINE#         249
  C:11F9H         LINE#         250
  C:11F9H         LINE#         251
  C:1204H         LINE#         252
  C:1207H         LINE#         253
  C:1207H         LINE#         254
  C:1216H         LINE#         255
  C:1218H         LINE#         256
  C:121FH         LINE#         257
  C:121FH         LINE#         258
  C:121FH         LINE#         259
  C:1223H         LINE#         260
  C:1226H         LINE#         261
  -------         ENDPROC       CURRENTSENSORCHOOSE
  -------         PROC          _GETCFGMSG
  D:0054H         SYMBOL        i
  C:115FH         LINE#         270
BL51 BANKED LINKER/LOCATER V6.22.4.0                                                  03/27/2024  13:15:03  PAGE 25


  C:1161H         LINE#         271
  C:1161H         LINE#         272
  C:1179H         LINE#         273
  C:1179H         LINE#         274
  C:1180H         LINE#         275
  C:1187H         LINE#         276
  C:118EH         LINE#         277
  C:1195H         LINE#         278
  C:11A0H         LINE#         279
  C:11A2H         LINE#         280
  C:11A2H         LINE#         281
  -------         ENDPROC       _GETCFGMSG
  -------         PROC          TOUCHKEYCFGINIT
  -------         DO            
  D:0055H         SYMBOL        i
  -------         ENDDO         
  C:10CBH         LINE#         290
  C:10CBH         LINE#         291
  C:10CBH         LINE#         293
  C:10D8H         LINE#         294
  C:10E6H         LINE#         295
  C:10E9H         LINE#         296
  C:10F3H         LINE#         297
  C:10F3H         LINE#         298
  C:110EH         LINE#         299
  C:1112H         LINE#         300
  C:1119H         LINE#         301
  -------         ENDPROC       TOUCHKEYCFGINIT
  -------         PROC          TOUCHKEYSCAN
  -------         DO            
  D:0035H         SYMBOL        t
  D:0036H         SYMBOL        MultipleCnt
  D:0037H         SYMBOL        Keyvalue
  D:0039H         SYMBOL        KeyData
  -------         ENDDO         
  C:0BB7H         LINE#         313
  C:0BB7H         LINE#         314
  C:0BB7H         LINE#         316
  C:0BBAH         LINE#         318
  C:0BC0H         LINE#         320
  C:0BC8H         LINE#         321
  C:0BC8H         LINE#         322
  C:0BCFH         LINE#         323
  C:0BD9H         LINE#         324
  C:0BD9H         LINE#         325
  C:0BE4H         LINE#         326
  C:0BE7H         LINE#         327
  C:0BE7H         LINE#         328
  C:0C0BH         LINE#         329
  C:0C0DH         LINE#         330
  C:0C0DH         LINE#         331
  C:0C11H         LINE#         332
  C:0C18H         LINE#         333
  C:0C18H         LINE#         334
  C:0C1AH         LINE#         335
  C:0C20H         LINE#         336
  C:0C20H         LINE#         337
BL51 BANKED LINKER/LOCATER V6.22.4.0                                                  03/27/2024  13:15:03  PAGE 26


  C:0C23H         LINE#         338
  C:0C25H         LINE#         340
  C:0C25H         LINE#         341
  C:0C2BH         LINE#         342
  C:0C2BH         LINE#         343
  C:0C2DH         LINE#         344
  C:0C2DH         LINE#         345
  C:0C2DH         LINE#         346
  C:0C2DH         LINE#         348
  C:0C30H         LINE#         349
  C:0C30H         LINE#         350
  C:0C36H         LINE#         351
  C:0C36H         LINE#         352
  C:0C3EH         LINE#         353
  C:0C40H         LINE#         355
  C:0C40H         LINE#         356
  C:0C47H         LINE#         357
  C:0C47H         LINE#         358
  C:0C49H         LINE#         360
  C:0C49H         LINE#         362
  C:0C51H         LINE#         363
  C:0C57H         LINE#         364
  C:0C57H         LINE#         366
  C:0C67H         LINE#         367
  C:0C67H         LINE#         368
  C:0C6AH         LINE#         369
  C:0C71H         LINE#         370
  C:0C71H         LINE#         372
  C:0C80H         LINE#         373
  C:0C80H         LINE#         374
  C:0C83H         LINE#         375
  C:0C87H         LINE#         376
  C:0C8EH         LINE#         377
  C:0C8EH         LINE#         378
  C:0C90H         LINE#         380
  C:0C90H         LINE#         381
  C:0C9DH         LINE#         382
  C:0C9DH         LINE#         384
  C:0CA1H         LINE#         385
  -------         ENDPROC       TOUCHKEYSCAN
  -------         PROC          CTK_ISR
  C:1227H         LINE#         394
  C:1244H         LINE#         396
  C:1247H         LINE#         397
  -------         ENDPROC       CTK_ISR
  -------         ENDMOD        S_TOUCHKEYCFG

  -------         MODULE        SENSORMETHOD
  C:0000H         SYMBOL        _ICE_DUMMY_
  D:00FFH         PUBLIC        OPREG
  X:0049H         PUBLIC        FlowFingerRoundIndex
  C:0DCFH         PUBLIC        _ICHAAdjust
  D:00CFH         PUBLIC        TK_WDTCR
  B:00A8H.7       PUBLIC        TK_EA
  D:00E4H         PUBLIC        TKCNT
  D:00A8H         PUBLIC        TK_IE
  D:00FEH         PUBLIC        OPINX
BL51 BANKED LINKER/LOCATER V6.22.4.0                                                  03/27/2024  13:15:03  PAGE 27


  C:111AH         PUBLIC        InitializeSensorFlag
  X:004AH         PUBLIC        ScanTime
  C:162FH         PUBLIC        TouchKeyRestart
  D:00E1H         PUBLIC        TKCFG0
  D:00E2H         PUBLIC        TKCFG1
  D:00E3H         PUBLIC        TKCFG2
  C:13CBH         PUBLIC        SensorKeyFlag
  D:003BH         PUBLIC        KeyFlag
  I:007FH         PUBLIC        FlowFingerRoundCnt
  B:0020H.0       PUBLIC        bMultiple
  D:00E8H         PUBLIC        TKCR
  C:12EDH         PUBLIC        InitializeBaselines
  B:00E8H.6       PUBLIC        TRIG
  D:003DH         PUBLIC        KeyMark
  C:1635H         PUBLIC        SetNeedUpdateBaseline
  D:00A9H         PUBLIC        TK_IE1
  C:0F55H         PUBLIC        FilterAvergeDeal
  D:00E6H         PUBLIC        TKTM
  X:004CH         PUBLIC        MultipleDealIndex
  C:0100H         PUBLIC        _SensorRenovate
  B:0020H.1       PUBLIC        bNeedUpdate
  C:0D3CH         PUBLIC        TouchKeyInit
  C:0784H         PUBLIC        _MultipleDeal
  D:003FH         PUBLIC        CurrentChannelMax
  C:154DH         PUBLIC        _Usdelay
  C:0A79H         PUBLIC        _FilterDataDeal
  I:0081H         PUBLIC        CurrentIndex
  C:1317H         PUBLIC        FilterIIRInit
  C:0E5FH         PUBLIC        TouchKey_Service
  C:1632H         PUBLIC        GetIsNeedUpdateBaseline
  I:0082H         PUBLIC        IsInNosicValue
  C:1341H         PUBLIC        FilterCommCode
  -------         PROC          _USDELAY
  D:0006H         SYMBOL        delay
  C:154DH         LINE#         125
  C:154DH         LINE#         126
  C:154DH         LINE#         127
  C:1551H         LINE#         128
  C:1551H         LINE#         129
  C:1556H         LINE#         130
  C:1558H         LINE#         131
  -------         ENDPROC       _USDELAY
  -------         PROC          _ICHAADJUST
  D:002BH         SYMBOL        Channel
  -------         DO            
  D:002CH         SYMBOL        icha_set
  -------         ENDDO         
  C:0DCFH         LINE#         139
  C:0DD1H         LINE#         140
  C:0DD1H         LINE#         142
  C:0DD6H         LINE#         143
  C:0E0DH         LINE#         144
  C:0E0DH         LINE#         145
  C:0E11H         LINE#         146
  C:0E11H         LINE#         147
  C:0E12H         LINE#         148
  C:0E12H         LINE#         149
BL51 BANKED LINKER/LOCATER V6.22.4.0                                                  03/27/2024  13:15:03  PAGE 28


  C:0E12H         LINE#         150
  C:0E14H         LINE#         151
  C:0E4BH         LINE#         152
  C:0E4BH         LINE#         153
  C:0E51H         LINE#         154
  C:0E51H         LINE#         155
  C:0E5CH         LINE#         156
  C:0E5EH         LINE#         157
  C:0E5EH         LINE#         158
  C:0E5EH         LINE#         159
  -------         ENDPROC       _ICHAADJUST
  -------         PROC          TOUCHKEY_SERVICE
  -------         DO            
  B:0020H.3       SYMBOL        Scanflag
  -------         ENDDO         
  C:0E5FH         LINE#         167
  C:0E5FH         LINE#         168
  C:0E5FH         LINE#         169
  C:0E61H         LINE#         171
  C:0E74H         LINE#         172
  C:0E75H         LINE#         174
  C:0E7BH         LINE#         175
  C:0E7BH         LINE#         176
  C:0E7DH         LINE#         177
  C:0E84H         LINE#         178
  C:0E86H         LINE#         180
  C:0E86H         LINE#         181
  C:0E88H         LINE#         182
  C:0E88H         LINE#         183
  C:0E93H         LINE#         184
  C:0EABH         LINE#         185
  C:0EC1H         LINE#         186
  C:0ECFH         LINE#         187
  C:0EE0H         LINE#         189
  C:0EE5H         LINE#         191
  -------         ENDPROC       TOUCHKEY_SERVICE
  -------         PROC          TOUCHKEYINIT
  C:0D3CH         LINE#         200
  C:0D3CH         LINE#         201
  C:0D3CH         LINE#         202
  C:0D3FH         LINE#         203
  C:0D42H         LINE#         206
  C:0D44H         LINE#         208
  C:0D46H         LINE#         209
  C:0D4AH         LINE#         210
  C:0D4EH         LINE#         212
  C:0D51H         LINE#         213
  C:0D6CH         LINE#         214
  C:0D82H         LINE#         216
  C:0D98H         LINE#         217
  C:0DA0H         LINE#         218
  C:0DA0H         LINE#         219
  C:0DA8H         LINE#         221
  C:0DA8H         LINE#         222
  C:0DB4H         LINE#         223
  C:0DBBH         LINE#         225
  C:0DBEH         LINE#         226
BL51 BANKED LINKER/LOCATER V6.22.4.0                                                  03/27/2024  13:15:03  PAGE 29


  C:0DC1H         LINE#         228
  C:0DC9H         LINE#         229
  C:0DCCH         LINE#         230
  -------         ENDPROC       TOUCHKEYINIT
  -------         PROC          TOUCHKEYRESTART
  C:162FH         LINE#         240
  C:162FH         LINE#         241
  C:162FH         LINE#         242
  C:1631H         LINE#         243
  -------         ENDPROC       TOUCHKEYRESTART
  -------         PROC          FILTERCOMMCODE
  -------         DO            
  D:0005H         SYMBOL        times
  -------         ENDDO         
  C:1341H         LINE#         252
  C:1341H         LINE#         253
  C:1341H         LINE#         254
  C:1343H         LINE#         256
  C:134AH         LINE#         257
  C:134CH         LINE#         259
  C:1354H         LINE#         260
  C:1354H         LINE#         261
  C:135BH         LINE#         262
  C:135EH         LINE#         263
  C:135FH         LINE#         264
  C:1369H         LINE#         265
  C:1369H         LINE#         266
  C:1369H         LINE#         267
  -------         ENDPROC       FILTERCOMMCODE
  -------         PROC          FILTERAVERGEDEAL
  -------         DO            
  D:0021H         SYMBOL        t
  D:0022H         SYMBOL        i
  -------         ENDDO         
  C:0F55H         LINE#         276
  C:0F55H         LINE#         277
  C:0F55H         LINE#         280
  C:0F5CH         LINE#         282
  C:0F5CH         LINE#         283
  C:0F5FH         LINE#         284
  C:0F69H         LINE#         285
  C:0F69H         LINE#         286
  C:0F89H         LINE#         287
  C:0F8EH         LINE#         288
  C:0F92H         LINE#         289
  C:0F99H         LINE#         290
  C:0F9CH         LINE#         292
  C:0FA1H         LINE#         294
  C:0FA1H         LINE#         295
  C:0FA4H         LINE#         296
  C:0FAEH         LINE#         297
  C:0FAEH         LINE#         298
  C:0FB3H         LINE#         299
  C:0FB7H         LINE#         300
  C:0FBEH         LINE#         301
  -------         ENDPROC       FILTERAVERGEDEAL
  -------         PROC          INITIALIZEBASELINES
BL51 BANKED LINKER/LOCATER V6.22.4.0                                                  03/27/2024  13:15:03  PAGE 30


  -------         DO            
  D:0007H         SYMBOL        i
  -------         ENDDO         
  C:12EDH         LINE#         310
  C:12EDH         LINE#         311
  C:12EDH         LINE#         313
  C:12F5H         LINE#         314
  C:12F5H         LINE#         315
  C:1313H         LINE#         316
  C:1316H         LINE#         317
  -------         ENDPROC       INITIALIZEBASELINES
  -------         PROC          SENSORKEYFLAG
  -------         DO            
  D:0021H         SYMBOL        i
  -------         ENDDO         
  C:13CBH         LINE#         326
  C:13CBH         LINE#         327
  C:13CBH         LINE#         330
  C:13CFH         LINE#         331
  C:13D8H         LINE#         332
  C:13D8H         LINE#         333
  C:13DDH         LINE#         334
  C:13E2H         LINE#         335
  C:13E6H         LINE#         336
  C:13EAH         LINE#         337
  -------         ENDPROC       SENSORKEYFLAG
  -------         PROC          _SENSORRENOVATE
  D:0022H         SYMBOL        i
  -------         DO            
  D:0023H         SYMBOL        differData
  D:0025H         SYMBOL        result
  D:0026H         SYMBOL        j
  D:0027H         SYMBOL        RealConfirmTouchCnt
  D:0028H         SYMBOL        SetFingerThresholdtmp
  D:002AH         SYMBOL        testcount
  -------         ENDDO         
  C:0100H         LINE#         346
  C:0102H         LINE#         347
  C:0102H         LINE#         353
  C:0105H         LINE#         355
  C:012BH         LINE#         358
  C:013FH         LINE#         360
  C:0148H         LINE#         362
  C:0159H         LINE#         363
  C:0159H         LINE#         364
  C:015CH         LINE#         365
  C:015EH         LINE#         367
  C:015EH         LINE#         368
  C:0161H         LINE#         369
  C:0161H         LINE#         372
  C:016AH         LINE#         373
  C:016AH         LINE#         374
  C:0179H         LINE#         375
  C:0179H         LINE#         376
  C:017FH         LINE#         377
  C:017FH         LINE#         379
  C:018EH         LINE#         380
BL51 BANKED LINKER/LOCATER V6.22.4.0                                                  03/27/2024  13:15:03  PAGE 31


  C:018EH         LINE#         381
  C:0193H         LINE#         382
  C:0199H         LINE#         383
  C:0199H         LINE#         384
  C:019CH         LINE#         385
  C:01A5H         LINE#         386
  C:01A5H         LINE#         387
  C:01B4H         LINE#         388
  C:01B6H         LINE#         389
  C:01BAH         LINE#         390
  C:01C5H         LINE#         391
  C:01C5H         LINE#         392
  C:01CBH         LINE#         393
  C:01CBH         LINE#         394
  C:01CBH         LINE#         395
  C:01D9H         LINE#         396
  C:01D9H         LINE#         397
  C:01DCH         LINE#         399
  C:01E2H         LINE#         400
  C:01E2H         LINE#         401
  C:01EBH         LINE#         402
  C:01EBH         LINE#         403
  C:01F1H         LINE#         404
  C:01F1H         LINE#         405
  C:01FEH         LINE#         406
  C:01FEH         LINE#         407
  C:0201H         LINE#         408
  C:0203H         LINE#         409
  C:0203H         LINE#         410
  C:0203H         LINE#         411
  C:0207H         LINE#         412
  C:0211H         LINE#         413
  C:0211H         LINE#         414
  C:0215H         LINE#         415
  C:0215H         LINE#         416
  C:021EH         LINE#         417
  C:021EH         LINE#         418
  C:0224H         LINE#         419
  C:0224H         LINE#         420
  C:0231H         LINE#         421
  C:0231H         LINE#         422
  C:0231H         LINE#         423
  C:0233H         LINE#         424
  C:0233H         LINE#         425
  C:0233H         LINE#         426
  C:0237H         LINE#         427
  C:0237H         LINE#         428
  C:0237H         LINE#         429
  C:0237H         LINE#         431
  C:0237H         LINE#         432
  C:0241H         LINE#         433
  C:0241H         LINE#         434
  C:0243H         LINE#         435
  C:024CH         LINE#         436
  C:024CH         LINE#         437
  C:025BH         LINE#         438
  C:025BH         LINE#         439
BL51 BANKED LINKER/LOCATER V6.22.4.0                                                  03/27/2024  13:15:03  PAGE 32


  C:025DH         LINE#         440
  C:025DH         LINE#         441
  C:0261H         LINE#         442
  C:026CH         LINE#         443
  C:026CH         LINE#         444
  C:026FH         LINE#         445
  C:026FH         LINE#         446
  C:026FH         LINE#         447
  C:026FH         LINE#         449
  C:0275H         LINE#         450
  C:0275H         LINE#         451
  C:0277H         LINE#         452
  C:0277H         LINE#         453
  C:027FH         LINE#         454
  C:027FH         LINE#         455
  C:027FH         LINE#         458
  C:0286H         LINE#         459
  C:028DH         LINE#         460
  C:029CH         LINE#         461
  C:02A9H         LINE#         462
  C:02AAH         LINE#         465
  C:02AAH         LINE#         466
  C:02BEH         LINE#         467
  C:02BEH         LINE#         468
  C:02BEH         LINE#         469
  C:02BEH         LINE#         470
  C:02C4H         LINE#         471
  C:02C4H         LINE#         472
  C:02C6H         LINE#         474
  C:02C6H         LINE#         475
  C:02C9H         LINE#         476
  C:02D0H         LINE#         477
  C:02D0H         LINE#         479
  C:0304H         LINE#         480
  C:0304H         LINE#         481
  C:030BH         LINE#         482
  C:0318H         LINE#         483
  C:0321H         LINE#         484
  C:0321H         LINE#         485
  C:0334H         LINE#         486
  C:0352H         LINE#         487
  C:0352H         LINE#         488
  C:0361H         LINE#         489
  C:0361H         LINE#         490
  C:0363H         LINE#         491
  C:038BH         LINE#         492
  C:038BH         LINE#         493
  C:039DH         LINE#         494
  C:03ACH         LINE#         495
  C:03ACH         LINE#         496
  C:03ACH         LINE#         497
  C:03AFH         LINE#         498
  C:03D1H         LINE#         499
  C:03D1H         LINE#         500
  C:03D7H         LINE#         501
  C:03E4H         LINE#         502
  C:03F9H         LINE#         503
BL51 BANKED LINKER/LOCATER V6.22.4.0                                                  03/27/2024  13:15:03  PAGE 33


  C:03F9H         LINE#         505
  C:0410H         LINE#         506
  C:0410H         LINE#         507
  C:0417H         LINE#         508
  C:0419H         LINE#         509
  C:041DH         LINE#         510
  C:041FH         LINE#         512
  C:041FH         LINE#         513
  C:044DH         LINE#         514
  C:044DH         LINE#         515
  C:044DH         LINE#         516
  C:0455H         LINE#         517
  C:0455H         LINE#         518
  C:0458H         LINE#         519
  C:0458H         LINE#         520
  C:045AH         LINE#         521
  C:0473H         LINE#         522
  C:0473H         LINE#         523
  C:047AH         LINE#         524
  C:0480H         LINE#         525
  C:0480H         LINE#         526
  C:048EH         LINE#         527
  C:049EH         LINE#         528
  C:049EH         LINE#         529
  C:04ABH         LINE#         530
  C:04C8H         LINE#         531
  C:04C8H         LINE#         532
  C:04C8H         LINE#         533
  C:04C8H         LINE#         536
  C:04D7H         LINE#         537
  C:04D7H         LINE#         538
  C:04FEH         LINE#         539
  C:04FEH         LINE#         540
  C:0504H         LINE#         541
  C:0509H         LINE#         542
  C:0513H         LINE#         543
  C:0513H         LINE#         544
  C:0522H         LINE#         545
  C:0524H         LINE#         546
  C:0528H         LINE#         547
  C:0533H         LINE#         548
  C:0533H         LINE#         549
  C:0538H         LINE#         550
  C:0538H         LINE#         551
  C:0543H         LINE#         552
  C:0543H         LINE#         553
  C:0545H         LINE#         554
  C:0553H         LINE#         555
  C:055AH         LINE#         556
  C:055AH         LINE#         557
  C:055BH         LINE#         559
  C:055BH         LINE#         560
  C:0561H         LINE#         561
  C:0561H         LINE#         562
  C:0562H         LINE#         564
  C:0562H         LINE#         565
  C:0569H         LINE#         567
BL51 BANKED LINKER/LOCATER V6.22.4.0                                                  03/27/2024  13:15:03  PAGE 34


  C:056FH         LINE#         568
  C:056FH         LINE#         569
  C:0574H         LINE#         570
  C:0574H         LINE#         572
  C:057BH         LINE#         573
  C:057BH         LINE#         575
  C:057BH         LINE#         577
  C:0583H         LINE#         578
  C:0583H         LINE#         580
  C:0583H         LINE#         582
  C:058DH         LINE#         583
  C:058DH         LINE#         584
  C:0595H         LINE#         585
  C:0595H         LINE#         586
  C:0598H         LINE#         587
  C:0598H         LINE#         588
  C:059CH         LINE#         589
  C:05A0H         LINE#         590
  C:05A0H         LINE#         591
  C:05A2H         LINE#         592
  C:05A2H         LINE#         593
  C:05A2H         LINE#         595
  C:05A2H         LINE#         596
  -------         ENDPROC       _SENSORRENOVATE
  -------         PROC          FILTERIIRINIT
  -------         DO            
  D:0007H         SYMBOL        i
  -------         ENDDO         
  C:1317H         LINE#         604
  C:1317H         LINE#         605
  C:1317H         LINE#         607
  C:131FH         LINE#         608
  C:131FH         LINE#         609
  C:133DH         LINE#         610
  C:1340H         LINE#         611
  -------         ENDPROC       FILTERIIRINIT
  -------         PROC          _FILTERDATADEAL
  D:0023H         SYMBOL        i
  -------         DO            
  D:0024H         SYMBOL        FilterTemp
  D:0004H         SYMBOL        SetFingerThresholdtmp
  -------         ENDDO         
  C:0A79H         LINE#         620
  C:0A7BH         LINE#         621
  C:0A7BH         LINE#         625
  C:0AA1H         LINE#         627
  C:0AAAH         LINE#         629
  C:0ACFH         LINE#         630
  C:0ACFH         LINE#         631
  C:0ADFH         LINE#         632
  C:0AE2H         LINE#         633
  C:0B0FH         LINE#         634
  C:0B0FH         LINE#         635
  C:0B44H         LINE#         636
  C:0B46H         LINE#         638
  C:0B46H         LINE#         639
  C:0B96H         LINE#         640
BL51 BANKED LINKER/LOCATER V6.22.4.0                                                  03/27/2024  13:15:03  PAGE 35


  C:0B96H         LINE#         642
  C:0BB6H         LINE#         643
  -------         ENDPROC       _FILTERDATADEAL
  -------         PROC          GETISNEEDUPDATEBASELINE
  C:1632H         LINE#         652
  C:1632H         LINE#         653
  C:1632H         LINE#         654
  C:1634H         LINE#         655
  -------         ENDPROC       GETISNEEDUPDATEBASELINE
  -------         PROC          SETNEEDUPDATEBASELINE
  C:1635H         LINE#         664
  C:1635H         LINE#         665
  C:1635H         LINE#         666
  C:1637H         LINE#         667
  -------         ENDPROC       SETNEEDUPDATEBASELINE
  -------         PROC          INITIALIZESENSORFLAG
  -------         DO            
  D:0007H         SYMBOL        i
  -------         ENDDO         
  C:111AH         LINE#         676
  C:111AH         LINE#         677
  C:111AH         LINE#         679
  C:1122H         LINE#         680
  C:1122H         LINE#         681
  C:1128H         LINE#         682
  C:112EH         LINE#         683
  C:1134H         LINE#         684
  C:1142H         LINE#         685
  C:1148H         LINE#         686
  C:114BH         LINE#         688
  C:1150H         LINE#         689
  C:1156H         LINE#         690
  C:115CH         LINE#         691
  C:115EH         LINE#         692
  -------         ENDPROC       INITIALIZESENSORFLAG
  -------         PROC          _MULTIPLEDEAL
  D:0021H         SYMBOL        CycleCnt
  -------         DO            
  X:0048H         SYMBOL        InitSensorCnt
  D:0004H         SYMBOL        FilterTemp
  D:0022H         SYMBOL        t
  -------         ENDDO         
  C:0784H         LINE#         701
  C:0786H         LINE#         702
  C:0786H         LINE#         708
  C:0793H         LINE#         709
  C:0793H         LINE#         710
  C:0795H         LINE#         711
  C:079AH         LINE#         712
  C:079AH         LINE#         713
  C:07A3H         LINE#         714
  C:07A3H         LINE#         715
  C:07C3H         LINE#         716
  C:07C7H         LINE#         717
  C:07C7H         LINE#         718
  C:07CAH         LINE#         719
  C:07CCH         LINE#         720
BL51 BANKED LINKER/LOCATER V6.22.4.0                                                  03/27/2024  13:15:03  PAGE 36


  C:07D1H         LINE#         722
  C:07D1H         LINE#         724
  C:07D7H         LINE#         725
  C:07DBH         LINE#         726
  C:07DBH         LINE#         727
  C:07DEH         LINE#         728
  C:07E3H         LINE#         729
  C:07E3H         LINE#         731
  C:07EFH         LINE#         732
  C:07EFH         LINE#         733
  C:07FCH         LINE#         734
  C:07FCH         LINE#         735
  C:0823H         LINE#         736
  C:0828H         LINE#         737
  C:0828H         LINE#         738
  C:0868H         LINE#         739
  C:086AH         LINE#         740
  C:086AH         LINE#         742
  C:086AH         LINE#         743
  C:08AAH         LINE#         744
  C:08AAH         LINE#         745
  C:08AAH         LINE#         746
  C:08AFH         LINE#         747
  C:08B4H         LINE#         749
  C:08B9H         LINE#         750
  C:08B9H         LINE#         751
  C:08BFH         LINE#         752
  C:08BFH         LINE#         754
  C:08D6H         LINE#         755
  C:08D6H         LINE#         756
  C:08D8H         LINE#         757
  C:08DAH         LINE#         758
  C:08E0H         LINE#         759
  C:08F7H         LINE#         760
  C:08F7H         LINE#         761
  C:08FCH         LINE#         762
  C:08FFH         LINE#         763
  C:0902H         LINE#         764
  C:0904H         LINE#         765
  C:0904H         LINE#         766
  C:0904H         LINE#         767
  C:0904H         LINE#         768
  -------         ENDPROC       _MULTIPLEDEAL
  -------         ENDMOD        SENSORMETHOD

  -------         MODULE        ?C_STARTUP
  C:0CA2H         SEGMENT       ?C_C51STARTUP
  I:0083H         SEGMENT       ?STACK
  C:0000H         PUBLIC        ?C_STARTUP
  D:00E0H         SYMBOL        ACC
  D:00F0H         SYMBOL        B
  D:0083H         SYMBOL        DPH
  D:0082H         SYMBOL        DPL
  N:0000H         SYMBOL        IBPSTACK
  N:0100H         SYMBOL        IBPSTACKTOP
  N:0100H         SYMBOL        IDATALEN
  C:0CA5H         SYMBOL        IDATALOOP
BL51 BANKED LINKER/LOCATER V6.22.4.0                                                  03/27/2024  13:15:03  PAGE 37


  N:0000H         SYMBOL        PBPSTACK
  N:0100H         SYMBOL        PBPSTACKTOP
  N:0000H         SYMBOL        PDATALEN
  N:0000H         SYMBOL        PDATASTART
  N:0000H         SYMBOL        PPAGE
  N:0000H         SYMBOL        PPAGEENABLE
  D:00A0H         SYMBOL        PPAGE_SFR
  D:0081H         SYMBOL        SP
  C:0CA2H         SYMBOL        STARTUP1
  N:0000H         SYMBOL        XBPSTACK
  N:0000H         SYMBOL        XBPSTACKTOP
  N:0300H         SYMBOL        XDATALEN
  C:0CB0H         SYMBOL        XDATALOOP
  N:0000H         SYMBOL        XDATASTART
  C:0000H         LINE#         126
  C:0CA2H         LINE#         133
  C:0CA4H         LINE#         134
  C:0CA5H         LINE#         135
  C:0CA6H         LINE#         136
  C:0CA8H         LINE#         140
  C:0CABH         LINE#         141
  C:0CADH         LINE#         145
  C:0CAFH         LINE#         147
  C:0CB0H         LINE#         148
  C:0CB1H         LINE#         149
  C:0CB2H         LINE#         150
  C:0CB4H         LINE#         151
  C:0CB6H         LINE#         185
  C:0CB9H         LINE#         196
  -------         ENDMOD        ?C_STARTUP

  -------         MODULE        ?C?FPCMP
  C:0907H         PUBLIC        ?C?FPCMP
  C:0905H         PUBLIC        ?C?FPCMP3
  -------         ENDMOD        ?C?FPCMP

  -------         MODULE        ?C?FCAST
  C:0988H         PUBLIC        ?C?FCASTC
  C:0983H         PUBLIC        ?C?FCASTI
  C:097EH         PUBLIC        ?C?FCASTL
  -------         ENDMOD        ?C?FCAST

  -------         MODULE        ?C?IMUL
  C:09BCH         PUBLIC        ?C?IMUL
  -------         ENDMOD        ?C?IMUL

  -------         MODULE        ?C?UIDIV
  C:09CEH         PUBLIC        ?C?UIDIV
  -------         ENDMOD        ?C?UIDIV

  -------         MODULE        ?C?IILDX
  C:0A23H         PUBLIC        ?C?IILDX
  -------         ENDMOD        ?C?IILDX

  -------         MODULE        ?C?LNEG
  C:0A39H         PUBLIC        ?C?LNEG
  -------         ENDMOD        ?C?LNEG
BL51 BANKED LINKER/LOCATER V6.22.4.0                                                  03/27/2024  13:15:03  PAGE 38



  -------         MODULE        ?C?OFFXADD
  C:0A47H         PUBLIC        ?C?OFFXADD
  -------         ENDMOD        ?C?OFFXADD

  -------         MODULE        ?C?CCASE
  C:0A53H         PUBLIC        ?C?CCASE
  -------         ENDMOD        ?C?CCASE

Program Size: data=131.4 xdata=77 code=5456
LINK/LOCATE RUN COMPLETE.  0 WARNING(S),  0 ERROR(S)
