:060F1200041B00000000BA
:100E9000900020E0FF30E712547FF0120862E48FE8
:0B0EA0001E8E1DF51CF51B120F952285
:100EAB00120F01120EDA120F221209CF43CF1000CC
:090EBB000000000000000080FEB0
:03000000020935BD
:1009350078FFE4F6D8FD9000007F007E03E4F0A385
:0A094500DFFCDEFA75814302098A27
:100C6C000000000100000005000A0BB800C8006479
:100C7C00000200000000000400000001FFFFFFFF65
:100C8C00001402260408170702610226040815073F
:100C9C00024002260408160702130226040819074C
:050CAC00020E0A0A20FF
:030F1800013F0096
:0B0F4C00900C76E493FE740193FF22EA
:0B0F5700900C7AE493FE740193FF22DB
:080F7400900C74740193FF223C
:030F92007F0122BA
:100D9D00AD07ED75F008A42494F582E4340CF583C9
:100DAD00E493FEED75F008A42495F582E4340CF57A
:0C0DBD0083E4937C002400FFEC3EFE2247
:100EEF00EF75F008A42491F582E4340CF583E493B4
:020EFF00FF22D0
:080F7C00900C6E740193FF223A
:070F840074332FF8E6FF2291
:070F8B007826E6C313FF22E4
:090F62007826E675F00384FF22F5
:100EC400120D9DEF7803C333CE33CED8F9FF7C00E7
:050ED4007D0A120B0471
:010ED90022F6
:100DC900E4FDFF7E0FFCEEC313FEEF13FF30D713D4
:100DD900740C2DF582E43400F583ECF00DEDC39429
:090DE9000450040CBC10DF8D1550
:010DF20022DE
:100D7000EF146012146014146011146015240470D0
:100D800019900C8E8008900C8F8003900C90E49347
:0D0D9000FF22900C80740193FF227F00224F
:100CF600900C727401937826F6900C8C7401939084
:100D06000021F0120DC9E4FFEFC39515501AEF75D7
:100D1600F008A42492F582E4340CF583E493FE747F
:0E0D2600332FF8A6060F80E0E47839F608F6C1
:010D3400229C
:10086200E4F521F522F523120F985003020925120F
:100872000E70AD07AC06E4FBEBC395155030ECC32C
:1008820013FCED13FD30D723740C2BF582E43400F6
:10089200F583E0FF74017E00A807088005C333CE0C
:1008A20033CED8F94223EE422205210B80CAE5213C
:1008B200C394024015D200E52194034005120F9B18
:1008C2008008120F7CEF6002C200200018E5234569
:1008D20022600A783A06E6187001068015E4783933
:1008E200F608F6800D783806E618700106E4F5225F
:1008F200F523120F4CD3783AE69F18E69E40091270
:100902000F9BE47839F608F6D37838E6942C18E68B
:100912009401401A120F9B783F7601E47837F6086B
:10092200F6800B900C7CE4740193FF1205A3AE22B7
:02093200AF23F1
:0109340022A0
:03005B00020D355E
:100D3500C0E0C0F0C083C082C0D075D000C000C084
:100D450001C002C003C004C005C006C007120B7B6A
:100D5500D007D006D005D004D003D002D001D000F2
:0B0D6500D0D0D082D083D0F0D0E0329C
:040F1B0041002E0063
:0C0F4000EF4E6007EF1F70F81E80F522D6
:020A62008F18EB
:100A6400120F848F19AF18120EEFEFFB90002DE0D8
:100A740025E0FF90002CE033FE7C007D0A120B047D
:100A8400AD037C00120AF275F002E5189000001222
:100A94000B6FE0FCA3E0C39FEC9E5007E519604D8B
:100AA400148040AF18120EEFEFFB90002CE0FEA371
:100AB400E0FF7C007D07120AF27D0A120B04AD03ED
:100AC4007C00120AF275F002E518900000120B6F18
:100AD400E0FCA3E0D39FEC9E4013E519647E600D17
:0D0AE400E51904FF74332518F8A607D201A8
:010AF10022E2
:100B7B00C2037842E675F002900010120B6FE5E5A8
:100B8B00F0A3E5E4F006E6C39515400BE4F6900000
:100B9B0020E04480F08002D2037F02120D70EFC47C
:100BAB0054F0F5E17842E6FF120EEF7E0090002C38
:100BBB00E0FCA3E0FD120AF28EE78FE67F02120D36
:100BCB0070EFC454F0FEC006E4FF120D70D0E02F9E
:100BDB00F5E17842E6FF120F84E5E254804FF5E22F
:100BEB007842E6240CF582E43400F583E04480F58A
:060BFB00E8300302D2EE17
:010C010022D0
:1009CF0075FE8543FF20D2AFC201E47842F6900056
:1009DF0020F0120CF6E4FF120D70EF2401FDE4334A
:1009EF00FC7E0B7FB8120B0490002CEEF0A3EFF0FF
:1009FF00E4FF120EEF7E0090002CE0FCA3E0FD124E
:100A0F000AF28EE78FE67F02120D70EFC454F0FEEC
:100A1F00C006E4FF120D70D0E02FF5E17F04120D38
:100A2F0070EF6008E5E254804480F5E27F03120D19
:100A3F0070E5E254804FF5E27F01120D708FE312E3
:100A4F000CB143A91090000CE04480F5E8120C02A1
:030A5F00020DF392
:030F9500D2EE2277
:100E4700E4FD900020E0547FF0D2EE900020E054C3
:100E57008070157FE87E03120F4043CF100DEDC35E
:080E670094327480948040E392
:010E6F002260
:100C0200900CB0E493F516120E47E4F517E517C3FE
:100C12009515502975F002E517900010120B6FE040
:100C2200FEA3E0FF75F002E517900000120B6FEED5
:100C3200F0A3EFF0AF17120A62051780D0AF1615B6
:100C420016EF70C3120E1D120F748F16120E47E4A8
:100C5200F517E517C395155009AF171207240517A5
:090C620080F0AF161516EF70E3E7
:010C6B002266
:100DF300E4FFEFC39515502175F002EF9000101238
:100E03000B6FE0FCA3E0FD75F002EF900000120B06
:090E13006FECF0A3EDF00F80D9A3
:010E1C0022B3
:100E7000E47843F6F51FE51FC39515500EAF1F121A
:0F0E80000724AF1F120100051F80EBAE11AF1248
:010E8F002240
:020100008F0866
:10010200E4F51075F002EF900000120B6FE0FEA311
:10011200E0FF75F002E508900010120B6FE0FCA3FF
:10012200E0C39FF50AEC9EF5097E007401A8080859
:100132008005C333CE33CED8F9F5148E13AF08122F
:100142000D9D8E0E8F0FC3E50A950FE50E6480F8A4
:10015200E5096480984005750B018003E4F50BE521
:100162000B640160030202AA74272508F8E6C3940F
:10017200FA74809480500674272508F806E5115514
:1001820013FEE51255144E600302027F7826E6F54F
:100192000D120F92EF6032E4F50BF50CE50CC395EE
:1001A2001550157427250CF8E6C3940174809480C9
:1001B2004002050B050C80E4C3E50B9403748094A4
:1001C200804006740F250DF50D74272508F8E6C347
:1001D200950D500302027FE4F50B120F7CEF705570
:1001E200F50CE50CC39515501CE508650C60121260
:1001F2000F627427250CF8E6C39F4005750B01803A
:1002020004050C80DD120F92EF3395E04F705EE52E
:100212000B705AF50CE50CC395155051E508650CA9
:10022200600F120F62742B250CF8E6C39F40028008
:1002320039050C80E0120F92EF3395E04F702EF5E6
:100242000DF50CE50CC3951550157427250CF8E631
:10025200C39402748094804002050D050C80E4C3AF
:10026200E50D9403748094804003750B01E50B64E3
:10027200017002D200E5144212E5134211742F25D7
:1002820008F8E4F6743B2508F8E4F675F002E50890
:10029200900018120B6FE4F0A3F074082508F582A1
:1002A200E43400F583E4F022AF08120EC4D3E50A69
:1002B2009FEE6480F8E5096480984008742B250855
:1002C200F806800A784306742B2508F8E4F69000B5
:1002D20021E0FF3395E0FEC3E49FFDE49EFCC3E50D
:1002E2000A9DEC6480F8E50964809850030203AF2C
:1002F200D3E50A9FEE6480F8E50964809840030222
:1003020003AF742F2508F8E4F674082508F582E493
:100312003400F583E4F0E512451160030204C87568
:10032200F002E508900018120B6FE509850AF01239
:100332000B59120F5775F002E508900018120B6F57
:10034200E0FCA3E0C39FEE6480F8EC648098401167
:1003520075F002E508900000120B6FE475F0018061
:1003620037120F57C3E49FFFE49EFE75F002E508C3
:10037200900018120B6FE0FCA3E0C39FEE6480F8BC
:10038200EC64809840030204C875F002E50890000E
:1003920000120B6F74FFF5F0120B5975F002E508AD
:1003A200900018120B6FE4F0A3F00204C890002131
:1003B200E0FF3395E0FEC3E49FFFE49EFEC3E50A3F
:1003C2009FEE6480F8E509648098400302045A7441
:1003D2002F2508F80674082508F582E43400F58311
:1003E200E4F0742F2508F8E6FD900CAEE493FFEDDF
:1003F2008FF084E5F07054900CAF93FEEF8EF0A472
:10040200FFC3ED9FE5F06480F8748098400F742F6D
:100412002508F8E4F6D201783F7601802E75F002C5
:10042200E508900000120B6FC083C082E0FEA3E0DB
:10043200FF900021E0A2E713FD3395E0FCC3EF9D9E
:10044200FFEE9CD082D083F0A3EFF090002BE0650A
:1004520008707374FFF0806E900021E0FFFD339509
:10046200E0FCD3E50A9DEC6480F8E50964809840DD
:1004720055742F2508F8E4F6E51245117048740802
:100482002508F582E43400F583E004F074082508B9
:10049200F582E43400F583E06420702A74082508AC
:1004A200F582E43400F583E4F0EFA2E713A2E71348
:1004B200FF3395E0FE75F002E508900000120B6F25
:1004C200EE8FF0120B59E5115513FEE51255144E3D
:1004D2007003020562AE0EE50F7802CEA2E713CEDC
:1004E20013D8F8FFC3E50F9FFFE50E9EFEC3E50A92
:1004F2009FEE6480F8E509648098505D743B25089E
:10050200F806120F8B8F0DE4F50CE50CC395155010
:10051200157427250CF8E6C3940174809480400278
:10052200050B050C80E4C3E50B94037480948040B2
:10053200057826E6F50D743B2508F8E6C3950D40CF
:100542005FE4F6E514F4FFE513F4FEEF5212EE5207
:100552001174272508F8E4F622743B2508F81622C0
:1005620074272508F8E4F6E51245117005AF081264
:100572000A62E51514650870277843E6C3951540AD
:100582001FE4F50CE50CC39515500F7427250CF8E4
:10059200E66003750B01050C80EAE50B7002C200F0
:0105A2002236
:100E1D00E4FFEFC39515502175F002EF900010120D
:100E2D000B6FE0FCA3E0FD75F002EF900022120BBA
:090E3D006FECF0A3EDF00F80D979
:010E46002289
:020724008F182C
:1007260075F002EF900022120B6FE0FEA3E0FF755A
:10073600F002E518900010120B6FE0FCA3E0C39FD7
:10074600F51AEC9EF519AF18120D9DAD07AC06D340
:10075600E51A9DEC6480F8E5196480985016C3E4A8
:100766009DFFE49CFEC3E51A9FEE6480F8E51964DC
:100776008098501375F002E518900010120B6FE088
:10078600FEA3E0FF020831ECA2E713FEED13FFD350
:10079600E51A9FEE6480F8E5196480985016C3E464
:1007A6009FFFE49EFEC3E51A9FEE6480F8E5196498
:1007B6008098503775F002E518900022120B6FE012
:1007C600FCA3E0FDECC313FEED13FFC3ED9FFDECB0
:1007D6009EFC75F002E518900010120B6FE0C31333
:1007E600FEA3E0132DFFEC3EFE804075F002E518F7
:1007F600900022120B6FE0FCA3E0FDAE047803CE5E
:10080600C313CE13D8F9FFC3ED9FFDEC9EFC75F024
:1008160002E518900010120B6FE0FEA3E07803CEFD
:10082600C313CE13D8F92DFFEC3EFE75F002E51882
:10083600900022120B6FEEF0A3EFF075F002E518B0
:10084600900022120B6FE0FEA3E0FF75F002E518A0
:0B085600900010120B6FEEF0A3EFF00B
:010861002274
:030F9800A2012291
:030F9B00D201225E
:100CB100E4FFEFC39515502974272FF8E4F6742F3C
:100CC1002FF8E4F6743B2FF8E4F675F002EF90008C
:100CD10018120B6FE4F0A3F0742B2FF8E4F60F80D9
:100CE100D1E4F511F51290002B74FFF0E47840F691
:040CF10008F6C2013E
:010CF50022DC
:0205A3008F24A3
:1005A50090002EE0C3940374809480403EE4F0787C
:1005B5003FE6702DF525E525C39515502475F00208
:1005C500E525900022120B6FE0FEA3E0FF75F00217
:1005D500E525900000120B6FEEF0A3EFF0052580E6
:1005E500D5120CB1C201E4783FF62290002AE0044E
:1005F500F0E0B52408120E1DE490002BF090002ABF
:10060500E0D395245003020723E4F525E525C3959A
:100615001540030206D375F002E525900022120B62
:100625006FE0FEA3E0FF75F002E525900010120BC8
:100635006FE0FCA3E0C39FFFEC9EAD07FC783FE6AF
:100645007042900021E0FB3395E0FAFEEB7802C39F
:1006550033CE33CED8F9FFD3ED9FEE6480F8EC644A
:1006650080984060E49BFFE49AFEEF7802C333CEA6
:1006750033CED8F9FFC3ED9FEE6480F8EC64809823
:100685005042804A900021E0FB3395E0FAFEEB787A
:1006950003C333CE33CED8F9FFD3ED9FEE6480F894
:1006A500EC648098401EE49BFFE49AFEEF7803C358
:1006B50033CE33CED8F9FFC3ED9FEE6480F8EC64FA
:1006C5008098400AAF251207240525020611E52565
:1006D500B5150690002BE004F0E52475F008A4FF9D
:1006E50090002AE0C39FE5F06480F8748098402E5E
:1006F500E4F0C20090002EE004F0E52475F004A4B7
:10070500FF90002BE0C39FE5F06480F8748098406B
:0E0715000DE490002EF0120DF3120CB1C20193
:0107230022B3
:100F0100759AFFE4F59B7591FFF59275A1FFF5A226
:010F110022BD
:020F1F00C1020D
:0F0F2200438F80759D88759E0143A901D2AF2230
:03003B00020F3180
:0F0F3100C0E0E59D30E605539DBFD202D0E0320F
:100EDA00758E01438901758A20758CD1C28CD2A97D
:050EEA00D28CD2AF2202
:03000B00020F6B76
:090F6B00758A80758CC1B28232D6
:10094F00020EABE493A3F8E493A34003F68001F205
:10095F0008DFF48029E493A3F85407240CC8C333A9
:10096F00C4540F4420C8834004F456800146F6DF78
:10097F00E4800B0102040810204080900F12E47EE7
:10098F00019360BCA3FF543F30E509541FFEE4936D
:10099F00A360010ECF54C025E060A840B8E493A334
:1009AF00FAE493A3F8E493A3C8C582C8CAC583CA5F
:1009BF00F0A3C8C582C8CAC583CADFE9DEE780BE17
:010F210000CF
:100AF200EF8DF0A4A8F0CF8CF0A428CE8DF0A42E18
:020B0200FE22D1
:100B0400BC000BBE0029EF8DF084FFADF022E4CCD5
:100B1400F875F008EF2FFFEE33FEEC33FCEE9DEC9E
:100B2400984005FCEE9DFE0FD5F0E9E4CEFD22EDE4
:100B3400F8F5F0EE8420D21CFEADF075F008EF2F2E
:100B4400FFED33FD4007985006D5F0F222C398FD1F
:050B54000FD5F0EA22BC
:100B5900C5F0F8A3E028F0C5F0F8E5821582700227
:060B69001583E038F022C4
:0C0B6F00A42582F582E5F03583F5832291
:00000001FF
