:1010EB0012121F1211C0121240120B301212C0003A
:0F10FB000000000000000012114612119480F84E
:0611D500041A00000000F6
:0912C00012123012132A02130E5F
:10119400121269EF60031211E812127412127F1214
:0611A400128A12129522CE
:03132A000212C9E3
:1011E80012132DEF24FE60072402700602110A1262
:0311F800117B2246
:011345002285
:011346002284
:011347002283
:011348002282
:011349002281
:1011FB000541E541C3949640087541967F02121252
:02120B004F2270
:04130E00E4F541229F
:10110A00121333EF6003121316121336EF6006122E
:0F111A00131E02131212132DEF70031211FB227A
:01134A002280
:01134B00227F
:01134C00227E
:01134D00227D
:01134E00227C
:10117B00121333EF6003121316121336EF600612BD
:09118B00131E02131212132D228F
:0311DB00013000E0
:1011290043CF100530AC30E41207A7E4FBFA79800D
:0C113900783F1207247005F530120E0CF0
:011145002287
:100E0C000532E53270020531AE31FF7C007D0A12ED
:100E1C0007EDED4C70480533AE31AF32FC7D32122C
:100E2C0007EDED4C70380534AE31AF32FC7D6412F9
:100E3C0007EDED4C70280535AE31AF327C017DF4F9
:100E4C001207EDED4C70170536AE31AF327C037DD9
:0F0E5C00E81207EDED4C70060537F531F532223F
:10123000E4F531F532F537F536F535F534F5332289
:05130900AE31AF3222FD
:0B126900E5337002FF22AF3315332283
:0B127400E5347002FF22AF3415342275
:0B127F00E5357002FF22AF3515352267
:0B128A00E5367002FF22AF3615362259
:0B129500E5377002FF22AF371537224B
:0E124F00E53D6F6008853D3E8F3D75400122F4
:03132D00AF3D22AF
:03133000AF3E22AB
:0712F4007B007A00793D2226
:03133300AF3F22A7
:04131200753F012200
:04131600E4F53F2299
:03133600AF4022A3
:04131A0075400122F7
:04131E00E4F5402290
:0912C900E4F53DF53E753F0122FC
:10114600900040E0FF30E712547FF01209C3E48FAD
:0B1156001D8E1CF51BF51A12133C2225
:0912D200AF1DAE1CAD1BAC1A22CD
:0A12B600E4F516F515F50DF5082214
:1010790074082515F8A69F0515E515D3940540189C
:10108900E4F515E5082509250A250BF5186318FF68
:09109900E518B50C0312134F22F7
:04132200E4F51522B7
:100F6D00E517702F851D0DAF1DAE1CAD1BAC1A788E
:100F7D00081208668F0EE4F50FF510F511F512F550
:100F8D0013FF740D2FF8E6F5190FBF07F56319FF61
:030F9D008519149F
:010FA000222E
:10116100120F6D740D2516F8E6F59F0516E516D3D9
:0A11710094074005E4F516F5172277
:04132600E4F51622B2
:01134F00227B
:01135000227A
:10121F00759AFFE4F59B7591FFF59275A1FFF5A205
:01122F00229C
:0211DE00C1024C
:0F124000438F80759D88759EB043A901D2AF2260
:03003B00020DA90A
:100DA900C0E0C0F0C083C082C0D075D000C000C010
:0D0DB90001C002C003C004C005C006C00791
:100DC600539DBFE59D5407FF24FE60121460141462
:100DD600601624047015121326121322800D1210A9
:0B0DE6007980081211618003121326AF
:100DF100D007D006D005D004D003D002D001D00056
:0B0E0100D0D0D082D083D0F0D0E032FF
:1011C000758E01438901758A20758CD1C28CD2A994
:0511D000D28CD2AF2219
:03000B00020EB032
:100EB000C0E0C0F0C083C082C0D075D000C000C008
:100EC00001C002C003C004C005C006C007758A2067
:100ED000758CD1B282121129D007D006D005D0046A
:100EE000D003D002D001D000D0D0D082D083D0F0B7
:030EF000D0E0321D
:100D44000000000100000005000A0BB800C80064A0
:100D5400000200000000000400000001FFFFFFFF8C
:100D64000014022A04081E07021C022A040822078F
:100D740001BE022A0408250701D4022A0408260712
:100D840001A0022A04082607021C022A04082807D4
:100D9400019E022A0408270701BC022A040824072A
:050DA400020A0A0A200A
:0311E000016F009C
:0B12A000900D4EE493FE740193FF22BA
:0B12AB00900D52E493FE740193FF22AB
:0812E400900D4C740193FF22F0
:031339007F01220F
:100FCE00AD07ED75F008A4246CF582E4340DF583BD
:100FDE00E493FEED75F008A4246DF582E4340DF56E
:0C0FEE0083E4937C002400FFEC3EFE2214
:10120D00EF75F008A42469F582E4340DF583E493B9
:02121D00FF22AE
:0812EC00900D46740193FF22EE
:0712FB00745B2FF8E6FF22EF
:071302007842E6C313FF224D
:0912DB007842E675F00384FF225D
:1011AA00120FCEEF7803C333CE33CED8F9FF7C00CB
:0511BA007D0A1207EDA3
:0111BF00220D
:100FFA00E4FD7FF07E3CFCEEC313FEEF13FF30D717
:10100A001374182DF582E43400F583ECF00DEDC36A
:0A101A00940850040CBC10DF8D3C5C
:0110240022A9
:100FA100EF1460121460141460111460152404709D
:100FB10019900D668008900D678003900D68E49389
:0D0FC100FF22900D58740193FF227F002243
:100EF300900D4A7401937842F6900D6474019390B7
:100F03000041F0120FFAE4FFEFC3953C501AEF755E
:100F1300F008A4246AF582E4340DF583E493FE74A7
:0E0F23005B2FF8A6060F80E0E47865F608F66E
:010F3100229D
:1009C300E4F521F522F52312133F5003020A8612A0
:1009D30010CBAD07AC06E4FBEBC3953C5030ECC346
:1009E30013FCED13FD30D72374182BF582E4340088
:1009F300F583E0FF74017E00A807088005C333CEAA
:100A030033CED8F94223EE422205210B80CAE521D9
:100A1300C394024015D200E521940340051213420A
:100A230080081212ECEF6002C200200018E5234593
:100A330022600A786606E6187001068015E4786578
:100A4300F608F6800D786406E618700106E4F522D0
:100A5300F5231212A0D37866E69F18E69E4009128A
:100A63001342E47865F608F6D37864E6942C18E626
:100A73009401401A121342786F7601E47863F60802
:100A8300F6800B900D54E4740193FF1205A3AE227C
:020A9300AF238F
:010A9500223E
:03005B00020F325F
:100F3200C0E0C0F0C083C082C0D075D000C000C085
:100F420001C002C003C004C005C006C007120C5392
:100F5200D007D006D005D004D003D002D001D000F3
:0B0F6200D0D0D082D083D0F0D0E0329D
:0411E3004100560071
:0C125D00EF4E6007EF1F70F81E80F522B6
:020BC3008F2E73
:100BC5001212FB8F2FAF2E12120DEFFB900055E086
:100BD50025E0FF900054E033FE7C007D0A1207ED0E
:100BE500AD037C001207DB75F002E52E90000012C4
:100BF5000879E0FCA3E0C39FEC9E5007E52F604D0C
:100C0500148040AF2E12120DEFFB900054E0FEA3AE
:100C1500E0FF7C007D071207DB7D0A1207EDAD03BF
:100C25007C001207DB75F002E52E900000120879B2
:100C3500E0FCA3E0D39FEC9E4013E52F647E600D9E
:0D0C4500E52F04FF745B252EF8A607D201F1
:010C5200227F
:100C5300C2037872E675F002900020120879E5E588
:100C6300F0A3E5E4F006E6C3953C400BE4F6900000
:100C730040E04480F08002D2037F02120FA1EFC450
:100C830054F0F5E17872E6FF12120D7E00900054E5
:100C9300E0FCA3E0FD1207DB8EE78FE67F02120F75
:100CA300A1EFC454F0FEC006E4FF120FA1D0E02F61
:100CB300F5E17872E6FF1212FBE5E254804FF5E2AC
:100CC3007872E62418F582E43400F583E04480F575
:060CD300E8300302D2EE3E
:010CD90022F8
:100B300075FE8543FF20D2AFC201E47872F69000C3
:100B400040F0120EF3E4FF120FA1EF2401FDE43395
:100B5000FC7E0B7FB81207ED900054EEF0A3EFF08F
:100B6000E4FF12120D7E00900054E0FCA3E0FD12A1
:100B700007DB8EE78FE67F02120FA1EFC454F0FE71
:100B8000C006E4FF120FA1D0E02FF5E17F04120FA1
:100B9000A1EF6008E5E254804480F5E27F03120F84
:100BA000A1E5E254804FF5E27F01120FA18FE3121D
:100BB0000E6B43A910900018E04480F5E8120CDA9F
:030BC000021025FB
:03133C00D2EE22CC
:1010A200E4FD900040E0547FF0D2EE900040E05426
:1010B2008070157FE87E0312125D43CF100DEDC3E1
:0810C20094327480948040E335
:0110CA002203
:100CDA00900DA8E493F5211210A2E4F522E522C3AF
:100CEA00953C502975F002E522900020120879E01F
:100CFA00FEA3E0FF75F002E522900000120879EEEB
:100D0A00F0A3EFF0AF22120BC3052280D0AF21155A
:100D1A0021EF70C312104F1212E48F211210A2E4B5
:100D2A00F522E522C3953C5009AF22120885052217
:090D3A0080F0AF211521EF70E3F8
:010D4300228D
:10102500E4FFEFC3953C502175F002EF90002012CC
:101035000879E0FCA3E0FD75F002EF9000001208CE
:0910450079ECF0A3EDF00F80D965
:01104E00227F
:1010CB00E47873F6F524E524C3953C500EAF241257
:0F10DB000885AF24120100052480EBAE38AF3931
:0110EA0022E3
:020100008F2549
:10010200E4F52D75F002EF900000120879E0FEA3ED
:10011200E0FF75F002E525900020120879E0FCA3CB
:10012200E0C39FF527EC9EF5267E007401A8250802
:100132008005C333CE33CED8F9F53B8E3AAF2512C4
:100142000FCE8E2B8F2CC3E527952CE52B6480F8E0
:10015200E52664809840057528018003E4F528E5CA
:1001620028640160030202AA74432525F8E6C394B9
:10017200FA74809480500674432525F806E53855B4
:100182003AFEE539553B4E600302027F7842E6F5BE
:100192002A121339EF6032E4F528F529E529C395CF
:1001A2003C501574432529F8E6C394017480948069
:1001B20040020528052980E4C3E52894037480944D
:1001C200804006740F252AF52A74432525F8E6C3D4
:1001D200952A500302027FE4F5281212ECEF7055C3
:1001E200F529E529C3953C501CE5256529601212C5
:1001F20012DB74432529F8E6C39F40057528018068
:1002020004052980DD121339EF3395E04F705EE566
:1002120028705AF529E529C3953C5051E5256529F1
:10022200600F1212DB744B2529F8E6C39F4002804F
:1002320039052980E0121339EF3395E04F702EF51E
:100242002AF529E529C3953C501574432529F8E67A
:10025200C39402748094804002052A052980E4C375
:10026200E52A9403748094804003752801E528648C
:10027200017002D200E53B4239E53A423874532517
:1002820025F8E4F674672525F8E4F675F002E5250D
:10029200900030120879E4F0A3F074102525F5825D
:1002A200E43400F583E4F022AF251211AAD3E52746
:1002B2009FEE6480F8E5266480984008744B2525FB
:1002C200F806800A787306744B2525F8E4F6900048
:1002D20041E0FF3395E0FEC3E49FFDE49EFCC3E5ED
:1002E200279DEC6480F8E52664809850030203AFF2
:1002F200D3E5279FEE6480F8E526648098400302E8
:1003020003AF74532525F8E4F674102525F582E42D
:100312003400F583E4F0E539453860030204C8751A
:10032200F002E525900030120879E5268527F012C3
:1003320008421212AB75F002E525900030120879DE
:10034200E0FCA3E0C39FEE6480F8EC648098401167
:1003520075F002E525900000120879E475F001803D
:10036200371212ABC3E49FFFE49EFE75F002E5254F
:10037200900030120879E0FCA3E0C39FEE6480F89D
:10038200EC64809840030204C875F002E5259000F1
:100392000012087974FFF5F012084275F002E525A3
:1003A200900030120879E4F0A3F00204C8900041F2
:1003B200E0FF3395E0FEC3E49FFFE49EFEC3E52722
:1003C2009FEE6480F8E526648098400302045A7424
:1003D200532525F80674102525F582E43400F583AB
:1003E200E4F074532525F8E6FD900DA6E493FFEDA5
:1003F2008FF084E5F07054900DA793FEEF8EF0A479
:10040200FFC3ED9FE5F06480F8748098400F745349
:100412002525F8E4F6D201786F7601802E75F00278
:10042200E525900000120879C083C082E0FEA3E0B7
:10043200FF900041E0A2E713FD3395E0FCC3EF9D7E
:10044200FFEE9CD082D083F0A3EFF0900053E065E2
:1004520025707374FFF0806E900041E0FFFD3395CC
:10046200E0FCD3E5279DEC6480F8E52664809840A3
:100472005574532525F8E4F6E5394538704874106B
:100482002525F582E43400F583E004F07410252577
:10049200F582E43400F583E06420702A7410252587
:1004A200F582E43400F583E4F0EFA2E713A2E71348
:1004B200FF3395E0FE75F002E52590000012087901
:1004C200EE8FF0120842E538553AFEE539553B4EBB
:1004D2007003020562AE2BE52C7802CEA2E713CEA2
:1004E20013D8F8FFC3E52C9FFFE52B9EFEC3E5273B
:1004F2009FEE6480F8E526648098505D7467252538
:10050200F8061213028F2AE4F529E529C3953C5017
:100512001574432529F8E6C394017480948040023F
:100522000528052980E4C3E528940374809480405B
:10053200057842E6F52A74672525F8E6C3952A4030
:100542005FE4F6E53BF4FFE53AF4FEEF5239EE5292
:100552003874432525F8E4F62274672525F8162217
:1005620074432525F8E4F6E53945387005AF2512C0
:100572000BC3E53C14652570277873E6C3953C40B0
:100582001FE4F529E529C3953C500F74432529F84A
:10059200E66003752801052980EAE5287002C20099
:0105A2002236
:10104F00E4FFEFC3953C502175F002EF90002012A2
:10105F000879E0FCA3E0FD75F002EF900042120862
:09106F0079ECF0A3EDF00F80D93B
:011078002255
:020885008F26BC
:1008870075F002EF900042120879E0FEA3E0FF75D1
:10089700F002E526900020120879E0FCA3E0C39F50
:1008A700F528EC9EF527AF26120FCEAD07AC06D381
:1008B700E5289DEC6480F8E5276480985016C3E42A
:1008C7009DFFE49CFEC3E5289FEE6480F8E527645E
:1008D7008098501375F002E526900020120879E001
:1008E700FEA3E0FF020992ECA2E713FEED13FFD38C
:1008F700E5289FEE6480F8E5276480985016C3E4E6
:100907009FFFE49EFEC3E5289FEE6480F8E5276419
:100917008098503775F002E526900042120879E07A
:10092700FCA3E0FDECC313FEED13FFC3ED9FFDEC4D
:100937009EFC75F002E526900020120879E0C313AB
:10094700FEA3E0132DFFEC3EFE804075F002E52686
:10095700900042120879E0FCA3E0FDAE047803CED4
:10096700C313CE13D8F9FFC3ED9FFDEC9EFC75F0C2
:1009770002E526900020120879E0FEA3E07803CE76
:10098700C313CE13D8F92DFFEC3EFE75F002E52612
:10099700900042120879EEF0A3EFF075F002E52619
:1009A700900042120879E0FEA3E0FF75F002E52609
:0B09B700900020120879EEF0A3EFF092
:0109C2002212
:03133F00A20122E6
:03134200D20122B3
:100E6B00E4FFEFC3953C502974432FF8E4F6745319
:100E7B002FF8E4F674672FF8E4F675F002EF9000A4
:100E8B0030120879E4F0A3F0744B2FF8E4F60F80DE
:100E9B00D1E4F538F53990005374FFF0E47870F62F
:040EAB0008F6C20182
:010EAF002220
:0205A3008F24A3
:1005A500900056E0C3940374809480403EE4F07854
:1005B5006FE6702DF525E525C3953C502475F002B1
:1005C500E525900042120879E0FEA3E0FF75F002F0
:1005D500E525900000120879EEF0A3EFF0052580DF
:1005E500D5120E6BC201E4786FF622900052E0043A
:1005F500F0E0B5240812104FE4900053F09000523B
:10060500E0D395245003020723E4F525E525C3959A
:100615003C40030206D375F002E52590004212081E
:1006250079E0FEA3E0FF75F002E5259000201208B1
:1006350079E0FCA3E0C39FFFEC9EAD07FC786FE675
:100645007042900041E0FB3395E0FAFEEB7802C37F
:1006550033CE33CED8F9FFD3ED9FEE6480F8EC644A
:1006650080984060E49BFFE49AFEEF7802C333CEA6
:1006750033CED8F9FFC3ED9FEE6480F8EC64809823
:100685005042804A900041E0FB3395E0FAFEEB785A
:1006950003C333CE33CED8F9FFD3ED9FEE6480F894
:1006A500EC648098401EE49BFFE49AFEEF7803C358
:1006B50033CE33CED8F9FFC3ED9FEE6480F8EC64FA
:1006C5008098400AAF251208850525020611E52503
:1006D500B53C06900053E004F0E52475F008A4FF4E
:1006E500900052E0C39FE5F06480F8748098402E36
:1006F500E4F0C200900056E004F0E52475F004A48F
:10070500FF900053E0C39FE5F06480F87480984043
:0E0715000DE4900056F0121025120E6BC2017A
:0107230022B3
:03000000020A965B
:100A960078FFE4F6D8FD9000007F007E03E4F0A323
:0A0AA600DFFCDEFA758173020AEB33
:1007240074F8CC6480CCC86480C8F58204604FC37C
:10073400EB9FF5F0EA9E42F0E99D42F0E89C45F01B
:10074400603C501DE5825FFFE582D313CB5BCBF4A5
:100754002B5582FB50280ABA002409B900200880CE
:100764001DE5825BFBE582D313CF5FCFF4C3132F68
:100774005582FF50090EBE00050DBD00010CC3EBF0
:100784009FF5F0EA9E42F0E99D42F0E89C45F06056
:0907940007CC4820E701B3EC2278
:10079D0075F020800E75F010800575F0087D007ED7
:1007AD00007F003392D530D503120858EC3340103A
:1007BD00EF33FFEE33FEED33FDEC33FCD5F0ED22E0
:0E07CD00E5F0247EA2D513CC92E7CDCEFF221C
:100AB0000210EBE493A3F8E493A34003F68001F261
:100AC00008DFF48029E493A3F85407240CC8C33347
:100AD000C4540F4420C8834004F456800146F6DF16
:100AE000E4800B01020408102040809011D5E47EC0
:100AF000019360BCA3FF543F30E509541FFEE4930B
:100B0000A360010ECF54C025E060A840B8E493A3D1
:100B1000FAE493A3F8E493A3C8C582C8CAC583CAFC
:100B2000F0A3C8C582C8CAC583CADFE9DEE780BEB4
:0111E7000007
:1007DB00EF8DF0A4A8F0CF8CF0A428CE8DF0A42E32
:0207EB00FE22EC
:1007ED00BC000BBE0029EF8DF084FFADF022E4CCF0
:1007FD00F875F008EF2FFFEE33FEEC33FCEE9DECB9
:10080D00984005FCEE9DFE0FD5F0E9E4CEFD22EDFE
:10081D00F8F5F0EE8420D21CFEADF075F008EF2F48
:10082D00FFED33FD4007985006D5F0F222C398FD39
:05083D000FD5F0EA22D6
:10084200C5F0F8A3E028F0C5F0F8E5821582700241
:060852001583E038F022DE
:0E085800C3E49FFFE49EFEE49DFDE49CFC22B1
:10086600E8600FECC313FCED13FDEE13FEEF13FF70
:03087600D8F12294
:0C087900A42582F582E5F03583F583228A
:00000001FF
