C51 COMPILER V9.60.7.0   SSI_INIT                                                          03/25/2024 15:08:20 PAGE 1   


C51 COMPILER V9.60.7.0, COMPILATION OF MODULE SSI_INIT
OBJECT MODULE PLACED IN .\Objects\SSI_Init.obj
COMPILER INVOKED BY: D:\Program Files\Keil_v5\C51\BIN\C51.EXE Drv\c\SSI_Init.c OPTIMIZE(1,SPEED) BROWSE INCDIR(.\user\AP
                    -I\h;.\user\APP\h;.\user) DEBUG OBJECTEXTEND PRINT(.\Listings\SSI_Init.lst) TABS(2) OBJECT(.\Objects\SSI_Init.obj)

line level    source

   1          #include "Drv\H\Function_Init.H"
   2          #include "Global.h"
   3          #include "App.h"
   4          
   5          //选择三合一模式：
   6          #define  Uart1  0
   7          #define  TWI    1
   8          #define  SPI    2
   9          
  10          #define  SSI_Mode  TWI
  11          
  12          void TWI_Init(void);
  13          
  14          bit TWIFlag = 0;          //中断标志位
  15          
  16          /*****************************************************
  17          *函数名称：void TWI_Init(void)
  18          *函数功能：TWI初始化
  19          *入口参数：void
  20          *出口参数：void
  21          *****************************************************/
  22          void TWI_Init(void)
  23          {
  24   1        OTCON |= 0x80;  //选择TWI模式
  25   1        SSCON0 = 0x88;  // ---- x---  0为不允许接收，1为允许接收
  26   1        SSCON1 = 0xB0;  //xxxx xxxy  x为地址寄存器，y为0禁止/1允许通用地址响应
  27   1        IE1 |= 0x01;
  28   1        EA = 1;
  29   1      }
  30          
  31          /**************************************************
  32          *函数名称:void SSI_TWI_AcknowledgeConfig(FunctionalState NewState)
  33          *函数功能:TWI接收应答使能函数
  34          *入口参数:
  35          FunctionalState:NewState:接收应答使能/失能选择
  36          *出口参数:void
  37          **************************************************/
  38          void SSI_TWI_AcknowledgeConfig(u8 NewState)
  39          {
  40   1        if(NewState != 0)
  41   1        {
  42   2          SSCON0 |= 0X08;
  43   2        }
  44   1        else
  45   1        {
  46   2          SSCON0 &= 0XF7;
  47   2        }
  48   1      }
  49          
  50          
  51          void TWI_Int() interrupt 7     //TWI中断函数
  52          {
  53   1        u8 state;
  54   1        
C51 COMPILER V9.60.7.0   SSI_INIT                                                          03/25/2024 15:08:20 PAGE 2   

  55   1        SSCON0 &= ~(1<<6);  //清中断标志
  56   1        state = SSCON0 & 0x07;//读取TWI状态
  57   1        
  58   1      
  59   1        
  60   1        switch(state)
  61   1        {
  62   2          case 0:   //空闲
  63   2          //  SSI_TWI_AcknowledgeConfig(1);
  64   2        
  65   2            Api_Twi_ClearTxCount();
  66   2            Api_Twi_ClearRxCount();
  67   2          break;
  68   2          
  69   2          case 1:   
  70   2          
  71   2          break;
  72   2          
  73   2          case 2:   //接收中断
  74   2            Api_Twi_Rx();
  75   2          break;
  76   2          
  77   2          case 3:   //发送中断
  78   2          
  79   2            Api_Twi_Tx();
  80   2          break;
  81   2          
  82   2          case 4:   //主机回uack
  83   2            Api_Twi_ClearTxCount();
  84   2          break;
  85   2          
  86   2          default:
  87   2            break;
  88   2          
  89   2        }
  90   1        
  91   1        
  92   1      //  if(SSCON0&0x40)
  93   1      //  {
  94   1      //    SSCON0 &= 0xbf;  //中断清零
  95   1      //    TWIFlag = 1;
  96   1      //  } 
  97   1      }


MODULE INFORMATION:   STATIC OVERLAYABLE
   CODE SIZE        =    137    ----
   CONSTANT SIZE    =   ----    ----
   XDATA SIZE       =   ----    ----
   PDATA SIZE       =   ----    ----
   DATA SIZE        =      2    ----
   IDATA SIZE       =   ----    ----
   BIT SIZE         =      1    ----
END OF MODULE INFORMATION.


C51 COMPILATION COMPLETE.  0 WARNING(S),  0 ERROR(S)
