BL51 BANKED LINKER/LOCATER V6.22.4.0                                                    03/25/2024  15:08:21  PAGE 1


BL51 BANKED LINKER/LOCATER V6.22.4.0, INVOKED BY:
D:\PROGRAM FILES\KEIL_V5\C51\BIN\BL51.EXE .\Objects\main.obj, .\Objects\Global.obj, .\Objects\App.obj, .\Objects\App_Sys
>> .obj, .\Objects\App_Sys_PowerOn.obj, .\Objects\App_Sys_TurnOn.obj, .\Objects\Api_Tick.obj, .\Objects\Api_SysBase.obj,
>>  .\Objects\Api_TK.obj, .\Objects\Api_Twi.obj, .\Objects\Api_Led.obj, .\Objects\IO_Init.obj, .\Objects\SSI_Init.obj, .
>> \Objects\Timer_Init.obj, .\Objects\S_TouchKeyCFG.obj, .\lib\SC92F8X7X_HighSensitive_Lib_T1_S_V1.3.0.LIB, .\Objects\ST
>> ARTUP.obj TO .\Objects\X5BC05-TK20240103 PRINT (.\Listings\X5BC05-TK20240103.m51) RAMSIZE (256) DISABLEWARNING (16) C
>> ODE (0X100)


MEMORY MODEL: SMALL WITH FLOATING POINT ARITHMETIC


INPUT MODULES INCLUDED:
  .\Objects\main.obj (MAIN)
  .\Objects\Global.obj (GLOBAL)
  .\Objects\App.obj (APP)
  .\Objects\App_Sys.obj (APP_SYS)
  .\Objects\App_Sys_PowerOn.obj (APP_SYS_POWERON)
  .\Objects\App_Sys_TurnOn.obj (APP_SYS_TURNON)
  .\Objects\Api_Tick.obj (API_TICK)
  .\Objects\Api_SysBase.obj (API_SYSBASE)
  .\Objects\Api_TK.obj (API_TK)
  .\Objects\Api_Twi.obj (API_TWI)
  .\Objects\Api_Led.obj (API_LED)
  .\Objects\IO_Init.obj (IO_INIT)
  .\Objects\SSI_Init.obj (SSI_INIT)
  .\Objects\Timer_Init.obj (TIMER_INIT)
  .\Objects\S_TouchKeyCFG.obj (S_TOUCHKEYCFG)
  .\lib\SC92F8X7X_HighSensitive_Lib_T1_S_V1.3.0.LIB (SENSORMETHOD)
  .\Objects\STARTUP.obj (?C_STARTUP)
  D:\PROGRAM FILES\KEIL_V5\C51\LIB\C51FPS.LIB (?C?FPCMP)
  D:\PROGRAM FILES\KEIL_V5\C51\LIB\C51FPS.LIB (?C?FCAST)
  D:\PROGRAM FILES\KEIL_V5\C51\LIB\C51S.LIB (?C_INIT)
  D:\PROGRAM FILES\KEIL_V5\C51\LIB\C51S.LIB (?C?IMUL)
  D:\PROGRAM FILES\KEIL_V5\C51\LIB\C51S.LIB (?C?UIDIV)
  D:\PROGRAM FILES\KEIL_V5\C51\LIB\C51S.LIB (?C?IILDX)
  D:\PROGRAM FILES\KEIL_V5\C51\LIB\C51S.LIB (?C?LNEG)
  D:\PROGRAM FILES\KEIL_V5\C51\LIB\C51S.LIB (?C?OFFXADD)
  D:\PROGRAM FILES\KEIL_V5\C51\LIB\C51S.LIB (?C?CCASE)


LINK MAP OF MODULE:  .\Objects\X5BC05-TK20240103 (MAIN)


            TYPE    BASE      LENGTH    RELOCATION   SEGMENT NAME
            -----------------------------------------------------

            * * * * * * *   D A T A   M E M O R Y   * * * * * * *
            REG     0000H     0008H     ABSOLUTE     "REG BANK 0"
            DATA    0008H     0012H     UNIT         ?DT?API_TWI
            DATA    001AH     0006H     UNIT         ?DT?GLOBAL
            BIT     0020H.0   0000H.2   UNIT         ?BI?SENSORMETHOD
            BIT     0020H.2   0000H.1   UNIT         ?BI?SSI_INIT
            BIT     0020H.3   0000H.1   UNIT         _BIT_GROUP_
                    0020H.4   0000H.4                *** GAP ***
            DATA    0021H     000CH     UNIT         _DATA_GROUP_
            DATA    002DH     0008H     UNIT         ?DT?API_TICK
            DATA    0035H     0006H     UNIT         ?DT?TOUCHKEYSCAN?S_TOUCHKEYCFG
BL51 BANKED LINKER/LOCATER V6.22.4.0                                                  03/25/2024  15:08:21  PAGE 2


            DATA    003BH     0005H     UNIT         ?DT?SENSORMETHOD
            DATA    0040H     0004H     UNIT         ?DT?API_SYSBASE
            DATA    0044H     0004H     UNIT         ?DT?CURRENTSENSORCHOOSE?S_TOUCHKEYCFG
            DATA    0048H     0003H     UNIT         ?DT?_GETTKYZTHRESHOLD?S_TOUCHKEYCFG
            DATA    004BH     0001H     UNIT         ?DT?APP_SYS_POWERON
            DATA    004CH     0001H     UNIT         ?DT?_API_SYSBASE_SETSTATE?API_SYSBASE
            DATA    004DH     0001H     UNIT         ?DT?_SSI_TWI_CMD?API_TWI
            DATA    004EH     0001H     UNIT         ?DT?API_TWI_TXDATALOAD?API_TWI
            DATA    004FH     0001H     UNIT         ?DT?_SSI_TWI_ACKNOWLEDGECONFIG?SSI_INIT
            DATA    0050H     0001H     UNIT         ?DT?TWI_INT?SSI_INIT
            DATA    0051H     0001H     UNIT         ?DT?_GETCURRFINGERVALUE?S_TOUCHKEYCFG
            DATA    0052H     0001H     UNIT         ?DT?_GETSCANTIMEVALUE?S_TOUCHKEYCFG
            DATA    0053H     0001H     UNIT         ?DT?_GETBASELINEADJUSTVALUE?S_TOUCHKEYCFG
            DATA    0054H     0001H     UNIT         ?DT?_GETCFGMSG?S_TOUCHKEYCFG
            DATA    0055H     0001H     UNIT         ?DT?TOUCHKEYCFGINIT?S_TOUCHKEYCFG
            IDATA   0056H     0029H     UNIT         ?ID?S_TOUCHKEYCFG
            IDATA   007FH     0004H     UNIT         ?ID?SENSORMETHOD
            IDATA   0083H     0001H     UNIT         ?STACK

            * * * * * * *  X D A T A   M E M O R Y  * * * * * * *
            XDATA   0000H     0048H     UNIT         ?XD?S_TOUCHKEYCFG
            XDATA   0048H     0005H     UNIT         ?XD?SENSORMETHOD

            * * * * * * *   C O D E   M E M O R Y   * * * * * * *
            CODE    0000H     0003H     ABSOLUTE     
                    0003H     0008H                  *** GAP ***
            CODE    000BH     0003H     ABSOLUTE     
                    000EH     002DH                  *** GAP ***
            CODE    003BH     0003H     ABSOLUTE     
                    003EH     001DH                  *** GAP ***
            CODE    005BH     0003H     ABSOLUTE     
                    005EH     00A2H                  *** GAP ***
            CODE    0100H     04A3H     UNIT         ?PR?_SENSORRENOVATE?SENSORMETHOD
            CODE    05A3H     0181H     UNIT         ?PR?_MULTIPLEDEAL?SENSORMETHOD
            CODE    0724H     0174H     UNIT         ?C?LIB_CODE
            CODE    0898H     013EH     UNIT         ?PR?_FILTERDATADEAL?SENSORMETHOD
            CODE    09D6H     00EBH     UNIT         ?PR?TOUCHKEYSCAN?S_TOUCHKEYCFG
            CODE    0AC1H     009AH     UNIT         ?C_C51STARTUP
            CODE    0B5BH     0093H     UNIT         ?PR?TOUCHKEYINIT?SENSORMETHOD
            CODE    0BEEH     0090H     UNIT         ?PR?_ICHAADJUST?SENSORMETHOD
            CODE    0C7EH     0087H     UNIT         ?PR?TOUCHKEY_SERVICE?SENSORMETHOD
            CODE    0D05H     0079H     UNIT         ?PR?DELAY_US?API_TWI
            CODE    0D7EH     006CH     UNIT         ?PR?TWI_INT?SSI_INIT
            CODE    0DEAH     006AH     UNIT         ?PR?FILTERAVERGEDEAL?SENSORMETHOD
            CODE    0E54H     0060H     UNIT         ?PR?API_TICK_MS?API_TICK
            CODE    0EB4H     005DH     UNIT         ?CO?S_TOUCHKEYCFG
            CODE    0F11H     004FH     UNIT         ?PR?TOUCHKEYCFGINIT?S_TOUCHKEYCFG
            CODE    0F60H     0048H     UNIT         ?PR?API_TWI_TXDATALOAD?API_TWI
            CODE    0FA8H     0045H     UNIT         ?PR?INITIALIZESENSORFLAG?SENSORMETHOD
            CODE    0FEDH     0044H     UNIT         ?PR?_GETCFGMSG?S_TOUCHKEYCFG
            CODE    1031H     0043H     UNIT         ?PR?TIMER0?TIMER_INIT
            CODE    1074H     0041H     UNIT         ?PR?CURRENTSENSORCHOOSE?S_TOUCHKEYCFG
            CODE    10B5H     003BH     UNIT         ?PR?CTK_ISR?S_TOUCHKEYCFG
            CODE    10F0H     0034H     UNIT         ?PR?_GETCURRFINGERVALUE?S_TOUCHKEYCFG
            CODE    1124H     002CH     UNIT         ?PR?API_TWI_RX?API_TWI
            CODE    1150H     002BH     UNIT         ?PR?APP_SYS_CYCLE?APP_SYS
            CODE    117BH     002AH     UNIT         ?PR?INITIALIZEBASELINES?SENSORMETHOD
BL51 BANKED LINKER/LOCATER V6.22.4.0                                                  03/25/2024  15:08:21  PAGE 3


            CODE    11A5H     002AH     UNIT         ?PR?FILTERIIRINIT?SENSORMETHOD
            CODE    11CFH     0029H     UNIT         ?PR?FILTERCOMMCODE?SENSORMETHOD
            CODE    11F8H     0021H     UNIT         ?PR?_GETTKYZTHRESHOLD?S_TOUCHKEYCFG
            CODE    1219H     0020H     UNIT         ?PR?MAIN?MAIN
            CODE    1239H     0020H     UNIT         ?PR?APP_SYS_POWERON_CYCLE?APP_SYS_POWERON
            CODE    1259H     0020H     UNIT         ?PR?SENSORKEYFLAG?SENSORMETHOD
            CODE    1279H     001EH     UNIT         ?PR?SYSTICK_HANDLER?API_TICK
            CODE    1297H     001EH     UNIT         ?PR?SYS_SCAN?API_TK
            CODE    12B5H     001DH     UNIT         ?PR?API_TWI_TX?API_TWI
            CODE    12D2H     001AH     UNIT         ?PR?APP_SYS_TURNON_CYCLE?APP_SYS_TURNON
            CODE    12ECH     0019H     UNIT         ?PR?IO_INIT?IO_INIT
            CODE    1305H     0016H     UNIT         ?PR?APP_CYCLE?APP
            CODE    131BH     0016H     UNIT         ?PR?API_TICK_INIT?API_TICK
            CODE    1331H     0015H     UNIT         ?PR?API_TWI_STATE?API_TWI
            CODE    1346H     0015H     UNIT         ?PR?TIMER_INIT?TIMER_INIT
            CODE    135BH     0014H     UNIT         ?PR?_GETSCANTIMEVALUE?S_TOUCHKEYCFG
            CODE    136FH     0013H     UNIT         ?C_INITSEG
            CODE    1382H     0012H     UNIT         ?PR?APP_SYS_POWERONQUITE?APP_SYS_POWERON
            CODE    1394H     0012H     UNIT         ?PR?_API_SYSBASE_SETSTATE?API_SYSBASE
            CODE    13A6H     000FH     UNIT         ?PR?TWI_INIT?SSI_INIT
            CODE    13B5H     000EH     UNIT         ?PR?_SSI_TWI_CMD?API_TWI
            CODE    13C3H     000EH     UNIT         ?PR?_SSI_TWI_ACKNOWLEDGECONFIG?SSI_INIT
            CODE    13D1H     000DH     UNIT         ?PR?API_TWI_INIT?API_TWI
            CODE    13DEH     000CH     UNIT         ?PR?_USDELAY?SENSORMETHOD
            CODE    13EAH     000BH     UNIT         ?PR?API_TICK_POPFLAG_10MS?API_TICK
            CODE    13F5H     000BH     UNIT         ?PR?API_TICK_POPFLAG_50MS?API_TICK
            CODE    1400H     000BH     UNIT         ?PR?API_TICK_POPFLAG_100MS?API_TICK
            CODE    140BH     000BH     UNIT         ?PR?API_TICK_POPFLAG_500MS?API_TICK
            CODE    1416H     000BH     UNIT         ?PR?API_TICK_POPFLAG_1000MS?API_TICK
            CODE    1421H     000BH     UNIT         ?PR?SETONEKEYPUSHRESETTIME?S_TOUCHKEYCFG
            CODE    142CH     000BH     UNIT         ?PR?GETBASELINEUPDATETHRESHOLD?S_TOUCHKEYCFG
            CODE    1437H     000BH     UNIT         ?PR?GETINITAUTOUPDATETIME?S_TOUCHKEYCFG
            CODE    1442H     000BH     UNIT         ?PR?ISDOUBLEKEYORSLIDEKEY?S_TOUCHKEYCFG
            CODE    144DH     000AH     UNIT         ?PR?APP_INIT?APP
            CODE    1457H     000AH     UNIT         ?PR?API_SYSBASE_INIT?API_SYSBASE
            CODE    1461H     000AH     UNIT         ?PR?GETTKYZCNT?S_TOUCHKEYCFG
            CODE    146BH     0009H     UNIT         ?PR?API_TK_GETTKVALUE?API_TK
            CODE    1474H     0009H     UNIT         ?PR?_GETBASELINEADJUSTVALUE?S_TOUCHKEYCFG
            CODE    147DH     0008H     UNIT         ?PR?GETUPCONFIRMCNT?S_TOUCHKEYCFG
            CODE    1485H     0007H     UNIT         ?PR?API_SYSBASE_GETSYSCB?API_SYSBASE
            CODE    148CH     0005H     UNIT         ?PR?API_TICK_GETMSTICK?API_TICK
            CODE    1491H     0004H     UNIT         ?PR?APP_SYS_INIT?APP_SYS
            CODE    1495H     0004H     UNIT         ?PR?APP_SYS_CLEARPOWERONCOUNT?APP_SYS_POWERON
            CODE    1499H     0004H     UNIT         ?PR?API_SYSBASE_SETENTERFLAG?API_SYSBASE
            CODE    149DH     0004H     UNIT         ?PR?API_SYSBASE_CLEARENTERFLAG?API_SYSBASE
            CODE    14A1H     0004H     UNIT         ?PR?API_SYSBASE_SETQUITEFLAG?API_SYSBASE
            CODE    14A5H     0004H     UNIT         ?PR?API_SYSBASE_CLEARQUITEFLAG?API_SYSBASE
            CODE    14A9H     0004H     UNIT         ?PR?API_TWI_CLEARRXCOUNT?API_TWI
            CODE    14ADH     0004H     UNIT         ?PR?API_TWI_CLEARTXCOUNT?API_TWI
            CODE    14B1H     0003H     UNIT         ?PR?API_SYSBASE_GETSTATE?API_SYSBASE
            CODE    14B4H     0003H     UNIT         ?PR?API_SYSBASE_GETLASTSTATE?API_SYSBASE
            CODE    14B7H     0003H     UNIT         ?PR?API_SYSBASE_ISENTER?API_SYSBASE
            CODE    14BAH     0003H     UNIT         ?PR?API_SYSBASE_ISQUITE?API_SYSBASE
            CODE    14BDH     0003H     UNIT         ?PR?GETCSFUNCTION?S_TOUCHKEYCFG
            CODE    14C0H     0003H     UNIT         ?PR?TOUCHKEYRESTART?SENSORMETHOD
            CODE    14C3H     0003H     UNIT         ?PR?GETISNEEDUPDATEBASELINE?SENSORMETHOD
            CODE    14C6H     0003H     UNIT         ?PR?SETNEEDUPDATEBASELINE?SENSORMETHOD
BL51 BANKED LINKER/LOCATER V6.22.4.0                                                  03/25/2024  15:08:21  PAGE 4


            CODE    14C9H     0001H     UNIT         ?PR?APP_SYS_POWERON_KEY_PROC?APP_SYS_POWERON
            CODE    14CAH     0001H     UNIT         ?PR?APP_SYS_POWERON_COM_PROC?APP_SYS_POWERON
            CODE    14CBH     0001H     UNIT         ?PR?APP_SYS_POWERON_DIAGNOSE_PROC?APP_SYS_POWERON
            CODE    14CCH     0001H     UNIT         ?PR?APP_SYS_POWERON_LCD_PROC?APP_SYS_POWERON
            CODE    14CDH     0001H     UNIT         ?PR?APP_SYS_POWERON_LED_PROC?APP_SYS_POWERON
            CODE    14CEH     0001H     UNIT         ?PR?APP_SYS_TURNON_KEY_PROC?APP_SYS_TURNON
            CODE    14CFH     0001H     UNIT         ?PR?APP_SYS_TURNON_COM_PROC?APP_SYS_TURNON
            CODE    14D0H     0001H     UNIT         ?PR?APP_SYS_TURNON_DIAGNOSE_PROC?APP_SYS_TURNON
            CODE    14D1H     0001H     UNIT         ?PR?APP_SYS_TURNON_LCD_PROC?APP_SYS_TURNON
            CODE    14D2H     0001H     UNIT         ?PR?APP_SYS_TURNON_LED_PROC?APP_SYS_TURNON
            CODE    14D3H     0001H     UNIT         ?PR?API_LED_GETLEDDATA?API_LED
            CODE    14D4H     0001H     UNIT         ?PR?API_LED_CONTRIL?API_LED



OVERLAY MAP OF MODULE:   .\Objects\X5BC05-TK20240103 (MAIN)


SEGMENT                                             BIT_GROUP          DATA_GROUP 
  +--> CALLED SEGMENT                            START    LENGTH     START    LENGTH
------------------------------------------------------------------------------------
?PR?TWI_INT?SSI_INIT                             -----    -----      -----    -----
  +--> ?PR?API_TWI_CLEARTXCOUNT?API_TWI
  +--> ?PR?API_TWI_CLEARRXCOUNT?API_TWI
  +--> ?PR?API_TWI_RX?API_TWI
  +--> ?PR?API_TWI_TX?API_TWI

?PR?API_TWI_RX?API_TWI                           -----    -----      -----    -----
  +--> ?PR?API_LED_GETLEDDATA?API_LED

?PR?API_TWI_TX?API_TWI                           -----    -----      -----    -----
  +--> ?PR?API_TWI_TXDATALOAD?API_TWI

*** NEW ROOT ***************************************************

?PR?TIMER0?TIMER_INIT                            -----    -----      -----    -----
  +--> ?PR?SYSTICK_HANDLER?API_TICK

?PR?SYSTICK_HANDLER?API_TICK                     -----    -----      -----    -----
  +--> ?PR?API_TICK_MS?API_TICK

*** NEW ROOT ***************************************************

?PR?CTK_ISR?S_TOUCHKEYCFG                        -----    -----      -----    -----
  +--> ?PR?TOUCHKEY_SERVICE?SENSORMETHOD

?PR?TOUCHKEY_SERVICE?SENSORMETHOD                0020H.3  0000H.1    -----    -----
  +--> ?PR?_GETCFGMSG?S_TOUCHKEYCFG
  +--> ?PR?_GETSCANTIMEVALUE?S_TOUCHKEYCFG
  +--> ?PR?_GETBASELINEADJUSTVALUE?S_TOUCHKE...

?PR?_GETCFGMSG?S_TOUCHKEYCFG                     -----    -----      -----    -----
  +--> ?CO?S_TOUCHKEYCFG

?PR?_GETSCANTIMEVALUE?S_TOUCHKEYCFG              -----    -----      -----    -----
  +--> ?CO?S_TOUCHKEYCFG

BL51 BANKED LINKER/LOCATER V6.22.4.0                                                  03/25/2024  15:08:21  PAGE 5


*** NEW ROOT ***************************************************

?C_C51STARTUP                                    -----    -----      -----    -----
  +--> ?PR?MAIN?MAIN
  +--> ?C_INITSEG

?PR?MAIN?MAIN                                    -----    -----      -----    -----
  +--> ?PR?IO_INIT?IO_INIT
  +--> ?PR?TIMER_INIT?TIMER_INIT
  +--> ?PR?TWI_INIT?SSI_INIT
  +--> ?PR?TOUCHKEYINIT?SENSORMETHOD
  +--> ?PR?APP_INIT?APP
  +--> ?PR?SYS_SCAN?API_TK
  +--> ?PR?APP_CYCLE?APP

?PR?TOUCHKEYINIT?SENSORMETHOD                    -----    -----      -----    -----
  +--> ?PR?TOUCHKEYCFGINIT?S_TOUCHKEYCFG
  +--> ?PR?_GETCFGMSG?S_TOUCHKEYCFG
  +--> ?PR?_GETSCANTIMEVALUE?S_TOUCHKEYCFG
  +--> ?PR?INITIALIZESENSORFLAG?SENSORMETHOD
  +--> ?PR?FILTERAVERGEDEAL?SENSORMETHOD
  +--> ?PR?INITIALIZEBASELINES?SENSORMETHOD

?PR?TOUCHKEYCFGINIT?S_TOUCHKEYCFG                -----    -----      -----    -----
  +--> ?CO?S_TOUCHKEYCFG
  +--> ?PR?CURRENTSENSORCHOOSE?S_TOUCHKEYCFG

?PR?FILTERAVERGEDEAL?SENSORMETHOD                -----    -----      0021H    0002H
  +--> ?CO?S_TOUCHKEYCFG
  +--> ?PR?FILTERCOMMCODE?SENSORMETHOD
  +--> ?PR?_ICHAADJUST?SENSORMETHOD
  +--> ?PR?FILTERIIRINIT?SENSORMETHOD
  +--> ?PR?GETINITAUTOUPDATETIME?S_TOUCHKEYCFG
  +--> ?PR?_FILTERDATADEAL?SENSORMETHOD

?PR?FILTERCOMMCODE?SENSORMETHOD                  -----    -----      -----    -----
  +--> ?PR?_USDELAY?SENSORMETHOD

?PR?_ICHAADJUST?SENSORMETHOD                     -----    -----      002BH    0002H
  +--> ?PR?_GETBASELINEADJUSTVALUE?S_TOUCHKE...
  +--> ?PR?_GETSCANTIMEVALUE?S_TOUCHKEYCFG

?PR?GETINITAUTOUPDATETIME?S_TOUCHKEYCFG          -----    -----      -----    -----
  +--> ?CO?S_TOUCHKEYCFG

?PR?_FILTERDATADEAL?SENSORMETHOD                 -----    -----      0023H    0003H
  +--> ?PR?_GETCURRFINGERVALUE?S_TOUCHKEYCFG

?PR?_GETCURRFINGERVALUE?S_TOUCHKEYCFG            -----    -----      -----    -----
  +--> ?CO?S_TOUCHKEYCFG

?PR?APP_INIT?APP                                 -----    -----      -----    -----
  +--> ?PR?API_TICK_INIT?API_TICK
  +--> ?PR?APP_SYS_INIT?APP_SYS
  +--> ?PR?APP_SYS_CLEARPOWERONCOUNT?APP_SYS...

?PR?APP_SYS_INIT?APP_SYS                         -----    -----      -----    -----
BL51 BANKED LINKER/LOCATER V6.22.4.0                                                  03/25/2024  15:08:21  PAGE 6


  +--> ?PR?API_SYSBASE_INIT?API_SYSBASE

?PR?SYS_SCAN?API_TK                              -----    -----      -----    -----
  +--> ?PR?TOUCHKEYSCAN?S_TOUCHKEYCFG
  +--> ?PR?TOUCHKEYRESTART?SENSORMETHOD

?PR?TOUCHKEYSCAN?S_TOUCHKEYCFG                   -----    -----      -----    -----
  +--> ?PR?GETISNEEDUPDATEBASELINE?SENSORMETHOD
  +--> ?PR?SENSORKEYFLAG?SENSORMETHOD
  +--> ?PR?SETNEEDUPDATEBASELINE?SENSORMETHOD
  +--> ?PR?ISDOUBLEKEYORSLIDEKEY?S_TOUCHKEYCFG
  +--> ?PR?SETONEKEYPUSHRESETTIME?S_TOUCHKEYCFG
  +--> ?CO?S_TOUCHKEYCFG
  +--> ?PR?_MULTIPLEDEAL?SENSORMETHOD

?PR?SENSORKEYFLAG?SENSORMETHOD                   -----    -----      0021H    0001H
  +--> ?PR?_FILTERDATADEAL?SENSORMETHOD
  +--> ?PR?_SENSORRENOVATE?SENSORMETHOD

?PR?_SENSORRENOVATE?SENSORMETHOD                 -----    -----      0022H    0009H
  +--> ?PR?_GETCURRFINGERVALUE?S_TOUCHKEYCFG
  +--> ?PR?GETCSFUNCTION?S_TOUCHKEYCFG
  +--> ?PR?ISDOUBLEKEYORSLIDEKEY?S_TOUCHKEYCFG
  +--> ?PR?GETTKYZCNT?S_TOUCHKEYCFG
  +--> ?PR?_GETTKYZTHRESHOLD?S_TOUCHKEYCFG
  +--> ?PR?GETBASELINEUPDATETHRESHOLD?S_TOUC...
  +--> ?CO?S_TOUCHKEYCFG
  +--> ?PR?GETUPCONFIRMCNT?S_TOUCHKEYCFG
  +--> ?PR?_ICHAADJUST?SENSORMETHOD

?PR?ISDOUBLEKEYORSLIDEKEY?S_TOUCHKEYCFG          -----    -----      -----    -----
  +--> ?CO?S_TOUCHKEYCFG

?PR?_GETTKYZTHRESHOLD?S_TOUCHKEYCFG              -----    -----      -----    -----
  +--> ?PR?_GETCURRFINGERVALUE?S_TOUCHKEYCFG

?PR?GETBASELINEUPDATETHRESHOLD?S_TOUC...         -----    -----      -----    -----
  +--> ?CO?S_TOUCHKEYCFG

?PR?SETONEKEYPUSHRESETTIME?S_TOUCHKEYCFG         -----    -----      -----    -----
  +--> ?CO?S_TOUCHKEYCFG

?PR?_MULTIPLEDEAL?SENSORMETHOD                   -----    -----      0021H    0002H
  +--> ?PR?INITIALIZESENSORFLAG?SENSORMETHOD
  +--> ?PR?FILTERIIRINIT?SENSORMETHOD
  +--> ?PR?_FILTERDATADEAL?SENSORMETHOD
  +--> ?PR?INITIALIZEBASELINES?SENSORMETHOD

?PR?APP_CYCLE?APP                                -----    -----      -----    -----
  +--> ?PR?API_TICK_POPFLAG_10MS?API_TICK
  +--> ?PR?APP_SYS_CYCLE?APP_SYS
  +--> ?PR?API_TICK_POPFLAG_50MS?API_TICK
  +--> ?PR?API_TICK_POPFLAG_100MS?API_TICK
  +--> ?PR?API_TICK_POPFLAG_500MS?API_TICK
  +--> ?PR?API_TICK_POPFLAG_1000MS?API_TICK

?PR?APP_SYS_CYCLE?APP_SYS                        -----    -----      -----    -----
BL51 BANKED LINKER/LOCATER V6.22.4.0                                                  03/25/2024  15:08:21  PAGE 7


  +--> ?PR?API_SYSBASE_GETSTATE?API_SYSBASE
  +--> ?PR?APP_SYS_POWERON_CYCLE?APP_SYS_POW...
  +--> ?PR?APP_SYS_TURNON_CYCLE?APP_SYS_TURNON

?PR?APP_SYS_POWERON_CYCLE?APP_SYS_POW...         -----    -----      -----    -----
  +--> ?PR?API_SYSBASE_ISENTER?API_SYSBASE
  +--> ?PR?API_SYSBASE_CLEARENTERFLAG?API_SY...
  +--> ?PR?API_SYSBASE_ISQUITE?API_SYSBASE
  +--> ?PR?API_SYSBASE_CLEARQUITEFLAG?API_SY...
  +--> ?PR?API_SYSBASE_SETENTERFLAG?API_SYSBASE
  +--> ?PR?API_SYSBASE_GETSTATE?API_SYSBASE
  +--> ?PR?APP_SYS_POWERONQUITE?APP_SYS_POWERON

?PR?APP_SYS_POWERONQUITE?APP_SYS_POWERON         -----    -----      -----    -----
  +--> ?PR?_API_SYSBASE_SETSTATE?API_SYSBASE

?PR?APP_SYS_TURNON_CYCLE?APP_SYS_TURNON          -----    -----      -----    -----
  +--> ?PR?API_SYSBASE_ISENTER?API_SYSBASE
  +--> ?PR?API_SYSBASE_CLEARENTERFLAG?API_SY...
  +--> ?PR?API_SYSBASE_ISQUITE?API_SYSBASE
  +--> ?PR?API_SYSBASE_CLEARQUITEFLAG?API_SY...
  +--> ?PR?API_SYSBASE_SETENTERFLAG?API_SYSBASE
  +--> ?PR?API_SYSBASE_GETSTATE?API_SYSBASE



SYMBOL TABLE OF MODULE:  .\Objects\X5BC05-TK20240103 (MAIN)

  VALUE           TYPE          NAME
  ----------------------------------

  -------         MODULE        MAIN
  C:0000H         SYMBOL        _ICE_DUMMY_
  D:0080H         PUBLIC        P0
  D:0090H         PUBLIC        P1
  D:00A0H         PUBLIC        P2
  D:00A8H         PUBLIC        IE
  D:00B8H         PUBLIC        IP
  C:1219H         PUBLIC        main
  D:0088H         PUBLIC        TCON
  D:00C8H         PUBLIC        T2CON
  D:00D0H         PUBLIC        PSW
  -------         PROC          MAIN
  C:1219H         LINE#         6
  C:1219H         LINE#         7
  C:1219H         LINE#         8
  C:121CH         LINE#         9
  C:121FH         LINE#         10
  C:1222H         LINE#         12
  C:1225H         LINE#         14
  C:1228H         LINE#         16
  C:1229H         LINE#         17
  C:122AH         LINE#         18
  C:122BH         LINE#         19
  C:122CH         LINE#         20
  C:122DH         LINE#         21
  C:122EH         LINE#         22
BL51 BANKED LINKER/LOCATER V6.22.4.0                                                  03/25/2024  15:08:21  PAGE 8


  C:122FH         LINE#         23
  C:1230H         LINE#         24
  C:1230H         LINE#         25
  C:1230H         LINE#         26
  C:1233H         LINE#         29
  C:1236H         LINE#         30
  -------         ENDPROC       MAIN
  -------         ENDMOD        MAIN

  -------         MODULE        GLOBAL
  C:0000H         SYMBOL        _ICE_DUMMY_
  D:0080H         PUBLIC        P0
  D:0090H         PUBLIC        P1
  D:00A0H         PUBLIC        P2
  D:001AH         PUBLIC        exKeyValueFlag
  D:00A8H         PUBLIC        IE
  D:00B8H         PUBLIC        IP
  D:0088H         PUBLIC        TCON
  D:001EH         PUBLIC        u8KeyBuff
  D:00C8H         PUBLIC        T2CON
  D:00D0H         PUBLIC        PSW
  -------         ENDMOD        GLOBAL

  -------         MODULE        APP
  C:0000H         SYMBOL        _ICE_DUMMY_
  C:144DH         PUBLIC        App_Init
  C:1305H         PUBLIC        App_Cycle
  -------         PROC          APP_INIT
  C:144DH         LINE#         4
  C:144DH         LINE#         5
  C:144DH         LINE#         6
  C:1450H         LINE#         8
  C:1453H         LINE#         10
  C:1456H         LINE#         11
  -------         ENDPROC       APP_INIT
  -------         PROC          APP_CYCLE
  C:1305H         LINE#         17
  C:1305H         LINE#         18
  C:1305H         LINE#         19
  C:130BH         LINE#         20
  C:130BH         LINE#         21
  C:130EH         LINE#         22
  C:130EH         LINE#         24
  C:1311H         LINE#         25
  C:1311H         LINE#         27
  C:1311H         LINE#         29
  C:1314H         LINE#         30
  C:1314H         LINE#         32
  C:1314H         LINE#         34
  C:1317H         LINE#         35
  C:1317H         LINE#         37
  C:1317H         LINE#         39
  C:131AH         LINE#         40
  C:131AH         LINE#         42
  C:131AH         LINE#         43
  -------         ENDPROC       APP_CYCLE
  -------         ENDMOD        APP
BL51 BANKED LINKER/LOCATER V6.22.4.0                                                  03/25/2024  15:08:21  PAGE 9



  -------         MODULE        APP_SYS
  C:0000H         SYMBOL        _ICE_DUMMY_
  C:1150H         PUBLIC        App_Sys_Cycle
  C:1491H         PUBLIC        App_Sys_Init
  -------         PROC          APP_SYS_INIT
  C:1491H         LINE#         3
  C:1491H         LINE#         4
  C:1491H         LINE#         5
  C:1494H         LINE#         6
  -------         ENDPROC       APP_SYS_INIT
  -------         PROC          APP_SYS_CYCLE
  C:1150H         LINE#         15
  C:1150H         LINE#         16
  C:1150H         LINE#         17
  C:1173H         LINE#         18
  C:1173H         LINE#         19
  C:1173H         LINE#         20
  C:1176H         LINE#         21
  C:1177H         LINE#         23
  C:1177H         LINE#         25
  C:1177H         LINE#         27
  C:1177H         LINE#         28
  C:117AH         LINE#         29
  C:117AH         LINE#         31
  C:117AH         LINE#         33
  C:117AH         LINE#         35
  C:117AH         LINE#         37
  C:117AH         LINE#         39
  C:117AH         LINE#         41
  C:117AH         LINE#         43
  C:117AH         LINE#         45
  C:117AH         LINE#         47
  C:117AH         LINE#         49
  C:117AH         LINE#         51
  C:117AH         LINE#         52
  C:117AH         LINE#         53
  C:117AH         LINE#         54
  -------         ENDPROC       APP_SYS_CYCLE
  -------         ENDMOD        APP_SYS

  -------         MODULE        APP_SYS_POWERON
  C:0000H         SYMBOL        _ICE_DUMMY_
  C:1382H         PUBLIC        App_Sys_PowerOnQuite
  D:004BH         PUBLIC        u8PowerOn_count
  C:1239H         PUBLIC        App_Sys_PowerOn_Cycle
  C:14CCH         SYMBOL        App_Sys_PowerOn_Lcd_Proc
  C:14CDH         PUBLIC        App_Sys_PowerOn_Led_Proc
  C:14CAH         SYMBOL        App_Sys_PowerOn_Com_Proc
  C:1495H         PUBLIC        App_Sys_ClearPowerOnCount
  C:14C9H         SYMBOL        App_Sys_PowerOn_Key_Proc
  C:14CBH         SYMBOL        App_Sys_PowerOn_Diagnose_Proc
  -------         PROC          APP_SYS_POWERON_KEY_PROC
  C:14C9H         LINE#         7
  C:14C9H         LINE#         8
  C:14C9H         LINE#         10
  -------         ENDPROC       APP_SYS_POWERON_KEY_PROC
BL51 BANKED LINKER/LOCATER V6.22.4.0                                                  03/25/2024  15:08:21  PAGE 10


  -------         PROC          APP_SYS_POWERON_COM_PROC
  C:14CAH         LINE#         11
  C:14CAH         LINE#         12
  C:14CAH         LINE#         14
  -------         ENDPROC       APP_SYS_POWERON_COM_PROC
  -------         PROC          APP_SYS_POWERON_DIAGNOSE_PROC
  C:14CBH         LINE#         15
  C:14CBH         LINE#         16
  C:14CBH         LINE#         18
  -------         ENDPROC       APP_SYS_POWERON_DIAGNOSE_PROC
  -------         PROC          APP_SYS_POWERON_LCD_PROC
  C:14CCH         LINE#         20
  C:14CCH         LINE#         21
  C:14CCH         LINE#         23
  -------         ENDPROC       APP_SYS_POWERON_LCD_PROC
  -------         PROC          APP_SYS_POWERON_LED_PROC
  C:14CDH         LINE#         25
  C:14CDH         LINE#         26
  C:14CDH         LINE#         28
  -------         ENDPROC       APP_SYS_POWERON_LED_PROC
  -------         PROC          APP_SYS_POWERONQUITE
  C:1382H         LINE#         37
  C:1382H         LINE#         38
  C:1382H         LINE#         39
  C:1384H         LINE#         40
  C:138BH         LINE#         41
  C:138BH         LINE#         42
  C:138EH         LINE#         43
  C:1393H         LINE#         44
  C:1393H         LINE#         45
  -------         ENDPROC       APP_SYS_POWERONQUITE
  -------         PROC          APP_SYS_CLEARPOWERONCOUNT
  C:1495H         LINE#         54
  C:1495H         LINE#         55
  C:1495H         LINE#         56
  C:1498H         LINE#         57
  -------         ENDPROC       APP_SYS_CLEARPOWERONCOUNT
  -------         PROC          APP_SYS_POWERON_CYCLE
  C:1239H         LINE#         66
  C:1239H         LINE#         67
  C:1239H         LINE#         68
  C:123FH         LINE#         69
  C:123FH         LINE#         70
  C:1242H         LINE#         71
  C:1242H         LINE#         73
  C:1248H         LINE#         74
  C:1248H         LINE#         75
  C:124BH         LINE#         76
  C:124EH         LINE#         77
  C:124FH         LINE#         78
  C:1255H         LINE#         79
  C:1255H         LINE#         80
  C:1258H         LINE#         81
  C:1258H         LINE#         82
  -------         ENDPROC       APP_SYS_POWERON_CYCLE
  -------         ENDMOD        APP_SYS_POWERON

BL51 BANKED LINKER/LOCATER V6.22.4.0                                                  03/25/2024  15:08:21  PAGE 11


  -------         MODULE        APP_SYS_TURNON
  C:0000H         SYMBOL        _ICE_DUMMY_
  C:14CFH         SYMBOL        App_Sys_TurnOn_Com_Proc
  C:14CEH         SYMBOL        App_Sys_TurnOn_Key_Proc
  C:14D0H         SYMBOL        App_Sys_TurnOn_Diagnose_Proc
  C:12D2H         PUBLIC        App_Sys_TurnOn_Cycle
  C:14D1H         SYMBOL        App_Sys_TurnOn_Lcd_Proc
  C:14D2H         PUBLIC        App_Sys_TurnOn_Led_Proc
  -------         PROC          APP_SYS_TURNON_KEY_PROC
  C:14CEH         LINE#         3
  C:14CEH         LINE#         4
  C:14CEH         LINE#         6
  -------         ENDPROC       APP_SYS_TURNON_KEY_PROC
  -------         PROC          APP_SYS_TURNON_COM_PROC
  C:14CFH         LINE#         7
  C:14CFH         LINE#         8
  C:14CFH         LINE#         10
  -------         ENDPROC       APP_SYS_TURNON_COM_PROC
  -------         PROC          APP_SYS_TURNON_DIAGNOSE_PROC
  C:14D0H         LINE#         11
  C:14D0H         LINE#         12
  C:14D0H         LINE#         14
  -------         ENDPROC       APP_SYS_TURNON_DIAGNOSE_PROC
  -------         PROC          APP_SYS_TURNON_LCD_PROC
  C:14D1H         LINE#         16
  C:14D1H         LINE#         17
  C:14D1H         LINE#         19
  -------         ENDPROC       APP_SYS_TURNON_LCD_PROC
  -------         PROC          APP_SYS_TURNON_LED_PROC
  C:14D2H         LINE#         21
  C:14D2H         LINE#         22
  C:14D2H         LINE#         24
  -------         ENDPROC       APP_SYS_TURNON_LED_PROC
  -------         PROC          APP_SYS_TURNON_CYCLE
  C:12D2H         LINE#         26
  C:12D2H         LINE#         27
  C:12D2H         LINE#         28
  C:12D8H         LINE#         29
  C:12D8H         LINE#         30
  C:12DBH         LINE#         31
  C:12DBH         LINE#         33
  C:12E1H         LINE#         34
  C:12E1H         LINE#         35
  C:12E4H         LINE#         36
  C:12E7H         LINE#         37
  C:12E8H         LINE#         38
  C:12EBH         LINE#         39
  C:12EBH         LINE#         41
  C:12EBH         LINE#         42
  -------         ENDPROC       APP_SYS_TURNON_CYCLE
  -------         ENDMOD        APP_SYS_TURNON

  -------         MODULE        API_TICK
  C:0000H         SYMBOL        _ICE_DUMMY_
  C:131BH         PUBLIC        Api_Tick_Init
  D:0080H         PUBLIC        P0
  D:0090H         PUBLIC        P1
BL51 BANKED LINKER/LOCATER V6.22.4.0                                                  03/25/2024  15:08:21  PAGE 12


  D:00A0H         PUBLIC        P2
  D:00A8H         PUBLIC        IE
  D:00B8H         PUBLIC        IP
  C:1416H         PUBLIC        Api_Tick_PopFlag_1000ms
  D:002EH         SYMBOL        timerCB
  C:0E54H         PUBLIC        Api_Tick_Ms
  D:0088H         PUBLIC        TCON
  C:13EAH         PUBLIC        Api_Tick_PopFlag_10ms
  C:13F5H         PUBLIC        Api_Tick_PopFlag_50ms
  D:00CFH         PUBLIC        WDTCON
  D:00C8H         PUBLIC        T2CON
  C:1400H         PUBLIC        Api_Tick_PopFlag_100ms
  C:140BH         PUBLIC        Api_Tick_PopFlag_500ms
  C:1279H         PUBLIC        SysTick_Handler
  C:148CH         PUBLIC        Api_Tick_GetmsTick
  D:00D0H         PUBLIC        PSW
  -------         PROC          SYSTICK_HANDLER
  -------         DO            
  D:002DH         SYMBOL        tick
  -------         ENDDO         
  C:1279H         LINE#         28
  C:1279H         LINE#         29
  C:1279H         LINE#         31
  C:127CH         LINE#         33
  C:1291H         LINE#         34
  C:1291H         LINE#         35
  C:1293H         LINE#         36
  C:1296H         LINE#         37
  C:1296H         LINE#         38
  -------         ENDPROC       SYSTICK_HANDLER
  -------         PROC          API_TICK_MS
  C:0E54H         LINE#         41
  C:0E54H         LINE#         42
  C:0E54H         LINE#         43
  C:0E5CH         LINE#         45
  C:0E6BH         LINE#         46
  C:0E6BH         LINE#         47
  C:0E6DH         LINE#         48
  C:0E7BH         LINE#         49
  C:0E7BH         LINE#         50
  C:0E7DH         LINE#         51
  C:0E8BH         LINE#         52
  C:0E8BH         LINE#         53
  C:0E8DH         LINE#         54
  C:0E9CH         LINE#         55
  C:0E9CH         LINE#         56
  C:0E9EH         LINE#         57
  C:0EADH         LINE#         58
  C:0EADH         LINE#         59
  C:0EAFH         LINE#         60
  C:0EB3H         LINE#         61
  C:0EB3H         LINE#         62
  C:0EB3H         LINE#         63
  C:0EB3H         LINE#         64
  C:0EB3H         LINE#         65
  C:0EB3H         LINE#         66
  -------         ENDPROC       API_TICK_MS
BL51 BANKED LINKER/LOCATER V6.22.4.0                                                  03/25/2024  15:08:21  PAGE 13


  -------         PROC          API_TICK_INIT
  C:131BH         LINE#         67
  C:131BH         LINE#         68
  C:131BH         LINE#         70
  C:1321H         LINE#         71
  C:1324H         LINE#         72
  C:1327H         LINE#         73
  C:132AH         LINE#         74
  C:132DH         LINE#         75
  C:1330H         LINE#         76
  -------         ENDPROC       API_TICK_INIT
  -------         PROC          API_TICK_GETMSTICK
  C:148CH         LINE#         78
  C:148CH         LINE#         79
  C:148CH         LINE#         80
  C:1490H         LINE#         81
  -------         ENDPROC       API_TICK_GETMSTICK
  -------         PROC          API_TICK_POPFLAG_10MS
  C:13EAH         LINE#         83
  C:13EAH         LINE#         84
  C:13EAH         LINE#         85
  C:13EEH         LINE#         86
  C:13F0H         LINE#         87
  C:13F4H         LINE#         88
  -------         ENDPROC       API_TICK_POPFLAG_10MS
  -------         PROC          API_TICK_POPFLAG_50MS
  C:13F5H         LINE#         89
  C:13F5H         LINE#         90
  C:13F5H         LINE#         91
  C:13F9H         LINE#         92
  C:13FBH         LINE#         93
  C:13FFH         LINE#         94
  -------         ENDPROC       API_TICK_POPFLAG_50MS
  -------         PROC          API_TICK_POPFLAG_100MS
  C:1400H         LINE#         95
  C:1400H         LINE#         96
  C:1404H         LINE#         97
  C:1406H         LINE#         98
  C:140AH         LINE#         99
  -------         ENDPROC       API_TICK_POPFLAG_100MS
  -------         PROC          API_TICK_POPFLAG_500MS
  C:140BH         LINE#         101
  C:140BH         LINE#         102
  C:140FH         LINE#         103
  C:1411H         LINE#         104
  C:1415H         LINE#         105
  -------         ENDPROC       API_TICK_POPFLAG_500MS
  -------         PROC          API_TICK_POPFLAG_1000MS
  C:1416H         LINE#         106
  C:1416H         LINE#         107
  C:141AH         LINE#         108
  C:141CH         LINE#         109
  C:1420H         LINE#         110
  -------         ENDPROC       API_TICK_POPFLAG_1000MS
  -------         ENDMOD        API_TICK

  -------         MODULE        API_SYSBASE
BL51 BANKED LINKER/LOCATER V6.22.4.0                                                  03/25/2024  15:08:21  PAGE 14


  C:0000H         SYMBOL        _ICE_DUMMY_
  C:1485H         PUBLIC        Api_SysBase_GetSysCB
  C:149DH         PUBLIC        Api_SysBase_ClearEnterFlag
  C:14A5H         PUBLIC        Api_SysBase_ClearQuiteFlag
  C:1457H         PUBLIC        Api_SysBase_Init
  C:14B1H         PUBLIC        Api_SysBase_GetState
  C:1499H         PUBLIC        Api_SysBase_SetEnterFlag
  C:1394H         PUBLIC        _Api_SysBase_SetState
  C:14A1H         PUBLIC        Api_SysBase_SetQuiteFlag
  C:14B4H         PUBLIC        Api_SysBase_GetLastState
  C:14B7H         PUBLIC        Api_SysBase_IsEnter
  C:14BAH         PUBLIC        Api_SysBase_IsQuite
  D:0040H         SYMBOL        sysCB
  -------         PROC          _API_SYSBASE_SETSTATE
  D:004CH         SYMBOL        state
  C:1394H         LINE#         6
  C:1396H         LINE#         7
  C:1396H         LINE#         8
  C:139CH         LINE#         9
  C:139CH         LINE#         10
  C:139FH         LINE#         11
  C:13A2H         LINE#         12
  C:13A5H         LINE#         13
  C:13A5H         LINE#         14
  -------         ENDPROC       _API_SYSBASE_SETSTATE
  -------         PROC          API_SYSBASE_GETSTATE
  C:14B1H         LINE#         16
  C:14B1H         LINE#         17
  C:14B1H         LINE#         18
  C:14B3H         LINE#         19
  -------         ENDPROC       API_SYSBASE_GETSTATE
  -------         PROC          API_SYSBASE_GETLASTSTATE
  C:14B4H         LINE#         21
  C:14B4H         LINE#         22
  C:14B4H         LINE#         23
  C:14B6H         LINE#         24
  -------         ENDPROC       API_SYSBASE_GETLASTSTATE
  -------         PROC          API_SYSBASE_GETSYSCB
  C:1485H         LINE#         26
  C:1485H         LINE#         27
  C:1485H         LINE#         28
  C:148BH         LINE#         29
  -------         ENDPROC       API_SYSBASE_GETSYSCB
  -------         PROC          API_SYSBASE_ISENTER
  C:14B7H         LINE#         31
  C:14B7H         LINE#         32
  C:14B7H         LINE#         33
  C:14B9H         LINE#         34
  -------         ENDPROC       API_SYSBASE_ISENTER
  -------         PROC          API_SYSBASE_SETENTERFLAG
  C:1499H         LINE#         36
  C:1499H         LINE#         37
  C:1499H         LINE#         38
  C:149CH         LINE#         39
  -------         ENDPROC       API_SYSBASE_SETENTERFLAG
  -------         PROC          API_SYSBASE_CLEARENTERFLAG
  C:149DH         LINE#         41
BL51 BANKED LINKER/LOCATER V6.22.4.0                                                  03/25/2024  15:08:21  PAGE 15


  C:149DH         LINE#         42
  C:149DH         LINE#         43
  C:14A0H         LINE#         44
  -------         ENDPROC       API_SYSBASE_CLEARENTERFLAG
  -------         PROC          API_SYSBASE_ISQUITE
  C:14BAH         LINE#         46
  C:14BAH         LINE#         47
  C:14BAH         LINE#         48
  C:14BCH         LINE#         49
  -------         ENDPROC       API_SYSBASE_ISQUITE
  -------         PROC          API_SYSBASE_SETQUITEFLAG
  C:14A1H         LINE#         51
  C:14A1H         LINE#         52
  C:14A1H         LINE#         53
  C:14A4H         LINE#         54
  -------         ENDPROC       API_SYSBASE_SETQUITEFLAG
  -------         PROC          API_SYSBASE_CLEARQUITEFLAG
  C:14A5H         LINE#         56
  C:14A5H         LINE#         57
  C:14A5H         LINE#         58
  C:14A8H         LINE#         59
  -------         ENDPROC       API_SYSBASE_CLEARQUITEFLAG
  -------         PROC          API_SYSBASE_INIT
  C:1457H         LINE#         61
  C:1457H         LINE#         62
  C:145AH         LINE#         63
  C:145DH         LINE#         64
  C:1460H         LINE#         65
  -------         ENDPROC       API_SYSBASE_INIT
  -------         ENDMOD        API_SYSBASE

  -------         MODULE        API_TK
  C:0000H         SYMBOL        _ICE_DUMMY_
  C:1297H         PUBLIC        Sys_Scan
  C:146BH         PUBLIC        Api_TK_GetTKValue
  -------         PROC          SYS_SCAN
  C:1297H         LINE#         10
  C:1297H         LINE#         11
  C:1297H         LINE#         12
  C:129FH         LINE#         13
  C:129FH         LINE#         14
  C:12A3H         LINE#         15
  C:12B1H         LINE#         17
  C:12B4H         LINE#         18
  C:12B4H         LINE#         22
  -------         ENDPROC       SYS_SCAN
  -------         PROC          API_TK_GETTKVALUE
  C:146BH         LINE#         30
  C:146BH         LINE#         31
  C:146BH         LINE#         32
  C:1473H         LINE#         33
  -------         ENDPROC       API_TK_GETTKVALUE
  -------         ENDMOD        API_TK

  -------         MODULE        API_TWI
  C:0000H         SYMBOL        _ICE_DUMMY_
  D:0080H         PUBLIC        P0
BL51 BANKED LINKER/LOCATER V6.22.4.0                                                  03/25/2024  15:08:21  PAGE 16


  D:009FH         PUBLIC        SSDAT
  D:0090H         PUBLIC        P1
  D:00A0H         PUBLIC        P2
  D:00A8H         PUBLIC        IE
  C:1331H         PUBLIC        Api_Twi_State
  D:00B8H         PUBLIC        IP
  C:13D1H         PUBLIC        Api_Twi_Init
  D:0008H         PUBLIC        u8TwiRxBuff
  D:0088H         PUBLIC        TCON
  D:000DH         PUBLIC        u8TwiTxBuff
  D:009DH         PUBLIC        SSCON0
  C:13B5H         PUBLIC        _SSI_TWI_Cmd
  D:0015H         PUBLIC        u8TwiRx_count
  D:0016H         PUBLIC        u8TwiTx_count
  C:14A9H         PUBLIC        Api_Twi_ClearRxCount
  C:14ADH         PUBLIC        Api_Twi_ClearTxCount
  C:0D05H         SYMBOL        delay_us
  C:1124H         PUBLIC        Api_Twi_Rx
  C:12B5H         PUBLIC        Api_Twi_Tx
  C:0F60H         PUBLIC        Api_Twi_TxDataLoad
  D:00C8H         PUBLIC        T2CON
  D:0017H         PUBLIC        Twi_TxState
  D:0018H         PUBLIC        u8TwiRxCheSum
  D:0019H         PUBLIC        u8TwiTxCheSum
  D:00D0H         PUBLIC        PSW
  -------         PROC          DELAY_US
  C:0D05H         LINE#         20
  C:0D05H         LINE#         21
  C:0D05H         LINE#         23
  C:0D0AH         LINE#         24
  C:0D0FH         LINE#         25
  C:0D14H         LINE#         26
  C:0D19H         LINE#         27
  C:0D1EH         LINE#         28
  C:0D23H         LINE#         29
  C:0D28H         LINE#         30
  C:0D2DH         LINE#         31
  C:0D32H         LINE#         32
  C:0D37H         LINE#         33
  C:0D3CH         LINE#         34
  C:0D41H         LINE#         35
  C:0D46H         LINE#         36
  C:0D4BH         LINE#         37
  C:0D50H         LINE#         38
  C:0D55H         LINE#         39
  C:0D5AH         LINE#         40
  C:0D5FH         LINE#         41
  C:0D64H         LINE#         42
  C:0D69H         LINE#         43
  C:0D6EH         LINE#         44
  C:0D73H         LINE#         45
  C:0D78H         LINE#         46
  C:0D7DH         LINE#         47
  -------         ENDPROC       DELAY_US
  -------         PROC          API_TWI_INIT
  C:13D1H         LINE#         57
  C:13D1H         LINE#         58
BL51 BANKED LINKER/LOCATER V6.22.4.0                                                  03/25/2024  15:08:21  PAGE 17


  C:13D1H         LINE#         59
  C:13D4H         LINE#         60
  C:13D7H         LINE#         61
  C:13DAH         LINE#         62
  C:13DDH         LINE#         63
  -------         ENDPROC       API_TWI_INIT
  -------         PROC          _SSI_TWI_CMD
  D:004DH         SYMBOL        NewState
  C:13B5H         LINE#         91
  C:13B7H         LINE#         92
  C:13B7H         LINE#         93
  C:13BBH         LINE#         94
  C:13BBH         LINE#         95
  C:13BEH         LINE#         96
  C:13BFH         LINE#         98
  C:13BFH         LINE#         99
  C:13C2H         LINE#         100
  C:13C2H         LINE#         101
  -------         ENDPROC       _SSI_TWI_CMD
  -------         PROC          API_TWI_RX
  C:1124H         LINE#         110
  C:1124H         LINE#         111
  C:1124H         LINE#         112
  C:112CH         LINE#         113
  C:112EH         LINE#         114
  C:1135H         LINE#         115
  C:1135H         LINE#         116
  C:1138H         LINE#         117
  C:1144H         LINE#         118
  C:1147H         LINE#         119
  C:114CH         LINE#         120
  C:114CH         LINE#         121
  C:114FH         LINE#         122
  C:114FH         LINE#         123
  C:114FH         LINE#         124
  -------         ENDPROC       API_TWI_RX
  -------         PROC          API_TWI_CLEARRXCOUNT
  C:14A9H         LINE#         126
  C:14A9H         LINE#         127
  C:14A9H         LINE#         128
  C:14ACH         LINE#         129
  -------         ENDPROC       API_TWI_CLEARRXCOUNT
  -------         PROC          API_TWI_TXDATALOAD
  -------         DO            
  D:004EH         SYMBOL        i
  -------         ENDDO         
  C:0F60H         LINE#         138
  C:0F60H         LINE#         139
  C:0F60H         LINE#         141
  C:0F6FH         LINE#         142
  C:0F6FH         LINE#         143
  C:0F6FH         LINE#         144
  C:0F72H         LINE#         145
  C:0F75H         LINE#         146
  C:0F78H         LINE#         147
  C:0F7BH         LINE#         148
  C:0F7EH         LINE#         149
BL51 BANKED LINKER/LOCATER V6.22.4.0                                                  03/25/2024  15:08:21  PAGE 18


  C:0F81H         LINE#         150
  C:0F84H         LINE#         151
  C:0F8EH         LINE#         152
  C:0F8EH         LINE#         153
  C:0F9AH         LINE#         154
  C:0F9EH         LINE#         155
  C:0FA1H         LINE#         156
  C:0FA4H         LINE#         157
  C:0FA7H         LINE#         159
  C:0FA7H         LINE#         161
  C:0FA7H         LINE#         163
  C:0FA7H         LINE#         165
  C:0FA7H         LINE#         166
  C:0FA7H         LINE#         167
  C:0FA7H         LINE#         168
  -------         ENDPROC       API_TWI_TXDATALOAD
  -------         PROC          API_TWI_TX
  C:12B5H         LINE#         177
  C:12B5H         LINE#         178
  C:12B5H         LINE#         180
  C:12B8H         LINE#         181
  C:12C2H         LINE#         182
  C:12C4H         LINE#         183
  C:12CBH         LINE#         184
  C:12CBH         LINE#         186
  C:12CEH         LINE#         187
  C:12D1H         LINE#         188
  C:12D1H         LINE#         189
  -------         ENDPROC       API_TWI_TX
  -------         PROC          API_TWI_CLEARTXCOUNT
  C:14ADH         LINE#         191
  C:14ADH         LINE#         192
  C:14ADH         LINE#         193
  C:14B0H         LINE#         194
  -------         ENDPROC       API_TWI_CLEARTXCOUNT
  -------         PROC          API_TWI_STATE
  C:1331H         LINE#         196
  C:1331H         LINE#         197
  C:1331H         LINE#         198
  C:1336H         LINE#         199
  C:1336H         LINE#         200
  C:133BH         LINE#         201
  C:133EH         LINE#         202
  C:1341H         LINE#         203
  C:1345H         LINE#         205
  C:1345H         LINE#         207
  -------         ENDPROC       API_TWI_STATE
  -------         ENDMOD        API_TWI

  -------         MODULE        API_LED
  C:0000H         SYMBOL        _ICE_DUMMY_
  C:14D3H         PUBLIC        Api_Led_GetLedData
  C:14D4H         PUBLIC        Api_Led_Contril
  -------         PROC          API_LED_GETLEDDATA
  C:14D3H         LINE#         3
  C:14D3H         LINE#         4
  C:14D3H         LINE#         6
BL51 BANKED LINKER/LOCATER V6.22.4.0                                                  03/25/2024  15:08:21  PAGE 19


  -------         ENDPROC       API_LED_GETLEDDATA
  -------         PROC          API_LED_CONTRIL
  C:14D4H         LINE#         8
  C:14D4H         LINE#         9
  C:14D4H         LINE#         11
  -------         ENDPROC       API_LED_CONTRIL
  -------         ENDMOD        API_LED

  -------         MODULE        IO_INIT
  C:0000H         SYMBOL        _ICE_DUMMY_
  D:0080H         PUBLIC        P0
  D:0090H         PUBLIC        P1
  D:00A0H         PUBLIC        P2
  D:00A8H         PUBLIC        IE
  C:12ECH         PUBLIC        IO_Init
  D:009BH         PUBLIC        P0PH
  D:00B8H         PUBLIC        IP
  D:0092H         PUBLIC        P1PH
  D:00A2H         PUBLIC        P2PH
  D:0088H         PUBLIC        TCON
  D:009AH         PUBLIC        P0CON
  D:0091H         PUBLIC        P1CON
  D:00A1H         PUBLIC        P2CON
  D:00C8H         PUBLIC        T2CON
  D:00D0H         PUBLIC        PSW
  -------         PROC          IO_INIT
  C:12ECH         LINE#         9
  C:12ECH         LINE#         10
  C:12ECH         LINE#         12
  C:12EFH         LINE#         13
  C:12F2H         LINE#         14
  C:12F5H         LINE#         15
  C:12F8H         LINE#         16
  C:12FBH         LINE#         17
  C:12FEH         LINE#         50
  C:1301H         LINE#         51
  C:1304H         LINE#         53
  -------         ENDPROC       IO_INIT
  -------         ENDMOD        IO_INIT

  -------         MODULE        SSI_INIT
  C:0000H         SYMBOL        _ICE_DUMMY_
  D:0080H         PUBLIC        P0
  D:0090H         PUBLIC        P1
  C:0D7EH         PUBLIC        TWI_Int
  D:00A0H         PUBLIC        P2
  D:008FH         PUBLIC        OTCON
  B:00A8H.7       PUBLIC        EA
  D:00A8H         PUBLIC        IE
  D:00B8H         PUBLIC        IP
  D:0088H         PUBLIC        TCON
  D:009DH         PUBLIC        SSCON0
  D:009EH         PUBLIC        SSCON1
  D:00A9H         PUBLIC        IE1
  D:00C8H         PUBLIC        T2CON
  C:13A6H         PUBLIC        TWI_Init
  C:13C3H         PUBLIC        _SSI_TWI_AcknowledgeConfig
BL51 BANKED LINKER/LOCATER V6.22.4.0                                                  03/25/2024  15:08:21  PAGE 20


  B:0020H.2       PUBLIC        TWIFlag
  D:00D0H         PUBLIC        PSW
  -------         PROC          TWI_INIT
  C:13A6H         LINE#         22
  C:13A6H         LINE#         23
  C:13A6H         LINE#         24
  C:13A9H         LINE#         25
  C:13ACH         LINE#         26
  C:13AFH         LINE#         27
  C:13B2H         LINE#         28
  C:13B4H         LINE#         29
  -------         ENDPROC       TWI_INIT
  -------         PROC          _SSI_TWI_ACKNOWLEDGECONFIG
  D:004FH         SYMBOL        NewState
  C:13C3H         LINE#         38
  C:13C5H         LINE#         39
  C:13C5H         LINE#         40
  C:13C9H         LINE#         41
  C:13C9H         LINE#         42
  C:13CCH         LINE#         43
  C:13CDH         LINE#         45
  C:13CDH         LINE#         46
  C:13D0H         LINE#         47
  C:13D0H         LINE#         48
  -------         ENDPROC       _SSI_TWI_ACKNOWLEDGECONFIG
  -------         PROC          TWI_INT
  -------         DO            
  D:0050H         SYMBOL        state
  -------         ENDDO         
  C:0D7EH         LINE#         51
  C:0D9BH         LINE#         55
  C:0D9EH         LINE#         56
  C:0DA4H         LINE#         60
  C:0DBAH         LINE#         61
  C:0DBAH         LINE#         62
  C:0DBAH         LINE#         65
  C:0DBDH         LINE#         66
  C:0DC0H         LINE#         67
  C:0DC2H         LINE#         69
  C:0DC2H         LINE#         71
  C:0DC2H         LINE#         73
  C:0DC2H         LINE#         74
  C:0DC5H         LINE#         75
  C:0DC7H         LINE#         77
  C:0DC7H         LINE#         79
  C:0DCAH         LINE#         80
  C:0DCCH         LINE#         82
  C:0DCCH         LINE#         83
  C:0DCFH         LINE#         84
  C:0DCFH         LINE#         86
  C:0DCFH         LINE#         87
  C:0DCFH         LINE#         89
  C:0DCFH         LINE#         97
  -------         ENDPROC       TWI_INT
  -------         ENDMOD        SSI_INIT

  -------         MODULE        TIMER_INIT
BL51 BANKED LINKER/LOCATER V6.22.4.0                                                  03/25/2024  15:08:21  PAGE 21


  C:0000H         SYMBOL        _ICE_DUMMY_
  D:0080H         PUBLIC        P0
  D:0090H         PUBLIC        P1
  D:00A0H         PUBLIC        P2
  D:008EH         PUBLIC        TMCON
  B:00A8H.7       PUBLIC        EA
  D:00A8H         PUBLIC        IE
  D:00B8H         PUBLIC        IP
  B:0080H.2       PUBLIC        P02
  D:0088H         PUBLIC        TCON
  D:0089H         PUBLIC        TMOD
  B:00A8H.1       PUBLIC        ET0
  D:008CH         PUBLIC        TH0
  D:008AH         PUBLIC        TL0
  C:1031H         PUBLIC        timer0
  B:0088H.4       PUBLIC        TR0
  D:00C8H         PUBLIC        T2CON
  C:1346H         PUBLIC        Timer_Init
  D:00D0H         PUBLIC        PSW
  -------         PROC          TIMER_INIT
  C:1346H         LINE#         10
  C:1346H         LINE#         11
  C:1346H         LINE#         12
  C:1349H         LINE#         15
  C:134CH         LINE#         16
  C:134FH         LINE#         17
  C:1352H         LINE#         18
  C:1354H         LINE#         19
  C:1356H         LINE#         20
  C:1358H         LINE#         22
  C:135AH         LINE#         23
  -------         ENDPROC       TIMER_INIT
  -------         PROC          TIMER0
  C:1031H         LINE#         31
  C:104EH         LINE#         33
  C:1051H         LINE#         34
  C:1054H         LINE#         35
  C:1056H         LINE#         37
  C:1059H         LINE#         38
  -------         ENDPROC       TIMER0
  -------         ENDMOD        TIMER_INIT

  -------         MODULE        S_TOUCHKEYCFG
  C:0000H         SYMBOL        _ICE_DUMMY_
  I:0056H         PUBLIC        ConfirmTouchCnt
  X:0000H         PUBLIC        BaseLine
  C:0F0EH         PUBLIC        CFG_OVERLOW_MAX_COUNT
  C:0F11H         PUBLIC        TouchKeyCFGInit
  C:1474H         PUBLIC        _GetBaseLineAdjustValue
  X:000EH         PUBLIC        FloatAreaCnt
  B:00D0H.7       PUBLIC        TK_CY
  C:10F0H         PUBLIC        _GetCurrFingerValue
  C:0F0FH         PUBLIC        CFG_RESET_BASELINE_CNT
  C:14BDH         PUBLIC        GetCsFunction
  X:0015H         PUBLIC        CurrentChannel
  X:001CH         PUBLIC        RawData
  C:1442H         PUBLIC        IsDoubleKeyOrSlideKey
BL51 BANKED LINKER/LOCATER V6.22.4.0                                                  03/25/2024  15:08:21  PAGE 22


  I:0057H         PUBLIC        TouchCnt
  C:10B5H         PUBLIC        CTK_ISR
  I:005EH         PUBLIC        LowFingerDataCnt
  C:09D6H         PUBLIC        TouchKeyScan
  C:1421H         PUBLIC        SetOneKeyPushResetTime
  C:135BH         PUBLIC        _GetScanTimeValue
  C:1461H         PUBLIC        GetTKYzCnt
  X:002AH         PUBLIC        DifferAccum
  I:0065H         PUBLIC        RestAreaCnt
  C:11F8H         PUBLIC        _GetTKYzThreshold
  I:006CH         PUBLIC        BaseLineAdjusttmp
  C:1074H         PUBLIC        CurrentSensorChoose
  C:1437H         PUBLIC        GetInitAutoUpdateTime
  I:0073H         PUBLIC        MultipleLNum
  C:0FEDH         PUBLIC        _GetCfgMsg
  X:0038H         PUBLIC        SOCAPI_TouchKeyStatus
  C:147DH         PUBLIC        GetUpConfirmCnt
  I:0075H         PUBLIC        UpdateBaseLNum
  X:0039H         PUBLIC        SetNoiseThreshold
  C:142CH         PUBLIC        GetBaselineUpdateThreshold
  X:003AH         PUBLIC        FilterData
  C:0F10H         PUBLIC        CFG_CYCLE_CNT
  I:0077H         PUBLIC        NoTouchCnt
  I:007EH         PUBLIC        MultipleDealTpye
  C:0ED6H         PUBLIC        TKChannelCfg
  C:0EB4H         PUBLIC        TKCFG
  D:00D0H         PUBLIC        TK_PSW
  -------         PROC          SETONEKEYPUSHRESETTIME
  C:1421H         LINE#         110
  C:1421H         LINE#         111
  C:1421H         LINE#         112
  C:142BH         LINE#         113
  -------         ENDPROC       SETONEKEYPUSHRESETTIME
  -------         PROC          GETBASELINEUPDATETHRESHOLD
  C:142CH         LINE#         121
  C:142CH         LINE#         122
  C:142CH         LINE#         123
  C:1436H         LINE#         124
  -------         ENDPROC       GETBASELINEUPDATETHRESHOLD
  -------         PROC          GETINITAUTOUPDATETIME
  C:1437H         LINE#         133
  C:1437H         LINE#         134
  C:1437H         LINE#         135
  C:1441H         LINE#         136
  -------         ENDPROC       GETINITAUTOUPDATETIME
  -------         PROC          GETCSFUNCTION
  C:14BDH         LINE#         144
  C:14BDH         LINE#         145
  C:14BDH         LINE#         146
  C:14BFH         LINE#         147
  -------         ENDPROC       GETCSFUNCTION
  -------         PROC          _GETCURRFINGERVALUE
  D:0051H         SYMBOL        i
  C:10F0H         LINE#         155
  C:10F2H         LINE#         156
  C:10F2H         LINE#         157
  C:1123H         LINE#         158
BL51 BANKED LINKER/LOCATER V6.22.4.0                                                  03/25/2024  15:08:21  PAGE 23


  -------         ENDPROC       _GETCURRFINGERVALUE
  -------         PROC          _GETSCANTIMEVALUE
  D:0052H         SYMBOL        i
  C:135BH         LINE#         167
  C:135DH         LINE#         168
  C:135DH         LINE#         169
  C:136EH         LINE#         170
  -------         ENDPROC       _GETSCANTIMEVALUE
  -------         PROC          ISDOUBLEKEYORSLIDEKEY
  C:1442H         LINE#         178
  C:1442H         LINE#         179
  C:1442H         LINE#         180
  C:144CH         LINE#         181
  -------         ENDPROC       ISDOUBLEKEYORSLIDEKEY
  -------         PROC          _GETBASELINEADJUSTVALUE
  D:0053H         SYMBOL        i
  C:1474H         LINE#         190
  C:1476H         LINE#         191
  C:1476H         LINE#         192
  C:147CH         LINE#         193
  -------         ENDPROC       _GETBASELINEADJUSTVALUE
  -------         PROC          GETUPCONFIRMCNT
  C:147DH         LINE#         201
  C:147DH         LINE#         202
  C:147DH         LINE#         203
  C:1484H         LINE#         204
  -------         ENDPROC       GETUPCONFIRMCNT
  -------         PROC          GETTKYZCNT
  C:1461H         LINE#         213
  C:1461H         LINE#         214
  C:1461H         LINE#         215
  C:146AH         LINE#         216
  -------         ENDPROC       GETTKYZCNT
  -------         PROC          _GETTKYZTHRESHOLD
  D:0048H         SYMBOL        i
  -------         DO            
  D:0049H         SYMBOL        SetFingerThresholdtmp
  -------         ENDDO         
  C:11F8H         LINE#         225
  C:11FAH         LINE#         226
  C:11FAH         LINE#         229
  C:1201H         LINE#         230
  C:1218H         LINE#         232
  C:1218H         LINE#         233
  -------         ENDPROC       _GETTKYZTHRESHOLD
  -------         PROC          CURRENTSENSORCHOOSE
  -------         DO            
  D:0044H         SYMBOL        i
  D:0045H         SYMBOL        Ctk_Channel_mark
  D:0046H         SYMBOL        CurrentSensorKey
  -------         ENDDO         
  C:1074H         LINE#         241
  C:1074H         LINE#         242
  C:1074H         LINE#         244
  C:1077H         LINE#         247
  C:107DH         LINE#         249
  C:1087H         LINE#         250
BL51 BANKED LINKER/LOCATER V6.22.4.0                                                  03/25/2024  15:08:21  PAGE 24


  C:1087H         LINE#         251
  C:1092H         LINE#         252
  C:1095H         LINE#         253
  C:1095H         LINE#         254
  C:10A4H         LINE#         255
  C:10A6H         LINE#         256
  C:10ADH         LINE#         257
  C:10ADH         LINE#         258
  C:10ADH         LINE#         259
  C:10B1H         LINE#         260
  C:10B4H         LINE#         261
  -------         ENDPROC       CURRENTSENSORCHOOSE
  -------         PROC          _GETCFGMSG
  D:0054H         SYMBOL        i
  C:0FEDH         LINE#         270
  C:0FEFH         LINE#         271
  C:0FEFH         LINE#         272
  C:1007H         LINE#         273
  C:1007H         LINE#         274
  C:100EH         LINE#         275
  C:1015H         LINE#         276
  C:101CH         LINE#         277
  C:1023H         LINE#         278
  C:102EH         LINE#         279
  C:1030H         LINE#         280
  C:1030H         LINE#         281
  -------         ENDPROC       _GETCFGMSG
  -------         PROC          TOUCHKEYCFGINIT
  -------         DO            
  D:0055H         SYMBOL        i
  -------         ENDDO         
  C:0F11H         LINE#         290
  C:0F11H         LINE#         291
  C:0F11H         LINE#         293
  C:0F1EH         LINE#         294
  C:0F2CH         LINE#         295
  C:0F2FH         LINE#         296
  C:0F39H         LINE#         297
  C:0F39H         LINE#         298
  C:0F54H         LINE#         299
  C:0F58H         LINE#         300
  C:0F5FH         LINE#         301
  -------         ENDPROC       TOUCHKEYCFGINIT
  -------         PROC          TOUCHKEYSCAN
  -------         DO            
  D:0035H         SYMBOL        t
  D:0036H         SYMBOL        MultipleCnt
  D:0037H         SYMBOL        Keyvalue
  D:0039H         SYMBOL        KeyData
  -------         ENDDO         
  C:09D6H         LINE#         313
  C:09D6H         LINE#         314
  C:09D6H         LINE#         316
  C:09D9H         LINE#         318
  C:09DFH         LINE#         320
  C:09E7H         LINE#         321
  C:09E7H         LINE#         322
BL51 BANKED LINKER/LOCATER V6.22.4.0                                                  03/25/2024  15:08:21  PAGE 25


  C:09EEH         LINE#         323
  C:09F8H         LINE#         324
  C:09F8H         LINE#         325
  C:0A03H         LINE#         326
  C:0A06H         LINE#         327
  C:0A06H         LINE#         328
  C:0A2AH         LINE#         329
  C:0A2CH         LINE#         330
  C:0A2CH         LINE#         331
  C:0A30H         LINE#         332
  C:0A37H         LINE#         333
  C:0A37H         LINE#         334
  C:0A39H         LINE#         335
  C:0A3FH         LINE#         336
  C:0A3FH         LINE#         337
  C:0A42H         LINE#         338
  C:0A44H         LINE#         340
  C:0A44H         LINE#         341
  C:0A4AH         LINE#         342
  C:0A4AH         LINE#         343
  C:0A4CH         LINE#         344
  C:0A4CH         LINE#         345
  C:0A4CH         LINE#         346
  C:0A4CH         LINE#         348
  C:0A4FH         LINE#         349
  C:0A4FH         LINE#         350
  C:0A55H         LINE#         351
  C:0A55H         LINE#         352
  C:0A5DH         LINE#         353
  C:0A5FH         LINE#         355
  C:0A5FH         LINE#         356
  C:0A66H         LINE#         357
  C:0A66H         LINE#         358
  C:0A68H         LINE#         360
  C:0A68H         LINE#         362
  C:0A70H         LINE#         363
  C:0A76H         LINE#         364
  C:0A76H         LINE#         366
  C:0A86H         LINE#         367
  C:0A86H         LINE#         368
  C:0A89H         LINE#         369
  C:0A90H         LINE#         370
  C:0A90H         LINE#         372
  C:0A9FH         LINE#         373
  C:0A9FH         LINE#         374
  C:0AA2H         LINE#         375
  C:0AA6H         LINE#         376
  C:0AADH         LINE#         377
  C:0AADH         LINE#         378
  C:0AAFH         LINE#         380
  C:0AAFH         LINE#         381
  C:0ABCH         LINE#         382
  C:0ABCH         LINE#         384
  C:0AC0H         LINE#         385
  -------         ENDPROC       TOUCHKEYSCAN
  -------         PROC          CTK_ISR
  C:10B5H         LINE#         394
BL51 BANKED LINKER/LOCATER V6.22.4.0                                                  03/25/2024  15:08:21  PAGE 26


  C:10D2H         LINE#         396
  C:10D5H         LINE#         397
  -------         ENDPROC       CTK_ISR
  -------         ENDMOD        S_TOUCHKEYCFG

  -------         MODULE        SENSORMETHOD
  C:0000H         SYMBOL        _ICE_DUMMY_
  D:00FFH         PUBLIC        OPREG
  X:0049H         PUBLIC        FlowFingerRoundIndex
  C:0BEEH         PUBLIC        _ICHAAdjust
  D:00CFH         PUBLIC        TK_WDTCR
  B:00A8H.7       PUBLIC        TK_EA
  D:00E4H         PUBLIC        TKCNT
  D:00A8H         PUBLIC        TK_IE
  D:00FEH         PUBLIC        OPINX
  C:0FA8H         PUBLIC        InitializeSensorFlag
  X:004AH         PUBLIC        ScanTime
  C:14C0H         PUBLIC        TouchKeyRestart
  D:00E1H         PUBLIC        TKCFG0
  D:00E2H         PUBLIC        TKCFG1
  D:00E3H         PUBLIC        TKCFG2
  C:1259H         PUBLIC        SensorKeyFlag
  D:003BH         PUBLIC        KeyFlag
  I:007FH         PUBLIC        FlowFingerRoundCnt
  B:0020H.0       PUBLIC        bMultiple
  D:00E8H         PUBLIC        TKCR
  C:117BH         PUBLIC        InitializeBaselines
  B:00E8H.6       PUBLIC        TRIG
  D:003DH         PUBLIC        KeyMark
  C:14C6H         PUBLIC        SetNeedUpdateBaseline
  D:00A9H         PUBLIC        TK_IE1
  C:0DEAH         PUBLIC        FilterAvergeDeal
  D:00E6H         PUBLIC        TKTM
  X:004CH         PUBLIC        MultipleDealIndex
  C:0100H         PUBLIC        _SensorRenovate
  B:0020H.1       PUBLIC        bNeedUpdate
  C:0B5BH         PUBLIC        TouchKeyInit
  C:05A3H         PUBLIC        _MultipleDeal
  D:003FH         PUBLIC        CurrentChannelMax
  C:13DEH         PUBLIC        _Usdelay
  C:0898H         PUBLIC        _FilterDataDeal
  I:0081H         PUBLIC        CurrentIndex
  C:11A5H         PUBLIC        FilterIIRInit
  C:0C7EH         PUBLIC        TouchKey_Service
  C:14C3H         PUBLIC        GetIsNeedUpdateBaseline
  I:0082H         PUBLIC        IsInNosicValue
  C:11CFH         PUBLIC        FilterCommCode
  -------         PROC          _USDELAY
  D:0006H         SYMBOL        delay
  C:13DEH         LINE#         125
  C:13DEH         LINE#         126
  C:13DEH         LINE#         127
  C:13E2H         LINE#         128
  C:13E2H         LINE#         129
  C:13E7H         LINE#         130
  C:13E9H         LINE#         131
  -------         ENDPROC       _USDELAY
BL51 BANKED LINKER/LOCATER V6.22.4.0                                                  03/25/2024  15:08:21  PAGE 27


  -------         PROC          _ICHAADJUST
  D:002BH         SYMBOL        Channel
  -------         DO            
  D:002CH         SYMBOL        icha_set
  -------         ENDDO         
  C:0BEEH         LINE#         139
  C:0BF0H         LINE#         140
  C:0BF0H         LINE#         142
  C:0BF5H         LINE#         143
  C:0C2CH         LINE#         144
  C:0C2CH         LINE#         145
  C:0C30H         LINE#         146
  C:0C30H         LINE#         147
  C:0C31H         LINE#         148
  C:0C31H         LINE#         149
  C:0C31H         LINE#         150
  C:0C33H         LINE#         151
  C:0C6AH         LINE#         152
  C:0C6AH         LINE#         153
  C:0C70H         LINE#         154
  C:0C70H         LINE#         155
  C:0C7BH         LINE#         156
  C:0C7DH         LINE#         157
  C:0C7DH         LINE#         158
  C:0C7DH         LINE#         159
  -------         ENDPROC       _ICHAADJUST
  -------         PROC          TOUCHKEY_SERVICE
  -------         DO            
  B:0020H.3       SYMBOL        Scanflag
  -------         ENDDO         
  C:0C7EH         LINE#         167
  C:0C7EH         LINE#         168
  C:0C7EH         LINE#         169
  C:0C80H         LINE#         171
  C:0C93H         LINE#         172
  C:0C94H         LINE#         174
  C:0C9AH         LINE#         175
  C:0C9AH         LINE#         176
  C:0C9CH         LINE#         177
  C:0CA3H         LINE#         178
  C:0CA5H         LINE#         180
  C:0CA5H         LINE#         181
  C:0CA7H         LINE#         182
  C:0CA7H         LINE#         183
  C:0CB2H         LINE#         184
  C:0CCAH         LINE#         185
  C:0CE0H         LINE#         186
  C:0CEEH         LINE#         187
  C:0CFFH         LINE#         189
  C:0D04H         LINE#         191
  -------         ENDPROC       TOUCHKEY_SERVICE
  -------         PROC          TOUCHKEYINIT
  C:0B5BH         LINE#         200
  C:0B5BH         LINE#         201
  C:0B5BH         LINE#         202
  C:0B5EH         LINE#         203
  C:0B61H         LINE#         206
BL51 BANKED LINKER/LOCATER V6.22.4.0                                                  03/25/2024  15:08:21  PAGE 28


  C:0B63H         LINE#         208
  C:0B65H         LINE#         209
  C:0B69H         LINE#         210
  C:0B6DH         LINE#         212
  C:0B70H         LINE#         213
  C:0B8BH         LINE#         214
  C:0BA1H         LINE#         216
  C:0BB7H         LINE#         217
  C:0BBFH         LINE#         218
  C:0BBFH         LINE#         219
  C:0BC7H         LINE#         221
  C:0BC7H         LINE#         222
  C:0BD3H         LINE#         223
  C:0BDAH         LINE#         225
  C:0BDDH         LINE#         226
  C:0BE0H         LINE#         228
  C:0BE8H         LINE#         229
  C:0BEBH         LINE#         230
  -------         ENDPROC       TOUCHKEYINIT
  -------         PROC          TOUCHKEYRESTART
  C:14C0H         LINE#         240
  C:14C0H         LINE#         241
  C:14C0H         LINE#         242
  C:14C2H         LINE#         243
  -------         ENDPROC       TOUCHKEYRESTART
  -------         PROC          FILTERCOMMCODE
  -------         DO            
  D:0005H         SYMBOL        times
  -------         ENDDO         
  C:11CFH         LINE#         252
  C:11CFH         LINE#         253
  C:11CFH         LINE#         254
  C:11D1H         LINE#         256
  C:11D8H         LINE#         257
  C:11DAH         LINE#         259
  C:11E2H         LINE#         260
  C:11E2H         LINE#         261
  C:11E9H         LINE#         262
  C:11ECH         LINE#         263
  C:11EDH         LINE#         264
  C:11F7H         LINE#         265
  C:11F7H         LINE#         266
  C:11F7H         LINE#         267
  -------         ENDPROC       FILTERCOMMCODE
  -------         PROC          FILTERAVERGEDEAL
  -------         DO            
  D:0021H         SYMBOL        t
  D:0022H         SYMBOL        i
  -------         ENDDO         
  C:0DEAH         LINE#         276
  C:0DEAH         LINE#         277
  C:0DEAH         LINE#         280
  C:0DF1H         LINE#         282
  C:0DF1H         LINE#         283
  C:0DF4H         LINE#         284
  C:0DFEH         LINE#         285
  C:0DFEH         LINE#         286
BL51 BANKED LINKER/LOCATER V6.22.4.0                                                  03/25/2024  15:08:21  PAGE 29


  C:0E1EH         LINE#         287
  C:0E23H         LINE#         288
  C:0E27H         LINE#         289
  C:0E2EH         LINE#         290
  C:0E31H         LINE#         292
  C:0E36H         LINE#         294
  C:0E36H         LINE#         295
  C:0E39H         LINE#         296
  C:0E43H         LINE#         297
  C:0E43H         LINE#         298
  C:0E48H         LINE#         299
  C:0E4CH         LINE#         300
  C:0E53H         LINE#         301
  -------         ENDPROC       FILTERAVERGEDEAL
  -------         PROC          INITIALIZEBASELINES
  -------         DO            
  D:0007H         SYMBOL        i
  -------         ENDDO         
  C:117BH         LINE#         310
  C:117BH         LINE#         311
  C:117BH         LINE#         313
  C:1183H         LINE#         314
  C:1183H         LINE#         315
  C:11A1H         LINE#         316
  C:11A4H         LINE#         317
  -------         ENDPROC       INITIALIZEBASELINES
  -------         PROC          SENSORKEYFLAG
  -------         DO            
  D:0021H         SYMBOL        i
  -------         ENDDO         
  C:1259H         LINE#         326
  C:1259H         LINE#         327
  C:1259H         LINE#         330
  C:125DH         LINE#         331
  C:1266H         LINE#         332
  C:1266H         LINE#         333
  C:126BH         LINE#         334
  C:1270H         LINE#         335
  C:1274H         LINE#         336
  C:1278H         LINE#         337
  -------         ENDPROC       SENSORKEYFLAG
  -------         PROC          _SENSORRENOVATE
  D:0022H         SYMBOL        i
  -------         DO            
  D:0023H         SYMBOL        differData
  D:0025H         SYMBOL        result
  D:0026H         SYMBOL        j
  D:0027H         SYMBOL        RealConfirmTouchCnt
  D:0028H         SYMBOL        SetFingerThresholdtmp
  D:002AH         SYMBOL        testcount
  -------         ENDDO         
  C:0100H         LINE#         346
  C:0102H         LINE#         347
  C:0102H         LINE#         353
  C:0105H         LINE#         355
  C:012BH         LINE#         358
  C:013FH         LINE#         360
BL51 BANKED LINKER/LOCATER V6.22.4.0                                                  03/25/2024  15:08:21  PAGE 30


  C:0148H         LINE#         362
  C:0159H         LINE#         363
  C:0159H         LINE#         364
  C:015CH         LINE#         365
  C:015EH         LINE#         367
  C:015EH         LINE#         368
  C:0161H         LINE#         369
  C:0161H         LINE#         372
  C:016AH         LINE#         373
  C:016AH         LINE#         374
  C:0179H         LINE#         375
  C:0179H         LINE#         376
  C:017FH         LINE#         377
  C:017FH         LINE#         379
  C:018EH         LINE#         380
  C:018EH         LINE#         381
  C:0193H         LINE#         382
  C:0199H         LINE#         383
  C:0199H         LINE#         384
  C:019CH         LINE#         385
  C:01A5H         LINE#         386
  C:01A5H         LINE#         387
  C:01B4H         LINE#         388
  C:01B6H         LINE#         389
  C:01BAH         LINE#         390
  C:01C5H         LINE#         391
  C:01C5H         LINE#         392
  C:01CBH         LINE#         393
  C:01CBH         LINE#         394
  C:01CBH         LINE#         395
  C:01D9H         LINE#         396
  C:01D9H         LINE#         397
  C:01DCH         LINE#         399
  C:01E2H         LINE#         400
  C:01E2H         LINE#         401
  C:01EBH         LINE#         402
  C:01EBH         LINE#         403
  C:01F1H         LINE#         404
  C:01F1H         LINE#         405
  C:01FEH         LINE#         406
  C:01FEH         LINE#         407
  C:0201H         LINE#         408
  C:0203H         LINE#         409
  C:0203H         LINE#         410
  C:0203H         LINE#         411
  C:0207H         LINE#         412
  C:0211H         LINE#         413
  C:0211H         LINE#         414
  C:0215H         LINE#         415
  C:0215H         LINE#         416
  C:021EH         LINE#         417
  C:021EH         LINE#         418
  C:0224H         LINE#         419
  C:0224H         LINE#         420
  C:0231H         LINE#         421
  C:0231H         LINE#         422
  C:0231H         LINE#         423
BL51 BANKED LINKER/LOCATER V6.22.4.0                                                  03/25/2024  15:08:21  PAGE 31


  C:0233H         LINE#         424
  C:0233H         LINE#         425
  C:0233H         LINE#         426
  C:0237H         LINE#         427
  C:0237H         LINE#         428
  C:0237H         LINE#         429
  C:0237H         LINE#         431
  C:0237H         LINE#         432
  C:0241H         LINE#         433
  C:0241H         LINE#         434
  C:0243H         LINE#         435
  C:024CH         LINE#         436
  C:024CH         LINE#         437
  C:025BH         LINE#         438
  C:025BH         LINE#         439
  C:025DH         LINE#         440
  C:025DH         LINE#         441
  C:0261H         LINE#         442
  C:026CH         LINE#         443
  C:026CH         LINE#         444
  C:026FH         LINE#         445
  C:026FH         LINE#         446
  C:026FH         LINE#         447
  C:026FH         LINE#         449
  C:0275H         LINE#         450
  C:0275H         LINE#         451
  C:0277H         LINE#         452
  C:0277H         LINE#         453
  C:027FH         LINE#         454
  C:027FH         LINE#         455
  C:027FH         LINE#         458
  C:0286H         LINE#         459
  C:028DH         LINE#         460
  C:029CH         LINE#         461
  C:02A9H         LINE#         462
  C:02AAH         LINE#         465
  C:02AAH         LINE#         466
  C:02BEH         LINE#         467
  C:02BEH         LINE#         468
  C:02BEH         LINE#         469
  C:02BEH         LINE#         470
  C:02C4H         LINE#         471
  C:02C4H         LINE#         472
  C:02C6H         LINE#         474
  C:02C6H         LINE#         475
  C:02C9H         LINE#         476
  C:02D0H         LINE#         477
  C:02D0H         LINE#         479
  C:0304H         LINE#         480
  C:0304H         LINE#         481
  C:030BH         LINE#         482
  C:0318H         LINE#         483
  C:0321H         LINE#         484
  C:0321H         LINE#         485
  C:0334H         LINE#         486
  C:0352H         LINE#         487
  C:0352H         LINE#         488
BL51 BANKED LINKER/LOCATER V6.22.4.0                                                  03/25/2024  15:08:21  PAGE 32


  C:0361H         LINE#         489
  C:0361H         LINE#         490
  C:0363H         LINE#         491
  C:038BH         LINE#         492
  C:038BH         LINE#         493
  C:039DH         LINE#         494
  C:03ACH         LINE#         495
  C:03ACH         LINE#         496
  C:03ACH         LINE#         497
  C:03AFH         LINE#         498
  C:03D1H         LINE#         499
  C:03D1H         LINE#         500
  C:03D7H         LINE#         501
  C:03E4H         LINE#         502
  C:03F9H         LINE#         503
  C:03F9H         LINE#         505
  C:0410H         LINE#         506
  C:0410H         LINE#         507
  C:0417H         LINE#         508
  C:0419H         LINE#         509
  C:041DH         LINE#         510
  C:041FH         LINE#         512
  C:041FH         LINE#         513
  C:044DH         LINE#         514
  C:044DH         LINE#         515
  C:044DH         LINE#         516
  C:0455H         LINE#         517
  C:0455H         LINE#         518
  C:0458H         LINE#         519
  C:0458H         LINE#         520
  C:045AH         LINE#         521
  C:0473H         LINE#         522
  C:0473H         LINE#         523
  C:047AH         LINE#         524
  C:0480H         LINE#         525
  C:0480H         LINE#         526
  C:048EH         LINE#         527
  C:049EH         LINE#         528
  C:049EH         LINE#         529
  C:04ABH         LINE#         530
  C:04C8H         LINE#         531
  C:04C8H         LINE#         532
  C:04C8H         LINE#         533
  C:04C8H         LINE#         536
  C:04D7H         LINE#         537
  C:04D7H         LINE#         538
  C:04FEH         LINE#         539
  C:04FEH         LINE#         540
  C:0504H         LINE#         541
  C:0509H         LINE#         542
  C:0513H         LINE#         543
  C:0513H         LINE#         544
  C:0522H         LINE#         545
  C:0524H         LINE#         546
  C:0528H         LINE#         547
  C:0533H         LINE#         548
  C:0533H         LINE#         549
BL51 BANKED LINKER/LOCATER V6.22.4.0                                                  03/25/2024  15:08:21  PAGE 33


  C:0538H         LINE#         550
  C:0538H         LINE#         551
  C:0543H         LINE#         552
  C:0543H         LINE#         553
  C:0545H         LINE#         554
  C:0553H         LINE#         555
  C:055AH         LINE#         556
  C:055AH         LINE#         557
  C:055BH         LINE#         559
  C:055BH         LINE#         560
  C:0561H         LINE#         561
  C:0561H         LINE#         562
  C:0562H         LINE#         564
  C:0562H         LINE#         565
  C:0569H         LINE#         567
  C:056FH         LINE#         568
  C:056FH         LINE#         569
  C:0574H         LINE#         570
  C:0574H         LINE#         572
  C:057BH         LINE#         573
  C:057BH         LINE#         575
  C:057BH         LINE#         577
  C:0583H         LINE#         578
  C:0583H         LINE#         580
  C:0583H         LINE#         582
  C:058DH         LINE#         583
  C:058DH         LINE#         584
  C:0595H         LINE#         585
  C:0595H         LINE#         586
  C:0598H         LINE#         587
  C:0598H         LINE#         588
  C:059CH         LINE#         589
  C:05A0H         LINE#         590
  C:05A0H         LINE#         591
  C:05A2H         LINE#         592
  C:05A2H         LINE#         593
  C:05A2H         LINE#         595
  C:05A2H         LINE#         596
  -------         ENDPROC       _SENSORRENOVATE
  -------         PROC          FILTERIIRINIT
  -------         DO            
  D:0007H         SYMBOL        i
  -------         ENDDO         
  C:11A5H         LINE#         604
  C:11A5H         LINE#         605
  C:11A5H         LINE#         607
  C:11ADH         LINE#         608
  C:11ADH         LINE#         609
  C:11CBH         LINE#         610
  C:11CEH         LINE#         611
  -------         ENDPROC       FILTERIIRINIT
  -------         PROC          _FILTERDATADEAL
  D:0023H         SYMBOL        i
  -------         DO            
  D:0024H         SYMBOL        FilterTemp
  D:0004H         SYMBOL        SetFingerThresholdtmp
  -------         ENDDO         
BL51 BANKED LINKER/LOCATER V6.22.4.0                                                  03/25/2024  15:08:21  PAGE 34


  C:0898H         LINE#         620
  C:089AH         LINE#         621
  C:089AH         LINE#         625
  C:08C0H         LINE#         627
  C:08C9H         LINE#         629
  C:08EEH         LINE#         630
  C:08EEH         LINE#         631
  C:08FEH         LINE#         632
  C:0901H         LINE#         633
  C:092EH         LINE#         634
  C:092EH         LINE#         635
  C:0963H         LINE#         636
  C:0965H         LINE#         638
  C:0965H         LINE#         639
  C:09B5H         LINE#         640
  C:09B5H         LINE#         642
  C:09D5H         LINE#         643
  -------         ENDPROC       _FILTERDATADEAL
  -------         PROC          GETISNEEDUPDATEBASELINE
  C:14C3H         LINE#         652
  C:14C3H         LINE#         653
  C:14C3H         LINE#         654
  C:14C5H         LINE#         655
  -------         ENDPROC       GETISNEEDUPDATEBASELINE
  -------         PROC          SETNEEDUPDATEBASELINE
  C:14C6H         LINE#         664
  C:14C6H         LINE#         665
  C:14C6H         LINE#         666
  C:14C8H         LINE#         667
  -------         ENDPROC       SETNEEDUPDATEBASELINE
  -------         PROC          INITIALIZESENSORFLAG
  -------         DO            
  D:0007H         SYMBOL        i
  -------         ENDDO         
  C:0FA8H         LINE#         676
  C:0FA8H         LINE#         677
  C:0FA8H         LINE#         679
  C:0FB0H         LINE#         680
  C:0FB0H         LINE#         681
  C:0FB6H         LINE#         682
  C:0FBCH         LINE#         683
  C:0FC2H         LINE#         684
  C:0FD0H         LINE#         685
  C:0FD6H         LINE#         686
  C:0FD9H         LINE#         688
  C:0FDEH         LINE#         689
  C:0FE4H         LINE#         690
  C:0FEAH         LINE#         691
  C:0FECH         LINE#         692
  -------         ENDPROC       INITIALIZESENSORFLAG
  -------         PROC          _MULTIPLEDEAL
  D:0021H         SYMBOL        CycleCnt
  -------         DO            
  X:0048H         SYMBOL        InitSensorCnt
  D:0004H         SYMBOL        FilterTemp
  D:0022H         SYMBOL        t
  -------         ENDDO         
BL51 BANKED LINKER/LOCATER V6.22.4.0                                                  03/25/2024  15:08:21  PAGE 35


  C:05A3H         LINE#         701
  C:05A5H         LINE#         702
  C:05A5H         LINE#         708
  C:05B2H         LINE#         709
  C:05B2H         LINE#         710
  C:05B4H         LINE#         711
  C:05B9H         LINE#         712
  C:05B9H         LINE#         713
  C:05C2H         LINE#         714
  C:05C2H         LINE#         715
  C:05E2H         LINE#         716
  C:05E6H         LINE#         717
  C:05E6H         LINE#         718
  C:05E9H         LINE#         719
  C:05EBH         LINE#         720
  C:05F0H         LINE#         722
  C:05F0H         LINE#         724
  C:05F6H         LINE#         725
  C:05FAH         LINE#         726
  C:05FAH         LINE#         727
  C:05FDH         LINE#         728
  C:0602H         LINE#         729
  C:0602H         LINE#         731
  C:060EH         LINE#         732
  C:060EH         LINE#         733
  C:061BH         LINE#         734
  C:061BH         LINE#         735
  C:0642H         LINE#         736
  C:0647H         LINE#         737
  C:0647H         LINE#         738
  C:0687H         LINE#         739
  C:0689H         LINE#         740
  C:0689H         LINE#         742
  C:0689H         LINE#         743
  C:06C9H         LINE#         744
  C:06C9H         LINE#         745
  C:06C9H         LINE#         746
  C:06CEH         LINE#         747
  C:06D3H         LINE#         749
  C:06D8H         LINE#         750
  C:06D8H         LINE#         751
  C:06DEH         LINE#         752
  C:06DEH         LINE#         754
  C:06F5H         LINE#         755
  C:06F5H         LINE#         756
  C:06F7H         LINE#         757
  C:06F9H         LINE#         758
  C:06FFH         LINE#         759
  C:0716H         LINE#         760
  C:0716H         LINE#         761
  C:071BH         LINE#         762
  C:071EH         LINE#         763
  C:0721H         LINE#         764
  C:0723H         LINE#         765
  C:0723H         LINE#         766
  C:0723H         LINE#         767
  C:0723H         LINE#         768
BL51 BANKED LINKER/LOCATER V6.22.4.0                                                  03/25/2024  15:08:21  PAGE 36


  -------         ENDPROC       _MULTIPLEDEAL
  -------         ENDMOD        SENSORMETHOD

  -------         MODULE        ?C_STARTUP
  C:0AC1H         SEGMENT       ?C_C51STARTUP
  I:0083H         SEGMENT       ?STACK
  C:0000H         PUBLIC        ?C_STARTUP
  D:00E0H         SYMBOL        ACC
  D:00F0H         SYMBOL        B
  D:0083H         SYMBOL        DPH
  D:0082H         SYMBOL        DPL
  N:0000H         SYMBOL        IBPSTACK
  N:0100H         SYMBOL        IBPSTACKTOP
  N:0100H         SYMBOL        IDATALEN
  C:0AC4H         SYMBOL        IDATALOOP
  N:0000H         SYMBOL        PBPSTACK
  N:0100H         SYMBOL        PBPSTACKTOP
  N:0000H         SYMBOL        PDATALEN
  N:0000H         SYMBOL        PDATASTART
  N:0000H         SYMBOL        PPAGE
  N:0000H         SYMBOL        PPAGEENABLE
  D:00A0H         SYMBOL        PPAGE_SFR
  D:0081H         SYMBOL        SP
  C:0AC1H         SYMBOL        STARTUP1
  N:0000H         SYMBOL        XBPSTACK
  N:0000H         SYMBOL        XBPSTACKTOP
  N:0300H         SYMBOL        XDATALEN
  C:0ACFH         SYMBOL        XDATALOOP
  N:0000H         SYMBOL        XDATASTART
  C:0000H         LINE#         126
  C:0AC1H         LINE#         133
  C:0AC3H         LINE#         134
  C:0AC4H         LINE#         135
  C:0AC5H         LINE#         136
  C:0AC7H         LINE#         140
  C:0ACAH         LINE#         141
  C:0ACCH         LINE#         145
  C:0ACEH         LINE#         147
  C:0ACFH         LINE#         148
  C:0AD0H         LINE#         149
  C:0AD1H         LINE#         150
  C:0AD3H         LINE#         151
  C:0AD5H         LINE#         185
  C:0AD8H         LINE#         196
  -------         ENDMOD        ?C_STARTUP

  -------         MODULE        ?C?FPCMP
  C:0726H         PUBLIC        ?C?FPCMP
  C:0724H         PUBLIC        ?C?FPCMP3
  -------         ENDMOD        ?C?FPCMP

  -------         MODULE        ?C?FCAST
  C:07A7H         PUBLIC        ?C?FCASTC
  C:07A2H         PUBLIC        ?C?FCASTI
  C:079DH         PUBLIC        ?C?FCASTL
  -------         ENDMOD        ?C?FCAST

BL51 BANKED LINKER/LOCATER V6.22.4.0                                                  03/25/2024  15:08:21  PAGE 37


  -------         MODULE        ?C?IMUL
  C:07DBH         PUBLIC        ?C?IMUL
  -------         ENDMOD        ?C?IMUL

  -------         MODULE        ?C?UIDIV
  C:07EDH         PUBLIC        ?C?UIDIV
  -------         ENDMOD        ?C?UIDIV

  -------         MODULE        ?C?IILDX
  C:0842H         PUBLIC        ?C?IILDX
  -------         ENDMOD        ?C?IILDX

  -------         MODULE        ?C?LNEG
  C:0858H         PUBLIC        ?C?LNEG
  -------         ENDMOD        ?C?LNEG

  -------         MODULE        ?C?OFFXADD
  C:0866H         PUBLIC        ?C?OFFXADD
  -------         ENDMOD        ?C?OFFXADD

  -------         MODULE        ?C?CCASE
  C:0872H         PUBLIC        ?C?CCASE
  -------         ENDMOD        ?C?CCASE

Program Size: data=131.4 xdata=77 code=5089
LINK/LOCATE RUN COMPLETE.  0 WARNING(S),  0 ERROR(S)
