BL51 BANKED LINKER/LOCATER V6.22.4.0                                                    07/30/2024  15:47:41  PAGE 1


BL51 BANKED LINKER/LOCATER V6.22.4.0, INVOKED BY:
D:\PROGRAM FILES\KEIL_V5\C51\BIN\BL51.EXE STARTUP.obj, mian.obj, S_TouchKeyCFG.obj, .\lib\SC92F8X7X_HighSensitive_Lib_T1
>> _S_V1.3.0.LIB, SSI_TWI.obj TO SC92F8X7X_T1_Demo_Code RAMSIZE (256) CODE (0X100)


MEMORY MODEL: SMALL


INPUT MODULES INCLUDED:
  STARTUP.obj (?C_STARTUP)
  mian.obj (MIAN)
  S_TouchKeyCFG.obj (S_TOUCHKEYCFG)
  .\lib\SC92F8X7X_HighSensitive_Lib_T1_S_V1.3.0.LIB (SENSORMETHOD)
  SSI_TWI.obj (SSI_TWI)
  D:\PROGRAM FILES\KEIL_V5\C51\LIB\C51S.LIB (?C_INIT)
  D:\PROGRAM FILES\KEIL_V5\C51\LIB\C51S.LIB (?C?IMUL)
  D:\PROGRAM FILES\KEIL_V5\C51\LIB\C51S.LIB (?C?UIDIV)
  D:\PROGRAM FILES\KEIL_V5\C51\LIB\C51S.LIB (?C?IILDX)
  D:\PROGRAM FILES\KEIL_V5\C51\LIB\C51S.LIB (?C?ULSHR)
  D:\PROGRAM FILES\KEIL_V5\C51\LIB\C51S.LIB (?C?OFFXADD)
  D:\PROGRAM FILES\KEIL_V5\C51\LIB\C51S.LIB (?C?LCASE)


LINK MAP OF MODULE:  SC92F8X7X_T1_Demo_Code (?C_STARTUP)


            TYPE    BASE      LENGTH    RELOCATION   SEGMENT NAME
            -----------------------------------------------------

            * * * * * * *   D A T A   M E M O R Y   * * * * * * *
            REG     0000H     0008H     ABSOLUTE     "REG BANK 0"
            DATA    0008H     0015H     UNIT         ?DT?MIAN
            DATA    001DH     0002H     UNIT         ?DT?SSI_TWI
                    001FH     0001H                  *** GAP ***
            BIT     0020H.0   0000H.2   UNIT         ?BI?SENSORMETHOD
            BIT     0020H.2   0000H.2   UNIT         ?BI?SSI_TWI
            BIT     0020H.4   0000H.1   UNIT         ?BI?MIAN
            BIT     0020H.5   0000H.1   UNIT         _BIT_GROUP_
                    0020H.6   0000H.2                *** GAP ***
            DATA    0021H     000FH     UNIT         _DATA_GROUP_
            DATA    0030H     0005H     UNIT         ?DT?SENSORMETHOD
            IDATA   0035H     0029H     UNIT         ?ID?S_TOUCHKEYCFG
            IDATA   005EH     0004H     UNIT         ?ID?SENSORMETHOD
            IDATA   0062H     0001H     UNIT         ?STACK

            * * * * * * *  X D A T A   M E M O R Y  * * * * * * *
            XDATA   0000H     0048H     UNIT         ?XD?S_TOUCHKEYCFG
            XDATA   0048H     0005H     UNIT         ?XD?SENSORMETHOD

            * * * * * * *   C O D E   M E M O R Y   * * * * * * *
            CODE    0000H     0003H     ABSOLUTE     
                    0003H     0008H                  *** GAP ***
            CODE    000BH     0003H     ABSOLUTE     
                    000EH     002DH                  *** GAP ***
            CODE    003BH     0003H     ABSOLUTE     
                    003EH     001DH                  *** GAP ***
            CODE    005BH     0003H     ABSOLUTE     
                    005EH     00A2H                  *** GAP ***
BL51 BANKED LINKER/LOCATER V6.22.4.0                                                  07/30/2024  15:47:41  PAGE 2


            CODE    0100H     04A3H     UNIT         ?PR?_SENSORRENOVATE?SENSORMETHOD
            CODE    05A3H     0181H     UNIT         ?PR?_MULTIPLEDEAL?SENSORMETHOD
            CODE    0724H     013EH     UNIT         ?PR?_FILTERDATADEAL?SENSORMETHOD
            CODE    0862H     00D6H     UNIT         ?C?LIB_CODE
            CODE    0938H     00D3H     UNIT         ?PR?TOUCHKEYSCAN?S_TOUCHKEYCFG
            CODE    0A0BH     009AH     UNIT         ?C_C51STARTUP
            CODE    0AA5H     0093H     UNIT         ?PR?TOUCHKEYINIT?SENSORMETHOD
            CODE    0B38H     0090H     UNIT         ?PR?_ICHAADJUST?SENSORMETHOD
            CODE    0BC8H     0087H     UNIT         ?PR?TOUCHKEY_SERVICE?SENSORMETHOD
            CODE    0C4FH     0070H     UNIT         ?PR?CHANGETOUCHKEYVALUE?MIAN
            CODE    0CBFH     006AH     UNIT         ?PR?FILTERAVERGEDEAL?SENSORMETHOD
            CODE    0D29H     005DH     UNIT         ?CO?S_TOUCHKEYCFG
            CODE    0D86H     0049H     UNIT         ?PR?TWI_INT?SSI_TWI
            CODE    0DCFH     0045H     UNIT         ?PR?INITIALIZESENSORFLAG?SENSORMETHOD
            CODE    0E14H     003FH     UNIT         ?PR?TOUCHKEYCFGINIT?S_TOUCHKEYCFG
            CODE    0E53H     003BH     UNIT         ?PR?CTK_ISR?S_TOUCHKEYCFG
            CODE    0E8EH     0031H     UNIT         ?PR?UPDATELCDBUFFUNC?MIAN
            CODE    0EBFH     002DH     UNIT         ?PR?_GETCFGMSG?S_TOUCHKEYCFG
            CODE    0EECH     002CH     UNIT         ?PR?_GETCURRFINGERVALUE?S_TOUCHKEYCFG
            CODE    0F18H     002BH     UNIT         ?PR?CURRENTSENSORCHOOSE?S_TOUCHKEYCFG
            CODE    0F43H     002AH     UNIT         ?PR?INITIALIZEBASELINES?SENSORMETHOD
            CODE    0F6DH     002AH     UNIT         ?PR?FILTERIIRINIT?SENSORMETHOD
            CODE    0F97H     0029H     UNIT         ?PR?FILTERCOMMCODE?SENSORMETHOD
            CODE    0FC0H     0023H     UNIT         ?PR?SYS_INIT?MIAN
            CODE    0FE3H     0022H     UNIT         ?PR?MAIN?MIAN
            CODE    1005H     0022H     UNIT         ?C_INITSEG
            CODE    1027H     0020H     UNIT         ?PR?SENSORKEYFLAG?SENSORMETHOD
            CODE    1047H     001EH     UNIT         ?PR?SYS_SCAN?MIAN
            CODE    1065H     0018H     UNIT         ?PR?TIMERINIT?MIAN
            CODE    107DH     0015H     UNIT         ?PR?_GETTKYZTHRESHOLD?S_TOUCHKEYCFG
            CODE    1092H     0012H     UNIT         ?PR?_GETSCANTIMEVALUE?S_TOUCHKEYCFG
            CODE    10A4H     000FH     UNIT         ?PR?TWI_INIT?SSI_TWI
            CODE    10B3H     000CH     UNIT         ?PR?_USDELAY?SENSORMETHOD
            CODE    10BFH     000BH     UNIT         ?PR?SETONEKEYPUSHRESETTIME?S_TOUCHKEYCFG
            CODE    10CAH     000BH     UNIT         ?PR?GETBASELINEUPDATETHRESHOLD?S_TOUCHKEYCFG
            CODE    10D5H     0009H     UNIT         ?PR?TIMER0?MIAN
            CODE    10DEH     0009H     UNIT         ?PR?GETTKYZCNT?S_TOUCHKEYCFG
            CODE    10E7H     0008H     UNIT         ?PR?GETINITAUTOUPDATETIME?S_TOUCHKEYCFG
            CODE    10EFH     0008H     UNIT         ?PR?ISDOUBLEKEYORSLIDEKEY?S_TOUCHKEYCFG
            CODE    10F7H     0007H     UNIT         ?PR?_GETBASELINEADJUSTVALUE?S_TOUCHKEYCFG
            CODE    10FEH     0007H     UNIT         ?PR?GETUPCONFIRMCNT?S_TOUCHKEYCFG
            CODE    1105H     0003H     UNIT         ?PR?GETCSFUNCTION?S_TOUCHKEYCFG
            CODE    1108H     0003H     UNIT         ?PR?TOUCHKEYRESTART?SENSORMETHOD
            CODE    110BH     0003H     UNIT         ?PR?GETISNEEDUPDATEBASELINE?SENSORMETHOD
            CODE    110EH     0003H     UNIT         ?PR?SETNEEDUPDATEBASELINE?SENSORMETHOD



OVERLAY MAP OF MODULE:   SC92F8X7X_T1_Demo_Code (?C_STARTUP)


SEGMENT                                             BIT_GROUP          DATA_GROUP 
  +--> CALLED SEGMENT                            START    LENGTH     START    LENGTH
------------------------------------------------------------------------------------
?C_C51STARTUP                                    -----    -----      -----    -----
  +--> ?PR?MAIN?MIAN
  +--> ?C_INITSEG
BL51 BANKED LINKER/LOCATER V6.22.4.0                                                  07/30/2024  15:47:41  PAGE 3



?PR?MAIN?MIAN                                    -----    -----      -----    -----
  +--> ?PR?SYS_INIT?MIAN
  +--> ?PR?TWI_INIT?SSI_TWI
  +--> ?PR?TOUCHKEYINIT?SENSORMETHOD
  +--> ?PR?SYS_SCAN?MIAN

?PR?SYS_INIT?MIAN                                -----    -----      -----    -----
  +--> ?PR?TIMERINIT?MIAN

?PR?TOUCHKEYINIT?SENSORMETHOD                    -----    -----      -----    -----
  +--> ?PR?TOUCHKEYCFGINIT?S_TOUCHKEYCFG
  +--> ?PR?_GETCFGMSG?S_TOUCHKEYCFG
  +--> ?PR?_GETSCANTIMEVALUE?S_TOUCHKEYCFG
  +--> ?PR?INITIALIZESENSORFLAG?SENSORMETHOD
  +--> ?PR?FILTERAVERGEDEAL?SENSORMETHOD
  +--> ?PR?INITIALIZEBASELINES?SENSORMETHOD

?PR?TOUCHKEYCFGINIT?S_TOUCHKEYCFG                -----    -----      -----    -----
  +--> ?CO?S_TOUCHKEYCFG
  +--> ?PR?CURRENTSENSORCHOOSE?S_TOUCHKEYCFG

?PR?_GETCFGMSG?S_TOUCHKEYCFG                     -----    -----      -----    -----
  +--> ?CO?S_TOUCHKEYCFG

?PR?_GETSCANTIMEVALUE?S_TOUCHKEYCFG              -----    -----      -----    -----
  +--> ?CO?S_TOUCHKEYCFG

?PR?FILTERAVERGEDEAL?SENSORMETHOD                -----    -----      0021H    0002H
  +--> ?CO?S_TOUCHKEYCFG
  +--> ?PR?FILTERCOMMCODE?SENSORMETHOD
  +--> ?PR?_ICHAADJUST?SENSORMETHOD
  +--> ?PR?FILTERIIRINIT?SENSORMETHOD
  +--> ?PR?GETINITAUTOUPDATETIME?S_TOUCHKEYCFG
  +--> ?PR?_FILTERDATADEAL?SENSORMETHOD

?PR?FILTERCOMMCODE?SENSORMETHOD                  -----    -----      -----    -----
  +--> ?PR?_USDELAY?SENSORMETHOD

?PR?_ICHAADJUST?SENSORMETHOD                     -----    -----      002EH    0002H
  +--> ?PR?_GETBASELINEADJUSTVALUE?S_TOUCHKE...
  +--> ?PR?_GETSCANTIMEVALUE?S_TOUCHKEYCFG

?PR?GETINITAUTOUPDATETIME?S_TOUCHKEYCFG          -----    -----      -----    -----
  +--> ?CO?S_TOUCHKEYCFG

?PR?_FILTERDATADEAL?SENSORMETHOD                 -----    -----      0026H    0003H
  +--> ?PR?_GETCURRFINGERVALUE?S_TOUCHKEYCFG

?PR?_GETCURRFINGERVALUE?S_TOUCHKEYCFG            -----    -----      -----    -----
  +--> ?CO?S_TOUCHKEYCFG

?PR?SYS_SCAN?MIAN                                -----    -----      -----    -----
  +--> ?PR?TOUCHKEYSCAN?S_TOUCHKEYCFG
  +--> ?PR?UPDATELCDBUFFUNC?MIAN
  +--> ?PR?TOUCHKEYRESTART?SENSORMETHOD

BL51 BANKED LINKER/LOCATER V6.22.4.0                                                  07/30/2024  15:47:41  PAGE 4


?PR?TOUCHKEYSCAN?S_TOUCHKEYCFG                   -----    -----      0021H    0003H
  +--> ?PR?GETISNEEDUPDATEBASELINE?SENSORMETHOD
  +--> ?PR?SENSORKEYFLAG?SENSORMETHOD
  +--> ?PR?SETNEEDUPDATEBASELINE?SENSORMETHOD
  +--> ?PR?ISDOUBLEKEYORSLIDEKEY?S_TOUCHKEYCFG
  +--> ?PR?SETONEKEYPUSHRESETTIME?S_TOUCHKEYCFG
  +--> ?CO?S_TOUCHKEYCFG
  +--> ?PR?_MULTIPLEDEAL?SENSORMETHOD

?PR?SENSORKEYFLAG?SENSORMETHOD                   -----    -----      0024H    0001H
  +--> ?PR?_FILTERDATADEAL?SENSORMETHOD
  +--> ?PR?_SENSORRENOVATE?SENSORMETHOD

?PR?_SENSORRENOVATE?SENSORMETHOD                 -----    -----      0025H    0009H
  +--> ?PR?_GETCURRFINGERVALUE?S_TOUCHKEYCFG
  +--> ?PR?GETCSFUNCTION?S_TOUCHKEYCFG
  +--> ?PR?ISDOUBLEKEYORSLIDEKEY?S_TOUCHKEYCFG
  +--> ?PR?GETTKYZCNT?S_TOUCHKEYCFG
  +--> ?PR?_GETTKYZTHRESHOLD?S_TOUCHKEYCFG
  +--> ?PR?GETBASELINEUPDATETHRESHOLD?S_TOUC...
  +--> ?CO?S_TOUCHKEYCFG
  +--> ?PR?GETUPCONFIRMCNT?S_TOUCHKEYCFG
  +--> ?PR?_ICHAADJUST?SENSORMETHOD

?PR?ISDOUBLEKEYORSLIDEKEY?S_TOUCHKEYCFG          -----    -----      -----    -----
  +--> ?CO?S_TOUCHKEYCFG

?PR?_GETTKYZTHRESHOLD?S_TOUCHKEYCFG              -----    -----      -----    -----
  +--> ?PR?_GETCURRFINGERVALUE?S_TOUCHKEYCFG

?PR?GETBASELINEUPDATETHRESHOLD?S_TOUC...         -----    -----      -----    -----
  +--> ?CO?S_TOUCHKEYCFG

?PR?SETONEKEYPUSHRESETTIME?S_TOUCHKEYCFG         -----    -----      -----    -----
  +--> ?CO?S_TOUCHKEYCFG

?PR?_MULTIPLEDEAL?SENSORMETHOD                   -----    -----      0024H    0002H
  +--> ?PR?INITIALIZESENSORFLAG?SENSORMETHOD
  +--> ?PR?FILTERIIRINIT?SENSORMETHOD
  +--> ?PR?_FILTERDATADEAL?SENSORMETHOD
  +--> ?PR?INITIALIZEBASELINES?SENSORMETHOD

*** NEW ROOT ***************************************************

?PR?CTK_ISR?S_TOUCHKEYCFG                        -----    -----      -----    -----
  +--> ?PR?TOUCHKEY_SERVICE?SENSORMETHOD

?PR?TOUCHKEY_SERVICE?SENSORMETHOD                0020H.5  0000H.1    -----    -----
  +--> ?PR?_GETCFGMSG?S_TOUCHKEYCFG
  +--> ?PR?_GETSCANTIMEVALUE?S_TOUCHKEYCFG
  +--> ?PR?_GETBASELINEADJUSTVALUE?S_TOUCHKE...



SYMBOL TABLE OF MODULE:  SC92F8X7X_T1_Demo_Code (?C_STARTUP)

  VALUE           TYPE          NAME
BL51 BANKED LINKER/LOCATER V6.22.4.0                                                  07/30/2024  15:47:41  PAGE 5


  ----------------------------------

  -------         MODULE        ?C_STARTUP
  C:0A0BH         SEGMENT       ?C_C51STARTUP
  I:0062H         SEGMENT       ?STACK
  C:0000H         PUBLIC        ?C_STARTUP
  D:00E0H         SYMBOL        ACC
  D:00F0H         SYMBOL        B
  D:0083H         SYMBOL        DPH
  D:0082H         SYMBOL        DPL
  N:0000H         SYMBOL        IBPSTACK
  N:0100H         SYMBOL        IBPSTACKTOP
  N:0100H         SYMBOL        IDATALEN
  C:0A0EH         SYMBOL        IDATALOOP
  N:0000H         SYMBOL        PBPSTACK
  N:0100H         SYMBOL        PBPSTACKTOP
  N:0000H         SYMBOL        PDATALEN
  N:0000H         SYMBOL        PDATASTART
  N:0000H         SYMBOL        PPAGE
  N:0000H         SYMBOL        PPAGEENABLE
  D:00A0H         SYMBOL        PPAGE_SFR
  D:0081H         SYMBOL        SP
  C:0A0BH         SYMBOL        STARTUP1
  N:0000H         SYMBOL        XBPSTACK
  N:0000H         SYMBOL        XBPSTACKTOP
  N:0080H         SYMBOL        XDATALEN
  C:0A19H         SYMBOL        XDATALOOP
  N:0000H         SYMBOL        XDATASTART
  C:0000H         LINE#         126
  C:0A0BH         LINE#         133
  C:0A0DH         LINE#         134
  C:0A0EH         LINE#         135
  C:0A0FH         LINE#         136
  C:0A11H         LINE#         140
  C:0A14H         LINE#         141
  C:0A16H         LINE#         143
  C:0A18H         LINE#         147
  C:0A19H         LINE#         148
  C:0A1AH         LINE#         149
  C:0A1BH         LINE#         150
  C:0A1DH         LINE#         151
  C:0A1FH         LINE#         185
  C:0A22H         LINE#         196
  -------         ENDMOD        ?C_STARTUP

  -------         MODULE        MIAN
  C:0000H         SYMBOL        _ICE_DUMMY_
  D:0080H         PUBLIC        P0
  D:0090H         PUBLIC        P1
  D:00A0H         PUBLIC        P2
  D:008EH         PUBLIC        TMCON
  B:00A8H.7       PUBLIC        EA
  D:0008H         PUBLIC        exKeyValueFlag
  D:000CH         PUBLIC        rx_buf
  D:000FH         PUBLIC        tx_buf
  D:00A8H         PUBLIC        IE
  D:009BH         PUBLIC        P0PH
BL51 BANKED LINKER/LOCATER V6.22.4.0                                                  07/30/2024  15:47:41  PAGE 6


  D:00B8H         PUBLIC        IP
  D:0092H         PUBLIC        P1PH
  C:1065H         PUBLIC        TimerInit
  D:00A2H         PUBLIC        P2PH
  C:0C4FH         PUBLIC        ChangeTouchKeyvalue
  C:0FE3H         PUBLIC        main
  C:1047H         PUBLIC        Sys_Scan
  C:0E8EH         PUBLIC        UpdateLcdBufFunc
  D:0017H         PUBLIC        Timercount
  D:0088H         PUBLIC        TCON
  D:0089H         PUBLIC        TMOD
  C:0FC0H         PUBLIC        Sys_Init
  D:0018H         PUBLIC        exKeyValue0
  D:0019H         PUBLIC        exKeyValue1
  B:00A8H.1       PUBLIC        ET0
  B:0088H.5       PUBLIC        TF0
  D:008CH         PUBLIC        TH0
  D:008AH         PUBLIC        TL0
  D:00CFH         PUBLIC        WDTCON
  C:10D5H         PUBLIC        timer0
  B:0088H.4       PUBLIC        TR0
  D:001AH         PUBLIC        gTkIsValid
  D:001BH         PUBLIC        KeyValue0
  D:001CH         PUBLIC        KeyValue1
  D:009AH         PUBLIC        P0CON
  D:0091H         PUBLIC        P1CON
  D:00A1H         PUBLIC        P2CON
  D:00C8H         PUBLIC        T2CON
  B:0020H.4       PUBLIC        TimerFlag_1ms
  D:00D0H         PUBLIC        PSW
  -------         PROC          TIMERINIT
  C:1065H         LINE#         34
  C:1065H         LINE#         35
  C:1065H         LINE#         36
  C:1068H         LINE#         38
  C:106BH         LINE#         39
  C:106EH         LINE#         40
  C:1071H         LINE#         41
  C:1074H         LINE#         42
  C:1076H         LINE#         43
  C:1078H         LINE#         44
  C:107AH         LINE#         45
  C:107CH         LINE#         46
  -------         ENDPROC       TIMERINIT
  -------         PROC          TIMER0
  C:10D5H         LINE#         54
  C:10D5H         LINE#         56
  C:10D8H         LINE#         57
  C:10DBH         LINE#         58
  C:10DDH         LINE#         59
  -------         ENDPROC       TIMER0
  -------         PROC          CHANGETOUCHKEYVALUE
  C:0C4FH         LINE#         68
  C:0C4FH         LINE#         69
  C:0C4FH         LINE#         70
  C:0C88H         LINE#         71
  C:0C88H         LINE#         73
BL51 BANKED LINKER/LOCATER V6.22.4.0                                                  07/30/2024  15:47:41  PAGE 7


  C:0C8FH         LINE#         74
  C:0C96H         LINE#         75
  C:0C9DH         LINE#         76
  C:0CA4H         LINE#         77
  C:0CABH         LINE#         78
  C:0CB2H         LINE#         79
  C:0CB9H         LINE#         80
  C:0CBEH         LINE#         81
  C:0CBEH         LINE#         82
  -------         ENDPROC       CHANGETOUCHKEYVALUE
  -------         PROC          UPDATELCDBUFFUNC
  -------         DO            
  D:0003H         SYMBOL        u8TwiTxCheSum
  D:0007H         SYMBOL        i
  -------         ENDDO         
  C:0E8EH         LINE#         91
  C:0E8EH         LINE#         92
  C:0E8EH         LINE#         95
  C:0E90H         LINE#         121
  C:0E93H         LINE#         122
  C:0EA2H         LINE#         123
  C:0EA5H         LINE#         124
  C:0EA7H         LINE#         125
  C:0EA9H         LINE#         126
  C:0EABH         LINE#         127
  C:0EADH         LINE#         128
  C:0EAEH         LINE#         129
  C:0EAEH         LINE#         130
  C:0EB5H         LINE#         131
  C:0EB9H         LINE#         132
  C:0EBCH         LINE#         133
  C:0EBEH         LINE#         134
  C:0EBEH         LINE#         136
  -------         ENDPROC       UPDATELCDBUFFUNC
  -------         PROC          SYS_INIT
  C:0FC0H         LINE#         145
  C:0FC0H         LINE#         146
  C:0FC0H         LINE#         147
  C:0FC3H         LINE#         149
  C:0FC6H         LINE#         150
  C:0FC9H         LINE#         151
  C:0FCCH         LINE#         152
  C:0FCFH         LINE#         153
  C:0FD2H         LINE#         154
  C:0FD5H         LINE#         156
  C:0FD8H         LINE#         157
  C:0FDBH         LINE#         158
  C:0FDEH         LINE#         160
  C:0FE0H         LINE#         161
  -------         ENDPROC       SYS_INIT
  -------         PROC          SYS_SCAN
  C:1047H         LINE#         170
  C:1047H         LINE#         171
  C:1047H         LINE#         172
  C:104FH         LINE#         173
  C:104FH         LINE#         174
  C:1052H         LINE#         175
BL51 BANKED LINKER/LOCATER V6.22.4.0                                                  07/30/2024  15:47:41  PAGE 8


  C:105EH         LINE#         177
  C:1061H         LINE#         178
  C:1064H         LINE#         179
  C:1064H         LINE#         180
  -------         ENDPROC       SYS_SCAN
  -------         PROC          MAIN
  C:0FE3H         LINE#         187
  C:0FE3H         LINE#         188
  C:0FE3H         LINE#         189
  C:0FE6H         LINE#         191
  C:0FE9H         LINE#         194
  C:0FECH         LINE#         196
  C:0FECH         LINE#         197
  C:0FECH         LINE#         198
  C:0FEFH         LINE#         199
  C:0FF2H         LINE#         200
  C:0FF2H         LINE#         201
  C:0FF4H         LINE#         202
  C:0FF6H         LINE#         203
  C:0FFDH         LINE#         204
  C:0FFDH         LINE#         205
  C:1000H         LINE#         206
  C:1003H         LINE#         207
  C:1003H         LINE#         208
  C:1003H         LINE#         209
  -------         ENDPROC       MAIN
  -------         ENDMOD        MIAN

  -------         MODULE        S_TOUCHKEYCFG
  C:0000H         SYMBOL        _ICE_DUMMY_
  I:0035H         PUBLIC        ConfirmTouchCnt
  X:0000H         PUBLIC        BaseLine
  C:0D83H         PUBLIC        CFG_OVERLOW_MAX_COUNT
  C:0E14H         PUBLIC        TouchKeyCFGInit
  C:10F7H         PUBLIC        _GetBaseLineAdjustValue
  X:000EH         PUBLIC        FloatAreaCnt
  B:00D0H.7       PUBLIC        TK_CY
  C:0EECH         PUBLIC        _GetCurrFingerValue
  C:0D84H         PUBLIC        CFG_RESET_BASELINE_CNT
  C:1105H         PUBLIC        GetCsFunction
  X:0015H         PUBLIC        CurrentChannel
  X:001CH         PUBLIC        RawData
  C:10EFH         PUBLIC        IsDoubleKeyOrSlideKey
  I:0036H         PUBLIC        TouchCnt
  C:0E53H         PUBLIC        CTK_ISR
  I:003DH         PUBLIC        LowFingerDataCnt
  C:0938H         PUBLIC        TouchKeyScan
  C:10BFH         PUBLIC        SetOneKeyPushResetTime
  C:1092H         PUBLIC        _GetScanTimeValue
  C:10DEH         PUBLIC        GetTKYzCnt
  X:002AH         PUBLIC        DifferAccum
  I:0044H         PUBLIC        RestAreaCnt
  C:107DH         PUBLIC        _GetTKYzThreshold
  I:004BH         PUBLIC        BaseLineAdjusttmp
  C:0F18H         PUBLIC        CurrentSensorChoose
  C:10E7H         PUBLIC        GetInitAutoUpdateTime
  I:0052H         PUBLIC        MultipleLNum
BL51 BANKED LINKER/LOCATER V6.22.4.0                                                  07/30/2024  15:47:41  PAGE 9


  C:0EBFH         PUBLIC        _GetCfgMsg
  X:0038H         PUBLIC        SOCAPI_TouchKeyStatus
  C:10FEH         PUBLIC        GetUpConfirmCnt
  I:0054H         PUBLIC        UpdateBaseLNum
  X:0039H         PUBLIC        SetNoiseThreshold
  C:10CAH         PUBLIC        GetBaselineUpdateThreshold
  X:003AH         PUBLIC        FilterData
  C:0D85H         PUBLIC        CFG_CYCLE_CNT
  I:0056H         PUBLIC        NoTouchCnt
  I:005DH         PUBLIC        MultipleDealTpye
  C:0D4BH         PUBLIC        TKChannelCfg
  C:0D29H         PUBLIC        TKCFG
  D:00D0H         PUBLIC        TK_PSW
  -------         PROC          SETONEKEYPUSHRESETTIME
  C:10BFH         LINE#         110
  C:10BFH         LINE#         111
  C:10BFH         LINE#         112
  C:10C9H         LINE#         113
  -------         ENDPROC       SETONEKEYPUSHRESETTIME
  -------         PROC          GETBASELINEUPDATETHRESHOLD
  C:10CAH         LINE#         121
  C:10CAH         LINE#         122
  C:10CAH         LINE#         123
  C:10D4H         LINE#         124
  -------         ENDPROC       GETBASELINEUPDATETHRESHOLD
  -------         PROC          GETINITAUTOUPDATETIME
  C:10E7H         LINE#         133
  C:10E7H         LINE#         134
  C:10E7H         LINE#         135
  C:10EEH         LINE#         136
  -------         ENDPROC       GETINITAUTOUPDATETIME
  -------         PROC          GETCSFUNCTION
  C:1105H         LINE#         144
  C:1105H         LINE#         145
  C:1105H         LINE#         146
  C:1107H         LINE#         147
  -------         ENDPROC       GETCSFUNCTION
  -------         PROC          _GETCURRFINGERVALUE
  D:0005H         SYMBOL        i
  C:0EECH         LINE#         155
  C:0EEEH         LINE#         156
  C:0EEEH         LINE#         157
  C:0F17H         LINE#         158
  -------         ENDPROC       _GETCURRFINGERVALUE
  -------         PROC          _GETSCANTIMEVALUE
  D:0007H         SYMBOL        i
  C:1092H         LINE#         167
  C:1092H         LINE#         168
  C:1092H         LINE#         169
  C:10A3H         LINE#         170
  -------         ENDPROC       _GETSCANTIMEVALUE
  -------         PROC          ISDOUBLEKEYORSLIDEKEY
  C:10EFH         LINE#         178
  C:10EFH         LINE#         179
  C:10EFH         LINE#         180
  C:10F6H         LINE#         181
  -------         ENDPROC       ISDOUBLEKEYORSLIDEKEY
BL51 BANKED LINKER/LOCATER V6.22.4.0                                                  07/30/2024  15:47:41  PAGE 10


  -------         PROC          _GETBASELINEADJUSTVALUE
  D:0007H         SYMBOL        i
  C:10F7H         LINE#         190
  C:10F7H         LINE#         191
  C:10F7H         LINE#         192
  C:10FDH         LINE#         193
  -------         ENDPROC       _GETBASELINEADJUSTVALUE
  -------         PROC          GETUPCONFIRMCNT
  C:10FEH         LINE#         201
  C:10FEH         LINE#         202
  C:10FEH         LINE#         203
  C:1104H         LINE#         204
  -------         ENDPROC       GETUPCONFIRMCNT
  -------         PROC          GETTKYZCNT
  C:10DEH         LINE#         213
  C:10DEH         LINE#         214
  C:10DEH         LINE#         215
  C:10E6H         LINE#         216
  -------         ENDPROC       GETTKYZCNT
  -------         PROC          _GETTKYZTHRESHOLD
  D:0007H         SYMBOL        i
  -------         DO            
  D:0006H         SYMBOL        SetFingerThresholdtmp
  -------         ENDDO         
  C:107DH         LINE#         225
  C:107DH         LINE#         226
  C:107DH         LINE#         229
  C:1080H         LINE#         230
  -------         ENDPROC       _GETTKYZTHRESHOLD
  -------         PROC          CURRENTSENSORCHOOSE
  -------         DO            
  D:0004H         SYMBOL        i
  D:0005H         SYMBOL        Ctk_Channel_mark
  D:0006H         SYMBOL        CurrentSensorKey
  -------         ENDDO         
  C:0F18H         LINE#         241
  C:0F18H         LINE#         242
  C:0F18H         LINE#         244
  C:0F1AH         LINE#         247
  C:0F1EH         LINE#         249
  C:0F1FH         LINE#         250
  C:0F1FH         LINE#         251
  C:0F26H         LINE#         252
  C:0F29H         LINE#         253
  C:0F29H         LINE#         254
  C:0F35H         LINE#         255
  C:0F36H         LINE#         256
  C:0F3CH         LINE#         257
  C:0F3CH         LINE#         258
  C:0F3CH         LINE#         259
  C:0F40H         LINE#         260
  C:0F42H         LINE#         261
  -------         ENDPROC       CURRENTSENSORCHOOSE
  -------         PROC          _GETCFGMSG
  D:0007H         SYMBOL        i
  C:0EBFH         LINE#         270
  C:0EBFH         LINE#         271
BL51 BANKED LINKER/LOCATER V6.22.4.0                                                  07/30/2024  15:47:41  PAGE 11


  C:0EBFH         LINE#         272
  C:0ED0H         LINE#         273
  C:0ED0H         LINE#         274
  C:0ED5H         LINE#         275
  C:0EDAH         LINE#         276
  C:0EDDH         LINE#         277
  C:0EE1H         LINE#         278
  C:0EE9H         LINE#         279
  C:0EEBH         LINE#         280
  C:0EEBH         LINE#         281
  -------         ENDPROC       _GETCFGMSG
  -------         PROC          TOUCHKEYCFGINIT
  -------         DO            
  D:0007H         SYMBOL        i
  -------         ENDDO         
  C:0E14H         LINE#         290
  C:0E14H         LINE#         291
  C:0E14H         LINE#         293
  C:0E1DH         LINE#         294
  C:0E27H         LINE#         295
  C:0E2AH         LINE#         296
  C:0E32H         LINE#         297
  C:0E32H         LINE#         298
  C:0E49H         LINE#         299
  C:0E4CH         LINE#         300
  C:0E52H         LINE#         301
  -------         ENDPROC       TOUCHKEYCFGINIT
  -------         PROC          TOUCHKEYSCAN
  -------         DO            
  D:0003H         SYMBOL        t
  D:0021H         SYMBOL        MultipleCnt
  D:0004H         SYMBOL        Keyvalue
  D:0022H         SYMBOL        KeyData
  -------         ENDDO         
  C:0938H         LINE#         313
  C:0938H         LINE#         314
  C:0938H         LINE#         316
  C:093BH         LINE#         318
  C:093FH         LINE#         320
  C:0947H         LINE#         321
  C:0947H         LINE#         322
  C:094EH         LINE#         323
  C:0956H         LINE#         324
  C:0956H         LINE#         325
  C:095DH         LINE#         326
  C:0960H         LINE#         327
  C:0960H         LINE#         328
  C:0981H         LINE#         329
  C:0983H         LINE#         330
  C:0983H         LINE#         331
  C:0986H         LINE#         332
  C:098DH         LINE#         333
  C:098DH         LINE#         334
  C:098FH         LINE#         335
  C:0995H         LINE#         336
  C:0995H         LINE#         337
  C:0998H         LINE#         338
BL51 BANKED LINKER/LOCATER V6.22.4.0                                                  07/30/2024  15:47:41  PAGE 12


  C:099AH         LINE#         340
  C:099AH         LINE#         341
  C:09A0H         LINE#         342
  C:09A0H         LINE#         343
  C:09A2H         LINE#         344
  C:09A2H         LINE#         345
  C:09A2H         LINE#         346
  C:09A2H         LINE#         348
  C:09A5H         LINE#         349
  C:09A5H         LINE#         350
  C:09ABH         LINE#         351
  C:09ABH         LINE#         352
  C:09B3H         LINE#         353
  C:09B5H         LINE#         355
  C:09B5H         LINE#         356
  C:09BBH         LINE#         357
  C:09BBH         LINE#         358
  C:09BDH         LINE#         360
  C:09BDH         LINE#         362
  C:09C5H         LINE#         363
  C:09CAH         LINE#         364
  C:09CAH         LINE#         366
  C:09D7H         LINE#         367
  C:09D7H         LINE#         368
  C:09DAH         LINE#         369
  C:09E0H         LINE#         370
  C:09E0H         LINE#         372
  C:09ECH         LINE#         373
  C:09ECH         LINE#         374
  C:09EFH         LINE#         375
  C:09F3H         LINE#         376
  C:09F9H         LINE#         377
  C:09F9H         LINE#         378
  C:09FBH         LINE#         380
  C:09FBH         LINE#         381
  C:0A06H         LINE#         382
  C:0A06H         LINE#         384
  C:0A0AH         LINE#         385
  -------         ENDPROC       TOUCHKEYSCAN
  -------         PROC          CTK_ISR
  C:0E53H         LINE#         394
  C:0E70H         LINE#         396
  C:0E73H         LINE#         397
  -------         ENDPROC       CTK_ISR
  -------         ENDMOD        S_TOUCHKEYCFG

  -------         MODULE        SENSORMETHOD
  C:0000H         SYMBOL        _ICE_DUMMY_
  D:00FFH         PUBLIC        OPREG
  X:0049H         PUBLIC        FlowFingerRoundIndex
  C:0B38H         PUBLIC        _ICHAAdjust
  D:00CFH         PUBLIC        TK_WDTCR
  B:00A8H.7       PUBLIC        TK_EA
  D:00E4H         PUBLIC        TKCNT
  D:00A8H         PUBLIC        TK_IE
  D:00FEH         PUBLIC        OPINX
  C:0DCFH         PUBLIC        InitializeSensorFlag
BL51 BANKED LINKER/LOCATER V6.22.4.0                                                  07/30/2024  15:47:41  PAGE 13


  X:004AH         PUBLIC        ScanTime
  C:1108H         PUBLIC        TouchKeyRestart
  D:00E1H         PUBLIC        TKCFG0
  D:00E2H         PUBLIC        TKCFG1
  D:00E3H         PUBLIC        TKCFG2
  C:1027H         PUBLIC        SensorKeyFlag
  D:0030H         PUBLIC        KeyFlag
  I:005EH         PUBLIC        FlowFingerRoundCnt
  B:0020H.0       PUBLIC        bMultiple
  D:00E8H         PUBLIC        TKCR
  C:0F43H         PUBLIC        InitializeBaselines
  B:00E8H.6       PUBLIC        TRIG
  D:0032H         PUBLIC        KeyMark
  C:110EH         PUBLIC        SetNeedUpdateBaseline
  D:00A9H         PUBLIC        TK_IE1
  C:0CBFH         PUBLIC        FilterAvergeDeal
  D:00E6H         PUBLIC        TKTM
  X:004CH         PUBLIC        MultipleDealIndex
  C:0100H         PUBLIC        _SensorRenovate
  B:0020H.1       PUBLIC        bNeedUpdate
  C:0AA5H         PUBLIC        TouchKeyInit
  C:05A3H         PUBLIC        _MultipleDeal
  D:0034H         PUBLIC        CurrentChannelMax
  C:10B3H         PUBLIC        _Usdelay
  C:0724H         PUBLIC        _FilterDataDeal
  I:0060H         PUBLIC        CurrentIndex
  C:0F6DH         PUBLIC        FilterIIRInit
  C:0BC8H         PUBLIC        TouchKey_Service
  C:110BH         PUBLIC        GetIsNeedUpdateBaseline
  I:0061H         PUBLIC        IsInNosicValue
  C:0F97H         PUBLIC        FilterCommCode
  -------         PROC          _USDELAY
  D:0006H         SYMBOL        delay
  C:10B3H         LINE#         125
  C:10B3H         LINE#         126
  C:10B3H         LINE#         127
  C:10B7H         LINE#         128
  C:10B7H         LINE#         129
  C:10BCH         LINE#         130
  C:10BEH         LINE#         131
  -------         ENDPROC       _USDELAY
  -------         PROC          _ICHAADJUST
  D:002EH         SYMBOL        Channel
  -------         DO            
  D:002FH         SYMBOL        icha_set
  -------         ENDDO         
  C:0B38H         LINE#         139
  C:0B3AH         LINE#         140
  C:0B3AH         LINE#         142
  C:0B3FH         LINE#         143
  C:0B76H         LINE#         144
  C:0B76H         LINE#         145
  C:0B7AH         LINE#         146
  C:0B7AH         LINE#         147
  C:0B7BH         LINE#         148
  C:0B7BH         LINE#         149
  C:0B7BH         LINE#         150
BL51 BANKED LINKER/LOCATER V6.22.4.0                                                  07/30/2024  15:47:41  PAGE 14


  C:0B7DH         LINE#         151
  C:0BB4H         LINE#         152
  C:0BB4H         LINE#         153
  C:0BBAH         LINE#         154
  C:0BBAH         LINE#         155
  C:0BC5H         LINE#         156
  C:0BC7H         LINE#         157
  C:0BC7H         LINE#         158
  C:0BC7H         LINE#         159
  -------         ENDPROC       _ICHAADJUST
  -------         PROC          TOUCHKEY_SERVICE
  -------         DO            
  B:0020H.5       SYMBOL        Scanflag
  -------         ENDDO         
  C:0BC8H         LINE#         167
  C:0BC8H         LINE#         168
  C:0BC8H         LINE#         169
  C:0BCAH         LINE#         171
  C:0BDDH         LINE#         172
  C:0BDEH         LINE#         174
  C:0BE4H         LINE#         175
  C:0BE4H         LINE#         176
  C:0BE6H         LINE#         177
  C:0BEDH         LINE#         178
  C:0BEFH         LINE#         180
  C:0BEFH         LINE#         181
  C:0BF1H         LINE#         182
  C:0BF1H         LINE#         183
  C:0BFCH         LINE#         184
  C:0C14H         LINE#         185
  C:0C2AH         LINE#         186
  C:0C38H         LINE#         187
  C:0C49H         LINE#         189
  C:0C4EH         LINE#         191
  -------         ENDPROC       TOUCHKEY_SERVICE
  -------         PROC          TOUCHKEYINIT
  C:0AA5H         LINE#         200
  C:0AA5H         LINE#         201
  C:0AA5H         LINE#         202
  C:0AA8H         LINE#         203
  C:0AABH         LINE#         206
  C:0AADH         LINE#         208
  C:0AAFH         LINE#         209
  C:0AB3H         LINE#         210
  C:0AB7H         LINE#         212
  C:0ABAH         LINE#         213
  C:0AD5H         LINE#         214
  C:0AEBH         LINE#         216
  C:0B01H         LINE#         217
  C:0B09H         LINE#         218
  C:0B09H         LINE#         219
  C:0B11H         LINE#         221
  C:0B11H         LINE#         222
  C:0B1DH         LINE#         223
  C:0B24H         LINE#         225
  C:0B27H         LINE#         226
  C:0B2AH         LINE#         228
BL51 BANKED LINKER/LOCATER V6.22.4.0                                                  07/30/2024  15:47:41  PAGE 15


  C:0B32H         LINE#         229
  C:0B35H         LINE#         230
  -------         ENDPROC       TOUCHKEYINIT
  -------         PROC          TOUCHKEYRESTART
  C:1108H         LINE#         240
  C:1108H         LINE#         241
  C:1108H         LINE#         242
  C:110AH         LINE#         243
  -------         ENDPROC       TOUCHKEYRESTART
  -------         PROC          FILTERCOMMCODE
  -------         DO            
  D:0005H         SYMBOL        times
  -------         ENDDO         
  C:0F97H         LINE#         252
  C:0F97H         LINE#         253
  C:0F97H         LINE#         254
  C:0F99H         LINE#         256
  C:0FA0H         LINE#         257
  C:0FA2H         LINE#         259
  C:0FAAH         LINE#         260
  C:0FAAH         LINE#         261
  C:0FB1H         LINE#         262
  C:0FB4H         LINE#         263
  C:0FB5H         LINE#         264
  C:0FBFH         LINE#         265
  C:0FBFH         LINE#         266
  C:0FBFH         LINE#         267
  -------         ENDPROC       FILTERCOMMCODE
  -------         PROC          FILTERAVERGEDEAL
  -------         DO            
  D:0021H         SYMBOL        t
  D:0022H         SYMBOL        i
  -------         ENDDO         
  C:0CBFH         LINE#         276
  C:0CBFH         LINE#         277
  C:0CBFH         LINE#         280
  C:0CC6H         LINE#         282
  C:0CC6H         LINE#         283
  C:0CC9H         LINE#         284
  C:0CD3H         LINE#         285
  C:0CD3H         LINE#         286
  C:0CF3H         LINE#         287
  C:0CF8H         LINE#         288
  C:0CFCH         LINE#         289
  C:0D03H         LINE#         290
  C:0D06H         LINE#         292
  C:0D0BH         LINE#         294
  C:0D0BH         LINE#         295
  C:0D0EH         LINE#         296
  C:0D18H         LINE#         297
  C:0D18H         LINE#         298
  C:0D1DH         LINE#         299
  C:0D21H         LINE#         300
  C:0D28H         LINE#         301
  -------         ENDPROC       FILTERAVERGEDEAL
  -------         PROC          INITIALIZEBASELINES
  -------         DO            
BL51 BANKED LINKER/LOCATER V6.22.4.0                                                  07/30/2024  15:47:41  PAGE 16


  D:0007H         SYMBOL        i
  -------         ENDDO         
  C:0F43H         LINE#         310
  C:0F43H         LINE#         311
  C:0F43H         LINE#         313
  C:0F4BH         LINE#         314
  C:0F4BH         LINE#         315
  C:0F69H         LINE#         316
  C:0F6CH         LINE#         317
  -------         ENDPROC       INITIALIZEBASELINES
  -------         PROC          SENSORKEYFLAG
  -------         DO            
  D:0024H         SYMBOL        i
  -------         ENDDO         
  C:1027H         LINE#         326
  C:1027H         LINE#         327
  C:1027H         LINE#         330
  C:102BH         LINE#         331
  C:1034H         LINE#         332
  C:1034H         LINE#         333
  C:1039H         LINE#         334
  C:103EH         LINE#         335
  C:1042H         LINE#         336
  C:1046H         LINE#         337
  -------         ENDPROC       SENSORKEYFLAG
  -------         PROC          _SENSORRENOVATE
  D:0025H         SYMBOL        i
  -------         DO            
  D:0026H         SYMBOL        differData
  D:0028H         SYMBOL        result
  D:0029H         SYMBOL        j
  D:002AH         SYMBOL        RealConfirmTouchCnt
  D:002BH         SYMBOL        SetFingerThresholdtmp
  D:002DH         SYMBOL        testcount
  -------         ENDDO         
  C:0100H         LINE#         346
  C:0102H         LINE#         347
  C:0102H         LINE#         353
  C:0105H         LINE#         355
  C:012BH         LINE#         358
  C:013FH         LINE#         360
  C:0148H         LINE#         362
  C:0159H         LINE#         363
  C:0159H         LINE#         364
  C:015CH         LINE#         365
  C:015EH         LINE#         367
  C:015EH         LINE#         368
  C:0161H         LINE#         369
  C:0161H         LINE#         372
  C:016AH         LINE#         373
  C:016AH         LINE#         374
  C:0179H         LINE#         375
  C:0179H         LINE#         376
  C:017FH         LINE#         377
  C:017FH         LINE#         379
  C:018EH         LINE#         380
  C:018EH         LINE#         381
BL51 BANKED LINKER/LOCATER V6.22.4.0                                                  07/30/2024  15:47:41  PAGE 17


  C:0193H         LINE#         382
  C:0199H         LINE#         383
  C:0199H         LINE#         384
  C:019CH         LINE#         385
  C:01A5H         LINE#         386
  C:01A5H         LINE#         387
  C:01B4H         LINE#         388
  C:01B6H         LINE#         389
  C:01BAH         LINE#         390
  C:01C5H         LINE#         391
  C:01C5H         LINE#         392
  C:01CBH         LINE#         393
  C:01CBH         LINE#         394
  C:01CBH         LINE#         395
  C:01D9H         LINE#         396
  C:01D9H         LINE#         397
  C:01DCH         LINE#         399
  C:01E2H         LINE#         400
  C:01E2H         LINE#         401
  C:01EBH         LINE#         402
  C:01EBH         LINE#         403
  C:01F1H         LINE#         404
  C:01F1H         LINE#         405
  C:01FEH         LINE#         406
  C:01FEH         LINE#         407
  C:0201H         LINE#         408
  C:0203H         LINE#         409
  C:0203H         LINE#         410
  C:0203H         LINE#         411
  C:0207H         LINE#         412
  C:0211H         LINE#         413
  C:0211H         LINE#         414
  C:0215H         LINE#         415
  C:0215H         LINE#         416
  C:021EH         LINE#         417
  C:021EH         LINE#         418
  C:0224H         LINE#         419
  C:0224H         LINE#         420
  C:0231H         LINE#         421
  C:0231H         LINE#         422
  C:0231H         LINE#         423
  C:0233H         LINE#         424
  C:0233H         LINE#         425
  C:0233H         LINE#         426
  C:0237H         LINE#         427
  C:0237H         LINE#         428
  C:0237H         LINE#         429
  C:0237H         LINE#         431
  C:0237H         LINE#         432
  C:0241H         LINE#         433
  C:0241H         LINE#         434
  C:0243H         LINE#         435
  C:024CH         LINE#         436
  C:024CH         LINE#         437
  C:025BH         LINE#         438
  C:025BH         LINE#         439
  C:025DH         LINE#         440
BL51 BANKED LINKER/LOCATER V6.22.4.0                                                  07/30/2024  15:47:41  PAGE 18


  C:025DH         LINE#         441
  C:0261H         LINE#         442
  C:026CH         LINE#         443
  C:026CH         LINE#         444
  C:026FH         LINE#         445
  C:026FH         LINE#         446
  C:026FH         LINE#         447
  C:026FH         LINE#         449
  C:0275H         LINE#         450
  C:0275H         LINE#         451
  C:0277H         LINE#         452
  C:0277H         LINE#         453
  C:027FH         LINE#         454
  C:027FH         LINE#         455
  C:027FH         LINE#         458
  C:0286H         LINE#         459
  C:028DH         LINE#         460
  C:029CH         LINE#         461
  C:02A9H         LINE#         462
  C:02AAH         LINE#         465
  C:02AAH         LINE#         466
  C:02BEH         LINE#         467
  C:02BEH         LINE#         468
  C:02BEH         LINE#         469
  C:02BEH         LINE#         470
  C:02C4H         LINE#         471
  C:02C4H         LINE#         472
  C:02C6H         LINE#         474
  C:02C6H         LINE#         475
  C:02C9H         LINE#         476
  C:02D0H         LINE#         477
  C:02D0H         LINE#         479
  C:0304H         LINE#         480
  C:0304H         LINE#         481
  C:030BH         LINE#         482
  C:0318H         LINE#         483
  C:0321H         LINE#         484
  C:0321H         LINE#         485
  C:0334H         LINE#         486
  C:0352H         LINE#         487
  C:0352H         LINE#         488
  C:0361H         LINE#         489
  C:0361H         LINE#         490
  C:0363H         LINE#         491
  C:038BH         LINE#         492
  C:038BH         LINE#         493
  C:039DH         LINE#         494
  C:03ACH         LINE#         495
  C:03ACH         LINE#         496
  C:03ACH         LINE#         497
  C:03AFH         LINE#         498
  C:03D1H         LINE#         499
  C:03D1H         LINE#         500
  C:03D7H         LINE#         501
  C:03E4H         LINE#         502
  C:03F9H         LINE#         503
  C:03F9H         LINE#         505
BL51 BANKED LINKER/LOCATER V6.22.4.0                                                  07/30/2024  15:47:41  PAGE 19


  C:0410H         LINE#         506
  C:0410H         LINE#         507
  C:0417H         LINE#         508
  C:0419H         LINE#         509
  C:041DH         LINE#         510
  C:041FH         LINE#         512
  C:041FH         LINE#         513
  C:044DH         LINE#         514
  C:044DH         LINE#         515
  C:044DH         LINE#         516
  C:0455H         LINE#         517
  C:0455H         LINE#         518
  C:0458H         LINE#         519
  C:0458H         LINE#         520
  C:045AH         LINE#         521
  C:0473H         LINE#         522
  C:0473H         LINE#         523
  C:047AH         LINE#         524
  C:0480H         LINE#         525
  C:0480H         LINE#         526
  C:048EH         LINE#         527
  C:049EH         LINE#         528
  C:049EH         LINE#         529
  C:04ABH         LINE#         530
  C:04C8H         LINE#         531
  C:04C8H         LINE#         532
  C:04C8H         LINE#         533
  C:04C8H         LINE#         536
  C:04D7H         LINE#         537
  C:04D7H         LINE#         538
  C:04FEH         LINE#         539
  C:04FEH         LINE#         540
  C:0504H         LINE#         541
  C:0509H         LINE#         542
  C:0513H         LINE#         543
  C:0513H         LINE#         544
  C:0522H         LINE#         545
  C:0524H         LINE#         546
  C:0528H         LINE#         547
  C:0533H         LINE#         548
  C:0533H         LINE#         549
  C:0538H         LINE#         550
  C:0538H         LINE#         551
  C:0543H         LINE#         552
  C:0543H         LINE#         553
  C:0545H         LINE#         554
  C:0553H         LINE#         555
  C:055AH         LINE#         556
  C:055AH         LINE#         557
  C:055BH         LINE#         559
  C:055BH         LINE#         560
  C:0561H         LINE#         561
  C:0561H         LINE#         562
  C:0562H         LINE#         564
  C:0562H         LINE#         565
  C:0569H         LINE#         567
  C:056FH         LINE#         568
BL51 BANKED LINKER/LOCATER V6.22.4.0                                                  07/30/2024  15:47:41  PAGE 20


  C:056FH         LINE#         569
  C:0574H         LINE#         570
  C:0574H         LINE#         572
  C:057BH         LINE#         573
  C:057BH         LINE#         575
  C:057BH         LINE#         577
  C:0583H         LINE#         578
  C:0583H         LINE#         580
  C:0583H         LINE#         582
  C:058DH         LINE#         583
  C:058DH         LINE#         584
  C:0595H         LINE#         585
  C:0595H         LINE#         586
  C:0598H         LINE#         587
  C:0598H         LINE#         588
  C:059CH         LINE#         589
  C:05A0H         LINE#         590
  C:05A0H         LINE#         591
  C:05A2H         LINE#         592
  C:05A2H         LINE#         593
  C:05A2H         LINE#         595
  C:05A2H         LINE#         596
  -------         ENDPROC       _SENSORRENOVATE
  -------         PROC          FILTERIIRINIT
  -------         DO            
  D:0007H         SYMBOL        i
  -------         ENDDO         
  C:0F6DH         LINE#         604
  C:0F6DH         LINE#         605
  C:0F6DH         LINE#         607
  C:0F75H         LINE#         608
  C:0F75H         LINE#         609
  C:0F93H         LINE#         610
  C:0F96H         LINE#         611
  -------         ENDPROC       FILTERIIRINIT
  -------         PROC          _FILTERDATADEAL
  D:0026H         SYMBOL        i
  -------         DO            
  D:0027H         SYMBOL        FilterTemp
  D:0004H         SYMBOL        SetFingerThresholdtmp
  -------         ENDDO         
  C:0724H         LINE#         620
  C:0726H         LINE#         621
  C:0726H         LINE#         625
  C:074CH         LINE#         627
  C:0755H         LINE#         629
  C:077AH         LINE#         630
  C:077AH         LINE#         631
  C:078AH         LINE#         632
  C:078DH         LINE#         633
  C:07BAH         LINE#         634
  C:07BAH         LINE#         635
  C:07EFH         LINE#         636
  C:07F1H         LINE#         638
  C:07F1H         LINE#         639
  C:0841H         LINE#         640
  C:0841H         LINE#         642
BL51 BANKED LINKER/LOCATER V6.22.4.0                                                  07/30/2024  15:47:41  PAGE 21


  C:0861H         LINE#         643
  -------         ENDPROC       _FILTERDATADEAL
  -------         PROC          GETISNEEDUPDATEBASELINE
  C:110BH         LINE#         652
  C:110BH         LINE#         653
  C:110BH         LINE#         654
  C:110DH         LINE#         655
  -------         ENDPROC       GETISNEEDUPDATEBASELINE
  -------         PROC          SETNEEDUPDATEBASELINE
  C:110EH         LINE#         664
  C:110EH         LINE#         665
  C:110EH         LINE#         666
  C:1110H         LINE#         667
  -------         ENDPROC       SETNEEDUPDATEBASELINE
  -------         PROC          INITIALIZESENSORFLAG
  -------         DO            
  D:0007H         SYMBOL        i
  -------         ENDDO         
  C:0DCFH         LINE#         676
  C:0DCFH         LINE#         677
  C:0DCFH         LINE#         679
  C:0DD7H         LINE#         680
  C:0DD7H         LINE#         681
  C:0DDDH         LINE#         682
  C:0DE3H         LINE#         683
  C:0DE9H         LINE#         684
  C:0DF7H         LINE#         685
  C:0DFDH         LINE#         686
  C:0E00H         LINE#         688
  C:0E05H         LINE#         689
  C:0E0BH         LINE#         690
  C:0E11H         LINE#         691
  C:0E13H         LINE#         692
  -------         ENDPROC       INITIALIZESENSORFLAG
  -------         PROC          _MULTIPLEDEAL
  D:0024H         SYMBOL        CycleCnt
  -------         DO            
  X:0048H         SYMBOL        InitSensorCnt
  D:0004H         SYMBOL        FilterTemp
  D:0025H         SYMBOL        t
  -------         ENDDO         
  C:05A3H         LINE#         701
  C:05A5H         LINE#         702
  C:05A5H         LINE#         708
  C:05B2H         LINE#         709
  C:05B2H         LINE#         710
  C:05B4H         LINE#         711
  C:05B9H         LINE#         712
  C:05B9H         LINE#         713
  C:05C2H         LINE#         714
  C:05C2H         LINE#         715
  C:05E2H         LINE#         716
  C:05E6H         LINE#         717
  C:05E6H         LINE#         718
  C:05E9H         LINE#         719
  C:05EBH         LINE#         720
  C:05F0H         LINE#         722
BL51 BANKED LINKER/LOCATER V6.22.4.0                                                  07/30/2024  15:47:41  PAGE 22


  C:05F0H         LINE#         724
  C:05F6H         LINE#         725
  C:05FAH         LINE#         726
  C:05FAH         LINE#         727
  C:05FDH         LINE#         728
  C:0602H         LINE#         729
  C:0602H         LINE#         731
  C:060EH         LINE#         732
  C:060EH         LINE#         733
  C:061BH         LINE#         734
  C:061BH         LINE#         735
  C:0642H         LINE#         736
  C:0647H         LINE#         737
  C:0647H         LINE#         738
  C:0687H         LINE#         739
  C:0689H         LINE#         740
  C:0689H         LINE#         742
  C:0689H         LINE#         743
  C:06C9H         LINE#         744
  C:06C9H         LINE#         745
  C:06C9H         LINE#         746
  C:06CEH         LINE#         747
  C:06D3H         LINE#         749
  C:06D8H         LINE#         750
  C:06D8H         LINE#         751
  C:06DEH         LINE#         752
  C:06DEH         LINE#         754
  C:06F5H         LINE#         755
  C:06F5H         LINE#         756
  C:06F7H         LINE#         757
  C:06F9H         LINE#         758
  C:06FFH         LINE#         759
  C:0716H         LINE#         760
  C:0716H         LINE#         761
  C:071BH         LINE#         762
  C:071EH         LINE#         763
  C:0721H         LINE#         764
  C:0723H         LINE#         765
  C:0723H         LINE#         766
  C:0723H         LINE#         767
  C:0723H         LINE#         768
  -------         ENDPROC       _MULTIPLEDEAL
  -------         ENDMOD        SENSORMETHOD

  -------         MODULE        SSI_TWI
  C:0000H         SYMBOL        _ICE_DUMMY_
  D:0080H         PUBLIC        P0
  D:009FH         PUBLIC        SSDAT
  D:0090H         PUBLIC        P1
  C:0D86H         PUBLIC        TWI_Int
  D:00A0H         PUBLIC        P2
  D:008FH         PUBLIC        OTCON
  B:00A8H.7       PUBLIC        EA
  D:00A8H         PUBLIC        IE
  D:00B8H         PUBLIC        IP
  D:0088H         PUBLIC        TCON
  D:009DH         PUBLIC        SSCON0
BL51 BANKED LINKER/LOCATER V6.22.4.0                                                  07/30/2024  15:47:41  PAGE 23


  D:009EH         PUBLIC        SSCON1
  D:00A9H         PUBLIC        IE1
  D:001DH         PUBLIC        rx_index
  B:0020H.2       PUBLIC        flag_rx
  D:00C8H         PUBLIC        T2CON
  D:001EH         PUBLIC        tx_index
  B:0020H.3       PUBLIC        flag_tx
  C:10A4H         PUBLIC        twi_init
  D:00D0H         PUBLIC        PSW
  -------         PROC          TWI_INIT
  C:10A4H         LINE#         15
  C:10A4H         LINE#         16
  C:10A4H         LINE#         17
  C:10A7H         LINE#         18
  C:10AAH         LINE#         19
  C:10ADH         LINE#         20
  C:10B0H         LINE#         21
  C:10B2H         LINE#         22
  -------         ENDPROC       TWI_INIT
  -------         PROC          TWI_INT
  -------         DO            
  D:0007H         SYMBOL        stat
  -------         ENDDO         
  C:0D86H         LINE#         26
  C:0D91H         LINE#         30
  C:0D94H         LINE#         32
  C:0D98H         LINE#         33
  C:0DA3H         LINE#         34
  C:0DA3H         LINE#         35
  C:0DA3H         LINE#         36
  C:0DA6H         LINE#         37
  C:0DA9H         LINE#         43
  C:0DABH         LINE#         44
  C:0DABH         LINE#         59
  C:0DABH         LINE#         60
  C:0DABH         LINE#         63
  C:0DB3H         LINE#         64
  C:0DB5H         LINE#         65
  C:0DBCH         LINE#         66
  C:0DBCH         LINE#         67
  C:0DBFH         LINE#         68
  C:0DC1H         LINE#         73
  C:0DC1H         LINE#         75
  C:0DC3H         LINE#         76
  C:0DC3H         LINE#         77
  C:0DC6H         LINE#         78
  C:0DC6H         LINE#         79
  C:0DC6H         LINE#         81
  C:0DC6H         LINE#         82
  C:0DC6H         LINE#         83
  -------         ENDPROC       TWI_INT
  -------         ENDMOD        SSI_TWI

  -------         MODULE        ?C?IMUL
  C:0862H         PUBLIC        ?C?IMUL
  -------         ENDMOD        ?C?IMUL

BL51 BANKED LINKER/LOCATER V6.22.4.0                                                  07/30/2024  15:47:41  PAGE 24


  -------         MODULE        ?C?UIDIV
  C:0874H         PUBLIC        ?C?UIDIV
  -------         ENDMOD        ?C?UIDIV

  -------         MODULE        ?C?IILDX
  C:08C9H         PUBLIC        ?C?IILDX
  -------         ENDMOD        ?C?IILDX

  -------         MODULE        ?C?ULSHR
  C:08DFH         PUBLIC        ?C?ULSHR
  -------         ENDMOD        ?C?ULSHR

  -------         MODULE        ?C?OFFXADD
  C:08F2H         PUBLIC        ?C?OFFXADD
  -------         ENDMOD        ?C?OFFXADD

  -------         MODULE        ?C?LCASE
  C:08FEH         PUBLIC        ?C?LCASE
  -------         ENDMOD        ?C?LCASE

*** WARNING L16: UNCALLED SEGMENT, IGNORED FOR OVERLAY PROCESS
    SEGMENT: ?PR?CHANGETOUCHKEYVALUE?MIAN

Program Size: data=97.6 xdata=77 code=4125
LINK/LOCATE RUN COMPLETE.  1 WARNING(S),  0 ERROR(S)
