:101219001212EC1213461213A6120B5B12144D0094
:101229000000000000000012129712130580F82236
:06136F00041A000000005A
:0A144D0012131B12149112149522C1
:101305001213EAEF60031211501213F512140012B2
:06131500140B1214162255
:0414910012145722B8
:101150001214B1EF120872117300117A01117702A3
:10116000117A03117A04117A05117A06117A0700AF
:0B11700000117A121239221212D22252
:0114C9002200
:0114CA0022FF
:0114CB0022FE
:0114CC0022FD
:0114CD0022FC
:10138200054BE54BC394964008754B967F021213AA
:021392009422A3
:04149500754B002271
:101239001214B7EF600312149D1214BAEF6007126B
:1012490014A5121499221214B1EF700312138222F9
:0114CE0022FB
:0114CF0022FA
:0114D00022F9
:0114D10022F8
:0114D20022F7
:1012D2001214B7EF600312149D1214BAEF600712D2
:0A12E20014A5121499221214B1226F
:03137500012D0047
:1012790043CF10052DAC2DE41207A77B007A007926
:0D12890080783F1207247005F52D120E54D9
:011296002235
:100E5400052FE52F7002052EAE2EAF2F7C007D0AE4
:100E64001207EDED4C70480530AE2EAF2FFC7D32ED
:100E74001207EDED4C70380531AE2EAF2FFC7D64BA
:100E84001207EDED4C70280532AE2EAF2F7C017D9C
:100E9400F41207EDED4C70170533AE2EAF2F7C0323
:100EA4007DE81207EDED4C70060534F52EF52F2282
:10131B00752E00752F00753400753300753200750E
:06132B00310075300022C4
:05148C00AE2EAF2F227F
:0B13EA00E5307002FF22AF301530220A
:0B13F500E5317002FF22AF31153122FC
:0B140000E5327002FF22AF32153222ED
:0B140B00E5337002FF22AF33153322DF
:0B141600E5347002FF22AF34153422D1
:101394008F4CE540654C6009854041854C40754360
:0213A400012224
:0314B100AF402227
:0314B400AF412223
:071485007B007A0079402290
:0314B700AF42221F
:041499007542012275
:04149D007542002272
:0314BA00AF43221B
:0414A100754301226C
:0414A5007543002269
:0A1457007540007541007542012246
:10129700900038E0FF30E715547FFFF01209D6E4DD
:0E12A700FCFD8F1D8E1CF51BF51A1214C022C3
:09146B00AF1DAE1CAD1BAC1A2232
:100D050000000000000000000000000000000000DE
:100D150000000000000000000000000000000000CE
:100D250000000000000000000000000000000000BE
:100D350000000000000000000000000000000000AE
:100D4500000000000000000000000000000000009E
:100D5500000000000000000000000000000000008E
:100D6500000000000000000000000000000000007E
:090D750000000000000000002253
:0D13D100751600751500750D0075080022D9
:0E13B5008F4DE54D6004439D8022539D7F22A5
:10112400AF1574082FF8A69F0515E515D39405404F
:101134001A751500E5082509FF250AFF250BF51882
:0C1144006318FFE518B50C031214D32249
:0414A9007515002293
:100F6000E5171208720F6F000FA70100000FA77599
:100F70000D00750E01750F027510037511047512C1
:100F800005751306754E00E54EC394075010AF4E1D
:100F9000740D2FF8E6FF2519F519054E80E9631940
:070FA000FF7514077519002D
:010FA7002227
:1012B500120F60AF16740D2FF8E6FFF59F0516E5C2
:0D12C50016D3940740067516007517002219
:0414AD00751600228E
:10133100E517B4030F7F001213B5120D05751700E1
:051341000F1213B5229C
:0114D30022F6
:0114D40022F5
:1012EC00759AFF759B007591FF75920075A1FF753E
:0912FC00A20075A14075A20022B8
:02137800C102B0
:0F13A600438F80759D88759EB043A901D2AF22F9
:0E13C3008F4FE54F6004439D0822539DF72293
:03003B00020D7E35
:100D7E00C0E0C0F0C083C082C0D075D000C000C03B
:0D0D8E0001C002C003C004C005C006C007BC
:100D9B00539DBFE59D5407F5501208720DBA000D17
:100DAB00CF010DC2020DC7030DCC0400000DCF12F5
:100DBB0014AD1214A9800D12112480081212B580E3
:040DCB00031214AD4E
:100DCF00D007D006D005D004D003D002D001D00078
:0B0DDF00D0D0D082D083D0F0D0E03222
:10134600758E01438901758A20758CD1C28CD2A90C
:05135600D28CD2AF2291
:03000B00021031AF
:10103100C0E0C0F0C083C082C0D075D000C000C085
:1010410001C002C003C004C005C006C007758A20E4
:10105100758CD1B282121279D007D006D005D00496
:10106100D003D002D001D000D0D0D082D083D0F034
:03107100D0E0329A
:100EB4000000000000000005000A0BB800C8006430
:100EC400000200000000000400000001FFFFFFFF1B
:100ED4000071022E0408150505A4022E04081A0543
:100EE4000818022E0408280507F0022E0408240519
:100EF40007D3022E040820050854022E04081A05FC
:0D0F040007DD022E0408150508570A0A2013
:03137A00017E00F1
:0B142100900EBEE493FE740193FF22C6
:0B142C00900EC2E493FE740193FF22B7
:0B143700900EBCE493FE740193FF22B2
:0314BD007F01228A
:1010F0008F51EF75F008A424DCF582E4340EF583FB
:10110000E493FF7E007F00FEAD51ED75F008A4244E
:10111000DDF582E4340EF583E493FD7C00EF2DFFD2
:04112000EE3CFE2281
:10135B008F52EF75F008A424D9F582E4340EF5838F
:04136B00E493FF22E6
:0B144200900EB6E493FE740193FF22AD
:091474008F53746C2FF8E6FF227F
:08147D007856E6FFC313FF22BD
:0A1461007856E6FF75F00384FF22C1
:0211F8008F481E
:1011FA001210F08E498F4AE54A7803C333CE33CEB4
:0E120A00D8F9FF7C007D0A1207ED8E498F4A4D
:0112180022B3
:101074007545007546017547F3754400E544C3940E
:1010840010502AE546C313F546E54713F54730D714
:1010940018AF4574152FF582E43400F583E544F068
:1010A4000545E545C394075004054480CF85453F75
:0110B4002219
:100FED008F54E554120872100700100E01101502EF
:100FFD00101C031023040000102E900ED6E493FF56
:10100D0022900ED7E493FF22900ED8E493FF229006
:10101D000ED8E493FF22900EC8E493FE740193FF63
:04102D00227F0022FC
:100F1100900EBAE493FE740193FF7856F6900ED4C6
:100F2100E493FE740193FF900039F012107475552B
:100F310000E555C3953F501FAF55EF75F008A42448
:100F4100DAF582E4340EF583E493FFAE55746C2E2A
:0E0F5100F8A607055580DA7875760008760058
:010F5F00226F
:1009D600753600753900753A001214C35003020AC1
:1009E600AF1212598E378F38753500E535C3953FEE
:1009F6005038E537C313F537E53813F53830D726C1
:100A0600AF3574152FF582E43400F583E0FF7E00E0
:100A16007401A807088005C333CE33CED8F9FF4248
:100A26003AEE42390536053580C1E536C3940240B3
:100A360015D200E536940340051214C68008121438
:100A460042EF6002C200200019E53A4539600A7893
:100A56007606E61870010680177875760008760027
:100A6600800E787406E618700106753900753A002E
:100A76001214217875E6FC08E6FDD39FEC9E400A29
:100A86001214C6787576000876007873E6FE08E6D6
:100A9600FFD3942CEE9401401D1214C6787E760185
:100AA60078737600087600800D900EC4E493FE7489
:0A0AB6000193FF1205A3AE39AF3A19
:010AC0002213
:03005B000210B5DB
:1010B500C0E0C0F0C083C082C0D075D000C000C001
:1010C50001C002C003C004C005C006C007120C7EE3
:1010D500D007D006D005D004D003D002D001D0006F
:0B10E500D0D0D082D083D0F0D0E03219
:04137D0041004C00DF
:0C13DE00EF4E6007EF1F70F81E80F52234
:020BEE008F2B4B
:100BF0001214748F2CAF2B12135BEFFB90004BE0A1
:100C000025E0FF90004AE033FE7C007D0A1207EDEC
:100C1000AD037C001207DB75F002E52B900000129B
:100C20000866E0FCA3E0C39FEC9E5007E52C604DF6
:100C3000148040AF2B12135BEFFB90004AE0FEA341
:100C4000E0FF7C007D071207DB7D0A1207EDAD0394
:100C50007C001207DB75F002E52B9000001208669D
:100C6000E0FCA3E0D39FEC9E4013E52C647E600D76
:0D0C7000E52C04FF746C252BF8A607D201BB
:010C7D002254
:100C7E00C2037881E675F00290001C120866E5E565
:100C8E00F0A3E5E4F006E6C3953F400BE4F69000D2
:100C9E0038E04480F08002D2037F02120FEDEFC4E1
:100CAE0054F0F5E17881E6FF12135B7E0090004A66
:100CBE00E0FCA3E0FD1207DB8EE78FE67F02120F4A
:100CCE00EDEFC454F0FEC006E4FF120FEDD0E02F9E
:100CDE00F5E17881E6FF121474E5E254804FF5E2F7
:100CEE007881E62415F582E43400F583E04480F53E
:060CFE00E8300302D2EE13
:010D040022CC
:100B5B0075FE8543FF20D2AFC201E47881F6900089
:100B6B0038F0120F11E4FF120FEDEF2401FDE43307
:100B7B00FC7E0B7FB81207ED90004AEEF0A3EFF06E
:100B8B00E4FF12135B7E0090004AE0FCA3E0FD1231
:100B9B0007DB8EE78FE67F02120FEDEFC454F0FEFA
:100BAB00C006E4FF120FEDD0E02FF5E17F04120F2A
:100BBB00EDEF6008E5E254804480F5E27F03120F0D
:100BCB00EDE5E254804FF5E27F01120FED8FE3125A
:100BDB000FA843A910900015E04480F5E8120DEA28
:030BEB0002117B79
:0314C000D2EE2247
:1011CF00E4FD900038E0547FF0D2EE900038E05408
:1011DF008070157FE87E031213DE43CF100DEDC331
:0811EF0094327480948040E307
:0111F70022D5
:100DEA00900F10E493F5211211CFE4F522E522C306
:100DFA00953F502975F002E52290001C120866E022
:100E0A00FEA3E0FF75F002E522900000120866EEEC
:100E1A00F0A3EFF0AF22120BEE052280D0AF21151E
:100E2A0021EF70C31211A51214378F211211CFE4CA
:100E3A00F522E522C3953F5009AF221208980522F0
:090E4A0080F0AF211521EF70E3E7
:010E5300227C
:10117B00E4FFEFC3953F502175F002EF90001C1276
:10118B000866E0FCA3E0FD75F002EF90000012088A
:09119B0066ECF0A3EDF00F80D921
:0111A4002228
:10125900E47882F6F521E521C3953F500EAF2112BE
:0F1269000898AF21120100052180EBAE3BAF3C8E
:011278002253
:020100008F224C
:10010200E4F52A75F002EF900000120866E0FEA303
:10011200E0FF75F002E52290001C120866E0FCA3E5
:10012200E0C39FF524EC9EF5237E007401A822080B
:100132008005C333CE33CED8F9F53E8E3DAF2212C1
:1001420010F08E288F29C3E5249529E5286480F8CC
:10015200E52364809840057525018003E4F525E5D3
:1001620025640160030202AA74572522F8E6C394AB
:10017200FA74809480500674572522F806E53B55A0
:100182003DFEE53C553E4E600302027F7856E6F5A1
:10019200271214BDEF6032E4F525F526E526C39556
:1001A2003F501574572526F8E6C394017480948055
:1001B20040020525052680E4C3E525940374809456
:1001C200804006740F2527F52774572522F8E6C3C9
:1001D2009527500302027FE4F525121442EF705571
:1001E200F526E526C3953F501CE5226526601212CE
:1001F200146174572526F8E6C39F400575250180D2
:1002020004052680DD1214BDEF3395E04F705EE5E4
:1002120025705AF526E526C3953F5051E5226526FD
:10022200600F121461745E2526F8E6C39F400280B7
:1002320039052680E01214BDEF3395E04F702EF59C
:1002420027F526E526C3953F501574572526F8E66F
:10025200C394027480948040020527052680E4C37B
:10026200E5279403748094804003752501E5256495
:10027200017002D200E53E423CE53D423B746525F9
:1002820022F8E4F674772522F8E4F675F002E52206
:1002920090002A120866E4F0A3F0740E2522F5827B
:1002A200E43400F583E4F022AF221211F8D3E524FE
:1002B2009FEE6480F8E5236480984008745E2522EE
:1002C200F806800A788206745E2522F8E4F6900029
:1002D20039E0FF3395E0FEC3E49FFDE49EFCC3E5F5
:1002E200249DEC6480F8E52364809850030203AFF8
:1002F200D3E5249FEE6480F8E523648098400302EE
:1003020003AF74652522F8E4F6740E2522F582E423
:100312003400F583E4F0E53C453B60030204C87514
:10032200F002E52290002A120866E5238524F012E5
:10033200084212142C75F002E52290002A12086677
:10034200E0FCA3E0C39FEE6480F8EC648098401167
:1003520075F002E522900000120866E475F0018053
:100362003712142CC3E49FFFE49EFE75F002E522CF
:1003720090002A120866E0FCA3E0C39FEE6480F8B6
:10038200EC64809840030204C875F002E5229000F4
:100392000012086674FFF5F012084275F002E522B9
:1003A20090002A120866E4F0A3F00204C890003913
:1003B200E0FF3395E0FEC3E49FFFE49EFEC3E52425
:1003C2009FEE6480F8E523648098400302045A7427
:1003D200652522F806740E2522F582E43400F583A1
:1003E200E4F074652522F8E6FD900F0EE493FFED2C
:1003F2008FF084E5F07054900F0F93FEEF8EF0A40F
:10040200FFC3ED9FE5F06480F8748098400F746537
:100412002522F8E4F6D201787E7601802E75F0026C
:10042200E522900000120866C083C082E0FEA3E0CD
:10043200FF900039E0A2E713FD3395E0FCC3EF9D86
:10044200FFEE9CD082D083F0A3EFF0900049E065EC
:1004520022707374FFF0806E900039E0FFFD3395D7
:10046200E0FCD3E5249DEC6480F8E52364809840A9
:100472005574652522F8E4F6E53C453B7048740E58
:100482002522F582E43400F583E004F0740E25227F
:10049200F582E43400F583E06420702A740E25228C
:1004A200F582E43400F583E4F0EFA2E713A2E71348
:1004B200FF3395E0FE75F002E52290000012086617
:1004C200EE8FF0120842E53B553DFEE53C553E4EAF
:1004D2007003020562AE28E5297802CEA2E713CEA8
:1004E20013D8F8FFC3E5299FFFE5289EFEC3E52444
:1004F2009FEE6480F8E523648098505D747725222E
:10050200F80612147D8F27E4F526E526C3953F50A1
:100512001574572526F8E6C394017480948040022E
:100522000525052680E4C3E5259403748094804064
:10053200057856E6F52774772522F8E6C395274015
:100542005FE4F6E53EF4FFE53DF4FEEF523CEE5289
:100552003B74572522F8E4F62274772522F81622F6
:1005620074572522F8E4F6E53C453B7005AF2212AC
:100572000BEEE53F14652270277882E6C3953F4073
:100582001FE4F526E526C3953F500F74572526F83C
:10059200E66003752501052680EAE5257002C200A2
:0105A2002236
:1011A500E4FFEFC3953F502175F002EF90001C124C
:1011B5000866E0FCA3E0FD75F002EF90003A120826
:0911C50066ECF0A3EDF00F80D9F7
:0111CE0022FE
:020898008F23AC
:10089A0075F002EF90003A120866E0FEA3E0FF75D9
:1008AA00F002E52390001C120866E0FCA3E0C39F57
:1008BA00F525EC9EF524AF231210F0AD07AC06D354
:1008CA00E5259DEC6480F8E5246480985016C3E41D
:1008DA009DFFE49CFEC3E5259FEE6480F8E5246451
:1008EA008098501375F002E52390001C120866E008
:1008FA00FEA3E0FF0209A5ECA2E713FEED13FFD366
:10090A00E5259FEE6480F8E5246480985016C3E4D8
:10091A009FFFE49EFEC3E5259FEE6480F8E524640C
:10092A008098503775F002E52390003A120866E085
:10093A00FCA3E0FDECC313FEED13FFC3ED9FFDEC3A
:10094A009EFC75F002E52390001C120866E0C313B2
:10095A00FEA3E0132DFFEC3EFE804075F002E52376
:10096A0090003A120866E0FCA3E0FDAE047803CEDC
:10097A00C313CE13D8F9FFC3ED9FFDEC9EFC75F0AF
:10098A0002E52390001C120866E0FEA3E07803CE7D
:10099A00C313CE13D8F92DFFEC3EFE75F002E52302
:1009AA0090003A120866EEF0A3EFF075F002E52324
:1009BA0090003A120866E0FEA3E0FF75F002E52314
:0B09CA0090001C120866EEF0A3EFF096
:0109D50022FF
:0314C300A2012261
:0314C600D201222E
:100FA800E4FFEFC3953F502974572FF8E4F67465B2
:100FB8002FF8E4F674772FF8E4F675F002EF900056
:100FC8002A120866E4F0A3F0745E2FF8E4F60F80A6
:100FD800D1E4F53BF53C90004974FFF0E4787FF6E6
:040FE80008F6C20144
:010FEC0022E2
:0205A3008F21A6
:1005A50090004CE0C3940374809480403EE4F0785E
:1005B5007EE6702DF522E522C3953F502475F002A5
:1005C500E52290003A120866E0FEA3E0FF75F0020E
:1005D500E522900000120866EEF0A3EFF0052280F8
:1005E500D5120FA8C201E4787EF622900048E004F7
:1005F500F0E0B521081211A5E4900049F0900048FB
:10060500E0D395215003020723E4F522E522C395A3
:100615003F40030206D375F002E52290003A120826
:1006250066E0FEA3E0FF75F002E52290001C1208CB
:1006350066E0FCA3E0C39FFFEC9EAD07FC787EE679
:100645007042900039E0FB3395E0FAFEEB7802C387
:1006550033CE33CED8F9FFD3ED9FEE6480F8EC644A
:1006650080984060E49BFFE49AFEEF7802C333CEA6
:1006750033CED8F9FFC3ED9FEE6480F8EC64809823
:100685005042804A900039E0FB3395E0FAFEEB7862
:1006950003C333CE33CED8F9FFD3ED9FEE6480F894
:1006A500EC648098401EE49BFFE49AFEEF7803C358
:1006B50033CE33CED8F9FFC3ED9FEE6480F8EC64FA
:1006C5008098400AAF221208980522020611E522F9
:1006D500B53F06900049E004F0E52175F008A4FF58
:1006E500900048E0C39FE5F06480F8748098402E40
:1006F500E4F0C20090004CE004F0E52175F004A49C
:10070500FF900049E0C39FE5F06480F8748098404D
:0E0715000DE490004CF012117B120FA8C201EF
:0107230022B3
:03000000020AC130
:100AC10078FFE4F6D8FD9000007F007E03E4F0A3F8
:0A0AD100DFFCDEFA758182020B16CD
:1007240074F8CC6480CCC86480C8F58204604FC37C
:10073400EB9FF5F0EA9E42F0E99D42F0E89C45F01B
:10074400603C501DE5825FFFE582D313CB5BCBF4A5
:100754002B5582FB50280ABA002409B900200880CE
:100764001DE5825BFBE582D313CF5FCFF4C3132F68
:100774005582FF50090EBE00050DBD00010CC3EBF0
:100784009FF5F0EA9E42F0E99D42F0E89C45F06056
:0907940007CC4820E701B3EC2278
:10079D0075F020800E75F010800575F0087D007ED7
:1007AD00007F003392D530D503120858EC3340103A
:1007BD00EF33FFEE33FEED33FDEC33FCD5F0ED22E0
:0E07CD00E5F0247EA2D513CC92E7CDCEFF221C
:100ADB00021219E493A3F8E493A34003F68001F206
:100AEB0008DFF48029E493A3F85407240CC8C3331C
:100AFB00C4540F4420C8834004F456800146F6DFEB
:100B0B00E4800B010204081020408090136FE47EF8
:100B1B00019360BCA3FF543F30E509541FFEE493DF
:100B2B00A360010ECF54C025E060A840B8E493A3A6
:100B3B00FAE493A3F8E493A3C8C582C8CAC583CAD1
:100B4B00F0A3C8C582C8CAC583CADFE9DEE780BE89
:01138100006B
:1007DB00EF8DF0A4A8F0CF8CF0A428CE8DF0A42E32
:0207EB00FE22EC
:1007ED00BC000BBE0029EF8DF084FFADF022E4CCF0
:1007FD00F875F008EF2FFFEE33FEEC33FCEE9DECB9
:10080D00984005FCEE9DFE0FD5F0E9E4CEFD22EDFE
:10081D00F8F5F0EE8420D21CFEADF075F008EF2F48
:10082D00FFED33FD4007985006D5F0F222C398FD39
:05083D000FD5F0EA22D6
:10084200C5F0F8A3E028F0C5F0F8E5821582700241
:060852001583E038F022DE
:0E085800C3E49FFFE49EFEE49DFDE49CFC22B1
:0C086600A42582F582E5F03583F583229D
:10087200D083D082F8E4937012740193700DA3A315
:1008820093F8740193F5828883E473740293686029
:06089200EFA3A3A380DF29
:00000001FF
