LX51 LINKER/LOCATER V4.66.100.0                                                         07/27/2024  08:24:11  PAGE 1


LX51 LINKER/LOCATER V4.66.100.0, INVOKED BY:
D:\PROGRAM FILES\KEIL_V5\C51\BIN\LX51.EXE ..\OBJ\STARTUP_CMS80F761x_App.obj, ..\OBJ\uart.obj, ..\OBJ\adc.obj, ..\OBJ\fla
>> sh.obj, ..\OBJ\gpio.obj, ..\OBJ\system.obj, ..\OBJ\wdt.obj, ..\OBJ\pwm.obj, ..\OBJ\led.obj, ..\OBJ\timer.obj, ..\OBJ\
>> CheckTouchKey_Set.obj, ..\TOUCHLib\CheckTouchKey_80F761x_CS_V1.011.LIB, ..\OBJ\main.obj, ..\OBJ\delay.obj, ..\OBJ\uar
>> t_app.obj, ..\OBJ\isr.obj, ..\OBJ\bsp_led.obj, ..\OBJ\DealKey.obj, ..\OBJ\task_Event.obj, ..\OBJ\DealUARTKey.obj, ..\
>> OBJ\AiP33624.obj, ..\OBJ\Display.obj, ..\OBJ\ChkKey.obj, ..\OBJ\UARTxDrive.obj, ..\OBJ\Clock.obj, ..\OBJ\MCUHardware.
>> obj TO ..\OBJ\demo1 PRINT (..\OBJ\demo1.map) DISABLEWARNING (48) REMOVEUNUSED CLASSES (CODE (C:0X0-C:0X77FF), CONST (
>> C:0X0-C:0X77FF), ECODE (C:0X0-C:0X77FF), HCONST (C:0X0-C:0X77FF))


CPU MODE:     8051 MODE
MEMORY MODEL: LARGE


INPUT MODULES INCLUDED:
  ..\OBJ\STARTUP_CMS80F761x_App.obj (?C_STARTUP)
         COMMENT TYPE 0: AX51 V3.15.3.0
  ..\OBJ\uart.obj (UART)
         COMMENT TYPE 0: C51 V9.60.7.0
  ..\OBJ\adc.obj (ADC)
         COMMENT TYPE 0: C51 V9.60.7.0
  ..\OBJ\flash.obj (FLASH)
         COMMENT TYPE 0: C51 V9.60.7.0
  ..\OBJ\gpio.obj (GPIO)
         COMMENT TYPE 0: C51 V9.60.7.0
  ..\OBJ\system.obj (SYSTEM)
         COMMENT TYPE 0: C51 V9.60.7.0
  ..\OBJ\wdt.obj (WDT)
         COMMENT TYPE 0: C51 V9.60.7.0
  ..\OBJ\pwm.obj (PWM)
         COMMENT TYPE 0: C51 V9.60.7.0
  ..\OBJ\led.obj (LED)
         COMMENT TYPE 0: C51 V9.60.7.0
  ..\OBJ\timer.obj (TIMER)
         COMMENT TYPE 0: C51 V9.60.7.0
  ..\OBJ\CheckTouchKey_Set.obj (CHECKTOUCHKEY_SET)
         COMMENT TYPE 0: C51 V9.60.7.0
  ..\OBJ\main.obj (MAIN)
         COMMENT TYPE 0: C51 V9.60.7.0
  ..\OBJ\delay.obj (DELAY)
         COMMENT TYPE 0: C51 V9.60.7.0
  ..\OBJ\uart_app.obj (UART_APP)
         COMMENT TYPE 0: C51 V9.60.7.0
  ..\OBJ\isr.obj (ISR)
         COMMENT TYPE 0: C51 V9.60.7.0
  ..\OBJ\bsp_led.obj (BSP_LED)
         COMMENT TYPE 0: C51 V9.60.7.0
  ..\OBJ\DealKey.obj (DEALKEY)
         COMMENT TYPE 0: C51 V9.60.7.0
  ..\OBJ\task_Event.obj (TASK_EVENT)
         COMMENT TYPE 0: C51 V9.60.7.0
  ..\OBJ\DealUARTKey.obj (DEALUARTKEY)
         COMMENT TYPE 0: C51 V9.60.7.0
  ..\OBJ\AiP33624.obj (AIP33624)
         COMMENT TYPE 0: C51 V9.60.7.0
  ..\OBJ\Display.obj (DISPLAY)
         COMMENT TYPE 0: C51 V9.60.7.0
  ..\OBJ\ChkKey.obj (CHKKEY)
         COMMENT TYPE 0: C51 V9.60.7.0
  ..\OBJ\UARTxDrive.obj (UARTXDRIVE)
         COMMENT TYPE 0: C51 V9.60.7.0
  ..\OBJ\Clock.obj (CLOCK)
         COMMENT TYPE 0: C51 V9.60.7.0
  ..\OBJ\MCUHardware.obj (MCUHARDWARE)
         COMMENT TYPE 0: C51 V9.60.7.0
  ..\TOUCHLib\CheckTouchKey_80F761x_CS_V1.011.LIB (CHECKTOUCHKEY_80F761X_CS_V1_011)
LX51 LINKER/LOCATER V4.66.100.0                                                       07/27/2024  08:24:11  PAGE 2


         COMMENT TYPE 0: C51 V9.60.0.0
  D:\PROGRAM FILES\KEIL_V5\C51\LIB\C51L.LIB (?C_INIT)
         COMMENT TYPE 1: A51 / ASM51 Assembler
  D:\PROGRAM FILES\KEIL_V5\C51\LIB\C51L.LIB (?C?COPY)
         COMMENT TYPE 1: A51 / ASM51 Assembler
  D:\PROGRAM FILES\KEIL_V5\C51\LIB\C51L.LIB (?C?CLDPTR)
         COMMENT TYPE 1: A51 / ASM51 Assembler
  D:\PROGRAM FILES\KEIL_V5\C51\LIB\C51L.LIB (?C?CLDOPTR)
         COMMENT TYPE 1: A51 / ASM51 Assembler
  D:\PROGRAM FILES\KEIL_V5\C51\LIB\C51L.LIB (?C?CILDOPTR)
         COMMENT TYPE 1: A51 / ASM51 Assembler
  D:\PROGRAM FILES\KEIL_V5\C51\LIB\C51L.LIB (?C?CSTPTR)
         COMMENT TYPE 1: A51 / ASM51 Assembler
  D:\PROGRAM FILES\KEIL_V5\C51\LIB\C51L.LIB (?C?CSTOPTR)
         COMMENT TYPE 1: A51 / ASM51 Assembler
  D:\PROGRAM FILES\KEIL_V5\C51\LIB\C51L.LIB (?C?UIDIV)
         COMMENT TYPE 1: A51 / ASM51 Assembler
  D:\PROGRAM FILES\KEIL_V5\C51\LIB\C51L.LIB (?C?IILDX)
         COMMENT TYPE 1: A51 / ASM51 Assembler
  D:\PROGRAM FILES\KEIL_V5\C51\LIB\C51L.LIB (?C?ILDIX)
         COMMENT TYPE 1: A51 / ASM51 Assembler
  D:\PROGRAM FILES\KEIL_V5\C51\LIB\C51L.LIB (?C?SLDIV)
         COMMENT TYPE 1: A51 / ASM51 Assembler
  D:\PROGRAM FILES\KEIL_V5\C51\LIB\C51L.LIB (?C?LNOT)
         COMMENT TYPE 1: A51 / ASM51 Assembler
  D:\PROGRAM FILES\KEIL_V5\C51\LIB\C51L.LIB (?C?SLCMP)
         COMMENT TYPE 1: A51 / ASM51 Assembler
  D:\PROGRAM FILES\KEIL_V5\C51\LIB\C51L.LIB (?C?ULCMP)
         COMMENT TYPE 1: A51 / ASM51 Assembler
  D:\PROGRAM FILES\KEIL_V5\C51\LIB\C51L.LIB (?C?LSHL)
         COMMENT TYPE 1: A51 / ASM51 Assembler
  D:\PROGRAM FILES\KEIL_V5\C51\LIB\C51L.LIB (?C?LLDCODE)
         COMMENT TYPE 1: A51 / ASM51 Assembler
  D:\PROGRAM FILES\KEIL_V5\C51\LIB\C51L.LIB (?C?LLDCODE0)
         COMMENT TYPE 1: A51 / ASM51 Assembler
  D:\PROGRAM FILES\KEIL_V5\C51\LIB\C51L.LIB (?C?LSTXDATA)
         COMMENT TYPE 1: A51 / ASM51 Assembler
  D:\PROGRAM FILES\KEIL_V5\C51\LIB\C51L.LIB (?C?LSTKXDATA)
         COMMENT TYPE 1: A51 / ASM51 Assembler
  D:\PROGRAM FILES\KEIL_V5\C51\LIB\C51L.LIB (?C?PLDOPTR)
         COMMENT TYPE 1: A51 / ASM51 Assembler
  D:\PROGRAM FILES\KEIL_V5\C51\LIB\C51L.LIB (?C?CCASE)
         COMMENT TYPE 1: A51 / ASM51 Assembler
  D:\PROGRAM FILES\KEIL_V5\C51\LIB\C51L.LIB (?C?LCASE)
         COMMENT TYPE 1: A51 / ASM51 Assembler
  D:\PROGRAM FILES\KEIL_V5\C51\LIB\C51L.LIB (?C?MEMCMP)
         COMMENT TYPE 1: A51 / ASM51 Assembler
  D:\PROGRAM FILES\KEIL_V5\C51\LIB\C51L.LIB (?C?ULDIV)
         COMMENT TYPE 1: A51 / ASM51 Assembler
  D:\PROGRAM FILES\KEIL_V5\C51\LIB\C51L.LIB (?C?PLDIDATA)
         COMMENT TYPE 1: A51 / ASM51 Assembler
  D:\PROGRAM FILES\KEIL_V5\C51\LIB\C51L.LIB (?C?PLDXDATA)
         COMMENT TYPE 1: A51 / ASM51 Assembler
  D:\PROGRAM FILES\KEIL_V5\C51\LIB\C51L.LIB (?C?PLDPDATA)
         COMMENT TYPE 1: A51 / ASM51 Assembler
  D:\PROGRAM FILES\KEIL_V5\C51\LIB\C51L.LIB (?C?PLDCODE)
         COMMENT TYPE 1: A51 / ASM51 Assembler


ACTIVE MEMORY CLASSES OF MODULE:  ..\OBJ\demo1 (?C_STARTUP)

BASE        START       END         USED      MEMORY CLASS
==========================================================
C:000000H   C:000000H   C:0077FFH   0056CAH   CODE
C:000000H   C:000000H   C:0077FFH   00017BH   CONST
LX51 LINKER/LOCATER V4.66.100.0                                                       07/27/2024  08:24:11  PAGE 3


C:000000H   C:000000H   C:0077FFH             ECODE
C:000000H   C:000000H   C:0077FFH             HCONST
I:000000H   I:000000H   I:0000FFH   000001H   IDATA
X:000000H   X:000000H   X:00FFFFH   00067CH   XDATA
I:000000H   I:000000H   I:00007FH   000026H   DATA
I:000020H.0 I:000020H.0 I:00002FH.7 000000H.7 BIT


MEMORY MAP OF MODULE:  ..\OBJ\demo1 (?C_STARTUP)


START     STOP      LENGTH    ALIGN  RELOC    MEMORY CLASS   SEGMENT NAME
=========================================================================

* * * * * * * * * * *   D A T A   M E M O R Y   * * * * * * * * * * * * *
000000H   000007H   000008H   ---    AT..     DATA           "REG BANK 0"
000008H   00001BH   000014H   BYTE   UNIT     DATA           _DATA_GROUP_
00001CH.0 00001FH.7 000004H.0 ---    ---      **GAP**
000020H.0 000020H.6 000000H.7 BIT    UNIT     BIT            ?BI?CHECKTOUCHKEY_80F761X_CS_V1_011
000020H.7 000020H   000000H.1 ---    ---      **GAP**
000021H   00002AH   00000AH   BYTE   UNIT     DATA           ?DT?CLOCK
00002BH   00002BH   000001H   BYTE   UNIT     IDATA          ?STACK

* * * * * * * * * * *   C O D E   M E M O R Y   * * * * * * * * * * * * *
000000H   000002H   000003H   ---    OFFS..   CODE           ?CO?STARTUP_CMS80F761X_APP?3
000003H   000005H   000003H   BYTE   OFFS..   CODE           ?ISR?00003
000006H   000009H   000004H   BYTE   UNIT     CODE           ?PR?F_DEALUARTKEY_FRAMEDECODE?DEALUARTKEY
00000AH   00000AH   000001H   BYTE   UNIT     CODE           ?PR?INT0_IRQHANDLER?ISR
00000BH   00000DH   000003H   BYTE   OFFS..   CODE           ?ISR?0000B
00000EH   000011H   000004H   BYTE   UNIT     CODE           ?PR?F_DEALUARTKEY_FRAMEDECODE2?DEALUARTKEY
000012H   000012H   000001H   BYTE   UNIT     CODE           ?PR?INT1_IRQHANDLER?ISR
000013H   000015H   000003H   BYTE   OFFS..   CODE           ?ISR?00013
000016H   000019H   000004H   BYTE   UNIT     CODE           ?PR?F_DEALUARTKEY_FRAMEDECODE3?DEALUARTKEY
00001AH   00001AH   000001H   BYTE   UNIT     CODE           ?PR?TIMER1_IRQHANDLER?ISR
00001BH   00001DH   000003H   BYTE   OFFS..   CODE           ?ISR?0001B
00001EH   000021H   000004H   BYTE   UNIT     CODE           ?PR?F_CHKKEY_10MSROUTINE?CHKKEY
000022H   000022H   000001H   BYTE   UNIT     CODE           ?PR?TIMER2_IRQHANDLER?ISR
000023H   000025H   000003H   BYTE   OFFS..   CODE           ?ISR?00023
000026H   000029H   000004H   BYTE   UNIT     CODE           ?PR?F_UARTXDRIVE_1MSROUTINE?UARTXDRIVE
00002AH   00002AH   000001H   BYTE   UNIT     CODE           ?PR?P0EI_IRQHANDLER?ISR
00002BH   00002DH   000003H   BYTE   OFFS..   CODE           ?ISR?0002B
00002EH   000031H   000004H   BYTE   UNIT     CODE           ?PR?GPIO_CONFIG?MCUHARDWARE
000032H   000032H   000001H   BYTE   UNIT     CODE           ?PR?P1EI_IRQHANDLER?ISR
000033H   000035H   000003H   BYTE   OFFS..   CODE           ?ISR?00033
000036H   000036H   000001H   BYTE   UNIT     CODE           ?PR?P2EI_IRQHANDLER?ISR
000037H   000037H   000001H   BYTE   UNIT     CODE           ?PR?P3EI_IRQHANDLER?ISR
000038H   000038H   000001H   BYTE   UNIT     CODE           ?PR?P4EI_IRQHANDLER?ISR
000039H   000039H   000001H   BYTE   UNIT     CODE           ?PR?P5EI_IRQHANDLER?ISR
00003AH   00003AH   000001H   BYTE   UNIT     CODE           ?PR?TIMER3_IRQHANDLER?ISR
00003BH   00003DH   000003H   BYTE   OFFS..   CODE           ?ISR?0003B
00003EH   00003EH   000001H   BYTE   UNIT     CODE           ?PR?TIMER4_IRQHANDLER?ISR
00003FH   00003FH   000001H   BYTE   UNIT     CODE           ?PR?LED_IRQHANDLER?ISR
000040H   000040H   000001H   BYTE   UNIT     CODE           ?PR?PWM_IRQHANDLER?ISR
000041H   000041H   000001H   BYTE   UNIT     CODE           ?PR?ADC_IRQHANDLER?ISR
000042H   000042H   000001H   BYTE   UNIT     CODE           ?PR?I2C_IRQHANDLER?ISR
000043H   000045H   000003H   BYTE   OFFS..   CODE           ?ISR?00043
000046H   000046H   000001H   BYTE   UNIT     CODE           ?PR?SPI_IRQHANDLER?ISR
000047H   000047H   000001H   BYTE   UNIT     CODE           ?PR?LSE_SCM_IRQHANDLER?ISR
000048H   000048H   000001H   BYTE   UNIT     CODE           ?PR?LVD_IRQHANDLER?ISR
000049H   000049H   000001H   BYTE   UNIT     CODE           ?PR?WWDT_IRQHANDLER?ISR
00004AH   00004AH   000001H   BYTE   UNIT     CODE           ?PR?BSP_INITLEDHARD?BSP_LED
00004BH   00004DH   000003H   BYTE   OFFS..   CODE           ?ISR?0004B
00004EH   000052H   000005H   ---    ---      **GAP**
000053H   000055H   000003H   BYTE   OFFS..   CODE           ?ISR?00053
000056H   00005AH   000005H   ---    ---      **GAP**
LX51 LINKER/LOCATER V4.66.100.0                                                       07/27/2024  08:24:11  PAGE 4


00005BH   00005DH   000003H   BYTE   OFFS..   CODE           ?ISR?0005B
00005EH   000062H   000005H   ---    ---      **GAP**
000063H   000065H   000003H   BYTE   OFFS..   CODE           ?ISR?00063
000066H   000078H   000013H   BYTE   UNIT     CODE           ?PR?F_DEALUARTKEY_RECVSUCCESSROUTINE?DEALUARTKEY
000079H   00007AH   000002H   ---    ---      **GAP**
00007BH   00007DH   000003H   BYTE   OFFS..   CODE           ?ISR?0007B
00007EH   000082H   000005H   ---    ---      **GAP**
000083H   000085H   000003H   BYTE   OFFS..   CODE           ?ISR?00083
000086H   00008AH   000005H   ---    ---      **GAP**
00008BH   00008DH   000003H   BYTE   OFFS..   CODE           ?ISR?0008B
00008EH   000092H   000005H   ---    ---      **GAP**
000093H   000095H   000003H   BYTE   OFFS..   CODE           ?ISR?00093
000096H   00009AH   000005H   ---    ---      **GAP**
00009BH   00009DH   000003H   BYTE   OFFS..   CODE           ?ISR?0009B
00009EH   0000A2H   000005H   ---    ---      **GAP**
0000A3H   0000A5H   000003H   BYTE   OFFS..   CODE           ?ISR?000A3
0000A6H   0000AAH   000005H   ---    ---      **GAP**
0000ABH   0000ADH   000003H   BYTE   OFFS..   CODE           ?ISR?000AB
0000AEH   0000B2H   000005H   ---    ---      **GAP**
0000B3H   0000B5H   000003H   BYTE   OFFS..   CODE           ?ISR?000B3
0000B6H   0000BAH   000005H   ---    ---      **GAP**
0000BBH   0000BDH   000003H   BYTE   OFFS..   CODE           ?ISR?000BB
0000BEH   0000C9H   00000CH   BYTE   UNIT     CODE           ?PR?WDT_GETOVERFLOWINTFLAG?WDT
0000CAH   0000CAH   000001H   ---    ---      **GAP**
0000CBH   0000CDH   000003H   BYTE   OFFS..   CODE           ?ISR?000CB
0000CEH   0000D2H   000005H   ---    ---      **GAP**
0000D3H   0000D5H   000003H   BYTE   OFFS..   CODE           ?ISR?000D3
0000D6H   0000DAH   000005H   ---    ---      **GAP**
0000DBH   0000DDH   000003H   BYTE   OFFS..   CODE           ?MAIN?000DB
0000DEH   0000E2H   000005H   ---    ---      **GAP**
0000E3H   0000E5H   000003H   BYTE   OFFS..   CODE           ?ISR?000E3
0000E6H   000752H   00066DH   BYTE   UNIT     CODE           ?PR?DIS_INNER_RING?DISPLAY
000753H   000D49H   0005F7H   BYTE   UNIT     CODE           ?C?LIB_CODE
000D4AH   001305H   0005BCH   BYTE   UNIT     CODE           ?PR?DIS_OUTER_RING?DISPLAY
001306H   001837H   000532H   BYTE   UNIT     CODE           ?PR?_HEAD_UPLINK_DATA_GET?TASK_EVENT
001838H   001C29H   0003F2H   BYTE   UNIT     CODE           ?PR?__CMS_CHECKONCERESULT?CHECKTOUCHKEY_80F761X_CS_V1_011
001C2AH   001FE6H   0003BDH   BYTE   UNIT     CODE           ?PR?LED_DIS?DISPLAY
001FE7H   0022DFH   0002F9H   BYTE   UNIT     CODE           ?PR?_HEAD_FRAME_TX_DATA?TASK_EVENT
0022E0H   0025D7H   0002F8H   BYTE   UNIT     CODE           ?PR?TASK_LOAD_EVENT?TASK_EVENT
0025D8H   0028BAH   0002E3H   BYTE   UNIT     CODE           ?PR?___CMS_CURADJUSTDL?CHECKTOUCHKEY_80F761X_CS_V1_011
0028BBH   002B60H   0002A6H   BYTE   UNIT     CODE           ?PR?_HEAD_FRAME_RX_DATA?TASK_EVENT
002B61H   002D2DH   0001CDH   BYTE   UNIT     CODE           ?PR?__CMS_CHECKKEYOLDVALUE?CHECKTOUCHKEY_80F761X_CS_V1_011
002D2EH   002EF5H   0001C8H   BYTE   UNIT     CODE           ?PR?DIDPLAY_TIME?DISPLAY
002EF6H   0030A5H   0001B0H   BYTE   UNIT     CODE           ?PR?_F_UARTXDRIVE_SENDFRAME?UARTXDRIVE
0030A6H   00323FH   00019AH   BYTE   UNIT     CODE           ?C_INITSEG
003240H   0033D2H   000193H   BYTE   UNIT     CODE           ?PR?__CMS_CURADJUST?CHECKTOUCHKEY_80F761X_CS_V1_011
0033D3H   00355EH   00018CH   BYTE   UNIT     CODE           ?PR?__CMS_NOISE_CHECK?CHECKTOUCHKEY_80F761X_CS_V1_011
00355FH   0036DEH   000180H   BYTE   UNIT     CODE           ?PR?F_DEALUARTKEY_SLAVESENDFRAMEDECODE2?DEALUARTKEY
0036DFH   0037EBH   00010DH   BYTE   UNIT     CODE           ?PR?__CMS_KEYSTART?CHECKTOUCHKEY_80F761X_CS_V1_011
0037ECH   0038F3H   000108H   BYTE   UNIT     CODE           ?PR?__CMS_KEY_UNNOL_CHECK?CHECKTOUCHKEY_80F761X_CS_V1_011
0038F4H   0039E9H   0000F6H   BYTE   UNIT     CODE           ?PR?_F_UARTXDRIVE_READFRAME?UARTXDRIVE
0039EAH   003ADAH   0000F1H   BYTE   UNIT     CODE           ?PR?F_CHKKEY_KEYCHECKROUTINE?CHKKEY
003ADBH   003BC2H   0000E8H   BYTE   UNIT     CODE           ?PR?FULL_BRIGHT?DISPLAY
003BC3H   003CA4H   0000E2H   BYTE   UNIT     CODE           ?PR?F_CLOCK_1MSHANDLER?CLOCK
003CA5H   003D6BH   0000C7H   BYTE   UNIT     CODE           ?PR?F_UARTXDRIVE_FRAMEOUT_1MSROUTINE?UARTXDRIVE
003D6CH   003E28H   0000BDH   BYTE   UNIT     CODE           ?PR?BRIGHT_CONTROL?BSP_LED
003E29H   003EE0H   0000B8H   BYTE   UNIT     CODE           ?PR?F_UARTXDRIVE_INIT?UARTXDRIVE
003EE1H   003F8EH   0000AEH   BYTE   UNIT     CODE           ?PR?GPIO_INIT?MCUHARDWARE
003F8FH   004039H   0000ABH   BYTE   UNIT     CODE           ?PR?__CMS_KEYDATIIR?CHECKTOUCHKEY_80F761X_CS_V1_011
00403AH   0040E1H   0000A8H   BYTE   UNIT     CODE           ?PR?__CMS_CHECKTOUCHKEY?CHECKTOUCHKEY_80F761X_CS_V1_011
0040E2H   004188H   0000A7H   BYTE   UNIT     CODE           ?PR?F_DEALKEY_KEYEVENTJUDGEROUTINE?DEALKEY
004189H   004224H   00009CH   BYTE   UNIT     CODE           ?PR?_BSP_LEDOFF?BSP_LED
004225H   0042C0H   00009CH   BYTE   UNIT     CODE           ?PR?___CMS_KEYCLEARONE?CHECKTOUCHKEY_80F761X_CS_V1_011
0042C1H   00435AH   00009AH   BYTE   UNIT     CODE           ?C_C51STARTUP
00435BH   0043F3H   000099H   BYTE   UNIT     CODE           ?PR?_BSP_LEDON?BSP_LED
LX51 LINKER/LOCATER V4.66.100.0                                                       07/27/2024  08:24:11  PAGE 5


0043F4H   004488H   000095H   BYTE   UNIT     CODE           ?PR?__CMS_GETTOUCHKEYVALUE?CHECKTOUCHKEY_80F761X_CS_V1_011
004489H   004517H   00008FH   BYTE   UNIT     CODE           ?PR?MAIN?MAIN
004518H   00459BH   000084H   BYTE   UNIT     CODE           ?PR?_SETLEDMODE?BSP_LED
00459CH   004618H   00007DH   BYTE   UNIT     CODE           ?PR?F_MCUHARDWARE_INIT?MCUHARDWARE
004619H   004693H   00007BH   BYTE   UNIT     CODE           ?PR?UART0_IRQHANDLER?ISR
004694H   00470EH   00007BH   BYTE   UNIT     CODE           ?PR?__CMS_KEYMODESET?CHECKTOUCHKEY_80F761X_CS_V1_011
00470FH   00477DH   00006FH   BYTE   UNIT     CODE           ?PR?_UART_CONFIGRUNMODE?UART
00477EH   0047ECH   00006FH   BYTE   UNIT     CODE           ?PR?_TMR_CONFIGRUNMODE?TIMER
0047EDH   004857H   00006BH   BYTE   UNIT     CODE           ?PR?F_CHKKEY_TOUCHBITS2GLOBALBITS?CHKKEY
004858H   0048BEH   000067H   BYTE   UNIT     CODE           ?PR?UART1_IRQHANDLER?ISR
0048BFH   004925H   000067H   BYTE   UNIT     CODE           ?PR?UART2_IRQHANDLER?ISR
004926H   004986H   000061H   BYTE   UNIT     CODE           ?PR?_TMR_CONFIGTIMERCLK?TIMER
004987H   0049E6H   000060H   BYTE   UNIT     CODE           ?PR?F_DEALUARTKEY_SLAVESENDFRAMEDECODE?DEALUARTKEY
0049E7H   004A44H   00005EH   BYTE   UNIT     CODE           ?PR?HEAD_COMM_SEND2?TASK_EVENT
004A45H   004A9FH   00005BH   BYTE   UNIT     CODE           ?PR?_UART_GETRECEIVEINTFLAG?UART
004AA0H   004AF9H   00005AH   BYTE   UNIT     CODE           ?PR?TIMER0_IRQHANDLER?ISR
004AFAH   004B50H   000057H   BYTE   UNIT     CODE           ?PR?_TMR_CONFIGTIMERPERIOD?TIMER
004B51H   004BA3H   000053H   BYTE   UNIT     CODE           ?PR?_UART_GETSENDINTFLAG?UART
004BA4H   004BF4H   000051H   BYTE   UNIT     CODE           ?PR?WDT_IRQHANDLER?ISR
004BF5H   004C44H   000050H   BYTE   UNIT     CODE           ?PR?_UART_CLEARRECEIVEINTFLAG?UART
004C45H   004C94H   000050H   BYTE   UNIT     CODE           ?PR?_UART_CLEARSENDINTFLAG?UART
004C95H   004CE4H   000050H   BYTE   UNIT     CODE           ?PR?CCTOUCH_IRQHANDLER?MAIN
004CE5H   004D33H   00004FH   BYTE   UNIT     CODE           ?PR?UART0_APP_CONFIG?UART_APP
004D34H   004D80H   00004DH   BYTE   UNIT     CODE           ?PR?_F_UARTKEY_CALCVARIFY?DEALUARTKEY
004D81H   004DCAH   00004AH   BYTE   UNIT     CODE           ?PR?HEAD_COMM_SEND?TASK_EVENT
004DCBH   004E13H   000049H   BYTE   UNIT     CODE           ?PR?_F_UARTXDRIVE_UART0RECEIVECHAR_HANDLER?UARTXDRIVE
004E14H   004E5BH   000048H   BYTE   UNIT     CODE           ?PR?_F_UARTKEY_CALCVARIFY2?DEALUARTKEY
004E5CH   004EA3H   000048H   BYTE   UNIT     CODE           ?PR?__CMS_CHECKVALIDTIME?CHECKTOUCHKEY_80F761X_CS_V1_011
004EA4H   004EE7H   000044H   BYTE   UNIT     CODE           ?PR?_AIP33624_WRITEDATA?AIP33624
004EE8H   004F2BH   000044H   BYTE   UNIT     CODE           ?C?LDIV
004F2CH   004F6EH   000043H   BYTE   UNIT     CODE           ?PR?F_UARTXDRIVE_UART0POPTXNEXTDATA?UARTXDRIVE
004F6FH   004FB0H   000042H   BYTE   UNIT     CODE           ?PR?F_DEALUARTKEY_SLAVESENDFRAMEDECODE3?DEALUARTKEY
004FB1H   004FF0H   000040H   BYTE   UNIT     CODE           ?PR?F_DEALUARTKEY_RECVDONEROUTINE?DEALUARTKEY
004FF1H   00502FH   00003FH   BYTE   UNIT     CODE           ?PR?BSP_INITLEDVAR?BSP_LED
005030H   00506EH   00003FH   BYTE   UNIT     CODE           ?PR?_AIP33624_WRITE?AIP33624
00506FH   0050ABH   00003DH   BYTE   UNIT     CODE           ?PR?___CMS_KEYHAVEDOWN?CHECKTOUCHKEY_80F761X_CS_V1_011
0050ACH   0050E7H   00003CH   BYTE   UNIT     CODE           ?PR?F_DEALUARTKEY_ROUTINE?DEALUARTKEY
0050E8H   005123H   00003CH   BYTE   UNIT     CODE           ?PR?_F_UARTXDRIVE_TXRESET?UARTXDRIVE
005124H   00515DH   00003AH   BYTE   UNIT     CODE           ?PR?___CMS_KEYOPEN?CHECKTOUCHKEY_80F761X_CS_V1_011
00515EH   005192H   000035H   BYTE   UNIT     CODE           ?PR?F_DEALUARTKEY_INIT?DEALUARTKEY
005193H   0051C7H   000035H   BYTE   UNIT     CODE           ?PR?BREATHCNT_10MS?DISPLAY
0051C8H   0051F7H   000030H   BYTE   UNIT     CODE           ?PR?LED_CONFIG?DISPLAY
0051F8H   005224H   00002DH   BYTE   UNIT     CODE           ?PR?F_CLOCK_1SECHANDLER?CLOCK
005225H   00524DH   000029H   BYTE   UNIT     CODE           ?PR?_UART_ENABLEDOUBLEFREQUENCY?UART
00524EH   005276H   000029H   BYTE   UNIT     CODE           ?PR?_UART_ENABLERECEIVE?UART
005277H   00529FH   000029H   BYTE   UNIT     CODE           ?PR?_F_UARTXDRIVE_RXRESET?UARTXDRIVE
0052A0H   0052C7H   000028H   BYTE   UNIT     CODE           ?PR?_TMR_ENABLEOVERFLOWINT?TIMER
0052C8H   0052EFH   000028H   BYTE   UNIT     CODE           ?PR?_TMR_START?TIMER
0052F0H   005316H   000027H   BYTE   UNIT     CODE           ?PR?TMR0_CONFIG?MCUHARDWARE
005317H   00533CH   000026H   BYTE   UNIT     CODE           ?PR?LED_INIT?DISPLAY
00533DH   005362H   000026H   BYTE   UNIT     CODE           ?PR?___CMS_KEYISIN?CHECKTOUCHKEY_80F761X_CS_V1_011
005363H   005387H   000025H   BYTE   UNIT     CODE           ?PR?_UART_CONFIGBRTPERIOD?UART
005388H   0053ABH   000024H   BYTE   UNIT     CODE           ?PR?F_DEALUARTKEY_SENDIDLEROUTINE?DEALUARTKEY
0053ACH   0053CFH   000024H   BYTE   UNIT     CODE           ?PR?AIP33624_INIT?AIP33624
0053D0H   0053F2H   000023H   BYTE   UNIT     CODE           ?PR?INNERCNT_10MS?DISPLAY
0053F3H   005415H   000023H   BYTE   UNIT     CODE           ?PR?OUTERCNT_10MS?DISPLAY
005416H   005437H   000022H   BYTE   UNIT     CODE           ?PR?_UART_CONFIGBRTCLK?UART
005438H   005458H   000021H   BYTE   UNIT     CODE           ?PR?_UART_ENABLEINT?UART
005459H   005478H   000020H   BYTE   UNIT     CODE           ?PR?__CMS_KEYSTOPCLEAR?CHECKTOUCHKEY_80F761X_CS_V1_011
005479H   005497H   00001FH   BYTE   UNIT     CODE           ?PR?_DELAY_MS?DELAY
005498H   0054B5H   00001EH   BYTE   UNIT     CODE           ?PR?F_CHKKEY_INIT?CHKKEY
0054B6H   0054D2H   00001DH   BYTE   UNIT     CODE           ?PR?F_DEALUARTKEY_FRAMESEND?DEALUARTKEY
0054D3H   0054EFH   00001DH   BYTE   UNIT     CODE           ?PR?F_DEALUARTKEY_FRAMESEND2?DEALUARTKEY
0054F0H   00550CH   00001DH   BYTE   UNIT     CODE           ?PR?AIP33624_START?AIP33624
00550DH   005529H   00001DH   BYTE   UNIT     CODE           ?PR?AIP33624_STOP?AIP33624
LX51 LINKER/LOCATER V4.66.100.0                                                       07/27/2024  08:24:11  PAGE 6


00552AH   005545H   00001CH   BYTE   UNIT     CODE           ?PR?WDT_ENABLEWDTRESET?WDT
005546H   005561H   00001CH   BYTE   UNIT     CODE           ?PR?WDT_CLEARWDT?WDT
005562H   00557DH   00001CH   BYTE   UNIT     CODE           ?PR?WDT_CLEAROVERFLOWINTFLAG?WDT
00557EH   005597H   00001AH   BYTE   UNIT     CODE           ?PR?F_DEALUARTKEY_100MSROUTINE?DEALUARTKEY
005598H   0055B1H   00001AH   BYTE   UNIT     CODE           ?PR?F_DEALUARTKEY_1MSROUTINE?DEALUARTKEY
0055B2H   0055CBH   00001AH   BYTE   UNIT     CODE           ?PR?_WRITE_CMD?AIP33624
0055CCH   0055E3H   000018H   BYTE   UNIT     CODE           ?PR?HEAD_COMM_CMP?TASK_EVENT
0055E4H   0055FBH   000018H   BYTE   UNIT     CODE           ?PR?F_DEALUARTKEY_RECVERRROUTINE?DEALUARTKEY
0055FCH   005612H   000017H   BYTE   UNIT     CODE           ?PR?F_DEALKEY_10MSROUTINE?DEALKEY
005613H   005628H   000016H   BYTE   UNIT     CODE           ?PR?_F_UARTXDRIVE_GETRECVFRAMESTA?UARTXDRIVE
005629H   00563EH   000016H   BYTE   UNIT     CODE           ?PR?_F_UARTXDRIVE_GETSENDFRAMESTA?UARTXDRIVE
00563FH   005650H   000012H   BYTE   UNIT     CODE           ?PR?_WDT_CONFIGOVERFLOWTIME?WDT
005651H   005662H   000012H   BYTE   UNIT     CODE           ?PR?F_DEALUARTKEY_RECVIDLEROUTINE?DEALUARTKEY
005663H   005674H   000012H   BYTE   UNIT     CODE           ?PR?_F_MCUHARDWARE_NOPDELAY?MCUHARDWARE
005675H   005684H   000010H   BYTE   UNIT     CODE           ?PR?F_UARTXDRIVE_UART0ISFRAMETXEND?UARTXDRIVE
005685H   005692H   00000EH   BYTE   UNIT     CODE           ?PR?F_DEALKEY_INIT?DEALKEY
005693H   0056A0H   00000EH   BYTE   UNIT     CODE           ?PR?F_DEALUARTKEY_RECVTIMEOUTROUTINE?DEALUARTKEY
0056A1H   0056ACH   00000CH   BYTE   UNIT     CODE           ?PR?RESET_INNER_CNT?DISPLAY
0056ADH   0056B8H   00000CH   BYTE   UNIT     CODE           ?PR?RESET_OUTER_CNT?DISPLAY
0056B9H   0056C4H   00000CH   BYTE   UNIT     CODE           ?PR?RESET_BREATH_CNT?DISPLAY
0056C5H   0056D0H   00000CH   BYTE   UNIT     CODE           ?PR?WDT_CONFIG?MCUHARDWARE
0056D1H   0056DBH   00000BH   BYTE   UNIT     CODE           ?PR?F_DEALUARTKEY_SENDDONEROUTINE?DEALUARTKEY
0056DCH   0056E5H   00000AH   BYTE   UNIT     CODE           ?PR?UART_ENABLEBRT?UART
0056E6H   0056EFH   00000AH   BYTE   UNIT     CODE           ?PR?_UART0_SENDDATA?UART_APP
0056F0H   0056F8H   000009H   BYTE   UNIT     CODE           ?PR?GET_BREATH_CNT?DISPLAY
0056F9H   0056FFH   000007H   BYTE   UNIT     CODE           ?PR?BSP_INITLED?BSP_LED
005700H   005706H   000007H   BYTE   UNIT     CODE           ?PR?_CM_DELAY?CHECKTOUCHKEY_80F761X_CS_V1_011
005707H   00570CH   000006H   BYTE   UNIT     CODE           ?PR?GET_INNER_CNT?DISPLAY
00570DH   005712H   000006H   BYTE   UNIT     CODE           ?PR?GET_OUTER_CNT?DISPLAY
005713H   005851H   00013FH   BYTE   UNIT     CONST          ?CO?AIP33624
005852H   00587BH   00002AH   BYTE   UNIT     CONST          ?CO?CHECKTOUCHKEY_SET
00587CH   005887H   00000CH   BYTE   UNIT     CONST          ?CO?DISPLAY
005888H   00588DH   000006H   BYTE   UNIT     CONST          ?CO?CHECKTOUCHKEY_80F761X_CS_V1_011

* * * * * * * * * * *  X D A T A   M E M O R Y  * * * * * * * * * * * * *
000000H   00033AH   00033BH   BYTE   UNIT     XDATA          ?XD?UARTXDRIVE
00033BH   0003FDH   0000C3H   BYTE   UNIT     XDATA          ?XD?DISPLAY
0003FEH   000487H   00008AH   BYTE   UNIT     XDATA          ?XD?CHECKTOUCHKEY_SET
000488H   0004C3H   00003CH   BYTE   UNIT     XDATA          ?XD?TASK_EVENT
0004C4H   0004FCH   000039H   BYTE   UNIT     XDATA          ?XD?DEALUARTKEY
0004FDH   000517H   00001BH   BYTE   UNIT     XDATA          ?XD?CHECKTOUCHKEY_80F761X_CS_V1_011
000518H   000526H   00000FH   BYTE   UNIT     XDATA          ?XD?BSP_LED
000527H   000532H   00000CH   BYTE   UNIT     XDATA          ?XD?_F_UARTXDRIVE_SENDFRAME?UARTXDRIVE
000533H   00053DH   00000BH   BYTE   UNIT     XDATA          ?XD?CHKKEY
00053EH   000546H   000009H   BYTE   UNIT     XDATA          ?XD?_F_UARTXDRIVE_READFRAME?UARTXDRIVE
000547H   00054DH   000007H   BYTE   UNIT     XDATA          ?XD?_HEAD_FRAME_TX_DATA?TASK_EVENT
00054EH   000553H   000006H   BYTE   UNIT     XDATA          ?XD?_HEAD_FRAME_RX_DATA?TASK_EVENT
000554H   000559H   000006H   BYTE   UNIT     XDATA          ?XD?_AIP33624_WRITEDATA2?AIP33624
00055AH   00055FH   000006H   BYTE   UNIT     XDATA          ?XD?CLOCK
000560H   000564H   000005H   BYTE   UNIT     XDATA          ?XD?_UART_CONFIGBAUDRATE?UART
000565H   000569H   000005H   BYTE   UNIT     XDATA          ?XD?_F_UARTKEY_CALCVARIFY?DEALUARTKEY
00056AH   00056EH   000005H   BYTE   UNIT     XDATA          ?XD?_F_UARTKEY_CALCVARIFY2?DEALUARTKEY
00056FH   000572H   000004H   BYTE   UNIT     XDATA          ?XD?_SYS_CONFIGSYSTEMCLK?SYSTEM
000573H   000576H   000004H   BYTE   UNIT     XDATA          ?XD?_BSP_ISLEDON?BSP_LED
000577H   00057AH   000004H   BYTE   UNIT     XDATA          ?XD?_SETLEDMODE?BSP_LED
00057BH   00057EH   000004H   BYTE   UNIT     XDATA          ?XD?DEALKEY
00057FH   000582H   000004H   BYTE   UNIT     XDATA          ?XD?_AIP33624_WRITEDATA_GREEN?AIP33624
000583H   000586H   000004H   BYTE   UNIT     XDATA          ?XD?_AIP33624_WRITEDATA_FULL_BREATH_1?AIP33624
000587H   00058AH   000004H   BYTE   UNIT     XDATA          ?XD?_AIP33624_WRITEDATA_FULL_BREATH_2?AIP33624
00058BH   00058EH   000004H   BYTE   UNIT     XDATA          ?XD?_AIP33624_WRITEDATA_FULL_BREATH_3?AIP33624
00058FH   000592H   000004H   BYTE   UNIT     XDATA          ?XD?F_UARTXDRIVE_FRAMEOUT_1MSROUTINE?UARTXDRIVE
000593H   000595H   000003H   BYTE   UNIT     XDATA          ?XD?_UART_CONFIGRUNMODE?UART
000596H   000598H   000003H   BYTE   UNIT     XDATA          ?XD?_GPIO_GETINTFLAG?GPIO
000599H   00059BH   000003H   BYTE   UNIT     XDATA          ?XD?_PWM_CONFIGCHANNELPERIOD?PWM
00059CH   00059EH   000003H   BYTE   UNIT     XDATA          ?XD?_PWM_CONFIGCHANNELDUTY?PWM
LX51 LINKER/LOCATER V4.66.100.0                                                       07/27/2024  08:24:11  PAGE 7


00059FH   0005A1H   000003H   BYTE   UNIT     XDATA          ?XD?_LED_CONFIGMATRIXMODE?LED
0005A2H   0005A4H   000003H   BYTE   UNIT     XDATA          ?XD?_LED_CONFIGLATTICEMODE?LED
0005A5H   0005A7H   000003H   BYTE   UNIT     XDATA          ?XD?_TMR_CONFIGRUNMODE?TIMER
0005A8H   0005AAH   000003H   BYTE   UNIT     XDATA          ?XD?_TMR_CONFIGTIMERPERIOD?TIMER
0005ABH   0005ADH   000003H   BYTE   UNIT     XDATA          ?XD?_TMR2_CONFIGCOMPAREVALUE?TIMER
0005AEH   0005B0H   000003H   BYTE   UNIT     XDATA          ?XD?_TMR2_GETCAPTUREVALUE?TIMER
0005B1H   0005B3H   000003H   BYTE   UNIT     XDATA          ?XD?_SETLEDON?BSP_LED
0005B4H   0005B6H   000003H   BYTE   UNIT     XDATA          ?XD?_HEAD_UPLINK_DATA_GET?TASK_EVENT
0005B7H   0005B9H   000003H   BYTE   UNIT     XDATA          ?XD?_AIP33624_WRITEDATA1?AIP33624
0005BAH   0005BCH   000003H   BYTE   UNIT     XDATA          ?XD?_AIP33624_WRITEDATA?AIP33624
0005BDH   0005BFH   000003H   BYTE   UNIT     XDATA          ?XD?_AIP33624_WRITEDATA4?AIP33624
0005C0H   0005C2H   000003H   BYTE   UNIT     XDATA          ?XD?_AIP33624_WRITEDATA_BLUE?AIP33624
0005C3H   0005C5H   000003H   BYTE   UNIT     XDATA          ?XD?_AIP33624_WRITEDATA_RED?AIP33624
0005C6H   0005C7H   000002H   BYTE   UNIT     XDATA          ?XD?_UART_GETRECEIVEINTFLAG?UART
0005C8H   0005C9H   000002H   BYTE   UNIT     XDATA          ?XD?_UART_CLEARRECEIVEINTFLAG?UART
0005CAH   0005CBH   000002H   BYTE   UNIT     XDATA          ?XD?_UART_GETSENDINTFLAG?UART
0005CCH   0005CDH   000002H   BYTE   UNIT     XDATA          ?XD?_UART_CLEARSENDINTFLAG?UART
0005CEH   0005CFH   000002H   BYTE   UNIT     XDATA          ?XD?_UART_GETBUFF?UART
0005D0H   0005D1H   000002H   BYTE   UNIT     XDATA          ?XD?_UART_SENDBUFF?UART
0005D2H   0005D3H   000002H   BYTE   UNIT     XDATA          ?XD?_UART_SENDNINTHBIT?UART
0005D4H   0005D5H   000002H   BYTE   UNIT     XDATA          ?XD?_UART_GETNINTHBIT?UART
0005D6H   0005D7H   000002H   BYTE   UNIT     XDATA          ?XD?_UART_CONFIGBRTPERIOD?UART
0005D8H   0005D9H   000002H   BYTE   UNIT     XDATA          ?XD?_ADC_CONFIGRUNMODE?ADC
0005DAH   0005DBH   000002H   BYTE   UNIT     XDATA          ?XD?_ADC_CONFIGHARDWARETRIG?ADC
0005DCH   0005DDH   000002H   BYTE   UNIT     XDATA          ?XD?_ADC_SETTRIGDELAYTIME?ADC
0005DEH   0005DFH   000002H   BYTE   UNIT     XDATA          ?XD?_ADC_CONFIGCOMPAREVALUE?ADC
0005E0H   0005E1H   000002H   BYTE   UNIT     XDATA          ?XD?_GPIO_ENABLEINT?GPIO
0005E2H   0005E3H   000002H   BYTE   UNIT     XDATA          ?XD?_GPIO_DISABLEINT?GPIO
0005E4H   0005E5H   000002H   BYTE   UNIT     XDATA          ?XD?_GPIO_CLEARINTFLAG?GPIO
0005E6H   0005E7H   000002H   BYTE   UNIT     XDATA          ?XD?_PWM_CONFIGCHANNELCLK?PWM
0005E8H   0005E9H   000002H   BYTE   UNIT     XDATA          ?XD?_PWM_ENABLEDEADZONE?PWM
0005EAH   0005EBH   000002H   BYTE   UNIT     XDATA          ?XD?_LED_CONFIGMATRIXCLKDIV?LED
0005ECH   0005EDH   000002H   BYTE   UNIT     XDATA          ?XD?_LED_CONFIGLATTICECLKDIV?LED
0005EEH   0005EFH   000002H   BYTE   UNIT     XDATA          ?XD?_LED_CONFIGLATTICEPERIOD1?LED
0005F0H   0005F1H   000002H   BYTE   UNIT     XDATA          ?XD?_LED_CONFIGLATTICEPERIOD2?LED
0005F2H   0005F3H   000002H   BYTE   UNIT     XDATA          ?XD?_TMR_CONFIGTIMERCLK?TIMER
0005F4H   0005F5H   000002H   BYTE   UNIT     XDATA          ?XD?_TMR_GETOVERFLOWINTFLAG?TIMER
0005F6H   0005F7H   000002H   BYTE   UNIT     XDATA          ?XD?_TMR2_CONFIGRUNMODE?TIMER
0005F8H   0005F9H   000002H   BYTE   UNIT     XDATA          ?XD?_TMR2_CONFIGTIMERPERIOD?TIMER
0005FAH   0005FBH   000002H   BYTE   UNIT     XDATA          ?XD?_TMR2_ENABLECOMPARE?TIMER
0005FCH   0005FDH   000002H   BYTE   UNIT     XDATA          ?XD?_TMR2_ENABLECAPTURE?TIMER
0005FEH   0005FFH   000002H   BYTE   UNIT     XDATA          ?XD?_DELAY_MS?DELAY
000600H   000601H   000002H   BYTE   UNIT     XDATA          ?XD?UART0_APP_CONFIG?UART_APP
000602H   000603H   000002H   BYTE   UNIT     XDATA          ?XD?UART1_APP_CONFIG?UART_APP
000604H   000605H   000002H   BYTE   UNIT     XDATA          ?XD?UART0_IRQHANDLER?ISR
000606H   000607H   000002H   BYTE   UNIT     XDATA          ?XD?UART1_IRQHANDLER?ISR
000608H   000609H   000002H   BYTE   UNIT     XDATA          ?XD?UART2_IRQHANDLER?ISR
00060AH   00060BH   000002H   BYTE   UNIT     XDATA          ?XD?_BSP_LEDON?BSP_LED
00060CH   00060DH   000002H   BYTE   UNIT     XDATA          ?XD?_BSP_LEDOFF?BSP_LED
00060EH   00060FH   000002H   BYTE   UNIT     XDATA          ?XD?_BSP_LEDTOGGLE?BSP_LED
000610H   000611H   000002H   BYTE   UNIT     XDATA          ?XD?_GET_LED_STATE?BSP_LED
000612H   000613H   000002H   BYTE   UNIT     XDATA          ?XD?_GET_LED_BRIGHTNESS?BSP_LED
000614H   000615H   000002H   BYTE   UNIT     XDATA          ?XD?_SETLEDOFF?BSP_LED
000616H   000617H   000002H   BYTE   UNIT     XDATA          ?XD?_AIP33624_WRITE?AIP33624
000618H   000619H   000002H   BYTE   UNIT     XDATA          ?XD?_WRITE_CMD?AIP33624
00061AH   00061BH   000002H   BYTE   UNIT     XDATA          ?XD?FULL_COLOR?AIP33624
00061CH   00061DH   000002H   BYTE   UNIT     XDATA          ?XD?_SEG_TRAN?DISPLAY
00061EH   00061FH   000002H   BYTE   UNIT     XDATA          ?XD?FULL_BRIGHT?DISPLAY
000620H   000621H   000002H   BYTE   UNIT     XDATA          ?XD?_F_UARTXDRIVE_UARTRECEIVECHAR_HANDLER?UARTXDRIVE
000622H   000623H   000002H   BYTE   UNIT     XDATA          ?XD?_F_UARTXDRIVE_ISRPOPTXNEXTDATA?UARTXDRIVE
000624H   000624H   000001H   BYTE   UNIT     XDATA          ?XD?_UART_ENABLEDOUBLEFREQUENCY?UART
000625H   000625H   000001H   BYTE   UNIT     XDATA          ?XD?_UART_DISABLEDOUBLEFREQUENCY?UART
000626H   000626H   000001H   BYTE   UNIT     XDATA          ?XD?_UART_ENABLERECEIVE?UART
000627H   000627H   000001H   BYTE   UNIT     XDATA          ?XD?_UART_DISABLERECEIVE?UART
000628H   000628H   000001H   BYTE   UNIT     XDATA          ?XD?_UART_ENABLEMULT?UART
LX51 LINKER/LOCATER V4.66.100.0                                                       07/27/2024  08:24:11  PAGE 8


000629H   000629H   000001H   BYTE   UNIT     XDATA          ?XD?_UART_DISABLEMULT?UART
00062AH   00062AH   000001H   BYTE   UNIT     XDATA          ?XD?_UART_ENABLEINT?UART
00062BH   00062BH   000001H   BYTE   UNIT     XDATA          ?XD?_UART_DISABLEINT?UART
00062CH   00062CH   000001H   BYTE   UNIT     XDATA          ?XD?_UART_CONFIGBRTCLK?UART
00062DH   00062DH   000001H   BYTE   UNIT     XDATA          ?XD?_ADC_CONFIGSAMPLETIME?ADC
00062EH   00062EH   000001H   BYTE   UNIT     XDATA          ?XD?_ADC_CONFIGCONVERTTIME?ADC
00062FH   00062FH   000001H   BYTE   UNIT     XDATA          ?XD?_ADC_ENABLECHANNEL?ADC
000630H   000630H   000001H   BYTE   UNIT     XDATA          ?XD?_ADC_CONFIGAN63?ADC
000631H   000631H   000001H   BYTE   UNIT     XDATA          ?XD?_ADC_CONFIGADCCMP?ADC
000632H   000632H   000001H   BYTE   UNIT     XDATA          ?XD?_SYS_CONFIGLVD?SYSTEM
000633H   000633H   000001H   BYTE   UNIT     XDATA          ?XD?_WDT_CONFIGOVERFLOWTIME?WDT
000634H   000634H   000001H   BYTE   UNIT     XDATA          ?XD?_PWM_CONFIGRUNMODE?PWM
000635H   000635H   000001H   BYTE   UNIT     XDATA          ?XD?_PWM_ENABLEONESHOTMODE?PWM
000636H   000636H   000001H   BYTE   UNIT     XDATA          ?XD?_PWM_ENABLEAUTOLOADMODE?PWM
000637H   000637H   000001H   BYTE   UNIT     XDATA          ?XD?_PWM_START?PWM
000638H   000638H   000001H   BYTE   UNIT     XDATA          ?XD?_PWM_STOP?PWM
000639H   000639H   000001H   BYTE   UNIT     XDATA          ?XD?_PWM_ENABLEOUTPUT?PWM
00063AH   00063AH   000001H   BYTE   UNIT     XDATA          ?XD?_PWM_DISABLEOUTPUT?PWM
00063BH   00063BH   000001H   BYTE   UNIT     XDATA          ?XD?_PWM_DISABLEDEADZONE?PWM
00063CH   00063CH   000001H   BYTE   UNIT     XDATA          ?XD?_PWM_ENABLEDOWNCMPINT?PWM
00063DH   00063DH   000001H   BYTE   UNIT     XDATA          ?XD?_PWM_DISABLEDOWNCMPINT?PWM
00063EH   00063EH   000001H   BYTE   UNIT     XDATA          ?XD?_PWM_GETDOWNCMPINTFLAG?PWM
00063FH   00063FH   000001H   BYTE   UNIT     XDATA          ?XD?_PWM_CLEARDOWNCMPINTFLAG?PWM
000640H   000640H   000001H   BYTE   UNIT     XDATA          ?XD?_PWM_ENABLEZEROINT?PWM
000641H   000641H   000001H   BYTE   UNIT     XDATA          ?XD?_PWM_DISABLEZEROINT?PWM
000642H   000642H   000001H   BYTE   UNIT     XDATA          ?XD?_PWM_CLEARZEROINTFLAG?PWM
000643H   000643H   000001H   BYTE   UNIT     XDATA          ?XD?_PWM_GETZEROINTFLAG?PWM
000644H   000644H   000001H   BYTE   UNIT     XDATA          ?XD?_PWM_ENABLEREVERSEOUTPUT?PWM
000645H   000645H   000001H   BYTE   UNIT     XDATA          ?XD?_PWM_DISABLEREVERSEOUTPUT?PWM
000646H   000646H   000001H   BYTE   UNIT     XDATA          ?XD?_LED_CONFIGMATRIXCOMTIME?LED
000647H   000647H   000001H   BYTE   UNIT     XDATA          ?XD?_TMR_ENABLEGATE?TIMER
000648H   000648H   000001H   BYTE   UNIT     XDATA          ?XD?_TMR_DISABLEGATE?TIMER
000649H   000649H   000001H   BYTE   UNIT     XDATA          ?XD?_TMR_GETCOUNTVALUE?TIMER
00064AH   00064AH   000001H   BYTE   UNIT     XDATA          ?XD?_TMR_ENABLEOVERFLOWINT?TIMER
00064BH   00064BH   000001H   BYTE   UNIT     XDATA          ?XD?_TMR_DISABLEOVERFLOWINT?TIMER
00064CH   00064CH   000001H   BYTE   UNIT     XDATA          ?XD?_TMR_CLEAROVERFLOWINTFLAG?TIMER
00064DH   00064DH   000001H   BYTE   UNIT     XDATA          ?XD?_TMR_START?TIMER
00064EH   00064EH   000001H   BYTE   UNIT     XDATA          ?XD?_TMR_STOP?TIMER
00064FH   00064FH   000001H   BYTE   UNIT     XDATA          ?XD?_TMR2_CONFIGTIMERCLK?TIMER
000650H   000650H   000001H   BYTE   UNIT     XDATA          ?XD?_TMR2_DISABLECOMPARE?TIMER
000651H   000651H   000001H   BYTE   UNIT     XDATA          ?XD?_TMR2_CONFIGCOMPAREINTMODE?TIMER
000652H   000652H   000001H   BYTE   UNIT     XDATA          ?XD?_TMR2_DISABLECAPTURE?TIMER
000653H   000653H   000001H   BYTE   UNIT     XDATA          ?XD?_TMR2_ENABLECOMPAREINT?TIMER
000654H   000654H   000001H   BYTE   UNIT     XDATA          ?XD?_TMR2_DISABLECOMPAREINT?TIMER
000655H   000655H   000001H   BYTE   UNIT     XDATA          ?XD?_TMR2_GETCOMPAREINTFLAG?TIMER
000656H   000656H   000001H   BYTE   UNIT     XDATA          ?XD?_TMR2_CLEARCOMPAREINTFLAG?TIMER
000657H   000657H   000001H   BYTE   UNIT     XDATA          ?XD?_TMR2_ENABLECAPTUREINT?TIMER
000658H   000658H   000001H   BYTE   UNIT     XDATA          ?XD?_TMR2_DISABLECAPTUREINT?TIMER
000659H   000659H   000001H   BYTE   UNIT     XDATA          ?XD?_TMR2_GETCAPTUREINTFLAG?TIMER
00065AH   00065AH   000001H   BYTE   UNIT     XDATA          ?XD?_TMR2_CLEARCAPTUREINTFLAG?TIMER
00065BH   00065BH   000001H   BYTE   UNIT     XDATA          ?XD?_UART0_SENDDATA?UART_APP
00065CH   00065CH   000001H   BYTE   UNIT     XDATA          ?XD?_UART1_SENDDATA?UART_APP
00065DH   00065DH   000001H   BYTE   UNIT     XDATA          ?XD?UART2_APP_CONFIG?UART_APP
00065EH   00065EH   000001H   BYTE   UNIT     XDATA          ?XD?_UART2_SENDDATA?UART_APP
00065FH   00065FH   000001H   BYTE   UNIT     XDATA          ?XD?TIMER0_IRQHANDLER?ISR
000660H   000660H   000001H   BYTE   UNIT     XDATA          ?XD?WDT_IRQHANDLER?ISR
000661H   000661H   000001H   BYTE   UNIT     XDATA          ?XD?BRIGHT_CONTROL?BSP_LED
000662H   000662H   000001H   BYTE   UNIT     XDATA          ?XD?BSP_INITLEDVAR?BSP_LED
000663H   000663H   000001H   BYTE   UNIT     XDATA          ?XD?HEAD_COMM_SEND2?TASK_EVENT
000664H   000664H   000001H   BYTE   UNIT     XDATA          ?XD?F_DEALUARTKEY_SLAVESENDFRAMEDECODE?DEALUARTKEY
000665H   000665H   000001H   BYTE   UNIT     XDATA          ?XD?F_DEALUARTKEY_SLAVESENDFRAMEDECODE2?DEALUARTKEY
000666H   000666H   000001H   BYTE   UNIT     XDATA          ?XD?F_DEALUARTKEY_SLAVESENDFRAMEDECODE3?DEALUARTKEY
000667H   000667H   000001H   BYTE   UNIT     XDATA          ?XD?F_DEALUARTKEY_SLAVESENDFRAMEENCODE?DEALUARTKEY
000668H   000668H   000001H   BYTE   UNIT     XDATA          ?XD?F_DEALUARTKEY_MASTERSENDFRAMEDECODE?DEALUARTKEY
000669H   000669H   000001H   BYTE   UNIT     XDATA          ?XD?F_DEALUARTKEY_MASTERSENDFRAMEENCODE?DEALUARTKEY
LX51 LINKER/LOCATER V4.66.100.0                                                       07/27/2024  08:24:11  PAGE 9


00066AH   00066AH   000001H   BYTE   UNIT     XDATA          ?XD?LED_INIT?DISPLAY
00066BH   00066BH   000001H   BYTE   UNIT     XDATA          ?XD?DIS_INNER_RING?DISPLAY
00066CH   00066CH   000001H   BYTE   UNIT     XDATA          ?XD?DIS_OUTER_RING?DISPLAY
00066DH   00066DH   000001H   BYTE   UNIT     XDATA          ?XD?F_CHKKEY_KEYCHECKROUTINE?CHKKEY
00066EH   00066EH   000001H   BYTE   UNIT     XDATA          ?XD?_F_UARTXDRIVE_UART0RECEIVECHAR_HANDLER?UARTXDRIVE
00066FH   00066FH   000001H   BYTE   UNIT     XDATA          ?XD?F_UARTXDRIVE_UART0POPTXNEXTDATA?UARTXDRIVE
000670H   000670H   000001H   BYTE   UNIT     XDATA          ?XD?_F_UARTXDRIVE_UART1RECEIVECHAR_HANDLER?UARTXDRIVE
000671H   000671H   000001H   BYTE   UNIT     XDATA          ?XD?F_UARTXDRIVE_UART1POPTXNEXTDATA?UARTXDRIVE
000672H   000672H   000001H   BYTE   UNIT     XDATA          ?XD?_F_UARTXDRIVE_UART2RECEIVECHAR_HANDLER?UARTXDRIVE
000673H   000673H   000001H   BYTE   UNIT     XDATA          ?XD?F_UARTXDRIVE_UART2POPTXNEXTDATA?UARTXDRIVE
000674H   000674H   000001H   BYTE   UNIT     XDATA          ?XD?_F_UARTXDRIVE_RXRESET?UARTXDRIVE
000675H   000675H   000001H   BYTE   UNIT     XDATA          ?XD?_F_UARTXDRIVE_GETRECVFRAMESTA?UARTXDRIVE
000676H   000676H   000001H   BYTE   UNIT     XDATA          ?XD?_F_UARTXDRIVE_TXRESET?UARTXDRIVE
000677H   000677H   000001H   BYTE   UNIT     XDATA          ?XD?_F_UARTXDRIVE_GETSENDFRAMESTA?UARTXDRIVE
000678H   000678H   000001H   BYTE   UNIT     XDATA          ?XD?_F_UARTXDRIVE_ISFRAMETXEND?UARTXDRIVE
000679H   000679H   000001H   BYTE   UNIT     XDATA          ?XD?F_MCUHARDWARE_INIT?MCUHARDWARE
00067AH   00067AH   000001H   BYTE   UNIT     XDATA          ?XD?F_MCUHARDWARE_REINIT?MCUHARDWARE
00067BH   00067BH   000001H   BYTE   UNIT     XDATA          ?XD?_F_MCUHARDWARE_NOPDELAY?MCUHARDWARE

* * * * * * * * *   R E M O V E D     S E G M E N T S   * * * * * * * *
   *DEL*:           000029H   BYTE   UNIT     CODE           ?PR?_UART_DISABLEDOUBLEFREQUENCY?UART
   *DEL*:           000013H   BYTE   UNIT     CODE           ?PR?_UART_CONFIGBAUDRATE?UART
   *DEL*:           000029H   BYTE   UNIT     CODE           ?PR?_UART_DISABLERECEIVE?UART
   *DEL*:           000029H   BYTE   UNIT     CODE           ?PR?_UART_ENABLEMULT?UART
   *DEL*:           000029H   BYTE   UNIT     CODE           ?PR?_UART_DISABLEMULT?UART
   *DEL*:           000021H   BYTE   UNIT     CODE           ?PR?_UART_DISABLEINT?UART
   *DEL*:           000037H   BYTE   UNIT     CODE           ?PR?_UART_GETBUFF?UART
   *DEL*:           000035H   BYTE   UNIT     CODE           ?PR?_UART_SENDBUFF?UART
   *DEL*:           00004DH   BYTE   UNIT     CODE           ?PR?_UART_SENDNINTHBIT?UART
   *DEL*:           00005BH   BYTE   UNIT     CODE           ?PR?_UART_GETNINTHBIT?UART
   *DEL*:           00000AH   BYTE   UNIT     CODE           ?PR?UART_DISABLEBRT?UART
   *DEL*:           000004H   BYTE   UNIT     CODE           ?PR?ADC_START?ADC
   *DEL*:           000004H   BYTE   UNIT     CODE           ?PR?ADC_STOP?ADC
   *DEL*:           00001AH   BYTE   UNIT     CODE           ?PR?_ADC_CONFIGRUNMODE?ADC
   *DEL*:           00000DH   BYTE   UNIT     CODE           ?PR?_ADC_CONFIGSAMPLETIME?ADC
   *DEL*:           000011H   BYTE   UNIT     CODE           ?PR?_ADC_CONFIGCONVERTTIME?ADC
   *DEL*:           000004H   BYTE   UNIT     CODE           ?PR?ADC_ENABLEHARDWARETRIG?ADC
   *DEL*:           000004H   BYTE   UNIT     CODE           ?PR?ADC_DISABLEHARDWARETRIG?ADC
   *DEL*:           000020H   BYTE   UNIT     CODE           ?PR?_ADC_CONFIGHARDWARETRIG?ADC
   *DEL*:           00000AH   BYTE   UNIT     CODE           ?PR?_ADC_ENABLECHANNEL?ADC
   *DEL*:           000012H   BYTE   UNIT     CODE           ?PR?_ADC_CONFIGAN63?ADC
   *DEL*:           000027H   BYTE   UNIT     CODE           ?PR?_ADC_SETTRIGDELAYTIME?ADC
   *DEL*:           000013H   BYTE   UNIT     CODE           ?PR?_ADC_CONFIGADCCMP?ADC
   *DEL*:           00002DH   BYTE   UNIT     CODE           ?PR?_ADC_CONFIGCOMPAREVALUE?ADC
   *DEL*:           00000CH   BYTE   UNIT     CODE           ?PR?ADC_GETCMPRESULT?ADC
   *DEL*:           000036H   BYTE   UNIT     CODE           ?PR?ADC_GETADCRESULT?ADC
   *DEL*:           000004H   BYTE   UNIT     CODE           ?PR?ADC_ENABLEINT?ADC
   *DEL*:           000004H   BYTE   UNIT     CODE           ?PR?ADC_DISABLEINT?ADC
   *DEL*:           00000CH   BYTE   UNIT     CODE           ?PR?ADC_GETINTFLAG?ADC
   *DEL*:           000004H   BYTE   UNIT     CODE           ?PR?ADC_CLEARINTFLAG?ADC
   *DEL*:           00001CH   BYTE   UNIT     CODE           ?PR?FLASH_UNLOCK?FLASH
   *DEL*:           00001CH   BYTE   UNIT     CODE           ?PR?FLASH_LOCK?FLASH
   *DEL*:           00005CH   BYTE   UNIT     CODE           ?PR?_FLASH_WRITE?FLASH
   *DEL*:           000004H   BYTE   UNIT     XDATA          ?XD?_FLASH_WRITE?FLASH
   *DEL*:           000058H   BYTE   UNIT     CODE           ?PR?_FLASH_READ?FLASH
   *DEL*:           000003H   BYTE   UNIT     XDATA          ?XD?_FLASH_READ?FLASH
   *DEL*:           000055H   BYTE   UNIT     CODE           ?PR?_FLASH_ERASE?FLASH
   *DEL*:           000003H   BYTE   UNIT     XDATA          ?XD?_FLASH_ERASE?FLASH
   *DEL*:           0000D3H   BYTE   UNIT     CODE           ?PR?_FLASH_CRC?FLASH
   *DEL*:           000006H   BYTE   UNIT     XDATA          ?XD?_FLASH_CRC?FLASH
   *DEL*:           000056H   BYTE   UNIT     CODE           ?PR?_GPIO_ENABLEINT?GPIO
   *DEL*:           000062H   BYTE   UNIT     CODE           ?PR?_GPIO_DISABLEINT?GPIO
   *DEL*:           0000CBH   BYTE   UNIT     CODE           ?PR?_GPIO_GETINTFLAG?GPIO
   *DEL*:           0000A4H   BYTE   UNIT     CODE           ?PR?_GPIO_CLEARINTFLAG?GPIO
   *DEL*:           0000A9H   BYTE   UNIT     CODE           ?PR?_SYS_CONFIGSYSTEMCLK?SYSTEM
LX51 LINKER/LOCATER V4.66.100.0                                                       07/27/2024  08:24:11  PAGE 10


   *DEL*:           00001CH   BYTE   UNIT     CODE           ?PR?SYS_ENABLESOFTWARERESET?SYSTEM
   *DEL*:           00001CH   BYTE   UNIT     CODE           ?PR?SYS_DISABLESOFTWARERESET?SYSTEM
   *DEL*:           00000CH   BYTE   UNIT     CODE           ?PR?SYS_GETWDTRESETFLAG?SYSTEM
   *DEL*:           00001CH   BYTE   UNIT     CODE           ?PR?SYS_CLEARWDTRESETFLAG?SYSTEM
   *DEL*:           00000CH   BYTE   UNIT     CODE           ?PR?SYS_GETPOWERONRESETFLAG?SYSTEM
   *DEL*:           000004H   BYTE   UNIT     CODE           ?PR?SYS_CLEARPOWERONRESETFLAG?SYSTEM
   *DEL*:           00000CH   BYTE   UNIT     CODE           ?PR?SYS_GETEXTRESETFLAG?SYSTEM
   *DEL*:           000004H   BYTE   UNIT     CODE           ?PR?SYS_CLEAREXTRESETFLAG?SYSTEM
   *DEL*:           00000CH   BYTE   UNIT     CODE           ?PR?SYS_GETCONFIGRESETFLAG?SYSTEM
   *DEL*:           000004H   BYTE   UNIT     CODE           ?PR?SYS_CLEARCONFIGRESETFLAG?SYSTEM
   *DEL*:           00000CH   BYTE   UNIT     CODE           ?PR?SYS_GETWWDTRESETFLAG?SYSTEM
   *DEL*:           000004H   BYTE   UNIT     CODE           ?PR?SYS_CLEARWWDTRESETFLAG?SYSTEM
   *DEL*:           000004H   BYTE   UNIT     CODE           ?PR?SYS_ENABLEWAKEUP?SYSTEM
   *DEL*:           000004H   BYTE   UNIT     CODE           ?PR?SYS_DISABLEWAKEUP?SYSTEM
   *DEL*:           00000CH   BYTE   UNIT     CODE           ?PR?SYS_ENTERSTOP?SYSTEM
   *DEL*:           00000CH   BYTE   UNIT     CODE           ?PR?SYS_ENTERIDLE?SYSTEM
   *DEL*:           00000AH   BYTE   UNIT     CODE           ?PR?SYS_ENABLESCM?SYSTEM
   *DEL*:           00000AH   BYTE   UNIT     CODE           ?PR?SYS_DISABLESCM?SYSTEM
   *DEL*:           00000AH   BYTE   UNIT     CODE           ?PR?SYS_ENABLESCMINT?SYSTEM
   *DEL*:           00000AH   BYTE   UNIT     CODE           ?PR?SYS_DISABLESCMINT?SYSTEM
   *DEL*:           00000FH   BYTE   UNIT     CODE           ?PR?SYS_GETSCMINTFLAG?SYSTEM
   *DEL*:           00000FH   BYTE   UNIT     CODE           ?PR?SYS_GETSCMSTATE?SYSTEM
   *DEL*:           00000AH   BYTE   UNIT     CODE           ?PR?SYS_CLEARSCMINTFLAG?SYSTEM
   *DEL*:           00000AH   BYTE   UNIT     CODE           ?PR?SYS_ENABLELVD?SYSTEM
   *DEL*:           00000AH   BYTE   UNIT     CODE           ?PR?SYS_DISABLELVD?SYSTEM
   *DEL*:           000022H   BYTE   UNIT     CODE           ?PR?_SYS_CONFIGLVD?SYSTEM
   *DEL*:           00000AH   BYTE   UNIT     CODE           ?PR?SYS_ENABLELVDINT?SYSTEM
   *DEL*:           00000AH   BYTE   UNIT     CODE           ?PR?SYS_DISABLELVDINT?SYSTEM
   *DEL*:           00000FH   BYTE   UNIT     CODE           ?PR?SYS_GETLVDINTFLAG?SYSTEM
   *DEL*:           00000AH   BYTE   UNIT     CODE           ?PR?SYS_CLEARLVDINTFLAG?SYSTEM
   *DEL*:           00001CH   BYTE   UNIT     CODE           ?PR?WDT_DISABLEWDTRESET?WDT
   *DEL*:           000004H   BYTE   UNIT     CODE           ?PR?WDT_ENABLEOVERFLOWINT?WDT
   *DEL*:           000004H   BYTE   UNIT     CODE           ?PR?WDT_DISABLEOVERFLOWINT?WDT
   *DEL*:           00000CH   BYTE   UNIT     CODE           ?PR?_PWM_CONFIGRUNMODE?PWM
   *DEL*:           000086H   BYTE   UNIT     CODE           ?PR?_PWM_CONFIGCHANNELCLK?PWM
   *DEL*:           00010DH   BYTE   UNIT     CODE           ?PR?_PWM_CONFIGCHANNELPERIOD?PWM
   *DEL*:           00010DH   BYTE   UNIT     CODE           ?PR?_PWM_CONFIGCHANNELDUTY?PWM
   *DEL*:           00001EH   BYTE   UNIT     CODE           ?PR?_PWM_ENABLEONESHOTMODE?PWM
   *DEL*:           00001CH   BYTE   UNIT     CODE           ?PR?_PWM_ENABLEAUTOLOADMODE?PWM
   *DEL*:           000015H   BYTE   UNIT     CODE           ?PR?PWM_ENABLESYNCOUNT?PWM
   *DEL*:           00001CH   BYTE   UNIT     CODE           ?PR?_PWM_START?PWM
   *DEL*:           00001EH   BYTE   UNIT     CODE           ?PR?_PWM_STOP?PWM
   *DEL*:           00001CH   BYTE   UNIT     CODE           ?PR?_PWM_ENABLEOUTPUT?PWM
   *DEL*:           00001EH   BYTE   UNIT     CODE           ?PR?_PWM_DISABLEOUTPUT?PWM
   *DEL*:           00005FH   BYTE   UNIT     CODE           ?PR?_PWM_ENABLEDEADZONE?PWM
   *DEL*:           00003EH   BYTE   UNIT     CODE           ?PR?_PWM_DISABLEDEADZONE?PWM
   *DEL*:           00001CH   BYTE   UNIT     CODE           ?PR?_PWM_ENABLEDOWNCMPINT?PWM
   *DEL*:           00001EH   BYTE   UNIT     CODE           ?PR?_PWM_DISABLEDOWNCMPINT?PWM
   *DEL*:           00002EH   BYTE   UNIT     CODE           ?PR?_PWM_GETDOWNCMPINTFLAG?PWM
   *DEL*:           000019H   BYTE   UNIT     CODE           ?PR?_PWM_CLEARDOWNCMPINTFLAG?PWM
   *DEL*:           00001CH   BYTE   UNIT     CODE           ?PR?_PWM_ENABLEZEROINT?PWM
   *DEL*:           00001EH   BYTE   UNIT     CODE           ?PR?_PWM_DISABLEZEROINT?PWM
   *DEL*:           000019H   BYTE   UNIT     CODE           ?PR?_PWM_CLEARZEROINTFLAG?PWM
   *DEL*:           00002EH   BYTE   UNIT     CODE           ?PR?_PWM_GETZEROINTFLAG?PWM
   *DEL*:           00001CH   BYTE   UNIT     CODE           ?PR?_PWM_ENABLEREVERSEOUTPUT?PWM
   *DEL*:           00001EH   BYTE   UNIT     CODE           ?PR?_PWM_DISABLEREVERSEOUTPUT?PWM
   *DEL*:           000004H   BYTE   UNIT     CODE           ?PR?PWM_ALLINTENABLE?PWM
   *DEL*:           000004H   BYTE   UNIT     CODE           ?PR?PWM_ALLINTDISABLE?PWM
   *DEL*:           000007H   BYTE   UNIT     CODE           ?PR?LED_ENABLEMATRIXMODE?LED
   *DEL*:           000040H   BYTE   UNIT     CODE           ?PR?_LED_CONFIGMATRIXMODE?LED
   *DEL*:           000025H   BYTE   UNIT     CODE           ?PR?_LED_CONFIGMATRIXCLKDIV?LED
   *DEL*:           00000CH   BYTE   UNIT     CODE           ?PR?_LED_CONFIGMATRIXCOMTIME?LED
   *DEL*:           00000AH   BYTE   UNIT     CODE           ?PR?LED_STARTMATRIX?LED
   *DEL*:           00000AH   BYTE   UNIT     CODE           ?PR?LED_STOPMATRIX?LED
   *DEL*:           000007H   BYTE   UNIT     CODE           ?PR?LED_ENABLELATTICEMODE?LED
LX51 LINKER/LOCATER V4.66.100.0                                                       07/27/2024  08:24:11  PAGE 11


   *DEL*:           000041H   BYTE   UNIT     CODE           ?PR?_LED_CONFIGLATTICEMODE?LED
   *DEL*:           000025H   BYTE   UNIT     CODE           ?PR?_LED_CONFIGLATTICECLKDIV?LED
   *DEL*:           000025H   BYTE   UNIT     CODE           ?PR?_LED_CONFIGLATTICEPERIOD1?LED
   *DEL*:           000025H   BYTE   UNIT     CODE           ?PR?_LED_CONFIGLATTICEPERIOD2?LED
   *DEL*:           00000AH   BYTE   UNIT     CODE           ?PR?LED_STARTLATTICE?LED
   *DEL*:           00000AH   BYTE   UNIT     CODE           ?PR?LED_STOPLATTICE?LED
   *DEL*:           000010H   BYTE   UNIT     CODE           ?PR?LED_RESTARTLATTICE?LED
   *DEL*:           00000AH   BYTE   UNIT     CODE           ?PR?LED_ENABLEINT?LED
   *DEL*:           00000AH   BYTE   UNIT     CODE           ?PR?LED_DISABLEINT?LED
   *DEL*:           00000FH   BYTE   UNIT     CODE           ?PR?LED_GETINTFLAG?LED
   *DEL*:           00000AH   BYTE   UNIT     CODE           ?PR?LED_CLEARINTFLAG?LED
   *DEL*:           000018H   BYTE   UNIT     CODE           ?PR?_TMR_ENABLEGATE?TIMER
   *DEL*:           000018H   BYTE   UNIT     CODE           ?PR?_TMR_DISABLEGATE?TIMER
   *DEL*:           00006CH   BYTE   UNIT     CODE           ?PR?_TMR_GETCOUNTVALUE?TIMER
   *DEL*:           000028H   BYTE   UNIT     CODE           ?PR?_TMR_DISABLEOVERFLOWINT?TIMER
   *DEL*:           000058H   BYTE   UNIT     CODE           ?PR?_TMR_GETOVERFLOWINTFLAG?TIMER
   *DEL*:           000028H   BYTE   UNIT     CODE           ?PR?_TMR_CLEAROVERFLOWINTFLAG?TIMER
   *DEL*:           000028H   BYTE   UNIT     CODE           ?PR?_TMR_STOP?TIMER
   *DEL*:           000017H   BYTE   UNIT     CODE           ?PR?_TMR2_CONFIGRUNMODE?TIMER
   *DEL*:           00000DH   BYTE   UNIT     CODE           ?PR?_TMR2_CONFIGTIMERCLK?TIMER
   *DEL*:           00004AH   BYTE   UNIT     CODE           ?PR?_TMR2_CONFIGTIMERPERIOD?TIMER
   *DEL*:           000004H   BYTE   UNIT     CODE           ?PR?TMR2_ENABLEGATE?TIMER
   *DEL*:           000007H   BYTE   UNIT     CODE           ?PR?TMR2_DISABLEGATE?TIMER
   *DEL*:           000050H   BYTE   UNIT     CODE           ?PR?_TMR2_ENABLECOMPARE?TIMER
   *DEL*:           00002EH   BYTE   UNIT     CODE           ?PR?_TMR2_DISABLECOMPARE?TIMER
   *DEL*:           000083H   BYTE   UNIT     CODE           ?PR?_TMR2_CONFIGCOMPAREVALUE?TIMER
   *DEL*:           00000DH   BYTE   UNIT     CODE           ?PR?_TMR2_CONFIGCOMPAREINTMODE?TIMER
   *DEL*:           00009DH   BYTE   UNIT     CODE           ?PR?_TMR2_ENABLECAPTURE?TIMER
   *DEL*:           00002EH   BYTE   UNIT     CODE           ?PR?_TMR2_DISABLECAPTURE?TIMER
   *DEL*:           0000C9H   BYTE   UNIT     CODE           ?PR?_TMR2_GETCAPTUREVALUE?TIMER
   *DEL*:           000004H   BYTE   UNIT     CODE           ?PR?TMR2_ENABLEOVERFLOWINT?TIMER
   *DEL*:           000004H   BYTE   UNIT     CODE           ?PR?TMR2_DISABLEOVERFLOWINT?TIMER
   *DEL*:           00000CH   BYTE   UNIT     CODE           ?PR?TMR2_GETOVERFLOWINTFLAG?TIMER
   *DEL*:           000004H   BYTE   UNIT     CODE           ?PR?TMR2_CLEAROVERFLOWINTFLAG?TIMER
   *DEL*:           000004H   BYTE   UNIT     CODE           ?PR?TMR2_ENABLET2EXINT?TIMER
   *DEL*:           000004H   BYTE   UNIT     CODE           ?PR?TMR2_DISABLET2EXINT?TIMER
   *DEL*:           00000CH   BYTE   UNIT     CODE           ?PR?TMR2_GETT2EXINTFLAG?TIMER
   *DEL*:           000004H   BYTE   UNIT     CODE           ?PR?TMR2_CLEART2EXINTFLAG?TIMER
   *DEL*:           000015H   BYTE   UNIT     CODE           ?PR?_TMR2_ENABLECOMPAREINT?TIMER
   *DEL*:           000017H   BYTE   UNIT     CODE           ?PR?_TMR2_DISABLECOMPAREINT?TIMER
   *DEL*:           00002BH   BYTE   UNIT     CODE           ?PR?_TMR2_GETCOMPAREINTFLAG?TIMER
   *DEL*:           000017H   BYTE   UNIT     CODE           ?PR?_TMR2_CLEARCOMPAREINTFLAG?TIMER
   *DEL*:           000015H   BYTE   UNIT     CODE           ?PR?_TMR2_ENABLECAPTUREINT?TIMER
   *DEL*:           000017H   BYTE   UNIT     CODE           ?PR?_TMR2_DISABLECAPTUREINT?TIMER
   *DEL*:           00002BH   BYTE   UNIT     CODE           ?PR?_TMR2_GETCAPTUREINTFLAG?TIMER
   *DEL*:           000017H   BYTE   UNIT     CODE           ?PR?_TMR2_CLEARCAPTUREINTFLAG?TIMER
   *DEL*:           000003H   BYTE   UNIT     CODE           ?PR?TMR2_ALLINTENABLE?TIMER
   *DEL*:           000003H   BYTE   UNIT     CODE           ?PR?TMR2_ALLINTDISABLE?TIMER
   *DEL*:           00000BH   BYTE   UNIT     CODE           ?PR?TMR2_START?TIMER
   *DEL*:           000004H   BYTE   UNIT     CODE           ?PR?TMR2_STOP?TIMER
   *DEL*:           00004DH   BYTE   UNIT     CODE           ?PR?UART1_APP_CONFIG?UART_APP
   *DEL*:           00000AH   BYTE   UNIT     CODE           ?PR?_UART1_SENDDATA?UART_APP
   *DEL*:           00004DH   BYTE   UNIT     CODE           ?PR?UART2_APP_CONFIG?UART_APP
   *DEL*:           00000AH   BYTE   UNIT     CODE           ?PR?_UART2_SENDDATA?UART_APP
   *DEL*:           000030H   BYTE   UNIT     CODE           ?PR?_BSP_LEDTOGGLE?BSP_LED
   *DEL*:           000042H   BYTE   UNIT     CODE           ?PR?_BSP_ISLEDON?BSP_LED
   *DEL*:           000034H   BYTE   UNIT     CODE           ?PR?_GET_LED_STATE?BSP_LED
   *DEL*:           000034H   BYTE   UNIT     CODE           ?PR?_GET_LED_BRIGHTNESS?BSP_LED
   *DEL*:           00003EH   BYTE   UNIT     CODE           ?PR?_SETLEDOFF?BSP_LED
   *DEL*:           000046H   BYTE   UNIT     CODE           ?PR?_SETLEDON?BSP_LED
   *DEL*:           000009H   BYTE   UNIT     CODE           ?PR?F_DEALUARTKEY_GETKEYVALUE?DEALUARTKEY
   *DEL*:           000006H   BYTE   UNIT     CODE           ?PR?F_DEALUARTKEY_GETVERSIONVALUE?DEALUARTKEY
   *DEL*:           000060H   BYTE   UNIT     CODE           ?PR?F_DEALUARTKEY_SLAVESENDFRAMEENCODE?DEALUARTKEY
   *DEL*:           000058H   BYTE   UNIT     CODE           ?PR?F_DEALUARTKEY_MASTERSENDFRAMEDECODE?DEALUARTKEY
   *DEL*:           000045H   BYTE   UNIT     CODE           ?PR?F_DEALUARTKEY_MASTERSENDFRAMEENCODE?DEALUARTKEY
LX51 LINKER/LOCATER V4.66.100.0                                                       07/27/2024  08:24:11  PAGE 12


   *DEL*:           000007H   BYTE   UNIT     CODE           ?PR?F_DEALUARTKEY_SLAVESENDFRAMETRIG?DEALUARTKEY
   *DEL*:           000033H   BYTE   UNIT     CODE           ?PR?_AIP33624_WRITEDATA1?AIP33624
   *DEL*:           00007DH   BYTE   UNIT     CODE           ?PR?_AIP33624_WRITEDATA2?AIP33624
   *DEL*:           000037H   BYTE   UNIT     CODE           ?PR?_AIP33624_WRITEDATA4?AIP33624
   *DEL*:           00006EH   BYTE   UNIT     CODE           ?PR?_AIP33624_WRITEDATA_BLUE?AIP33624
   *DEL*:           00007AH   BYTE   UNIT     CODE           ?PR?_AIP33624_WRITEDATA_RED?AIP33624
   *DEL*:           0000B4H   BYTE   UNIT     CODE           ?PR?_AIP33624_WRITEDATA_GREEN?AIP33624
   *DEL*:           000162H   BYTE   UNIT     CODE           ?PR?_AIP33624_WRITEDATA_FULL_BREATH_1?AIP33624
   *DEL*:           000162H   BYTE   UNIT     CODE           ?PR?_AIP33624_WRITEDATA_FULL_BREATH_2?AIP33624
   *DEL*:           000162H   BYTE   UNIT     CODE           ?PR?_AIP33624_WRITEDATA_FULL_BREATH_3?AIP33624
   *DEL*:           0001C5H   BYTE   UNIT     CODE           ?PR?FULL_COLOR?AIP33624
   *DEL*:           000086H   BYTE   UNIT     CODE           ?PR?_SEG_TRAN?DISPLAY
   *DEL*:           0000C1H   BYTE   UNIT     CODE           ?PR?_F_UARTXDRIVE_UARTRECEIVECHAR_HANDLER?UARTXDRIVE
   *DEL*:           000013H   BYTE   UNIT     CODE           ?PR?F_UARTXDRIVE_ISUART0FRAMEOUT?UARTXDRIVE
   *DEL*:           000049H   BYTE   UNIT     CODE           ?PR?_F_UARTXDRIVE_UART1RECEIVECHAR_HANDLER?UARTXDRIVE
   *DEL*:           000010H   BYTE   UNIT     CODE           ?PR?F_UARTXDRIVE_UART1ISFRAMETXEND?UARTXDRIVE
   *DEL*:           000013H   BYTE   UNIT     CODE           ?PR?F_UARTXDRIVE_ISUART1FRAMEOUT?UARTXDRIVE
   *DEL*:           000043H   BYTE   UNIT     CODE           ?PR?F_UARTXDRIVE_UART1POPTXNEXTDATA?UARTXDRIVE
   *DEL*:           000049H   BYTE   UNIT     CODE           ?PR?_F_UARTXDRIVE_UART2RECEIVECHAR_HANDLER?UARTXDRIVE
   *DEL*:           000013H   BYTE   UNIT     CODE           ?PR?F_UARTXDRIVE_ISUART2FRAMEOUT?UARTXDRIVE
   *DEL*:           000010H   BYTE   UNIT     CODE           ?PR?F_UARTXDRIVE_UART2ISFRAMETXEND?UARTXDRIVE
   *DEL*:           000042H   BYTE   UNIT     CODE           ?PR?F_UARTXDRIVE_UART2POPTXNEXTDATA?UARTXDRIVE
   *DEL*:           00005BH   BYTE   UNIT     CODE           ?PR?_F_UARTXDRIVE_ISFRAMETXEND?UARTXDRIVE
   *DEL*:           0000A3H   BYTE   UNIT     CODE           ?PR?_F_UARTXDRIVE_ISRPOPTXNEXTDATA?UARTXDRIVE
   *DEL*:           00002EH   BYTE   UNIT     CODE           ?PR?F_CLOCK_INIT?CLOCK
   *DEL*:           000013H   BYTE   UNIT     CODE           ?PR?GPIO_REINIT?MCUHARDWARE
   *DEL*:           000069H   BYTE   UNIT     CODE           ?PR?GPIO_RECONFIG?MCUHARDWARE
   *DEL*:           00001EH   BYTE   UNIT     CODE           ?PR?TMR0_RECONFIG?MCUHARDWARE
   *DEL*:           000037H   BYTE   UNIT     CODE           ?PR?F_MCUHARDWARE_REINIT?MCUHARDWARE
   *DEL*:           000013H   BYTE   UNIT     CODE           ?PR?F_MCUHARDWARE_RESET?MCUHARDWARE



OVERLAY MAP OF MODULE:   ..\OBJ\demo1 (?C_STARTUP)


FUNCTION/MODULE                                BIT_GROUP   DATA_GROUP 
--> CALLED FUNCTION/MODULE                    START  STOP  START  STOP
======================================================================
?C_C51STARTUP                                 ----- -----  ----- -----
  +--> MAIN/MAIN
  +--> ?C_INITSEG

MAIN/MAIN                                     ----- -----  ----- -----
  +--> F_MCUHARDWARE_INIT/MCUHARDWARE
  +--> BSP_INITLED/BSP_LED
  +--> AIP33624_INIT/AIP33624
  +--> F_CHKKEY_INIT/CHKKEY
  +--> F_UARTXDRIVE_INIT/UARTXDRIVE
  +--> WDT_CLEARWDT/WDT
  +--> LED_INIT/DISPLAY
  +--> F_DEALKEY_INIT/DEALKEY
  +--> F_DEALUARTKEY_INIT/DEALUARTKEY
  +--> F_DEALUARTKEY_ROUTINE/DEALUARTKEY
  +--> TASK_LOAD_EVENT/TASK_EVENT
  +--> LED_DIS/DISPLAY
  +--> FULL_BRIGHT/DISPLAY
  +--> F_UARTXDRIVE_1MSROUTINE/UARTXDRIVE
  +--> F_DEALUARTKEY_1MSROUTINE/DEALUARTKEY
  +--> F_CHKKEY_10MSROUTINE/CHKKEY
  +--> F_DEALKEY_10MSROUTINE/DEALKEY
  +--> HEAD_COMM_CMP/TASK_EVENT
  +--> INNERCNT_10MS/DISPLAY
  +--> OUTERCNT_10MS/DISPLAY
  +--> BREATHCNT_10MS/DISPLAY
LX51 LINKER/LOCATER V4.66.100.0                                                       07/27/2024  08:24:11  PAGE 13


  +--> F_DEALUARTKEY_100MSROUTINE/DEALUARTKEY

F_MCUHARDWARE_INIT/MCUHARDWARE                ----- -----  ----- -----
  +--> _DELAY_MS/DELAY
  +--> GPIO_CONFIG/MCUHARDWARE
  +--> TMR0_CONFIG/MCUHARDWARE
  +--> UART0_APP_CONFIG/UART_APP
  +--> LED_CONFIG/DISPLAY
  +--> WDT_CONFIG/MCUHARDWARE

_DELAY_MS/DELAY                               ----- -----  ----- -----
  +--> WDT_CLEARWDT/WDT

WDT_CLEARWDT/WDT                              ----- -----  ----- -----

GPIO_CONFIG/MCUHARDWARE                       ----- -----  ----- -----
  +--> GPIO_INIT/MCUHARDWARE

GPIO_INIT/MCUHARDWARE                         ----- -----  ----- -----

TMR0_CONFIG/MCUHARDWARE                       ----- -----  ----- -----
  +--> _TMR_CONFIGRUNMODE/TIMER
  +--> _TMR_CONFIGTIMERCLK/TIMER
  +--> _TMR_CONFIGTIMERPERIOD/TIMER
  +--> _TMR_ENABLEOVERFLOWINT/TIMER
  +--> _TMR_START/TIMER

_TMR_CONFIGRUNMODE/TIMER                      ----- -----  ----- -----

_TMR_CONFIGTIMERCLK/TIMER                     ----- -----  ----- -----

_TMR_CONFIGTIMERPERIOD/TIMER                  ----- -----  ----- -----

_TMR_ENABLEOVERFLOWINT/TIMER                  ----- -----  ----- -----

_TMR_START/TIMER                              ----- -----  ----- -----

UART0_APP_CONFIG/UART_APP                     ----- -----  ----- -----
  +--> _UART_CONFIGRUNMODE/UART
  +--> _UART_ENABLERECEIVE/UART
  +--> _UART_CONFIGBRTCLK/UART
  +--> _UART_ENABLEDOUBLEFREQUENCY/UART
  +--> _UART_CONFIGBRTPERIOD/UART
  +--> UART_ENABLEBRT/UART
  +--> _UART_ENABLEINT/UART

_UART_CONFIGRUNMODE/UART                      ----- -----  ----- -----

_UART_ENABLERECEIVE/UART                      ----- -----  ----- -----

_UART_CONFIGBRTCLK/UART                       ----- -----  ----- -----

_UART_ENABLEDOUBLEFREQUENCY/UART              ----- -----  ----- -----

_UART_CONFIGBRTPERIOD/UART                    ----- -----  ----- -----

UART_ENABLEBRT/UART                           ----- -----  ----- -----

_UART_ENABLEINT/UART                          ----- -----  ----- -----

LED_CONFIG/DISPLAY                            ----- -----  ----- -----

WDT_CONFIG/MCUHARDWARE                        ----- -----  ----- -----
  +--> WDT_CLEARWDT/WDT
  +--> _WDT_CONFIGOVERFLOWTIME/WDT
LX51 LINKER/LOCATER V4.66.100.0                                                       07/27/2024  08:24:11  PAGE 14


  +--> WDT_ENABLEWDTRESET/WDT

_WDT_CONFIGOVERFLOWTIME/WDT                   ----- -----  ----- -----

WDT_ENABLEWDTRESET/WDT                        ----- -----  ----- -----

BSP_INITLED/BSP_LED                           ----- -----  ----- -----
  +--> BSP_INITLEDVAR/BSP_LED
  +--> BSP_INITLEDHARD/BSP_LED

BSP_INITLEDVAR/BSP_LED                        ----- -----  ----- -----

BSP_INITLEDHARD/BSP_LED                       ----- -----  ----- -----

AIP33624_INIT/AIP33624                        ----- -----  ----- -----
  +--> _WRITE_CMD/AIP33624
  +--> _AIP33624_WRITEDATA/AIP33624

_WRITE_CMD/AIP33624                           ----- -----  ----- -----
  +--> AIP33624_START/AIP33624
  +--> _AIP33624_WRITE/AIP33624
  +--> AIP33624_STOP/AIP33624

AIP33624_START/AIP33624                       ----- -----  ----- -----
  +--> _F_MCUHARDWARE_NOPDELAY/MCUHARDWARE

_F_MCUHARDWARE_NOPDELAY/MCUHARDWARE           ----- -----  ----- -----

_AIP33624_WRITE/AIP33624                      ----- -----  ----- -----
  +--> _F_MCUHARDWARE_NOPDELAY/MCUHARDWARE

AIP33624_STOP/AIP33624                        ----- -----  ----- -----
  +--> _F_MCUHARDWARE_NOPDELAY/MCUHARDWARE

_AIP33624_WRITEDATA/AIP33624                  ----- -----  ----- -----
  +--> _WRITE_CMD/AIP33624
  +--> AIP33624_START/AIP33624
  +--> _AIP33624_WRITE/AIP33624
  +--> AIP33624_STOP/AIP33624

F_CHKKEY_INIT/CHKKEY                          ----- -----  ----- -----

F_UARTXDRIVE_INIT/UARTXDRIVE                  ----- -----  ----- -----

LED_INIT/DISPLAY                              ----- -----  ----- -----

F_DEALKEY_INIT/DEALKEY                        ----- -----  ----- -----

F_DEALUARTKEY_INIT/DEALUARTKEY                ----- -----  ----- -----

F_DEALUARTKEY_ROUTINE/DEALUARTKEY             ----- -----  ----- -----
  +--> _F_UARTXDRIVE_GETRECVFRAMESTA/UARTXDRIVE
  +--> F_DEALUARTKEY_RECVDONEROUTINE/DEALUARTKEY
  +--> F_DEALUARTKEY_RECVIDLEROUTINE/DEALUARTKEY
  +--> _F_UARTXDRIVE_GETSENDFRAMESTA/UARTXDRIVE
  +--> F_DEALUARTKEY_SENDDONEROUTINE/DEALUARTKEY
  +--> F_DEALUARTKEY_SENDIDLEROUTINE/DEALUARTKEY

_F_UARTXDRIVE_GETRECVFRAMESTA/UARTXDRIVE      ----- -----  ----- -----

F_DEALUARTKEY_RECVDONEROUTINE/DEALUARTKE+     ----- -----  ----- -----
... Y
  +--> _F_UARTXDRIVE_READFRAME/UARTXDRIVE
  +--> _F_UARTXDRIVE_RXRESET/UARTXDRIVE
  +--> F_DEALUARTKEY_FRAMEDECODE/DEALUARTKEY
LX51 LINKER/LOCATER V4.66.100.0                                                       07/27/2024  08:24:11  PAGE 15


  +--> F_DEALUARTKEY_RECVSUCCESSROUTINE/DEALUARTKEY
  +--> F_DEALUARTKEY_FRAMEDECODE2/DEALUARTKEY
  +--> F_DEALUARTKEY_FRAMEDECODE3/DEALUARTKEY
  +--> F_DEALUARTKEY_RECVERRROUTINE/DEALUARTKEY

_F_UARTXDRIVE_READFRAME/UARTXDRIVE            ----- -----  ----- -----

_F_UARTXDRIVE_RXRESET/UARTXDRIVE              ----- -----  ----- -----

F_DEALUARTKEY_FRAMEDECODE/DEALUARTKEY         ----- -----  ----- -----
  +--> F_DEALUARTKEY_SLAVESENDFRAMEDECODE/DEALUARTKEY

F_DEALUARTKEY_SLAVESENDFRAMEDECODE/DEALU+     ----- -----  ----- -----
... ARTKEY
  +--> _F_UARTKEY_CALCVARIFY/DEALUARTKEY
  +--> _HEAD_FRAME_RX_DATA/TASK_EVENT

_F_UARTKEY_CALCVARIFY/DEALUARTKEY             ----- -----  ----- -----

_HEAD_FRAME_RX_DATA/TASK_EVENT                ----- -----  ----- -----

F_DEALUARTKEY_RECVSUCCESSROUTINE/DEALUAR+     ----- -----  ----- -----
... TKEY

F_DEALUARTKEY_FRAMEDECODE2/DEALUARTKEY        ----- -----  ----- -----
  +--> F_DEALUARTKEY_SLAVESENDFRAMEDECODE2/DEALUARTKEY

F_DEALUARTKEY_SLAVESENDFRAMEDECODE2/DEAL+     ----- -----  ----- -----
... UARTKEY
  +--> _F_UARTKEY_CALCVARIFY2/DEALUARTKEY

_F_UARTKEY_CALCVARIFY2/DEALUARTKEY            ----- -----  ----- -----

F_DEALUARTKEY_FRAMEDECODE3/DEALUARTKEY        ----- -----  ----- -----
  +--> F_DEALUARTKEY_SLAVESENDFRAMEDECODE3/DEALUARTKEY

F_DEALUARTKEY_SLAVESENDFRAMEDECODE3/DEAL+     ----- -----  ----- -----
... UARTKEY
  +--> _F_UARTKEY_CALCVARIFY2/DEALUARTKEY

F_DEALUARTKEY_RECVERRROUTINE/DEALUARTKEY      ----- -----  ----- -----

F_DEALUARTKEY_RECVIDLEROUTINE/DEALUARTKE+     ----- -----  ----- -----
... Y
  +--> F_DEALUARTKEY_RECVTIMEOUTROUTINE/DEALUARTKEY

F_DEALUARTKEY_RECVTIMEOUTROUTINE/DEALUAR+     ----- -----  ----- -----
... TKEY

_F_UARTXDRIVE_GETSENDFRAMESTA/UARTXDRIVE      ----- -----  ----- -----

F_DEALUARTKEY_SENDDONEROUTINE/DEALUARTKE+     ----- -----  ----- -----
... Y
  +--> _F_UARTXDRIVE_TXRESET/UARTXDRIVE

_F_UARTXDRIVE_TXRESET/UARTXDRIVE              ----- -----  ----- -----

F_DEALUARTKEY_SENDIDLEROUTINE/DEALUARTKE+     ----- -----  ----- -----
... Y
  +--> F_DEALUARTKEY_FRAMESEND/DEALUARTKEY
  +--> F_DEALUARTKEY_FRAMESEND2/DEALUARTKEY

F_DEALUARTKEY_FRAMESEND/DEALUARTKEY           ----- -----  ----- -----
  +--> HEAD_COMM_SEND/TASK_EVENT
  +--> _F_UARTXDRIVE_SENDFRAME/UARTXDRIVE
LX51 LINKER/LOCATER V4.66.100.0                                                       07/27/2024  08:24:11  PAGE 16



HEAD_COMM_SEND/TASK_EVENT                     ----- -----  ----- -----
  +--> _HEAD_FRAME_TX_DATA/TASK_EVENT

_HEAD_FRAME_TX_DATA/TASK_EVENT                ----- -----  ----- -----

_F_UARTXDRIVE_SENDFRAME/UARTXDRIVE            ----- -----  ----- -----

F_DEALUARTKEY_FRAMESEND2/DEALUARTKEY          ----- -----  ----- -----
  +--> HEAD_COMM_SEND2/TASK_EVENT
  +--> _F_UARTXDRIVE_SENDFRAME/UARTXDRIVE

HEAD_COMM_SEND2/TASK_EVENT                    ----- -----  ----- -----

TASK_LOAD_EVENT/TASK_EVENT                    ----- -----  ----- -----

LED_DIS/DISPLAY                               ----- -----  ----- -----
  +--> _SETLEDMODE/BSP_LED
  +--> RESET_INNER_CNT/DISPLAY
  +--> RESET_OUTER_CNT/DISPLAY
  +--> DIS_INNER_RING/DISPLAY
  +--> DIS_OUTER_RING/DISPLAY

_SETLEDMODE/BSP_LED                           ----- -----  ----- -----

RESET_INNER_CNT/DISPLAY                       ----- -----  ----- -----

RESET_OUTER_CNT/DISPLAY                       ----- -----  ----- -----

DIS_INNER_RING/DISPLAY                        ----- -----  ----- -----
  +--> RESET_BREATH_CNT/DISPLAY
  +--> RESET_INNER_CNT/DISPLAY
  +--> GET_BREATH_CNT/DISPLAY
  +--> GET_INNER_CNT/DISPLAY

RESET_BREATH_CNT/DISPLAY                      ----- -----  ----- -----

GET_BREATH_CNT/DISPLAY                        ----- -----  ----- -----

GET_INNER_CNT/DISPLAY                         ----- -----  ----- -----

DIS_OUTER_RING/DISPLAY                        ----- -----  ----- -----
  +--> RESET_BREATH_CNT/DISPLAY
  +--> RESET_OUTER_CNT/DISPLAY
  +--> GET_BREATH_CNT/DISPLAY
  +--> GET_OUTER_CNT/DISPLAY

GET_OUTER_CNT/DISPLAY                         ----- -----  ----- -----

FULL_BRIGHT/DISPLAY                           ----- -----  ----- -----
  +--> _WRITE_CMD/AIP33624
  +--> AIP33624_START/AIP33624
  +--> _AIP33624_WRITE/AIP33624
  +--> AIP33624_STOP/AIP33624

F_UARTXDRIVE_1MSROUTINE/UARTXDRIVE            ----- -----  ----- -----
  +--> F_UARTXDRIVE_FRAMEOUT_1MSROUTINE/UARTXDRIVE

F_UARTXDRIVE_FRAMEOUT_1MSROUTINE/UARTXDR+     ----- -----  ----- -----
... IVE

F_DEALUARTKEY_1MSROUTINE/DEALUARTKEY          ----- -----  ----- -----
  +--> _F_UARTXDRIVE_GETSENDFRAMESTA/UARTXDRIVE

F_CHKKEY_10MSROUTINE/CHKKEY                   ----- -----  ----- -----
LX51 LINKER/LOCATER V4.66.100.0                                                       07/27/2024  08:24:11  PAGE 17


  +--> F_CHKKEY_KEYCHECKROUTINE/CHKKEY

F_CHKKEY_KEYCHECKROUTINE/CHKKEY               ----- -----  ----- -----
  +--> F_CHKKEY_TOUCHBITS2GLOBALBITS/CHKKEY

F_CHKKEY_TOUCHBITS2GLOBALBITS/CHKKEY          ----- -----  ----- -----
  +--> __CMS_CHECKTOUCHKEY/CHECKTOUCHKEY_80F761X_CS_V1_011

__CMS_CHECKTOUCHKEY/CHECKTOUCHKEY_80F761+     ----- -----  0008H 0008H
... X_CS_V1_011
  +--> __CMS_KEYMODESET/CHECKTOUCHKEY_80F761X_CS_V1_011
  +--> __CMS_KEYSTART/CHECKTOUCHKEY_80F761X_CS_V1_011
  +--> __CMS_KEYDATIIR/CHECKTOUCHKEY_80F761X_CS_V1_011
  +--> __CMS_CHECKKEYOLDVALUE/CHECKTOUCHKEY_80F761X_CS_V1_011
  +--> __CMS_NOISE_CHECK/CHECKTOUCHKEY_80F761X_CS_V1_011
  +--> __CMS_CHECKONCERESULT/CHECKTOUCHKEY_80F761X_CS_V1_011
  +--> __CMS_KEYSTOPCLEAR/CHECKTOUCHKEY_80F761X_CS_V1_011
  +--> __CMS_KEY_UNNOL_CHECK/CHECKTOUCHKEY_80F761X_CS_V1_011
  +--> __CMS_CURADJUST/CHECKTOUCHKEY_80F761X_CS_V1_011
  +--> __CMS_CHECKVALIDTIME/CHECKTOUCHKEY_80F761X_CS_V1_011

__CMS_KEYMODESET/CHECKTOUCHKEY_80F761X_C+     ----- -----  ----- -----
... S_V1_011
  +--> _CM_DELAY/CHECKTOUCHKEY_80F761X_CS_V1_011

_CM_DELAY/CHECKTOUCHKEY_80F761X_CS_V1_01+     ----- -----  ----- -----
... 1

__CMS_KEYSTART/CHECKTOUCHKEY_80F761X_CS_+     ----- -----  ----- -----
... V1_011

__CMS_KEYDATIIR/CHECKTOUCHKEY_80F761X_CS+     ----- -----  0009H 000CH
... _V1_011

__CMS_CHECKKEYOLDVALUE/CHECKTOUCHKEY_80F+     ----- -----  0009H 0017H
... 761X_CS_V1_011
  +--> ___CMS_KEYISIN/CHECKTOUCHKEY_80F761X_CS_V1_011

___CMS_KEYISIN/CHECKTOUCHKEY_80F761X_CS_+     ----- -----  ----- -----
... V1_011

__CMS_NOISE_CHECK/CHECKTOUCHKEY_80F761X_+     ----- -----  0009H 000FH
... CS_V1_011

__CMS_CHECKONCERESULT/CHECKTOUCHKEY_80F7+     ----- -----  0009H 001AH
... 61X_CS_V1_011
  +--> ___CMS_KEYISIN/CHECKTOUCHKEY_80F761X_CS_V1_011
  +--> ___CMS_KEYHAVEDOWN/CHECKTOUCHKEY_80F761X_CS_V1_011
  +--> ___CMS_KEYOPEN/CHECKTOUCHKEY_80F761X_CS_V1_011

___CMS_KEYHAVEDOWN/CHECKTOUCHKEY_80F761X+     ----- -----  001BH 001BH
... _CS_V1_011

___CMS_KEYOPEN/CHECKTOUCHKEY_80F761X_CS_+     ----- -----  001BH 001BH
... V1_011

__CMS_KEYSTOPCLEAR/CHECKTOUCHKEY_80F761X+     ----- -----  ----- -----
... _CS_V1_011
  +--> ___CMS_KEYCLEARONE/CHECKTOUCHKEY_80F761X_CS_V1_011

___CMS_KEYCLEARONE/CHECKTOUCHKEY_80F761X+     ----- -----  ----- -----
... _CS_V1_011

__CMS_KEY_UNNOL_CHECK/CHECKTOUCHKEY_80F7+     ----- -----  ----- -----
... 61X_CS_V1_011
LX51 LINKER/LOCATER V4.66.100.0                                                       07/27/2024  08:24:11  PAGE 18



__CMS_CURADJUST/CHECKTOUCHKEY_80F761X_CS+     ----- -----  0009H 0009H
... _V1_011
  +--> ___CMS_CURADJUSTDL/CHECKTOUCHKEY_80F761X_CS_V1_011

___CMS_CURADJUSTDL/CHECKTOUCHKEY_80F761X+     ----- -----  000AH 0015H
... _CS_V1_011

__CMS_CHECKVALIDTIME/CHECKTOUCHKEY_80F76+     ----- -----  ----- -----
... 1X_CS_V1_011

F_DEALKEY_10MSROUTINE/DEALKEY                 ----- -----  ----- -----
  +--> F_DEALKEY_KEYEVENTJUDGEROUTINE/DEALKEY
  +--> F_DEALKEY_INIT/DEALKEY

F_DEALKEY_KEYEVENTJUDGEROUTINE/DEALKEY        ----- -----  ----- -----

HEAD_COMM_CMP/TASK_EVENT                      ----- -----  ----- -----
  +--> _HEAD_UPLINK_DATA_GET/TASK_EVENT

_HEAD_UPLINK_DATA_GET/TASK_EVENT              ----- -----  ----- -----

INNERCNT_10MS/DISPLAY                         ----- -----  ----- -----

OUTERCNT_10MS/DISPLAY                         ----- -----  ----- -----

BREATHCNT_10MS/DISPLAY                        ----- -----  ----- -----

F_DEALUARTKEY_100MSROUTINE/DEALUARTKEY        ----- -----  ----- -----
  +--> _F_UARTXDRIVE_GETRECVFRAMESTA/UARTXDRIVE

?C_INITSEG                                    ----- -----  ----- -----

*** NEW ROOT ********************************

CCTOUCH_IRQHANDLER/MAIN                       ----- -----  ----- -----
  +--> __CMS_GETTOUCHKEYVALUE/CHECKTOUCHKEY_80F761X_CS_V1_011

__CMS_GETTOUCHKEYVALUE/CHECKTOUCHKEY_80F+     ----- -----  ----- -----
... 761X_CS_V1_011
  +--> __CMS_KEYMODESET/CHECKTOUCHKEY_80F761X_CS_V1_011
  +--> __CMS_KEYSTART/CHECKTOUCHKEY_80F761X_CS_V1_011

*** NEW ROOT ********************************

INT0_IRQHANDLER/ISR                           ----- -----  ----- -----

*** NEW ROOT ********************************

TIMER0_IRQHANDLER/ISR                         ----- -----  ----- -----
  +--> WDT_CLEARWDT/WDT
  +--> BRIGHT_CONTROL/BSP_LED
  +--> F_CLOCK_1MSHANDLER/CLOCK
  +--> DIDPLAY_TIME/DISPLAY

BRIGHT_CONTROL/BSP_LED                        ----- -----  ----- -----
  +--> _BSP_LEDOFF/BSP_LED
  +--> _BSP_LEDON/BSP_LED

_BSP_LEDOFF/BSP_LED                           ----- -----  ----- -----

_BSP_LEDON/BSP_LED                            ----- -----  ----- -----

F_CLOCK_1MSHANDLER/CLOCK                      ----- -----  ----- -----
  +--> F_CLOCK_1SECHANDLER/CLOCK
LX51 LINKER/LOCATER V4.66.100.0                                                       07/27/2024  08:24:11  PAGE 19



F_CLOCK_1SECHANDLER/CLOCK                     ----- -----  ----- -----

DIDPLAY_TIME/DISPLAY                          ----- -----  ----- -----

*** NEW ROOT ********************************

INT1_IRQHANDLER/ISR                           ----- -----  ----- -----

*** NEW ROOT ********************************

TIMER1_IRQHANDLER/ISR                         ----- -----  ----- -----

*** NEW ROOT ********************************

UART0_IRQHANDLER/ISR                          ----- -----  ----- -----
  +--> _UART_GETSENDINTFLAG/UART
  +--> F_UARTXDRIVE_UART0ISFRAMETXEND/UARTXDRIVE
  +--> F_UARTXDRIVE_UART0POPTXNEXTDATA/UARTXDRIVE
  +--> _UART0_SENDDATA/UART_APP
  +--> _UART_CLEARSENDINTFLAG/UART
  +--> _UART_GETRECEIVEINTFLAG/UART
  +--> _F_UARTXDRIVE_UART0RECEIVECHAR_HANDLER/UARTXDRIVE
  +--> _UART_CLEARRECEIVEINTFLAG/UART

_UART_GETSENDINTFLAG/UART                     ----- -----  ----- -----

F_UARTXDRIVE_UART0ISFRAMETXEND/UARTXDRIV+     ----- -----  ----- -----
... E

F_UARTXDRIVE_UART0POPTXNEXTDATA/UARTXDRI+     ----- -----  ----- -----
... VE

_UART0_SENDDATA/UART_APP                      ----- -----  ----- -----

_UART_CLEARSENDINTFLAG/UART                   ----- -----  ----- -----

_UART_GETRECEIVEINTFLAG/UART                  ----- -----  ----- -----

_F_UARTXDRIVE_UART0RECEIVECHAR_HANDLER/U+     ----- -----  ----- -----
... ARTXDRIVE

_UART_CLEARRECEIVEINTFLAG/UART                ----- -----  ----- -----

*** NEW ROOT ********************************

TIMER2_IRQHANDLER/ISR                         ----- -----  ----- -----

*** NEW ROOT ********************************

UART1_IRQHANDLER/ISR                          ----- -----  ----- -----

*** NEW ROOT ********************************

P0EI_IRQHANDLER/ISR                           ----- -----  ----- -----

*** NEW ROOT ********************************

P1EI_IRQHANDLER/ISR                           ----- -----  ----- -----

*** NEW ROOT ********************************

P2EI_IRQHANDLER/ISR                           ----- -----  ----- -----

*** NEW ROOT ********************************
LX51 LINKER/LOCATER V4.66.100.0                                                       07/27/2024  08:24:11  PAGE 20



P3EI_IRQHANDLER/ISR                           ----- -----  ----- -----

*** NEW ROOT ********************************

P4EI_IRQHANDLER/ISR                           ----- -----  ----- -----

*** NEW ROOT ********************************

P5EI_IRQHANDLER/ISR                           ----- -----  ----- -----

*** NEW ROOT ********************************

TIMER3_IRQHANDLER/ISR                         ----- -----  ----- -----

*** NEW ROOT ********************************

TIMER4_IRQHANDLER/ISR                         ----- -----  ----- -----

*** NEW ROOT ********************************

LED_IRQHANDLER/ISR                            ----- -----  ----- -----

*** NEW ROOT ********************************

PWM_IRQHANDLER/ISR                            ----- -----  ----- -----

*** NEW ROOT ********************************

ADC_IRQHANDLER/ISR                            ----- -----  ----- -----

*** NEW ROOT ********************************

WDT_IRQHANDLER/ISR                            ----- -----  ----- -----
  +--> WDT_GETOVERFLOWINTFLAG/WDT
  +--> WDT_CLEAROVERFLOWINTFLAG/WDT

WDT_GETOVERFLOWINTFLAG/WDT                    ----- -----  ----- -----

WDT_CLEAROVERFLOWINTFLAG/WDT                  ----- -----  ----- -----

*** NEW ROOT ********************************

I2C_IRQHANDLER/ISR                            ----- -----  ----- -----

*** NEW ROOT ********************************

SPI_IRQHANDLER/ISR                            ----- -----  ----- -----

*** NEW ROOT ********************************

UART2_IRQHANDLER/ISR                          ----- -----  ----- -----

*** NEW ROOT ********************************

LSE_SCM_IRQHANDLER/ISR                        ----- -----  ----- -----

*** NEW ROOT ********************************

LVD_IRQHANDLER/ISR                            ----- -----  ----- -----

*** NEW ROOT ********************************

WWDT_IRQHANDLER/ISR                           ----- -----  ----- -----

LX51 LINKER/LOCATER V4.66.100.0                                                       07/27/2024  08:24:11  PAGE 21




PUBLIC SYMBOLS OF MODULE:  ..\OBJ\demo1 (?C_STARTUP)


      VALUE       CLASS    TYPE      PUBLIC SYMBOL NAME
      =================================================
      02000554H   XDATA    BYTE      ?_AiP33624_WriteData2?BYTE
      0200053EH   XDATA    BYTE      ?_f_UARTxDrive_ReadFrame?BYTE
      02000527H   XDATA    BYTE      ?_f_UARTxDrive_SendFrame?BYTE
      0200054EH   XDATA    BYTE      ?_Head_Frame_rx_DATA?BYTE
      02000547H   XDATA    BYTE      ?_Head_Frame_tx_DATA?BYTE
      02000560H   XDATA    BYTE      ?_UART_ConfigBaudRate?BYTE
      01000A4BH   CODE     ---       ?C?CCASE
      0100088FH   CODE     ---       ?C?CILDOPTR
      01000862H   CODE     ---       ?C?CLDOPTR
      01000849H   CODE     ---       ?C?CLDPTR
      00000000H   NUMBER   ---       ?C?CODESEG
      01000823H   CODE     ---       ?C?COPY
      010008D4H   CODE     ---       ?C?CSTOPTR
      010008C2H   CODE     ---       ?C?CSTPTR
      0100094BH   CODE     ---       ?C?IILDX
      01000961H   CODE     ---       ?C?ILDIX
      01000A71H   CODE     ---       ?C?LCASE
      010009BEH   CODE     ---       ?C?LLDCODE
      010009CEH   CODE     ---       ?C?LLDCODE0
      01000977H   CODE     ---       ?C?LNOT
      010009ABH   CODE     ---       ?C?LSHL
      010009EAH   CODE     ---       ?C?LSTKXDATA
      010009DEH   CODE     ---       ?C?LSTXDATA
      01000C31H   CODE     ---       ?C?MEMCMP
      01000D3EH   CODE     ---       ?C?PLDCODE
      01000D23H   CODE     ---       ?C?PLDIDATA
      01000A1BH   CODE     ---       ?C?PLDOPTR
      01000D35H   CODE     ---       ?C?PLDPDATA
      01000D2CH   CODE     ---       ?C?PLDXDATA
      01000984H   CODE     ---       ?C?SLCMP
      01004EE8H   CODE     ---       ?C?SLDIV
      010008F6H   CODE     ---       ?C?UIDIV
      0100099AH   CODE     ---       ?C?ULCMP
      01000C91H   CODE     ---       ?C?ULDIV
      00000000H   NUMBER   ---       ?C?XDATASEG
      01004316H   CODE     ---       ?C_START
      01000000H   CODE     NEAR LAB  ?C_STARTUP
      010025D8H   CODE     ---       ___CMS_CurAdjustdl
      01004225H   CODE     ---       ___CMS_KeyClearOne
      0100506FH   CODE     ---       ___CMS_KeyHaveDown
      0100533DH   CODE     ---       ___CMS_KeyIsIn
      01005124H   CODE     ---       ___CMS_KeyOpen
      01002B61H   CODE     ---       __CMS_CheckKeyOldValue
      01001838H   CODE     ---       __CMS_CheckOnceResult
      0100403AH   CODE     ---       __CMS_CheckTouchKey
      01004E5CH   CODE     ---       __CMS_CheckValidTime
      01003240H   CODE     ---       __CMS_CurAdjust
      01005888H   CONST    ---       __CMS_CurStep_Table
      010043F4H   CODE     ---       __CMS_GetTouchKeyValue
      010037ECH   CODE     ---       __CMS_Key_UNNOL_Check
      01003F8FH   CODE     ---       __CMS_KeyDatIIR
      01004694H   CODE     ---       __CMS_KeyModeSet
      010036DFH   CODE     ---       __CMS_KeyStart
      01005459H   CODE     ---       __CMS_KeyStopClear
      010033D3H   CODE     ---       __CMS_Noise_check
*DEL*:00000000H   CODE     ---       _ADC_ConfigADCCMP
*DEL*:00000000H   CODE     ---       _ADC_ConfigAN63
*DEL*:00000000H   CODE     ---       _ADC_ConfigCompareValue
LX51 LINKER/LOCATER V4.66.100.0                                                       07/27/2024  08:24:11  PAGE 22


*DEL*:00000000H   CODE     ---       _ADC_ConfigConvertTime
*DEL*:00000000H   CODE     ---       _ADC_ConfigHardwareTrig
*DEL*:00000000H   CODE     ---       _ADC_ConfigRunMode
*DEL*:00000000H   CODE     ---       _ADC_ConfigSampleTime
*DEL*:00000000H   CODE     ---       _ADC_EnableChannel
*DEL*:00000000H   CODE     ---       _ADC_SetTrigDelayTime
      01005030H   CODE     ---       _AiP33624_write
      01004EA4H   CODE     ---       _AiP33624_WriteData
*DEL*:00000000H   CODE     ---       _AiP33624_WriteData1
*DEL*:00000000H   CODE     ---       _AiP33624_WriteData2
*DEL*:00000000H   CODE     ---       _AiP33624_WriteData4
*DEL*:00000000H   CODE     ---       _AiP33624_WriteData_Blue
*DEL*:00000000H   CODE     ---       _AiP33624_WriteData_Full_Breath_1
*DEL*:00000000H   CODE     ---       _AiP33624_WriteData_Full_Breath_2
*DEL*:00000000H   CODE     ---       _AiP33624_WriteData_Full_Breath_3
*DEL*:00000000H   CODE     ---       _AiP33624_WriteData_Green
*DEL*:00000000H   CODE     ---       _AiP33624_WriteData_Red
*DEL*:00000000H   CODE     ---       _bsp_IsLedOn
      01004189H   CODE     ---       _bsp_LedOff
      0100435BH   CODE     ---       _bsp_LedOn
*DEL*:00000000H   CODE     ---       _bsp_LedToggle
      01005700H   CODE     ---       _CM_Delay
      01005479H   CODE     ---       _Delay_ms
      01005663H   CODE     ---       _f_MCUHardware_NOPDelay
      01004D34H   CODE     ---       _f_UARTKey_CalcVarify
      01004E14H   CODE     ---       _f_UARTKey_CalcVarify2
      01005613H   CODE     ---       _f_UARTxDrive_GetRecvFrameSta
      01005629H   CODE     ---       _f_UARTxDrive_GetSendFrameSta
*DEL*:00000000H   CODE     ---       _f_UARTxDrive_IsFrameTxEnd
*DEL*:00000000H   CODE     ---       _f_UARTxDrive_IsrPopTxNextData
      010038F4H   CODE     ---       _f_UARTxDrive_ReadFrame
      01005277H   CODE     ---       _f_UartxDrive_RxReset
      01002EF6H   CODE     ---       _f_UARTxDrive_SendFrame
      010050E8H   CODE     ---       _f_UartxDrive_TxReset
      01004DCBH   CODE     ---       _f_UARTxDrive_Uart0ReceiveChar_Handler
*DEL*:00000000H   CODE     ---       _f_UARTxDrive_Uart1ReceiveChar_Handler
*DEL*:00000000H   CODE     ---       _f_UARTxDrive_Uart2ReceiveChar_Handler
*DEL*:00000000H   CODE     ---       _f_UARTxDrive_UartReceiveChar_Handler
*DEL*:00000000H   CODE     ---       _FLASH_Crc
*DEL*:00000000H   CODE     ---       _FLASH_Erase
*DEL*:00000000H   CODE     ---       _FLASH_Read
*DEL*:00000000H   CODE     ---       _FLASH_Write
*DEL*:00000000H   CODE     ---       _get_Led_brightness
*DEL*:00000000H   CODE     ---       _get_Led_state
*DEL*:00000000H   CODE     ---       _GPIO_ClearIntFlag
*DEL*:00000000H   CODE     ---       _GPIO_DisableInt
*DEL*:00000000H   CODE     ---       _GPIO_EnableInt
*DEL*:00000000H   CODE     ---       _GPIO_GetIntFlag
      010028BBH   CODE     ---       _Head_Frame_rx_DATA
      01001FE7H   CODE     ---       _Head_Frame_tx_DATA
      01001306H   CODE     ---       _Head_Uplink_Data_Get
*DEL*:00000000H   CODE     ---       _LED_ConfigLatticeClkDiv
*DEL*:00000000H   CODE     ---       _LED_ConfigLatticeMode
*DEL*:00000000H   CODE     ---       _LED_ConfigLatticePeriod1
*DEL*:00000000H   CODE     ---       _LED_ConfigLatticePeriod2
*DEL*:00000000H   CODE     ---       _LED_ConfigMatrixClkDiv
*DEL*:00000000H   CODE     ---       _LED_ConfigMatrixComTime
*DEL*:00000000H   CODE     ---       _LED_ConfigMatrixMode
*DEL*:00000000H   CODE     ---       _PWM_ClearDownCmpIntFlag
*DEL*:00000000H   CODE     ---       _PWM_ClearZeroIntFlag
*DEL*:00000000H   CODE     ---       _PWM_ConfigChannelClk
*DEL*:00000000H   CODE     ---       _PWM_ConfigChannelDuty
*DEL*:00000000H   CODE     ---       _PWM_ConfigChannelPeriod
*DEL*:00000000H   CODE     ---       _PWM_ConfigRunMode
*DEL*:00000000H   CODE     ---       _PWM_DisableDeadZone
LX51 LINKER/LOCATER V4.66.100.0                                                       07/27/2024  08:24:11  PAGE 23


*DEL*:00000000H   CODE     ---       _PWM_DisableDownCmpInt
*DEL*:00000000H   CODE     ---       _PWM_DisableOutput
*DEL*:00000000H   CODE     ---       _PWM_DisableReverseOutput
*DEL*:00000000H   CODE     ---       _PWM_DisableZeroInt
*DEL*:00000000H   CODE     ---       _PWM_EnableAutoLoadMode
*DEL*:00000000H   CODE     ---       _PWM_EnableDeadZone
*DEL*:00000000H   CODE     ---       _PWM_EnableDownCmpInt
*DEL*:00000000H   CODE     ---       _PWM_EnableOneShotMode
*DEL*:00000000H   CODE     ---       _PWM_EnableOutput
*DEL*:00000000H   CODE     ---       _PWM_EnableReverseOutput
*DEL*:00000000H   CODE     ---       _PWM_EnableZeroInt
*DEL*:00000000H   CODE     ---       _PWM_GetDownCmpIntFlag
*DEL*:00000000H   CODE     ---       _PWM_GetZeroIntFlag
*DEL*:00000000H   CODE     ---       _PWM_Start
*DEL*:00000000H   CODE     ---       _PWM_Stop
*DEL*:00000000H   CODE     ---       _Seg_Tran
      01004518H   CODE     ---       _SetLedMode
*DEL*:00000000H   CODE     ---       _SetLedOff
*DEL*:00000000H   CODE     ---       _SetLedOn
*DEL*:00000000H   CODE     ---       _SYS_ConfigLVD
*DEL*:00000000H   CODE     ---       _SYS_ConfigSystemClk
*DEL*:00000000H   CODE     ---       _TMR2_ClearCaptureIntFlag
*DEL*:00000000H   CODE     ---       _TMR2_ClearCompareIntFlag
*DEL*:00000000H   CODE     ---       _TMR2_ConfigCompareIntMode
*DEL*:00000000H   CODE     ---       _TMR2_ConfigCompareValue
*DEL*:00000000H   CODE     ---       _TMR2_ConfigRunMode
*DEL*:00000000H   CODE     ---       _TMR2_ConfigTimerClk
*DEL*:00000000H   CODE     ---       _TMR2_ConfigTimerPeriod
*DEL*:00000000H   CODE     ---       _TMR2_DisableCapture
*DEL*:00000000H   CODE     ---       _TMR2_DisableCaptureInt
*DEL*:00000000H   CODE     ---       _TMR2_DisableCompare
*DEL*:00000000H   CODE     ---       _TMR2_DisableCompareInt
*DEL*:00000000H   CODE     ---       _TMR2_EnableCapture
*DEL*:00000000H   CODE     ---       _TMR2_EnableCaptureInt
*DEL*:00000000H   CODE     ---       _TMR2_EnableCompare
*DEL*:00000000H   CODE     ---       _TMR2_EnableCompareInt
*DEL*:00000000H   CODE     ---       _TMR2_GetCaptureIntFlag
*DEL*:00000000H   CODE     ---       _TMR2_GetCaptureValue
*DEL*:00000000H   CODE     ---       _TMR2_GetCompareIntFlag
*DEL*:00000000H   CODE     ---       _TMR_ClearOverflowIntFlag
      0100477EH   CODE     ---       _TMR_ConfigRunMode
      01004926H   CODE     ---       _TMR_ConfigTimerClk
      01004AFAH   CODE     ---       _TMR_ConfigTimerPeriod
*DEL*:00000000H   CODE     ---       _TMR_DisableGATE
*DEL*:00000000H   CODE     ---       _TMR_DisableOverflowInt
*DEL*:00000000H   CODE     ---       _TMR_EnableGATE
      010052A0H   CODE     ---       _TMR_EnableOverflowInt
*DEL*:00000000H   CODE     ---       _TMR_GetCountValue
*DEL*:00000000H   CODE     ---       _TMR_GetOverflowIntFlag
      010052C8H   CODE     ---       _TMR_Start
*DEL*:00000000H   CODE     ---       _TMR_Stop
      010056E6H   CODE     ---       _UART0_Senddata
*DEL*:00000000H   CODE     ---       _UART1_Senddata
*DEL*:00000000H   CODE     ---       _UART2_Senddata
      01004BF5H   CODE     ---       _UART_ClearReceiveIntFlag
      01004C45H   CODE     ---       _UART_ClearSendIntFlag
*DEL*:00000000H   CODE     ---       _UART_ConfigBaudRate
      01005416H   CODE     ---       _UART_ConfigBRTClk
      01005363H   CODE     ---       _UART_ConfigBRTPeriod
      0100470FH   CODE     ---       _UART_ConfigRunMode
*DEL*:00000000H   CODE     ---       _UART_DisableDoubleFrequency
*DEL*:00000000H   CODE     ---       _UART_DisableInt
*DEL*:00000000H   CODE     ---       _UART_DisableMult
*DEL*:00000000H   CODE     ---       _UART_DisableReceive
      01005225H   CODE     ---       _UART_EnableDoubleFrequency
LX51 LINKER/LOCATER V4.66.100.0                                                       07/27/2024  08:24:11  PAGE 24


      01005438H   CODE     ---       _UART_EnableInt
*DEL*:00000000H   CODE     ---       _UART_EnableMult
      0100524EH   CODE     ---       _UART_EnableReceive
*DEL*:00000000H   CODE     ---       _UART_GetBuff
*DEL*:00000000H   CODE     ---       _UART_GetNinthBit
      01004A45H   CODE     ---       _UART_GetReceiveIntFlag
      01004B51H   CODE     ---       _UART_GetSendIntFlag
*DEL*:00000000H   CODE     ---       _UART_SendBuff
*DEL*:00000000H   CODE     ---       _UART_SendNinthBit
      0100563FH   CODE     ---       _WDT_ConfigOverflowTime
      010055B2H   CODE     ---       _write_cmd
*SFR* 000000D0H.6 DATA     BIT       AC
*SFR* 000000E0H   DATA     BYTE      ACC
*SFR* 000000E0H.0 DATA     BIT       ACC_0
*SFR* 000000E0H.1 DATA     BIT       ACC_1
*SFR* 000000E0H.2 DATA     BIT       ACC_2
*SFR* 000000E0H.3 DATA     BIT       ACC_3
*SFR* 000000E0H.4 DATA     BIT       ACC_4
*SFR* 000000E0H.5 DATA     BIT       ACC_5
*SFR* 000000E0H.6 DATA     BIT       ACC_6
*SFR* 000000E0H.7 DATA     BIT       ACC_7
*DEL*:00000000H   CODE     ---       ADC_ClearIntFlag
*DEL*:00000000H   CODE     ---       ADC_DisableHardwareTrig
*DEL*:00000000H   CODE     ---       ADC_DisableInt
*DEL*:00000000H   CODE     ---       ADC_EnableHardwareTrig
*DEL*:00000000H   CODE     ---       ADC_EnableInt
*DEL*:00000000H   CODE     ---       ADC_GetADCResult
*DEL*:00000000H   CODE     ---       ADC_GetCmpResult
*DEL*:00000000H   CODE     ---       ADC_GetIntFlag
      01000041H   CODE     ---       ADC_IRQHandler
*DEL*:00000000H   CODE     ---       ADC_Start
*DEL*:00000000H   CODE     ---       ADC_Stop
*SFR* 000000D9H   DATA     BYTE      ADCCHS
*SFR* 000000D1H   DATA     BYTE      ADCMPC
*SFR* 000000D5H   DATA     BYTE      ADCMPH
*SFR* 000000D4H   DATA     BYTE      ADCMPL
*SFR* 000000DFH   DATA     BYTE      ADCON0
*SFR* 000000DEH   DATA     BYTE      ADCON1
*SFR* 000000E9H   DATA     BYTE      ADCON2
*SFR* 000000D3H   DATA     BYTE      ADDLYL
*SFR* 000000DDH   DATA     BYTE      ADRESH
*SFR* 000000DCH   DATA     BYTE      ADRESL
      010053ACH   CODE     ---       AiP33624_init
      010054F0H   CODE     ---       AiP33624_start
      0100550DH   CODE     ---       AiP33624_stop
*SFR* 000000F0H   DATA     BYTE      B
*SFR* 000000F0H.0 DATA     BIT       B_0
*SFR* 000000F0H.1 DATA     BIT       B_1
*SFR* 000000F0H.2 DATA     BIT       B_2
*SFR* 000000F0H.3 DATA     BIT       B_3
*SFR* 000000F0H.4 DATA     BIT       B_4
*SFR* 000000F0H.5 DATA     BIT       B_5
*SFR* 000000F0H.6 DATA     BIT       B_6
*SFR* 000000F0H.7 DATA     BIT       B_7
      01005193H   CODE     ---       BreathCnt_10ms
      01003D6CH   CODE     ---       Bright_Control
      010056F9H   CODE     ---       bsp_InitLED
      0100004AH   CODE     ---       bsp_InitLEDHard
      01004FF1H   CODE     ---       bsp_InitLEDVar
*SFR* 000000BFH   DATA     BYTE      BUZCON
*SFR* 000000BEH   DATA     BYTE      BUZDIV
*SFR* 000000C8H.5 DATA     BIT       CAPES
*SFR* 000000CEH   DATA     BYTE      CCEN
*SFR* 000000C3H   DATA     BYTE      CCH1
*SFR* 000000C5H   DATA     BYTE      CCH2
LX51 LINKER/LOCATER V4.66.100.0                                                       07/27/2024  08:24:11  PAGE 25


*SFR* 000000C7H   DATA     BYTE      CCH3
*SFR* 000000C2H   DATA     BYTE      CCL1
*SFR* 000000C4H   DATA     BYTE      CCL2
*SFR* 000000C6H   DATA     BYTE      CCL3
      01004C95H   CODE     ---       CCTOUCH_IRQHandler
*SFR* 0000008EH   DATA     BYTE      CKCON
*SFR* 0000008FH   DATA     BYTE      CLKDIV
*SFR* 000000E6H   DATA     BYTE      CMPDAT
*SFR* 000000D0H.7 DATA     BIT       CY
      01002D2EH   CODE     ---       Didplay_TIME
      02000383H   XDATA    BYTE      DIS_err
      010000E6H   CODE     ---       DIS_inner_ring
      01000D4AH   CODE     ---       DIS_outer_ring
*SFR* 00000083H   DATA     BYTE      DPH
*SFR* 00000083H   DATA     BYTE      DPH0
*SFR* 00000085H   DATA     BYTE      DPH1
*SFR* 00000082H   DATA     BYTE      DPL
*SFR* 00000082H   DATA     BYTE      DPL0
*SFR* 00000084H   DATA     BYTE      DPL1
*SFR* 00000086H   DATA     BYTE      DPS
*SFR* 000000A8H.7 DATA     BIT       EA
      02000536H   XDATA    BYTE      eCurKey
*SFR* 000000AAH   DATA     BYTE      EIE2
*SFR* 000000ABH   DATA     BYTE      EIE3
*SFR* 000000B2H   DATA     BYTE      EIF2
*SFR* 000000B9H   DATA     BYTE      EIP1
*SFR* 000000BAH   DATA     BYTE      EIP2
*SFR* 000000BBH   DATA     BYTE      EIP3
      02000535H   XDATA    BYTE      eLastKey
*SFR* 000000A8H.4 DATA     BIT       ES0
*SFR* 000000A8H.6 DATA     BIT       ES1
*SFR* 000000A8H.1 DATA     BIT       ET0
*SFR* 000000A8H.3 DATA     BIT       ET1
*SFR* 000000A8H.5 DATA     BIT       ET2
*SFR* 000000A8H.0 DATA     BIT       EX0
*SFR* 000000A8H.2 DATA     BIT       EX1
*SFR* 000000D0H.5 DATA     BIT       F0
      0100001EH   CODE     ---       f_ChkKey_10MsRoutine
      01005498H   CODE     ---       f_ChkKey_Init
      010039EAH   CODE     ---       f_ChkKey_KeyCheckRoutine
      010047EDH   CODE     ---       f_ChkKey_TouchBits2GlobalBits
      01003BC3H   CODE     ---       f_Clock_1MsHandler
      010051F8H   CODE     ---       f_Clock_1SecHandler
*DEL*:00000000H   CODE     ---       f_Clock_Init
      010055FCH   CODE     ---       f_DealKey_10MsRoutine
      01005685H   CODE     ---       f_DealKey_Init
      010040E2H   CODE     ---       f_DealKey_KeyEventJudgeRoutine
      0100557EH   CODE     ---       f_DealUARTKey_100MsRoutine
      01005598H   CODE     ---       f_DealUARTKey_1MsRoutine
      01000006H   CODE     ---       f_DealUARTKey_FrameDecode
      0100000EH   CODE     ---       f_DealUARTKey_FrameDecode2
      01000016H   CODE     ---       f_DealUARTKey_FrameDecode3
      010054B6H   CODE     ---       f_DealUARTKey_FrameSend
      010054D3H   CODE     ---       f_DealUARTKey_FrameSend2
*DEL*:00000000H   CODE     ---       f_DealUARTKey_GetKeyValue
*DEL*:00000000H   CODE     ---       f_DealUARTKey_GetVersionValue
      0100515EH   CODE     ---       f_DealUARTKey_Init
*DEL*:00000000H   CODE     ---       f_DealUARTKey_MasterSendFrameDecode
      01004FB1H   CODE     ---       f_DealUARTKey_RecvDoneRoutine
      010055E4H   CODE     ---       f_DealUARTKey_RecvErrRoutine
      01005651H   CODE     ---       f_DealUARTKey_RecvIdleRoutine
      01000066H   CODE     ---       f_DealUARTKey_RecvSuccessRoutine
      01005693H   CODE     ---       f_DealUARTKey_RecvTimeOutRoutine
      010050ACH   CODE     ---       f_DealUARTKey_Routine
      010056D1H   CODE     ---       f_DealUartKey_SendDoneRoutine
LX51 LINKER/LOCATER V4.66.100.0                                                       07/27/2024  08:24:11  PAGE 26


      01005388H   CODE     ---       f_DealUARTKey_SendIdleRoutine
      01004987H   CODE     ---       f_DealUARTKey_SlaveSendFrameDecode
      0100355FH   CODE     ---       f_DealUARTKey_SlaveSendFrameDecode2
      01004F6FH   CODE     ---       f_DealUARTKey_SlaveSendFrameDecode3
*DEL*:00000000H   CODE     ---       f_DealUARTKey_SlaveSendFrameTrig
      0100459CH   CODE     ---       f_MCUHardware_Init
*DEL*:00000000H   CODE     ---       f_MCUHardware_ReInit
*DEL*:00000000H   CODE     ---       f_MCUHardware_Reset
      01000026H   CODE     ---       f_UARTxDrive_1MsRoutine
      01003CA5H   CODE     ---       f_UARTxDrive_FrameOut_1MsRoutine
      01003E29H   CODE     ---       f_UARTxDrive_Init
*DEL*:00000000H   CODE     ---       f_UartxDrive_IsUart0FrameOut
*DEL*:00000000H   CODE     ---       f_UartxDrive_IsUart1FrameOut
*DEL*:00000000H   CODE     ---       f_UartxDrive_IsUart2FrameOut
      01005675H   CODE     ---       f_UARTxDrive_Uart0IsFrameTxEnd
      01004F2CH   CODE     ---       f_UARTxDrive_Uart0PopTxNextData
*DEL*:00000000H   CODE     ---       f_UARTxDrive_Uart1IsFrameTxEnd
*DEL*:00000000H   CODE     ---       f_UARTxDrive_Uart1PopTxNextData
*DEL*:00000000H   CODE     ---       f_UARTxDrive_Uart2IsFrameTxEnd
*DEL*:00000000H   CODE     ---       f_UARTxDrive_Uart2PopTxNextData
*DEL*:00000000H   CODE     ---       FLASH_Lock
*DEL*:00000000H   CODE     ---       FLASH_UnLock
      01003ADBH   CODE     ---       Full_Bright
*DEL*:00000000H   CODE     ---       Full_Color
*SFR* 00000091H   DATA     BYTE      FUNCCR
*SFR* 000000E2H   DATA     BYTE      FUNCCR1
      0100586EH   CONST    BYTE      g__CmBase
      0100587BH   CONST    BYTE      g__CMS_Key_Disp
      01005879H   CONST    BYTE      g__Key_En1kres
      01005878H   CONST    BYTE      g__Key_LDOSel
      0100586BH   CONST    BYTE      g__KeyShakeCounter
      0100586AH   CONST    BYTE      g__KeyTotalNumber
      01005874H   CONST    BYTE      g__KeyUNTime
      0100586FH   CONST    BYTE      g__KeyValidNumber
      01005870H   CONST    DWORD     g__KeyValidTime
      01005877H   CONST    BYTE      g__LMDValue
      0100586DH   CONST    BYTE      g__SluValue
      01005875H   CONST    BYTE      g__UnNol_Check
      01005876H   CONST    BYTE      g__UnNol_Times
      0100586CH   CONST    BYTE      g__VolValue
      0100587AH   CONST    BYTE      g__WaterMode
      020003FEH   XDATA    ---       g_CMS_RAM0
      0200040AH   XDATA    ---       g_CMS_RAM1
      02000464H   XDATA    ---       g_CMS_RAM10
      0200046AH   XDATA    ---       g_CMS_RAM11
      02000470H   XDATA    ---       g_CMS_RAM12
      02000476H   XDATA    ---       g_CMS_RAM13
      0200047CH   XDATA    ---       g_CMS_RAM14
      02000482H   XDATA    ---       g_CMS_RAM15
      02000416H   XDATA    ---       g_CMS_RAM2
      02000422H   XDATA    ---       g_CMS_RAM3
      0200042EH   XDATA    ---       g_CMS_RAM4
      0200043AH   XDATA    ---       g_CMS_RAM5
      02000446H   XDATA    ---       g_CMS_RAM6
      02000452H   XDATA    ---       g_CMS_RAM7
      02000458H   XDATA    ---       g_CMS_RAM8
      0200045EH   XDATA    ---       g_CMS_RAM9
      02000519H   XDATA    ---       g_Led
      01005743H   CONST    ---       gamm10
      01005753H   CONST    ---       gamm20
      01005713H   CONST    ---       gamma
      01005733H   CONST    ---       gamma1
      0100573BH   CONST    ---       gamma2
      01005763H   CONST    ---       gamma3
      010056F0H   CODE     ---       Get_Breath_Cnt
LX51 LINKER/LOCATER V4.66.100.0                                                       07/27/2024  08:24:11  PAGE 27


      01005707H   CODE     ---       Get_Inner_Cnt
      0100570DH   CODE     ---       Get_Outer_Cnt
      00000020H.4 BIT      BIT       gf_kerr
      0100002EH   CODE     ---       GPIO_Config
      01003EE1H   CODE     ---       GPIO_Init
*DEL*:00000000H   CODE     ---       GPIO_ReConfig
*DEL*:00000000H   CODE     ---       GPIO_ReInit
      010055CCH   CODE     ---       Head_Comm_cmp
      01004D81H   CODE     ---       Head_Comm_send
      010049E7H   CODE     ---       Head_Comm_send2
      02000488H   XDATA    ---       Head_Downlink_data_New
      02000495H   XDATA    ---       Head_Downlink_data_Now
      020003EBH   XDATA    ---       Head_State
      020004A2H   XDATA    ---       Head_Uplink_data_New
      020004B2H   XDATA    ---       Head_Uplink_data_Now
      01000042H   CODE     ---       I2C_IRQHandler
*SFR* 000000F6H   DATA     BYTE      I2CMBUF
*SFR* 000000F5H   DATA     BYTE      I2CMCR
*SFR* 000000F4H   DATA     BYTE      I2CMSA
*SFR* 000000F5H   DATA     BYTE      I2CMSR
*SFR* 000000F7H   DATA     BYTE      I2CMTP
*SFR* 000000F1H   DATA     BYTE      I2CSADR
*SFR* 000000F3H   DATA     BYTE      I2CSBUF
*SFR* 000000F2H   DATA     BYTE      I2CSCR
*SFR* 000000F2H   DATA     BYTE      I2CSSR
*SFR* 000000C8H.6 DATA     BIT       I3FR
*SFR* 000000A8H   DATA     BYTE      IE
*SFR* 00000088H.1 DATA     BIT       IE0
*SFR* 00000088H.3 DATA     BIT       IE1
      010057A3H   CONST    ---       index_wave
      010053D0H   CODE     ---       InnerCnt_10ms
      0200038BH   XDATA    BYTE      Innerring
      0200038CH   XDATA    ---       Innerring_BUFF
      0200038AH   XDATA    BYTE      Innerring_Over_flag
      0100000AH   CODE     ---       INT0_IRQHandler
      01000012H   CODE     ---       INT1_IRQHandler
*SFR* 000000B8H   DATA     BYTE      IP
*SFR* 00000088H.0 DATA     BIT       IT0
*SFR* 00000088H.2 DATA     BIT       IT1
      02000511H   XDATA    DWORD     KeyFlag
      02000539H   XDATA    BYTE      Keyvalue
      0200039BH   XDATA    ---       LED_Buff
*DEL*:00000000H   CODE     ---       LED_ClearIntFlag
      010051C8H   CODE     ---       LED_Config
      01001C2AH   CODE     ---       Led_Dis
*DEL*:00000000H   CODE     ---       LED_DisableInt
*DEL*:00000000H   CODE     ---       LED_EnableInt
*DEL*:00000000H   CODE     ---       LED_EnableLatticeMode
*DEL*:00000000H   CODE     ---       LED_EnableMatrixMode
*DEL*:00000000H   CODE     ---       LED_GetIntFlag
      02000525H   XDATA    WORD      LED_GPIO
      01005317H   CODE     ---       Led_Init
      0100003FH   CODE     ---       LED_IRQHandler
*DEL*:00000000H   CODE     ---       LED_RestartLattice
*DEL*:00000000H   CODE     ---       LED_StartLattice
*DEL*:00000000H   CODE     ---       LED_StartMatrix
*DEL*:00000000H   CODE     ---       LED_StopLattice
*DEL*:00000000H   CODE     ---       LED_StopMatrix
      01000047H   CODE     ---       LSE_SCM_IRQHandler
      01000048H   CODE     ---       LVD_IRQHandler
*SFR* 000000FDH   DATA     BYTE      MADRH
*SFR* 000000FCH   DATA     BYTE      MADRL
      01004489H   CODE     ---       main
*SFR* 000000FFH   DATA     BYTE      MCTRL
*SFR* 000000FEH   DATA     BYTE      MDATA
LX51 LINKER/LOCATER V4.66.100.0                                                       07/27/2024  08:24:11  PAGE 28


*SFR* 000000FBH   DATA     BYTE      MLOCK
      010053F3H   CODE     ---       OuterCnt_10ms
      020003DDH   XDATA    BYTE      Outerring
      020003DEH   XDATA    ---       Outerring_BUFF
      020003DCH   XDATA    BYTE      Outerring_Over_flag
*SFR* 000000D0H.2 DATA     BIT       OV
*SFR* 000000D0H.0 DATA     BIT       P
*SFR* 00000080H   DATA     BYTE      P0
*SFR* 00000080H.0 DATA     BIT       P00
*SFR* 00000080H.1 DATA     BIT       P01
*SFR* 00000080H.2 DATA     BIT       P02
*SFR* 00000080H.3 DATA     BIT       P03
*SFR* 00000080H.4 DATA     BIT       P04
*SFR* 00000080H.5 DATA     BIT       P05
*SFR* 00000080H.6 DATA     BIT       P06
*SFR* 00000080H.7 DATA     BIT       P07
*SFR* 00000080H.0 DATA     BIT       P0_0
*SFR* 00000080H.1 DATA     BIT       P0_1
*SFR* 00000080H.2 DATA     BIT       P0_2
*SFR* 00000080H.3 DATA     BIT       P0_3
*SFR* 00000080H.4 DATA     BIT       P0_4
*SFR* 00000080H.5 DATA     BIT       P0_5
*SFR* 00000080H.6 DATA     BIT       P0_6
*SFR* 00000080H.7 DATA     BIT       P0_7
      0100002AH   CODE     ---       P0EI_IRQHandler
*SFR* 000000ACH   DATA     BYTE      P0EXTIE
*SFR* 000000B4H   DATA     BYTE      P0EXTIF
*SFR* 0000009AH   DATA     BYTE      P0TRIS
*SFR* 00000090H   DATA     BYTE      P1
*SFR* 00000090H.0 DATA     BIT       P10
*SFR* 00000090H.1 DATA     BIT       P11
*SFR* 00000090H.2 DATA     BIT       P12
*SFR* 00000090H.3 DATA     BIT       P13
*SFR* 00000090H.4 DATA     BIT       P14
*SFR* 00000090H.5 DATA     BIT       P15
*SFR* 00000090H.6 DATA     BIT       P16
*SFR* 00000090H.7 DATA     BIT       P17
*SFR* 00000090H.0 DATA     BIT       P1_0
*SFR* 00000090H.1 DATA     BIT       P1_1
*SFR* 00000090H.2 DATA     BIT       P1_2
*SFR* 00000090H.3 DATA     BIT       P1_3
*SFR* 00000090H.4 DATA     BIT       P1_4
*SFR* 00000090H.5 DATA     BIT       P1_5
*SFR* 00000090H.6 DATA     BIT       P1_6
*SFR* 00000090H.7 DATA     BIT       P1_7
      01000032H   CODE     ---       P1EI_IRQHandler
*SFR* 000000ADH   DATA     BYTE      P1EXTIE
*SFR* 000000B5H   DATA     BYTE      P1EXTIF
*SFR* 000000A1H   DATA     BYTE      P1TRIS
*SFR* 000000A0H   DATA     BYTE      P2
*SFR* 000000A0H.0 DATA     BIT       P20
*SFR* 000000A0H.1 DATA     BIT       P21
*SFR* 000000A0H.2 DATA     BIT       P22
*SFR* 000000A0H.3 DATA     BIT       P23
*SFR* 000000A0H.4 DATA     BIT       P24
*SFR* 000000A0H.5 DATA     BIT       P25
*SFR* 000000A0H.6 DATA     BIT       P26
*SFR* 000000A0H.7 DATA     BIT       P27
*SFR* 000000A0H.0 DATA     BIT       P2_0
*SFR* 000000A0H.1 DATA     BIT       P2_1
*SFR* 000000A0H.2 DATA     BIT       P2_2
*SFR* 000000A0H.3 DATA     BIT       P2_3
*SFR* 000000A0H.4 DATA     BIT       P2_4
*SFR* 000000A0H.5 DATA     BIT       P2_5
*SFR* 000000A0H.6 DATA     BIT       P2_6
LX51 LINKER/LOCATER V4.66.100.0                                                       07/27/2024  08:24:11  PAGE 29


*SFR* 000000A0H.7 DATA     BIT       P2_7
      01000036H   CODE     ---       P2EI_IRQHandler
*SFR* 000000AEH   DATA     BYTE      P2EXTIE
*SFR* 000000B6H   DATA     BYTE      P2EXTIF
*SFR* 000000A2H   DATA     BYTE      P2TRIS
*SFR* 000000B0H   DATA     BYTE      P3
*SFR* 000000B0H.0 DATA     BIT       P30
*SFR* 000000B0H.1 DATA     BIT       P31
*SFR* 000000B0H.2 DATA     BIT       P32
*SFR* 000000B0H.3 DATA     BIT       P33
*SFR* 000000B0H.4 DATA     BIT       P34
*SFR* 000000B0H.5 DATA     BIT       P35
*SFR* 000000B0H.6 DATA     BIT       P36
*SFR* 000000B0H.7 DATA     BIT       P37
*SFR* 000000B0H.0 DATA     BIT       P3_0
*SFR* 000000B0H.1 DATA     BIT       P3_1
*SFR* 000000B0H.2 DATA     BIT       P3_2
*SFR* 000000B0H.3 DATA     BIT       P3_3
*SFR* 000000B0H.4 DATA     BIT       P3_4
*SFR* 000000B0H.5 DATA     BIT       P3_5
*SFR* 000000B0H.6 DATA     BIT       P3_6
*SFR* 000000B0H.7 DATA     BIT       P3_7
      01000037H   CODE     ---       P3EI_IRQHandler
*SFR* 000000AFH   DATA     BYTE      P3EXTIE
*SFR* 000000B7H   DATA     BYTE      P3EXTIF
*SFR* 000000A3H   DATA     BYTE      P3TRIS
*SFR* 000000C0H   DATA     BYTE      P4
*SFR* 000000C0H.0 DATA     BIT       P40
*SFR* 000000C0H.1 DATA     BIT       P41
*SFR* 000000C0H.2 DATA     BIT       P42
*SFR* 000000C0H.3 DATA     BIT       P43
*SFR* 000000C0H.4 DATA     BIT       P44
*SFR* 000000C0H.5 DATA     BIT       P45
*SFR* 000000C0H.6 DATA     BIT       P46
*SFR* 000000C0H.7 DATA     BIT       P47
*SFR* 000000C0H.0 DATA     BIT       P4_0
*SFR* 000000C0H.1 DATA     BIT       P4_1
*SFR* 000000C0H.2 DATA     BIT       P4_2
*SFR* 000000C0H.3 DATA     BIT       P4_3
*SFR* 000000C0H.4 DATA     BIT       P4_4
*SFR* 000000C0H.5 DATA     BIT       P4_5
*SFR* 000000C0H.6 DATA     BIT       P4_6
*SFR* 000000C0H.7 DATA     BIT       P4_7
      01000038H   CODE     ---       P4EI_IRQHandler
*SFR* 0000009BH   DATA     BYTE      P4EXTIE
*SFR* 000000A6H   DATA     BYTE      P4EXTIF
*SFR* 000000A4H   DATA     BYTE      P4TRIS
*SFR* 000000D8H   DATA     BYTE      P5
*SFR* 000000D8H.0 DATA     BIT       P50
*SFR* 000000D8H.1 DATA     BIT       P51
*SFR* 000000D8H.2 DATA     BIT       P52
*SFR* 000000D8H.3 DATA     BIT       P53
*SFR* 000000D8H.4 DATA     BIT       P54
*SFR* 000000D8H.5 DATA     BIT       P55
*SFR* 000000D8H.0 DATA     BIT       P5_0
*SFR* 000000D8H.1 DATA     BIT       P5_1
*SFR* 000000D8H.2 DATA     BIT       P5_2
*SFR* 000000D8H.3 DATA     BIT       P5_3
*SFR* 000000D8H.4 DATA     BIT       P5_4
*SFR* 000000D8H.5 DATA     BIT       P5_5
*SFR* 000000D8H.6 DATA     BIT       P5_6
*SFR* 000000D8H.7 DATA     BIT       P5_7
      01000039H   CODE     ---       P5EI_IRQHandler
*SFR* 0000009CH   DATA     BYTE      P5EXTIE
*SFR* 000000A7H   DATA     BYTE      P5EXTIF
LX51 LINKER/LOCATER V4.66.100.0                                                       07/27/2024  08:24:11  PAGE 30


*SFR* 000000A5H   DATA     BYTE      P5TRIS
*SFR* 00000087H   DATA     BYTE      PCON
*SFR* 000000E3H   DATA     BYTE      PCON1
*SFR* 000000FAH   DATA     BYTE      PCRCDH
*SFR* 000000F9H   DATA     BYTE      PCRCDL
*SFR* 000000A0H   DATA     BYTE      PPAGE_SFR
*SFR* 000000B8H.4 DATA     BIT       PS0
*SFR* 000000B8H.6 DATA     BIT       PS1
*SFR* 000000D0H   DATA     BYTE      PSW
*SFR* 000000B8H.1 DATA     BIT       PT0
*SFR* 000000B8H.3 DATA     BIT       PT1
*SFR* 000000B8H.5 DATA     BIT       PT2
*DEL*:00000000H   CODE     ---       PWM_AllIntDisable
*DEL*:00000000H   CODE     ---       PWM_AllIntEnable
*DEL*:00000000H   CODE     ---       PWM_EnableSynCount
      01000040H   CODE     ---       PWM_IRQHandler
*SFR* 000000B8H.0 DATA     BIT       PX0
*SFR* 000000B8H.2 DATA     BIT       PX1
      010056B9H   CODE     ---       Reset_Breath_Cnt
      010056A1H   CODE     ---       Reset_Inner_Cnt
      010056ADH   CODE     ---       Reset_Outer_Cnt
*SFR* 00000098H.0 DATA     BIT       RI0
*SFR* 000000CBH   DATA     BYTE      RLDH
*SFR* 000000CAH   DATA     BYTE      RLDL
*SFR* 000000D0H.3 DATA     BIT       RS0
*SFR* 000000D0H.4 DATA     BIT       RS1
      02000515H   XDATA    BYTE      s_TouchProcessFlag
*SFR* 00000099H   DATA     BYTE      SBUF0
*SFR* 000000EBH   DATA     BYTE      SBUF1
*SFR* 000000E5H   DATA     BYTE      SBUF2
*SFR* 000000D6H   DATA     BYTE      SCKSEL
*SFR* 000000D7H   DATA     BYTE      SCKSTAU
*SFR* 00000098H   DATA     BYTE      SCON0
*SFR* 000000EAH   DATA     BYTE      SCON1
*SFR* 000000E4H   DATA     BYTE      SCON2
*SFR* 00000092H   DATA     BYTE      SFRS
*SFR* 00000081H   DATA     BYTE      SP
*SFR* 000000ECH   DATA     BYTE      SPCR
*SFR* 000000EEH   DATA     BYTE      SPDR
      01000046H   CODE     ---       SPI_IRQHandler
*SFR* 000000EDH   DATA     BYTE      SPSR
*SFR* 000000EFH   DATA     BYTE      SSCR
      020003FBH   XDATA    BYTE      State_bzthree
*DEL*:00000000H   CODE     ---       SYS_ClearConfigResetFlag
*DEL*:00000000H   CODE     ---       SYS_ClearEXTResetFlag
*DEL*:00000000H   CODE     ---       SYS_ClearLVDIntFlag
*DEL*:00000000H   CODE     ---       SYS_ClearPowerOnResetFlag
*DEL*:00000000H   CODE     ---       SYS_ClearSCMIntFlag
*DEL*:00000000H   CODE     ---       SYS_ClearWDTResetFlag
*DEL*:00000000H   CODE     ---       SYS_ClearWWDTResetFlag
*DEL*:00000000H   CODE     ---       SYS_DisableLVD
*DEL*:00000000H   CODE     ---       SYS_DisableLVDInt
*DEL*:00000000H   CODE     ---       SYS_DisableSCM
*DEL*:00000000H   CODE     ---       SYS_DisableSCMInt
*DEL*:00000000H   CODE     ---       SYS_DisableSoftwareReset
*DEL*:00000000H   CODE     ---       SYS_DisableWakeUp
*DEL*:00000000H   CODE     ---       SYS_EnableLVD
*DEL*:00000000H   CODE     ---       SYS_EnableLVDInt
*DEL*:00000000H   CODE     ---       SYS_EnableSCM
*DEL*:00000000H   CODE     ---       SYS_EnableSCMInt
*DEL*:00000000H   CODE     ---       SYS_EnableSoftwareReset
*DEL*:00000000H   CODE     ---       SYS_EnableWakeUp
*DEL*:00000000H   CODE     ---       SYS_EnterIdle
*DEL*:00000000H   CODE     ---       SYS_EnterStop
*DEL*:00000000H   CODE     ---       SYS_GetConfigResetFlag
LX51 LINKER/LOCATER V4.66.100.0                                                       07/27/2024  08:24:11  PAGE 31


*DEL*:00000000H   CODE     ---       SYS_GetEXTResetFlag
*DEL*:00000000H   CODE     ---       SYS_GetLVDIntFlag
*DEL*:00000000H   CODE     ---       SYS_GetPowerOnResetFlag
*DEL*:00000000H   CODE     ---       SYS_GetSCMIntFlag
*DEL*:00000000H   CODE     ---       SYS_GetSCMState
*DEL*:00000000H   CODE     ---       SYS_GetWDTResetFlag
*DEL*:00000000H   CODE     ---       SYS_GetWWDTResetFlag
*SFR* 000000C8H.2 DATA     BIT       T2CM
*SFR* 000000C8H   DATA     BYTE      T2CON
*SFR* 000000C8H.0 DATA     BIT       T2I0
*SFR* 000000C8H.1 DATA     BIT       T2I1
*SFR* 000000CFH   DATA     BYTE      T2IE
*SFR* 000000C9H   DATA     BYTE      T2IF
*SFR* 000000C8H.7 DATA     BIT       T2PS
*SFR* 000000C8H.3 DATA     BIT       T2R0
*SFR* 000000C8H.4 DATA     BIT       T2R1
*SFR* 000000D2H   DATA     BYTE      T34MOD
*SFR* 00000096H   DATA     BYTE      TA
      0100587CH   CONST    ---       tabb
      01005864H   CONST    ---       Table_KeyCap
      01005852H   CONST    ---       Table_KeyChannel
      01005858H   CONST    ---       Table_KeyDown
      010022E0H   CODE     ---       Task_load_Event
*SFR* 00000088H   DATA     BYTE      TCON
      0200057DH   XDATA    ---       tCurKeyEvent
*SFR* 00000088H.5 DATA     BIT       TF0
*SFR* 00000088H.7 DATA     BIT       TF1
*SFR* 0000008CH   DATA     BYTE      TH0
*SFR* 0000008DH   DATA     BYTE      TH1
*SFR* 000000CDH   DATA     BYTE      TH2
*SFR* 000000DBH   DATA     BYTE      TH3
*SFR* 000000E3H   DATA     BYTE      TH4
*SFR* 00000098H.1 DATA     BIT       TI0
      01004AA0H   CODE     ---       Timer0_IRQHandler
      0100001AH   CODE     ---       Timer1_IRQHandler
      01000022H   CODE     ---       Timer2_IRQHandler
      0100003AH   CODE     ---       Timer3_IRQHandler
      0100003EH   CODE     ---       Timer4_IRQHandler
*SFR* 0000008AH   DATA     BYTE      TL0
*SFR* 0000008BH   DATA     BYTE      TL1
*SFR* 000000CCH   DATA     BYTE      TL2
*SFR* 000000DAH   DATA     BYTE      TL3
*SFR* 000000E2H   DATA     BYTE      TL4
*SFR* 00000089H   DATA     BYTE      TMOD
      010052F0H   CODE     ---       TMR0_Config
*DEL*:00000000H   CODE     ---       TMR0_ReConfig
*DEL*:00000000H   CODE     ---       TMR2_AllIntDisable
*DEL*:00000000H   CODE     ---       TMR2_AllIntEnable
*DEL*:00000000H   CODE     ---       TMR2_ClearOverflowIntFlag
*DEL*:00000000H   CODE     ---       TMR2_ClearT2EXIntFlag
*DEL*:00000000H   CODE     ---       TMR2_DisableGATE
*DEL*:00000000H   CODE     ---       TMR2_DisableOverflowInt
*DEL*:00000000H   CODE     ---       TMR2_DisableT2EXInt
*DEL*:00000000H   CODE     ---       TMR2_EnableGATE
*DEL*:00000000H   CODE     ---       TMR2_EnableOverflowInt
*DEL*:00000000H   CODE     ---       TMR2_EnableT2EXInt
*DEL*:00000000H   CODE     ---       TMR2_GetOverflowIntFlag
*DEL*:00000000H   CODE     ---       TMR2_GetT2EXIntFlag
*DEL*:00000000H   CODE     ---       TMR2_Start
*DEL*:00000000H   CODE     ---       TMR2_Stop
*SFR* 00000088H.4 DATA     BIT       TR0
*SFR* 00000088H.6 DATA     BIT       TR1
      0200055AH   XDATA    ---       tSysTime
      020004F0H   XDATA    ---       tUartKeyCon
      02000016H   XDATA    ---       tUartParam
LX51 LINKER/LOCATER V4.66.100.0                                                       07/27/2024  08:24:11  PAGE 32


*SFR* 00000098H.2 DATA     BIT       U0RB8
*SFR* 00000098H.4 DATA     BIT       U0REN
*SFR* 00000098H.7 DATA     BIT       U0SM0
*SFR* 00000098H.6 DATA     BIT       U0SM1
*SFR* 00000098H.5 DATA     BIT       U0SM2
*SFR* 00000098H.3 DATA     BIT       U0TB8
      00000025H   DATA     WORD      u16Clock_TickCnt
      02000537H   XDATA    WORD      u16ComKeyBits
      0200057BH   XDATA    WORD      u16CurKeyCount
      02000533H   XDATA    WORD      u16TouchKeyBits
      0200053AH   XDATA    DWORD     u32GlobalKeyBits
      0000002AH   DATA     BYTE      u8Clock_1000MsFlag
      00000023H   DATA     BYTE      u8Clock_100MsFlag
      00000021H   DATA     BYTE      u8Clock_10MsFlag
      00000027H   DATA     BYTE      u8Clock_1MsFlag
      00000028H   DATA     BYTE      u8Clock_2MsFlag
      00000024H   DATA     BYTE      u8Clock_500MsFlag
      00000022H   DATA     BYTE      u8Clock_50MsFlag
      00000029H   DATA     BYTE      u8Clock_5MsFlag
      02000000H   XDATA    ---       u8Uart0Rxbuf
      02000174H   XDATA    ---       u8Uart0Txbuf
      02000046H   XDATA    ---       u8Uart1Rxbuf
      02000186H   XDATA    ---       u8Uart1Txbuf
      02000145H   XDATA    ---       u8Uart2Rxbuf
      02000285H   XDATA    ---       u8Uart2Txbuf
      020004C5H   XDATA    BYTE      u8UartKeyDecodeErrCnt
      020004C4H   XDATA    BYTE      u8UartKeyRecvTimeOutCnt
      020004FBH   XDATA    BYTE      u8UartKeyRxCnt
      020004C7H   XDATA    ---       u8UartKeyRxFrame
      020004EFH   XDATA    BYTE      u8UartKeySendASKTimeOutCnt
      020004FCH   XDATA    BYTE      u8UartKeySendTimeOutCnt
      020004C6H   XDATA    BYTE      u8UartKeySta
      020004DDH   XDATA    ---       u8UartKeyTxFrame
      01004CE5H   CODE     ---       UART0_APP_Config
      01004619H   CODE     ---       UART0_IRQHandler
*DEL*:00000000H   CODE     ---       UART1_APP_Config
      01004858H   CODE     ---       UART1_IRQHandler
*DEL*:00000000H   CODE     ---       UART2_APP_Config
      010048BFH   CODE     ---       UART2_IRQHandler
*DEL*:00000000H   CODE     ---       UART_DisableBRT
      010056DCH   CODE     ---       UART_EnableBRT
      020004C3H   XDATA    BYTE      Uart_Flag
*SFR* 00000097H   DATA     BYTE      WDCON
      01005562H   CODE     ---       WDT_ClearOverflowIntFlag
      01005546H   CODE     ---       WDT_ClearWDT
      010056C5H   CODE     ---       WDT_Config
*DEL*:00000000H   CODE     ---       WDT_DisableOverflowInt
*DEL*:00000000H   CODE     ---       WDT_DisableWDTReset
*DEL*:00000000H   CODE     ---       WDT_EnableOverflowInt
      0100552AH   CODE     ---       WDT_EnableWDTReset
      010000BEH   CODE     ---       WDT_GetOverflowIntFlag
      01004BA4H   CODE     ---       WDT_IRQHandler
*SFR* 000000BDH   DATA     BYTE      WUTCRH
*SFR* 000000BCH   DATA     BYTE      WUTCRL
      01000049H   CODE     ---       WWDT_IRQHandler
*SFR* 000000E5H   DATA     BYTE      WWDTCON
*SFR* 000000E7H   DATA     BYTE      WWDTCON2



SYMBOL TABLE OF MODULE:  ..\OBJ\demo1 (?C_STARTUP)

      VALUE       REP       CLASS    TYPE      SYMBOL NAME
      ====================================================
      ---         MODULE    ---      ---       ?C_STARTUP
LX51 LINKER/LOCATER V4.66.100.0                                                       07/27/2024  08:24:11  PAGE 33


      01000000H   PUBLIC    CODE     NEAR LAB  ?C_STARTUP
      000000E0H   SFRSYM    DATA     BYTE      ACC
      000000F0H   SFRSYM    DATA     BYTE      B
      00000083H   SFRSYM    DATA     BYTE      DPH
      00000082H   SFRSYM    DATA     BYTE      DPL
      000000A0H   SFRSYM    DATA     BYTE      PPAGE_SFR
      00000081H   SFRSYM    DATA     BYTE      SP
      00000000H   SYMBOL    NUMBER   ---       IBPSTACK
      00000100H   SYMBOL    NUMBER   ---       IBPSTACKTOP
      00000100H   SYMBOL    NUMBER   ---       IDATALEN
      010042C4H   SYMBOL    CODE     NEAR LAB  IDATALOOP
      00000000H   SYMBOL    NUMBER   ---       PBPSTACK
      00000100H   SYMBOL    NUMBER   ---       PBPSTACKTOP
      00000000H   SYMBOL    NUMBER   ---       PDATALEN
      00000000H   SYMBOL    NUMBER   ---       PDATASTART
      00000000H   SYMBOL    NUMBER   ---       PPAGE
      00000000H   SYMBOL    NUMBER   ---       PPAGEENABLE
      010042C1H   SYMBOL    CODE     NEAR LAB  STARTUP1
      00000000H   SYMBOL    NUMBER   ---       XBPSTACK
      00010000H   SYMBOL    NUMBER   ---       XBPSTACKTOP
      00001000H   SYMBOL    NUMBER   ---       XDATALEN
      010042CFH   SYMBOL    CODE     NEAR LAB  XDATALOOP
      00000000H   SYMBOL    NUMBER   ---       XDATASTART

      01000000H   BLOCK     CODE     NEAR LAB  LVL=0
      01000000H   LINE      CODE     ---       #126
      ---         BLOCKEND  ---      ---       LVL=0

      010042C1H   BLOCK     CODE     NEAR LAB  LVL=0
      010042C1H   LINE      CODE     ---       #133
      010042C3H   LINE      CODE     ---       #134
      010042C4H   LINE      CODE     ---       #135
      010042C5H   LINE      CODE     ---       #136
      010042C7H   LINE      CODE     ---       #140
      010042CAH   LINE      CODE     ---       #141
      010042CCH   LINE      CODE     ---       #145
      010042CEH   LINE      CODE     ---       #147
      010042CFH   LINE      CODE     ---       #148
      010042D0H   LINE      CODE     ---       #149
      010042D1H   LINE      CODE     ---       #150
      010042D3H   LINE      CODE     ---       #151
      010042D5H   LINE      CODE     ---       #185
      010042D8H   LINE      CODE     ---       #196
      ---         BLOCKEND  ---      ---       LVL=0

      ---         MODULE    ---      ---       UART
      01005363H   PUBLIC    CODE     ---       _UART_ConfigBRTPeriod
      01005416H   PUBLIC    CODE     ---       _UART_ConfigBRTClk
      010056DCH   PUBLIC    CODE     ---       UART_EnableBRT
      01004C45H   PUBLIC    CODE     ---       _UART_ClearSendIntFlag
      01004B51H   PUBLIC    CODE     ---       _UART_GetSendIntFlag
      01004BF5H   PUBLIC    CODE     ---       _UART_ClearReceiveIntFlag
      01004A45H   PUBLIC    CODE     ---       _UART_GetReceiveIntFlag
      01005438H   PUBLIC    CODE     ---       _UART_EnableInt
      0100524EH   PUBLIC    CODE     ---       _UART_EnableReceive
      02000560H   PUBLIC    XDATA    BYTE      ?_UART_ConfigBaudRate?BYTE
      01005225H   PUBLIC    CODE     ---       _UART_EnableDoubleFrequency
      0100470FH   PUBLIC    CODE     ---       _UART_ConfigRunMode
      000000C8H.0 SFRSYM    DATA     BIT       T2I0
      000000C3H   SFRSYM    DATA     BYTE      CCH1
      00000080H   SFRSYM    DATA     BYTE      P0
      000000C8H.1 SFRSYM    DATA     BIT       T2I1
      000000C5H   SFRSYM    DATA     BYTE      CCH2
      00000090H   SFRSYM    DATA     BYTE      P1
      000000C7H   SFRSYM    DATA     BYTE      CCH3
LX51 LINKER/LOCATER V4.66.100.0                                                       07/27/2024  08:24:11  PAGE 34


      000000ACH   SFRSYM    DATA     BYTE      P0EXTIE
      000000A0H   SFRSYM    DATA     BYTE      P2
      000000B4H   SFRSYM    DATA     BYTE      P0EXTIF
      000000B0H   SFRSYM    DATA     BYTE      P3
      000000ADH   SFRSYM    DATA     BYTE      P1EXTIE
      000000D0H.6 SFRSYM    DATA     BIT       AC
      000000FFH   SFRSYM    DATA     BYTE      MCTRL
      000000C2H   SFRSYM    DATA     BYTE      CCL1
      000000C0H   SFRSYM    DATA     BYTE      P4
      000000B5H   SFRSYM    DATA     BYTE      P1EXTIF
      000000AEH   SFRSYM    DATA     BYTE      P2EXTIE
      000000D8H   SFRSYM    DATA     BYTE      P5
      000000C4H   SFRSYM    DATA     BYTE      CCL2
      000000B6H   SFRSYM    DATA     BYTE      P2EXTIF
      000000AFH   SFRSYM    DATA     BYTE      P3EXTIE
      000000A8H.7 SFRSYM    DATA     BIT       EA
      000000C6H   SFRSYM    DATA     BYTE      CCL3
      000000B7H   SFRSYM    DATA     BYTE      P3EXTIF
      000000AAH   SFRSYM    DATA     BYTE      EIE2
      0000009BH   SFRSYM    DATA     BYTE      P4EXTIE
      000000B2H   SFRSYM    DATA     BYTE      EIF2
      000000ABH   SFRSYM    DATA     BYTE      EIE3
      000000A6H   SFRSYM    DATA     BYTE      P4EXTIF
      0000009CH   SFRSYM    DATA     BYTE      P5EXTIE
      000000A7H   SFRSYM    DATA     BYTE      P5EXTIF
      000000C8H.3 SFRSYM    DATA     BIT       T2R0
      000000C8H.4 SFRSYM    DATA     BIT       T2R1
      00000083H   SFRSYM    DATA     BYTE      DPH0
      000000A8H   SFRSYM    DATA     BYTE      IE
      00000085H   SFRSYM    DATA     BYTE      DPH1
      00000080H.0 SFRSYM    DATA     BIT       P0_0
      000000B9H   SFRSYM    DATA     BYTE      EIP1
      00000090H.0 SFRSYM    DATA     BIT       P1_0
      00000080H.1 SFRSYM    DATA     BIT       P0_1
      000000BAH   SFRSYM    DATA     BYTE      EIP2
      00000082H   SFRSYM    DATA     BYTE      DPL0
      000000A0H.0 SFRSYM    DATA     BIT       P2_0
      00000090H.1 SFRSYM    DATA     BIT       P1_1
      00000080H.2 SFRSYM    DATA     BIT       P0_2
      000000BBH   SFRSYM    DATA     BYTE      EIP3
      00000084H   SFRSYM    DATA     BYTE      DPL1
      000000B0H.0 SFRSYM    DATA     BIT       P3_0
      000000A0H.1 SFRSYM    DATA     BIT       P2_1
      00000090H.2 SFRSYM    DATA     BIT       P1_2
      00000080H.3 SFRSYM    DATA     BIT       P0_3
      000000C0H.0 SFRSYM    DATA     BIT       P4_0
      000000B0H.1 SFRSYM    DATA     BIT       P3_1
      000000A0H.2 SFRSYM    DATA     BIT       P2_2
      00000090H.3 SFRSYM    DATA     BIT       P1_3
      00000080H.4 SFRSYM    DATA     BIT       P0_4
      000000D8H.0 SFRSYM    DATA     BIT       P5_0
      000000C8H.6 SFRSYM    DATA     BIT       I3FR
      000000C0H.1 SFRSYM    DATA     BIT       P4_1
      000000B0H.2 SFRSYM    DATA     BIT       P3_2
      000000A0H.3 SFRSYM    DATA     BIT       P2_3
      00000090H.4 SFRSYM    DATA     BIT       P1_4
      00000080H.5 SFRSYM    DATA     BIT       P0_5
      000000CFH   SFRSYM    DATA     BYTE      T2IE
      00000096H   SFRSYM    DATA     BYTE      TA
      000000D8H.1 SFRSYM    DATA     BIT       P5_1
      000000C0H.2 SFRSYM    DATA     BIT       P4_2
      000000B0H.3 SFRSYM    DATA     BIT       P3_3
      000000A0H.4 SFRSYM    DATA     BIT       P2_4
      00000090H.5 SFRSYM    DATA     BIT       P1_5
      00000080H.6 SFRSYM    DATA     BIT       P0_6
LX51 LINKER/LOCATER V4.66.100.0                                                       07/27/2024  08:24:11  PAGE 35


      000000C9H   SFRSYM    DATA     BYTE      T2IF
      000000D8H.2 SFRSYM    DATA     BIT       P5_2
      000000C8H.2 SFRSYM    DATA     BIT       T2CM
      000000C0H.3 SFRSYM    DATA     BIT       P4_3
      000000B0H.4 SFRSYM    DATA     BIT       P3_4
      000000A0H.5 SFRSYM    DATA     BIT       P2_5
      00000090H.6 SFRSYM    DATA     BIT       P1_6
      00000080H.7 SFRSYM    DATA     BIT       P0_7
      000000DFH   SFRSYM    DATA     BYTE      ADCON0
      000000D8H.3 SFRSYM    DATA     BIT       P5_3
      000000C0H.4 SFRSYM    DATA     BIT       P4_4
      000000B0H.5 SFRSYM    DATA     BIT       P3_5
      000000A0H.6 SFRSYM    DATA     BIT       P2_6
      00000090H.7 SFRSYM    DATA     BIT       P1_7
      000000DEH   SFRSYM    DATA     BYTE      ADCON1
      000000D8H.4 SFRSYM    DATA     BIT       P5_4
      000000C0H.5 SFRSYM    DATA     BIT       P4_5
      000000B0H.6 SFRSYM    DATA     BIT       P3_6
      000000A0H.7 SFRSYM    DATA     BIT       P2_7
      000000E9H   SFRSYM    DATA     BYTE      ADCON2
      000000B8H   SFRSYM    DATA     BYTE      IP
      000000D8H.5 SFRSYM    DATA     BIT       P5_5
      000000C0H.6 SFRSYM    DATA     BIT       P4_6
      000000B0H.7 SFRSYM    DATA     BIT       P3_7
      000000CEH   SFRSYM    DATA     BYTE      CCEN
      000000D8H.6 SFRSYM    DATA     BIT       P5_6
      000000C0H.7 SFRSYM    DATA     BIT       P4_7
      000000D8H.7 SFRSYM    DATA     BIT       P5_7
      000000D0H.7 SFRSYM    DATA     BIT       CY
      000000D2H   SFRSYM    DATA     BYTE      T34MOD
      000000F4H   SFRSYM    DATA     BYTE      I2CMSA
      000000D7H   SFRSYM    DATA     BYTE      SCKSTAU
      000000F5H   SFRSYM    DATA     BYTE      I2CMCR
      00000081H   SFRSYM    DATA     BYTE      SP
      000000D0H.2 SFRSYM    DATA     BIT       OV
      000000F2H   SFRSYM    DATA     BYTE      I2CSCR
      000000D9H   SFRSYM    DATA     BYTE      ADCCHS
      000000E5H   SFRSYM    DATA     BYTE      WWDTCON
      000000C8H.7 SFRSYM    DATA     BIT       T2PS
      000000D1H   SFRSYM    DATA     BYTE      ADCMPC
      000000CBH   SFRSYM    DATA     BYTE      RLDH
      000000D5H   SFRSYM    DATA     BYTE      ADCMPH
      000000CAH   SFRSYM    DATA     BYTE      RLDL
      00000080H.0 SFRSYM    DATA     BIT       P00
      00000090H.0 SFRSYM    DATA     BIT       P10
      00000080H.1 SFRSYM    DATA     BIT       P01
      000000F7H   SFRSYM    DATA     BYTE      I2CMTP
      00000087H   SFRSYM    DATA     BYTE      PCON
      000000A0H.0 SFRSYM    DATA     BIT       P20
      00000090H.1 SFRSYM    DATA     BIT       P11
      00000080H.2 SFRSYM    DATA     BIT       P02
      000000F5H   SFRSYM    DATA     BYTE      I2CMSR
      000000B0H.0 SFRSYM    DATA     BIT       P30
      000000A0H.1 SFRSYM    DATA     BIT       P21
      00000090H.2 SFRSYM    DATA     BIT       P12
      00000080H.3 SFRSYM    DATA     BIT       P03
      000000D4H   SFRSYM    DATA     BYTE      ADCMPL
      000000C0H.0 SFRSYM    DATA     BIT       P40
      000000B0H.1 SFRSYM    DATA     BIT       P31
      000000A0H.2 SFRSYM    DATA     BIT       P22
      00000090H.3 SFRSYM    DATA     BIT       P13
      00000080H.4 SFRSYM    DATA     BIT       P04
      000000D8H.0 SFRSYM    DATA     BIT       P50
      000000C0H.1 SFRSYM    DATA     BIT       P41
      000000B0H.2 SFRSYM    DATA     BIT       P32
LX51 LINKER/LOCATER V4.66.100.0                                                       07/27/2024  08:24:11  PAGE 36


      000000A0H.3 SFRSYM    DATA     BIT       P23
      00000090H.4 SFRSYM    DATA     BIT       P14
      00000080H.5 SFRSYM    DATA     BIT       P05
      00000089H   SFRSYM    DATA     BYTE      TMOD
      00000088H   SFRSYM    DATA     BYTE      TCON
      000000D8H.1 SFRSYM    DATA     BIT       P51
      000000C0H.2 SFRSYM    DATA     BIT       P42
      000000B0H.3 SFRSYM    DATA     BIT       P33
      000000A0H.4 SFRSYM    DATA     BIT       P24
      00000090H.5 SFRSYM    DATA     BIT       P15
      00000080H.6 SFRSYM    DATA     BIT       P06
      000000FAH   SFRSYM    DATA     BYTE      PCRCDH
      000000D8H.2 SFRSYM    DATA     BIT       P52
      000000C0H.3 SFRSYM    DATA     BIT       P43
      000000B0H.4 SFRSYM    DATA     BIT       P34
      000000A0H.5 SFRSYM    DATA     BIT       P25
      00000090H.6 SFRSYM    DATA     BIT       P16
      00000080H.7 SFRSYM    DATA     BIT       P07
      000000D8H.3 SFRSYM    DATA     BIT       P53
      000000C0H.4 SFRSYM    DATA     BIT       P44
      000000B0H.5 SFRSYM    DATA     BIT       P35
      000000A0H.6 SFRSYM    DATA     BIT       P26
      00000090H.7 SFRSYM    DATA     BIT       P17
      000000F2H   SFRSYM    DATA     BYTE      I2CSSR
      000000D8H.4 SFRSYM    DATA     BIT       P54
      000000C0H.5 SFRSYM    DATA     BIT       P45
      000000B0H.6 SFRSYM    DATA     BIT       P36
      000000A0H.7 SFRSYM    DATA     BIT       P27
      000000ECH   SFRSYM    DATA     BYTE      SPCR
      000000DDH   SFRSYM    DATA     BYTE      ADRESH
      000000D8H.5 SFRSYM    DATA     BIT       P55
      000000C0H.6 SFRSYM    DATA     BIT       P46
      000000B0H.7 SFRSYM    DATA     BIT       P37
      000000F9H   SFRSYM    DATA     BYTE      PCRCDL
      000000EEH   SFRSYM    DATA     BYTE      SPDR
      000000C0H.7 SFRSYM    DATA     BIT       P47
      000000E6H   SFRSYM    DATA     BYTE      CMPDAT
      000000EFH   SFRSYM    DATA     BYTE      SSCR
      000000D3H   SFRSYM    DATA     BYTE      ADDLYL
      000000DCH   SFRSYM    DATA     BYTE      ADRESL
      00000088H.1 SFRSYM    DATA     BIT       IE0
      00000088H.3 SFRSYM    DATA     BIT       IE1
      00000092H   SFRSYM    DATA     BYTE      SFRS
      0000008FH   SFRSYM    DATA     BYTE      CLKDIV
      000000F0H   SFRSYM    DATA     BYTE      B
      00000091H   SFRSYM    DATA     BYTE      FUNCCR
      0000009AH   SFRSYM    DATA     BYTE      P0TRIS
      000000A1H   SFRSYM    DATA     BYTE      P1TRIS
      000000A2H   SFRSYM    DATA     BYTE      P2TRIS
      000000E0H   SFRSYM    DATA     BYTE      ACC
      000000D6H   SFRSYM    DATA     BYTE      SCKSEL
      000000A3H   SFRSYM    DATA     BYTE      P3TRIS
      000000A8H.4 SFRSYM    DATA     BIT       ES0
      000000A4H   SFRSYM    DATA     BYTE      P4TRIS
      000000A8H.1 SFRSYM    DATA     BIT       ET0
      000000A8H.6 SFRSYM    DATA     BIT       ES1
      000000EDH   SFRSYM    DATA     BYTE      SPSR
      000000A5H   SFRSYM    DATA     BYTE      P5TRIS
      000000A8H.3 SFRSYM    DATA     BIT       ET1
      00000088H.5 SFRSYM    DATA     BIT       TF0
      000000A8H.5 SFRSYM    DATA     BIT       ET2
      00000098H.0 SFRSYM    DATA     BIT       RI0
      00000088H.7 SFRSYM    DATA     BIT       TF1
      0000008CH   SFRSYM    DATA     BYTE      TH0
      000000A8H.0 SFRSYM    DATA     BIT       EX0
LX51 LINKER/LOCATER V4.66.100.0                                                       07/27/2024  08:24:11  PAGE 37


      00000098H.1 SFRSYM    DATA     BIT       TI0
      00000088H.0 SFRSYM    DATA     BIT       IT0
      0000008DH   SFRSYM    DATA     BYTE      TH1
      000000A8H.2 SFRSYM    DATA     BIT       EX1
      00000088H.2 SFRSYM    DATA     BIT       IT1
      000000CDH   SFRSYM    DATA     BYTE      TH2
      000000D0H.0 SFRSYM    DATA     BIT       P
      000000DBH   SFRSYM    DATA     BYTE      TH3
      000000E3H   SFRSYM    DATA     BYTE      TH4
      0000008AH   SFRSYM    DATA     BYTE      TL0
      000000F0H.0 SFRSYM    DATA     BIT       B_0
      0000008BH   SFRSYM    DATA     BYTE      TL1
      000000F0H.1 SFRSYM    DATA     BIT       B_1
      00000098H.2 SFRSYM    DATA     BIT       U0RB8
      000000CCH   SFRSYM    DATA     BYTE      TL2
      000000F0H.2 SFRSYM    DATA     BIT       B_2
      000000B8H.4 SFRSYM    DATA     BIT       PS0
      000000DAH   SFRSYM    DATA     BYTE      TL3
      000000BFH   SFRSYM    DATA     BYTE      BUZCON
      000000F0H.3 SFRSYM    DATA     BIT       B_3
      000000B8H.1 SFRSYM    DATA     BIT       PT0
      000000B8H.6 SFRSYM    DATA     BIT       PS1
      00000098H.3 SFRSYM    DATA     BIT       U0TB8
      000000E2H   SFRSYM    DATA     BYTE      TL4
      000000F0H.4 SFRSYM    DATA     BIT       B_4
      000000D0H.3 SFRSYM    DATA     BIT       RS0
      000000B8H.3 SFRSYM    DATA     BIT       PT1
      000000F0H.5 SFRSYM    DATA     BIT       B_5
      000000D0H.4 SFRSYM    DATA     BIT       RS1
      000000B8H.5 SFRSYM    DATA     BIT       PT2
      00000098H.7 SFRSYM    DATA     BIT       U0SM0
      00000088H.4 SFRSYM    DATA     BIT       TR0
      000000BEH   SFRSYM    DATA     BYTE      BUZDIV
      000000F0H.6 SFRSYM    DATA     BIT       B_6
      000000E0H.0 SFRSYM    DATA     BIT       ACC_0
      00000098H.6 SFRSYM    DATA     BIT       U0SM1
      00000088H.6 SFRSYM    DATA     BIT       TR1
      000000F0H.7 SFRSYM    DATA     BIT       B_7
      000000E0H.1 SFRSYM    DATA     BIT       ACC_1
      000000B8H.0 SFRSYM    DATA     BIT       PX0
      00000098H.5 SFRSYM    DATA     BIT       U0SM2
      000000E0H.2 SFRSYM    DATA     BIT       ACC_2
      000000B8H.2 SFRSYM    DATA     BIT       PX1
      000000E0H.3 SFRSYM    DATA     BIT       ACC_3
      000000E0H.4 SFRSYM    DATA     BIT       ACC_4
      000000E7H   SFRSYM    DATA     BYTE      WWDTCON2
      000000E0H.5 SFRSYM    DATA     BIT       ACC_5
      000000E0H.6 SFRSYM    DATA     BIT       ACC_6
      000000E0H.7 SFRSYM    DATA     BIT       ACC_7
      000000BDH   SFRSYM    DATA     BYTE      WUTCRH
      00000099H   SFRSYM    DATA     BYTE      SBUF0
      000000E3H   SFRSYM    DATA     BYTE      PCON1
      000000EBH   SFRSYM    DATA     BYTE      SBUF1
      000000E5H   SFRSYM    DATA     BYTE      SBUF2
      000000BCH   SFRSYM    DATA     BYTE      WUTCRL
      00000098H   SFRSYM    DATA     BYTE      SCON0
      000000EAH   SFRSYM    DATA     BYTE      SCON1
      000000E4H   SFRSYM    DATA     BYTE      SCON2
      000000C8H   SFRSYM    DATA     BYTE      T2CON
      00000086H   SFRSYM    DATA     BYTE      DPS
      000000FEH   SFRSYM    DATA     BYTE      MDATA
      000000F6H   SFRSYM    DATA     BYTE      I2CMBUF
      000000F1H   SFRSYM    DATA     BYTE      I2CSADR
      00000098H.4 SFRSYM    DATA     BIT       U0REN
      000000C8H.5 SFRSYM    DATA     BIT       CAPES
LX51 LINKER/LOCATER V4.66.100.0                                                       07/27/2024  08:24:11  PAGE 38


      000000FDH   SFRSYM    DATA     BYTE      MADRH
      0000008EH   SFRSYM    DATA     BYTE      CKCON
      000000F3H   SFRSYM    DATA     BYTE      I2CSBUF
      000000FCH   SFRSYM    DATA     BYTE      MADRL
      000000E2H   SFRSYM    DATA     BYTE      FUNCCR1
      000000D0H.5 SFRSYM    DATA     BIT       F0
      000000FBH   SFRSYM    DATA     BYTE      MLOCK
      000000D0H   SFRSYM    DATA     BYTE      PSW
      00000097H   SFRSYM    DATA     BYTE      WDCON

      0100470FH   BLOCK     CODE     ---       LVL=0
      02000593H   SYMBOL    XDATA    BYTE      UARTn
      02000594H   SYMBOL    XDATA    BYTE      UARTMode
      02000595H   SYMBOL    XDATA    BYTE      UARTBaudTimer
      0100470FH   LINE      CODE     ---       #72
      0100471AH   LINE      CODE     ---       #73
      0100471AH   LINE      CODE     ---       #74
      01004721H   LINE      CODE     ---       #75
      01004721H   LINE      CODE     ---       #76
      01004724H   LINE      CODE     ---       #77
      0100472FH   LINE      CODE     ---       #78
      01004732H   LINE      CODE     ---       #79
      01004737H   LINE      CODE     ---       #80
      01004737H   LINE      CODE     ---       #81
      0100473FH   LINE      CODE     ---       #82
      0100473FH   LINE      CODE     ---       #83
      01004742H   LINE      CODE     ---       #84
      0100474DH   LINE      CODE     ---       #85
      01004750H   LINE      CODE     ---       #86
      01004759H   LINE      CODE     ---       #87
      01004759H   LINE      CODE     ---       #88
      01004761H   LINE      CODE     ---       #89
      01004761H   LINE      CODE     ---       #90
      01004764H   LINE      CODE     ---       #91
      01004767H   LINE      CODE     ---       #92
      01004772H   LINE      CODE     ---       #93
      01004775H   LINE      CODE     ---       #94
      0100477AH   LINE      CODE     ---       #95
      0100477DH   LINE      CODE     ---       #96
      0100477DH   LINE      CODE     ---       #98
      ---         BLOCKEND  ---      ---       LVL=0

      01005225H   BLOCK     CODE     ---       LVL=0
      02000624H   SYMBOL    XDATA    BYTE      UARTn
      01005225H   LINE      CODE     ---       #107
      0100522AH   LINE      CODE     ---       #108
      0100522AH   LINE      CODE     ---       #109
      0100522EH   LINE      CODE     ---       #110
      0100522EH   LINE      CODE     ---       #111
      01005231H   LINE      CODE     ---       #112
      01005231H   LINE      CODE     ---       #113
      01005239H   LINE      CODE     ---       #114
      01005239H   LINE      CODE     ---       #115
      0100523CH   LINE      CODE     ---       #116
      0100523CH   LINE      CODE     ---       #117
      01005244H   LINE      CODE     ---       #118
      01005244H   LINE      CODE     ---       #119
      01005247H   LINE      CODE     ---       #120
      0100524AH   LINE      CODE     ---       #121
      0100524DH   LINE      CODE     ---       #122
      0100524DH   LINE      CODE     ---       #123
      ---         BLOCKEND  ---      ---       LVL=0
      02000625H   SYMBOL    XDATA    BYTE      UARTn
      02000560H   SYMBOL    XDATA    BYTE      UARTn
      02000561H   SYMBOL    XDATA    DWORD     BaudRateValue
LX51 LINKER/LOCATER V4.66.100.0                                                       07/27/2024  08:24:11  PAGE 39



      0100524EH   BLOCK     CODE     ---       LVL=0
      02000626H   SYMBOL    XDATA    BYTE      UARTn
      0100524EH   LINE      CODE     ---       #245
      01005253H   LINE      CODE     ---       #246
      01005253H   LINE      CODE     ---       #247
      01005257H   LINE      CODE     ---       #248
      01005257H   LINE      CODE     ---       #249
      0100525AH   LINE      CODE     ---       #250
      0100525AH   LINE      CODE     ---       #251
      01005262H   LINE      CODE     ---       #252
      01005262H   LINE      CODE     ---       #253
      01005265H   LINE      CODE     ---       #254
      01005265H   LINE      CODE     ---       #255
      0100526DH   LINE      CODE     ---       #256
      0100526DH   LINE      CODE     ---       #257
      01005270H   LINE      CODE     ---       #258
      01005273H   LINE      CODE     ---       #259
      01005276H   LINE      CODE     ---       #260
      01005276H   LINE      CODE     ---       #261
      ---         BLOCKEND  ---      ---       LVL=0
      02000627H   SYMBOL    XDATA    BYTE      UARTn
      02000628H   SYMBOL    XDATA    BYTE      UARTn
      02000629H   SYMBOL    XDATA    BYTE      UARTn

      01005438H   BLOCK     CODE     ---       LVL=0
      0200062AH   SYMBOL    XDATA    BYTE      UARTn
      01005438H   LINE      CODE     ---       #346
      0100543DH   LINE      CODE     ---       #347
      0100543DH   LINE      CODE     ---       #348
      01005441H   LINE      CODE     ---       #349
      01005441H   LINE      CODE     ---       #350
      01005443H   LINE      CODE     ---       #351
      01005443H   LINE      CODE     ---       #352
      0100544BH   LINE      CODE     ---       #353
      0100544BH   LINE      CODE     ---       #354
      0100544DH   LINE      CODE     ---       #355
      0100544DH   LINE      CODE     ---       #356
      01005455H   LINE      CODE     ---       #357
      01005455H   LINE      CODE     ---       #358
      01005458H   LINE      CODE     ---       #359
      01005458H   LINE      CODE     ---       #360
      ---         BLOCKEND  ---      ---       LVL=0
      0200062BH   SYMBOL    XDATA    BYTE      UARTn

      01004A45H   BLOCK     CODE     ---       LVL=0
      020005C6H   SYMBOL    XDATA    BYTE      UARTn
      01004A4AH   BLOCK     CODE     NEAR LAB  LVL=1
      020005C7H   SYMBOL    XDATA    BYTE      uartFlag
      ---         BLOCKEND  ---      ---       LVL=1
      01004A45H   LINE      CODE     ---       #392
      01004A4AH   LINE      CODE     ---       #393
      01004A4AH   LINE      CODE     ---       #395
      01004A4DH   LINE      CODE     ---       #396
      01004A54H   LINE      CODE     ---       #397
      01004A54H   LINE      CODE     ---       #398
      01004A64H   LINE      CODE     ---       #399
      01004A64H   LINE      CODE     ---       #400
      01004A6CH   LINE      CODE     ---       #401
      01004A6CH   LINE      CODE     ---       #402
      01004A7CH   LINE      CODE     ---       #403
      01004A7CH   LINE      CODE     ---       #404
      01004A84H   LINE      CODE     ---       #405
      01004A84H   LINE      CODE     ---       #406
      01004A87H   LINE      CODE     ---       #407
LX51 LINKER/LOCATER V4.66.100.0                                                       07/27/2024  08:24:11  PAGE 40


      01004A97H   LINE      CODE     ---       #408
      01004A9AH   LINE      CODE     ---       #409
      01004A9AH   LINE      CODE     ---       #411
      01004A9FH   LINE      CODE     ---       #412
      ---         BLOCKEND  ---      ---       LVL=0

      01004BF5H   BLOCK     CODE     ---       LVL=0
      020005C8H   SYMBOL    XDATA    BYTE      UARTn
      01004BFAH   BLOCK     CODE     NEAR LAB  LVL=1
      020005C9H   SYMBOL    XDATA    BYTE      temp
      ---         BLOCKEND  ---      ---       LVL=1
      01004BF5H   LINE      CODE     ---       #422
      01004BFAH   LINE      CODE     ---       #423
      01004BFAH   LINE      CODE     ---       #425
      01004BFEH   LINE      CODE     ---       #426
      01004BFEH   LINE      CODE     ---       #427
      01004C02H   LINE      CODE     ---       #428
      01004C08H   LINE      CODE     ---       #429
      01004C0EH   LINE      CODE     ---       #430
      01004C0EH   LINE      CODE     ---       #431
      01004C16H   LINE      CODE     ---       #432
      01004C16H   LINE      CODE     ---       #433
      01004C1AH   LINE      CODE     ---       #434
      01004C20H   LINE      CODE     ---       #435
      01004C26H   LINE      CODE     ---       #436
      01004C26H   LINE      CODE     ---       #437
      01004C2EH   LINE      CODE     ---       #438
      01004C2EH   LINE      CODE     ---       #439
      01004C31H   LINE      CODE     ---       #440
      01004C35H   LINE      CODE     ---       #441
      01004C3BH   LINE      CODE     ---       #442
      01004C41H   LINE      CODE     ---       #443
      01004C44H   LINE      CODE     ---       #444
      01004C44H   LINE      CODE     ---       #445
      ---         BLOCKEND  ---      ---       LVL=0

      01004B51H   BLOCK     CODE     ---       LVL=0
      020005CAH   SYMBOL    XDATA    BYTE      UARTn
      01004B56H   BLOCK     CODE     NEAR LAB  LVL=1
      020005CBH   SYMBOL    XDATA    BYTE      uartFlag
      ---         BLOCKEND  ---      ---       LVL=1
      01004B51H   LINE      CODE     ---       #455
      01004B56H   LINE      CODE     ---       #456
      01004B56H   LINE      CODE     ---       #458
      01004B59H   LINE      CODE     ---       #459
      01004B60H   LINE      CODE     ---       #460
      01004B60H   LINE      CODE     ---       #461
      01004B6CH   LINE      CODE     ---       #462
      01004B6CH   LINE      CODE     ---       #463
      01004B74H   LINE      CODE     ---       #464
      01004B74H   LINE      CODE     ---       #465
      01004B80H   LINE      CODE     ---       #466
      01004B80H   LINE      CODE     ---       #467
      01004B88H   LINE      CODE     ---       #468
      01004B88H   LINE      CODE     ---       #469
      01004B8BH   LINE      CODE     ---       #470
      01004B9BH   LINE      CODE     ---       #471
      01004B9EH   LINE      CODE     ---       #472
      01004B9EH   LINE      CODE     ---       #473
      01004BA3H   LINE      CODE     ---       #474
      ---         BLOCKEND  ---      ---       LVL=0

      01004C45H   BLOCK     CODE     ---       LVL=0
      020005CCH   SYMBOL    XDATA    BYTE      UARTn
      01004C4AH   BLOCK     CODE     NEAR LAB  LVL=1
LX51 LINKER/LOCATER V4.66.100.0                                                       07/27/2024  08:24:11  PAGE 41


      020005CDH   SYMBOL    XDATA    BYTE      temp
      ---         BLOCKEND  ---      ---       LVL=1
      01004C45H   LINE      CODE     ---       #484
      01004C4AH   LINE      CODE     ---       #485
      01004C4AH   LINE      CODE     ---       #488
      01004C4EH   LINE      CODE     ---       #489
      01004C4EH   LINE      CODE     ---       #490
      01004C52H   LINE      CODE     ---       #491
      01004C58H   LINE      CODE     ---       #492
      01004C5EH   LINE      CODE     ---       #493
      01004C5EH   LINE      CODE     ---       #494
      01004C66H   LINE      CODE     ---       #495
      01004C66H   LINE      CODE     ---       #496
      01004C6AH   LINE      CODE     ---       #497
      01004C70H   LINE      CODE     ---       #498
      01004C76H   LINE      CODE     ---       #499
      01004C76H   LINE      CODE     ---       #500
      01004C7EH   LINE      CODE     ---       #501
      01004C7EH   LINE      CODE     ---       #502
      01004C81H   LINE      CODE     ---       #503
      01004C85H   LINE      CODE     ---       #504
      01004C8BH   LINE      CODE     ---       #505
      01004C91H   LINE      CODE     ---       #506
      01004C94H   LINE      CODE     ---       #507
      01004C94H   LINE      CODE     ---       #508
      ---         BLOCKEND  ---      ---       LVL=0
      020005CEH   SYMBOL    XDATA    BYTE      UARTn
      020005CFH   SYMBOL    XDATA    BYTE      uartbuf
      020005D0H   SYMBOL    XDATA    BYTE      UARTn
      020005D1H   SYMBOL    XDATA    BYTE      UARTSendValue
      020005D2H   SYMBOL    XDATA    BYTE      UARTn
      020005D3H   SYMBOL    XDATA    BYTE      UARTSendValue
      020005D4H   SYMBOL    XDATA    BYTE      UARTn
      020005D5H   SYMBOL    XDATA    BYTE      ninthbit

      010056DCH   BLOCK     CODE     ---       LVL=0
      010056DCH   LINE      CODE     ---       #649
      010056DCH   LINE      CODE     ---       #650
      010056DCH   LINE      CODE     ---       #651
      010056E5H   LINE      CODE     ---       #652
      ---         BLOCKEND  ---      ---       LVL=0

      01005416H   BLOCK     CODE     ---       LVL=0
      0200062CH   SYMBOL    XDATA    BYTE      BRTClkDiv
      01005416H   LINE      CODE     ---       #659
      0100541BH   LINE      CODE     ---       #660
      0100541BH   LINE      CODE     ---       #661
      01005424H   LINE      CODE     ---       #662
      01005437H   LINE      CODE     ---       #663
      ---         BLOCKEND  ---      ---       LVL=0

      01005363H   BLOCK     CODE     ---       LVL=0
      020005D6H   SYMBOL    XDATA    WORD      BRTPeriod
      01005363H   LINE      CODE     ---       #671
      0100536BH   LINE      CODE     ---       #672
      0100536BH   LINE      CODE     ---       #673
      01005377H   LINE      CODE     ---       #674
      01005387H   LINE      CODE     ---       #675
      ---         BLOCKEND  ---      ---       LVL=0

      ---         MODULE    ---      ---       ADC
      000000C8H.0 SFRSYM    DATA     BIT       T2I0
      000000C3H   SFRSYM    DATA     BYTE      CCH1
      00000080H   SFRSYM    DATA     BYTE      P0
      000000C8H.1 SFRSYM    DATA     BIT       T2I1
LX51 LINKER/LOCATER V4.66.100.0                                                       07/27/2024  08:24:11  PAGE 42


      000000C5H   SFRSYM    DATA     BYTE      CCH2
      00000090H   SFRSYM    DATA     BYTE      P1
      000000C7H   SFRSYM    DATA     BYTE      CCH3
      000000ACH   SFRSYM    DATA     BYTE      P0EXTIE
      000000A0H   SFRSYM    DATA     BYTE      P2
      000000B4H   SFRSYM    DATA     BYTE      P0EXTIF
      000000B0H   SFRSYM    DATA     BYTE      P3
      000000ADH   SFRSYM    DATA     BYTE      P1EXTIE
      000000D0H.6 SFRSYM    DATA     BIT       AC
      000000FFH   SFRSYM    DATA     BYTE      MCTRL
      000000C2H   SFRSYM    DATA     BYTE      CCL1
      000000C0H   SFRSYM    DATA     BYTE      P4
      000000B5H   SFRSYM    DATA     BYTE      P1EXTIF
      000000AEH   SFRSYM    DATA     BYTE      P2EXTIE
      000000D8H   SFRSYM    DATA     BYTE      P5
      000000C4H   SFRSYM    DATA     BYTE      CCL2
      000000B6H   SFRSYM    DATA     BYTE      P2EXTIF
      000000AFH   SFRSYM    DATA     BYTE      P3EXTIE
      000000A8H.7 SFRSYM    DATA     BIT       EA
      000000C6H   SFRSYM    DATA     BYTE      CCL3
      000000B7H   SFRSYM    DATA     BYTE      P3EXTIF
      000000AAH   SFRSYM    DATA     BYTE      EIE2
      0000009BH   SFRSYM    DATA     BYTE      P4EXTIE
      000000B2H   SFRSYM    DATA     BYTE      EIF2
      000000ABH   SFRSYM    DATA     BYTE      EIE3
      000000A6H   SFRSYM    DATA     BYTE      P4EXTIF
      0000009CH   SFRSYM    DATA     BYTE      P5EXTIE
      000000A7H   SFRSYM    DATA     BYTE      P5EXTIF
      000000C8H.3 SFRSYM    DATA     BIT       T2R0
      000000C8H.4 SFRSYM    DATA     BIT       T2R1
      00000083H   SFRSYM    DATA     BYTE      DPH0
      000000A8H   SFRSYM    DATA     BYTE      IE
      00000085H   SFRSYM    DATA     BYTE      DPH1
      00000080H.0 SFRSYM    DATA     BIT       P0_0
      000000B9H   SFRSYM    DATA     BYTE      EIP1
      00000090H.0 SFRSYM    DATA     BIT       P1_0
      00000080H.1 SFRSYM    DATA     BIT       P0_1
      000000BAH   SFRSYM    DATA     BYTE      EIP2
      00000082H   SFRSYM    DATA     BYTE      DPL0
      000000A0H.0 SFRSYM    DATA     BIT       P2_0
      00000090H.1 SFRSYM    DATA     BIT       P1_1
      00000080H.2 SFRSYM    DATA     BIT       P0_2
      000000BBH   SFRSYM    DATA     BYTE      EIP3
      00000084H   SFRSYM    DATA     BYTE      DPL1
      000000B0H.0 SFRSYM    DATA     BIT       P3_0
      000000A0H.1 SFRSYM    DATA     BIT       P2_1
      00000090H.2 SFRSYM    DATA     BIT       P1_2
      00000080H.3 SFRSYM    DATA     BIT       P0_3
      000000C0H.0 SFRSYM    DATA     BIT       P4_0
      000000B0H.1 SFRSYM    DATA     BIT       P3_1
      000000A0H.2 SFRSYM    DATA     BIT       P2_2
      00000090H.3 SFRSYM    DATA     BIT       P1_3
      00000080H.4 SFRSYM    DATA     BIT       P0_4
      000000D8H.0 SFRSYM    DATA     BIT       P5_0
      000000C8H.6 SFRSYM    DATA     BIT       I3FR
      000000C0H.1 SFRSYM    DATA     BIT       P4_1
      000000B0H.2 SFRSYM    DATA     BIT       P3_2
      000000A0H.3 SFRSYM    DATA     BIT       P2_3
      00000090H.4 SFRSYM    DATA     BIT       P1_4
      00000080H.5 SFRSYM    DATA     BIT       P0_5
      000000CFH   SFRSYM    DATA     BYTE      T2IE
      00000096H   SFRSYM    DATA     BYTE      TA
      000000D8H.1 SFRSYM    DATA     BIT       P5_1
      000000C0H.2 SFRSYM    DATA     BIT       P4_2
      000000B0H.3 SFRSYM    DATA     BIT       P3_3
LX51 LINKER/LOCATER V4.66.100.0                                                       07/27/2024  08:24:11  PAGE 43


      000000A0H.4 SFRSYM    DATA     BIT       P2_4
      00000090H.5 SFRSYM    DATA     BIT       P1_5
      00000080H.6 SFRSYM    DATA     BIT       P0_6
      000000C9H   SFRSYM    DATA     BYTE      T2IF
      000000D8H.2 SFRSYM    DATA     BIT       P5_2
      000000C8H.2 SFRSYM    DATA     BIT       T2CM
      000000C0H.3 SFRSYM    DATA     BIT       P4_3
      000000B0H.4 SFRSYM    DATA     BIT       P3_4
      000000A0H.5 SFRSYM    DATA     BIT       P2_5
      00000090H.6 SFRSYM    DATA     BIT       P1_6
      00000080H.7 SFRSYM    DATA     BIT       P0_7
      000000DFH   SFRSYM    DATA     BYTE      ADCON0
      000000D8H.3 SFRSYM    DATA     BIT       P5_3
      000000C0H.4 SFRSYM    DATA     BIT       P4_4
      000000B0H.5 SFRSYM    DATA     BIT       P3_5
      000000A0H.6 SFRSYM    DATA     BIT       P2_6
      00000090H.7 SFRSYM    DATA     BIT       P1_7
      000000DEH   SFRSYM    DATA     BYTE      ADCON1
      000000D8H.4 SFRSYM    DATA     BIT       P5_4
      000000C0H.5 SFRSYM    DATA     BIT       P4_5
      000000B0H.6 SFRSYM    DATA     BIT       P3_6
      000000A0H.7 SFRSYM    DATA     BIT       P2_7
      000000E9H   SFRSYM    DATA     BYTE      ADCON2
      000000B8H   SFRSYM    DATA     BYTE      IP
      000000D8H.5 SFRSYM    DATA     BIT       P5_5
      000000C0H.6 SFRSYM    DATA     BIT       P4_6
      000000B0H.7 SFRSYM    DATA     BIT       P3_7
      000000CEH   SFRSYM    DATA     BYTE      CCEN
      000000D8H.6 SFRSYM    DATA     BIT       P5_6
      000000C0H.7 SFRSYM    DATA     BIT       P4_7
      000000D8H.7 SFRSYM    DATA     BIT       P5_7
      000000D0H.7 SFRSYM    DATA     BIT       CY
      000000D2H   SFRSYM    DATA     BYTE      T34MOD
      000000F4H   SFRSYM    DATA     BYTE      I2CMSA
      000000D7H   SFRSYM    DATA     BYTE      SCKSTAU
      000000F5H   SFRSYM    DATA     BYTE      I2CMCR
      00000081H   SFRSYM    DATA     BYTE      SP
      000000D0H.2 SFRSYM    DATA     BIT       OV
      000000F2H   SFRSYM    DATA     BYTE      I2CSCR
      000000D9H   SFRSYM    DATA     BYTE      ADCCHS
      000000E5H   SFRSYM    DATA     BYTE      WWDTCON
      000000C8H.7 SFRSYM    DATA     BIT       T2PS
      000000D1H   SFRSYM    DATA     BYTE      ADCMPC
      000000CBH   SFRSYM    DATA     BYTE      RLDH
      000000D5H   SFRSYM    DATA     BYTE      ADCMPH
      000000CAH   SFRSYM    DATA     BYTE      RLDL
      00000080H.0 SFRSYM    DATA     BIT       P00
      00000090H.0 SFRSYM    DATA     BIT       P10
      00000080H.1 SFRSYM    DATA     BIT       P01
      000000F7H   SFRSYM    DATA     BYTE      I2CMTP
      00000087H   SFRSYM    DATA     BYTE      PCON
      000000A0H.0 SFRSYM    DATA     BIT       P20
      00000090H.1 SFRSYM    DATA     BIT       P11
      00000080H.2 SFRSYM    DATA     BIT       P02
      000000F5H   SFRSYM    DATA     BYTE      I2CMSR
      000000B0H.0 SFRSYM    DATA     BIT       P30
      000000A0H.1 SFRSYM    DATA     BIT       P21
      00000090H.2 SFRSYM    DATA     BIT       P12
      00000080H.3 SFRSYM    DATA     BIT       P03
      000000D4H   SFRSYM    DATA     BYTE      ADCMPL
      000000C0H.0 SFRSYM    DATA     BIT       P40
      000000B0H.1 SFRSYM    DATA     BIT       P31
      000000A0H.2 SFRSYM    DATA     BIT       P22
      00000090H.3 SFRSYM    DATA     BIT       P13
      00000080H.4 SFRSYM    DATA     BIT       P04
LX51 LINKER/LOCATER V4.66.100.0                                                       07/27/2024  08:24:11  PAGE 44


      000000D8H.0 SFRSYM    DATA     BIT       P50
      000000C0H.1 SFRSYM    DATA     BIT       P41
      000000B0H.2 SFRSYM    DATA     BIT       P32
      000000A0H.3 SFRSYM    DATA     BIT       P23
      00000090H.4 SFRSYM    DATA     BIT       P14
      00000080H.5 SFRSYM    DATA     BIT       P05
      00000089H   SFRSYM    DATA     BYTE      TMOD
      00000088H   SFRSYM    DATA     BYTE      TCON
      000000D8H.1 SFRSYM    DATA     BIT       P51
      000000C0H.2 SFRSYM    DATA     BIT       P42
      000000B0H.3 SFRSYM    DATA     BIT       P33
      000000A0H.4 SFRSYM    DATA     BIT       P24
      00000090H.5 SFRSYM    DATA     BIT       P15
      00000080H.6 SFRSYM    DATA     BIT       P06
      000000FAH   SFRSYM    DATA     BYTE      PCRCDH
      000000D8H.2 SFRSYM    DATA     BIT       P52
      000000C0H.3 SFRSYM    DATA     BIT       P43
      000000B0H.4 SFRSYM    DATA     BIT       P34
      000000A0H.5 SFRSYM    DATA     BIT       P25
      00000090H.6 SFRSYM    DATA     BIT       P16
      00000080H.7 SFRSYM    DATA     BIT       P07
      000000D8H.3 SFRSYM    DATA     BIT       P53
      000000C0H.4 SFRSYM    DATA     BIT       P44
      000000B0H.5 SFRSYM    DATA     BIT       P35
      000000A0H.6 SFRSYM    DATA     BIT       P26
      00000090H.7 SFRSYM    DATA     BIT       P17
      000000F2H   SFRSYM    DATA     BYTE      I2CSSR
      000000D8H.4 SFRSYM    DATA     BIT       P54
      000000C0H.5 SFRSYM    DATA     BIT       P45
      000000B0H.6 SFRSYM    DATA     BIT       P36
      000000A0H.7 SFRSYM    DATA     BIT       P27
      000000ECH   SFRSYM    DATA     BYTE      SPCR
      000000DDH   SFRSYM    DATA     BYTE      ADRESH
      000000D8H.5 SFRSYM    DATA     BIT       P55
      000000C0H.6 SFRSYM    DATA     BIT       P46
      000000B0H.7 SFRSYM    DATA     BIT       P37
      000000F9H   SFRSYM    DATA     BYTE      PCRCDL
      000000EEH   SFRSYM    DATA     BYTE      SPDR
      000000C0H.7 SFRSYM    DATA     BIT       P47
      000000E6H   SFRSYM    DATA     BYTE      CMPDAT
      000000EFH   SFRSYM    DATA     BYTE      SSCR
      000000D3H   SFRSYM    DATA     BYTE      ADDLYL
      000000DCH   SFRSYM    DATA     BYTE      ADRESL
      00000088H.1 SFRSYM    DATA     BIT       IE0
      00000088H.3 SFRSYM    DATA     BIT       IE1
      00000092H   SFRSYM    DATA     BYTE      SFRS
      0000008FH   SFRSYM    DATA     BYTE      CLKDIV
      000000F0H   SFRSYM    DATA     BYTE      B
      00000091H   SFRSYM    DATA     BYTE      FUNCCR
      0000009AH   SFRSYM    DATA     BYTE      P0TRIS
      000000A1H   SFRSYM    DATA     BYTE      P1TRIS
      000000A2H   SFRSYM    DATA     BYTE      P2TRIS
      000000E0H   SFRSYM    DATA     BYTE      ACC
      000000D6H   SFRSYM    DATA     BYTE      SCKSEL
      000000A3H   SFRSYM    DATA     BYTE      P3TRIS
      000000A8H.4 SFRSYM    DATA     BIT       ES0
      000000A4H   SFRSYM    DATA     BYTE      P4TRIS
      000000A8H.1 SFRSYM    DATA     BIT       ET0
      000000A8H.6 SFRSYM    DATA     BIT       ES1
      000000EDH   SFRSYM    DATA     BYTE      SPSR
      000000A5H   SFRSYM    DATA     BYTE      P5TRIS
      000000A8H.3 SFRSYM    DATA     BIT       ET1
      00000088H.5 SFRSYM    DATA     BIT       TF0
      000000A8H.5 SFRSYM    DATA     BIT       ET2
      00000098H.0 SFRSYM    DATA     BIT       RI0
LX51 LINKER/LOCATER V4.66.100.0                                                       07/27/2024  08:24:11  PAGE 45


      00000088H.7 SFRSYM    DATA     BIT       TF1
      0000008CH   SFRSYM    DATA     BYTE      TH0
      000000A8H.0 SFRSYM    DATA     BIT       EX0
      00000098H.1 SFRSYM    DATA     BIT       TI0
      00000088H.0 SFRSYM    DATA     BIT       IT0
      0000008DH   SFRSYM    DATA     BYTE      TH1
      000000A8H.2 SFRSYM    DATA     BIT       EX1
      00000088H.2 SFRSYM    DATA     BIT       IT1
      000000CDH   SFRSYM    DATA     BYTE      TH2
      000000D0H.0 SFRSYM    DATA     BIT       P
      000000DBH   SFRSYM    DATA     BYTE      TH3
      000000E3H   SFRSYM    DATA     BYTE      TH4
      0000008AH   SFRSYM    DATA     BYTE      TL0
      000000F0H.0 SFRSYM    DATA     BIT       B_0
      0000008BH   SFRSYM    DATA     BYTE      TL1
      000000F0H.1 SFRSYM    DATA     BIT       B_1
      00000098H.2 SFRSYM    DATA     BIT       U0RB8
      000000CCH   SFRSYM    DATA     BYTE      TL2
      000000F0H.2 SFRSYM    DATA     BIT       B_2
      000000B8H.4 SFRSYM    DATA     BIT       PS0
      000000DAH   SFRSYM    DATA     BYTE      TL3
      000000BFH   SFRSYM    DATA     BYTE      BUZCON
      000000F0H.3 SFRSYM    DATA     BIT       B_3
      000000B8H.1 SFRSYM    DATA     BIT       PT0
      000000B8H.6 SFRSYM    DATA     BIT       PS1
      00000098H.3 SFRSYM    DATA     BIT       U0TB8
      000000E2H   SFRSYM    DATA     BYTE      TL4
      000000F0H.4 SFRSYM    DATA     BIT       B_4
      000000D0H.3 SFRSYM    DATA     BIT       RS0
      000000B8H.3 SFRSYM    DATA     BIT       PT1
      000000F0H.5 SFRSYM    DATA     BIT       B_5
      000000D0H.4 SFRSYM    DATA     BIT       RS1
      000000B8H.5 SFRSYM    DATA     BIT       PT2
      00000098H.7 SFRSYM    DATA     BIT       U0SM0
      00000088H.4 SFRSYM    DATA     BIT       TR0
      000000BEH   SFRSYM    DATA     BYTE      BUZDIV
      000000F0H.6 SFRSYM    DATA     BIT       B_6
      000000E0H.0 SFRSYM    DATA     BIT       ACC_0
      00000098H.6 SFRSYM    DATA     BIT       U0SM1
      00000088H.6 SFRSYM    DATA     BIT       TR1
      000000F0H.7 SFRSYM    DATA     BIT       B_7
      000000E0H.1 SFRSYM    DATA     BIT       ACC_1
      000000B8H.0 SFRSYM    DATA     BIT       PX0
      00000098H.5 SFRSYM    DATA     BIT       U0SM2
      000000E0H.2 SFRSYM    DATA     BIT       ACC_2
      000000B8H.2 SFRSYM    DATA     BIT       PX1
      000000E0H.3 SFRSYM    DATA     BIT       ACC_3
      000000E0H.4 SFRSYM    DATA     BIT       ACC_4
      000000E7H   SFRSYM    DATA     BYTE      WWDTCON2
      000000E0H.5 SFRSYM    DATA     BIT       ACC_5
      000000E0H.6 SFRSYM    DATA     BIT       ACC_6
      000000E0H.7 SFRSYM    DATA     BIT       ACC_7
      000000BDH   SFRSYM    DATA     BYTE      WUTCRH
      00000099H   SFRSYM    DATA     BYTE      SBUF0
      000000E3H   SFRSYM    DATA     BYTE      PCON1
      000000EBH   SFRSYM    DATA     BYTE      SBUF1
      000000E5H   SFRSYM    DATA     BYTE      SBUF2
      000000BCH   SFRSYM    DATA     BYTE      WUTCRL
      00000098H   SFRSYM    DATA     BYTE      SCON0
      000000EAH   SFRSYM    DATA     BYTE      SCON1
      000000E4H   SFRSYM    DATA     BYTE      SCON2
      000000C8H   SFRSYM    DATA     BYTE      T2CON
      00000086H   SFRSYM    DATA     BYTE      DPS
      000000FEH   SFRSYM    DATA     BYTE      MDATA
      000000F6H   SFRSYM    DATA     BYTE      I2CMBUF
LX51 LINKER/LOCATER V4.66.100.0                                                       07/27/2024  08:24:11  PAGE 46


      000000F1H   SFRSYM    DATA     BYTE      I2CSADR
      00000098H.4 SFRSYM    DATA     BIT       U0REN
      000000C8H.5 SFRSYM    DATA     BIT       CAPES
      000000FDH   SFRSYM    DATA     BYTE      MADRH
      0000008EH   SFRSYM    DATA     BYTE      CKCON
      000000F3H   SFRSYM    DATA     BYTE      I2CSBUF
      000000FCH   SFRSYM    DATA     BYTE      MADRL
      000000E2H   SFRSYM    DATA     BYTE      FUNCCR1
      000000D0H.5 SFRSYM    DATA     BIT       F0
      000000FBH   SFRSYM    DATA     BYTE      MLOCK
      000000D0H   SFRSYM    DATA     BYTE      PSW
      00000097H   SFRSYM    DATA     BYTE      WDCON
      020005D8H   SYMBOL    XDATA    BYTE      ADCClkDiv
      020005D9H   SYMBOL    XDATA    BYTE      ADCResultTpye
      0200062DH   SYMBOL    XDATA    BYTE      ADCSample
      0200062EH   SYMBOL    XDATA    BYTE      ConvertTime
      020005DAH   SYMBOL    XDATA    BYTE      ADCTGSource
      020005DBH   SYMBOL    XDATA    BYTE      TGMode
      0200062FH   SYMBOL    XDATA    BYTE      ADCChannel
      02000630H   SYMBOL    XDATA    BYTE      An63Channel
      020005DCH   SYMBOL    XDATA    WORD      TrigTime
      02000631H   SYMBOL    XDATA    BYTE      ADCCMP
      020005DEH   SYMBOL    XDATA    WORD      ADCCompareValue

      ---         MODULE    ---      ---       FLASH
      000000C8H.0 SFRSYM    DATA     BIT       T2I0
      000000C3H   SFRSYM    DATA     BYTE      CCH1
      00000080H   SFRSYM    DATA     BYTE      P0
      000000C8H.1 SFRSYM    DATA     BIT       T2I1
      000000C5H   SFRSYM    DATA     BYTE      CCH2
      00000090H   SFRSYM    DATA     BYTE      P1
      000000C7H   SFRSYM    DATA     BYTE      CCH3
      000000ACH   SFRSYM    DATA     BYTE      P0EXTIE
      000000A0H   SFRSYM    DATA     BYTE      P2
      000000B4H   SFRSYM    DATA     BYTE      P0EXTIF
      000000B0H   SFRSYM    DATA     BYTE      P3
      000000ADH   SFRSYM    DATA     BYTE      P1EXTIE
      000000D0H.6 SFRSYM    DATA     BIT       AC
      000000FFH   SFRSYM    DATA     BYTE      MCTRL
      000000C2H   SFRSYM    DATA     BYTE      CCL1
      000000C0H   SFRSYM    DATA     BYTE      P4
      000000B5H   SFRSYM    DATA     BYTE      P1EXTIF
      000000AEH   SFRSYM    DATA     BYTE      P2EXTIE
      000000D8H   SFRSYM    DATA     BYTE      P5
      000000C4H   SFRSYM    DATA     BYTE      CCL2
      000000B6H   SFRSYM    DATA     BYTE      P2EXTIF
      000000AFH   SFRSYM    DATA     BYTE      P3EXTIE
      000000A8H.7 SFRSYM    DATA     BIT       EA
      000000C6H   SFRSYM    DATA     BYTE      CCL3
      000000B7H   SFRSYM    DATA     BYTE      P3EXTIF
      000000AAH   SFRSYM    DATA     BYTE      EIE2
      0000009BH   SFRSYM    DATA     BYTE      P4EXTIE
      000000B2H   SFRSYM    DATA     BYTE      EIF2
      000000ABH   SFRSYM    DATA     BYTE      EIE3
      000000A6H   SFRSYM    DATA     BYTE      P4EXTIF
      0000009CH   SFRSYM    DATA     BYTE      P5EXTIE
      000000A7H   SFRSYM    DATA     BYTE      P5EXTIF
      000000C8H.3 SFRSYM    DATA     BIT       T2R0
      000000C8H.4 SFRSYM    DATA     BIT       T2R1
      00000083H   SFRSYM    DATA     BYTE      DPH0
      000000A8H   SFRSYM    DATA     BYTE      IE
      00000085H   SFRSYM    DATA     BYTE      DPH1
      00000080H.0 SFRSYM    DATA     BIT       P0_0
      000000B9H   SFRSYM    DATA     BYTE      EIP1
      00000090H.0 SFRSYM    DATA     BIT       P1_0
LX51 LINKER/LOCATER V4.66.100.0                                                       07/27/2024  08:24:11  PAGE 47


      00000080H.1 SFRSYM    DATA     BIT       P0_1
      000000BAH   SFRSYM    DATA     BYTE      EIP2
      00000082H   SFRSYM    DATA     BYTE      DPL0
      000000A0H.0 SFRSYM    DATA     BIT       P2_0
      00000090H.1 SFRSYM    DATA     BIT       P1_1
      00000080H.2 SFRSYM    DATA     BIT       P0_2
      000000BBH   SFRSYM    DATA     BYTE      EIP3
      00000084H   SFRSYM    DATA     BYTE      DPL1
      000000B0H.0 SFRSYM    DATA     BIT       P3_0
      000000A0H.1 SFRSYM    DATA     BIT       P2_1
      00000090H.2 SFRSYM    DATA     BIT       P1_2
      00000080H.3 SFRSYM    DATA     BIT       P0_3
      000000C0H.0 SFRSYM    DATA     BIT       P4_0
      000000B0H.1 SFRSYM    DATA     BIT       P3_1
      000000A0H.2 SFRSYM    DATA     BIT       P2_2
      00000090H.3 SFRSYM    DATA     BIT       P1_3
      00000080H.4 SFRSYM    DATA     BIT       P0_4
      000000D8H.0 SFRSYM    DATA     BIT       P5_0
      000000C8H.6 SFRSYM    DATA     BIT       I3FR
      000000C0H.1 SFRSYM    DATA     BIT       P4_1
      000000B0H.2 SFRSYM    DATA     BIT       P3_2
      000000A0H.3 SFRSYM    DATA     BIT       P2_3
      00000090H.4 SFRSYM    DATA     BIT       P1_4
      00000080H.5 SFRSYM    DATA     BIT       P0_5
      000000CFH   SFRSYM    DATA     BYTE      T2IE
      00000096H   SFRSYM    DATA     BYTE      TA
      000000D8H.1 SFRSYM    DATA     BIT       P5_1
      000000C0H.2 SFRSYM    DATA     BIT       P4_2
      000000B0H.3 SFRSYM    DATA     BIT       P3_3
      000000A0H.4 SFRSYM    DATA     BIT       P2_4
      00000090H.5 SFRSYM    DATA     BIT       P1_5
      00000080H.6 SFRSYM    DATA     BIT       P0_6
      000000C9H   SFRSYM    DATA     BYTE      T2IF
      000000D8H.2 SFRSYM    DATA     BIT       P5_2
      000000C8H.2 SFRSYM    DATA     BIT       T2CM
      000000C0H.3 SFRSYM    DATA     BIT       P4_3
      000000B0H.4 SFRSYM    DATA     BIT       P3_4
      000000A0H.5 SFRSYM    DATA     BIT       P2_5
      00000090H.6 SFRSYM    DATA     BIT       P1_6
      00000080H.7 SFRSYM    DATA     BIT       P0_7
      000000DFH   SFRSYM    DATA     BYTE      ADCON0
      000000D8H.3 SFRSYM    DATA     BIT       P5_3
      000000C0H.4 SFRSYM    DATA     BIT       P4_4
      000000B0H.5 SFRSYM    DATA     BIT       P3_5
      000000A0H.6 SFRSYM    DATA     BIT       P2_6
      00000090H.7 SFRSYM    DATA     BIT       P1_7
      000000DEH   SFRSYM    DATA     BYTE      ADCON1
      000000D8H.4 SFRSYM    DATA     BIT       P5_4
      000000C0H.5 SFRSYM    DATA     BIT       P4_5
      000000B0H.6 SFRSYM    DATA     BIT       P3_6
      000000A0H.7 SFRSYM    DATA     BIT       P2_7
      000000E9H   SFRSYM    DATA     BYTE      ADCON2
      000000B8H   SFRSYM    DATA     BYTE      IP
      000000D8H.5 SFRSYM    DATA     BIT       P5_5
      000000C0H.6 SFRSYM    DATA     BIT       P4_6
      000000B0H.7 SFRSYM    DATA     BIT       P3_7
      000000CEH   SFRSYM    DATA     BYTE      CCEN
      000000D8H.6 SFRSYM    DATA     BIT       P5_6
      000000C0H.7 SFRSYM    DATA     BIT       P4_7
      000000D8H.7 SFRSYM    DATA     BIT       P5_7
      000000D0H.7 SFRSYM    DATA     BIT       CY
      000000D2H   SFRSYM    DATA     BYTE      T34MOD
      000000F4H   SFRSYM    DATA     BYTE      I2CMSA
      000000D7H   SFRSYM    DATA     BYTE      SCKSTAU
      000000F5H   SFRSYM    DATA     BYTE      I2CMCR
LX51 LINKER/LOCATER V4.66.100.0                                                       07/27/2024  08:24:11  PAGE 48


      00000081H   SFRSYM    DATA     BYTE      SP
      000000D0H.2 SFRSYM    DATA     BIT       OV
      000000F2H   SFRSYM    DATA     BYTE      I2CSCR
      000000D9H   SFRSYM    DATA     BYTE      ADCCHS
      000000E5H   SFRSYM    DATA     BYTE      WWDTCON
      000000C8H.7 SFRSYM    DATA     BIT       T2PS
      000000D1H   SFRSYM    DATA     BYTE      ADCMPC
      000000CBH   SFRSYM    DATA     BYTE      RLDH
      000000D5H   SFRSYM    DATA     BYTE      ADCMPH
      000000CAH   SFRSYM    DATA     BYTE      RLDL
      00000080H.0 SFRSYM    DATA     BIT       P00
      00000090H.0 SFRSYM    DATA     BIT       P10
      00000080H.1 SFRSYM    DATA     BIT       P01
      000000F7H   SFRSYM    DATA     BYTE      I2CMTP
      00000087H   SFRSYM    DATA     BYTE      PCON
      000000A0H.0 SFRSYM    DATA     BIT       P20
      00000090H.1 SFRSYM    DATA     BIT       P11
      00000080H.2 SFRSYM    DATA     BIT       P02
      000000F5H   SFRSYM    DATA     BYTE      I2CMSR
      000000B0H.0 SFRSYM    DATA     BIT       P30
      000000A0H.1 SFRSYM    DATA     BIT       P21
      00000090H.2 SFRSYM    DATA     BIT       P12
      00000080H.3 SFRSYM    DATA     BIT       P03
      000000D4H   SFRSYM    DATA     BYTE      ADCMPL
      000000C0H.0 SFRSYM    DATA     BIT       P40
      000000B0H.1 SFRSYM    DATA     BIT       P31
      000000A0H.2 SFRSYM    DATA     BIT       P22
      00000090H.3 SFRSYM    DATA     BIT       P13
      00000080H.4 SFRSYM    DATA     BIT       P04
      000000D8H.0 SFRSYM    DATA     BIT       P50
      000000C0H.1 SFRSYM    DATA     BIT       P41
      000000B0H.2 SFRSYM    DATA     BIT       P32
      000000A0H.3 SFRSYM    DATA     BIT       P23
      00000090H.4 SFRSYM    DATA     BIT       P14
      00000080H.5 SFRSYM    DATA     BIT       P05
      00000089H   SFRSYM    DATA     BYTE      TMOD
      00000088H   SFRSYM    DATA     BYTE      TCON
      000000D8H.1 SFRSYM    DATA     BIT       P51
      000000C0H.2 SFRSYM    DATA     BIT       P42
      000000B0H.3 SFRSYM    DATA     BIT       P33
      000000A0H.4 SFRSYM    DATA     BIT       P24
      00000090H.5 SFRSYM    DATA     BIT       P15
      00000080H.6 SFRSYM    DATA     BIT       P06
      000000FAH   SFRSYM    DATA     BYTE      PCRCDH
      000000D8H.2 SFRSYM    DATA     BIT       P52
      000000C0H.3 SFRSYM    DATA     BIT       P43
      000000B0H.4 SFRSYM    DATA     BIT       P34
      000000A0H.5 SFRSYM    DATA     BIT       P25
      00000090H.6 SFRSYM    DATA     BIT       P16
      00000080H.7 SFRSYM    DATA     BIT       P07
      000000D8H.3 SFRSYM    DATA     BIT       P53
      000000C0H.4 SFRSYM    DATA     BIT       P44
      000000B0H.5 SFRSYM    DATA     BIT       P35
      000000A0H.6 SFRSYM    DATA     BIT       P26
      00000090H.7 SFRSYM    DATA     BIT       P17
      000000F2H   SFRSYM    DATA     BYTE      I2CSSR
      000000D8H.4 SFRSYM    DATA     BIT       P54
      000000C0H.5 SFRSYM    DATA     BIT       P45
      000000B0H.6 SFRSYM    DATA     BIT       P36
      000000A0H.7 SFRSYM    DATA     BIT       P27
      000000ECH   SFRSYM    DATA     BYTE      SPCR
      000000DDH   SFRSYM    DATA     BYTE      ADRESH
      000000D8H.5 SFRSYM    DATA     BIT       P55
      000000C0H.6 SFRSYM    DATA     BIT       P46
      000000B0H.7 SFRSYM    DATA     BIT       P37
LX51 LINKER/LOCATER V4.66.100.0                                                       07/27/2024  08:24:11  PAGE 49


      000000F9H   SFRSYM    DATA     BYTE      PCRCDL
      000000EEH   SFRSYM    DATA     BYTE      SPDR
      000000C0H.7 SFRSYM    DATA     BIT       P47
      000000E6H   SFRSYM    DATA     BYTE      CMPDAT
      000000EFH   SFRSYM    DATA     BYTE      SSCR
      000000D3H   SFRSYM    DATA     BYTE      ADDLYL
      000000DCH   SFRSYM    DATA     BYTE      ADRESL
      00000088H.1 SFRSYM    DATA     BIT       IE0
      00000088H.3 SFRSYM    DATA     BIT       IE1
      00000092H   SFRSYM    DATA     BYTE      SFRS
      0000008FH   SFRSYM    DATA     BYTE      CLKDIV
      000000F0H   SFRSYM    DATA     BYTE      B
      00000091H   SFRSYM    DATA     BYTE      FUNCCR
      0000009AH   SFRSYM    DATA     BYTE      P0TRIS
      000000A1H   SFRSYM    DATA     BYTE      P1TRIS
      000000A2H   SFRSYM    DATA     BYTE      P2TRIS
      000000E0H   SFRSYM    DATA     BYTE      ACC
      000000D6H   SFRSYM    DATA     BYTE      SCKSEL
      000000A3H   SFRSYM    DATA     BYTE      P3TRIS
      000000A8H.4 SFRSYM    DATA     BIT       ES0
      000000A4H   SFRSYM    DATA     BYTE      P4TRIS
      000000A8H.1 SFRSYM    DATA     BIT       ET0
      000000A8H.6 SFRSYM    DATA     BIT       ES1
      000000EDH   SFRSYM    DATA     BYTE      SPSR
      000000A5H   SFRSYM    DATA     BYTE      P5TRIS
      000000A8H.3 SFRSYM    DATA     BIT       ET1
      00000088H.5 SFRSYM    DATA     BIT       TF0
      000000A8H.5 SFRSYM    DATA     BIT       ET2
      00000098H.0 SFRSYM    DATA     BIT       RI0
      00000088H.7 SFRSYM    DATA     BIT       TF1
      0000008CH   SFRSYM    DATA     BYTE      TH0
      000000A8H.0 SFRSYM    DATA     BIT       EX0
      00000098H.1 SFRSYM    DATA     BIT       TI0
      00000088H.0 SFRSYM    DATA     BIT       IT0
      0000008DH   SFRSYM    DATA     BYTE      TH1
      000000A8H.2 SFRSYM    DATA     BIT       EX1
      00000088H.2 SFRSYM    DATA     BIT       IT1
      000000CDH   SFRSYM    DATA     BYTE      TH2
      000000D0H.0 SFRSYM    DATA     BIT       P
      000000DBH   SFRSYM    DATA     BYTE      TH3
      000000E3H   SFRSYM    DATA     BYTE      TH4
      0000008AH   SFRSYM    DATA     BYTE      TL0
      000000F0H.0 SFRSYM    DATA     BIT       B_0
      0000008BH   SFRSYM    DATA     BYTE      TL1
      000000F0H.1 SFRSYM    DATA     BIT       B_1
      00000098H.2 SFRSYM    DATA     BIT       U0RB8
      000000CCH   SFRSYM    DATA     BYTE      TL2
      000000F0H.2 SFRSYM    DATA     BIT       B_2
      000000B8H.4 SFRSYM    DATA     BIT       PS0
      000000DAH   SFRSYM    DATA     BYTE      TL3
      000000BFH   SFRSYM    DATA     BYTE      BUZCON
      000000F0H.3 SFRSYM    DATA     BIT       B_3
      000000B8H.1 SFRSYM    DATA     BIT       PT0
      000000B8H.6 SFRSYM    DATA     BIT       PS1
      00000098H.3 SFRSYM    DATA     BIT       U0TB8
      000000E2H   SFRSYM    DATA     BYTE      TL4
      000000F0H.4 SFRSYM    DATA     BIT       B_4
      000000D0H.3 SFRSYM    DATA     BIT       RS0
      000000B8H.3 SFRSYM    DATA     BIT       PT1
      000000F0H.5 SFRSYM    DATA     BIT       B_5
      000000D0H.4 SFRSYM    DATA     BIT       RS1
      000000B8H.5 SFRSYM    DATA     BIT       PT2
      00000098H.7 SFRSYM    DATA     BIT       U0SM0
      00000088H.4 SFRSYM    DATA     BIT       TR0
      000000BEH   SFRSYM    DATA     BYTE      BUZDIV
LX51 LINKER/LOCATER V4.66.100.0                                                       07/27/2024  08:24:11  PAGE 50


      000000F0H.6 SFRSYM    DATA     BIT       B_6
      000000E0H.0 SFRSYM    DATA     BIT       ACC_0
      00000098H.6 SFRSYM    DATA     BIT       U0SM1
      00000088H.6 SFRSYM    DATA     BIT       TR1
      000000F0H.7 SFRSYM    DATA     BIT       B_7
      000000E0H.1 SFRSYM    DATA     BIT       ACC_1
      000000B8H.0 SFRSYM    DATA     BIT       PX0
      00000098H.5 SFRSYM    DATA     BIT       U0SM2
      000000E0H.2 SFRSYM    DATA     BIT       ACC_2
      000000B8H.2 SFRSYM    DATA     BIT       PX1
      000000E0H.3 SFRSYM    DATA     BIT       ACC_3
      000000E0H.4 SFRSYM    DATA     BIT       ACC_4
      000000E7H   SFRSYM    DATA     BYTE      WWDTCON2
      000000E0H.5 SFRSYM    DATA     BIT       ACC_5
      000000E0H.6 SFRSYM    DATA     BIT       ACC_6
      000000E0H.7 SFRSYM    DATA     BIT       ACC_7
      000000BDH   SFRSYM    DATA     BYTE      WUTCRH
      00000099H   SFRSYM    DATA     BYTE      SBUF0
      000000E3H   SFRSYM    DATA     BYTE      PCON1
      000000EBH   SFRSYM    DATA     BYTE      SBUF1
      000000E5H   SFRSYM    DATA     BYTE      SBUF2
      000000BCH   SFRSYM    DATA     BYTE      WUTCRL
      00000098H   SFRSYM    DATA     BYTE      SCON0
      000000EAH   SFRSYM    DATA     BYTE      SCON1
      000000E4H   SFRSYM    DATA     BYTE      SCON2
      000000C8H   SFRSYM    DATA     BYTE      T2CON
      00000086H   SFRSYM    DATA     BYTE      DPS
      000000FEH   SFRSYM    DATA     BYTE      MDATA
      000000F6H   SFRSYM    DATA     BYTE      I2CMBUF
      000000F1H   SFRSYM    DATA     BYTE      I2CSADR
      00000098H.4 SFRSYM    DATA     BIT       U0REN
      000000C8H.5 SFRSYM    DATA     BIT       CAPES
      000000FDH   SFRSYM    DATA     BYTE      MADRH
      0000008EH   SFRSYM    DATA     BYTE      CKCON
      000000F3H   SFRSYM    DATA     BYTE      I2CSBUF
      000000FCH   SFRSYM    DATA     BYTE      MADRL
      000000E2H   SFRSYM    DATA     BYTE      FUNCCR1
      000000D0H.5 SFRSYM    DATA     BIT       F0
      000000FBH   SFRSYM    DATA     BYTE      MLOCK
      000000D0H   SFRSYM    DATA     BYTE      PSW
      00000097H   SFRSYM    DATA     BYTE      WDCON

      ---         MODULE    ---      ---       GPIO
      000000C8H.0 SFRSYM    DATA     BIT       T2I0
      000000C3H   SFRSYM    DATA     BYTE      CCH1
      00000080H   SFRSYM    DATA     BYTE      P0
      000000C8H.1 SFRSYM    DATA     BIT       T2I1
      000000C5H   SFRSYM    DATA     BYTE      CCH2
      00000090H   SFRSYM    DATA     BYTE      P1
      000000C7H   SFRSYM    DATA     BYTE      CCH3
      000000ACH   SFRSYM    DATA     BYTE      P0EXTIE
      000000A0H   SFRSYM    DATA     BYTE      P2
      000000B4H   SFRSYM    DATA     BYTE      P0EXTIF
      000000B0H   SFRSYM    DATA     BYTE      P3
      000000ADH   SFRSYM    DATA     BYTE      P1EXTIE
      000000D0H.6 SFRSYM    DATA     BIT       AC
      000000FFH   SFRSYM    DATA     BYTE      MCTRL
      000000C2H   SFRSYM    DATA     BYTE      CCL1
      000000C0H   SFRSYM    DATA     BYTE      P4
      000000B5H   SFRSYM    DATA     BYTE      P1EXTIF
      000000AEH   SFRSYM    DATA     BYTE      P2EXTIE
      000000D8H   SFRSYM    DATA     BYTE      P5
      000000C4H   SFRSYM    DATA     BYTE      CCL2
      000000B6H   SFRSYM    DATA     BYTE      P2EXTIF
      000000AFH   SFRSYM    DATA     BYTE      P3EXTIE
LX51 LINKER/LOCATER V4.66.100.0                                                       07/27/2024  08:24:11  PAGE 51


      000000A8H.7 SFRSYM    DATA     BIT       EA
      000000C6H   SFRSYM    DATA     BYTE      CCL3
      000000B7H   SFRSYM    DATA     BYTE      P3EXTIF
      000000AAH   SFRSYM    DATA     BYTE      EIE2
      0000009BH   SFRSYM    DATA     BYTE      P4EXTIE
      000000B2H   SFRSYM    DATA     BYTE      EIF2
      000000ABH   SFRSYM    DATA     BYTE      EIE3
      000000A6H   SFRSYM    DATA     BYTE      P4EXTIF
      0000009CH   SFRSYM    DATA     BYTE      P5EXTIE
      000000A7H   SFRSYM    DATA     BYTE      P5EXTIF
      000000C8H.3 SFRSYM    DATA     BIT       T2R0
      000000C8H.4 SFRSYM    DATA     BIT       T2R1
      00000083H   SFRSYM    DATA     BYTE      DPH0
      000000A8H   SFRSYM    DATA     BYTE      IE
      00000085H   SFRSYM    DATA     BYTE      DPH1
      00000080H.0 SFRSYM    DATA     BIT       P0_0
      000000B9H   SFRSYM    DATA     BYTE      EIP1
      00000090H.0 SFRSYM    DATA     BIT       P1_0
      00000080H.1 SFRSYM    DATA     BIT       P0_1
      000000BAH   SFRSYM    DATA     BYTE      EIP2
      00000082H   SFRSYM    DATA     BYTE      DPL0
      000000A0H.0 SFRSYM    DATA     BIT       P2_0
      00000090H.1 SFRSYM    DATA     BIT       P1_1
      00000080H.2 SFRSYM    DATA     BIT       P0_2
      000000BBH   SFRSYM    DATA     BYTE      EIP3
      00000084H   SFRSYM    DATA     BYTE      DPL1
      000000B0H.0 SFRSYM    DATA     BIT       P3_0
      000000A0H.1 SFRSYM    DATA     BIT       P2_1
      00000090H.2 SFRSYM    DATA     BIT       P1_2
      00000080H.3 SFRSYM    DATA     BIT       P0_3
      000000C0H.0 SFRSYM    DATA     BIT       P4_0
      000000B0H.1 SFRSYM    DATA     BIT       P3_1
      000000A0H.2 SFRSYM    DATA     BIT       P2_2
      00000090H.3 SFRSYM    DATA     BIT       P1_3
      00000080H.4 SFRSYM    DATA     BIT       P0_4
      000000D8H.0 SFRSYM    DATA     BIT       P5_0
      000000C8H.6 SFRSYM    DATA     BIT       I3FR
      000000C0H.1 SFRSYM    DATA     BIT       P4_1
      000000B0H.2 SFRSYM    DATA     BIT       P3_2
      000000A0H.3 SFRSYM    DATA     BIT       P2_3
      00000090H.4 SFRSYM    DATA     BIT       P1_4
      00000080H.5 SFRSYM    DATA     BIT       P0_5
      000000CFH   SFRSYM    DATA     BYTE      T2IE
      00000096H   SFRSYM    DATA     BYTE      TA
      000000D8H.1 SFRSYM    DATA     BIT       P5_1
      000000C0H.2 SFRSYM    DATA     BIT       P4_2
      000000B0H.3 SFRSYM    DATA     BIT       P3_3
      000000A0H.4 SFRSYM    DATA     BIT       P2_4
      00000090H.5 SFRSYM    DATA     BIT       P1_5
      00000080H.6 SFRSYM    DATA     BIT       P0_6
      000000C9H   SFRSYM    DATA     BYTE      T2IF
      000000D8H.2 SFRSYM    DATA     BIT       P5_2
      000000C8H.2 SFRSYM    DATA     BIT       T2CM
      000000C0H.3 SFRSYM    DATA     BIT       P4_3
      000000B0H.4 SFRSYM    DATA     BIT       P3_4
      000000A0H.5 SFRSYM    DATA     BIT       P2_5
      00000090H.6 SFRSYM    DATA     BIT       P1_6
      00000080H.7 SFRSYM    DATA     BIT       P0_7
      000000DFH   SFRSYM    DATA     BYTE      ADCON0
      000000D8H.3 SFRSYM    DATA     BIT       P5_3
      000000C0H.4 SFRSYM    DATA     BIT       P4_4
      000000B0H.5 SFRSYM    DATA     BIT       P3_5
      000000A0H.6 SFRSYM    DATA     BIT       P2_6
      00000090H.7 SFRSYM    DATA     BIT       P1_7
      000000DEH   SFRSYM    DATA     BYTE      ADCON1
LX51 LINKER/LOCATER V4.66.100.0                                                       07/27/2024  08:24:11  PAGE 52


      000000D8H.4 SFRSYM    DATA     BIT       P5_4
      000000C0H.5 SFRSYM    DATA     BIT       P4_5
      000000B0H.6 SFRSYM    DATA     BIT       P3_6
      000000A0H.7 SFRSYM    DATA     BIT       P2_7
      000000E9H   SFRSYM    DATA     BYTE      ADCON2
      000000B8H   SFRSYM    DATA     BYTE      IP
      000000D8H.5 SFRSYM    DATA     BIT       P5_5
      000000C0H.6 SFRSYM    DATA     BIT       P4_6
      000000B0H.7 SFRSYM    DATA     BIT       P3_7
      000000CEH   SFRSYM    DATA     BYTE      CCEN
      000000D8H.6 SFRSYM    DATA     BIT       P5_6
      000000C0H.7 SFRSYM    DATA     BIT       P4_7
      000000D8H.7 SFRSYM    DATA     BIT       P5_7
      000000D0H.7 SFRSYM    DATA     BIT       CY
      000000D2H   SFRSYM    DATA     BYTE      T34MOD
      000000F4H   SFRSYM    DATA     BYTE      I2CMSA
      000000D7H   SFRSYM    DATA     BYTE      SCKSTAU
      000000F5H   SFRSYM    DATA     BYTE      I2CMCR
      00000081H   SFRSYM    DATA     BYTE      SP
      000000D0H.2 SFRSYM    DATA     BIT       OV
      000000F2H   SFRSYM    DATA     BYTE      I2CSCR
      000000D9H   SFRSYM    DATA     BYTE      ADCCHS
      000000E5H   SFRSYM    DATA     BYTE      WWDTCON
      000000C8H.7 SFRSYM    DATA     BIT       T2PS
      000000D1H   SFRSYM    DATA     BYTE      ADCMPC
      000000CBH   SFRSYM    DATA     BYTE      RLDH
      000000D5H   SFRSYM    DATA     BYTE      ADCMPH
      000000CAH   SFRSYM    DATA     BYTE      RLDL
      00000080H.0 SFRSYM    DATA     BIT       P00
      00000090H.0 SFRSYM    DATA     BIT       P10
      00000080H.1 SFRSYM    DATA     BIT       P01
      000000F7H   SFRSYM    DATA     BYTE      I2CMTP
      00000087H   SFRSYM    DATA     BYTE      PCON
      000000A0H.0 SFRSYM    DATA     BIT       P20
      00000090H.1 SFRSYM    DATA     BIT       P11
      00000080H.2 SFRSYM    DATA     BIT       P02
      000000F5H   SFRSYM    DATA     BYTE      I2CMSR
      000000B0H.0 SFRSYM    DATA     BIT       P30
      000000A0H.1 SFRSYM    DATA     BIT       P21
      00000090H.2 SFRSYM    DATA     BIT       P12
      00000080H.3 SFRSYM    DATA     BIT       P03
      000000D4H   SFRSYM    DATA     BYTE      ADCMPL
      000000C0H.0 SFRSYM    DATA     BIT       P40
      000000B0H.1 SFRSYM    DATA     BIT       P31
      000000A0H.2 SFRSYM    DATA     BIT       P22
      00000090H.3 SFRSYM    DATA     BIT       P13
      00000080H.4 SFRSYM    DATA     BIT       P04
      000000D8H.0 SFRSYM    DATA     BIT       P50
      000000C0H.1 SFRSYM    DATA     BIT       P41
      000000B0H.2 SFRSYM    DATA     BIT       P32
      000000A0H.3 SFRSYM    DATA     BIT       P23
      00000090H.4 SFRSYM    DATA     BIT       P14
      00000080H.5 SFRSYM    DATA     BIT       P05
      00000089H   SFRSYM    DATA     BYTE      TMOD
      00000088H   SFRSYM    DATA     BYTE      TCON
      000000D8H.1 SFRSYM    DATA     BIT       P51
      000000C0H.2 SFRSYM    DATA     BIT       P42
      000000B0H.3 SFRSYM    DATA     BIT       P33
      000000A0H.4 SFRSYM    DATA     BIT       P24
      00000090H.5 SFRSYM    DATA     BIT       P15
      00000080H.6 SFRSYM    DATA     BIT       P06
      000000FAH   SFRSYM    DATA     BYTE      PCRCDH
      000000D8H.2 SFRSYM    DATA     BIT       P52
      000000C0H.3 SFRSYM    DATA     BIT       P43
      000000B0H.4 SFRSYM    DATA     BIT       P34
LX51 LINKER/LOCATER V4.66.100.0                                                       07/27/2024  08:24:11  PAGE 53


      000000A0H.5 SFRSYM    DATA     BIT       P25
      00000090H.6 SFRSYM    DATA     BIT       P16
      00000080H.7 SFRSYM    DATA     BIT       P07
      000000D8H.3 SFRSYM    DATA     BIT       P53
      000000C0H.4 SFRSYM    DATA     BIT       P44
      000000B0H.5 SFRSYM    DATA     BIT       P35
      000000A0H.6 SFRSYM    DATA     BIT       P26
      00000090H.7 SFRSYM    DATA     BIT       P17
      000000F2H   SFRSYM    DATA     BYTE      I2CSSR
      000000D8H.4 SFRSYM    DATA     BIT       P54
      000000C0H.5 SFRSYM    DATA     BIT       P45
      000000B0H.6 SFRSYM    DATA     BIT       P36
      000000A0H.7 SFRSYM    DATA     BIT       P27
      000000ECH   SFRSYM    DATA     BYTE      SPCR
      000000DDH   SFRSYM    DATA     BYTE      ADRESH
      000000D8H.5 SFRSYM    DATA     BIT       P55
      000000C0H.6 SFRSYM    DATA     BIT       P46
      000000B0H.7 SFRSYM    DATA     BIT       P37
      000000F9H   SFRSYM    DATA     BYTE      PCRCDL
      000000EEH   SFRSYM    DATA     BYTE      SPDR
      000000C0H.7 SFRSYM    DATA     BIT       P47
      000000E6H   SFRSYM    DATA     BYTE      CMPDAT
      000000EFH   SFRSYM    DATA     BYTE      SSCR
      000000D3H   SFRSYM    DATA     BYTE      ADDLYL
      000000DCH   SFRSYM    DATA     BYTE      ADRESL
      00000088H.1 SFRSYM    DATA     BIT       IE0
      00000088H.3 SFRSYM    DATA     BIT       IE1
      00000092H   SFRSYM    DATA     BYTE      SFRS
      0000008FH   SFRSYM    DATA     BYTE      CLKDIV
      000000F0H   SFRSYM    DATA     BYTE      B
      00000091H   SFRSYM    DATA     BYTE      FUNCCR
      0000009AH   SFRSYM    DATA     BYTE      P0TRIS
      000000A1H   SFRSYM    DATA     BYTE      P1TRIS
      000000A2H   SFRSYM    DATA     BYTE      P2TRIS
      000000E0H   SFRSYM    DATA     BYTE      ACC
      000000D6H   SFRSYM    DATA     BYTE      SCKSEL
      000000A3H   SFRSYM    DATA     BYTE      P3TRIS
      000000A8H.4 SFRSYM    DATA     BIT       ES0
      000000A4H   SFRSYM    DATA     BYTE      P4TRIS
      000000A8H.1 SFRSYM    DATA     BIT       ET0
      000000A8H.6 SFRSYM    DATA     BIT       ES1
      000000EDH   SFRSYM    DATA     BYTE      SPSR
      000000A5H   SFRSYM    DATA     BYTE      P5TRIS
      000000A8H.3 SFRSYM    DATA     BIT       ET1
      00000088H.5 SFRSYM    DATA     BIT       TF0
      000000A8H.5 SFRSYM    DATA     BIT       ET2
      00000098H.0 SFRSYM    DATA     BIT       RI0
      00000088H.7 SFRSYM    DATA     BIT       TF1
      0000008CH   SFRSYM    DATA     BYTE      TH0
      000000A8H.0 SFRSYM    DATA     BIT       EX0
      00000098H.1 SFRSYM    DATA     BIT       TI0
      00000088H.0 SFRSYM    DATA     BIT       IT0
      0000008DH   SFRSYM    DATA     BYTE      TH1
      000000A8H.2 SFRSYM    DATA     BIT       EX1
      00000088H.2 SFRSYM    DATA     BIT       IT1
      000000CDH   SFRSYM    DATA     BYTE      TH2
      000000D0H.0 SFRSYM    DATA     BIT       P
      000000DBH   SFRSYM    DATA     BYTE      TH3
      000000E3H   SFRSYM    DATA     BYTE      TH4
      0000008AH   SFRSYM    DATA     BYTE      TL0
      000000F0H.0 SFRSYM    DATA     BIT       B_0
      0000008BH   SFRSYM    DATA     BYTE      TL1
      000000F0H.1 SFRSYM    DATA     BIT       B_1
      00000098H.2 SFRSYM    DATA     BIT       U0RB8
      000000CCH   SFRSYM    DATA     BYTE      TL2
LX51 LINKER/LOCATER V4.66.100.0                                                       07/27/2024  08:24:11  PAGE 54


      000000F0H.2 SFRSYM    DATA     BIT       B_2
      000000B8H.4 SFRSYM    DATA     BIT       PS0
      000000DAH   SFRSYM    DATA     BYTE      TL3
      000000BFH   SFRSYM    DATA     BYTE      BUZCON
      000000F0H.3 SFRSYM    DATA     BIT       B_3
      000000B8H.1 SFRSYM    DATA     BIT       PT0
      000000B8H.6 SFRSYM    DATA     BIT       PS1
      00000098H.3 SFRSYM    DATA     BIT       U0TB8
      000000E2H   SFRSYM    DATA     BYTE      TL4
      000000F0H.4 SFRSYM    DATA     BIT       B_4
      000000D0H.3 SFRSYM    DATA     BIT       RS0
      000000B8H.3 SFRSYM    DATA     BIT       PT1
      000000F0H.5 SFRSYM    DATA     BIT       B_5
      000000D0H.4 SFRSYM    DATA     BIT       RS1
      000000B8H.5 SFRSYM    DATA     BIT       PT2
      00000098H.7 SFRSYM    DATA     BIT       U0SM0
      00000088H.4 SFRSYM    DATA     BIT       TR0
      000000BEH   SFRSYM    DATA     BYTE      BUZDIV
      000000F0H.6 SFRSYM    DATA     BIT       B_6
      000000E0H.0 SFRSYM    DATA     BIT       ACC_0
      00000098H.6 SFRSYM    DATA     BIT       U0SM1
      00000088H.6 SFRSYM    DATA     BIT       TR1
      000000F0H.7 SFRSYM    DATA     BIT       B_7
      000000E0H.1 SFRSYM    DATA     BIT       ACC_1
      000000B8H.0 SFRSYM    DATA     BIT       PX0
      00000098H.5 SFRSYM    DATA     BIT       U0SM2
      000000E0H.2 SFRSYM    DATA     BIT       ACC_2
      000000B8H.2 SFRSYM    DATA     BIT       PX1
      000000E0H.3 SFRSYM    DATA     BIT       ACC_3
      000000E0H.4 SFRSYM    DATA     BIT       ACC_4
      000000E7H   SFRSYM    DATA     BYTE      WWDTCON2
      000000E0H.5 SFRSYM    DATA     BIT       ACC_5
      000000E0H.6 SFRSYM    DATA     BIT       ACC_6
      000000E0H.7 SFRSYM    DATA     BIT       ACC_7
      000000BDH   SFRSYM    DATA     BYTE      WUTCRH
      00000099H   SFRSYM    DATA     BYTE      SBUF0
      000000E3H   SFRSYM    DATA     BYTE      PCON1
      000000EBH   SFRSYM    DATA     BYTE      SBUF1
      000000E5H   SFRSYM    DATA     BYTE      SBUF2
      000000BCH   SFRSYM    DATA     BYTE      WUTCRL
      00000098H   SFRSYM    DATA     BYTE      SCON0
      000000EAH   SFRSYM    DATA     BYTE      SCON1
      000000E4H   SFRSYM    DATA     BYTE      SCON2
      000000C8H   SFRSYM    DATA     BYTE      T2CON
      00000086H   SFRSYM    DATA     BYTE      DPS
      000000FEH   SFRSYM    DATA     BYTE      MDATA
      000000F6H   SFRSYM    DATA     BYTE      I2CMBUF
      000000F1H   SFRSYM    DATA     BYTE      I2CSADR
      00000098H.4 SFRSYM    DATA     BIT       U0REN
      000000C8H.5 SFRSYM    DATA     BIT       CAPES
      000000FDH   SFRSYM    DATA     BYTE      MADRH
      0000008EH   SFRSYM    DATA     BYTE      CKCON
      000000F3H   SFRSYM    DATA     BYTE      I2CSBUF
      000000FCH   SFRSYM    DATA     BYTE      MADRL
      000000E2H   SFRSYM    DATA     BYTE      FUNCCR1
      000000D0H.5 SFRSYM    DATA     BIT       F0
      000000FBH   SFRSYM    DATA     BYTE      MLOCK
      000000D0H   SFRSYM    DATA     BYTE      PSW
      00000097H   SFRSYM    DATA     BYTE      WDCON
      020005E0H   SYMBOL    XDATA    BYTE      Port
      020005E1H   SYMBOL    XDATA    BYTE      PinMSK
      020005E2H   SYMBOL    XDATA    BYTE      Port
      020005E3H   SYMBOL    XDATA    BYTE      PinMSK
      02000596H   SYMBOL    XDATA    BYTE      Port
      02000597H   SYMBOL    XDATA    BYTE      PinNum
LX51 LINKER/LOCATER V4.66.100.0                                                       07/27/2024  08:24:11  PAGE 55


      02000598H   SYMBOL    XDATA    BYTE      PinIntFlag
      020005E4H   SYMBOL    XDATA    BYTE      Port
      020005E5H   SYMBOL    XDATA    BYTE      PinNum

      ---         MODULE    ---      ---       SYSTEM
      000000C8H.0 SFRSYM    DATA     BIT       T2I0
      000000C3H   SFRSYM    DATA     BYTE      CCH1
      00000080H   SFRSYM    DATA     BYTE      P0
      000000C8H.1 SFRSYM    DATA     BIT       T2I1
      000000C5H   SFRSYM    DATA     BYTE      CCH2
      00000090H   SFRSYM    DATA     BYTE      P1
      000000C7H   SFRSYM    DATA     BYTE      CCH3
      000000ACH   SFRSYM    DATA     BYTE      P0EXTIE
      000000A0H   SFRSYM    DATA     BYTE      P2
      000000B4H   SFRSYM    DATA     BYTE      P0EXTIF
      000000B0H   SFRSYM    DATA     BYTE      P3
      000000ADH   SFRSYM    DATA     BYTE      P1EXTIE
      000000D0H.6 SFRSYM    DATA     BIT       AC
      000000FFH   SFRSYM    DATA     BYTE      MCTRL
      000000C2H   SFRSYM    DATA     BYTE      CCL1
