:100000000242C102000A1249872232024AA0123576
:100010005F2232020012124F6F223202001A12398E
:10002000EA2232024619123CA52232020022123E76
:10003000E12232024858323232323202002A32325F
:0E0040003232320200323232323222020036C6
:0300530002003771
:03005B0002003868
:100063000200399004C5E4F09004C4F09004C6047F
:06007300F0900383F0226F
:03007B0002003A46
:0300830002003E3A
:03008B0002003F31
:0300930002004028
:03009B000200411F
:0300A300024BA469
:0300AB000200420E
:0300B30002004602
:0F00BB000248BFE59730E3047F0180027F0022F7
:0300CB00020047E9
:0300D300020048E0
:0300DB00024C953F
:1000E30002004990066BE4F090038BE0FF6402602A
:1000F300031256B990038BE0FF640360031256A109
:1001030090038BE0FF120A4B011B00014201016ABD
:100113000201DD03000006CB90066BE4F090066B52
:10012300E0FFC3940F40030206CBE0748C2FF582EB
:10013300E43403F583E4F090066BE004F080DE9092
:10014300066BE4F090066BE0FFC3940F40030206D6
:10015300CBE0748C2FF582E43403F58374FFF090C5
:10016300066BE004F080DD90066BE4F090066BE034
:10017300FFC3940F40030206CB1256F0C3EF94AFB4
:10018300EE940050231256F074A32FF58274573E59
:10019300F583E493FF90066BE0FE748C2EF582E406
:1001A3003403F583EFF0802A1256F0C3745D9FFF8A
:1001B30074019EFE74A32FF58274573EF583E49376
:1001C300FF90066BE0FE748C2EF582E43403F58316
:1001D300EFF090066BE004F08092125707EF706027
:1001E300900389E0FFC313FF90575393FF90038C51
:1001F300F0A374FFF0900389E0FFC313FF90574B04
:1002030093FF90038EF0900389E0FFC313FF905791
:100213004393FF90038FF0A3E4F0A3F0A3F0A3F0C4
:10022300A3F0A3F0A3F0A3F0A3F0A3F0900389E05D
:10023300FFC313FF90575B93FF90039AF00206CB23
:10024300125707EF6401704B900389E0FFC313FF5C
:1002530090575B93FF90038CF0900389E0FFC313E7
:10026300FF90575393FF90038DF0A374FFF0900317
:1002730089E0FFC313FF90574B93FF90038FF090D8
:100283000389E0FFC313FF90574393FF900390F05C
:100293000206CB125707EF6402704B900389E0FF0D
:1002A300C313FF90575B93FF90038DF0900389E096
:1002B300FFC313FF90575393FF90038EF0A374FF74
:1002C300F0900389E0FFC313FF90574B93FF900314
:1002D30090F0900389E0FFC313FF90574393FF907F
:1002E3000391F00206CB125707EF6403704B9003A0
:1002F30089E0FFC313FF90575B93FF90038EF09049
:100303000389E0FFC313FF90575393FF90038FF0CC
:10031300A374FFF0900389E0FFC313FF90574B933F
:10032300FF900391F0900389E0FFC313FF905743BD
:1003330093FF900392F00206CB125707EF64047009
:100343004B900389E0FFC313FF90575B93FF900328
:100353008FF0900389E0FFC313FF90575393FF90EF
:100363000390F0A374FFF0900389E0FFC313FF90A1
:10037300574B93FF900392F0900389E0FFC313FF61
:1003830090574393FF900393F00206CB125707EF66
:100393006405704B900389E0FFC313FF90575B9391
:1003A300FF900390F0900389E0FFC313FF9057532E
:1003B30093FF900391F0A374FFF0900389E0FFC3D0
:1003C30013FF90574B93FF900393F0900389E0FF43
:1003D300C313FF90574393FF900394F00206CB128D
:1003E3005707EF6406704B900389E0FFC313FF9038
:1003F300575B93FF900391F0900389E0FFC313FFD2
:1004030090575393FF900392F0A374FFF0900389E6
:10041300E0FFC313FF90574B93FF900394F09003B7
:1004230089E0FFC313FF90574393FF900395F002B6
:1004330006CB125707EF6407704B900389E0FFC3A5
:1004430013FF90575B93FF900392F0900389E0FFB3
:10045300C313FF90575393FF900393F0A374FFF0DC
:10046300900389E0FFC313FF90574B93FF900395CD
:10047300F0900389E0FFC313FF90574393FF90036A
:1004830096F00206CB125707EF6408704B9003896E
:10049300E0FFC313FF90575B93FF900393F0900328
:1004A30089E0FFC313FF90575393FF900394F0A386
:1004B30074FFF0900389E0FFC313FF90574B93FF42
:1004C300900396F0900389E0FFC313FF9057439383
:1004D300FF900397F00206CB125707EF6409704BA6
:1004E300900389E0FFC313FF90575B93FF9003943E
:1004F300F0900389E0FFC313FF90575393FF9003DA
:1005030095F0A374FFF0900389E0FFC313FF9057A6
:100513004B93FF900397F0900389E0FFC313FF9081
:10052300574393FF900398F00206CB125707EF64EB
:100533000A704B900389E0FFC313FF90575B93FF4F
:10054300900395F0900389E0FFC313FF90575393F3
:10055300FF900396F0A374FFF0900389E0FFC313A9
:10056300FF90574B93FF900398F0900389E0FFC3EC
:1005730013FF90574393FF900399F00206CB125752
:1005830007EF640B704B900389E0FFC313FF905791
:100593005B93FF900396F0900389E0FFC313FF90F2
:1005A300575393FF900397F0A374FFF0900389E0F0
:1005B300FFC313FF90574B93FF900399F090038968
:1005C300E0FFC313FF90574393FF90039AF0020693
:1005D300CB125707EF640C704B900389E0FFC313F2
:1005E300FF90575B93FF900397F0900389E0FFC35D
:1005F30013FF90575393FF900398F0A374FFF09069
:100603000389E0FFC313FF90574B93FF90039AF0C6
:10061300900389E0FFC313FF90574393FF90038C2C
:10062300F00206CB125707EF640D704A900389E07E
:10063300FFC313FF90575B93FF900398F0900389D8
:10064300E0FFC313FF90575393FF900399F0A374F4
:10065300FFF0900389E0FFC313FF90574B93FF9084
:10066300038CF0900389E0FFC313FF90574393FF7C
:1006730090038DF08052125707EF640E704A900377
:1006830089E0FFC313FF90575B93FF900399F090AA
:100693000389E0FFC313FF90575393FF90039AF02E
:1006A30090038C74FFF0900389E0FFC313FF90570E
:1006B3004B93FF90038DF0900389E0FFC313FF90EA
:1006C300574393FF90038EF090038CE0FF9003D188
:1006D300F090038DE0FF9003C9F090038EE0FF904C
:1006E30003C1F090038FE0FF9003B9F0900390E013
:1006F300FF9003B1F0900391E0FF9003A9F0900302
:1007030092E0FF9003A1F0900393E0FF9003D9F0F0
:10071300900394E0FF9003CDF0900395E0FF9003E6
:10072300C5F0900396E0FF9003BDF0900397E0FFC0
:100733009003B5F0900398E0FF9003ADF090039918
:10074300E0FF9003A5F090039AE0FF90039DF02251
:10075300E709F608DFFA8046E709F208DFFA803E88
:1007630088828C83E709F0A3DFFA8032E309F60875
:10077300DFFA8078E309F208DFFA807088828C83DD
:10078300E309F0A3DFFA806489828A83E0A3F60891
:10079300DFFA805889828A83E0A3F208DFFA804C6B
:1007A30080D280FA80C680D4806980F28033801042
:1007B30080A680EA809A80A880DA80E280CA8033AB
:1007C30089828A83ECFAE493A3C8C582C8CCC58323
:1007D300CCF0A3C8C582C8CCC583CCDFE9DEE780F3
:1007E3000D89828A83E493A3F608DFF9ECFAA9F072
:1007F300EDFB2289828A83ECFAE0A3C8C582C8CCC8
:10080300C583CCF0A3C8C582C8CCC583CCDFEADEE0
:10081300E880DB89828A83E493A3F208DFF980CC42
:1008230088F0EF60010E4E60C388F0ED2402B4043B
:100833000050B9F582EB2402B4040050AF232345E2
:1008430082239007A373BB010689828A83E0225027
:1008530002E722BBFE02E32289828A83E49322BB5E
:10086300010CE58229F582E5833AF583E0225006FF
:10087300E92582F8E622BBFE06E92582F8E222E5B5
:100883008229F582E5833AF583E49322BB010FF8CD
:10089300E58229F582E5833AF583E028F0225009C1
:1008A300C58229F8E58226F622BBFE09C58229F80E
:1008B300E22582F222F8EA2583F583E9932822BB15
:1008C300010689828A83F0225002F722BBFE01F3DC
:1008D30022F8BB010DE58229F582E5833AF583E829
:1008E300F0225006E92582C8F622BBFE05E92582DF
:1008F300C8F222BC000BBE0029EF8DF084FFADF0DF
:1009030022E4CCF875F008EF2FFFEE33FEEC33FC56
:10091300EE9DEC984005FCEE9DFE0FD5F0E9E4CE8C
:10092300FD22EDF8F5F0EE8420D21CFEADF075F05B
:1009330008EF2FFFED33FD4007985006D5F0F22264
:10094300C398FD0FD5F0EA22C5F0F8A3E028F0C55F
:10095300F0F8E582158270021583E038F022A3F8DF
:10096300E0C5F025F0F0E582158270021583E0C83A
:1009730038F0E822CFF4CFCEF4CECDF4CDCCF4CC06
:1009830022EB9FF5F0EA9E42F0E99D42F0EC648091
:10099300C864809845F022EB9FF5F0EA9E42F0E9A7
:1009A3009D42F0E89C45F022E8600FEFC333FFEE71
:1009B30033FEED33FDEC33FCD8F122E493FC7401F8
:1009C30093FD740293FE740393FF22E493F874017E
:1009D30093F9740293FA740393FB22ECF0A3EDF002
:1009E300A3EEF0A3EFF022A8828583F0D083D08218
:1009F300120A01120A01120A01120A01E473E493B2
:100A0300A3C583C5F0C583C8C582C8F0A3C583C584
:100A1300F0C583C8C582C822BB010DE58229F582D2
:100A2300E5833AF583020D2C5007E92582F8020D80
:100A330023BBFE07E92582F8020D35E58229F582FD
:100A4300E5833AF583020D3ED083D082F8E49370B8
:100A530012740193700DA3A393F8740193F5828824
:100A630083E4737402936860EFA3A3A380DFD0834E
:100A7300D082E4937012740193700DA3A393F8745E
:100A83000193F5828883E4737402936C7012740388
:100A9300936D700C7404936E70067405936F60DD30
:100AA300A3A3A3A3A3A380CAE3F5F009E208B5F0C7
:100AB3006BDFF58067E3F5F009E608B5F05EDFF577
:100AC300805A87F009E608B5F052DFF6804E87F0CA
:100AD30009E208B5F046DFF6804288828C8387F00E
:100AE30009E0A3B5F036DFF6803288828C8387F085
:100AF30009E493A3B5F025DFF5802188828C83E395
:100B0300F5F009E0A3B5F014DFF5801088828C833B
:100B1300E3F5F009E493A3B5F002DFF4020BDA8006
:100B23008780E9809080D4803E8015806E807E80AF
:100B33009D80B7808D80A380518074803C020BE63A
:100B430089828A83ECFAE493F5F0A3C8C582C8CC02
:100B5300C583CCE493A3C8C582C8CCC583CCB5F008
:100B630076DFE3DEE1807089828A83E493F5F0A384
:100B7300E208B5F062DFF4805E89828A83E0F5F0F3
:100B8300A3E608B5F051DFF5804D89828A83E0F54D
:100B9300F0A3E208B5F040DFF5803C89828A83E464
:100BA30093F5F0A3E608B5F02EDFF4802A800280E7
:100BB3005789828A83ECFAE493F5F0A3C8C582C807
:100BC300CCC583CCE0A3C8C582C8CCC583CCB5F063
:100BD30006DFE4DEE280007FFFB5F0020F22400271
:100BE3007F012289828A83ECFAE0F5F0A3C8C582EB
:100BF300C8CCC583CCE0A3C8C582C8CCC583CCB55B
:100C0300F0D5DFE5DEE380CF89828A83ECFAE0F575
:100C1300F0A3C8C582C8CCC583CCE493A3C8C5825E
:100C2300C8CCC583CCB5F0AFDFE4DEE280A988F0A1
:100C3300EF60010E4E60ABED2402B404005098F552
:100C430082EB2402B40400508E2323458223900BAD
:100C5300227375F008758200EF2FFFEE33FECD335C
:100C6300CDCC33CCC58233C5829BED9AEC99E5821A
:100C730098400CF582EE9BFEED9AFDEC99FC0FD5A6
:100C8300F0D6E4CEFBE4CDFAE4CCF9A88222B80096
:100C9300C1B90059BA002DEC8BF084CFCECDFCE561
:100CA300F0CBF97818EF2FFFEE33FEED33FDEC3385
:100CB300FCEB33FB10D703994004EB99FB0FD8E50A
:100CC300E4F9FA227818EF2FFFEE33FEED33FDEC53
:100CD30033FCC933C910D7059BE99A4007EC9BFC49
:100CE300E99AF90FD8E0E4C9FAE4CCFB2275F010D5
:100CF300EF2FFFEE33FEED33FDCC33CCC833C810FA
:100D0300D7079BEC9AE899400AED9BFDEC9AFCE827
:100D130099F80FD5F0DAE4CDFBE4CCFAE4C8F92274
:100D2300E6FB08E6FA08E6F922E0FBA3E0FAA3E013
:100D3300F922E2FB08E2FA08E2F922E493FB7401E8
:100D430093FA740293F92290066CE4F09003DDE0C9
:100D5300FF640260031256B99003DDE0FF64036091
:100D6300031256AD9003DDE0FF120A4B0D7F000D19
:100D7300A6010DCE020E4103000011DA90066CE4C9
:100D8300F090066CE0FFC3940D40030211DAE074A7
:100D9300DE2FF582E43403F583E4F090066CE0047F
:100DA300F080DE90066CE4F090066CE0FFC3940DD7
:100DB30040030211DAE074DE2FF582E43403F58395
:100DC30074FFF090066CE004F080DD90066CE4F0B4
:100DD30090066CE0FFC3940D40030211DA1256F043
:100DE300C3EF94AFEE940050231256F074A32FF583
:100DF3008274573EF583E493FF90066CE0FE74DE45
:100E03002EF582E43403F583EFF0802A1256F0C303
:100E1300745D9FFF74019EFE74A32FF58274573E89
:100E2300F583E493FF90066CE0FE74DE2EF582E416
:100E33003403F583EFF090066CE004F080921257D0
:100E43000DEF702290574A93FF9003DEF0A3E4F076
:100E5300A3F0A3F0A3F0A3F0A3F0A3F0A3F0A3F0F7
:100E6300A3F0A3F0A3F012570DEF640170429003B7
:100E7300DBE0FFC39410500FE0C313FF90574B9375
:100E8300FF9003DEF080069003DE74FFF09003DB37
:100E9300E0FFC39410500FE0C313FF90574393FF39
:100EA3009003DFF0800A90574AE493FF9003DFF04A
:100EB30012570DEF640270429003DBE0FFC39410FE
:100EC300500FE0C313FF90574B93FF9003DFF08065
:100ED300069003DF74FFF09003DBE0FFC394105030
:100EE3000FE0C313FF90574393FF9003E0F0800A92
:100EF30090574AE493FF9003E0F012570DEF640319
:100F030070429003DBE0FFC39410500FE0C313FF64
:100F130090574B93FF9003E0F080069003E074FF3B
:100F2300F09003DBE0FFC39410500FE0C313FF9076
:100F3300574393FF9003E1F0800A90574AE493FFED
:100F43009003E1F012570DEF640470429003DBE06D
:100F5300FFC39410500FE0C313FF90574B93FF90C0
:100F630003E1F080069003E174FFF09003DBE0FF00
:100F7300C39410500FE0C313FF90574393FF9003A4
:100F8300E2F0800A90574AE493FF9003E2F012578D
:100F93000DEF640570429003DBE0FFC39410500F24
:100FA300E0C313FF90574B93FF9003E2F08006904A
:100FB30003E274FFF09003DBE0FFC39410500FE0F3
:100FC300C313FF90574393FF9003E3F0800A9057B6
:100FD3004AE493FF9003E3F012570DEF6406704267
:100FE3009003DBE0FFC39410500FE0C313FF90574F
:100FF3004B93FF9003E3F080069003E374FFF090BC
:1010030003DBE0FFC39410500FE0C313FF9057437B
:1010130093FF9003E4F0800A90574AE493FF900310
:10102300E4F012570DEF640770429003DBE0FFC357
:101033009410500FE0C313FF90574B93FF9003E4BA
:10104300F080069003E474FFF09003DBE0FFC394A9
:1010530010500FE0C313FF90574393FF9003E5F045
:10106300800A90574AE493FF9003E5F012570DEF7F
:10107300640870429003DBE0FFC39410500FE0C399
:1010830013FF90574B93FF9003E5F080069003E521
:1010930074FFF09003DBE0FFC39410500FE0C31321
:1010A300FF90574393FF9003E6F0800A90574AE47A
:1010B30093FF9003E6F012570DEF6409704290031B
:1010C300DBE0FFC39410500FE0C313FF90574B9323
:1010D300FF9003E6F080069003E674FFF09003DBD5
:1010E300E0FFC39410500FE0C313FF90574393FFE7
:1010F3009003E7F0800A90574AE493FF9003E7F0E8
:1011030012570DEF640A70429003DBE0FFC39410A3
:10111300500FE0C313FF90574B93FF9003E7F0800A
:10112300069003E774FFF09003DBE0FFC3941050D5
:101133000FE0C313FF90574393FF9003E8F0800A37
:1011430090574AE493FF9003E8F012570DEF640BB6
:1011530070429003DBE0FFC39410500FE0C313FF12
:1011630090574B93FF9003E8F080069003E874FFD9
:10117300F09003DBE0FFC39410500FE0C313FF9024
:10118300574393FF9003E9F0800A90574AE493FF93
:101193009003E9F012570DEF640C703B9003DBE012
:1011A300FFC39410500FE0C313FF90574B93FF906E
:1011B30003E9F080069003E974FFF09003DBE0FF9E
:1011C300C39410500CE090574393FF9003EAF080D0
:1011D300069003EA74FFF09003DEE0FF9003BAF099
:1011E3009003DE9003B2F09003DE9003A4F090032B
:1011F300DE90039CF09003DE9003D4F09003DFE0D5
:10120300FF9003C2F09003DF9003AAF09003DF90F6
:1012130003ACF09003DF9003CBF09003E0E0FF908A
:1012230003CAF09003E09003A2F09003E09003B4AC
:10123300F09003E09003C4F09003E09003C3F090B8
:1012430003E09003B3F09003E1E0FF9003D5F09047
:1012530003E19003A3F09003E2E0FF9003D2F09048
:1012630003E29003DAF09003E29003BCF09003E210
:101273009003D8F09003E29003BBF09003E2900355
:101283009BF09003E3E0FF9003CCF09003E3900323
:10129300ABF09003E4E0FF9003A0F09003E490032D
:1012A300CEF09003E5E0FF9003A8F09003E59003F0
:1012B300C6F09003E6E0FF9003B0F09003E69003DE
:1012C300BEF09003E7E0FF9003B8F09003E79003CC
:1012D300B6F09003E8E0FF9003C0F09003E89003BA
:1012E300AEF09003E9E0FF9003C8F09003E99003A8
:1012F300A6F09003EAE0FF9003D0F09003EA900396
:101303009EF0229005B4EBF0A3EAF0A3E9F0900578
:10131300B4E0FBA3E0FAA3E0F9E41208C290057E6F
:10132300E0FF702D9005B4E0FBA3E0FAA3E0F975AC
:101333008201758300E41208D49005B4E0FBA3E0B6
:10134300FAA3E0F9758202758300E41208D4021748
:101353002190057EE0FF6401600302153C9005B413
:10136300E0FBA3E0FAA3E0F92401F9EA3400FA125E
:101373000849FF547FFF1208C29005B4E0FBA3E0C5
:10138300FAA3E0F92401F9EA3400FA120849FF54F8
:10139300BFFF1208C290057DE0FFB4051E9005B49F
:1013A300E0FBA3E0FAA3E0F92401F9EA3400FA121E
:1013B3000849FF4420FF1208C2801C9005B4E0FBDB
:1013C300A3E0FAA3E0F92401F9EA3400FA12084988
:1013D300FF54DFFF1208C290057DE0FFB4061E90A4
:1013E30005B4E0FBA3E0FAA3E0F92401F9EA340031
:1013F300FA120849FF4410FF1208C2801C9005B47A
:10140300E0FBA3E0FAA3E0F92401F9EA3400FA12BD
:101413000849FF54EFFF1208C290057DE0FFB403B3
:101423001E9005B4E0FBA3E0FAA3E0F92401F9EA76
:101433003400FA120849FF4408FF1208C2801C90C6
:1014430005B4E0FBA3E0FAA3E0F92401F9EA3400D0
:10145300FA120849FF54F7FF1208C290057DE0FF16
:10146300B4041E9005B4E0FBA3E0FAA3E0F9240161
:10147300F9EA3400FA120849FF4404FF1208C28053
:101483001C9005B4E0FBA3E0FAA3E0F92401F9EA18
:101493003400FA120849FF54FBFF1208C290057D7D
:1014A300E0FFB4021E9005B4E0FBA3E0FAA3E0F969
:1014B3002401F9EA3400FA120849FF4402FF120832
:1014C300C2801C9005B4E0FBA3E0FAA3E0F9240179
:1014D300F9EA3400FA120849FF54FDFF1208C290DA
:1014E300057DE0FFB4011E9005B4E0FBA3E0FAA381
:1014F300E0F92401F9EA3400FA120849FF4401FF34
:101503001208C2801C9005B4E0FBA3E0FAA3E0F943
:101513002401F9EA3400FA120849FF54FEFF1208C5
:10152300C29005B4E0FBA3E0FAA3E0F9758202756B
:101533008300E41208D402172190057EE0FF6402C1
:1015430060030217219005B4E0FBA3E0FAA3E0F9DE
:101553002402F9EA3400FA120849FF547FFF120803
:10156300C29005B4E0FBA3E0FAA3E0F92402F9EA90
:101573003400FA120849FF54BFFF1208C290057DD8
:10158300E0FFB4051E9005B4E0FBA3E0FAA3E0F985
:101593002402F9EA3400FA120849FF4420FF120832
:1015A300C2801C9005B4E0FBA3E0FAA3E0F9240297
:1015B300F9EA3400FA120849FF54DFFF1208C29017
:1015C300057DE0FFB4061E9005B4E0FBA3E0FAA39B
:1015D300E0F92402F9EA3400FA120849FF4410FF43
:1015E3001208C2801C9005B4E0FBA3E0FAA3E0F963
:1015F3002402F9EA3400FA120849FF54EFFF1208F3
:10160300C290057DE0FFB4031E9005B4E0FBA3E0A8
:10161300FAA3E0F92402F9EA3400FA120849FF4474
:1016230008FF1208C2801C9005B4E0FBA3E0FAA3F4
:10163300E0F92402F9EA3400FA120849FF54F7FFEB
:101643001208C290057DE0FFB4041E9005B4E0FBD0
:10165300A3E0FAA3E0F92402F9EA3400FA120849F4
:10166300FF4404FF1208C2801C9005B4E0FBA3E012
:10167300FAA3E0F92402F9EA3400FA120849FF5404
:10168300FBFF1208C290057DE0FFB4021E9005B473
:10169300E0FBA3E0FAA3E0F92402F9EA3400FA122A
:1016A3000849FF4402FF1208C2801C9005B4E0FB06
:1016B300A3E0FAA3E0F92402F9EA3400FA12084994
:1016C300FF54FDFF1208C290057DE0FFB4011E9098
:1016D30005B4E0FBA3E0FAA3E0F92402F9EA34003D
:1016E300FA120849FF4401FF1208C2801C9005B496
:1016F300E0FBA3E0FAA3E0F92402F9EA3400FA12CA
:101703000849FF54FEFF1208C29005B4E0FBA3E0B2
:10171300FAA3E0F9758201758300E41208D49005F9
:10172300B4E0FBA3E0FAA3E0F9758203758300E458
:101733001208D4900383E0FF701E9005B4E0FBA36E
:10174300E0FAA3E0F92403F9EA3400FA120849FFA6
:101753004480FF1208C2801C9005B4E0FBA3E0FAAA
:10176300A3E0F92403F9EA3400FA120849FF547F8D
:10177300FF1208C29005B4E0FBA3E0FAA3E0F975F9
:10178300820475830074041208D49005B4E0FBA3AB
:10179300E0FAA3E0F9758205758300E41208D4909A
:1017A30005B4E0FBA3E0FAA3E0F9758206758300B4
:1017B300E41208D49005B4E0FBA3E0FAA3E0F975C2
:1017C3008207758300744A1208D49005B4E0FBA322
:1017D300E0FAA3E0F9758208758300E41208D49057
:1017E30005B4E0FBA3E0FAA3E0F975820975830071
:1017F300E41208D49005B4E0FBA3E0FAA3E0F97582
:10180300820A758300E41208D49005B4E0FBA3E0D8
:10181300FAA3E0F975820B758300E41208D49005EE
:10182300B4E0FBA3E0FAA3E0F975820C75830074BE
:10183300121208D422E4F50AF516F517F518F5196E
:10184300F51A90586B20030593F5138006E493244F
:1018530002F51375F002E50AA420020A243AF58280
:10186300E5F0340480082446F582E5F03404F5837A
:10187300E0F50EA3E0F50F75F002E50AA42458F590
:1018830082E5F03458F583E493FE740193FFE50F8A
:10189300450E7003021A70C3E50E940B4003021A3F
:1018A30070E50F2FFFE50E3EFE90586CE493FDC3E9
:1018B300137C002FF50DEC3EF50CAF0A12533DECF3
:1018C3004D4E4F601290586DE493FFC3E50D9FF5A5
:1018D3000DE50C9400F50CAF13A807740108800202
:1018E300C333D8FC14F50B3002030219AF74762509
:1018F3000AF582E43404F583E025E0F07476250AE2
:10190300F582E43404F583E0550BF07470250AF591
:1019130082E43404F583E025E0F07470250AF5824F
:10192300E43404F583E0550BF075F002E50AA424D2
:10193300FEF582E5F03403F583E0FEA3E0FFC395F3
:101943000DEE950C403B90587AE4936023200320DE
:10195300EF950FF515EE950EF514D3E5159517E5EF
:10196300149516401A851416851517850A18800FC5
:101973007476250AF582E43404F583E04401F00526
:101983001975F002E50AA4240AF582E5F03404F59A
:1019930083E0FEA3E0C3950DEE950C5003021A708D
:1019A3007470250AF582E43404021A68747C250AEB
:1019B300F582E43404F583E025E0F0747C250AF530
:1019C30082E43404F583E0550BF07482250AF58232
:1019D300E43404F583E025E0F07482250AF582E41B
:1019E3003404F583E0550BF075F002E50AA424FEF8
:1019F300F582E5F03403F583E0FEA3E0FFC3950D24
:101A0300EE950C403B90587AE4936023200320EF3B
:101A1300950FF515EE950EF514D3E5159517E51409
:101A23009516401A851416851517850A18800F74A4
:101A330082250AF582E43404F583E04401F00519B4
:101A430075F002E50AA4240AF582E5F03404F5836F
:101A5300E0FEA3E0C3950DEE950C4011747C250ABE
:101A6300F582E43404F583E04401F0051A90586AE2
:101A7300E493FF050AE50AC39F50030218569058E2
:101A83007AE493604020033D90586FE493FFE51997
:101A9300D39F5005E51A9F400BE4F518EF0490051A
:101AA30017F08021E519601D20020B74762518F5C7
:101AB30082E43404800974822518F582E43404F541
:101AC30083E04401F0E4F50AE4F509AF0A12533D5B
:101AD300EC4D4E4F6003750901E4F511F512747076
:101AE300250AF582E43404F583E0FF7476250AF5CC
:101AF30082E43404F583E0FEE4F50BE50BC39513B0
:101B03005018EF30E0020511EFC313FFEE30E0028F
:101B13000512EEC313FE050B80E1747C250AF582E2
:101B2300E43404F583E0FF7482250AF582E4340487
:101B3300F583E0FEE4F50BE50BC395135018EF3086
:101B4300E0020511EFC313FFEE30E0020512EEC30E
:101B530013FE050B80E1E4F510E5132513FFE512F1
:101B6300C39F40028034300346E51304FFE512C3EC
:101B73009F40028025E5132513FFE511C39F400213
:101B83008018E5122511FFE433FEE513251304FD48
:101B9300C3EF9D7480F86E984015AF0A12506F75AD
:101BA3001001745E250AF582E43404F583E4F0E55C
:101BB300107062E509605E200302801AE5122511A8
:101BC300FFE433FEE5132513C39401FDC3EF9D74B6
:101BD30080F86E98500E745E250AF582E43404F59D
:101BE30083E004F0E5132513C39401FF745E250A13
:101BF300F582E43404F583E0C39F4014745E250A40
:101C0300F582E43404F583E4F0AF0A12512480052D
:101C1300AF0A12506F90586AE493FF050AE50AC3AE
:101C23009F5003021ACB22900383E0FF64016003F9
:101C3300021F739004C3E0FF6003021F739003EB62
:101C4300E0FF547FFF900388F09003ECE0FF547FA4
:101C5300FF900387F09003EDE0FF547FFF9003862E
:101C6300F09003EEE0FF547FFF900385F09003F3C1
:101C7300E0FF6009900387E0FF4480FFF09003F2E8
:101C8300E0FF6009900386E0FF4480FFF09003F8D3
:101C9300E0FF6009900385E0FF4480FFF09003F4C8
:101CA300E0FFB4030D7B017D017F027E0012451826
:101CB30080259003F4E0FFB4010D7B007D017F02DA
:101CC3007E0012451880109003F4E0FF70097B0139
:101CD300FD7F02FE1245189003F5E0FFB4030D7B70
:101CE300017D017F037E0012451880259003F5E0F6
:101CF300FFB4010D7B007D017F037E001245188038
:101D0300109003F5E0FF70097B01FD7F03FE124590
:101D1300189003F6E0FFB4030D7B017D017F017E84
:101D23000012451880259003F6E0FFB4010D7B00F7
:101D33007D017F017E0012451880109003F6E0FFBD
:101D430070097B01FD7F01FE1245189003F7E0FF48
:101D5300B4030D7B017D017F007E001245188024B2
:101D63009003F7E0FFB4010D7B007D017F007E004F
:101D7300124518800F9003F7E0FF70087B01FDFF09
:101D8300FE1245189003F0E0FFB4030D7B017D01C3
:101D93007F047E0012451880259003F0E0FFB40114
:101DA3000D7B007D017F047E001245188010900397
:101DB300F0E0FF70097B01FD7F04FE1245189003DC
:101DC300F1E0FFB4030D7B017D017F057E00124529
:101DD3001880259003F1E0FFB4010D7B007D017FA6
:101DE300057E0012451880109003F1E0FF70097B17
:101DF30001FD7F05FE1245189003EFE0FF7020E020
:101E030090033BE0FE6F7003021F559003EFE090D9
:101E1300033BF090038BE4F09003DDF0021F559039
:101E230003EFE0FFB4012090033BE0FE6F70030279
:101E33001F559003EFE090033BF090038B7401F088
:101E43009003DDF0021F559003EFE0FFB4022190F1
:101E5300033BE0FE6F7003021F559003EFE0900316
:101E63003BF090038B7401F09003DDE4F0021F5507
:101E73009003EFE0FF6403706DE090033BE0FE6FBF
:101E8300601C9003EFE090033BF09003FB7401F0C0
:101E93001256A190038B7403F09003DDE4F09003DA
:101EA300FBE0FFB4011C90038AE0FFB40114125657
:101EB300AD9003FB7402F090038BE4F09003DD74A8
:101EC30003F09003FBE0FF64026003021F559003DD
:101ED300DCE0FF6401707B9003FBF090038BF090D8
:101EE30003DD04F0806C9003EFE0FFB4041D900366
:101EF3003BE0FE6F605C9003EFE090033BF09003E8
:101F03008BE4F09003DD7403F080479003EFE0FF70
:101F1300B4051D90033BE0FE6F60379003EFE09044
:101F2300033BF090038B7403F09003DDE4F0802215
:101F33009003EFE0FFB4061A90033BE0FE6F6012DC
:101F43009003EFE090033BF090038B7402F0900357
:101F5300DDF09003F9E0FFB40304D2B58002C2B50B
:101F63009003FAE0FFB40304D2B78071C2B7806D67
:101F730090038BE4F09003DDF07B01FDFFFE12453F
:101F8300187B017D007F017E001245187B017D00D7
:101F93007F027E001245187B017D007F037E0012C5
:101FA30045187B017D007F047E001245187B017D6F
:101FB300007F057E00124518900388E4F09058874F
:101FC30093FF900387F090587DE493FF900386F08E
:101FD30090587DE493900385F0C2B5C2B71200E632
:101FE300120D4A22900547EBF0A3EAF0A3E9F09023
:101FF3000547E0FBA3E0FAA3E0F9758211758300BE
:10200300E41208D4900547E0FBA3E0FAA3E0F974D7
:10201300AA1208C2900547E0FBA3E0FAA3E0F97512
:10202300820175830074061208D4900547E0FBA370
:10203300E0FAA3E0F975820275830074111208D4E3
:10204300900547E0FBA3E0FAA3E0F97582037583EB
:102053000074011208D490054AE0FBA3E0FAA3E060
:10206300F9120849FF900547E0FBA3E0FAA3E0F962
:10207300758204758300EF1208D490054AE0FBA330
:10208300E0FAA3E0F9758201758300120862FF90FC
:102093000547E0FBA3E0FAA3E0F975820575830029
:1020A300EF1208D490054AE0FBA3E0FAA3E0F97528
:1020B3008202758300120862FF900547E0FBA3E0EC
:1020C300FAA3E0F9758206758300EF1208D4900530
:1020D3004AE0FBA3E0FAA3E0F975820375830012DB
:1020E3000862FF900547E0FBA3E0FAA3E0F97582DD
:1020F30007758300EF1208D490054AE0FBA3E0FACA
:10210300A3E0F9758204758300120862FF90054706
:10211300E0FBA3E0FAA3E0F9758208758300EF12F0
:1021230008D490054AE0FBA3E0FAA3E0F975820521
:10213300758300120862FF900547E0FBA3E0FAA352
:10214300E0F9758209758300EF1208D490054AE01F
:10215300FBA3E0FAA3E0F975820675830012086217
:10216300FF900547E0FBA3E0FAA3E0F975820A7547
:102173008300EF1208D490054AE0FBA3E0FAA3E042
:10218300F9758207758300120862FF900547E0FB2B
:10219300A3E0FAA3E0F975820B758300EF1208D46C
:1021A30090054AE0FBA3E0FAA3E0F9758208758382
:1021B30000120862FF900547E0FBA3E0FAA3E0F9F1
:1021C30075820C758300EF1208D490054AE0FBA3D7
:1021D300E0FAA3E0F9758209758300120862FF90A3
:1021E3000547E0FBA3E0FAA3E0F975820D758300D0
:1021F300EF1208D490054AE0FBA3E0FAA3E0F975D7
:10220300820A758300120862FF900547E0FBA3E092
:10221300FAA3E0F975820E758300EF1208D49005D6
:102223004AE0FBA3E0FAA3E0F975820B7583001281
:102233000862FF900547E0FBA3E0FAA3E0F975828B
:102243000F758300EF1208D490054AE0FBA3E0FA70
:10225300A3E0F975820C758300120862FF900547AD
:10226300E0FBA3E0FAA3E0F9758210758300EF1297
:1022730008D490054DE4F090054DE0FFC394115050
:1022830032900547E0FBA3E0FAA3E0F990054DE0A7
:10229300F582758300120862FF900547E0A3E0A36F
:1022A300E0758211758300EF12088F90054DE004ED
:1022B300F080C4900547E0FBA3E0FAA3E0F9758240
:1022C30011758300120862FFF4FF900547E0A3E055
:1022D300A3E0758211758300EF1208D4227B017A83
:1022E3000479B2C003C002C0017A0479A2A801AC88
:1022F300027D01D001D002D0037E007F10120C3189
:10230300EF700C9004C2E0FF640160030225D790D4
:1023130004C2E0FFB40102E4F07B017A0479A2C0B5
:1023230003C002C0017A0479B2A801AC027D01D0D6
:1023330001D002D0037E007F101208239004B2E084
:10234300FF30E7089004C37401F080059004C3E4F0
:10235300F09004B2E0FF30E5089003F97403F080D5
:10236300059003F9E4F09004B2E0FF30E408900331
:10237300FA7403F080059003FAE4F09004B3E0FFED
:102383009003EBF09004B4E0FF9003ECF09004B5FD
:10239300E0FF9003EDF09004B6E0FF9003EEF090C1
:1023A30004B7E0FF5403FFB403089003F87403F089
:1023B30080219004B7E0FF5403FFB401089003F8B1
:1023C3007401F0800E9004B7E0FF5403FF70049093
:1023D30003F8F09004B8E0FF54C0FFC41313540390
:1023E300FFB403089003F27403F0802D9004B8E067
:1023F300FF54C0FFC413135403FFB401089003F246
:102403007401F080149004B8E0FF54C0FFC41313A8
:102413005403FF70049003F2F09004B8E0FF5430CB
:10242300FFC4540FFFB403089003F37403F080292F
:102433009004B8E0FF5430FFC4540FFFB401089078
:1024430003F37401F080129004B8E0FF5430FFC42A
:10245300540FFF70049003F3F09004B9E0FF90036E
:10246300EFF09004BAE0FF54C0FFC413135403FF0A
:10247300B403089003F47403F0802D9004BAE0FFD2
:1024830054C0FFC413135403FFB401089003F4743E
:1024930001F080149004BAE0FF54C0FFC413135436
:1024A30003FF70049003F4F09004BAE0FF5430FF8C
:1024B300C4540FFFB403089003F57403F08029900C
:1024C30004BAE0FF5430FFC4540FFFB40108900373
:1024D300F57401F080129004BAE0FF5430FFC45445
:1024E3000FFF70049003F5F09004BAE0FF540CFF63
:1024F3001313543FFFB403089003F67403F0802BC7
:102503009004BAE0FF540CFF1313543FFFB40108C7
:102513009003F67401F080139004BAE0FF540CFFAB
:102523001313543FFF70049003F6F09004BAE0FFD6
:102533005403FFB403089003F77403F0802190045D
:10254300BAE0FF5403FFB401089003F77401F0806D
:102553000E9004BAE0FF5403FF70049003F7F09069
:1025630004BBE0FF540CFF1313543FFFB403089064
:1025730003F07403F0802B9004BBE0FF540CFF13B3
:1025830013543FFFB401089003F07401F0801390DB
:1025930004BBE0FF540CFF1313543FFF700490037C
:1025A300F0F09004BBE0FF5403FFB403079003F182
:1025B3007403F0229004BBE0FF5403FFB4010790BF
:1025C30003F17401F0229004BBE0FF5403FF700495
:1025D3009003F1F0228B0A8A0B890CE4F50D9058D5
:1025E3007793FF7E007007F5107511408013EF6439
:1025F300014E7007F5107511608006751000751196
:102603008075F002E50DA424FEF582E5F03403F5B0
:1026130083E0F50EA3E0F50FE47F01FEFDFCA90DB9
:10262300A8011209AB90050DE0F8A3E0F9A3E0FAC5
:10263300A3E05FFFEA5EFEE95DFDE85CFCE4FBFA14
:10264300F9F8C312099A600302286BD3E50F9400CB
:10265300E50E94085003022746E4250FFFE50E34E8
:10266300F8FED3EF9511EE95105003022763AB0AE2
:10267300AA0BA90C850D82758300120862FF745E94
:10268300250DF582E43404F583E0D39F4039746467
:10269300250DF582E43404F583EFF0850D8275830F
:1026A30000120862FF745E250DF582E43404F5839D
:1026B300E0C39FFFE49400C313EF13850D8275837A
:1026C3000012088F02281220022B746A250DF5824E
:1026D300E43404F583E004F0540FD3940574809438
:1026E300805003022812746A250DF582E43404F540
:1026F300837405804A746A250DF582E43404F583F6
:10270300E02410F0746A250DF582E43404F583E0C7
:10271300FF54F0C4540FD394057480948050030283
:102723002812746A250DF582E43404F583EF540FFF
:10273300F0746A250DF582E43404F583E04450F027
:102743000227DDC3E50E940840030227DDC3E495A9
:102753000FFF7408950EFED3EF9511EE95105002FE
:102763008078AB0AAA0BA90C850D82758300120829
:1027730062FF7464250DF582E43404F583E0FEEF13
:10278300D39E5003022812745E250DF582E43404AF
:10279300F583EFF0E9250DF9E43AFAC003C002C06E
:1027A30001120849FDAA0BA90C850D82758300123D
:1027B3000862FF7464250DF582E43404F583E0FBBD
:1027C300C3EF9BFFE49400C313EF13FFC3ED9FD04C
:1027D30001D002D0031208C2803590050DE0F8A3A2
:1027E300E0F9A3E0FAA3E0FBC000C001E47F01FE2F
:1027F300FDFCA90DA8011209ABD001D000EB4FFFDE
:10280300EA4EFEE94DFDE84CFC90050D1209DE741D
:1028130064250DF582E43404F583E02401FFE433F9
:10282300FE745E250DF582E43404F583E0D39FE462
:102833009E503590050DE0F8A3E0F9A3E0FAA3E07C
:10284300FBC000C001E47F01FEFDFCA90DA801123D
:1028530009ABD001D000EB4FFFEA4EFEE94DFDE896
:102863004CFC90050D1209DE90586AE493F9050DAE
:10287300E50DC3995003022604E47F01FEFDFCA885
:10288300011209AB8F158E148D138C1290050DE078
:10289300FCA3E0FDA3E0FEA3E02401FFE43EFEE48D
:1028A3003DFDE43CFCAB15AA14A913A812C31209FD
:1028B3009A7F0070027F012290054EEBF0A3EAF0AD
:1028C300A3E9F090054EE0FBA3E0FAA3E0F97582DB
:1028D30004758300120862FF900551E0FBA3E0FA40
:1028E300A3E0F9EF1208C290054EE0FBA3E0FAA3C0
:1028F300E0F9758205758300120862FF900551E0C7
:10290300FBA3E0FAA3E0F9758201758300EF1208D7
:10291300D490054EE0FBA3E0FAA3E0F975820675B7
:102923008300120862FF900551E0FBA3E0FAA3E0E5
:10293300F9758202758300EF1208D490054EE0FB0F
:10294300A3E0FAA3E0F9758207758300120862FF1A
:10295300900551E0FBA3E0FAA3E0F97582037583C8
:1029630000EF1208D490054EE0FBA3E0FAA3E0F9D0
:10297300758208758300120862FF900551E0FBA37E
:10298300E0FAA3E0F9758204758300EF1208D4908E
:10299300054EE0FBA3E0FAA3E0F975820975830015
:1029A300120862FF900551E0FBA3E0FAA3E0F9757A
:1029B3008205758300EF1208D490054EE0FBA3E077
:1029C300FAA3E0F975820A758300120862FF900585
:1029D30051E0FBA3E0FAA3E0F9758206758300EFEB
:1029E3001208D490054EE0FBA3E0FAA3E0F9758248
:1029F3000B758300120862FF900551E0FBA3E0FA18
:102A0300A3E0F9758207758300EF1208D490054E91
:102A1300E0FBA3E0FAA3E0F975820C7583001208CA
:102A230062FF900551E0FBA3E0FAA3E0F975820889
:102A3300758300EF1208D490054EE0FBA3E0FAA3E0
:102A4300E0F975820D758300120862FF900551E06D
:102A5300FBA3E0FAA3E0F9758209758300EF12087E
:102A6300D490054EE0FBA3E0FAA3E0F975820E755E
:102A73008300120862FF900551E0FBA3E0FAA3E094
:102A8300F975820A758300EF1208D490054EE0FBB6
:102A9300A3E0FAA3E0F975820F758300120862FFC1
:102AA300900551E0FBA3E0FAA3E0F975820B75836F
:102AB30000EF1208D490054EE0FBA3E0FAA3E0F97F
:102AC300758210758300120862FF900551E0FBA325
:102AD300E0FAA3E0F975820C758300EF1208D49035
:102AE300054EE0FBA3E0FAA3E0F9758211758300BC
:102AF300120862FF900551E0FBA3E0FAA3E0F97529
:102B0300820D758300EF1208D490054EE0FBA3E01D
:102B1300FAA3E0F9758212758300120862FF90052B
:102B230051E0FBA3E0FAA3E0F975820E758300EF91
:102B33001208D490054EE0FBA3E0FAA3E0F97582F6
:102B430013758300120862FF900551E0FBA3E0FABE
:102B5300A3E0F975820F758300EF1208D422E4F520
:102B63000975F002E509A4240AF582E5F03404F5B9
:102B730083E0FEA3E0FF75F002E509A42416F582C5
:102B8300E5F03404F583E0FCA3E0FD75F002E5090C
:102B9300A42422F582E5F03404F583E0F514A3E0E0
:102BA300F51575F002E509A4242EF582E5F0340449
:102BB300F583E0F516A3E0F51790586CE493F92D2F
:102BC300FDE43CFCD3EF9DEE9C501C20031975F0F3
:102BD30002E509A424FEF582E5F03403F583E0F56C
:102BE3000CA3E0F50D80048E0C8F0D2002168514C6
:102BF3000E85150F75F002E509A4243AF582E5F078
:102C03003404801485160E85170F75F002E509A4A8
:102C13002446F582E5F03404F583E0F510A3E0F5EE
:102C230011C3E50D950FE50C950E400EE50D950FBF
:102C3300F50BE50C950EF50A800DC3E50F950DF523
:102C43000BE50E950CF50AC3E510940B400890585C
:102C53006CE493FF800CE5114510701190586C9350
:102C6300FFC313FEEF2EF5127513068015E9C31388
:102C7300F51290586EE49330030625E0F5138002B5
:102C8300F51375F002E509A420020A2422F582E572
:102C9300F034048008242EF582E5F03404F583E54E
:102CA3000CF0A3E50DF0AF0912533DEC4D4E4F7000
:102CB3005BD3E50B9512E50A940050507464250923
:102CC300F582E43404F583E004F0C39513404A74B9
:102CD300642509F582E43404F583E4F075F002E534
:102CE30009A4243AF582E5F03404F583E514F0A34E
:102CF300E515F075F002E509A42446F582E5F03404
:102D030004F583E516F0A3E517F0800D7464250937
:102D1300F582E43404F583E4F090586AE493FF0504
:102D230009E509C39F5003022B6422900380E0044A
:102D3300F0D2C4D2C1D2C6D2C3D2C0D2C7D2C2D2B9
:102D4300C553A4EF53A4FD53A4BF53A4F753A4FE48
:102D530053A47F53A4FB53A4DFD280D281D282D267
:102D630083E0FF6401705B900385E0FF30E1034380
:102D7300A410900385E0FF30E20343A4029003858F
:102D8300E0FF30E00343A440900385E0FF30E60317
:102D930043A408900385E0FF30E30343A4019003B9
:102DA30085E0FF30E50343A480900385E0FF30E432
:102DB3000343A404900385E0FF30E70343A420C248
:102DC3008022900380E0FF6402705B900386E0FF43
:102DD30030E10343A410900386E0FF30E20343A4F1
:102DE30002900386E0FF30E00343A440900386E0B3
:102DF300FF30E60343A408900386E0FF30E3034378
:102E0300A401900386E0FF30E50343A4809003868A
:102E1300E0FF30E40343A404900386E0FF30E703BC
:102E230043A420C28122900380E0FF6403705B907F
:102E33000387E0FF30E10343A410900387E0FF30F2
:102E4300E20343A402900387E0FF30E00343A4407E
:102E5300900387E0FF30E60343A408900387E0FF75
:102E630030E30343A401900387E0FF30E50343A469
:102E730080900387E0FF30E40343A404900387E0DA
:102E8300FF30E70343A420C28222900380E0FF6463
:102E930004705F900388E0FF30E10343A4109003C4
:102EA30088E0FF30E20343A402900388E0FF30E0B0
:102EB3000343A440900388E0FF30E60343A4089053
:102EC3000388E0FF30E30343A401900388E0FF306D
:102ED300E50343A480900388E0FF30E40343A404A4
:102EE300900388E0FF30E70343A420C2839003806C
:102EF300E4F022900527EFF0A3EBF0A3EAF0A3E9B7
:102F0300F0900527E0FFC454F0241BF582E434005D
:102F1300F583E0FF60037F0022900527E0FF7E102A
:102F23008EF0A4FFAEF074162FF974003EFA7B0105
:102F3300900530EBF0A3EAF0A3E9F0900530E0FB55
:102F4300A3E0FAA3E0F9758208758300120862FF13
:102F530090052BE0FED39F5020900530E0A3E0A323
:102F6300E075820A758300120A1BAE02AF01EF4EB1
:102F7300600790052BE0FF70037F0022900530E08F
:102F8300FBA3E0FAA3E0F975820A758300120A1B1A
:102F930090052DEBF0A3EAF0A3E9F090052BE0FFF9
:102FA300900530E0FBA3E0FAA3E0F9758202758394
:102FB30000EF1208D490052BE0FFD39400403A9021
:102FC3000528E0FBA3E0FAA3E0F9120849FF900506
:102FD3002DE0FBA3E0FAA3E0F9EF1208C290052E5F
:102FE300E475F00112094B900529E475F00112090B
:102FF3004B90052BE014F080BC900527E0FFC454F0
:10300300F0241BF582E43400F5837401F09005305D
:10301300E0FBA3E0FAA3E0F9758201758300740174
:103023001208D490052CE592F0900527E0FF120AD0
:103033004B304100306001307F020000309C7592BC
:1030430000900530E0FBA3E0FAA3E0F975820A756E
:103053008300120A1B120849FFF599803C75920000
:10306300900530E0FBA3E0FAA3E0F975820A7583CB
:1030730000120A1B120849FFF5EB801D759201909F
:103083000530E0FBA3E0FAA3E0F975820A7583003B
:10309300120A1B120849FFF5E590052CE0FFF59293
:1030A3007F0122410518004104C2014104C30056B7
:1030B30004C7000000000000000000000000000042
:1030C30000000000000000005204DD0000000000CA
:1030D300000000000000000000000000004104FBAD
:1030E300004104C5004104C6014104C4FF4104FC7E
:1030F300FF4104EFFF6040039B000000000000005D
:1031030000000000000000000000000000000000BC
:1031130000000000000000000000000000000000AC
:10312300000000000000000000000000000000009C
:1031330000000000000000000041038B004103DD9C
:103143000041038A004103DC004103FB004F038C71
:103153000000000000000000000000000000004D1F
:1031630003DE00000000000000000000000000413A
:103173000383014103DB00410384004103890041D0
:10318300038200410381004203FC000041033B0032
:103193006040033C0000000000000000000000004D
:1031A300000000000000000000000000000000001C
:1031B300000000000000000000000000000000000C
:1031C30000000000000000000000000000000000FC
:1031D3000000000044037C00000000410380004124
:1031E30005390044051100000000C1044105150024
:1031F300410517004105160044050D00000000417C
:10320300050C00C102C106C103C105C1014104FD92
:10321300004104FE004104FF004105000044050194
:1032230000000000420505000041050700410508B4
:1032330000C100420509000041050B0000E4F50947
:103243002001030233553002030232E67B017A0484
:1032530079521225D8EF70030233D2E4F50990585E
:103263006AE493FFE509C39F506C905877E493FF9A
:103273007E0070028006EF64014E702C7464250991
:10328300F582E43404F5837420F074582509F5823B
:10329300E43404F58374FEF0745E2509F582E434A6
:1032A30004F58374FEF0802A74642509F582E434FE
:1032B30004F5837420F074582509F582E43404F589
:1032C30083747FF0745E2509F582E43404F5837416
:1032D3007FF00509808890050D1209EA00000000BF
:1032E300D202227B017A0479581225D8EF700302A7
:1032F30033D2C202D205E4F50990586AE493FFE59C
:1033030009C39F40030233D2745E2509F582E43476
:1033130004F583E4F074642509F582E43404F58349
:10332300E4F075F002E509A4243AF582E5F03404EB
:10333300F583740BF0A3E4F075F002E509A42446C9
:10334300F582E5F03404F583740BF0A3E4F005098A
:1033530080A7D201E4F50990586AE493FFE509C315
:103363009F506C905877E493FF7E0070028006EFC5
:1033730064014E702C74642509F582E43404F583EA
:103383007420F074522509F582E43404F58374FE45
:10339300F0745E2509F582E43404F58374FEF0804D
:1033A3002A74642509F582E43404F5837420F074E7
:1033B300522509F582E43404F583747FF0745E25A5
:1033C30009F582E43404F583747FF00509808822CB
:1033D300E4F50CF50BF50AF509FBFAF50D75F002AA
:1033E300EBA4240AF582E5F03404F583E0F50EA39B
:1033F300E0F50F75F002EBA42416F582E5F0340432
:10340300F583E0FEA3E0FF90586CE493FD7C00EFAE
:103413002DFFEC3ECF2402CF3400FED3E50F9FE512
:103423000E9E40247E007401A803088005C333CE9A
:1034330033CED8F9FFE50C4FF50CE50B4EF50BE554
:103443000AF50AE509F5090A90586AE493FF0BEBBC
:10345300C39F4089EF132401FFE433FEC3EA9FEEC9
:103463006480F8748098401C750D01E4900500F0A9
:103473009004FFE004F0940274809480401BE4F015
:10348300D2038015900500E004F0C3940274809485
:10349300804006E4F09004FFF0900501E0FCA3E017
:1034A300FDA3E0FEA3E0550CFFEE550BFEED550A20
:1034B300FDEC5509FCE4FBFAF9F8C312099A601D07
:1034C300750D01E49004FEF09004FDE004F0C39454
:1034D3000274809480401BE4F0D20380159004FEB4
:1034E300E004F0C39402748094804006E4F09004F6
:1034F300FDF0AF0CAE0BAD0AAC099005011209DE6D
:10350300300351E50D704DFFFEFDFC900511E0F811
:10351300A3E0F9A3E0FAA3E0FBC312099A701690A3
:10352300050575F00112094BFEC3E5F09464EE94B2
:103533000040288015900505E475F00112094BFE43
:10354300C3E5F0942CEE94014011E4900505F0A33B
:10355300F0C20322E4900505F0A3F022900665E48F
:10356300F09004FBE0FFB416099004C7E0FF644049
:1035730060037F00227B017A0479C77D15124E1404
:10358300900665EFF09004DCE0FF900665E0FE6FC7
:1035930060030236DC9004CAE0FF547FFF9003EB24
:1035A300F09004CBE0FF547FFF9003ECF09004CC49
:1035B300E0FF547FFF9003EDF09004CBE0FF30E792
:1035C300089003F37403F080059003F3E4F0900490
:1035D300CCE0FF30E7089003F27403F0800590031A
:1035E300F2E4F09004CDE0FF30E0089003F77403B9
:1035F300F080059003F7E4F09004CDE0FF30E1089C
:103603009003F67403F080059003F6E4F09004CD84
:10361300E0FF30E2089003F47403F080059003F4B4
:10362300E4F09004CDE0FF30E3089003F57403F079
:1036330080059003F5E4F09004CDE0FF30E40890BA
:1036430003F17403F080059003F1E4F09004CDE0FE
:10365300FF30E5089003F07403F080059003F0E475
:10366300F09004CEE0FF30E00890038B7401F0800B
:103673000590038BE4F09004CEE0FF30E108900363
:10368300DD7401F080059003DDE4F09004D7E0FFE2
:10369300547FFF9003EEF09004D7E0FF30E70890EB
:1036A30003F87403F080059003F8E4F09004D9E084
:1036B300FF30E0089003F97403F080059003F9E408
:1036C300F09004D9E0FF30E1089003FA7403F0802E
:1036D300059003FAE4F07F01227F002290F6D0E008
:1036E30054FEF0A3E0548FF0C083C082E0FE900547
:1036F30016E090586493FDEE4DD082D083F090F69F
:10370300D2E054C0F0C083C082E0FE900516E09082
:10371300585293543FFDEE4DD082D083F020025592
:10372300900516E0246AF582E43404F583E0540F2F
:10373300FFD394057480948040027F0590F6D7E010
:1037430054F8F0C083C082E0FEEF90588893FDEEFA
:103753004DD082D083F0900516E02452F582E434F4
:1037630004F583E090F6D4F0900516E02452F58238
:10377300E434048056900516E0246AF582E43404A8
:10378300F583E054F0C4540FFFD394057480948000
:1037930040027F0590F6D7E054F8F0C083C082E082
:1037A300FEEF90588893FDEE4DD082D083F09005C4
:1037B30016E02458F582E43404F583E090F6D4F05F
:1037C300900516E02458F582E43404F583E0FE9076
:1037D3005877E4938EF0A490F6D5F090F6D97480E0
:1037E300F090F6D0E04401F022E4FFFE9058759388
:1037F30070030238F33003030238F375F002EEA4CA
:10380300243AF582E5F03404F583E0FCA3E0D39495
:1038130000EC940B5006C3EC94055008900507E0A8
:1038230004F07F0175F002EEA42446F582E5F0343E
:1038330004F583E0FCA3E0D39400EC940B5006C39F
:10384300EC94055008900507E004F07F0190586A56
:10385300E493FD0EEEC39D40A2EF7005900507F0C3
:1038630022900507E0C39464748094805003023867
:10387300F3905876E493FFF4600E900508E004F0AB
:10388300D39F4004E4F0D200200065E4900507F0E4
:10389300C20590050D1209EA00000000C202C20130
:1038A300E4FE90586AE493FFEEC39F503975F0022B
:1038B300EEA4243AF582E5F03404F583740BF0A307
:1038C300E4F075F002EEA42446F582E5F03404F545
:1038D30083740BF0A3E4F0746A2EF582E43404F5E8
:1038E30083E4F00E80BC9005111209EA0000000089
:1038F3002290053EEFF0A3EBF0A3EAF0A3E9F090EA
:10390300053EE0FFC454F02416F582E43400F58349
:10391300E0FF7002FF2290053EE0FFC454F024193B
:10392300F582E43400F583E0FF900542E0FEEFD337
:103933009E4004E0FF801390053EE0FFC454F02452
:1039430019F582E43400F583E0FF900543EFF0902E
:10395300053EE0FFC454F02423F582E43400F583EC
:10396300E0FBA3E0FAA3E0F9900544EBF0A3EAF04F
:10397300A3E9F0900543E0FF6038A3E0FBA3E0FA7E
:10398300A3E0F9120849FF90053FE0FBA3E0FAA387
:10399300E0F9EF1208C2900540E475F00112094BFB
:1039A300900545E475F00112094B900543E014F0CE
:1039B30080C190053EE0FFC454F02419F582E4343D
:1039C30000F583E0FF900542E0FEEFD39E4004E064
:1039D300FF801390053EE0FFC454F02419F582E400
:1039E3003400F583E0FF2290066DE4F0900536E0A5
:1039F300FF900535F01247ED90053AE0FCA3E0FD9A
:103A0300A3E0FEA3E0FF120A713A5C000000013A52
:103A13004C000000023A54000000043A4400000045
:103A2300083A3C000000103A340000002000003A3D
:103A33006490066D7401F0802D90066D7402F08021
:103A43002590066D7403F0801D90066D7404F0805C
:103A53001590066D7405F0800D90066D7406F08068
:103A63000590066DE4F090066DE0FF900536F0904A
:103A7300053AE0FCA3E0FDA3E0FEA3E0FF120A7118
:103A83003ACE000000013AC0000000023AC700002D
:103A930000043AB9000000083AB2000000103AAB43
:103AA3000000002000003AD59005397401F02290FF
:103AB30005397402F0229005397404F02290053917
:103AC3007408F0229005397410F02290053974209F
:103AD300F022900539E4F0227B017A03797CC0035C
:103AE300C002C0017A037985A801AC027D01D0012F
:103AF300D002D0037E007F04120C31EF60237B01E0
:103B03007A037985C003C002C0017A03797CA801D6
:103B1300AC027D01D001D002D0037E007F041208E5
:103B2300237B017A03793CC003C002C0017A037985
:103B33009BA801AC027D01D001D002D0037E007F9F
:103B430040120C31EF60787B017A03799BC003C08C
:103B530002C0017A03793CA801AC027D01D001D0F7
:103B630002D0037E007F401208237F787E00125527
:103B7300B27F207E001255B21254F07FC012503033
:103B830090061EE4F0A3F090061EE0FEA3E0FFC340
:103B93009440EE9400502590061EE0A3E0749B2F02
:103BA300F58274033EF583E0FF12503090061FE068
:103BB30004F0700690061EE004F080CB12550D222F
:103BC3000526E52670020525E52630E003023CA420
:103BD30005277E005403FF6003023CA40528AE259D
:103BE300AF26FC7D0A1208F6ED4C6003023CA405E7
:103BF30029AE25AF26FC7D141208F6ED4C600302B6
:103C03003CA40521AE25AF26FCFD7B64FAF9F8122E
:103C13004EE8AC00AD01AE02AF037B007A00790041
:103C23007800C312098470790522AE25AF26FCFD06
:103C33007BC8F8124EE8AC00AD01AE02AF037B00C7
:103C43007A0079007800C312098470550523AE25E4
:103C5300AF26FCFD7BE87A03F8124EE8AC00AD0119
:103C6300AE02AF037B007A0079007800C3120984A7
:103C7300702F0524AE25AF26FCFD7BD07A07F81202
:103C83004EE8AC00AD01AE02AF037B007A007900D1
:103C93007800C31209847009052AF525F526125107
:103CA300F82290058FE4F090058FE0FFC394034062
:103CB30003023D6BE07E108EF0A4FFAEF074162F6E
:103CC300F974003EFA7B01A3EBF0A3EAF0A3E9F059
:103CD300900590E0FBA3E0FAA3E0F9120849FF6026
:103CE3007E900590E0A3E0A3E07582047583001243
:103CF3000862FF64017068900590E0A3E0A3E0759B
:103D03008206758300120862FF900590E0A3E0A38A
:103D1300E0758207758300120862FEC39F501590F9
:103D23000590E0A3E0A3E075820775830074011298
:103D3300088F802B900590E0FBA3E0FAA3E0F975D0
:103D4300820475830074021208D4900590E0FBA3EB
:103D5300E0FAA3E0F9758207758300E41208D490B2
:103D6300058FE004F0023CAA22900518E004F0E07D
:103D7300FFC3940A4002E4F0900661E4F090066108
:103D8300E0FFC394064003023E28E025E02419F532
:103D930082E43405F583E0FF120A4B3DA8003DB4ED
:103DA3000100003E1F900661E0FF7E001241898002
:103DB3006B900661E0FF25E0241AF582E43405F5F3
:103DC30083E0FF7022900518E0FFC39401500C902C
:103DD3000661E0FF7E0012435B8041900661E0FFD5
:103DE3007E001241898035900661E0FF25E0241AA8
:103DF300F582E43405F583E0FFB40120900518E073
:103E0300FFD39406500C900661E0FF7E0012435BE3
:103E1300800A900661E0FF7E00124189900661E00E
:103E230004F0023D802290001AE4F0A3F07B017AB3
:103E330001797490002004F0A3EAF0A3E9F0900064
:103E43001E7412F07A007900900023EBF0A3EAF0DD
:103E5300A3E9F090001F7416F090001C7402F09018
:103E6300001614F090002AE4F0A3F07A017986900A
:103E7300003004F0A3EAF0A3E9F090002E74FFF001
:103E83007A007946900033EBF0A3EAF0A3E9F090CF
:103E9300002F74FFF090002C7402F090002614F0B1
:103EA30090003AE4F0A3F07A02798590004004F0A0
:103EB300A3EAF0A3E9F090003E74B6F07A017945E5
:103EC300900043EBF0A3EAF0A3E9F090003F742FD6
:103ED300F090003C740AF09000367401F022758073
:103EE3000075900075A00075B00075C00075D8000E
:103EF300D293D2B1759AFF75A1FF75A2FF75A3FF87
:103F030075A4FF75A5FF90F000E4F0A3F0A3F0A360
:103F1300F0A3F0A3F0A3F0A3F090F010F0A3F0A3AC
:103F2300F0A3F0A37402F0A3F0A3E4F0A3F090F0E5
:103F330020F0A3F0A3F0A3F0A3F0A3F0A3F0A3F069
:103F430090F030F0A3F0A3F0A3F0A3F0A3F0A3F05C
:103F5300A3F090F040F0A3F0A3F0A3F0A3F0A3F03C
:103F6300A3F0A3F090F050F0A3F0A3F0A3F0A3F01C
:103F7300A3F0F580F590F5A0F5B0F5C0F5D8D29390
:103F8300D2B190F009E0FF440FFFF022E4FB75F09B
:103F930002EBA4240AF582E5F03404F583E0F50985
:103FA300A3E0F50A75F002EBA42416F582E5F034DC
:103FB30004F583E0F50BA3E0F50C75F002EBA42008
:103FC300020A2422F582E5F034048008242EF582C7
:103FD300E5F03404F583E0FCA3E0FDE50C450B605C
:103FE30046ED4C6042E50C2DFFE50B3CC313FEEFA1
:103FF30013FF75F002EBA42416F582E5F03404F503
:1040030083EEF0A3EFF0E50A2DFFE5093CC313FEB1
:10401300EF13FF75F002EBA4240AF582E5F03404F4
:10402300F583EEF0A3EFF090586AE493FF0BEBC334
:104033009F5003023F9122E4F50820062DD20690FB
:10404300F6DDF090F6DCE0540790050CF0E0D39435
:10405300067480948040057406F0800890050CE097
:10406300700204F01246941236DF900515E06401E5
:10407300704C90050BF030053CB202123F8F122BAF
:10408300611233D3121838B20220040E90586FE431
:1040930093FF900517E0D39F4005125459C204E4DF
:1040A300900517F01237ECE4900515F090F6D9E07F
:1040B3004480F08027123240E49005158017905811
:1040C30074E493FF601690050BE004F0C39F400C6B
:1040D300E4F0900516F01246941236DF024E5C901F
:1040E3000536E0FF7042900535E0FF602E90057BBA
:1040F300E0FEA3E0FFC39402EE9400402390057B0F
:10410300E0A3E094C8EE9400501690057E7401F08D
:10411300900535E0FF90057DF0800590057EE4F085
:1041230090057BE4F0A3F022900535E0FF60089052
:104133000536E0FE6F600C90057BE4F0A3F090057C
:104143007EF02290057BE0FEA3E0FFC394C8EE94CB
:1041530000500BE004F0700690057BE004F090053E
:104163007BE0FEA3E0FF64024E601A90057BE0A3B0
:10417300E064C84E700F90057E7402F0900536E03F
:10418300FF90057DF02290060CEEF0A3EFF0900572
:1041930025E0FAA3E0FBC002C0037F017E007D009F
:1041A3007C0090060CE0FAA3E0FBF9F81209AB12CD
:1041B3000977D003D002EA5EFEEB5FFF900525EEA0
:1041C300F0A3EFF090060CE0FEA3E0FF4E7003C2F5
:1041D300D92290060CE0FEA3E0FF64014E7003C2F7
:1041E300862290060CE0FEA3E0FF64024E7003C239
:1041F300A72290060CE0FEA3E0FF64034E7003C207
:10420300B02290060CE0FEA3E0FF64044E7003D2DC
:10421300932290060CE0FEA3E0FF64054E7002D2E9
:10422300B12274702FF582E43404F583E4F075F061
:1042330002EFA42422F582E5F03404F583E4F0A32D
:10424300F075F002EFA4242EF582E5F03404F58333
:10425300E4F0A3F074762FF582E43404F583E4F0FC
:10426300745E2FF582E43404F583E4F074642FF56F
:1042730082E43404F583E4F074822FF582E4340499
:10428300F583E4F0747C2FF582E43404F583E4F0E1
:1042930020032A75F002EFA4243AF582E5F03404F2
:1042A300F583740BF0A3E4F075F002EFA42446F554
:1042B30082E5F03404F583740BF0A3E4F02278FF75
:1042C300E4F6D8FD9000007F007E10E4F0A3DFFC4D
:1042D300DEFA75812A024316024489E493A3F8E4C3
:1042E30093A34003F68001F208DFF48029E493A34B
:1042F300F85407240CC8C333C4540F4420C8834064
:1043030004F456800146F6DFE4800B010204081032
:104313002040809030A6E47E019360BCA3FF543F0D
:1043230030E509541FFEE493A360010ECF54C0256A
:10433300E060A840B8E493A3FAE493A3F8E493A35A
:10434300C8C582C8CAC583CAF0A3C8C582C8CAC5BE
:1043530083CADFE9DEE780BE90060AEEF0A3EFF042
:10436300900525E0FAA3E0FBC002C0037F017E00B5
:104373007D007C0090060AE0FAA3E0FBF9F812093D
:10438300ABD003D002EA4EFEEB4FFF900525EEF0D3
:10439300A3EFF090060AE0FEA3E0FF4E7003D2D92C
:1043A3002290060AE0FEA3E0FF64014E7003D2866A
:1043B3002290060AE0FEA3E0FF64024E7003D2A738
:1043C3002290060AE0FEA3E0FF64034E7003D2B01E
:1043D3002290060AE0FEA3E0FF64044E7003C2933A
:1043E3002290060AE0FEA3E0FF64054E7002C2B10C
:1043F3002290F6E1E0FE90F6E0E0FDEDFF90051679
:10440300E075F002A4240AF582E5F03404F583EEA6
:10441300F0A3EFF090F6E3E0FE90F6E2E0FDEDFFAF
:10442300900516E075F002A42416F582E5F0340435
:10443300F583EEF0A3EFF090F6E5E0FE90F6E4E00E
:10444300FDEDFF900516E075F002A424FEF582E56C
:10445300F03403F583EEF0A3EFF090F6D0E054FED2
:10446300F090586AE493FF900516E004F0C39F4070
:1044730011E4F090051504F030050AB202124694D7
:1044830080001236DF2212459C1256F91253AC12E9
:104493005498123E29C2AF00007596AA75965575B9
:1044A300D604D2AF12554612531712568512515ED7
:1044B3001255461250AC1222E0121C2A123ADBE5C6
:1044C300276009120026125598752700E528600316
:1044D300752800E5296003752900E52160151200A0
:1044E3001E1255FC1255CC1253D01253F312519392
:1044F300752100E5226003752200E523600612554D
:104503007E752300E5246003752400E52A60A17508
:104513002A00809C22900577EEF0A3EFF0A3EDF044
:10452300A3EBF0900579E0FD900577E0FEA3E0FFB3
:1045330025E0FFEE33FE74192FF58274053EF583F3
:10454300EDF090057AE0FD900577E0FEA3E0FF250E
:10455300E0FFEE33FE741A2FF58274053EF583ED0A
:10456300F0900577E0FEA3E0FF25E0FFEE33FE7455
:10457300192FF58274053EF583E0FF701B900577D4
:10458300E0FEA3E0FF25E0FFEE33FE741A2FF58271
:1045930074053EF5837401F022A2AFE433FF900665
:1045A30079F0438EC0538EDFC2AF00007596AA75B3
:1045B3009655759703E0FF24FF92AF7F64125479F9
:1045C300A2AFE433FF900679F0438EC0538EDFC26F
:1045D300AF00007596AA759655759703E0FF24FF03
:1045E30092AF12002E1252F0124CE51251C812561D
:1045F300C5A2AFE433FF900679F0C2AF0000759611
:10460300AA75965575D604000000000000E0FF244B
:10461300FF92AFD2AF22C0E0C0F0C083C082C0D04F
:1046230075D000C000C001C002C003C004C005C0F3
:1046330006C007900605E592F07592007F00124BC5
:1046430051EF6013125675EF64016006124F2C127E
:1046530056E67F00124C457F00124A45EF601090EA
:104663000604E599F0E0FF124DCB7F00124BF59065
:104673000605E0FFF592D007D006D005D004D0039D
:10468300D002D001D000D0D0D082D083D0F0D0E0FF
:104693003290F6D07446F0A3E4F0A374C0F0A37490
:1046A30060F0905879E493C43333335480443290A8
:1046B300F6D6F0905878E493C454F090F6D7F0A36C
:1046C3007441F090F6DAE4F0A37404F090F6D1E0CC
:1046D30030021B4401F090F6DD74AAF090050CE063
:1046E3001490F6DCF090F6D3E02404F08019440231
:1046F300F090F6DD74AAF090050CE00490F6DCF07F
:1047030090F6D3E02402F07F96025700900593EFD2
:10471300F0A3EDF0A3EBF0900593E0FF7016539830
:104723003FA3E0FFC4333354C0FF42985391F8A32F
:10473300E0FF4291900593E0FFB4011A53EA3FA3CF
:10474300E0FFC4333354C0FF42EA53918FA3E0FF29
:10475300C454F0FF4291900593E0FFB4021C75929C
:104763000153E43FA3E0FFC4333354C0FF42E45397
:10477300E2F8A3E0FF42E2759200229005A5EFF074
:10478300A3EDF0A3EBF09005A5E0FF120A4B47A1C0
:104793000047B70147D30347DE04000047EC5389C2
:1047A300F89005A6E0FF25E025E0FFA3E0FEEF4E2D
:1047B300FF42892253898F9005A7E0FFC454F0FF7D
:1047C3009005A6E0FEC4333354C0FE4FFF42892256
:1047D30053D2FC9005A7E0FF42D22253D2CF9005DB
:1047E300A7E0FFC454F0FF42D22212403A900511D1
:1047F300E0FCA3E0FDA3E0FEA3E0FF543FFFEE7463
:1048030000FEED7400FDEC7400FC900533F0A3EFA3
:10481300F090053AE0FCA3E0FDA3E0FEA3E0FF7403
:1048230000FFEEEDEC90053A1209DE90053AE0F850
:10483300A3E0F9A3E0FAA3E0FB900533E0FEA3E0D5
:10484300FFE4FCFDEB4FFFEA4EFEE9FDE8FC9005BB
:104853003A1209DE22C0E0C083C082C0D075D00006
:10486300C007900607E592F0759200E5EA30E1048F
:104873007F0180027F00EF6010900606E5EAF0E01A
:10488300FF54FDFFF0E0FFF5EAE5EA30E0047F01C5
:1048930080027F00EF6013900606E5EBF0E5EAF097
:1048A300E0FF54FEFFF0E0FFF5EA900607E0FFF5B6
:1048B30092D007D0D0D082D083D0E032C0E0C08382
:1048C300C082C0D075D000C007900609E592F0758C
:1048D3009201E5E430E1047F0180027F00EF601084
:1048E300900608E5E4F0E0FF54FDFFF0E0FFF5E497
:1048F300E5E430E0047F0180027F00EF601390065F
:1049030008E5E5F0E5E4F0E0FF54FEFFF0E0FFF535
:10491300E4900609E0FFF592D007D0D0D082D0838F
:10492300D0E0329005F2EFF0A3EDF09005F2E0FF56
:10493300120A4B4946004957014966034976040068
:10494300004986538EF79005F3E0FF33333354F871
:10495300FF428E22538EEF9005F3E0FFC454F0FF25
:10496300428E2253D2FB9005F3E0FF25E025E0FFC2
:1049730042D22253D2BF9005F3E0FFC4333354C075
:10498300FF42D222900664E4F09004FBE0FFB415EA
:10499300099004C7E0FF64AA60037F00227B017AC9
:1049A3000479C77D14124D34900664EFF09004DB54
:1049B300E0FF900664E0FEB507277B017A0479C720
:1049C300C003C002C0017A0479A2900551EBF0A3A1
:1049D300EAF0A3E9F0D001D002D0031228BB7F0193
:1049E300227F00229004E8E4F09004DD74C1F0A378
:1049F300E4F0A3740CF0900539E0FF9004E0F0A319
:104A0300E4F0A3F0A3F0A3F0A37412F0A3E4F0A3E3
:104A1300F0900663F0900663E0FFC3940B501BE035
:104A230074DD2FF582E43404F583E0FF9004E8E0BD
:104A33002FF0900663E004F080DB900539E4F07F0B
:104A43000C229005C6EFF0A3E4F09005C6E0FF70DA
:104A530010E59830E0047F0180027F009005C7EFE6
:104A6300F09005C6E0FFB40110E5EA30E0047F01F1
:104A730080027F009005C7EFF09005C6E0FFB40207
:104A830016759201E5E430E0047F0180027F009017
:104A930005C7EFF07592009005C7E0FF22C0E0C0A4
:104AA300F0C083C082C0D075D000C000C001C00276
:104AB300C003C004C005C006C00790065FE592F0BE
:104AC300759200125546758CF8758A30123D6C123A
:104AD3003BC3122D2E90065FE0FFF592D007D00660
:104AE300D005D004D003D002D001D000D0D0D082E2
:104AF300D083D0F0D0E0329005A8EFF0A3EDF0A37F
:104B0300EBF09005A8E0FF120A4B4B1D004B2A0166
:104B13004B37034B440400004B509005A9E0FFF5CD
:104B23008CA3E0FFF58A229005A9E0FFF58DA3E0B1
:104B3300FFF58B229005A9E0FFF5DBA3E0FFF5DA93
:104B4300229005A9E0FFF5E3A3E0FFF5E22290053B
:104B5300CAEFF0A3E4F09005CAE0FF700CE59830CB
:104B6300E1047F0180027F00229005CAE0FFB401C7
:104B73000CE5EA30E1047F0180027F00229005CA40
:104B8300E0FFB40216759201E5E430E1047F018091
:104B9300027F009005CBEFF07592009005CBE0FF0C
:104BA30022C0E0C0F0C083C082C0D075D000C00076
:104BB300C001C002C003C004C005C006C007900600
:104BC30060E592F07592001200BEEF600312556229
:104BD300900660E0FFF592D007D006D005D004D050
:104BE30003D002D001D000D0D0D082D083D0F0D077
:104BF300E0329005C8EFF0E0FF7010A3E598F0E015
:104C0300FF54FEFFF0E0FF4402F5989005C8E0FF73
:104C1300B40110A3E5EAF0E0FF54FEFFF0E0FF4427
:104C230002F5EA9005C8E0FFB40216759201A3E508
:104C3300E4F0E0FF54FEFFF0E0FF4402F5E4759278
:104C430000229005CCEFF0E0FF7010A3E598F0E0B0
:104C5300FF54FDFFF0E0FF4401F5989005CCE0FF21
:104C6300B40110A3E5EAF0E0FF54FDFFF0E0FF44D8
:104C730001F5EA9005CCE0FFB40216759201A3E5B5
:104C8300E4F0E0FF54FDFFF0E0FF4401F5E475922A
:104C93000022C0E0C0F0C083C082C0D075D000C085
:104CA30000C001C002C003C004C005C006C0079015
:104CB300F6D9E0FF30E010E0FF547FFFF0900515D8
:104CC300E0FF70031243F4D007D006D005D004D020
:104CD30003D002D001D000D0D0D082D083D0F0D086
:104CE300E032900600E4F0A3F07B037D01FF12475E
:104CF3000F7F0012524E7F001254167F001252256E
:104D030090060074FEF0A374C8F0900600E0FEA3C2
:104D1300E0FF1253631256DC90F0157402F090F02A
:104D230014F090F69F7414F07F0012543853B8EFC8
:104D330022900565EBF0A3EAF0A3E9F0A3EDF0A35D
:104D4300E4F0900568E0FFD394004027900565E008
:104D5300FBA3E0FAA3E0F9120849FF900569E02FED
:104D6300F0900566E475F00112094B900568E014B4
:104D7300F080CF900569E0FFF4FFF0E0FF227B01B4
:104D83007A047988C003C002C0017A047995A80126
:104D9300AC027D01D001D002D0037E007F0D12084A
:104DA300237B017A0479DDC003C002C0017A047950
:104DB3009590054AEBF0A3EAF0A3E9F0D001D00205
:104DC300D003121FE77F122290066EEFF090001AB5
:104DD300E0FF6402603A90001FE0FF900019E0FEDC
:104DE300C39F502CA37401F090066EE0FF90002344
:104DF300E0FBA3E0FAA3E0F9900019E0F5827583E4
:104E030000EF1208D4900019E004F090001DE4F0C4
:104E13002290056AEBF0A3EAF0A3E9F0A3EDF0A377
:104E2300E4F090056DE0FFD39400402790056AE01D
:104E3300FBA3E0FAA3E0F9120849FF90056EE02F07
:104E4300F090056BE475F00112094B90056DE014C9
:104E5300F080CF90056EE0FF229058701209BEECEF
:104E63004D4E4F603B900511E0FCA3E0FDA3E0FE37
:104E7300A3E0FFEC4D4E4F6020900509E475F0016F
:104E830012094BAFF0FEE4FCFD9058701209CED32B
:104E930012099A500BD2048000E4900509F0A3F0A4
:104EA300229005BAEFF0A3EDF07F787E001255B2A1
:104EB3007F207E001255B21254F09005BAE0FF1223
:104EC30050309005BCE4F09005BCE0FFC394505013
:104ED300109005BBE0FF1250309005BCE004F08059
:104EE300E612550D22C2D5E830E70FB2D5E4C39BD5
:104EF300FBE49AFAE499F9E498F8EC30E717B2D5B1
:104F0300124F1E120C91E4C39BFBE49AFAE499F945
:104F1300E498F88003120C9130D50DE4C39FFFE4AD
:104F23009EFEE49DFDE49CFC2290001BE0FFB40187
:104F330035900020E0FBA3E0FAA3E0F9900017E02E
:104F4300FFF582758300120862FF90066FF09000F0
:104F530017E004F0A3E0FF900017E0FEC39F4006B4
:104F630090001B7402F090066FE0FF22900666E447
:104F7300F09004FBE0FFB406099004C7E0FF64C1AE
:104F830060037F00227B017A0479C77D05124E14EA
:104F9300900666EFF09004CCE0FF900666E0FEB565
:104FA30007099004EF74C8F07F01227F00227B0180
:104FB3007A0479C79005427416F07F001238F49092
:104FC30004FBEFF07F00125277120006EFB40104E6
:104FD3001200662212000EEFB401041200662212C0
:104FE3000016EFB40104120066221255E422900564
:104FF30025E4F0A3F0900662F0900662E0FFC3940C
:10500300065029E025E02419F582E43405F583E40C
:10501300F0900662E0FF25E0241AF582E43405F5FA
:10502300837401F0900662E004F080CD22900616AE
:10503300EFF0A3E4F0900617E0FFC39408502CC2EE
:10504300B27F05125663900616E0FF3392B37F05D5
:10505300125663D2B2900616E0FF25E0FFF07F05FB
:10506300125663900617E004F080CA228F1B900546
:1050730017E004F0900511E0F8A3E0F9A3E0FAA328
:10508300E0FBC000C001E47F01FEFDFCA91BA801F9
:105093001209ABD001D000EB4FFFEA4EFEE94DFD04
:1050A300E84CFC9005110209DE7F00125613EF1243
:1050B3000A4B50C70050CA0150C202000050CA1226
:1050C3004FB180031256517F00125629EF120A4B3B
:1050D30050E40050E70150E002000050E71256D1BF
:1050E3002212538822900676EFF0E0FFC454F02496
:1050F3001BF582E43400F583E4F0900676E0FFC408
:1051030054F02417F582E43400F583E4F090067636
:10511300E0FFC454F02418F582E43400F583E4F08E
:10512300228F1B900511E0F8A3E0F9A3E0FAA3E0B6
:10513300FBC000C001E47F01FEFDFCA91BA8011216
:1051430009AB120977D001D000EB5FFFEA5EFEE9FD
:105153005DFDE85CFC9005110209DE9004F8E4F0C3
:10516300A3F09004F41209EA000000009004F01286
:1051730009EA000000009004FBE4F09004C5F0A3EA
:1051830004F0900383F09004C4E4F09004FCF02254
:10519300900381E004F0E0FFC394024027E4F09021
:1051A30003FDE004F070069003FCE004F09003FCC0
:1051B300E0FEA3E0FFC3945EEE940140079003FC7E
:1051C300E4F0A3F02290F000E4F0A3F0A3F0A3F046
:1051D300A3F0A3F090F040F0A3F0A3F0A3F0A3F0AA
:1051E300A3F0A3F0A3F090F718740FF0A3F090F0DE
:1051F3000C743FF02290055AE004F0E0FF643C7029
:1052030020F0A3E004F0E0FFB43C16E4F0A3E004D4
:10521300F0E0FFB4180BA3E004F0E0FFB40702E4EE
:10522300F022900624EFF0E0FF700343878090069E
:1052330024E0FFB40103438740900624E0FFB40257
:105243000975920143E30175920022900626EFF05F
:10525300E0FF7003439810900626E0FFB401034378
:10526300EA10900626E0FFB4020975920143E410A8
:1052730075920022900674EFF0E0FFC454F0241AF4
:10528300F582E43400F583E4F0900674E0FFC4543F
:10529300F02419F582E43400F583E4F02290064A01
:1052A300EFF0E0FF120A4B52BA0052BD0152C003A5
:1052B30052C404000052C7D2A922D2AB2243AA018E
:1052C3002243AA022290064DEFF0E0FF120A4B524E
:1052D300E20052E50152E80352EC04000052EFD21F
:1052E3008C22D28E2243D2082243D280227B017D9C
:1052F300007F0012477E7D007F001249267B307DB0
:10530300F87F00124AFA7F001252A053B8FD7F00C3
:105313001252C82290066AE4F0F090066AE0FFC3D6
:1053230094405015E0749B2FF582E43403F583E435
:10533300F090066AE004F080E122AB07E47F01FE0F
:10534300FDFCA8031209AB900511E0F8A3E0F9A353
:10535300E0FAA3E05FFFEA5EFEE95DFDE85CFC22A4
:105363009005D6EEF0A3EFF09005D6E0FEA3E0FFA4
:1053730090F5C1F09005D6E0FEA3E0FFEEFF7E00BE
:1053830090F5C2F0229004FCE0FFF4600AE0C394BD
:10539300C840041254B6229004EFE0FFF46009E021
:1053A300C394C840031254D3227F1F7E001255B208
:1053B3007F787E001255B27F827E001255B27D0047
:1053C3007FC0124EA47F8E7E001255B222900389B5
:1053D300E004F0E0FFC394104015E4F0900382E092
:1053E30004F0E0FF940F4007E4F090038A04F022F6
:1053F3009003DBE004F0E0FFC394144015E4F09065
:105403000384E004F0E0FF940D4007E4F09003DC34
:1054130004F02290062CEFF090F5C0E0FF54F8FF63
:10542300F0C083C082E0FF90062CE0FEEF4EFFD079
:1054330082D083F02290062AEFF0E0FF7002D2AC14
:1054430090062AE0FFB40102D2AE90062AE0FFB430
:10545300020343AB01229005111209EA0000000088
:10546300E4FE90586AE493FFEEC39F5008AF061220
:1054730042250E80ED229005FEEFF0A3E4F09005A7
:10548300FFE014FFF070F71255469005FEE0FF149D
:10549300F0EF70EA22900535E4F0A3F0900533F0C5
:1054A300A3F0900537F0A3F090053A1209EA000043
:1054B300000022124D8190052BEFF07B017A0479D5
:1054C300DD7F00122EF6EFB401059004FCE4F02218
:1054D3001249E790052BEFF07B017A0479DD7F0019
:1054E300122EF6EFB401059004EFE4F022D2B37F5D
:1054F30005125663D2B27F05125663C2B37F0512FB
:105503005663C2B27F0512566322C2B27F0512569A
:1055130063C2B37F05125663D2B27F05125663D2BC
:10552300B37F051256632230AF0FC2AF007596AA40
:10553300759655439702D2AF227596AA7596554331
:1055430097022230AF0FC2AF007596AA75965543E6
:105553009701D2AF227596AA7596554397012230CB
:10556300AF0FC2AF007596AA7596555397F7D2AF92
:10557300227596AA7596555397F7227F00125613F4
:10558300EF70119004C4E0FFF46009E0C394645029
:1055930003E004F0227F00125629EF70119004FCFF
:1055A300E0FFF46009E0C394C85003E004F02290E4
:1055B3000618EEF0A3EFF01254F0900618E0FEA3E5
:1055C300E0FF12503012550D227B017A04798812C4
:1055D300130690057EE0FFB401069004FC74C8F046
:1055E300229004C4E4F0A3E004F0E0FFC394FF407E
:1055F30007A3E4F0900383F022900383E0FFB40158
:105603000B9004C3E0FF70041240E222125685227D
:10561300900675EFF0E0FFC454F0241AF582E434E9
:1056230000F583E0FF22900677EFF0E0FFC454F02B
:10563300241BF582E43400F583E0FF22900633EF68
:10564300F0538E1FE0FFC43354E0FF428E229004D8
:10565300C4E0FFF46009E0C394644003125693224C
:1056630090067BEFF090067BE0FF60050014F0806E
:10567300F42290001BE0FF640160047F0180027F3D
:10568300002290057DE4F0A3F090057BF0A3F022C7
:105693009004C6E4F0900383F09004C4F0229003D6
:1056A30082E4F0900389F0A3F022900384E4F09065
:1056B30003DBF0A3F0229003FCE4F0A3F09003815A
:1056C300F0221255467F0712563F12552A227F00B9
:1056D3001250E89004FCE4F02290F5C0E0FF44800F
:1056E300FFF02290065BEFF0E0FFF599229003FCB8
:1056F300E0FEA3E0FF22124FF112004A22AE071F81
:10570300EE70FA22900382E0FF22900384E0FF22EE
:1057130000010204060A0D12161C21272E353D45F1
:105723004E56606A747E8A95A1ADBAC7D4E2F0FF83
:105733000006162E568ABAFFFFBA8A562E160600A0
:105743000002060D16212E3D4E60748AA1BAD4F0D4
:10575300F0D4BAA18A74604E3D2E21160D060200C4
:105763000001020304050607080A0C0E10121416A2
:10577300181A1D202326292C2F3235393D4145493E
:105783004D5155595E63686D72777C81868C929812
:105793009EA4AAB0B6BCC3CAD1D8DFE6EDF4FBFF22
:1057A30000000000000000000000010203040506E1
:1057B3000708090A0B0C0D0E0F10111213141516FE
:1057C3001718191A1B1C1D1E1F20212223242526EE
:1057D3002728292A2B2C2D2E2F30313233343536DE
:1057E3003738393A3B3C3D3E3F40414243444546CE
:1057F3004748494A4B4C4D4E4F50515253545556BE
:105803005758595A5B5C5D5E5F60616263646566AD
:105813006768696A6B6C6D6E70727476787A7C7E79
:1058230080828486888A8C8E90929496989A9C9E85
:10583300A0A2A4A6A8AAADB0B3B6B9BCBFC2C5C83E
:10584300CBCED1D4D7DBDFE3E7EBEFF3F7FBFF0EF0
:105853000F10111213007800C8003C00C800780034
:105863008C000000000000060223190A0600000F46
:10587300A028016401030000003F065B4F666D7DB5
:0B588300077F6F00790001020304059D
:00000001FF
