C51 COMPILER V9.60.7.0   DISPLAY                                                           07/27/2024 08:24:10 PAGE 1   


C51 COMPILER V9.60.7.0, COMPILATION OF MODULE DISPLAY
OBJECT MODULE PLACED IN ..\OBJ\Display.obj
COMPILER INVOKED BY: D:\Program Files\Keil_v5\C51\BIN\C51.EXE ..\VIEW\Display.C LARGE OMF2 OPTIMIZE(1,SPEED) BROWSE INCD
                    -IR(..\CORE;..\FWLib\inc;..\SYSTEM;..\USER;..\TOUCHLib;..\FLASH_ROLL_LIB;..\GET_TEMP;..\ENCAP;..\VIEW;..\MODEL;..\GLOBAL)
                    - DEBUG PRINT(..\OBJ\Display.lst) TABS(2) OBJECT(..\OBJ\Display.obj)

line level    source

   1          #include "Display.H"
   2          #include "bsp_led.h"
   3          #include "led.h"
   4          #include "AiP33624.h"
   5          #include <string.h>
   6          #include "task_Event.h"
   7          
   8          
   9          void DIS_inner_ring(void);
  10          void DIS_outer_ring(void);
  11          void Reset_Inner_Cnt(void);
  12          void Reset_Outer_Cnt(void);
  13          
  14          /******************************************************************************
  15           ** \brief   LED_Config
  16           ** \param [in] 
  17           **             
  18           ** \return  none
  19           ** \note  
  20           ******************************************************************************/
  21          void LED_Config(void)
  22          {
  23   1        /*
  24   1        (1)设置LED模块运行模式
  25   1        */
  26   1      //  LED_EnableMatrixMode();       //开启矩阵模式
  27   1        //LED_ConfigMatrixMode(LED_CLK_FSYS,LED_DUTY_6,LED_COM_CATHODE);    
  28   1        
  29   1        /*设置扫描周期为 100HZ   
  30   1         -> T = 4 * (COM有效时间 + 2*Tled)
  31   1         -> T = 4 * ((ComTime +1) + 2)*Tled
  32   1        */
  33   1      //  LED_ConfigMatrixClkDiv(5999);     //Fsys=24Mhz，LED = 4Khz; ->250us
  34   1      //  LED_ConfigMatrixComTime(7);         //ComTime => 2ms
  35   1        
  36   1        /*
  37   1        (2)设置COM口
  38   1        */
  39   1        GPIO_SET_MUX_MODE(P00CFG, GPIO_MUX_GPIO); 
  40   1        GPIO_SET_MUX_MODE(P01CFG, GPIO_MUX_GPIO); 
  41   1        GPIO_SET_MUX_MODE(P02CFG, GPIO_MUX_GPIO);
  42   1        GPIO_SET_MUX_MODE(P03CFG, GPIO_MUX_GPIO);   
  43   1        GPIO_SET_MUX_MODE(P04CFG, GPIO_MUX_GPIO);   
  44   1        GPIO_SET_MUX_MODE(P05CFG, GPIO_MUX_GPIO);   
  45   1        
  46   1        //P0TRIS |= 0x3f;   //开启输出
  47   1        //LEDCOMEN = 0x3F;    //使能COM0~COM3
  48   1          
  49   1        /*
  50   1        (3)设置SEG口
  51   1        */  
  52   1        GPIO_SET_MUX_MODE(P40CFG, GPIO_MUX_GPIO); //SEG0  ->a
  53   1        GPIO_SET_MUX_MODE(P41CFG, GPIO_MUX_GPIO); //SEG1  ->b 
C51 COMPILER V9.60.7.0   DISPLAY                                                           07/27/2024 08:24:10 PAGE 2   

  54   1        GPIO_SET_MUX_MODE(P42CFG, GPIO_MUX_GPIO); //SEG2  ->c 
  55   1        GPIO_SET_MUX_MODE(P43CFG, GPIO_MUX_GPIO); //SEG3  ->d 
  56   1        GPIO_SET_MUX_MODE(P44CFG, GPIO_MUX_GPIO); //SEG4  ->e 
  57   1        GPIO_SET_MUX_MODE(P45CFG, GPIO_MUX_GPIO); //SEG5  ->f 
  58   1        GPIO_SET_MUX_MODE(P46CFG, GPIO_MUX_GPIO); //SEG6  ->g 
  59   1        GPIO_SET_MUX_MODE(P47CFG, GPIO_MUX_GPIO); //SEG7  ->dp  
  60   1      
  61   1      //  P4TRIS |= 0xFF;
  62   1        
  63   1        //LEDSEGEN0 =0;
  64   1      //  LEDSEGEN1 =0;
  65   1        //LEDSEGEN2 = 0xF0; //使能SEG0~SEG7 
  66   1        //LEDSEGEN3 = 0x0F; //使能SEG0~SEG7 
  67   1        /*
  68   1        (4)设置SEG口电流
  69   1        */    
  70   1        
  71   1        //LEDEN2 = 0xF0;      //使能SEG0~SEG7的管脚驱动
  72   1      //  LEDEN3 = 0x0F;      //使能SEG0~SEG7的管脚驱动
  73   1        
  74   1        LEDSDRP4L = 0x0F;   //12.2mA
  75   1        LEDSDRP4H = 0x0F;   //12.2mA
  76   1        /*
  77   1        (5)设置COM口电流
  78   1        */  
  79   1        P0DR = 0x3f;      // 220mA
  80   1      
  81   1        /*
  82   1        (6)设置SEG口数据
  83   1        */
  84   1      //LEDC0DATA2 = 0X00;      /*1*/
  85   1      //LEDC0DATA3 = 0X00;      /*1*/
  86   1      
  87   1      //LEDC1DATA2 = 0X00;      /*2*/
  88   1      //LEDC1DATA3 = 0X00;      /*2*/
  89   1      
  90   1      //LEDC2DATA2 = 0X00;      /*3*/
  91   1      //LEDC2DATA3 = 0X00;      /*3*/
  92   1      
  93   1      //LEDC3DATA2 = 0X00;      /*4*/
  94   1      //LEDC3DATA3 = 0X00;      /*4*/
  95   1      
  96   1      
  97   1      //LEDC4DATA2 = 0X00;      /*4*/
  98   1      //LEDC4DATA3 = 0X00;      /*4*/
  99   1      
 100   1      //LEDC5DATA2 = 0X00;      /*4*/
 101   1      //LEDC5DATA3 = 0X00;      /*4*/
 102   1        /*
 103   1        (7)开启LED矩阵模式
 104   1        */
 105   1      //  LED_StartMatrix();
 106   1      }
 107          
 108          
 109          
 110          
 111          xdata unsigned char  LED_Buff[AIPBUFFNUM]={0};  //AIP33624传参
 112                                      // 0   1    2    3    4    5   6    7    8    9         E
 113          unsigned char code tabb[ ]={0x3f,0x06,0x5b,0x4f,0x66,0x6d,0x7d,0x07,0x7f,0x6f,0x00,0x79};
 114          
 115          xdata Head_T  Head_State;   //协议传参解析值
C51 COMPILER V9.60.7.0   DISPLAY                                                           07/27/2024 08:24:10 PAGE 3   

 116          
 117          
 118          xdata unsigned char Innerring =State_OFF; //内环状态
 119          
 120          xdata unsigned char Outerring =State_OFF; //外环状态
 121          
 122          xdata unsigned char Innerring_Over_flag =0; //内环一次结束标志
 123          xdata unsigned char Outerring_Over_flag =0; //外一次结束标志
 124          
 125          
 126          xdata unsigned char  State_bzthree =State_Zero; //头部显示状态三步骤
 127          
 128          xdata unsigned char Innerring_BUFF[INNERBUFFNUM]={0};  //内环BUFF
 129          xdata unsigned char Outerring_BUFF[OUTERBUFFNUM]={0};  //外环BUFF
 130          
 131          xdata unsigned char DIS_err=1; 
 132          
 133          static xdata unsigned char Outer_Cnt_10ms=0; //外环循环计数器
 134          static xdata unsigned char Outer_Cnt=0; //外环循环计数器
 135          
 136          static xdata unsigned char Inner_Cnt_10ms=0; //内环循环计数器
 137          static xdata unsigned char Inner_Cnt=0; //内环循环计数器
 138          
 139          static xdata unsigned char Breath_Cnt_10ms=0; //呼吸循环计数器
 140          static xdata unsigned int Breath_Cnt=0; //呼吸循环计数器
 141           static xdata unsigned char  segg[4];
 142          
 143           
 144          
 145          unsigned char Seg_Tran(unsigned char Hex)
 146          {
 147   1        unsigned char  seg =0;
 148   1        
 149   1        if(Hex&0x01)
 150   1        {
 151   2          seg |=0x04;
 152   2        }
 153   1        
 154   1        if(Hex&0x02)
 155   1        {
 156   2          seg |=0x01;
 157   2        }
 158   1        
 159   1        if(Hex&0x04)
 160   1        {
 161   2          seg |=0x20;
 162   2        }
 163   1        
 164   1        if(Hex&0x08)
 165   1        {
 166   2          seg |=0x10;
 167   2        }
 168   1        
 169   1        if(Hex&0x10)
 170   1        {
 171   2          seg |=0x40;
 172   2        }
 173   1        
 174   1        if(Hex&0x20)
 175   1        {
 176   2          seg |=0x08;
 177   2        }
C51 COMPILER V9.60.7.0   DISPLAY                                                           07/27/2024 08:24:10 PAGE 4   

 178   1        
 179   1        if(Hex&0x40)
 180   1        {
 181   2          seg |=0x80;
 182   2        }
 183   1        
 184   1        if(Hex&0x80)
 185   1        {
 186   2          seg |=0x02;
 187   2        }
 188   1        
 189   1        return  seg;
 190   1      
 191   1      }
 192          
 193          
 194          void Led_Init(void)
 195          {
 196   1        unsigned char j =0;
 197   1        
 198   1          for(j=0;j<AIPBUFFNUM;j++)
 199   1          {   
 200   2            LED_Buff[j] =0x00;
 201   2          }
 202   1      }
 203          
 204          
 205          
 206          void Led_Dis(void)
 207          {
 208   1      
 209   1        static xdata unsigned char OuterRing_State =0;
 210   1        
 211   1        
 212   1        if(DIS_err ==1 &&Uart_Flag ==0)
 213   1        {
 214   2      //    segg[0] =0x00;
 215   2      //    segg[1] =0x00;
 216   2      //    segg[2] =0x00;
 217   2      //    segg[3] =0x00;
 218   2          
 219   2          segg[3] = Head_State.Num[0]&0x7F;   //第一个数字
 220   2          segg[2] = Head_State.Num[1]&0x7F;
 221   2          segg[1] = Head_State.Num[2]&0x7F;
 222   2          segg[0] = Head_State.Num[3]&0x7F;
 223   2          
 224   2          
 225   2          if(Head_State.Left_Gas !=0)
 226   2          {
 227   3              segg[2] |=0x80;
 228   3          }
 229   2          
 230   2          if(Head_State.Right_Gas !=0)
 231   2          {
 232   3              segg[1] |=0x80;
 233   3          }
 234   2          
 235   2          if(Head_State.Maohao !=0)
 236   2          {
 237   3              segg[0] |=0x80;
 238   3          }
 239   2          
C51 COMPILER V9.60.7.0   DISPLAY                                                           07/27/2024 08:24:10 PAGE 5   

 240   2          
 241   2      //    segg[0] =Seg_Tran(segg[0]);
 242   2      //    segg[1] =Seg_Tran(segg[1]);
 243   2      //    segg[2] =Seg_Tran(segg[2]);
 244   2      //    segg[3] =Seg_Tran(segg[3]);
 245   2      
 246   2          
 247   2        
 248   2          if(Head_State.Key_Speed ==Head_Highlight)
 249   2          {
 250   3            SetLedMode(LED_SPEEDD, LED_OPEN, BRIGHT_ALL);
 251   3          }
 252   2          else if(Head_State.Key_Speed ==Head_dim)
 253   2          {
 254   3            SetLedMode(LED_SPEEDD, LED_OPEN, BRIGHT_HALF);
 255   3          }
 256   2          else if(Head_State.Key_Speed ==Head_Extinguish)
 257   2          {
 258   3            SetLedMode(LED_SPEEDD, LED_CLOSE, BRIGHT_ALL);
 259   3          }
 260   2          
 261   2            if(Head_State.Key_Time ==Head_Highlight)
 262   2          {
 263   3            SetLedMode(LED_REGULAR, LED_OPEN, BRIGHT_ALL);
 264   3          }
 265   2          else if(Head_State.Key_Time ==Head_dim)
 266   2          {
 267   3            SetLedMode(LED_REGULAR, LED_OPEN, BRIGHT_HALF);
 268   3          }
 269   2          else if(Head_State.Key_Time ==Head_Extinguish)
 270   2          {
 271   3            SetLedMode(LED_REGULAR, LED_CLOSE, BRIGHT_ALL);
 272   3          }
 273   2          
 274   2            if(Head_State.Key_Auto ==Head_Highlight)
 275   2          {
 276   3            SetLedMode(LED_AUTO, LED_OPEN, BRIGHT_ALL);
 277   3          }
 278   2          else if(Head_State.Key_Auto ==Head_dim)
 279   2          {
 280   3            SetLedMode(LED_AUTO, LED_OPEN, BRIGHT_HALF);
 281   3          }
 282   2          else if(Head_State.Key_Auto ==Head_Extinguish)
 283   2          {
 284   3            SetLedMode(LED_AUTO, LED_CLOSE, BRIGHT_ALL);
 285   3          }
 286   2          
 287   2            if(Head_State.Key_Baochao ==Head_Highlight)
 288   2          {
 289   3            SetLedMode(LED_BAOC, LED_OPEN, BRIGHT_ALL);
 290   3          }
 291   2          else if(Head_State.Key_Baochao ==Head_dim)
 292   2          {
 293   3            SetLedMode(LED_BAOC, LED_OPEN, BRIGHT_HALF);
 294   3          }
 295   2          else if(Head_State.Key_Baochao ==Head_Extinguish)
 296   2          {
 297   3            SetLedMode(LED_BAOC, LED_CLOSE, BRIGHT_ALL);
 298   3          }
 299   2          
 300   2            if(Head_State.Time_jia ==Head_Highlight)
 301   2          {
C51 COMPILER V9.60.7.0   DISPLAY                                                           07/27/2024 08:24:10 PAGE 6   

 302   3            SetLedMode(LED_JIA, LED_OPEN, BRIGHT_ALL);
 303   3          }
 304   2          else if(Head_State.Time_jia ==Head_dim)
 305   2          {
 306   3            SetLedMode(LED_JIA, LED_OPEN, BRIGHT_HALF);
 307   3          }
 308   2          else if(Head_State.Time_jia ==Head_Extinguish)
 309   2          {
 310   3            SetLedMode(LED_JIA, LED_CLOSE, BRIGHT_ALL);
 311   3          }
 312   2          
 313   2            if(Head_State.Time_jian ==Head_Highlight)
 314   2          {
 315   3            SetLedMode(LED_JIAN, LED_OPEN, BRIGHT_ALL);
 316   3          }
 317   2          else if(Head_State.Time_jian ==Head_dim)
 318   2          {
 319   3            SetLedMode(LED_JIAN, LED_OPEN, BRIGHT_HALF);
 320   3          }
 321   2          else if(Head_State.Time_jian ==Head_Extinguish)
 322   2          {
 323   3            SetLedMode(LED_JIAN, LED_CLOSE, BRIGHT_ALL);
 324   3          }
 325   2      
 326   2          if(Head_State.Outer_Ring ==State_Zero)
 327   2          {
 328   3            if(OuterRing_State !=Head_State.Outer_Ring)
 329   3            {
 330   4                OuterRing_State =Head_State.Outer_Ring;
 331   4              
 332   4                Innerring =State_OFF; //内环状态
 333   4                Outerring =State_OFF; //外环状态
 334   4            
 335   4            }
 336   3          
 337   3          }
 338   2          else if(Head_State.Outer_Ring ==State_One)
 339   2          {
 340   3            if(OuterRing_State !=Head_State.Outer_Ring)
 341   3            {
 342   4                OuterRing_State =Head_State.Outer_Ring;
 343   4              
 344   4                Innerring =State_ON; //内环状态
 345   4                Outerring =State_ON; //外环状态
 346   4          
 347   4            }
 348   3          }
 349   2          else if(Head_State.Outer_Ring ==State_Two)
 350   2          {
 351   3              if(OuterRing_State !=Head_State.Outer_Ring)
 352   3            {
 353   4                OuterRing_State =Head_State.Outer_Ring;
 354   4              
 355   4                Innerring =State_ON; //内环状态
 356   4                Outerring =State_OFF; //外环状态
 357   4          
 358   4            }
 359   3          }
 360   2          else if(Head_State.Outer_Ring ==State_Three)
 361   2          {
 362   3            if(OuterRing_State !=Head_State.Outer_Ring)
 363   3            {
C51 COMPILER V9.60.7.0   DISPLAY                                                           07/27/2024 08:24:10 PAGE 7   

 364   4                OuterRing_State =Head_State.Outer_Ring;
 365   4              
 366   4                State_bzthree =State_One;
 367   4              
 368   4                Reset_Inner_Cnt();
 369   4                Innerring =State_CIRCLE; //内环状态
 370   4                Outerring =State_OFF; //外环状态
 371   4            }     
 372   3            
 373   3            if(State_bzthree ==State_One)
 374   3            {
 375   4              if(Innerring_Over_flag ==1)
 376   4              {
 377   5                 Reset_Outer_Cnt();
 378   5                 State_bzthree =State_Two;
 379   5                
 380   5                 Innerring =State_OFF; //内环状态
 381   5                 Outerring =State_CIRCLE; //外环状态
 382   5              }
 383   4            }
 384   3            if(State_bzthree ==State_Two)
 385   3            {
 386   4              if(Outerring_Over_flag ==1)
 387   4              {
 388   5                 State_bzthree =State_Zero;
 389   5                
 390   5                Innerring =State_OFF; //内环状态
 391   5                Outerring =State_ON; //外环状态
 392   5              }
 393   4            }
 394   3          }
 395   2          else if(Head_State.Outer_Ring ==State_Four)
 396   2          {
 397   3            if(OuterRing_State !=Head_State.Outer_Ring)
 398   3            {
 399   4                OuterRing_State =Head_State.Outer_Ring;
 400   4              
 401   4                Innerring =State_OFF; //内环状态
 402   4                Outerring =State_CIRCLE; //外环状态
 403   4            
 404   4          
 405   4            }
 406   3          }
 407   2          else if(Head_State.Outer_Ring ==State_Five)
 408   2          {
 409   3              if(OuterRing_State !=Head_State.Outer_Ring)
 410   3              {
 411   4                OuterRing_State =Head_State.Outer_Ring;
 412   4                
 413   4                Innerring =State_CIRCLE; //内环状态
 414   4                Outerring =State_OFF; //外环状态
 415   4            
 416   4          
 417   4              }
 418   3          }
 419   2          else if(Head_State.Outer_Ring ==State_Six)
 420   2          {
 421   3            if(OuterRing_State !=Head_State.Outer_Ring)
 422   3            {
 423   4                OuterRing_State =Head_State.Outer_Ring;
 424   4              
 425   4                Innerring =State_BREATHE; //内环状态
C51 COMPILER V9.60.7.0   DISPLAY                                                           07/27/2024 08:24:10 PAGE 8   

 426   4                Outerring =State_BREATHE; //外环状态
 427   4            }
 428   3          }
 429   2          
 430   2          if(Head_State.Headlight ==Head_Highlight) 
 431   2          {
 432   3              LED_HEADLIGHT_ON;
 433   3            
 434   3          }
 435   2          else
 436   2          {
 437   3              LED_HEADLIGHT_OFF;
 438   3          }
 439   2              
 440   2          if(Head_State.FWD ==Head_Highlight) 
 441   2          {
 442   3                LED_FWD_ON;
 443   3          }
 444   2          else
 445   2          {
 446   3              LED_FWD_OFF;
 447   3          }
 448   2        }
 449   1        else
 450   1        {
 451   2          Innerring =State_OFF; //内环状态
 452   2          Outerring =State_OFF; //外环状态
 453   2          
 454   2          SetLedMode(LED_BAOC, LED_CLOSE, BRIGHT_ALL);
 455   2          SetLedMode(LED_AUTO, LED_CLOSE, BRIGHT_ALL);
 456   2          SetLedMode(LED_SPEEDD, LED_CLOSE, BRIGHT_ALL);
 457   2          SetLedMode(LED_REGULAR, LED_CLOSE, BRIGHT_ALL);
 458   2          SetLedMode(LED_JIA, LED_CLOSE, BRIGHT_ALL);
 459   2          SetLedMode(LED_JIAN, LED_CLOSE, BRIGHT_ALL);
 460   2          
 461   2          segg[3] =0x00;
 462   2          segg[2] =(tabb[11]);
 463   2          segg[1] =(tabb[1]);
 464   2          segg[0] =(tabb[1]);
 465   2          
 466   2          LED_HEADLIGHT_OFF;
 467   2          LED_FWD_OFF;
 468   2        }
 469   1        
 470   1          DIS_inner_ring();
 471   1          DIS_outer_ring();
 472   1      }
 473          
 474          
 475          
 476          void Reset_Inner_Cnt()
 477          {
 478   1          Inner_Cnt =0;
 479   1          Inner_Cnt_10ms =0;
 480   1          Innerring_Over_flag =0;
 481   1      }
 482          
 483          unsigned char Get_Inner_Cnt()
 484          {
 485   1          return Inner_Cnt;
 486   1      }
 487          
C51 COMPILER V9.60.7.0   DISPLAY                                                           07/27/2024 08:24:10 PAGE 9   

 488          void InnerCnt_10ms()
 489          {
 490   1          Inner_Cnt_10ms++;
 491   1          if(Inner_Cnt_10ms>=16)
 492   1          {
 493   2              Inner_Cnt_10ms =0;
 494   2            
 495   2              Inner_Cnt++;
 496   2              if(Inner_Cnt >=15)
 497   2              {
 498   3                Inner_Cnt =0;
 499   3                Innerring_Over_flag =1;
 500   3              }
 501   2          }
 502   1      }
 503          
 504          void Reset_Outer_Cnt()
 505          {
 506   1          Outer_Cnt =0;
 507   1          Outer_Cnt_10ms =0;
 508   1          Outerring_Over_flag =0;
 509   1      }
 510          
 511          unsigned char Get_Outer_Cnt()
 512          {
 513   1          return Outer_Cnt;
 514   1      }
 515          
 516          void OuterCnt_10ms()
 517          {
 518   1          Outer_Cnt_10ms++;
 519   1          if(Outer_Cnt_10ms>=20)
 520   1          {
 521   2              Outer_Cnt_10ms =0;
 522   2            
 523   2              Outer_Cnt++;
 524   2              if(Outer_Cnt >=13)
 525   2              {
 526   3                Outer_Cnt =0;
 527   3                Outerring_Over_flag =1;
 528   3              }
 529   2          }
 530   1      }
 531          
 532          void Reset_Breath_Cnt()
 533          {
 534   1          Breath_Cnt =0;
 535   1          Breath_Cnt_10ms =0;
 536   1      }
 537          
 538          unsigned int Get_Breath_Cnt()
 539          {
 540   1          return Breath_Cnt;
 541   1      }
 542          
 543          void BreathCnt_10ms()
 544          {
 545   1          Breath_Cnt_10ms++;
 546   1          if(Breath_Cnt_10ms>=2)
 547   1          {
 548   2              Breath_Cnt_10ms =0;
 549   2            
C51 COMPILER V9.60.7.0   DISPLAY                                                           07/27/2024 08:24:10 PAGE 10  

 550   2              Breath_Cnt++;
 551   2              if(Breath_Cnt >=BREATHNUM)
 552   2              {
 553   3                Breath_Cnt =0;
 554   3              }
 555   2          }
 556   1      }
 557          
 558          void DIS_inner_ring()
 559          {
 560   1        unsigned char i=0;
 561   1        
 562   1        if(Innerring !=State_BREATHE)
 563   1        {
 564   2          Reset_Breath_Cnt();
 565   2        }
 566   1        if(Innerring !=State_CIRCLE)
 567   1        {
 568   2          Reset_Inner_Cnt();
 569   2        }
 570   1        
 571   1       switch(Innerring)
 572   1       {
 573   2         case State_OFF:  //熄灭 
 574   2            for(i =0;i<INNERBUFFNUM;i++)
 575   2            {
 576   3              Innerring_BUFF[i]=0x00;
 577   3            }
 578   2         
 579   2         
 580   2           break;
 581   2         
 582   2         
 583   2         case State_ON:    //全亮    
 584   2            for(i =0;i<INNERBUFFNUM;i++)
 585   2            {
 586   3              Innerring_BUFF[i] =0xFF;
 587   3         
 588   3            }
 589   2            break;
 590   2         
 591   2         
 592   2         case State_BREATHE:  //呼吸
 593   2           
 594   2            for(i =0;i<INNERBUFFNUM;i++)
 595   2            {
 596   3              if(Get_Breath_Cnt()<BREATHNUM/2)
 597   3              {
 598   4                Innerring_BUFF[i]=index_wave[Get_Breath_Cnt()];
 599   4              }
 600   3              else
 601   3              {
 602   4                Innerring_BUFF[i]=index_wave[(BREATHNUM-1)-Get_Breath_Cnt()];
 603   4              }
 604   3              
 605   3            }
 606   2         
 607   2         
 608   2            break;
 609   2         
 610   2         
 611   2         case State_CIRCLE://循环或旋转
C51 COMPILER V9.60.7.0   DISPLAY                                                           07/27/2024 08:24:10 PAGE 11  

 612   2          
 613   2           if(Get_Inner_Cnt()==0)
 614   2           {
 615   3              Innerring_BUFF[0] =gamm20[Inner_Cnt_10ms/2];
 616   3              Innerring_BUFF[1] =0xff;
 617   3              Innerring_BUFF[2] =gamm10[8+Inner_Cnt_10ms/2];
 618   3              Innerring_BUFF[3] =gamm10[Inner_Cnt_10ms/2];
 619   3              Innerring_BUFF[4] =0x00;
 620   3              Innerring_BUFF[5] =0x00;
 621   3              Innerring_BUFF[6] =0x00;
 622   3              Innerring_BUFF[7] =0x00;
 623   3              Innerring_BUFF[8] =0x00;
 624   3              Innerring_BUFF[9] =0x00;
 625   3              Innerring_BUFF[10] =0x00;
 626   3              Innerring_BUFF[11] =0x00;
 627   3              Innerring_BUFF[12] =0x00;
 628   3              Innerring_BUFF[13] =0x00;
 629   3              Innerring_BUFF[14] =gamm20[8+Inner_Cnt_10ms/2]; 
 630   3           }
 631   2            
 632   2           else if(Get_Inner_Cnt()==1)
 633   2           {
 634   3              Innerring_BUFF[0] =gamm20[Inner_Cnt_10ms/2+8];
 635   3              Innerring_BUFF[1] =gamm20[Inner_Cnt_10ms/2];
 636   3              Innerring_BUFF[2] =0xff;
 637   3              Innerring_BUFF[3] =gamm10[8+Inner_Cnt_10ms/2];
 638   3              Innerring_BUFF[4] =gamm10[Inner_Cnt_10ms/2];
 639   3           }
 640   2               else if(Get_Inner_Cnt()==2)
 641   2           {
 642   3              Innerring_BUFF[1] =gamm20[8+Inner_Cnt_10ms/2];
 643   3              Innerring_BUFF[2] =gamm20[Inner_Cnt_10ms/2];
 644   3              Innerring_BUFF[3] =0xff;
 645   3              Innerring_BUFF[4] =gamm10[8+Inner_Cnt_10ms/2];
 646   3              Innerring_BUFF[5] =gamm10[Inner_Cnt_10ms/2];
 647   3           }
 648   2               else if(Get_Inner_Cnt()==3)
 649   2           {
 650   3              Innerring_BUFF[2] =gamm20[8+Inner_Cnt_10ms/2];
 651   3              Innerring_BUFF[3] =gamm20[Inner_Cnt_10ms/2];
 652   3              Innerring_BUFF[4] =0xff;
 653   3              Innerring_BUFF[5] =gamm10[8+Inner_Cnt_10ms/2];
 654   3              Innerring_BUFF[6] =gamm10[Inner_Cnt_10ms/2];
 655   3           }
 656   2               else if(Get_Inner_Cnt()==4)
 657   2           {
 658   3              Innerring_BUFF[3] =gamm20[8+Inner_Cnt_10ms/2];
 659   3              Innerring_BUFF[4] =gamm20[Inner_Cnt_10ms/2];
 660   3              Innerring_BUFF[5] =0xff;
 661   3              Innerring_BUFF[6] =gamm10[8+Inner_Cnt_10ms/2];
 662   3              Innerring_BUFF[7] =gamm10[Inner_Cnt_10ms/2];
 663   3           }
 664   2               else if(Get_Inner_Cnt()==5)
 665   2           {
 666   3              Innerring_BUFF[4] =gamm20[8+Inner_Cnt_10ms/2];
 667   3              Innerring_BUFF[5] =gamm20[Inner_Cnt_10ms/2];
 668   3              Innerring_BUFF[6] =0xff;
 669   3              Innerring_BUFF[7] =gamm10[8+Inner_Cnt_10ms/2];
 670   3              Innerring_BUFF[8] =gamm10[Inner_Cnt_10ms/2];
 671   3           }
 672   2               else if(Get_Inner_Cnt()==6)
 673   2           {
C51 COMPILER V9.60.7.0   DISPLAY                                                           07/27/2024 08:24:10 PAGE 12  

 674   3              Innerring_BUFF[5] =gamm20[8+Inner_Cnt_10ms/2];
 675   3              Innerring_BUFF[6] =gamm20[Inner_Cnt_10ms/2];
 676   3              Innerring_BUFF[7] =0xff;
 677   3              Innerring_BUFF[8] =gamm10[8+Inner_Cnt_10ms/2];
 678   3              Innerring_BUFF[9] =gamm10[Inner_Cnt_10ms/2];
 679   3           }
 680   2               else if(Get_Inner_Cnt()==7)
 681   2           {
 682   3              Innerring_BUFF[6] =gamm20[8+Inner_Cnt_10ms/2];
 683   3              Innerring_BUFF[7] =gamm20[Inner_Cnt_10ms/2];
 684   3              Innerring_BUFF[8] =0xff;
 685   3              Innerring_BUFF[9] =gamm10[8+Inner_Cnt_10ms/2];
 686   3              Innerring_BUFF[10] =gamm10[Inner_Cnt_10ms/2];
 687   3           }
 688   2           else if(Get_Inner_Cnt()==8)
 689   2           {
 690   3              Innerring_BUFF[7] =gamm20[8+Inner_Cnt_10ms/2];
 691   3              Innerring_BUFF[8] =gamm20[Inner_Cnt_10ms/2];
 692   3              Innerring_BUFF[9] =0xff;
 693   3              Innerring_BUFF[10] =gamm10[8+Inner_Cnt_10ms/2];
 694   3              Innerring_BUFF[11] =gamm10[Inner_Cnt_10ms/2];
 695   3           }
 696   2           else if(Get_Inner_Cnt()==9)
 697   2           {
 698   3              Innerring_BUFF[8] =gamm20[8+Inner_Cnt_10ms/2];
 699   3              Innerring_BUFF[9] =gamm20[Inner_Cnt_10ms/2];
 700   3              Innerring_BUFF[10] =0xff;
 701   3              Innerring_BUFF[11] =gamm10[8+Inner_Cnt_10ms/2];
 702   3              Innerring_BUFF[12] =gamm10[Inner_Cnt_10ms/2];
 703   3           }
 704   2           else if(Get_Inner_Cnt()==10)
 705   2           {
 706   3              Innerring_BUFF[9] =gamm20[8+Inner_Cnt_10ms/2];
 707   3              Innerring_BUFF[10] =gamm20[Inner_Cnt_10ms/2];
 708   3              Innerring_BUFF[11] =0xff;
 709   3              Innerring_BUFF[12] =gamm10[8+Inner_Cnt_10ms/2];
 710   3              Innerring_BUFF[13] =gamm10[Inner_Cnt_10ms/2];
 711   3           }
 712   2           else if(Get_Inner_Cnt()==11)
 713   2           {
 714   3              Innerring_BUFF[10] =gamm20[8+Inner_Cnt_10ms/2];
 715   3              Innerring_BUFF[11] =gamm20[Inner_Cnt_10ms/2];
 716   3              Innerring_BUFF[12] =0xff;
 717   3              Innerring_BUFF[13] =gamm10[8+Inner_Cnt_10ms/2];
 718   3              Innerring_BUFF[14] =gamm10[Inner_Cnt_10ms/2];
 719   3           }
 720   2           else if(Get_Inner_Cnt()==12)
 721   2           {
 722   3              Innerring_BUFF[11] =gamm20[8+Inner_Cnt_10ms/2];
 723   3              Innerring_BUFF[12] =gamm20[Inner_Cnt_10ms/2];
 724   3              Innerring_BUFF[13] =0xff;
 725   3              Innerring_BUFF[14] =gamm10[8+Inner_Cnt_10ms/2];
 726   3              Innerring_BUFF[0] =gamm10[Inner_Cnt_10ms/2];
 727   3           }
 728   2           else if(Get_Inner_Cnt()==13)
 729   2           {
 730   3              Innerring_BUFF[12] =gamm20[8+Inner_Cnt_10ms/2];
 731   3              Innerring_BUFF[13] =gamm20[Inner_Cnt_10ms/2];
 732   3              Innerring_BUFF[14] =0xff;
 733   3              Innerring_BUFF[0] =gamm10[8+Inner_Cnt_10ms/2];
 734   3              Innerring_BUFF[1] =gamm10[Inner_Cnt_10ms/2];
 735   3           }
C51 COMPILER V9.60.7.0   DISPLAY                                                           07/27/2024 08:24:10 PAGE 13  

 736   2           else if(Get_Inner_Cnt()==14)
 737   2           {
 738   3              Innerring_BUFF[13] =gamm20[8+Inner_Cnt_10ms/2];
 739   3              Innerring_BUFF[14] =gamm20[Inner_Cnt_10ms/2];
 740   3              Innerring_BUFF[0] =0xff;
 741   3              Innerring_BUFF[1] =gamm10[8+Inner_Cnt_10ms/2];
 742   3              Innerring_BUFF[2] =gamm10[Inner_Cnt_10ms/2];
 743   3           }
 744   2      
 745   2            break;
 746   2         
 747   2         default:
 748   2            break;
 749   2       
 750   2       }
 751   1       
 752   1       
 753   1        LED1(Innerring_BUFF[0]);
 754   1        LED2(Innerring_BUFF[1]);
 755   1        LED3(Innerring_BUFF[2]);
 756   1        LED4(Innerring_BUFF[3]);
 757   1        LED5(Innerring_BUFF[4]);
 758   1        LED6(Innerring_BUFF[5]);
 759   1        LED7(Innerring_BUFF[6]);
 760   1        LED8(Innerring_BUFF[7]);
 761   1        LED9(Innerring_BUFF[8]);
 762   1        LED10(Innerring_BUFF[9]);
 763   1        LED11(Innerring_BUFF[10]);
 764   1        LED12(Innerring_BUFF[11]);
 765   1        LED13(Innerring_BUFF[12]);
 766   1        LED14(Innerring_BUFF[13]);
 767   1        LED15(Innerring_BUFF[14]);
 768   1       
 769   1      }
 770          
 771          void DIS_outer_ring()
 772          {
 773   1        unsigned char i=0;
 774   1        
 775   1        if(Outerring !=State_BREATHE)
 776   1        {
 777   2          Reset_Breath_Cnt();
 778   2        }
 779   1        if(Outerring !=State_CIRCLE)
 780   1        {
 781   2          Reset_Outer_Cnt();
 782   2        }
 783   1        
 784   1        
 785   1       switch(Outerring)
 786   1       {
 787   2         case State_OFF:  //熄灭 
 788   2            for(i =0;i<OUTERBUFFNUM;i++)
 789   2            {
 790   3              Outerring_BUFF[i] =0x00;
 791   3            }
 792   2           break;
 793   2         
 794   2         
 795   2         case State_ON:    //全亮    
 796   2            for(i =0;i<OUTERBUFFNUM;i++)
 797   2            {
C51 COMPILER V9.60.7.0   DISPLAY                                                           07/27/2024 08:24:10 PAGE 14  

 798   3              Outerring_BUFF[i] =0xFF;
 799   3            }
 800   2            break;
 801   2         
 802   2         
 803   2         case State_BREATHE:  //呼吸
 804   2           
 805   2            for(i =0;i<OUTERBUFFNUM;i++)
 806   2            {
 807   3              if(Get_Breath_Cnt()<BREATHNUM/2)
 808   3              {
 809   4                Outerring_BUFF[i]=index_wave[Get_Breath_Cnt()];
 810   4              }
 811   3              else
 812   3              {
 813   4                Outerring_BUFF[i]=index_wave[(BREATHNUM-1)-Get_Breath_Cnt()];
 814   4              }
 815   3            }
 816   2            break;
 817   2         
 818   2         
 819   2         case State_CIRCLE://循环或旋转
 820   2            if(Get_Outer_Cnt()==0)
 821   2            {
 822   3              
 823   3      //        if(Outer_Cnt_10ms<16)
 824   3      //        {
 825   3      //            Outerring_BUFF[0] =gamm10[Outer_Cnt_10ms/2];
 826   3      //        }
 827   3      //        else
 828   3      //        {
 829   3      //          Outerring_BUFF[0] =gamm10[7];
 830   3      //        }
 831   3              Outerring_BUFF[0] =gamm10[7];
 832   3              Outerring_BUFF[1] =0x00;
 833   3              Outerring_BUFF[2] =0x00;
 834   3              Outerring_BUFF[3] =0x00;
 835   3              Outerring_BUFF[4] =0x00;
 836   3              Outerring_BUFF[5] =0x00;
 837   3              Outerring_BUFF[6] =0x00;
 838   3              Outerring_BUFF[7] =0x00;
 839   3              Outerring_BUFF[8] =0x00;
 840   3              Outerring_BUFF[9] =0x00;
 841   3              Outerring_BUFF[10] =0x00;
 842   3              Outerring_BUFF[11] =0x00;
 843   3              Outerring_BUFF[12] =0x00;
 844   3            }
 845   2            if(Get_Outer_Cnt()==1)
 846   2            {
 847   3              if(Outer_Cnt_10ms<16)
 848   3              {
 849   4                  Outerring_BUFF[0] =gamm10[8+Outer_Cnt_10ms/2];
 850   4              }
 851   3              else
 852   3              {
 853   4                Outerring_BUFF[0] =0xff;
 854   4              }
 855   3              
 856   3              if(Outer_Cnt_10ms<16)
 857   3              {
 858   4                  Outerring_BUFF[1] =gamm10[Outer_Cnt_10ms/2];
 859   4              }
C51 COMPILER V9.60.7.0   DISPLAY                                                           07/27/2024 08:24:10 PAGE 15  

 860   3              else
 861   3              {
 862   4                Outerring_BUFF[1] =gamm10[7];
 863   4              }
 864   3            }
 865   2            if(Get_Outer_Cnt()==2)
 866   2            {
 867   3              
 868   3              if(Outer_Cnt_10ms<16)
 869   3              {
 870   4                  Outerring_BUFF[1] =gamm10[8+Outer_Cnt_10ms/2];
 871   4              }
 872   3              else
 873   3              {
 874   4                Outerring_BUFF[1] =0xff;
 875   4              }
 876   3              
 877   3              
 878   3              if(Outer_Cnt_10ms<16)
 879   3              {
 880   4                  Outerring_BUFF[2] =gamm10[Outer_Cnt_10ms/2];
 881   4              }
 882   3              else
 883   3              {
 884   4                Outerring_BUFF[2] =gamm10[7];
 885   4              }
 886   3            }
 887   2            if(Get_Outer_Cnt()==3)
 888   2            {
 889   3              if(Outer_Cnt_10ms<16)
 890   3              {
 891   4                  Outerring_BUFF[2] =gamm10[8+Outer_Cnt_10ms/2];
 892   4              }
 893   3              else
 894   3              {
 895   4                Outerring_BUFF[2] =0xff;
 896   4              }
 897   3              
 898   3              
 899   3              if(Outer_Cnt_10ms<16)
 900   3              {
 901   4                  Outerring_BUFF[3] =gamm10[Outer_Cnt_10ms/2];
 902   4              }
 903   3              else
 904   3              {
 905   4                Outerring_BUFF[3] =gamm10[7];
 906   4              }
 907   3            }
 908   2            if(Get_Outer_Cnt()==4)
 909   2            {
 910   3              
 911   3              if(Outer_Cnt_10ms<16)
 912   3              {
 913   4                  Outerring_BUFF[3] =gamm10[8+Outer_Cnt_10ms/2];
 914   4              }
 915   3              else
 916   3              {
 917   4                Outerring_BUFF[3] =0xff;
 918   4              }
 919   3              
 920   3              
 921   3              if(Outer_Cnt_10ms<16)
C51 COMPILER V9.60.7.0   DISPLAY                                                           07/27/2024 08:24:10 PAGE 16  

 922   3              {
 923   4                  Outerring_BUFF[4] =gamm10[Outer_Cnt_10ms/2];
 924   4              }
 925   3              else
 926   3              {
 927   4                Outerring_BUFF[4] =gamm10[7];
 928   4              }
 929   3            }
 930   2            if(Get_Outer_Cnt()==5)
 931   2            {
 932   3              if(Outer_Cnt_10ms<16)
 933   3              {
 934   4                  Outerring_BUFF[4] =gamm10[8+Outer_Cnt_10ms/2];
 935   4              }
 936   3              else
 937   3              {
 938   4                Outerring_BUFF[4] =0xff;
 939   4              }
 940   3              
 941   3              if(Outer_Cnt_10ms<16)
 942   3              {
 943   4                  Outerring_BUFF[5] =gamm10[Outer_Cnt_10ms/2];
 944   4              }
 945   3              else
 946   3              {
 947   4                Outerring_BUFF[5] =gamm10[7];
 948   4              }
 949   3            }
 950   2            if(Get_Outer_Cnt()==6)
 951   2            {
 952   3              if(Outer_Cnt_10ms<16)
 953   3              {
 954   4                  Outerring_BUFF[5] =gamm10[8+Outer_Cnt_10ms/2];
 955   4              }
 956   3              else
 957   3              {
 958   4                Outerring_BUFF[5] =0xff;
 959   4              }
 960   3              
 961   3              if(Outer_Cnt_10ms<16)
 962   3              {
 963   4                  Outerring_BUFF[6] =gamm10[Outer_Cnt_10ms/2];
 964   4              }
 965   3              else
 966   3              {
 967   4                Outerring_BUFF[6] =gamm10[7];
 968   4              }
 969   3            }
 970   2            if(Get_Outer_Cnt()==7)
 971   2            {
 972   3              if(Outer_Cnt_10ms<16)
 973   3              {
 974   4                  Outerring_BUFF[6] =gamm10[8+Outer_Cnt_10ms/2];
 975   4              }
 976   3              else
 977   3              {
 978   4                Outerring_BUFF[6] =0xff;
 979   4              }
 980   3              
 981   3              
 982   3              
 983   3              if(Outer_Cnt_10ms<16)
C51 COMPILER V9.60.7.0   DISPLAY                                                           07/27/2024 08:24:10 PAGE 17  

 984   3              {
 985   4                  Outerring_BUFF[7] =gamm10[Outer_Cnt_10ms/2];
 986   4              }
 987   3              else
 988   3              {
 989   4                Outerring_BUFF[7] =gamm10[7];
 990   4              }
 991   3            }
 992   2            if(Get_Outer_Cnt()==8)
 993   2            {
 994   3              
 995   3              if(Outer_Cnt_10ms<16)
 996   3              {
 997   4                  Outerring_BUFF[7] =gamm10[8+Outer_Cnt_10ms/2];
 998   4              }
 999   3              else
1000   3              {
1001   4                Outerring_BUFF[7] =0xff;
1002   4              }
1003   3              
1004   3              
1005   3              if(Outer_Cnt_10ms<16)
1006   3              {
1007   4                  Outerring_BUFF[8] =gamm10[Outer_Cnt_10ms/2];
1008   4              }
1009   3              else
1010   3              {
1011   4                Outerring_BUFF[8] =gamm10[7];
1012   4              }
1013   3              
1014   3              
1015   3            }
1016   2            if(Get_Outer_Cnt()==9)
1017   2            {
1018   3              
1019   3              if(Outer_Cnt_10ms<16)
1020   3              {
1021   4                  Outerring_BUFF[8] =gamm10[8+Outer_Cnt_10ms/2];
1022   4              }
1023   3              else
1024   3              {
1025   4                Outerring_BUFF[8] =0xff;
1026   4              }
1027   3      
1028   3              if(Outer_Cnt_10ms<16)
1029   3              {
1030   4                  Outerring_BUFF[9] =gamm10[Outer_Cnt_10ms/2];
1031   4              }
1032   3              else
1033   3              {
1034   4                Outerring_BUFF[9] =gamm10[7];
1035   4              }
1036   3            }
1037   2            if(Get_Outer_Cnt()==10)
1038   2            {
1039   3              
1040   3              if(Outer_Cnt_10ms<16)
1041   3              {
1042   4                  Outerring_BUFF[9] =gamm10[8+Outer_Cnt_10ms/2];
1043   4              }
1044   3              else
1045   3              {
C51 COMPILER V9.60.7.0   DISPLAY                                                           07/27/2024 08:24:10 PAGE 18  

1046   4                Outerring_BUFF[9] =0xff;
1047   4              }
1048   3              
1049   3              if(Outer_Cnt_10ms<16)
1050   3              {
1051   4                  Outerring_BUFF[10] =gamm10[Outer_Cnt_10ms/2];
1052   4              }
1053   3              else
1054   3              {
1055   4                Outerring_BUFF[10] =gamm10[7];
1056   4              }
1057   3            }
1058   2            if(Get_Outer_Cnt()==11)
1059   2            {
1060   3              if(Outer_Cnt_10ms<16)
1061   3              {
1062   4                  Outerring_BUFF[10] =gamm10[8+Outer_Cnt_10ms/2];
1063   4              }
1064   3              else
1065   3              {
1066   4                Outerring_BUFF[10] =0xff;
1067   4              }
1068   3              
1069   3              if(Outer_Cnt_10ms<16)
1070   3              {
1071   4                  Outerring_BUFF[11] =gamm10[Outer_Cnt_10ms/2];
1072   4              }
1073   3              else
1074   3              {
1075   4                Outerring_BUFF[11] =gamm10[7];
1076   4              }     
1077   3            }
1078   2            if(Get_Outer_Cnt()==12)
1079   2            {
1080   3              
1081   3              if(Outer_Cnt_10ms<16)
1082   3              {
1083   4                  Outerring_BUFF[11] =gamm10[8+Outer_Cnt_10ms/2];
1084   4              }
1085   3              else
1086   3              {
1087   4                Outerring_BUFF[11] =0xff;
1088   4              }
1089   3              
1090   3              
1091   3              if(Outer_Cnt_10ms<16)
1092   3              {
1093   4                  Outerring_BUFF[12] =gamm10[Outer_Cnt_10ms];
1094   4              }
1095   3              else
1096   3              {
1097   4                Outerring_BUFF[12] =0xff;
1098   4              }
1099   3            }
1100   2            
1101   2         
1102   2            break;
1103   2         
1104   2         default:
1105   2            break;
1106   2       
1107   2       }
C51 COMPILER V9.60.7.0   DISPLAY                                                           07/27/2024 08:24:10 PAGE 19  

1108   1       
1109   1       LED20(Outerring_BUFF[0]);
1110   1       LED21(Outerring_BUFF[0]);
1111   1       LED38(Outerring_BUFF[0]);
1112   1       LED39(Outerring_BUFF[0]);
1113   1       LED40(Outerring_BUFF[0]);
1114   1      
1115   1       LED19(Outerring_BUFF[1]);
1116   1       LED22(Outerring_BUFF[1]);
1117   1       LED37(Outerring_BUFF[1]);
1118   1       LED41(Outerring_BUFF[1]);
1119   1       
1120   1       LED18(Outerring_BUFF[2]);
1121   1       LED23(Outerring_BUFF[2]);
1122   1       LED36(Outerring_BUFF[2]);
1123   1       LED34(Outerring_BUFF[2]);
1124   1       LED42(Outerring_BUFF[2]);
1125   1       LED44(Outerring_BUFF[2]);
1126   1       
1127   1       LED16(Outerring_BUFF[3]);
1128   1       LED46(Outerring_BUFF[3]);
1129   1       
1130   1       LED17(Outerring_BUFF[4]);
1131   1       LED24(Outerring_BUFF[4]);
1132   1       LED35(Outerring_BUFF[4]);
1133   1       LED32(Outerring_BUFF[4]);
1134   1       LED43(Outerring_BUFF[4]);
1135   1       LED47(Outerring_BUFF[4]);
1136   1       
1137   1       LED33(Outerring_BUFF[5]);
1138   1       LED45(Outerring_BUFF[5]);
1139   1       
1140   1       LED31(Outerring_BUFF[6]);
1141   1       LED48(Outerring_BUFF[6]);
1142   1       
1143   1       LED30(Outerring_BUFF[7]);
1144   1       LED49(Outerring_BUFF[7]);
1145   1       
1146   1       LED29(Outerring_BUFF[8]);
1147   1       LED50(Outerring_BUFF[8]);
1148   1       
1149   1       LED28(Outerring_BUFF[9]);
1150   1       LED51(Outerring_BUFF[9]);
1151   1       
1152   1       LED27(Outerring_BUFF[10]);
1153   1       LED52(Outerring_BUFF[10]);
1154   1       
1155   1       LED26(Outerring_BUFF[11]);
1156   1       LED53(Outerring_BUFF[11]);
1157   1       
1158   1       LED25(Outerring_BUFF[12]);
1159   1       LED54(Outerring_BUFF[12]);
1160   1      }
1161          
1162          
1163          
1164          void Full_Bright(void)
1165          {
1166   1      
1167   1        static xdata unsigned char BUFF[AIPBUFFNUM]={0};
1168   1        static xdata unsigned char seg_BUFF[4]={0};
1169   1        unsigned int j;
C51 COMPILER V9.60.7.0   DISPLAY                                                           07/27/2024 08:24:10 PAGE 20  

1170   1        
1171   1        
1172   1        if(memcmp(&segg, &seg_BUFF, 4) != 0) //now和new比较
1173   1        {
1174   2          memcpy(&seg_BUFF, &segg, 4); // 结构体赋值
1175   2          
1176   2          
1177   2      //    LEDC0DATA2 =(segg[0]&0xF0);     /*1*/
1178   2      //    LEDC0DATA3 = (segg[0]&0x0F);      /*1*/
1179   2      //    
1180   2      //    LEDC1DATA2 =  (segg[1]&0xF0);;      /*2*/
1181   2      //    LEDC1DATA3 = (segg[1]&0x0F);      /*2*/
1182   2      //    
1183   2      //    LEDC2DATA2 = (segg[2]&0xF0);      /*3*/
1184   2      //    LEDC2DATA3 = (segg[2]&0x0F);      /*3*/
1185   2      //    
1186   2      //    LEDC3DATA2 =(segg[3]&0xF0);     /*4*/
1187   2      //    LEDC3DATA3 = (segg[3]&0x0F);      /*4*/
1188   2      //    
1189   2      //    
1190   2      //    LEDC4DATA2 =0x00 ;      /*4*/
1191   2      //    LEDC4DATA3 = 0x00;      /*4*/
1192   2      //    
1193   2      //    LEDC5DATA2 = 0x00;      /*4*/
1194   2      //    LEDC5DATA3 = 0x00 ;   /*4*/
1195   2      
1196   2      
1197   2      
1198   2      //    LEDC2DATA2 =(segg[0]&0xF0);     /*1*/
1199   2      //    LEDC2DATA3 = (segg[0]&0x0F);      /*1*/
1200   2      //    
1201   2      //    LEDC3DATA2 =  (segg[1]&0xF0);;      /*2*/
1202   2      //    LEDC3DATA3 = (segg[1]&0x0F);      /*2*/
1203   2      //    
1204   2      //    LEDC4DATA2 = (segg[2]&0xF0);      /*3*/
1205   2      //    LEDC4DATA3 = (segg[2]&0x0F);      /*3*/
1206   2      //    
1207   2      //    LEDC5DATA2 =(segg[3]&0xF0);     /*4*/
1208   2      //    LEDC5DATA3 = (segg[3]&0x0F);      /*4*/
1209   2      //    
1210   2      //    
1211   2      //    LEDC0DATA2 =0x00 ;      /*4*/
1212   2      //    LEDC0DATA3 = 0x00;      /*4*/
1213   2      //    
1214   2      //    LEDC1DATA2 = 0x00;      /*4*/
1215   2      //    LEDC1DATA3 = 0x00 ;   /*4*/
1216   2          
1217   2          
1218   2        }
1219   1        
1220   1        
1221   1        if(memcmp(&LED_Buff, &BUFF, sizeof(BUFF)) != 0) //now和new比较
1222   1        {
1223   2          memcpy(&BUFF, &LED_Buff, sizeof(BUFF)); // 结构体赋值
1224   2          
1225   2          write_cmd(0x78);            //GRID1~GRID8有效，RAM地址自加
1226   2          write_cmd(0x20);  
1227   2          AiP33624_start();         //开始
1228   2          AiP33624_write(0XC0);       //写入地址
1229   2          for(j=0;j<AIPBUFFNUM;j++)
1230   2          {   
1231   3              AiP33624_write(LED_Buff[j]);
C51 COMPILER V9.60.7.0   DISPLAY                                                           07/27/2024 08:24:10 PAGE 21  

1232   3          }
1233   2          AiP33624_stop();          //结束
1234   2        }
1235   1      }
1236          
1237          
1238          
1239          void Didplay_TIME(void)
1240          {
1241   1        
1242   1        static unsigned char g_TaskTick =0;
1243   1        
1244   1          g_TaskTick++;                //液晶屏轮转
1245   1      
1246   1        
1247   1         IO_A =1;   //(P4TRIS |=0b00010000)//P44
1248   1         IO_B =1;  //(P4TRIS |=0b00000010)//P41
1249   1         IO_C =1;   //(P4TRIS |=0b01000000)//P46
1250   1         IO_D =1;   //(P4TRIS |=0b00001000)//P43
1251   1         IO_E =1;   //(P4TRIS |=0b00000001)//P40
1252   1         IO_F =1;   //(P4TRIS |=0b10000000)//P47
1253   1         IO_G =1;  // (P4TRIS |=0b00000100)//P42
1254   1         IO_S =1;   //(P4TRIS |=0b00100000)//P45
1255   1        
1256   1         IO_A_DIS;  // (P4TRIS &=~0b00100000)//P44
1257   1         IO_B_DIS;  // (P4TRIS &=~0b00000010)//P41
1258   1         IO_C_DIS;  // (P4TRIS &=~0b01000000)//P46
1259   1         IO_D_DIS;  // (P4TRIS &=~0b00001000)//P43
1260   1         IO_E_DIS;  // (P4TRIS &=~0b00000001)//P40
1261   1         IO_F_DIS;  // (P4TRIS &=~0b10000000)//P47
1262   1         IO_G_DIS;  // (P4TRIS &=~0b00000100)//P42
1263   1         IO_S_DIS; //  (P4TRIS &=~0b00100000)//P45
1264   1        
1265   1         COM1 =1;
1266   1         COM2 =1;  
1267   1         COM3 =1;
1268   1         COM4 =1; 
1269   1          
1270   1        if(g_TaskTick ==1)
1271   1        {
1272   2            if(segg[0]&LED_A)   
1273   2            IO_A_EN;   // A  
1274   2             
1275   2            if(segg[0]&LED_B)  
1276   2              IO_B_EN;   // B  
1277   2              
1278   2            if(segg[0]&LED_C) 
1279   2              IO_C_EN;   // C   
1280   2             
1281   2            if(segg[0]&LED_D)  
1282   2            IO_D_EN;   // D     
1283   2            
1284   2            if(segg[0]&LED_E) 
1285   2             IO_E_EN;   // D     SEG4     
1286   2             
1287   2            if(segg[0]&LED_F) 
1288   2              IO_F_EN;   // E    SEG5
1289   2             
1290   2            if(segg[0]&LED_G)   
1291   2              IO_G_EN;   // F    SEG6 
1292   2             
1293   2            if(segg[0]&LED_S) 
C51 COMPILER V9.60.7.0   DISPLAY                                                           07/27/2024 08:24:10 PAGE 22  

1294   2              IO_S_EN;                     // dp   SEG8
1295   2            
1296   2        //   P0TRIS |=0x01;                      //com口置位
1297   2            COM1 =0;
1298   2          
1299   2        }
1300   1        else if(g_TaskTick ==2)
1301   1        {
1302   2          if(segg[1]&LED_A)  
1303   2            IO_A_EN;   // A    
1304   2            
1305   2            if(segg[1]&LED_B) 
1306   2              IO_B_EN;   // B   
1307   2              
1308   2            if(segg[1]&LED_C)
1309   2              IO_C_EN;   // C   
1310   2              
1311   2            if(segg[1]&LED_D) 
1312   2              IO_D_EN;  
1313   2            
1314   2            if(segg[1]&LED_E)  
1315   2              IO_E_EN;   // D    SEG4     
1316   2            
1317   2            if(segg[1]&LED_F)
1318   2              IO_F_EN;   // E    SEG5
1319   2              
1320   2            if(segg[1]&LED_G)   
1321   2             IO_G_EN;   // F         SEG6      
1322   2             
1323   2            if(segg[1]&LED_S) 
1324   2              IO_S_EN;              // dp   SEG8  
1325   2            
1326   2          //    P0TRIS |=0x02;                  //com口置位
1327   2                  COM2 =0; 
1328   2        }
1329   1        else if(g_TaskTick ==3)
1330   1        {
1331   2            if(segg[2]&LED_A)   
1332   2            IO_A_EN;   // A  
1333   2             
1334   2            if(segg[2]&LED_B)  
1335   2              IO_B_EN;   // B  
1336   2              
1337   2            if(segg[2]&LED_C) 
1338   2              IO_C_EN;   // C   
1339   2             
1340   2            if(segg[2]&LED_D)  
1341   2            IO_D_EN;   // G    SEG7 
1342   2            
1343   2            if(segg[2]&LED_E) 
1344   2             IO_E_EN;   // D     SEG4     
1345   2             
1346   2            if(segg[2]&LED_F) 
1347   2              IO_F_EN;   // E    SEG5
1348   2             
1349   2            if(segg[2]&LED_G)   
1350   2              IO_G_EN;   // F    SEG6 
1351   2             
1352   2            if(segg[2]&LED_S) 
1353   2              IO_S_EN;  
1354   2            
1355   2           // P0TRIS |=0x04;                            //com口置位
C51 COMPILER V9.60.7.0   DISPLAY                                                           07/27/2024 08:24:10 PAGE 23  

1356   2              COM3 =0;
1357   2        }
1358   1        else if(g_TaskTick ==4)
1359   1        {
1360   2          if(segg[3]&LED_A)  
1361   2            IO_A_EN;   // A    
1362   2            
1363   2            if(segg[3]&LED_B) 
1364   2              IO_B_EN;   // B   
1365   2              
1366   2            if(segg[3]&LED_C)
1367   2              IO_C_EN;   // C   
1368   2              
1369   2            if(segg[3]&LED_D) 
1370   2              IO_D_EN;   // G    SEG7
1371   2            
1372   2            if(segg[3]&LED_E)  
1373   2              IO_E_EN;   // D    SEG4     
1374   2            
1375   2            if(segg[3]&LED_F)
1376   2              IO_F_EN;   // E    SEG5
1377   2              
1378   2            if(segg[3]&LED_G)   
1379   2             IO_G_EN;   // F         SEG6      
1380   2             
1381   2            if(segg[3]&LED_S) 
1382   2              IO_S_EN;              // dp   SEG8  
1383   2                                       
1384   2          //   P0TRIS |=0x08;                  //com口置位
1385   2             COM4 =0;
1386   2            g_TaskTick =0;         //重新开始   
1387   2        }
1388   1      }
1389          


MODULE INFORMATION:   STATIC OVERLAYABLE
   CODE SIZE        =   5158    ----
   CONSTANT SIZE    =     12    ----
   XDATA SIZE       =    202    ----
   PDATA SIZE       =   ----    ----
   DATA SIZE        =   ----    ----
   IDATA SIZE       =   ----    ----
   BIT SIZE         =   ----    ----
   EDATA SIZE       =   ----    ----
   HDATA SIZE       =   ----    ----
   XDATA CONST SIZE =   ----    ----
   FAR CONST SIZE   =   ----    ----
END OF MODULE INFORMATION.


C51 COMPILATION COMPLETE.  0 WARNING(S),  0 ERROR(S)
