C51 COMPILER V9.60.7.0   MAIN                                                              07/27/2024 08:24:07 PAGE 1   


C51 COMPILER V9.60.7.0, COMPILATION OF MODULE MAIN
OBJECT MODULE PLACED IN ..\OBJ\main.obj
COMPILER INVOKED BY: D:\Program Files\Keil_v5\C51\BIN\C51.EXE ..\USER\main.c LARGE OMF2 OPTIMIZE(1,SPEED) BROWSE INCDIR(
                    -..\CORE;..\FWLib\inc;..\SYSTEM;..\USER;..\TOUCHLib;..\FLASH_ROLL_LIB;..\GET_TEMP;..\ENCAP;..\VIEW;..\MODEL;..\GLOBAL) DE
                    -BUG PRINT(..\OBJ\main.lst) TABS(2) OBJECT(..\OBJ\main.obj)

line level    source

   1          /*******************************************************************************
   2           * Copyright (C) 2019 China Micro Semiconductor Limited Company. All Rights Reserved.
   3           *
   4           * This software is owned and published by:
   5           * CMS LLC, No 2609-10, Taurus Plaza, TaoyuanRoad, NanshanDistrict, Shenzhen, China.
   6           *
   7           * BY DOWNLOADING, INSTALLING OR USING THIS SOFTWARE, YOU AGREE TO BE BOUND
   8           * BY ALL THE TERMS AND CONDITIONS OF THIS AGREEMENT.
   9           *
  10           * This software contains source code for use with CMS
  11           * components. This software is licensed by CMS to be adapted only
  12           * for use in systems utilizing CMS components. CMS shall not be
  13           * responsible for misuse or illegal use of this software for devices not
  14           * supported herein. CMS is providing this software "AS IS" and will
  15           * not be responsible for issues arising from incorrect user implementation
  16           * of the software.
  17           *
  18           * This software may be replicated in part or whole for the licensed use,
  19           * with the restriction that this Disclaimer and Copyright notice must be
  20           * included with each copy of this software, whether used in part or whole,
  21           * at all times.
  22           */
  23          
  24          /****************************************************************************/
  25          /** \file main.c
  26          **
  27          **
  28          **
  29          **  History:
  30          **
  31          *****************************************************************************/
  32          /****************************************************************************/
  33          /*  include files
  34          *****************************************************************************/
  35          #include "main.h"
  36          #include <CMS\CMS80F761x.h>
  37          #include "GlobalVar.h"
  38          #include "MCUHardware.h"
  39          #include "Display.H"
  40          #include "bsp_led.h"
  41          #include "ChkKey.h"
  42          #include "DealKey.h"
  43          #include "AiP33624.h"
  44          #include "Clock.h"
  45          #include "UARTxDrive.h"
  46          #include "DealUARTKey.h"
  47          #include "task_Event.h"
  48          
  49          #define cmscksel()    EA = 0,_nop_(), _nop_(),TA = 0xAA;TA = 0x55;SCKSEL = 0x04,EA = 1;
  50          
  51          void main(void)
  52          {
  53   1          
C51 COMPILER V9.60.7.0   MAIN                                                              07/27/2024 08:24:07 PAGE 2   

  54   1          f_MCUHardware_Init();//MCU初始化
  55   1          bsp_InitLED();
  56   1          AiP33624_init();
  57   1      //  f_GlobalVar_Init();//全局变量初始化
  58   1      //  f_LedDrive_Init();//Led驱动初始化
  59   1          f_ChkKey_Init();//键值检测驱动初始化
  60   1          f_UARTxDrive_Init();//UART收发驱动初始化
  61   1      //  f_TM1628Drive_Init();//TM1628驱动初始化
  62   1          cmscksel();//触摸时钟源必须始终选择HSI
  63   1      
  64   1          WDT_ClearWDT();
  65   1          Led_Init(); 
  66   1          f_DealKey_Init();//按键事件检测初始化
  67   1      //  f_DealManCtrl_Init();//流程控制初始化
  68   1      //  f_DealDsp_Init();//显示控制初始化
  69   1          f_DealUARTKey_Init();//按键板通讯初始化
  70   1           
  71   1          
  72   1      
  73   1          while (1)
  74   1          {
  75   2              WDT_ClearWDT();
  76   2              if(1)
  77   2              {
  78   3                  f_DealUARTKey_Routine();
  79   3                  Task_load_Event();
  80   3                  Led_Dis();
  81   3                  Full_Bright();
  82   3              }
  83   2            
  84   2              if(u8Clock_1MsFlag!=0)
  85   2              {
  86   3                  
  87   3                  f_UARTxDrive_1MsRoutine();
  88   3                
  89   3                  f_DealUARTKey_1MsRoutine();//
  90   3                  u8Clock_1MsFlag=0;
  91   3              }
  92   2              
  93   2              if(u8Clock_2MsFlag!=0)
  94   2              {
  95   3                
  96   3                  u8Clock_2MsFlag=0;
  97   3              }
  98   2              
  99   2              if(u8Clock_5MsFlag!=0)
 100   2              {
 101   3                  
 102   3                  u8Clock_5MsFlag=0;
 103   3              }
 104   2      
 105   2              if(u8Clock_10MsFlag!=0)
 106   2              {    
 107   3                  f_ChkKey_10MsRoutine();//按键扫描
 108   3                  f_DealKey_10MsRoutine();//按键判断
 109   3                
 110   3                
 111   3                  Head_Comm_cmp();
 112   3                
 113   3                  InnerCnt_10ms();
 114   3                  OuterCnt_10ms();
 115   3                  BreathCnt_10ms();
C51 COMPILER V9.60.7.0   MAIN                                                              07/27/2024 08:24:07 PAGE 3   

 116   3                
 117   3                
 118   3                  u8Clock_10MsFlag=0;
 119   3              }
 120   2      
 121   2              
 122   2              if(u8Clock_50MsFlag!=0)
 123   2              {
 124   3                  u8Clock_50MsFlag=0;
 125   3                
 126   3                
 127   3              }
 128   2              
 129   2              if(u8Clock_100MsFlag!=0)
 130   2              {
 131   3                  f_DealUARTKey_100MsRoutine();//
 132   3                
 133   3                
 134   3                  u8Clock_100MsFlag=0;
 135   3              }
 136   2      
 137   2              if(u8Clock_500MsFlag!=0)
 138   2              {
 139   3                  u8Clock_500MsFlag=0;
 140   3              
 141   3              }
 142   2      
 143   2              if(u8Clock_1000MsFlag!=0)
 144   2              {
 145   3                 u8Clock_1000MsFlag=0;
 146   3              }
 147   2          }    
 148   1      }
 149          
 150          /*****************************************************************************
 151           ** \brief   CCTOUCH_IRQHandler
 152           **
 153           ** \param [in]  none   
 154           **
 155           ** \return none
 156           *****************************************************************************/
 157          #define  CCTOUCH_VECTOR 27
 158          #define __CMS_KEYCON      *(volatile unsigned char xdata *) 0xF6D9
 159          void CCTOUCH_IRQHandler(void)  interrupt CCTOUCH_VECTOR
 160          {
 161   1        if(0x01 == (__CMS_KEYCON & 0x01))//判断检测完成
 162   1        {
 163   2          __CMS_KEYCON &= ~0x80;  //关闭触摸中断
 164   2          if(0 == s_TouchProcessFlag)
 165   2          {
 166   3            __CMS_GetTouchKeyValue();
 167   3          }
 168   2        }
 169   1      }
 170          


MODULE INFORMATION:   STATIC OVERLAYABLE
   CODE SIZE        =    226    ----
   CONSTANT SIZE    =   ----    ----
   XDATA SIZE       =   ----    ----
   PDATA SIZE       =   ----    ----
C51 COMPILER V9.60.7.0   MAIN                                                              07/27/2024 08:24:07 PAGE 4   

   DATA SIZE        =   ----    ----
   IDATA SIZE       =   ----    ----
   BIT SIZE         =   ----    ----
   EDATA SIZE       =   ----    ----
   HDATA SIZE       =   ----    ----
   XDATA CONST SIZE =   ----    ----
   FAR CONST SIZE   =   ----    ----
END OF MODULE INFORMATION.


C51 COMPILATION COMPLETE.  0 WARNING(S),  0 ERROR(S)
