C51 COMPILER V9.60.7.0   MCU_HARDWARE                                                      11/07/2023 15:50:01 PAGE 1   


C51 COMPILER V9.60.7.0, COMPILATION OF MODULE MCU_HARDWARE
OBJECT MODULE PLACED IN ..\OBJ\MCU_Hardware.obj
COMPILER INVOKED BY: C:\Keil_v5\C51\BIN\C51.EXE ..\VIEW\MCU_Hardware.c LARGE OMF2 OPTIMIZE(2,SPEED) BROWSE MODDP2 INCDIR
                    -(..\CORE;..\FWLib\inc;..\SYSTEM;..\USER;..\TOUCHLib;..\FLASH_ROLL_LIB;..\GET_TEMP;..\ENCAP;..\VIEW;..\MODEL;..\GLOBAL) D
                    -EBUG PRINT(..\OBJ\MCU_Hardware.lst) OBJECT(..\OBJ\MCU_Hardware.obj)

line level    source

   1          /*=========================================================
   2          * 文 件 名: MCU_Hardware.c
   3          * 版    权: 火星人
   4          * 芯    片:  
   5          * 功能描述: 洗碗机与CPU有关的函数 
   6          * 包含文件: IO_Define.h, MCU_Hardware.h 
   7          * 修改日期                      修改人          修改说明 
   8          *                                                        
   9          =========================================================*/
  10                  
  11          #include "stdlib.h"
  12          #include <stdio.h>
  13          #include "IO_Define.h"  
  14          #include "MCU_Hardware.h"
  15          #include "GlobalVar.h"  
  16          
  17          //原厂驱动
  18          #include "wdt.h"
  19          #include "uart_app.h"
  20          // 看门狗溢出时间约350ms，关总中断，清看门狗，使能看门狗复位，开总中断
  21          #define clrwdt()   \
  22                  \       
  23          {              \
  24                          u8 ea_tmp;     \
  25                          ea_tmp = EA;   \
  26                          CKCON |= 0xC0; \
  27                          CKCON &= 0xDF; \
  28                          EA = 0;        \
  29                          _nop_();       \
  30                          _nop_();       \
  31                          TA = 0xAA;     \
  32                          TA = 0x55;     \
  33                          WDCON = 0x03;  \
  34                          EA = ea_tmp;   \
  35                  }
  36          
  37          // 打开内部时钟
  38          #define cmscksel() \
  39                  {                \
  40                          u8 ea_tmp;     \
  41                          ea_tmp = EA;   \
  42                          EA = 0;        \
  43                          _nop_();       \
  44                          _nop_();       \
  45                          TA = 0xAA;     \
  46                          TA = 0x55;     \
  47                          SCKSEL = 0x04; \
  48                          _nop_();       \
  49                          _nop_();       \
  50                          _nop_();       \
  51                          _nop_();       \
  52                          _nop_();       \
  53                          _nop_();       \
C51 COMPILER V9.60.7.0   MCU_HARDWARE                                                      11/07/2023 15:50:01 PAGE 2   

  54                          EA = ea_tmp;   \
  55                  }
  56          
  57          /****************************************************************************/
  58          /*      Local pre-processor symbols('#define')
  59          *****************************************************************************/
  60          // 看门狗溢出时间约350ms，关总中断，清看门狗，使能看门狗复位，开总中断
  61          #define clrwdt()   \
  62                  \       
  63          {              \
  64                          u8 ea_tmp;     \
  65                          ea_tmp = EA;   \
  66                          CKCON |= 0xC0; \
  67                          CKCON &= 0xDF; \
  68                          EA = 0;        \
  69                          _nop_();       \
  70                          _nop_();       \
  71                          TA = 0xAA;     \
  72                          TA = 0x55;     \
  73                          WDCON = 0x03;  \
  74                          EA = ea_tmp;   \
  75                  }
  76          
  77          // 打开内部时钟
  78          #define cmscksel() \
  79                  {                \
  80                          u8 ea_tmp;     \
  81                          ea_tmp = EA;   \
  82                          EA = 0;        \
  83                          _nop_();       \
  84                          _nop_();       \
  85                          TA = 0xAA;     \
  86                          TA = 0x55;     \
  87                          SCKSEL = 0x04; \
  88                          _nop_();       \
  89                          _nop_();       \
  90                          _nop_();       \
  91                          _nop_();       \
  92                          _nop_();       \
  93                          _nop_();       \
  94                          EA = ea_tmp;   \
  95                  }
  96          /****************************************************************************/
  97          /*      Global variable definitions(declared in header file with 'extern')
  98          *****************************************************************************/
  99          
 100          /****************************************************************************/
 101          /*      Local type definitions('typedef')
 102          *****************************************************************************/
 103          
 104          /****************************************************************************/
 105          /*      Local variable  definitions('static')
 106          *****************************************************************************/
 107          
 108          /****************************************************************************/
 109          /*      Local function prototypes('static')
 110          *****************************************************************************/
 111          
 112          /****************************************************************************/
 113          /*      Function implementation - global ('extern') and local('static')
 114          *****************************************************************************/
 115          
C51 COMPILER V9.60.7.0   MCU_HARDWARE                                                      11/07/2023 15:50:01 PAGE 3   

 116          /*****************************************************************************
 117           ** \brief       GPIO_Init
 118           **
 119           ** \param [in]  none
 120           **
 121           ** \return 0
 122           *****************************************************************************/
 123          // 触摸口IO方向，可做输入或输出，做输出时PxxCFG寄存器需赋值0，默认做输出提高抗干扰
 124          // IO方向寄存器PxTRIS对应BIT值：
 125          // 0:输入,抗干扰较差
 126          // 1:输出,抗干扰会好，灵敏度可能会降低
 127          void f_MCUHardware_GPIO_Init(void)
 128          {
 129   1              P0 = 0x00;
 130   1              P1 = 0x00;
 131   1              P2 = 0x00;
 132   1              P3 = 0x00;
 133   1              P4 = 0x00;
 134   1              P5 = 0X00;
 135   1      
 136   1              P0TRIS = 0xFF; // 0:input mode  1:output mode
 137   1              P1TRIS = 0xFF;
 138   1              P2TRIS = 0xFF;
 139   1              P3TRIS = 0xFF;
 140   1              P4TRIS = 0xFF;
 141   1              P5TRIS = 0xFF;
 142   1              /*
 143   1              P0OD = 0x00;            //0:normal output       1:opendrain output
 144   1              P1OD = 0x00;
 145   1              P2OD = 0x00;
 146   1              P5OD = 0X00;
 147   1      
 148   1              P0UP = 0x00;            //0:disable     pull high       1:enable pull high
 149   1              P1UP = 0x00;
 150   1              P2UP = 0x00;
 151   1              P5UP = 0X00;
 152   1      
 153   1              P0RD = 0x00;            //0:disbale pull low    1:enable pull low
 154   1              P1RD = 0x00;
 155   1              P2RD = 0x00;
 156   1              P5RD = 0X00;
 157   1      
 158   1              P0SR = 0x00;            //0:Fast slope  1:Slow slope
 159   1              P1SR = 0x00;
 160   1              P2SR = 0x00;
 161   1              P5SR = 0X00;
 162   1              */
 163   1      
 164   1              P00CFG = 0x00;
 165   1              P01CFG = 0x00;
 166   1              P02CFG = 0x00;
 167   1              P03CFG = 0x00;
 168   1              P04CFG = 0x00;
 169   1              P05CFG = 0x00;
 170   1              P06CFG = 0x00;
 171   1              P07CFG = 0x00;
 172   1      
 173   1              P10CFG = 0x00;
 174   1              P11CFG = 0x00;
 175   1              P12CFG = 0x00;
 176   1              P13CFG = 0x00;
 177   1              P14CFG = 0x00;
C51 COMPILER V9.60.7.0   MCU_HARDWARE                                                      11/07/2023 15:50:01 PAGE 4   

 178   1              P15CFG = 0x00;
 179   1              P16CFG = 0x00;
 180   1              P17CFG = 0x00;
 181   1      
 182   1              P20CFG = 0x00;
 183   1              P21CFG = 0x00;
 184   1              P22CFG = 0x00;
 185   1              P23CFG = 0x00;
 186   1      #ifndef CMS_TOUCH_DEBUG // 调试需要被复用成串口，需要注意
 187   1              P24CFG = 0x00;
 188   1              P25CFG = 0x00;
 189   1      #endif
 190   1              P26CFG = 0x00;
 191   1              P27CFG = 0x00;
 192   1      
 193   1              P30CFG = 0x00;
 194   1              P31CFG = 0x00;
 195   1              P32CFG = 0x00;
 196   1              P33CFG = 0x00;
 197   1              P34CFG = 0x00;
 198   1              P35CFG = 0x00;
 199   1              P36CFG = 0x00;
 200   1              P37CFG = 0x00;
 201   1      
 202   1              P40CFG = 0x00;
 203   1              P41CFG = 0x00;
 204   1              P42CFG = 0x00;
 205   1              P43CFG = 0x00;
 206   1              P44CFG = 0x00;
 207   1              P45CFG = 0x00;
 208   1              P46CFG = 0x00;
 209   1              P47CFG = 0x00;
 210   1      
 211   1              P50CFG = 0x00;
 212   1              P51CFG = 0x00;
 213   1              P52CFG = 0x00;
 214   1              P53CFG = 0x00;
 215   1              P54CFG = 0x00;
 216   1              P55CFG = 0x00;
 217   1      
 218   1              P0 = 0x00;
 219   1              P1 = 0x00;
 220   1              P2 = 0x00;
 221   1              P3 = 0x00;
 222   1              P4 = 0x00;
 223   1              P5 = 0X00;
 224   1      }
 225          
 226          /***********************************************************************
 227           @接口函数:
 228           @作用:
 229           @参数:    None
 230           @返回值:   None
 231           @变更历史:
 232          备注：
 233          ***********************************************************************/
 234          void f_MCUHardware_GPIO_Config(void)
 235          {
 236   1              // 触摸按键-输出
 237   1              GPIO_Init();
*** WARNING C206 IN LINE 237 OF ..\VIEW\MCU_Hardware.c: 'GPIO_Init': missing function-prototype
 238   1      
C51 COMPILER V9.60.7.0   MCU_HARDWARE                                                      11/07/2023 15:50:01 PAGE 5   

 239   1              // 输出
 240   1              GPIO_SET_MUX_MODE(P17CFG, GPIO_MUX_GPIO);
 241   1              GPIO_ENABLE_OUTPUT(P1TRIS, GPIO_PIN_7);
 242   1      
 243   1              GPIO_SET_MUX_MODE(P20CFG, GPIO_MUX_GPIO);
 244   1              GPIO_ENABLE_OUTPUT(P2TRIS, GPIO_PIN_0);
 245   1      
 246   1              GPIO_SET_MUX_MODE(P21CFG, GPIO_MUX_GPIO);
 247   1              GPIO_ENABLE_OUTPUT(P2TRIS, GPIO_PIN_1);
 248   1      }
 249          
 250          /******************************************************************************
 251           ** \brief       WDT_Config
 252           ** \param [in]
 253           **
 254           ** \return  none
 255           ** \note
 256           ******************************************************************************/
 257          void f_MCUHardware_WDT_Config(void)
 258          {
 259   1              /*
 260   1       (1)喂狗，避免WDT时间太短，进入WDT复位
 261   1       */
 262   1              WDT_ClearWDT();
 263   1              /*
 264   1              (2)开启WDT溢出时间
 265   1              */
 266   1              WDT_ConfigOverflowTime(WDT_CLK_67108864); // Fsys=24Mhz -> Twdt = 4194304/24 = 174.76ms
 267   1              /*
 268   1              (3)设置WDT溢出中断
 269   1              */
 270   1              // WDT_EnableOverflowInt();
 271   1      
 272   1              WDT_EnableWDTReset(); // 开启WDT复位系统功能，Config中设置WDT：SOFTWARECONTROL(软件控制)
 273   1                                                                                                      //  IRQ_SET_PRIORITY(IRQ_WDT, IRQ_PRIORITY_HIGH);
 274   1      }
 275          
 276          /******************************************************************************
 277          ** \brief        TMR0_Config
 278          ** \param [in]
 279          **
 280          ** \return  none
 281          ** \note
 282          ******************************************************************************/
 283          void f_MCUHardware_TMR0_Config(void)
 284          {
 285   1              /*
 286   1              (1)设置Timer的运行模式
 287   1              */
 288   1              TMR_ConfigRunMode(TMR0, TMR_MODE_TIMING, TMR_TIM_16BIT);
 289   1              /*
 290   1              (2)设置Timer 运行时钟
 291   1              */
 292   1              TMR_ConfigTimerClk(TMR0, TMR_CLK_DIV_12); /*Fsys = 24Mhz，Ftimer = 2Mhz,Ttmr=0.5us*/
 293   1              /*
 294   1              (3)设置Timer周期
 295   1              */
 296   1              TMR_ConfigTimerPeriod(TMR0, (65536 - 2000) >> 8, 65536 - 2000); // 2000*0.5us = 1ms,递增计数
 297   1      
 298   1              /*
 299   1              (4)开启中断
 300   1              */
C51 COMPILER V9.60.7.0   MCU_HARDWARE                                                      11/07/2023 15:50:01 PAGE 6   

 301   1              TMR_EnableOverflowInt(TMR0);
 302   1      
 303   1              /*
 304   1              (5)设置Timer中断优先级
 305   1              */
 306   1              IRQ_SET_PRIORITY(IRQ_TMR0, IRQ_PRIORITY_LOW);
 307   1              // IRQ_ALL_ENABLE();
 308   1      
 309   1              /*
 310   1              (6)开启Timer
 311   1              */
 312   1              TMR_Start(TMR0);
 313   1      }
 314          
 315          
 316          
 317          
 318          
 319          void f_MCUHardware_InitSFR(void)
 320          {
 321   1              
 322   1              clrwdt(); // 此宏定义清看门狗会关几条指令时间总中断，使用时需注意
 323   1              Delay_ms(100);
 324   1              clrwdt(); // 此宏定义清看门狗会关几条指令时间总中断，使用时需注意
 325   1      
 326   1          f_MCUHardware_GPIO_Config();
 327   1          f_MCUHardware_TMR0_Config();
 328   1              
 329   1              UART0_APP_Config();      // 串口通讯初始化
 330   1              UART1_APP_Config();      // 串口通讯初始化
 331   1              UART2_APP_Config();      // 串口通讯初始化
 332   1          f_MCUHardware_WDT_Config();
 333   1      #ifdef CMS_TOUCH_DEBUG // 调试宏定义是否为1
                      UART0_Config();
              #endif
 336   1              clrwdt();
 337   1              cmscksel();                             // 触摸时钟源必须始终选择HSI
 338   1              IRQ_ALL_ENABLE(); // 开启总中断
 339   1      
 340   1              
 341   1      
 342   1      
 343   1      }
 344          
 345          void f_MCUHardware_FeedDog(void); /* 喂狗函数 */
 346          {
*** ERROR C141 IN LINE 346 OF ..\VIEW\MCU_Hardware.c: syntax error near '{', expected 'hdata'
 347                  WDT_ClearWDT();
*** ERROR C231 IN LINE 347 OF ..\VIEW\MCU_Hardware.c: 'WDT_ClearWDT': redefinition
 348          }
*** ERROR C141 IN LINE 348 OF ..\VIEW\MCU_Hardware.c: syntax error near '}', expected 'hdata'
 349          void f_MCUHardware_NOPDelay(unsigned short int i_Value); /* 延时函数，使用NOP循环 */
 350          void f_MCUHardware_IntEnable(void);
 351          void f_MCUHardware_INTP_Start(void);
 352          void f_MCUHardware_INTP_Stop(void);
 353          /**** (c) 火星人 *************************** END OF FILE **/
 354          
 355          

C51 COMPILATION COMPLETE.  1 WARNING(S),  3 ERROR(S)
