C51 COMPILER V9.60.7.0   MCUHARDWARE                                                       07/27/2024 08:24:11 PAGE 1   


C51 COMPILER V9.60.7.0, COMPILATION OF MODULE MCUHARDWARE
OBJECT MODULE PLACED IN ..\OBJ\MCUHardware.obj
COMPILER INVOKED BY: D:\Program Files\Keil_v5\C51\BIN\C51.EXE ..\GLOBAL\MCUHardware.c LARGE OMF2 OPTIMIZE(1,SPEED) BROWS
                    -E INCDIR(..\CORE;..\FWLib\inc;..\SYSTEM;..\USER;..\TOUCHLib;..\FLASH_ROLL_LIB;..\GET_TEMP;..\ENCAP;..\VIEW;..\MODEL;..\G
                    -LOBAL) DEBUG PRINT(..\OBJ\MCUHardware.lst) TABS(2) OBJECT(..\OBJ\MCUHardware.obj)

line level    source

   1          #include "cms80f761xx.h"
   2          #include "delay.h"
   3          #include "uart_app.h"
   4          #include "Display.H"
   5          
   6          
   7          
   8          #define clrwdt()   \
   9            \ 
  10          {              \
  11              xdata u8 ea_tmp;     \
  12              ea_tmp = EA;   \
  13              CKCON |= 0xC0; \
  14              CKCON &= 0xDF; \
  15              EA = 0;        \
  16              _nop_();       \
  17              _nop_();       \
  18              TA = 0xAA;     \
  19              TA = 0x55;     \
  20              WDCON = 0x03;  \
  21              EA = ea_tmp;   \
  22            }
  23          
  24          // 打开内部时钟
  25          #define cmscksel() \
  26            {                \
  27              xdata u8 ea_tmp;     \
  28              ea_tmp = EA;   \
  29              EA = 0;        \
  30              _nop_();       \
  31              _nop_();       \
  32              TA = 0xAA;     \
  33              TA = 0x55;     \
  34              SCKSEL = 0x04; \
  35              _nop_();       \
  36              _nop_();       \
  37              _nop_();       \
  38              _nop_();       \
  39              _nop_();       \
  40              _nop_();       \
  41              EA = ea_tmp;   \
  42            }
  43          /****************************************************************************/
  44          /*  Global variable definitions(declared in header file with 'extern')
  45          *****************************************************************************/
  46          
  47          /****************************************************************************/
  48          /*  Local type definitions('typedef')
  49          *****************************************************************************/
  50          
  51          /****************************************************************************/
  52          /*  Local variable  definitions('static')
  53          *****************************************************************************/
C51 COMPILER V9.60.7.0   MCUHARDWARE                                                       07/27/2024 08:24:11 PAGE 2   

  54          
  55          /****************************************************************************/
  56          /*  Local function prototypes('static')
  57          *****************************************************************************/
  58          
  59          /****************************************************************************/
  60          /*  Function implementation - global ('extern') and local('static')
  61          *****************************************************************************/
  62          
  63          /*****************************************************************************
  64           ** \brief   GPIO_Init
  65           **
  66           ** \param [in]  none
  67           **
  68           ** \return 0
  69           *****************************************************************************/
  70          // 触摸口IO方向，可做输入或输出，做输出时PxxCFG寄存器需赋值0，默认做输出提高抗干扰
  71          // IO方向寄存器PxTRIS对应BIT值：
  72          // 0:输入,抗干扰较差
  73          // 1:输出,抗干扰会好，灵敏度可能会降低
  74          void GPIO_Init(void)
  75          {
  76   1        P0 = 0x00;
  77   1        P1 = 0x00;
  78   1        P2 = 0x00;
  79   1        P3 = 0x00;
  80   1        P4 = 0x00;
  81   1        P5 = 0X00;
  82   1        
  83   1        P13=1;
  84   1        P31=1;
  85   1      
  86   1        P0TRIS = 0xFF; // 0:input mode  1:output mode
  87   1        P1TRIS = 0xFF;
  88   1        P2TRIS = 0xFF;
  89   1        P3TRIS = 0xFF;
  90   1        P4TRIS = 0xFF;
  91   1        P5TRIS = 0xFF;
  92   1        /*
  93   1        P0OD = 0x00;    //0:normal output 1:opendrain output
  94   1        P1OD = 0x00;
  95   1        P2OD = 0x00;
  96   1        P5OD = 0X00;
  97   1      
  98   1        P0UP = 0x00;    //0:disable pull high 1:enable pull high
  99   1        P1UP = 0x00;
 100   1        P2UP = 0x00;
 101   1        P5UP = 0X00;
 102   1      
 103   1        P0RD = 0x00;    //0:disbale pull low  1:enable pull low
 104   1        P1RD = 0x00;
 105   1        P2RD = 0x00;
 106   1        P5RD = 0X00;
 107   1      
 108   1        P0SR = 0x00;    //0:Fast slope  1:Slow slope
 109   1        P1SR = 0x00;
 110   1        P2SR = 0x00;
 111   1        P5SR = 0X00;
 112   1        */
 113   1      
 114   1        P00CFG = 0x00;
 115   1        P01CFG = 0x00;
C51 COMPILER V9.60.7.0   MCUHARDWARE                                                       07/27/2024 08:24:11 PAGE 3   

 116   1        P02CFG = 0x00;
 117   1        P03CFG = 0x00;
 118   1        P04CFG = 0x00;
 119   1        P05CFG = 0x00;
 120   1        P06CFG = 0x00;
 121   1        P07CFG = 0x00;
 122   1      
 123   1        P10CFG = 0x00;
 124   1        P11CFG = 0x00;
 125   1        P12CFG = 0x00;
 126   1        P13CFG = 0x00;
 127   1        P14CFG = 0x02;
 128   1        P15CFG = 0x02;
 129   1        P16CFG = 0x00;
 130   1        P17CFG = 0x00;
 131   1      
 132   1        P20CFG = 0x00;
 133   1        P21CFG = 0x00;
 134   1        P22CFG = 0x00;
 135   1        P23CFG = 0x00;
 136   1      #ifndef CMS_TOUCH_DEBUG // 调试需要被复用成串口，需要注意
 137   1        P24CFG = 0x00;
 138   1        P25CFG = 0x00;
 139   1      #endif
 140   1        P26CFG = 0x00;
 141   1        P27CFG = 0x00;
 142   1      
 143   1        P30CFG = 0x00;
 144   1        P31CFG = 0x00;
 145   1        P32CFG = 0x00;
 146   1        P33CFG = 0x00;
 147   1        P34CFG = 0x00;
 148   1        P35CFG = 0x00;
 149   1        P36CFG = 0x00;
 150   1        P37CFG = 0x00;
 151   1      
 152   1        P40CFG = 0x00;
 153   1        P41CFG = 0x00;
 154   1        P42CFG = 0x00;
 155   1        P43CFG = 0x00;
 156   1        P44CFG = 0x00;
 157   1        P45CFG = 0x00;
 158   1        P46CFG = 0x00;
 159   1        P47CFG = 0x00;
 160   1      
 161   1        P50CFG = 0x00;
 162   1        P51CFG = 0x00;
 163   1        P52CFG = 0x00;
 164   1        P53CFG = 0x00;
 165   1        P54CFG = 0x00;
 166   1        P55CFG = 0x00;
 167   1      
 168   1        P0 = 0x00;
 169   1        P1 = 0x00;
 170   1        P2 = 0x00;
 171   1        P3 = 0x00;
 172   1        P4 = 0x00;
 173   1        P5 = 0X00;
 174   1        
 175   1        P13=1;
 176   1        P31=1;
 177   1        
C51 COMPILER V9.60.7.0   MCUHARDWARE                                                       07/27/2024 08:24:11 PAGE 4   

 178   1        P0OD |=0X0f;  //P0低四位开漏输出
 179   1      }
 180          
 181          /***********************************************************************
 182           @接口函数:
 183           @作用:
 184           @参数:    None
 185           @返回值:   None
 186           @变更历史:
 187          备注：
 188          ***********************************************************************/
 189          void GPIO_Config()
 190          {
 191   1        // 触摸按键-输出
 192   1        GPIO_Init();
 193   1      
 194   1        // 输出
 195   1      //  GPIO_SET_MUX_MODE(P17CFG, GPIO_MUX_GPIO);
 196   1      //  GPIO_ENABLE_OUTPUT(P1TRIS, GPIO_PIN_7);
 197   1      
 198   1      //  GPIO_SET_MUX_MODE(P20CFG, GPIO_MUX_GPIO);
 199   1      //  GPIO_ENABLE_OUTPUT(P2TRIS, GPIO_PIN_0);
 200   1      
 201   1      //  GPIO_SET_MUX_MODE(P21CFG, GPIO_MUX_GPIO);
 202   1      //  GPIO_ENABLE_OUTPUT(P2TRIS, GPIO_PIN_1);
 203   1      }
 204          
 205          /******************************************************************************
 206           ** \brief   WDT_Config
 207           ** \param [in]
 208           **
 209           ** \return  none
 210           ** \note
 211           ******************************************************************************/
 212          void WDT_Config(void)
 213          {
 214   1        /*
 215   1       (1)喂狗，避免WDT时间太短，进入WDT复位
 216   1       */
 217   1        WDT_ClearWDT();
 218   1        /*
 219   1        (2)开启WDT溢出时间
 220   1        */
 221   1        WDT_ConfigOverflowTime(WDT_CLK_67108864); // Fsys=24Mhz -> Twdt = 4194304/24 = 174.76ms
 222   1        /*
 223   1        (3)设置WDT溢出中断
 224   1        */
 225   1        // WDT_EnableOverflowInt();
 226   1      
 227   1        WDT_EnableWDTReset(); // 开启WDT复位系统功能，Config中设置WDT：SOFTWARECONTROL(软件控制)
 228   1                              //  IRQ_SET_PRIORITY(IRQ_WDT, IRQ_PRIORITY_HIGH);
 229   1      }
 230          
 231          /******************************************************************************
 232          ** \brief  TMR0_Config
 233          ** \param [in]
 234          **
 235          ** \return  none
 236          ** \note
 237          ******************************************************************************/
 238          void TMR0_Config(void)
 239          {
C51 COMPILER V9.60.7.0   MCUHARDWARE                                                       07/27/2024 08:24:11 PAGE 5   

 240   1        /*
 241   1        (1)设置Timer的运行模式
 242   1        */
 243   1        TMR_ConfigRunMode(TMR0, TMR_MODE_TIMING, TMR_TIM_16BIT);
 244   1        /*
 245   1        (2)设置Timer 运行时钟
 246   1        */
 247   1        TMR_ConfigTimerClk(TMR0, TMR_CLK_DIV_12); /*Fsys = 48Mhz，Ftimer = 48Mhz/12 = 4Mhz,Ttmr = 0.25us*/
 248   1        /*
 249   1        (3)设置Timer周期
 250   1        */
 251   1      
 252   1        TMR_ConfigTimerPeriod(TMR0, (65536 - 2000) >> 8, 65536 - 2000); // 2000*0.25us = 0.5ms,递增计数
 253   1      
 254   1        /*
 255   1        (4)开启中断
 256   1        */
 257   1        TMR_EnableOverflowInt(TMR0);
 258   1      
 259   1        /*
 260   1        (5)设置Timer中断优先级
 261   1        */
 262   1        IRQ_SET_PRIORITY(IRQ_TMR0, IRQ_PRIORITY_LOW);
 263   1        // IRQ_ALL_ENABLE();
 264   1      
 265   1        /*
 266   1        (6)开启Timer
 267   1        */
 268   1        TMR_Start(TMR0);
 269   1      }
 270          void f_MCUHardware_Init(void)
 271          {
 272   1          clrwdt(); // 此宏定义清看门狗会关几条指令时间总中断，使用时需注意
 273   1          Delay_ms(100);
 274   1          clrwdt(); // 此宏定义清看门狗会关几条指令时间总中断，使用时需注意
 275   1          GPIO_Config();
 276   1          TMR0_Config();       // Fosc/1和Fhsi/2,TMR0中断设置为1ms
 277   1          UART0_APP_Config();  // 串口通讯初始化
 278   1          LED_Config();   //改成软件扫描
 279   1        
 280   1        
 281   1       // UART1_APP_Config();  // 串口通讯初始化
 282   1      //  UART2_APP_Config();  // 串口通讯初始化
 283   1        
 284   1        
 285   1        
 286   1          WDT_Config(); // 看门狗初始化
 287   1      //#ifdef CMS_TOUCH_DEBUG // 调试宏定义是否为1
 288   1      //  UART0_Config();
 289   1      //#endif
 290   1      //  clrwdt();
 291   1          cmscksel();       // 触摸时钟源必须始终选择HSI
 292   1          IRQ_ALL_ENABLE(); // 开启总中断
 293   1      }
 294          void GPIO_ReInit(void)
 295          {
 296   1          // 0:input mode 1:output mode
 297   1        P0TRIS = 0x72; //0b10000010;
 298   1        P1TRIS = 0x10; //0b00010000;
 299   1        P2TRIS = 0xFF; //0b11111111;
 300   1        P3TRIS = 0xFF; //0b11111111;
 301   1        P4TRIS = 0xFF; //0b11111111;
C51 COMPILER V9.60.7.0   MCUHARDWARE                                                       07/27/2024 08:24:11 PAGE 6   

 302   1        P5TRIS = 0xFF; //0b11111111;
 303   1          
 304   1          //Touch
 305   1      
 306   1      }
 307          void GPIO_ReConfig()
 308          {
 309   1        // 触摸按键-输出
 310   1          GPIO_SET_MUX_MODE(P36CFG,GPIO_MUX_GPIO);
 311   1          GPIO_ENABLE_OUTPUT(P3TRIS,GPIO_PIN_6);
 312   1          P36=1;
 313   1          GPIO_SET_MUX_MODE(P37CFG,GPIO_MUX_GPIO);
 314   1          GPIO_ENABLE_OUTPUT(P3TRIS,GPIO_PIN_7);
 315   1          GPIO_SET_MUX_MODE(P40CFG,GPIO_MUX_GPIO);
 316   1          GPIO_ENABLE_OUTPUT(P4TRIS,GPIO_PIN_0);
 317   1          GPIO_SET_MUX_MODE(P41CFG,GPIO_MUX_GPIO);
 318   1          GPIO_ENABLE_OUTPUT(P4TRIS,GPIO_PIN_1);
 319   1          GPIO_SET_MUX_MODE(P44CFG,GPIO_MUX_GPIO);
 320   1          GPIO_ENABLE_OUTPUT(P4TRIS,GPIO_PIN_4);
 321   1          GPIO_SET_MUX_MODE(P45CFG,GPIO_MUX_GPIO);
 322   1          GPIO_ENABLE_OUTPUT(P4TRIS,GPIO_PIN_5);
 323   1          GPIO_SET_MUX_MODE(P46CFG,GPIO_MUX_GPIO);
 324   1          GPIO_ENABLE_OUTPUT(P4TRIS,GPIO_PIN_6);
 325   1          GPIO_SET_MUX_MODE(P47CFG,GPIO_MUX_GPIO);
 326   1          GPIO_ENABLE_OUTPUT(P4TRIS,GPIO_PIN_7);
 327   1          GPIO_SET_MUX_MODE(P40CFG,GPIO_MUX_GPIO);
 328   1          GPIO_ENABLE_OUTPUT(P4TRIS,GPIO_PIN_0);
 329   1          
 330   1          //Led
 331   1          GPIO_SET_MUX_MODE(P00CFG,GPIO_MUX_GPIO);
 332   1          GPIO_ENABLE_OUTPUT(P0TRIS,GPIO_PIN_0);
 333   1          GPIO_SET_MUX_MODE(P01CFG,GPIO_MUX_GPIO);
 334   1          GPIO_ENABLE_OUTPUT(P0TRIS,GPIO_PIN_1);
 335   1          GPIO_SET_MUX_MODE(P03CFG,GPIO_MUX_GPIO);
 336   1          GPIO_ENABLE_OUTPUT(P0TRIS,GPIO_PIN_3);
 337   1          GPIO_SET_MUX_MODE(P04CFG,GPIO_MUX_GPIO);
 338   1          GPIO_ENABLE_OUTPUT(P0TRIS,GPIO_PIN_4);
 339   1          GPIO_SET_MUX_MODE(P05CFG,GPIO_MUX_GPIO);
 340   1          GPIO_ENABLE_OUTPUT(P0TRIS,GPIO_PIN_5);
 341   1        // 输出
 342   1        GPIO_SET_MUX_MODE(P17CFG, GPIO_MUX_GPIO);
 343   1        GPIO_ENABLE_OUTPUT(P1TRIS, GPIO_PIN_7);
 344   1      
 345   1        GPIO_SET_MUX_MODE(P20CFG, GPIO_MUX_GPIO);
 346   1        GPIO_ENABLE_OUTPUT(P2TRIS, GPIO_PIN_0);
 347   1      
 348   1        GPIO_SET_MUX_MODE(P21CFG, GPIO_MUX_GPIO);
 349   1        GPIO_ENABLE_OUTPUT(P2TRIS, GPIO_PIN_1);
 350   1      }
 351          void TMR0_ReConfig(void)
 352          {
 353   1        /*
 354   1        (1)设置Timer的运行模式
 355   1        */
 356   1        TMR_ConfigRunMode(TMR0, TMR_MODE_TIMING, TMR_TIM_16BIT);
 357   1        /*
 358   1        (2)设置Timer 运行时钟
 359   1        */
 360   1        TMR_ConfigTimerClk(TMR0, TMR_CLK_DIV_12); /*Fsys = 48Mhz，Ftimer = 48Mhz/12 = 4Mhz,Ttmr = 0.25us*/
 361   1        /*
 362   1        (3)设置Timer周期
 363   1        */
C51 COMPILER V9.60.7.0   MCUHARDWARE                                                       07/27/2024 08:24:11 PAGE 7   

 364   1      
 365   1      //  TMR_ConfigTimerPeriod(TMR0, (65536 - 2000) >> 8, 65536 - 2000); // 2000*0.25us = 0.5ms,递增计数
 366   1      
 367   1        /*
 368   1        (4)开启中断
 369   1        */
 370   1        TMR_EnableOverflowInt(TMR0);
 371   1      
 372   1        /*
 373   1        (5)设置Timer中断优先级
 374   1        */
 375   1        IRQ_SET_PRIORITY(IRQ_TMR0, IRQ_PRIORITY_LOW);
 376   1        // IRQ_ALL_ENABLE();
 377   1      
 378   1        /*
 379   1        (6)开启Timer
 380   1        */
 381   1        TMR_Start(TMR0);
 382   1      }
 383          void f_MCUHardware_ReInit(void)
 384          {
 385   1          GPIO_Config();
 386   1        TMR0_ReConfig(); // Fosc/1 Fhsi/1 TMR0中断设置为1ms
 387   1        UART0_APP_Config();  // 串口通讯初始化
 388   1          UART1_APP_Config();  // 串口通讯初始化
 389   1          UART2_APP_Config();  // 串口通讯初始化
 390   1        WDT_Config(); // 看门狗初始化
 391   1        cmscksel();       // 触摸时钟源必须始终选择HSI
 392   1        IRQ_ALL_ENABLE(); // 开启总中断
 393   1      }
 394          
 395          
 396          
 397          void f_MCUHardware_NOPDelay(unsigned char u16Value)
 398          {
 399   1        while (u16Value)
 400   1        {
 401   2          _nop_();
 402   2              u16Value--;
 403   2        } 
 404   1      }
 405          
 406          void f_MCUHardware_Reset(void)
 407          {
 408   1          TA=0xAA;
 409   1          TA=0x55;
 410   1          WDCON&=0x7F;
 411   1          TA=0xAA; 
 412   1          TA=0x55; 
 413   1          WDCON|=0x80;
 414   1      
 415   1      }


MODULE INFORMATION:   STATIC OVERLAYABLE
   CODE SIZE        =    600    ----
   CONSTANT SIZE    =   ----    ----
   XDATA SIZE       =      3    ----
   PDATA SIZE       =   ----    ----
   DATA SIZE        =   ----    ----
   IDATA SIZE       =   ----    ----
   BIT SIZE         =   ----    ----
C51 COMPILER V9.60.7.0   MCUHARDWARE                                                       07/27/2024 08:24:11 PAGE 8   

   EDATA SIZE       =   ----    ----
   HDATA SIZE       =   ----    ----
   XDATA CONST SIZE =   ----    ----
   FAR CONST SIZE   =   ----    ----
END OF MODULE INFORMATION.


C51 COMPILATION COMPLETE.  0 WARNING(S),  0 ERROR(S)
