C51 COMPILER V9.60.7.0   TM1628DRIVE                                                       01/04/2024 11:14:38 PAGE 1   


C51 COMPILER V9.60.7.0, COMPILATION OF MODULE TM1628DRIVE
OBJECT MODULE PLACED IN ..\OBJ\TM1628Drive.obj
COMPILER INVOKED BY: D:\Program Files\Keil_v5\C51\BIN\C51.EXE ..\VIEW\TM1628Drive.c LARGE OMF2 OPTIMIZE(9,SPEED) BROWSE 
                    -INCDIR(..\CORE;..\FWLib\inc;..\SYSTEM;..\USER;..\TOUCHLib;..\FLASH_ROLL_LIB;..\GET_TEMP;..\ENCAP;..\VIEW;..\MODEL;..\GLO
                    -BAL) DEBUG PRINT(..\OBJ\TM1628Drive.lst) TABS(2) OBJECT(..\OBJ\TM1628Drive.obj)

line level    source

   1          #include "IO_Define.h" /* 包含硬件实现头文件 */
   2          #include "TM1628Drive.h" /* 包含自身头文件 */
   3          #include "MCUHardware.h"
   4          #include "cms80f761xx.h"
   5          
   6          
   7          #define TM1628_IO_STB(sig)    {if (sig>0){P21=1;} else {P21=0;}}
   8          #define TM1628_IO_CLK(sig)    {if (sig>0){P20=1;} else {P20=0;}}
   9          #define TM1628_IO_DIO(sig)    {if (sig>0){P17 =1;} else {P17=0;}}
  10          #define TM1628_DELAYNOP 5
  11          
  12          
  13          
  14          //#define TM1628_DISP_MODE 0x03 /* 显示模式设置:MSB-00; b0~b1-11 7位 10段 */
  15          //#define TM1628_DISP_DATA 0x40 /* 数据设置：MSB-01; b3－0 普通模式；b2-0 写一字节数据后地址增加；b0~b1-00
             - 写数据到显示寄存器 */
  16          //#define TM1628_ADDRESS 0xC0 /* 地址设置：MSB-11;  b3~b0-00H */
  17          //#define TM1628_DISP_ON 0x8B /* 显示控制：MSB-10;  b3-1 显示开; b0~b2-100 设置脉冲宽度(辉度)为 11/16 */
  18          
  19          /*=========================================================
  20          * 函 数 名: f_TM1628_SendStop()
  21          * 功能描述: 发送停止 
  22          * 调用方法: f_TM1628_SendStop();
  23          =========================================================*/
  24          void f_TM1628_SendStop(void)
  25          {
  26   1        f_MCUHardware_NOPDelay(TM1628_DELAYNOP);  
  27   1        TM1628_IO_STB(1);
  28   1        f_MCUHardware_NOPDelay(TM1628_DELAYNOP);
  29   1      
  30   1      }
  31          
  32          /*=========================================================
  33          * 函 数 名: f_TM1628_SendStart()
  34          * 功能描述: 发送开始命令, 数据的输入的开始条件是CLK为高电平时, OUT_TM1628_STB由高变低 
  35          * 调用方法: f_TM1628_SendStart();
  36          =========================================================*/
  37          void f_TM1628_SendStart(void)
  38          {
  39   1        TM1628_IO_CLK(1);                         /* CLK↑->STB↑ 最少时间 1us */
  40   1        f_MCUHardware_NOPDelay(TM1628_DELAYNOP);
  41   1        TM1628_IO_STB(1);                           /* 选通脉冲宽度 最少时间1us */
  42   1        f_MCUHardware_NOPDelay(TM1628_DELAYNOP);
  43   1        TM1628_IO_STB(0);
  44   1        f_MCUHardware_NOPDelay(TM1628_DELAYNOP);
  45   1      
  46   1      }
  47          
  48          /*=========================================================
  49          * 函 数 名: void f_TM1628_SendByte(unsigned char i_Data)
  50          * 功能描述: 发送一个字节,从高到低传输
  51          * 调用方法: f_TM1628_SendByte(0x08);
  52          * 输入变量: 要发送的内容 
C51 COMPILER V9.60.7.0   TM1628DRIVE                                                       01/04/2024 11:14:38 PAGE 2   

  53          =========================================================*/
  54          void f_TM1628_SendByte(unsigned char u8Byte)
  55          {
  56   1        xdata unsigned char i;
  57   1        
  58   1        for (i = 8; i > 0; i--)
  59   1        {
  60   2          TM1628_IO_CLK(0); /*  在时钟低电平时送入串行数据，从低位开始 */
  61   2          f_MCUHardware_NOPDelay(TM1628_DELAYNOP);
  62   2        
  63   2          if(u8Byte & (0x01)!=0)/* 取最低位 */
  64   2          {
  65   3            TM1628_IO_DIO(1);
  66   3          } 
  67   2          else
  68   2          { 
  69   3            TM1628_IO_DIO(0);
  70   3          } 
  71   2          u8Byte >>= 1;
  72   2          f_MCUHardware_NOPDelay(TM1628_DELAYNOP); /* 上升沿输入数据  , CLK 脉冲宽度最少400ns */
  73   2          TM1628_IO_CLK(1);
  74   2          f_MCUHardware_NOPDelay(TM1628_DELAYNOP); /* CLK↑-->CLK↓ 最小等待时间 1us */
  75   2        }
  76   1      }
  77          
  78          void f_TM1628_WriteByte(unsigned char u8Byte)
  79          {
  80   1          
  81   1        f_TM1628_SendStart(); /* 发送起始 */
  82   1        f_TM1628_SendByte(u8Byte); /* 发送数据  */
  83   1        f_TM1628_SendStop(); /* 发送结束 */
  84   1      }
  85          
  86          
  87          void f_TM1628_WriteScreen(unsigned short int* u16Data, unsigned char u8Len)
  88          {
  89   1          unsigned char i=0;
  90   1        f_TM1628_SendStart(); /* 发送起始 */
  91   1        f_TM1628_SendByte(0x00|(TM1628_CMD_ADDR<<TM1628_CMD_OFFSET)|0x00); /* 设置地址 */
  92   1      //  f_TM1628_SendByte(0xc0); /* 设置地址 */
  93   1      
  94   1          for(;i<u8Len;i++)
  95   1          {
  96   2              f_TM1628_SendByte((u16Data[i])&0x00FF); /* 发送显示数据(seg1~seg8) */
  97   2              f_TM1628_SendByte(((u16Data[i])&0xFF00)>>8); /* 发送显示数据(seg9~seg16) */
  98   2          }
  99   1          
 100   1        f_TM1628_SendStop();    /* 发送结束 */
 101   1      }
 102          /* 每个U16代表一个GRID，从低到高为SEG1~SEG16(TM1628最大只有SEG14)*/
 103          xdata unsigned short int u16TM1628RamData[TM1628_GRIDNUM];
 104          
 105          void f_TM1628Drive_SetRamBit(unsigned char u8Grid,unsigned char u8Seg)
 106          {
 107   1          if(u8Grid>=TM1628_GRIDNUM)
 108   1              return;
 109   1          if(u8Seg>=TM1628_SEGNUM)
 110   1              return;
 111   1          
 112   1          
 113   1          u16TM1628RamData[u8Grid] |= (0x0001<<u8Seg);
 114   1          
C51 COMPILER V9.60.7.0   TM1628DRIVE                                                       01/04/2024 11:14:38 PAGE 3   

 115   1      }
 116          void f_TM1628Drive_ClrRamBit(unsigned char u8Grid,unsigned char u8Seg)
 117          {
 118   1          if(u8Grid>=TM1628_GRIDNUM)
 119   1              return;
 120   1          if(u8Seg>=TM1628_SEGNUM)
 121   1              return;
 122   1          
 123   1          u16TM1628RamData[u8Grid] &= ~(0x0001<<u8Seg);
 124   1      }
 125          
 126          unsigned int f_TM1628Drive_GetGrid(unsigned char u8Grid)
 127          {
 128   1          return u16TM1628RamData[u8Grid];
 129   1      }
 130          void f_TM1628Drive_SetGrid(unsigned char u8Grid,unsigned short int u16Data)
 131          {
 132   1          if(u8Grid>=TM1628_GRIDNUM)
 133   1              return;
 134   1          u16TM1628RamData[u8Grid]=u16Data;
 135   1      }
 136          
 137          
 138          void f_TM1628Drive_RefreshAll(void)
 139          {
 140   1       
 141   1          f_TM1628_WriteByte(0x00|(TM1628_CMD_DSPMODE<<TM1628_CMD_OFFSET)|TM1628_DSPMODE_SET); /* 显示模式  */
 142   1          f_TM1628_WriteByte(0x00|(TM1628_CMD_DATA<<TM1628_CMD_OFFSET)|TM1628_DATA_WRITE|TM1628_DATA_ADDRAUTO|TM
             -1628_DATA_NORMAL); /* 数据设置 */
 143   1          f_TM1628_WriteScreen(u16TM1628RamData,TM1628_GRIDNUM);
 144   1          f_TM1628_WriteByte(0x00|(TM1628_CMD_DSPCON<<TM1628_CMD_OFFSET)|TM1628_DSPCON_11P16|TM1628_DSPCON_ON); 
             -/* 发送显示开指令 */
 145   1          
 146   1      //    f_TM1628_WriteByte(0x03); /* 显示模式 */
 147   1      //    f_TM1628_WriteByte(0x40); /* 数据设置 */
 148   1      //    f_TM1628_WriteScreen(u16TM1628RamData,TM1628_GRIDNUM);
 149   1      //    f_TM1628_WriteByte(0x00|(TM1628_CMD_DSPCON<<TM1628_CMD_OFFSET)|TM1628_DSPCON_1P16|TM1628_DSPCON_ON);
             - /* 发送显示开指令  */
 150   1         
 151   1      }
 152          
 153          void f_TM1628Drive_GridOn(TM1628_GRID eGrid)
 154          {
 155   1          if(eGrid<TM1628_GRIDNUM)
 156   1              u16TM1628RamData[eGrid]=0xffff;
 157   1      }
 158          void f_TM1628Drive_GridOff(TM1628_GRID eGrid)
 159          {
 160   1          if(eGrid<TM1628_GRIDNUM)
 161   1              u16TM1628RamData[eGrid]=0x0000;
 162   1      }
 163          
 164          void f_TM1628Drive_AllON(void)
 165          {
 166   1          unsigned char i=0;
 167   1          for(i=0;i<TM1628_GRIDNUM;i++)
 168   1          {
 169   2              u16TM1628RamData[i]=0xffff;
 170   2          }
 171   1      }
 172          void f_TM1628Drive_AllOFF(void)
 173          {
C51 COMPILER V9.60.7.0   TM1628DRIVE                                                       01/04/2024 11:14:38 PAGE 4   

 174   1          unsigned char i=0;
 175   1          for(i=0;i<TM1628_GRIDNUM;i++)
 176   1          {
 177   2              u16TM1628RamData[i]=0x0000;
 178   2          }
 179   1      }
 180          
 181          void f_TM1628Drive_100MsRoutine(void)
 182          {
 183   1          f_TM1628Drive_RefreshAll();
 184   1      }
 185          
 186          void f_TM1628Drive_Init(void)
 187          {
 188   1          f_TM1628Drive_AllOFF();
 189   1          f_TM1628Drive_RefreshAll();
 190   1      //    f_TM1628_WriteByte(0x00|(TM1628_CMD_DSPMODE<<TM1628_CMD_OFFSET)|TM1628_DSPMODE_SET); /* 显示模式  */
 191   1      //    f_TM1628_WriteByte(0x00|(TM1628_CMD_DATA<<TM1628_CMD_OFFSET)|TM1628_DATA_WRITE|TM1628_DATA_ADDRAUTO|
             -TM1628_DATA_NORMAL); /* 数据设置 */
 192   1      }
 193          
 194          /**** (c) 火星人 *************************** END OF FILE **/


MODULE INFORMATION:   STATIC OVERLAYABLE
   CODE SIZE        =    452    ----
   CONSTANT SIZE    =   ----    ----
   XDATA SIZE       =     10       8
   PDATA SIZE       =   ----    ----
   DATA SIZE        =   ----    ----
   IDATA SIZE       =   ----    ----
   BIT SIZE         =   ----    ----
   EDATA SIZE       =   ----    ----
   HDATA SIZE       =   ----    ----
   XDATA CONST SIZE =   ----    ----
   FAR CONST SIZE   =   ----    ----
END OF MODULE INFORMATION.


C51 COMPILATION COMPLETE.  0 WARNING(S),  0 ERROR(S)
