C51 COMPILER V9.54   TM1668                                                                10/29/2023 20:18:07 PAGE 1   


C51 COMPILER V9.54, COMPILATION OF MODULE TM1668
OBJECT MODULE PLACED IN ..\OBJ\TM1668.obj
COMPILER INVOKED BY: D:\ProgramData\Keil_v5\C51\BIN\C51.EXE ..\USER\TM1668.c LARGE OMF2 OPTIMIZE(2,SPEED) BROWSE MODDP2 
                    -INCDIR(..\CORE;..\FWLib\inc;..\USER;..\FLASH_ROLL_LIB;..\GET_TEMP) DEBUG PRINT(..\OBJ\TM1668.lst) TABS(2) OBJECT(..\OBJ\
                    -TM1668.obj)

line level    source

   1          #include "TM1668.h"
   2          
   3          #define SET_DIO() P16 = 1
   4          #define CLR_DIO() P16 = 0
   5          #define SET_SCLK() P17 = 1
   6          #define CLR_SCLK() P17 = 0
   7          #define SET_STB() P20 = 1
   8          #define CLR_STB() P20 = 0
   9          
  10          // 显示控制，0x88-0x8f 从暗到亮变化
  11          #define M_DISP_CTRL_SETTING(en) ((0x80 + CFG_BRIGHTNESS) | (en << 3))
  12          
  13          static void Delay(unsigned char t);
  14          static void SendData(unsigned char dat);
  15          
  16          unsigned char code DEG_TAB_UC[10] = {
  17              0x3F, 0x06, 0x5B, 0x4F, 0x66, 0x6D, 0x7D, 0x07, 0x7F, 0x6F};
  18          
  19          uint8 s_data_L[8];
  20          uint8 s_data_H[8];
  21          void DIS_TG()
  22          {
  23   1          uint8 i;
  24   1          s_data_L[0] = 0;
  25   1          for (i = 0; i < 8; i++)
  26   1        {
  27   2          s_data_L[i] = 0x00;
  28   2          s_data_H[i] = 0x00;
  29   2        }
  30   1      
  31   1          if (DispData[0] & SEGM_A)    {        s_data_L[0] |= 0x01;    }
  32   1          if (DispData[0] & SEGM_B)    {        s_data_L[2] |= 0x01;    }
  33   1          if (DispData[0] & SEGM_C)    {        s_data_L[4] |= 0x01;    }
  34   1          if (DispData[0] & SEGM_D)    {        s_data_L[5] |= 0x01;    }
  35   1          if (DispData[0] & SEGM_E)    {        s_data_L[6] |= 0x01;    }
  36   1          if (DispData[0] & SEGM_F)    {        s_data_L[1] |= 0x01;    }
  37   1          if (DispData[0] & SEGM_G)    {        s_data_L[3] |= 0x01;    }
  38   1      
  39   1          if (DispData[1] & SEGM_A)    {        s_data_L[0] |= 0x02;    }
  40   1          if (DispData[1] & SEGM_B)    {        s_data_L[2] |= 0x02;    }
  41   1          if (DispData[1] & SEGM_C)    {        s_data_L[4] |= 0x02;    }
  42   1          if (DispData[1] & SEGM_D)    {        s_data_L[5] |= 0x02;    }
  43   1          if (DispData[1] & SEGM_E)    {        s_data_L[6] |= 0x02;    }
  44   1          if (DispData[1] & SEGM_F)    {        s_data_L[1] |= 0x02;    }
  45   1          if (DispData[1] & SEGM_G)    {        s_data_L[3] |= 0x02;    }
  46   1      
  47   1          if (DispData[2] & SEGM_A)    {        s_data_L[0] |= 0x04;    }
  48   1          if (DispData[2] & SEGM_B)    {        s_data_L[2] |= 0x04;    }
  49   1          if (DispData[2] & SEGM_C)    {        s_data_L[4] |= 0x04;    }
  50   1          if (DispData[2] & SEGM_D)    {        s_data_L[5] |= 0x04;    }
  51   1          if (DispData[2] & SEGM_E)    {        s_data_L[6] |= 0x04;    }
  52   1          if (DispData[2] & SEGM_F)    {        s_data_L[1] |= 0x04;    }
  53   1          if (DispData[2] & SEGM_G)    {        s_data_L[3] |= 0x04;    }
C51 COMPILER V9.54   TM1668                                                                10/29/2023 20:18:07 PAGE 2   

  54   1      
  55   1          if (DispData[3] & SEGM_A)    {        s_data_H[0] |= 0x02;    }
  56   1          if (DispData[3] & SEGM_B)    {        s_data_H[2] |= 0x02;    }
  57   1          if (DispData[3] & SEGM_C)    {        s_data_H[4] |= 0x02;    }
  58   1          if (DispData[3] & SEGM_D)    {        s_data_H[5] |= 0x02;    }
  59   1          if (DispData[3] & SEGM_E)    {        s_data_H[6] |= 0x02;    }
  60   1          if (DispData[3] & SEGM_F)    {        s_data_H[1] |= 0x02;    }
  61   1          if (DispData[3] & SEGM_G)    {        s_data_H[3] |= 0x02;    }
  62   1      
  63   1          if (DispData[4] & SEGM_A)    {        s_data_H[0] |= 0x01;    }
  64   1          if (DispData[4] & SEGM_B)    {        s_data_H[2] |= 0x01;    }
  65   1          if (DispData[4] & SEGM_C)    {        s_data_H[4] |= 0x01;    }
  66   1          if (DispData[4] & SEGM_D)    {        s_data_H[5] |= 0x01;    }
  67   1          if (DispData[4] & SEGM_E)    {        s_data_H[6] |= 0x01;    }
  68   1          if (DispData[4] & SEGM_F)    {        s_data_H[1] |= 0x01;    }
  69   1          if (DispData[4] & SEGM_G)    {        s_data_H[3] |= 0x01;    }
  70   1      
  71   1          if (DispData[5] & SEGM_A)    {        s_data_L[0] |= 0x80;    }
  72   1          if (DispData[5] & SEGM_B)    {        s_data_L[2] |= 0x80;    }
  73   1          if (DispData[5] & SEGM_C)    {        s_data_L[4] |= 0x80;    }
  74   1          if (DispData[5] & SEGM_D)    {        s_data_L[5] |= 0x80;    }
  75   1          if (DispData[5] & SEGM_E)    {        s_data_L[6] |= 0x80;    }
  76   1          if (DispData[5] & SEGM_F)    {        s_data_L[1] |= 0x80;    }
  77   1          if (DispData[5] & SEGM_G)    {        s_data_L[3] |= 0x80;    }
  78   1      
  79   1          if (DispData[6] & SEGM_A)    {        s_data_L[0] |= 0x20;    }
  80   1          if (DispData[6] & SEGM_B)    {        s_data_L[2] |= 0x20;    }
  81   1          if (DispData[6] & SEGM_C)    {        s_data_L[4] |= 0x20;    }
  82   1          if (DispData[6] & SEGM_D)    {        s_data_L[5] |= 0x20;    }
  83   1          if (DispData[6] & SEGM_E)    {        s_data_L[6] |= 0x20;    }
  84   1          if (DispData[6] & SEGM_F)    {        s_data_L[1] |= 0x20;    }
  85   1          if (DispData[6] & SEGM_G)    {        s_data_L[3] |= 0x20;    }
  86   1      
  87   1          if (DispData[7] & SEGM_A)    {        s_data_L[0] |= 0x10;    }
  88   1          if (DispData[7] & SEGM_B)    {        s_data_L[2] |= 0x10;    }
  89   1          if (DispData[7] & SEGM_C)    {        s_data_L[4] |= 0x10;    }
  90   1          if (DispData[7] & SEGM_D)    {        s_data_L[5] |= 0x10;    }
  91   1          if (DispData[7] & SEGM_E)    {        s_data_L[6] |= 0x10;    }
  92   1          if (DispData[7] & SEGM_F)    {        s_data_L[1] |= 0x10;    }
  93   1          if (DispData[7] & SEGM_G)    {        s_data_L[3] |= 0x10;    }
  94   1      
  95   1          
  96   1      }
  97          void TM1668_Init()
  98          {
  99   1          
 100   1          // INIT_TRIS();
 101   1          SET_STB();
 102   1          Delay(1);
 103   1      
 104   1          // 发送显示模式设置
 105   1          CLR_STB();
 106   1          SendData(CFG_DISP_MODE_SETTING);
 107   1          SET_STB();
 108   1          Delay(5);
 109   1          // 发送数据命令设置
 110   1          CLR_STB();
 111   1          SendData(CFG_DATA_CMD_SETTING);
 112   1          SET_STB();
 113   1          Delay(5);
 114   1          // 发送显示控制
 115   1          CLR_STB();
C51 COMPILER V9.54   TM1668                                                                10/29/2023 20:18:07 PAGE 3   

 116   1          SendData(M_DISP_CTRL_SETTING(1));
 117   1          SET_STB();
 118   1          Delay(5);
 119   1      
 120   1          DIS_TG();
 121   1          TM1668_SendAddrData(0xC0, s_data_L[0]);    TM1668_SendAddrData(0xC1, s_data_H[0]);
 122   1          TM1668_SendAddrData(0xC2, s_data_L[1]);    TM1668_SendAddrData(0xC3, s_data_H[1]);
 123   1          TM1668_SendAddrData(0xC4, s_data_L[2]);    TM1668_SendAddrData(0xC5, s_data_H[2]);
 124   1          TM1668_SendAddrData(0xC6, s_data_L[3]);    TM1668_SendAddrData(0xC7, s_data_H[3]);
 125   1          TM1668_SendAddrData(0xC8, s_data_L[4]);    TM1668_SendAddrData(0xC9, s_data_H[4]);
 126   1          TM1668_SendAddrData(0xCA, s_data_L[5]);    TM1668_SendAddrData(0xCB, s_data_H[5]);
 127   1          TM1668_SendAddrData(0xCC, s_data_L[6]);    TM1668_SendAddrData(0xCD, s_data_H[6]);
 128   1      
 129   1      
 130   1      } // TM1668_Init()
 131          
 132          void TM1668_SendAddrData(unsigned char addr, unsigned char dat)
 133          {
 134   1          SET_STB();
 135   1          Delay(1);
 136   1          CLR_STB();
 137   1          SendData(addr);
 138   1          Delay(1);
 139   1          SendData(dat);
 140   1          SET_STB();
 141   1          Delay(5);
 142   1      } // TM1668_SendAddrData(unsigned char, unsigned char)
 143          
 144          // void TM1668_Switch(unsigned char flag)
 145          //{
 146          //     CLR_STB();
 147          //     SendData(M_DISP_CTRL_SETTING(flag));
 148          //     SET_STB();
 149          // } // TM1668_Switch(unsigned char)
 150          
 151          static void Delay(unsigned char t)
 152          {
 153   1          for (; t > 0; t--)
 154   1              ;
 155   1          return;
 156   1      } // Delay(unsigned char)
 157          
 158          static void SendData(unsigned char dat)
 159          {
 160   1          unsigned char i;
 161   1      
 162   1          CLR_SCLK();
 163   1          for (i = 0x01; i != 0x00; i <<= 1)
 164   1          {
 165   2              Delay(1);
 166   2              if (dat & i)
 167   2              {
 168   3                  SET_DIO();
 169   3              }
 170   2              else
 171   2              {
 172   3                  CLR_DIO();
 173   3              }
 174   2              SET_SCLK();
 175   2              Delay(1);
 176   2              CLR_SCLK();
 177   2          }
C51 COMPILER V9.54   TM1668                                                                10/29/2023 20:18:07 PAGE 4   

 178   1      } // SendData(unsigned char)


MODULE INFORMATION:   STATIC OVERLAYABLE
   CODE SIZE        =   1692    ----
   CONSTANT SIZE    =     10    ----
   XDATA SIZE       =     16       6
   PDATA SIZE       =   ----    ----
   DATA SIZE        =   ----    ----
   IDATA SIZE       =   ----    ----
   BIT SIZE         =   ----    ----
   EDATA SIZE       =   ----    ----
   HDATA SIZE       =   ----    ----
   XDATA CONST SIZE =   ----    ----
   FAR CONST SIZE   =   ----    ----
END OF MODULE INFORMATION.


C51 COMPILATION COMPLETE.  0 WARNING(S),  0 ERROR(S)
