C51 COMPILER V9.60.7.0   UART_APP                                                          07/27/2024 08:24:08 PAGE 1   


C51 COMPILER V9.60.7.0, COMPILATION OF MODULE UART_APP
OBJECT MODULE PLACED IN ..\OBJ\uart_app.obj
COMPILER INVOKED BY: D:\Program Files\Keil_v5\C51\BIN\C51.EXE ..\USER\uart_app.c LARGE OMF2 OPTIMIZE(1,SPEED) BROWSE INC
                    -DIR(..\CORE;..\FWLib\inc;..\SYSTEM;..\USER;..\TOUCHLib;..\FLASH_ROLL_LIB;..\GET_TEMP;..\ENCAP;..\VIEW;..\MODEL;..\GLOBAL
                    -) DEBUG PRINT(..\OBJ\uart_app.lst) TABS(2) OBJECT(..\OBJ\uart_app.obj)

line level    source

   1          /*******************************************************************************
   2           * Copyright (C) 2019 China Micro Semiconductor Limited Company. All Rights Reserved.
   3           *
   4           * This software is owned and published by:
   5           * CMS LLC, No 2609-10, Taurus Plaza, TaoyuanRoad, NanshanDistrict, Shenzhen, China.
   6           *
   7           * BY DOWNLOADING, INSTALLING OR USING THIS SOFTWARE, YOU AGREE TO BE BOUND
   8           * BY ALL THE TERMS AND CONDITIONS OF THIS AGREEMENT.
   9           *
  10           * This software contains source code for use with CMS
  11           * components. This software is licensed by CMS to be adapted only
  12           * for use in systems utilizing CMS components. CMS shall not be
  13           * responsible for misuse or illegal use of this software for devices not
  14           * supported herein. CMS is providing this software "AS IS" and will
  15           * not be responsible for issues arising from incorrect user implementation
  16           * of the software.
  17           *
  18           * This software may be replicated in part or whole for the licensed use,
  19           * with the restriction that this Disclaimer and Copyright notice must be
  20           * included with each copy of this software, whether used in part or whole,
  21           * at all times.
  22           */
  23          
  24          /****************************************************************************/
  25          /** \file time.c
  26          **
  27          **
  28          **
  29          **  History:
  30          **
  31          *****************************************************************************/
  32          /****************************************************************************/
  33          /*  include files
  34          *****************************************************************************/
  35          #include "uart_app.h"
  36          #include "cms80f761xx.h"
  37          
  38          /****************************************************************************/
  39          /*  Local pre-processor symbols('#define')
  40          ****************************************************************************/
  41          
  42          /****************************************************************************/
  43          /*  Global variable definitions(declared in header file with 'extern')
  44          ****************************************************************************/
  45          
  46          /****************************************************************************/
  47          /*  Local type definitions('typedef')
  48          ****************************************************************************/
  49          
  50          /****************************************************************************/
  51          /*  Local variable  definitions('static')
  52          ****************************************************************************/
  53          
C51 COMPILER V9.60.7.0   UART_APP                                                          07/27/2024 08:24:08 PAGE 2   

  54          /****************************************************************************/
  55          /*  Local function prototypes('static')
  56          ****************************************************************************/
  57          
  58          /****************************************************************************/
  59          /*  Function implementation - global ('extern') and local('static')
  60          ****************************************************************************/
  61          /*****************************************************************************
  62           ** \brief   UART0_Config
  63           **
  64           ** \param [in]  none
  65           **
  66           ** \return 0
  67           *****************************************************************************/
  68          //void UART0_APP_Config(void)
  69          //{
  70          //  uint8_t THxValue = 0;
  71          
  72          //  /*
  73          //  (1)设置UARTx的运行模式
  74          //  */
  75          //  UART_ConfigRunMode(UART0, UART_MOD_ASY_8BIT, UART_BAUD_TMR4);
  76          //  UART_EnableReceive(UART0);
  77          //  /*
  78          //  (2)配置UARTx的波特率
  79          //  */
  80          //  TMR_ConfigTimerClk(TMR4, TMR_CLK_DIV_4);                     /*TM =1*/
  81          //    TMR_ConfigRunMode(TMR4, TMR_MODE_TIMING, TMR_TIM_AUTO_8BIT); /*设置为8位重装模式*/
  82          
  83          //    UART_EnableDoubleFrequency(UART0); /*波特率使能倍频：SMOD =1*/
  84          ////    THxValue = 178;                    // 9600       // 使用数据手册上推荐的加载值(UART章节),对应的系统时钟：48MH
             -z
  85          //    THxValue = 217;                    // 19200        // 使用数据手册上推荐的加载值(UART章节),对应的系统时钟：48MHz
  86          
  87          //  TMR_ConfigTimerPeriod(TMR4, THxValue, THxValue); /*配置重装值*/
  88          //  TMR_Start(TMR4);  /*使能定时器*/
  89          
  90          //  /*
  91          //  (3)配置IO口
  92          //  */
  93          //  GPIO_SET_MUX_MODE(P15CFG, GPIO_P15_MUX_TXD0); /*TXD0*/
  94          //  GPIO_SET_MUX_MODE(P14CFG, GPIO_P14_MUX_RXD0); /*RXD0*/
  95          //  GPIO_SET_PS_MODE(PS_RXD0, GPIO_P14);          /*RXD0输入选择P14*/
  96          
  97          //  /*
  98          //    (4)设置UART中断
  99          //    */
 100          //  UART_EnableInt(UART0);
 101          //  IRQ_SET_PRIORITY(IRQ_UART0, IRQ_PRIORITY_LOW);
 102          //}
 103          void UART0_APP_Config(void)
 104          {
 105   1          xdata uint16_t BRTValue = 0;
 106   1      
 107   1        /*
 108   1        (1)设置UARTx的运行模式
 109   1        */
 110   1        UART_ConfigRunMode(UART0, UART_MOD_ASY_8BIT, UART_BAUD_BRT);
 111   1        UART_EnableReceive(UART0);
 112   1        /*
 113   1        (2)配置UARTx的波特率
 114   1        */
C51 COMPILER V9.60.7.0   UART_APP                                                          07/27/2024 08:24:08 PAGE 3   

 115   1        UART_ConfigBRTClk(BRT_CLK_DIV_1);
 116   1          
 117   1        UART_EnableDoubleFrequency(UART0); /*波特率使能倍频：SMOD =1*/
 118   1          
 119   1        BRTValue = 65224;      // 9600 使用数据手册上推荐的加载值(BRT章节)
 120   1      
 121   1        UART_ConfigBRTPeriod(BRTValue); /*配置重装值*/
 122   1        UART_EnableBRT(); /*使能定时器*/
 123   1      
 124   1        /*
 125   1        (3)配置IO口
 126   1        */
 127   1        GPIO_SET_MUX_MODE(P15CFG, GPIO_P15_MUX_TXD0); /*TXD0*/
 128   1        GPIO_SET_MUX_MODE(P14CFG, GPIO_P14_MUX_RXD0); /*RXD0*/
 129   1        GPIO_SET_PS_MODE(PS_RXD0, GPIO_P14);          /*RXD0输入选择P14*/
 130   1      
 131   1        /*
 132   1          (4)设置UART中断
 133   1          */
 134   1        UART_EnableInt(UART0);
 135   1        IRQ_SET_PRIORITY(IRQ_UART0, IRQ_PRIORITY_LOW);
 136   1      }
 137          
 138          void UART0_Senddata(char ch)
 139          {
 140   1        SBUF0 = ch;
 141   1      //  while (!(SCON0 & (1 << 1)))
 142   1      //    ;
 143   1      //  SCON0 &= ~(1 << 1);
 144   1      }
 145          
 146          /******************************************************************************
 147           ** \brief   UART1_Config
 148           ** \param [in]
 149           **
 150           ** \return  none
 151           ** \note
 152           ******************************************************************************/
 153          void UART1_APP_Config(void)
 154          {
 155   1          xdata uint16_t BRTValue = 0;
 156   1      
 157   1        /*
 158   1        (1)设置UARTx的运行模式
 159   1        */
 160   1        UART_ConfigRunMode(UART1, UART_MOD_ASY_8BIT, UART_BAUD_BRT);
 161   1        UART_EnableReceive(UART1);
 162   1        /*
 163   1        (2)配置UARTx的波特率
 164   1        */
 165   1        UART_ConfigBRTClk(BRT_CLK_DIV_1);
 166   1          
 167   1        UART_EnableDoubleFrequency(UART1); /*波特率使能倍频：SMOD =1*/
 168   1          
 169   1        BRTValue = 65510;      // 115200 使用数据手册上推荐的加载值(BRT章节)
 170   1      
 171   1        UART_ConfigBRTPeriod(BRTValue); /*配置重装值*/
 172   1        UART_EnableBRT(); /*使能定时器*/
 173   1      
 174   1        /*
 175   1        (3)配置IO口
 176   1        */
C51 COMPILER V9.60.7.0   UART_APP                                                          07/27/2024 08:24:08 PAGE 4   

 177   1        GPIO_SET_MUX_MODE(P06CFG, GPIO_MUX_TXD1); /*TXD1*/
 178   1        GPIO_SET_MUX_MODE(P07CFG, GPIO_MUX_RXD1); /*RXD1*/
 179   1        GPIO_SET_PS_MODE(PS_RXD1, GPIO_P07);      /*RXD1输入选择P07*/
 180   1      //  GPIO_SET_MUX_MODE(P47CFG, GPIO_MUX_TXD1); /*TXD1*/
 181   1      //  GPIO_SET_MUX_MODE(P46CFG, GPIO_MUX_RXD1); /*RXD1*/
 182   1      //  GPIO_SET_PS_MODE(PS_RXD1, GPIO_P46);      /*RXD1输入选择P07*/
 183   1      
 184   1        /*
 185   1      (4)设置UART中断
 186   1      */
 187   1        UART_EnableInt(UART1);
 188   1        IRQ_SET_PRIORITY(IRQ_UART1, IRQ_PRIORITY_LOW);
 189   1      }
 190          
 191          void UART1_Senddata(char ch)
 192          {
 193   1        SBUF1 = ch;
 194   1      //  while (!(SCON1 & (1 << 1)))
 195   1      //    ;
 196   1      //  SCON1 &= ~(1 << 1);
 197   1      }
 198          
 199          /******************************************************************************
 200           ** \brief   UART2_Config
 201           ** \param [in]
 202           **
 203           ** \return  none
 204           ** \note
 205           ******************************************************************************/
 206          void UART2_APP_Config(void)
 207          {
 208   1          xdata uint8_t THxValue = 0;
 209   1        /*
 210   1         (1)设置UARTx的运行模式
 211   1         */
 212   1        UART_ConfigRunMode(UART2, UART_MOD_ASY_8BIT, UART_BAUD_TMR4);
 213   1        UART_EnableReceive(UART2);
 214   1        /*
 215   1         (2)配置UARTx的波特率
 216   1         */
 217   1        TMR_ConfigTimerClk(TMR4, TMR_CLK_DIV_4);                     /*TM =1*/
 218   1          TMR_ConfigRunMode(TMR4, TMR_MODE_TIMING, TMR_TIM_AUTO_8BIT); /*设置为8位重装模式*/
 219   1      
 220   1          UART_EnableDoubleFrequency(UART2); /*波特率使能倍频：SMOD =1*/
 221   1          THxValue = 178;                    // 9600       // 使用数据手册上推荐的加载值(UART章节),对应的系统时钟：48MHz
 222   1      //    THxValue = 217;                    // 19200        // 使用数据手册上推荐的加载值(UART章节),对应的系统时钟：48MHz
 223   1      
 224   1        TMR_ConfigTimerPeriod(TMR4, THxValue, THxValue); /*配置重装值*/
 225   1        TMR_Start(TMR4);  /*使能定时器*/
 226   1      
 227   1        /*
 228   1        (3)配置IO口
 229   1        */
 230   1        GPIO_SET_MUX_MODE(P01CFG, GPIO_P01_MUX_TXD2); /*TXD2*/
 231   1        GPIO_SET_MUX_MODE(P00CFG, GPIO_P00_MUX_RXD2); /*RXD2*/
 232   1      
 233   1        /*
 234   1      (4)设置UART中断
 235   1      */
 236   1        UART_EnableInt(UART2);
 237   1        IRQ_SET_PRIORITY(IRQ_UART2, IRQ_PRIORITY_LOW);
 238   1      }
C51 COMPILER V9.60.7.0   UART_APP                                                          07/27/2024 08:24:08 PAGE 5   

 239          
 240          void UART2_Senddata(char ch)
 241          {
 242   1      //  SFRS = 0x1; /*选择BANK1*/
 243   1        SBUF2 = ch;
 244   1      //  while (!(SCON2 & (1 << 1)));
 245   1      //  SCON2 &= ~(1 << 1);
 246   1      //  SFRS = 0x0; /*选择BANK0*/
 247   1      }


MODULE INFORMATION:   STATIC OVERLAYABLE
   CODE SIZE        =    263    ----
   CONSTANT SIZE    =   ----    ----
   XDATA SIZE       =      8    ----
   PDATA SIZE       =   ----    ----
   DATA SIZE        =   ----    ----
   IDATA SIZE       =   ----    ----
   BIT SIZE         =   ----    ----
   EDATA SIZE       =   ----    ----
   HDATA SIZE       =   ----    ----
   XDATA CONST SIZE =   ----    ----
   FAR CONST SIZE   =   ----    ----
END OF MODULE INFORMATION.


C51 COMPILATION COMPLETE.  0 WARNING(S),  0 ERROR(S)
